
lw7.1.elf:     file format elf32-littlearm

Sections:
Idx Name          Size      VMA       LMA       File off  Algn
  0 .isr_vector   00000188  08000000  08000000  00010000  2**0
                  CONTENTS, ALLOC, LOAD, READONLY, DATA
  1 .text         00002f3c  08000190  08000190  00010190  2**4
                  CONTENTS, ALLOC, LOAD, READONLY, CODE
  2 .rodata       00000150  080030cc  080030cc  000130cc  2**2
                  CONTENTS, ALLOC, LOAD, READONLY, DATA
  3 .ARM.extab    00000000  0800321c  0800321c  00020070  2**0
                  CONTENTS
  4 .ARM          00000008  0800321c  0800321c  0001321c  2**2
                  CONTENTS, ALLOC, LOAD, READONLY, DATA
  5 .preinit_array 00000000  08003224  08003224  00020070  2**0
                  CONTENTS, ALLOC, LOAD, DATA
  6 .init_array   00000004  08003224  08003224  00013224  2**2
                  CONTENTS, ALLOC, LOAD, DATA
  7 .fini_array   00000004  08003228  08003228  00013228  2**2
                  CONTENTS, ALLOC, LOAD, DATA
  8 .data         00000070  20000000  0800322c  00020000  2**2
                  CONTENTS, ALLOC, LOAD, DATA
  9 .ccmram       00000000  10000000  10000000  00020070  2**0
                  CONTENTS
 10 .bss          000000bc  20000070  20000070  00020070  2**2
                  ALLOC
 11 ._user_heap_stack 00000604  2000012c  2000012c  00020070  2**0
                  ALLOC
 12 .ARM.attributes 00000030  00000000  00000000  00020070  2**0
                  CONTENTS, READONLY
 13 .debug_info   00007912  00000000  00000000  000200a0  2**0
                  CONTENTS, READONLY, DEBUGGING, OCTETS
 14 .debug_abbrev 000012e1  00000000  00000000  000279b2  2**0
                  CONTENTS, READONLY, DEBUGGING, OCTETS
 15 .debug_aranges 00000630  00000000  00000000  00028c98  2**3
                  CONTENTS, READONLY, DEBUGGING, OCTETS
 16 .debug_ranges 000005b8  00000000  00000000  000292c8  2**3
                  CONTENTS, READONLY, DEBUGGING, OCTETS
 17 .debug_macro  0002021b  00000000  00000000  00029880  2**0
                  CONTENTS, READONLY, DEBUGGING, OCTETS
 18 .debug_line   00007d1f  00000000  00000000  00049a9b  2**0
                  CONTENTS, READONLY, DEBUGGING, OCTETS
 19 .debug_str    000c2976  00000000  00000000  000517ba  2**0
                  CONTENTS, READONLY, DEBUGGING, OCTETS
 20 .comment      00000050  00000000  00000000  00114130  2**0
                  CONTENTS, READONLY
 21 .debug_frame  00001ca4  00000000  00000000  00114180  2**2
                  CONTENTS, READONLY, DEBUGGING, OCTETS

Disassembly of section .text:

08000190 <__do_global_dtors_aux>:
 8000190:	b510      	push	{r4, lr}
 8000192:	4c05      	ldr	r4, [pc, #20]	; (80001a8 <__do_global_dtors_aux+0x18>)
 8000194:	7823      	ldrb	r3, [r4, #0]
 8000196:	b933      	cbnz	r3, 80001a6 <__do_global_dtors_aux+0x16>
 8000198:	4b04      	ldr	r3, [pc, #16]	; (80001ac <__do_global_dtors_aux+0x1c>)
 800019a:	b113      	cbz	r3, 80001a2 <__do_global_dtors_aux+0x12>
 800019c:	4804      	ldr	r0, [pc, #16]	; (80001b0 <__do_global_dtors_aux+0x20>)
 800019e:	f3af 8000 	nop.w
 80001a2:	2301      	movs	r3, #1
 80001a4:	7023      	strb	r3, [r4, #0]
 80001a6:	bd10      	pop	{r4, pc}
 80001a8:	20000070 	.word	0x20000070
 80001ac:	00000000 	.word	0x00000000
 80001b0:	080030b4 	.word	0x080030b4

080001b4 <frame_dummy>:
 80001b4:	b508      	push	{r3, lr}
 80001b6:	4b03      	ldr	r3, [pc, #12]	; (80001c4 <frame_dummy+0x10>)
 80001b8:	b11b      	cbz	r3, 80001c2 <frame_dummy+0xe>
 80001ba:	4903      	ldr	r1, [pc, #12]	; (80001c8 <frame_dummy+0x14>)
 80001bc:	4803      	ldr	r0, [pc, #12]	; (80001cc <frame_dummy+0x18>)
 80001be:	f3af 8000 	nop.w
 80001c2:	bd08      	pop	{r3, pc}
 80001c4:	00000000 	.word	0x00000000
 80001c8:	20000074 	.word	0x20000074
 80001cc:	080030b4 	.word	0x080030b4

080001d0 <strlen>:
 80001d0:	4603      	mov	r3, r0
 80001d2:	f813 2b01 	ldrb.w	r2, [r3], #1
 80001d6:	2a00      	cmp	r2, #0
 80001d8:	d1fb      	bne.n	80001d2 <strlen+0x2>
 80001da:	1a18      	subs	r0, r3, r0
 80001dc:	3801      	subs	r0, #1
 80001de:	4770      	bx	lr

080001e0 <memchr>:
 80001e0:	f001 01ff 	and.w	r1, r1, #255	; 0xff
 80001e4:	2a10      	cmp	r2, #16
 80001e6:	db2b      	blt.n	8000240 <memchr+0x60>
 80001e8:	f010 0f07 	tst.w	r0, #7
 80001ec:	d008      	beq.n	8000200 <memchr+0x20>
 80001ee:	f810 3b01 	ldrb.w	r3, [r0], #1
 80001f2:	3a01      	subs	r2, #1
 80001f4:	428b      	cmp	r3, r1
 80001f6:	d02d      	beq.n	8000254 <memchr+0x74>
 80001f8:	f010 0f07 	tst.w	r0, #7
 80001fc:	b342      	cbz	r2, 8000250 <memchr+0x70>
 80001fe:	d1f6      	bne.n	80001ee <memchr+0xe>
 8000200:	b4f0      	push	{r4, r5, r6, r7}
 8000202:	ea41 2101 	orr.w	r1, r1, r1, lsl #8
 8000206:	ea41 4101 	orr.w	r1, r1, r1, lsl #16
 800020a:	f022 0407 	bic.w	r4, r2, #7
 800020e:	f07f 0700 	mvns.w	r7, #0
 8000212:	2300      	movs	r3, #0
 8000214:	e8f0 5602 	ldrd	r5, r6, [r0], #8
 8000218:	3c08      	subs	r4, #8
 800021a:	ea85 0501 	eor.w	r5, r5, r1
 800021e:	ea86 0601 	eor.w	r6, r6, r1
 8000222:	fa85 f547 	uadd8	r5, r5, r7
 8000226:	faa3 f587 	sel	r5, r3, r7
 800022a:	fa86 f647 	uadd8	r6, r6, r7
 800022e:	faa5 f687 	sel	r6, r5, r7
 8000232:	b98e      	cbnz	r6, 8000258 <memchr+0x78>
 8000234:	d1ee      	bne.n	8000214 <memchr+0x34>
 8000236:	bcf0      	pop	{r4, r5, r6, r7}
 8000238:	f001 01ff 	and.w	r1, r1, #255	; 0xff
 800023c:	f002 0207 	and.w	r2, r2, #7
 8000240:	b132      	cbz	r2, 8000250 <memchr+0x70>
 8000242:	f810 3b01 	ldrb.w	r3, [r0], #1
 8000246:	3a01      	subs	r2, #1
 8000248:	ea83 0301 	eor.w	r3, r3, r1
 800024c:	b113      	cbz	r3, 8000254 <memchr+0x74>
 800024e:	d1f8      	bne.n	8000242 <memchr+0x62>
 8000250:	2000      	movs	r0, #0
 8000252:	4770      	bx	lr
 8000254:	3801      	subs	r0, #1
 8000256:	4770      	bx	lr
 8000258:	2d00      	cmp	r5, #0
 800025a:	bf06      	itte	eq
 800025c:	4635      	moveq	r5, r6
 800025e:	3803      	subeq	r0, #3
 8000260:	3807      	subne	r0, #7
 8000262:	f015 0f01 	tst.w	r5, #1
 8000266:	d107      	bne.n	8000278 <memchr+0x98>
 8000268:	3001      	adds	r0, #1
 800026a:	f415 7f80 	tst.w	r5, #256	; 0x100
 800026e:	bf02      	ittt	eq
 8000270:	3001      	addeq	r0, #1
 8000272:	f415 3fc0 	tsteq.w	r5, #98304	; 0x18000
 8000276:	3001      	addeq	r0, #1
 8000278:	bcf0      	pop	{r4, r5, r6, r7}
 800027a:	3801      	subs	r0, #1
 800027c:	4770      	bx	lr
 800027e:	bf00      	nop

08000280 <__aeabi_uldivmod>:
 8000280:	b953      	cbnz	r3, 8000298 <__aeabi_uldivmod+0x18>
 8000282:	b94a      	cbnz	r2, 8000298 <__aeabi_uldivmod+0x18>
 8000284:	2900      	cmp	r1, #0
 8000286:	bf08      	it	eq
 8000288:	2800      	cmpeq	r0, #0
 800028a:	bf1c      	itt	ne
 800028c:	f04f 31ff 	movne.w	r1, #4294967295
 8000290:	f04f 30ff 	movne.w	r0, #4294967295
 8000294:	f000 b974 	b.w	8000580 <__aeabi_idiv0>
 8000298:	f1ad 0c08 	sub.w	ip, sp, #8
 800029c:	e96d ce04 	strd	ip, lr, [sp, #-16]!
 80002a0:	f000 f806 	bl	80002b0 <__udivmoddi4>
 80002a4:	f8dd e004 	ldr.w	lr, [sp, #4]
 80002a8:	e9dd 2302 	ldrd	r2, r3, [sp, #8]
 80002ac:	b004      	add	sp, #16
 80002ae:	4770      	bx	lr

080002b0 <__udivmoddi4>:
 80002b0:	e92d 47f0 	stmdb	sp!, {r4, r5, r6, r7, r8, r9, sl, lr}
 80002b4:	9d08      	ldr	r5, [sp, #32]
 80002b6:	4604      	mov	r4, r0
 80002b8:	468e      	mov	lr, r1
 80002ba:	2b00      	cmp	r3, #0
 80002bc:	d14d      	bne.n	800035a <__udivmoddi4+0xaa>
 80002be:	428a      	cmp	r2, r1
 80002c0:	4694      	mov	ip, r2
 80002c2:	d969      	bls.n	8000398 <__udivmoddi4+0xe8>
 80002c4:	fab2 f282 	clz	r2, r2
 80002c8:	b152      	cbz	r2, 80002e0 <__udivmoddi4+0x30>
 80002ca:	fa01 f302 	lsl.w	r3, r1, r2
 80002ce:	f1c2 0120 	rsb	r1, r2, #32
 80002d2:	fa20 f101 	lsr.w	r1, r0, r1
 80002d6:	fa0c fc02 	lsl.w	ip, ip, r2
 80002da:	ea41 0e03 	orr.w	lr, r1, r3
 80002de:	4094      	lsls	r4, r2
 80002e0:	ea4f 481c 	mov.w	r8, ip, lsr #16
 80002e4:	0c21      	lsrs	r1, r4, #16
 80002e6:	fbbe f6f8 	udiv	r6, lr, r8
 80002ea:	fa1f f78c 	uxth.w	r7, ip
 80002ee:	fb08 e316 	mls	r3, r8, r6, lr
 80002f2:	ea41 4303 	orr.w	r3, r1, r3, lsl #16
 80002f6:	fb06 f107 	mul.w	r1, r6, r7
 80002fa:	4299      	cmp	r1, r3
 80002fc:	d90a      	bls.n	8000314 <__udivmoddi4+0x64>
 80002fe:	eb1c 0303 	adds.w	r3, ip, r3
 8000302:	f106 30ff 	add.w	r0, r6, #4294967295
 8000306:	f080 811f 	bcs.w	8000548 <__udivmoddi4+0x298>
 800030a:	4299      	cmp	r1, r3
 800030c:	f240 811c 	bls.w	8000548 <__udivmoddi4+0x298>
 8000310:	3e02      	subs	r6, #2
 8000312:	4463      	add	r3, ip
 8000314:	1a5b      	subs	r3, r3, r1
 8000316:	b2a4      	uxth	r4, r4
 8000318:	fbb3 f0f8 	udiv	r0, r3, r8
 800031c:	fb08 3310 	mls	r3, r8, r0, r3
 8000320:	ea44 4403 	orr.w	r4, r4, r3, lsl #16
 8000324:	fb00 f707 	mul.w	r7, r0, r7
 8000328:	42a7      	cmp	r7, r4
 800032a:	d90a      	bls.n	8000342 <__udivmoddi4+0x92>
 800032c:	eb1c 0404 	adds.w	r4, ip, r4
 8000330:	f100 33ff 	add.w	r3, r0, #4294967295
 8000334:	f080 810a 	bcs.w	800054c <__udivmoddi4+0x29c>
 8000338:	42a7      	cmp	r7, r4
 800033a:	f240 8107 	bls.w	800054c <__udivmoddi4+0x29c>
 800033e:	4464      	add	r4, ip
 8000340:	3802      	subs	r0, #2
 8000342:	ea40 4006 	orr.w	r0, r0, r6, lsl #16
 8000346:	1be4      	subs	r4, r4, r7
 8000348:	2600      	movs	r6, #0
 800034a:	b11d      	cbz	r5, 8000354 <__udivmoddi4+0xa4>
 800034c:	40d4      	lsrs	r4, r2
 800034e:	2300      	movs	r3, #0
 8000350:	e9c5 4300 	strd	r4, r3, [r5]
 8000354:	4631      	mov	r1, r6
 8000356:	e8bd 87f0 	ldmia.w	sp!, {r4, r5, r6, r7, r8, r9, sl, pc}
 800035a:	428b      	cmp	r3, r1
 800035c:	d909      	bls.n	8000372 <__udivmoddi4+0xc2>
 800035e:	2d00      	cmp	r5, #0
 8000360:	f000 80ef 	beq.w	8000542 <__udivmoddi4+0x292>
 8000364:	2600      	movs	r6, #0
 8000366:	e9c5 0100 	strd	r0, r1, [r5]
 800036a:	4630      	mov	r0, r6
 800036c:	4631      	mov	r1, r6
 800036e:	e8bd 87f0 	ldmia.w	sp!, {r4, r5, r6, r7, r8, r9, sl, pc}
 8000372:	fab3 f683 	clz	r6, r3
 8000376:	2e00      	cmp	r6, #0
 8000378:	d14a      	bne.n	8000410 <__udivmoddi4+0x160>
 800037a:	428b      	cmp	r3, r1
 800037c:	d302      	bcc.n	8000384 <__udivmoddi4+0xd4>
 800037e:	4282      	cmp	r2, r0
 8000380:	f200 80f9 	bhi.w	8000576 <__udivmoddi4+0x2c6>
 8000384:	1a84      	subs	r4, r0, r2
 8000386:	eb61 0303 	sbc.w	r3, r1, r3
 800038a:	2001      	movs	r0, #1
 800038c:	469e      	mov	lr, r3
 800038e:	2d00      	cmp	r5, #0
 8000390:	d0e0      	beq.n	8000354 <__udivmoddi4+0xa4>
 8000392:	e9c5 4e00 	strd	r4, lr, [r5]
 8000396:	e7dd      	b.n	8000354 <__udivmoddi4+0xa4>
 8000398:	b902      	cbnz	r2, 800039c <__udivmoddi4+0xec>
 800039a:	deff      	udf	#255	; 0xff
 800039c:	fab2 f282 	clz	r2, r2
 80003a0:	2a00      	cmp	r2, #0
 80003a2:	f040 8092 	bne.w	80004ca <__udivmoddi4+0x21a>
 80003a6:	eba1 010c 	sub.w	r1, r1, ip
 80003aa:	ea4f 471c 	mov.w	r7, ip, lsr #16
 80003ae:	fa1f fe8c 	uxth.w	lr, ip
 80003b2:	2601      	movs	r6, #1
 80003b4:	0c20      	lsrs	r0, r4, #16
 80003b6:	fbb1 f3f7 	udiv	r3, r1, r7
 80003ba:	fb07 1113 	mls	r1, r7, r3, r1
 80003be:	ea40 4101 	orr.w	r1, r0, r1, lsl #16
 80003c2:	fb0e f003 	mul.w	r0, lr, r3
 80003c6:	4288      	cmp	r0, r1
 80003c8:	d908      	bls.n	80003dc <__udivmoddi4+0x12c>
 80003ca:	eb1c 0101 	adds.w	r1, ip, r1
 80003ce:	f103 38ff 	add.w	r8, r3, #4294967295
 80003d2:	d202      	bcs.n	80003da <__udivmoddi4+0x12a>
 80003d4:	4288      	cmp	r0, r1
 80003d6:	f200 80cb 	bhi.w	8000570 <__udivmoddi4+0x2c0>
 80003da:	4643      	mov	r3, r8
 80003dc:	1a09      	subs	r1, r1, r0
 80003de:	b2a4      	uxth	r4, r4
 80003e0:	fbb1 f0f7 	udiv	r0, r1, r7
 80003e4:	fb07 1110 	mls	r1, r7, r0, r1
 80003e8:	ea44 4401 	orr.w	r4, r4, r1, lsl #16
 80003ec:	fb0e fe00 	mul.w	lr, lr, r0
 80003f0:	45a6      	cmp	lr, r4
 80003f2:	d908      	bls.n	8000406 <__udivmoddi4+0x156>
 80003f4:	eb1c 0404 	adds.w	r4, ip, r4
 80003f8:	f100 31ff 	add.w	r1, r0, #4294967295
 80003fc:	d202      	bcs.n	8000404 <__udivmoddi4+0x154>
 80003fe:	45a6      	cmp	lr, r4
 8000400:	f200 80bb 	bhi.w	800057a <__udivmoddi4+0x2ca>
 8000404:	4608      	mov	r0, r1
 8000406:	eba4 040e 	sub.w	r4, r4, lr
 800040a:	ea40 4003 	orr.w	r0, r0, r3, lsl #16
 800040e:	e79c      	b.n	800034a <__udivmoddi4+0x9a>
 8000410:	f1c6 0720 	rsb	r7, r6, #32
 8000414:	40b3      	lsls	r3, r6
 8000416:	fa22 fc07 	lsr.w	ip, r2, r7
 800041a:	ea4c 0c03 	orr.w	ip, ip, r3
 800041e:	fa20 f407 	lsr.w	r4, r0, r7
 8000422:	fa01 f306 	lsl.w	r3, r1, r6
 8000426:	431c      	orrs	r4, r3
 8000428:	40f9      	lsrs	r1, r7
 800042a:	ea4f 491c 	mov.w	r9, ip, lsr #16
 800042e:	fa00 f306 	lsl.w	r3, r0, r6
 8000432:	fbb1 f8f9 	udiv	r8, r1, r9
 8000436:	0c20      	lsrs	r0, r4, #16
 8000438:	fa1f fe8c 	uxth.w	lr, ip
 800043c:	fb09 1118 	mls	r1, r9, r8, r1
 8000440:	ea40 4101 	orr.w	r1, r0, r1, lsl #16
 8000444:	fb08 f00e 	mul.w	r0, r8, lr
 8000448:	4288      	cmp	r0, r1
 800044a:	fa02 f206 	lsl.w	r2, r2, r6
 800044e:	d90b      	bls.n	8000468 <__udivmoddi4+0x1b8>
 8000450:	eb1c 0101 	adds.w	r1, ip, r1
 8000454:	f108 3aff 	add.w	sl, r8, #4294967295
 8000458:	f080 8088 	bcs.w	800056c <__udivmoddi4+0x2bc>
 800045c:	4288      	cmp	r0, r1
 800045e:	f240 8085 	bls.w	800056c <__udivmoddi4+0x2bc>
 8000462:	f1a8 0802 	sub.w	r8, r8, #2
 8000466:	4461      	add	r1, ip
 8000468:	1a09      	subs	r1, r1, r0
 800046a:	b2a4      	uxth	r4, r4
 800046c:	fbb1 f0f9 	udiv	r0, r1, r9
 8000470:	fb09 1110 	mls	r1, r9, r0, r1
 8000474:	ea44 4101 	orr.w	r1, r4, r1, lsl #16
 8000478:	fb00 fe0e 	mul.w	lr, r0, lr
 800047c:	458e      	cmp	lr, r1
 800047e:	d908      	bls.n	8000492 <__udivmoddi4+0x1e2>
 8000480:	eb1c 0101 	adds.w	r1, ip, r1
 8000484:	f100 34ff 	add.w	r4, r0, #4294967295
 8000488:	d26c      	bcs.n	8000564 <__udivmoddi4+0x2b4>
 800048a:	458e      	cmp	lr, r1
 800048c:	d96a      	bls.n	8000564 <__udivmoddi4+0x2b4>
 800048e:	3802      	subs	r0, #2
 8000490:	4461      	add	r1, ip
 8000492:	ea40 4008 	orr.w	r0, r0, r8, lsl #16
 8000496:	fba0 9402 	umull	r9, r4, r0, r2
 800049a:	eba1 010e 	sub.w	r1, r1, lr
 800049e:	42a1      	cmp	r1, r4
 80004a0:	46c8      	mov	r8, r9
 80004a2:	46a6      	mov	lr, r4
 80004a4:	d356      	bcc.n	8000554 <__udivmoddi4+0x2a4>
 80004a6:	d053      	beq.n	8000550 <__udivmoddi4+0x2a0>
 80004a8:	b15d      	cbz	r5, 80004c2 <__udivmoddi4+0x212>
 80004aa:	ebb3 0208 	subs.w	r2, r3, r8
 80004ae:	eb61 010e 	sbc.w	r1, r1, lr
 80004b2:	fa01 f707 	lsl.w	r7, r1, r7
 80004b6:	fa22 f306 	lsr.w	r3, r2, r6
 80004ba:	40f1      	lsrs	r1, r6
 80004bc:	431f      	orrs	r7, r3
 80004be:	e9c5 7100 	strd	r7, r1, [r5]
 80004c2:	2600      	movs	r6, #0
 80004c4:	4631      	mov	r1, r6
 80004c6:	e8bd 87f0 	ldmia.w	sp!, {r4, r5, r6, r7, r8, r9, sl, pc}
 80004ca:	f1c2 0320 	rsb	r3, r2, #32
 80004ce:	40d8      	lsrs	r0, r3
 80004d0:	fa0c fc02 	lsl.w	ip, ip, r2
 80004d4:	fa21 f303 	lsr.w	r3, r1, r3
 80004d8:	4091      	lsls	r1, r2
 80004da:	4301      	orrs	r1, r0
 80004dc:	ea4f 471c 	mov.w	r7, ip, lsr #16
 80004e0:	fa1f fe8c 	uxth.w	lr, ip
 80004e4:	fbb3 f0f7 	udiv	r0, r3, r7
 80004e8:	fb07 3610 	mls	r6, r7, r0, r3
 80004ec:	0c0b      	lsrs	r3, r1, #16
 80004ee:	ea43 4306 	orr.w	r3, r3, r6, lsl #16
 80004f2:	fb00 f60e 	mul.w	r6, r0, lr
 80004f6:	429e      	cmp	r6, r3
 80004f8:	fa04 f402 	lsl.w	r4, r4, r2
 80004fc:	d908      	bls.n	8000510 <__udivmoddi4+0x260>
 80004fe:	eb1c 0303 	adds.w	r3, ip, r3
 8000502:	f100 38ff 	add.w	r8, r0, #4294967295
 8000506:	d22f      	bcs.n	8000568 <__udivmoddi4+0x2b8>
 8000508:	429e      	cmp	r6, r3
 800050a:	d92d      	bls.n	8000568 <__udivmoddi4+0x2b8>
 800050c:	3802      	subs	r0, #2
 800050e:	4463      	add	r3, ip
 8000510:	1b9b      	subs	r3, r3, r6
 8000512:	b289      	uxth	r1, r1
 8000514:	fbb3 f6f7 	udiv	r6, r3, r7
 8000518:	fb07 3316 	mls	r3, r7, r6, r3
 800051c:	ea41 4103 	orr.w	r1, r1, r3, lsl #16
 8000520:	fb06 f30e 	mul.w	r3, r6, lr
 8000524:	428b      	cmp	r3, r1
 8000526:	d908      	bls.n	800053a <__udivmoddi4+0x28a>
 8000528:	eb1c 0101 	adds.w	r1, ip, r1
 800052c:	f106 38ff 	add.w	r8, r6, #4294967295
 8000530:	d216      	bcs.n	8000560 <__udivmoddi4+0x2b0>
 8000532:	428b      	cmp	r3, r1
 8000534:	d914      	bls.n	8000560 <__udivmoddi4+0x2b0>
 8000536:	3e02      	subs	r6, #2
 8000538:	4461      	add	r1, ip
 800053a:	1ac9      	subs	r1, r1, r3
 800053c:	ea46 4600 	orr.w	r6, r6, r0, lsl #16
 8000540:	e738      	b.n	80003b4 <__udivmoddi4+0x104>
 8000542:	462e      	mov	r6, r5
 8000544:	4628      	mov	r0, r5
 8000546:	e705      	b.n	8000354 <__udivmoddi4+0xa4>
 8000548:	4606      	mov	r6, r0
 800054a:	e6e3      	b.n	8000314 <__udivmoddi4+0x64>
 800054c:	4618      	mov	r0, r3
 800054e:	e6f8      	b.n	8000342 <__udivmoddi4+0x92>
 8000550:	454b      	cmp	r3, r9
 8000552:	d2a9      	bcs.n	80004a8 <__udivmoddi4+0x1f8>
 8000554:	ebb9 0802 	subs.w	r8, r9, r2
 8000558:	eb64 0e0c 	sbc.w	lr, r4, ip
 800055c:	3801      	subs	r0, #1
 800055e:	e7a3      	b.n	80004a8 <__udivmoddi4+0x1f8>
 8000560:	4646      	mov	r6, r8
 8000562:	e7ea      	b.n	800053a <__udivmoddi4+0x28a>
 8000564:	4620      	mov	r0, r4
 8000566:	e794      	b.n	8000492 <__udivmoddi4+0x1e2>
 8000568:	4640      	mov	r0, r8
 800056a:	e7d1      	b.n	8000510 <__udivmoddi4+0x260>
 800056c:	46d0      	mov	r8, sl
 800056e:	e77b      	b.n	8000468 <__udivmoddi4+0x1b8>
 8000570:	3b02      	subs	r3, #2
 8000572:	4461      	add	r1, ip
 8000574:	e732      	b.n	80003dc <__udivmoddi4+0x12c>
 8000576:	4630      	mov	r0, r6
 8000578:	e709      	b.n	800038e <__udivmoddi4+0xde>
 800057a:	4464      	add	r4, ip
 800057c:	3802      	subs	r0, #2
 800057e:	e742      	b.n	8000406 <__udivmoddi4+0x156>

08000580 <__aeabi_idiv0>:
 8000580:	4770      	bx	lr
 8000582:	bf00      	nop

08000584 <main>:
/**
  * @brief  The application entry point.
  * @retval int
  */
int main(void)
{
 8000584:	b580      	push	{r7, lr}
 8000586:	b092      	sub	sp, #72	; 0x48
 8000588:	af00      	add	r7, sp, #0
  /* USER CODE END 1 */

  /* MCU Configuration--------------------------------------------------------*/

  /* Reset of all peripherals, Initializes the Flash interface and the Systick. */
  HAL_Init();
 800058a:	f000 fc75 	bl	8000e78 <HAL_Init>
  /* USER CODE BEGIN Init */

  /* USER CODE END Init */

  /* Configure the system clock */
  SystemClock_Config();
 800058e:	f000 fa0d 	bl	80009ac <SystemClock_Config>
  /* USER CODE BEGIN SysInit */

  /* USER CODE END SysInit */

  /* Initialize all configured peripherals */
  MX_GPIO_Init();
 8000592:	f000 fac9 	bl	8000b28 <MX_GPIO_Init>
  MX_USART2_UART_Init();
 8000596:	f000 fa73 	bl	8000a80 <MX_USART2_UART_Init>
  MX_USART3_UART_Init();
 800059a:	f000 fa9b 	bl	8000ad4 <MX_USART3_UART_Init>
  /* USER CODE BEGIN 2 */
  int number = 0;
 800059e:	2300      	movs	r3, #0
 80005a0:	647b      	str	r3, [r7, #68]	; 0x44
  char data[32] = "";
 80005a2:	2300      	movs	r3, #0
 80005a4:	623b      	str	r3, [r7, #32]
 80005a6:	f107 0324 	add.w	r3, r7, #36	; 0x24
 80005aa:	2200      	movs	r2, #0
 80005ac:	601a      	str	r2, [r3, #0]
 80005ae:	605a      	str	r2, [r3, #4]
 80005b0:	609a      	str	r2, [r3, #8]
 80005b2:	60da      	str	r2, [r3, #12]
 80005b4:	611a      	str	r2, [r3, #16]
 80005b6:	615a      	str	r2, [r3, #20]
 80005b8:	619a      	str	r2, [r3, #24]
  while (1)
  {
    /* USER CODE END WHILE */

    /* USER CODE BEGIN 3 */
	  sprintf(data,"%d",number);
 80005ba:	f107 0320 	add.w	r3, r7, #32
 80005be:	6c7a      	ldr	r2, [r7, #68]	; 0x44
 80005c0:	49b9      	ldr	r1, [pc, #740]	; (80008a8 <main+0x324>)
 80005c2:	4618      	mov	r0, r3
 80005c4:	f002 f87c 	bl	80026c0 <siprintf>
	  HAL_UART_Transmit(&huart2, (uint8_t*)data, strlen(data),HAL_MAX_DELAY);
 80005c8:	f107 0320 	add.w	r3, r7, #32
 80005cc:	4618      	mov	r0, r3
 80005ce:	f7ff fdff 	bl	80001d0 <strlen>
 80005d2:	4603      	mov	r3, r0
 80005d4:	b29a      	uxth	r2, r3
 80005d6:	f107 0120 	add.w	r1, r7, #32
 80005da:	f04f 33ff 	mov.w	r3, #4294967295
 80005de:	48b3      	ldr	r0, [pc, #716]	; (80008ac <main+0x328>)
 80005e0:	f001 fc21 	bl	8001e26 <HAL_UART_Transmit>

	  char received_data[32];
	  HAL_UART_Receive(&huart3, (uint8_t*)received_data, strlen(data), HAL_MAX_DELAY);
 80005e4:	f107 0320 	add.w	r3, r7, #32
 80005e8:	4618      	mov	r0, r3
 80005ea:	f7ff fdf1 	bl	80001d0 <strlen>
 80005ee:	4603      	mov	r3, r0
 80005f0:	b29a      	uxth	r2, r3
 80005f2:	4639      	mov	r1, r7
 80005f4:	f04f 33ff 	mov.w	r3, #4294967295
 80005f8:	48ad      	ldr	r0, [pc, #692]	; (80008b0 <main+0x32c>)
 80005fa:	f001 fca6 	bl	8001f4a <HAL_UART_Receive>
	  int received_number = atoi(received_data);
 80005fe:	463b      	mov	r3, r7
 8000600:	4618      	mov	r0, r3
 8000602:	f002 f827 	bl	8002654 <atoi>
 8000606:	6438      	str	r0, [r7, #64]	; 0x40

	  if(received_number == 0){
 8000608:	6c3b      	ldr	r3, [r7, #64]	; 0x40
 800060a:	2b00      	cmp	r3, #0
 800060c:	d118      	bne.n	8000640 <main+0xbc>
		  HAL_GPIO_WritePin(GPIOD, GPIO_PIN_12, GPIO_PIN_RESET);
 800060e:	2200      	movs	r2, #0
 8000610:	f44f 5180 	mov.w	r1, #4096	; 0x1000
 8000614:	48a7      	ldr	r0, [pc, #668]	; (80008b4 <main+0x330>)
 8000616:	f000 ff47 	bl	80014a8 <HAL_GPIO_WritePin>
		  HAL_GPIO_WritePin(GPIOD, GPIO_PIN_13, GPIO_PIN_RESET);
 800061a:	2200      	movs	r2, #0
 800061c:	f44f 5100 	mov.w	r1, #8192	; 0x2000
 8000620:	48a4      	ldr	r0, [pc, #656]	; (80008b4 <main+0x330>)
 8000622:	f000 ff41 	bl	80014a8 <HAL_GPIO_WritePin>
		  HAL_GPIO_WritePin(GPIOD, GPIO_PIN_14, GPIO_PIN_RESET);
 8000626:	2200      	movs	r2, #0
 8000628:	f44f 4180 	mov.w	r1, #16384	; 0x4000
 800062c:	48a1      	ldr	r0, [pc, #644]	; (80008b4 <main+0x330>)
 800062e:	f000 ff3b 	bl	80014a8 <HAL_GPIO_WritePin>
		  HAL_GPIO_WritePin(GPIOD, GPIO_PIN_15, GPIO_PIN_RESET);
 8000632:	2200      	movs	r2, #0
 8000634:	f44f 4100 	mov.w	r1, #32768	; 0x8000
 8000638:	489e      	ldr	r0, [pc, #632]	; (80008b4 <main+0x330>)
 800063a:	f000 ff35 	bl	80014a8 <HAL_GPIO_WritePin>
 800063e:	e1aa      	b.n	8000996 <main+0x412>
	  }
	  else if (received_number == 1){
 8000640:	6c3b      	ldr	r3, [r7, #64]	; 0x40
 8000642:	2b01      	cmp	r3, #1
 8000644:	d118      	bne.n	8000678 <main+0xf4>
		  HAL_GPIO_WritePin(GPIOD, GPIO_PIN_12, GPIO_PIN_SET);
 8000646:	2201      	movs	r2, #1
 8000648:	f44f 5180 	mov.w	r1, #4096	; 0x1000
 800064c:	4899      	ldr	r0, [pc, #612]	; (80008b4 <main+0x330>)
 800064e:	f000 ff2b 	bl	80014a8 <HAL_GPIO_WritePin>
		  HAL_GPIO_WritePin(GPIOD, GPIO_PIN_13, GPIO_PIN_RESET);
 8000652:	2200      	movs	r2, #0
 8000654:	f44f 5100 	mov.w	r1, #8192	; 0x2000
 8000658:	4896      	ldr	r0, [pc, #600]	; (80008b4 <main+0x330>)
 800065a:	f000 ff25 	bl	80014a8 <HAL_GPIO_WritePin>
		  HAL_GPIO_WritePin(GPIOD, GPIO_PIN_14, GPIO_PIN_RESET);
 800065e:	2200      	movs	r2, #0
 8000660:	f44f 4180 	mov.w	r1, #16384	; 0x4000
 8000664:	4893      	ldr	r0, [pc, #588]	; (80008b4 <main+0x330>)
 8000666:	f000 ff1f 	bl	80014a8 <HAL_GPIO_WritePin>
		  HAL_GPIO_WritePin(GPIOD, GPIO_PIN_15, GPIO_PIN_RESET);
 800066a:	2200      	movs	r2, #0
 800066c:	f44f 4100 	mov.w	r1, #32768	; 0x8000
 8000670:	4890      	ldr	r0, [pc, #576]	; (80008b4 <main+0x330>)
 8000672:	f000 ff19 	bl	80014a8 <HAL_GPIO_WritePin>
 8000676:	e18e      	b.n	8000996 <main+0x412>
	  }
	  else if (received_number == 2){
 8000678:	6c3b      	ldr	r3, [r7, #64]	; 0x40
 800067a:	2b02      	cmp	r3, #2
 800067c:	d118      	bne.n	80006b0 <main+0x12c>
		  HAL_GPIO_WritePin(GPIOD, GPIO_PIN_12, GPIO_PIN_RESET);
 800067e:	2200      	movs	r2, #0
 8000680:	f44f 5180 	mov.w	r1, #4096	; 0x1000
 8000684:	488b      	ldr	r0, [pc, #556]	; (80008b4 <main+0x330>)
 8000686:	f000 ff0f 	bl	80014a8 <HAL_GPIO_WritePin>
		  HAL_GPIO_WritePin(GPIOD, GPIO_PIN_13, GPIO_PIN_SET);
 800068a:	2201      	movs	r2, #1
 800068c:	f44f 5100 	mov.w	r1, #8192	; 0x2000
 8000690:	4888      	ldr	r0, [pc, #544]	; (80008b4 <main+0x330>)
 8000692:	f000 ff09 	bl	80014a8 <HAL_GPIO_WritePin>
		  HAL_GPIO_WritePin(GPIOD, GPIO_PIN_14, GPIO_PIN_RESET);
 8000696:	2200      	movs	r2, #0
 8000698:	f44f 4180 	mov.w	r1, #16384	; 0x4000
 800069c:	4885      	ldr	r0, [pc, #532]	; (80008b4 <main+0x330>)
 800069e:	f000 ff03 	bl	80014a8 <HAL_GPIO_WritePin>
		  HAL_GPIO_WritePin(GPIOD, GPIO_PIN_15, GPIO_PIN_RESET);
 80006a2:	2200      	movs	r2, #0
 80006a4:	f44f 4100 	mov.w	r1, #32768	; 0x8000
 80006a8:	4882      	ldr	r0, [pc, #520]	; (80008b4 <main+0x330>)
 80006aa:	f000 fefd 	bl	80014a8 <HAL_GPIO_WritePin>
 80006ae:	e172      	b.n	8000996 <main+0x412>
	  }
	  else if (received_number == 3){
 80006b0:	6c3b      	ldr	r3, [r7, #64]	; 0x40
 80006b2:	2b03      	cmp	r3, #3
 80006b4:	d118      	bne.n	80006e8 <main+0x164>
		  HAL_GPIO_WritePin(GPIOD, GPIO_PIN_12, GPIO_PIN_SET);
 80006b6:	2201      	movs	r2, #1
 80006b8:	f44f 5180 	mov.w	r1, #4096	; 0x1000
 80006bc:	487d      	ldr	r0, [pc, #500]	; (80008b4 <main+0x330>)
 80006be:	f000 fef3 	bl	80014a8 <HAL_GPIO_WritePin>
		  HAL_GPIO_WritePin(GPIOD, GPIO_PIN_13, GPIO_PIN_SET);
 80006c2:	2201      	movs	r2, #1
 80006c4:	f44f 5100 	mov.w	r1, #8192	; 0x2000
 80006c8:	487a      	ldr	r0, [pc, #488]	; (80008b4 <main+0x330>)
 80006ca:	f000 feed 	bl	80014a8 <HAL_GPIO_WritePin>
		  HAL_GPIO_WritePin(GPIOD, GPIO_PIN_14, GPIO_PIN_RESET);
 80006ce:	2200      	movs	r2, #0
 80006d0:	f44f 4180 	mov.w	r1, #16384	; 0x4000
 80006d4:	4877      	ldr	r0, [pc, #476]	; (80008b4 <main+0x330>)
 80006d6:	f000 fee7 	bl	80014a8 <HAL_GPIO_WritePin>
		  HAL_GPIO_WritePin(GPIOD, GPIO_PIN_15, GPIO_PIN_RESET);
 80006da:	2200      	movs	r2, #0
 80006dc:	f44f 4100 	mov.w	r1, #32768	; 0x8000
 80006e0:	4874      	ldr	r0, [pc, #464]	; (80008b4 <main+0x330>)
 80006e2:	f000 fee1 	bl	80014a8 <HAL_GPIO_WritePin>
 80006e6:	e156      	b.n	8000996 <main+0x412>
	  }
	  else if (received_number == 4){
 80006e8:	6c3b      	ldr	r3, [r7, #64]	; 0x40
 80006ea:	2b04      	cmp	r3, #4
 80006ec:	d118      	bne.n	8000720 <main+0x19c>
		  HAL_GPIO_WritePin(GPIOD, GPIO_PIN_12, GPIO_PIN_RESET);
 80006ee:	2200      	movs	r2, #0
 80006f0:	f44f 5180 	mov.w	r1, #4096	; 0x1000
 80006f4:	486f      	ldr	r0, [pc, #444]	; (80008b4 <main+0x330>)
 80006f6:	f000 fed7 	bl	80014a8 <HAL_GPIO_WritePin>
		  HAL_GPIO_WritePin(GPIOD, GPIO_PIN_13, GPIO_PIN_RESET);
 80006fa:	2200      	movs	r2, #0
 80006fc:	f44f 5100 	mov.w	r1, #8192	; 0x2000
 8000700:	486c      	ldr	r0, [pc, #432]	; (80008b4 <main+0x330>)
 8000702:	f000 fed1 	bl	80014a8 <HAL_GPIO_WritePin>
		  HAL_GPIO_WritePin(GPIOD, GPIO_PIN_14, GPIO_PIN_SET);
 8000706:	2201      	movs	r2, #1
 8000708:	f44f 4180 	mov.w	r1, #16384	; 0x4000
 800070c:	4869      	ldr	r0, [pc, #420]	; (80008b4 <main+0x330>)
 800070e:	f000 fecb 	bl	80014a8 <HAL_GPIO_WritePin>
		  HAL_GPIO_WritePin(GPIOD, GPIO_PIN_15, GPIO_PIN_RESET);
 8000712:	2200      	movs	r2, #0
 8000714:	f44f 4100 	mov.w	r1, #32768	; 0x8000
 8000718:	4866      	ldr	r0, [pc, #408]	; (80008b4 <main+0x330>)
 800071a:	f000 fec5 	bl	80014a8 <HAL_GPIO_WritePin>
 800071e:	e13a      	b.n	8000996 <main+0x412>
	  }
	  else if (received_number == 5){
 8000720:	6c3b      	ldr	r3, [r7, #64]	; 0x40
 8000722:	2b05      	cmp	r3, #5
 8000724:	d118      	bne.n	8000758 <main+0x1d4>
		  HAL_GPIO_WritePin(GPIOD, GPIO_PIN_12, GPIO_PIN_SET);
 8000726:	2201      	movs	r2, #1
 8000728:	f44f 5180 	mov.w	r1, #4096	; 0x1000
 800072c:	4861      	ldr	r0, [pc, #388]	; (80008b4 <main+0x330>)
 800072e:	f000 febb 	bl	80014a8 <HAL_GPIO_WritePin>
		  HAL_GPIO_WritePin(GPIOD, GPIO_PIN_13, GPIO_PIN_RESET);
 8000732:	2200      	movs	r2, #0
 8000734:	f44f 5100 	mov.w	r1, #8192	; 0x2000
 8000738:	485e      	ldr	r0, [pc, #376]	; (80008b4 <main+0x330>)
 800073a:	f000 feb5 	bl	80014a8 <HAL_GPIO_WritePin>
		  HAL_GPIO_WritePin(GPIOD, GPIO_PIN_14, GPIO_PIN_SET);
 800073e:	2201      	movs	r2, #1
 8000740:	f44f 4180 	mov.w	r1, #16384	; 0x4000
 8000744:	485b      	ldr	r0, [pc, #364]	; (80008b4 <main+0x330>)
 8000746:	f000 feaf 	bl	80014a8 <HAL_GPIO_WritePin>
		  HAL_GPIO_WritePin(GPIOD, GPIO_PIN_15, GPIO_PIN_RESET);
 800074a:	2200      	movs	r2, #0
 800074c:	f44f 4100 	mov.w	r1, #32768	; 0x8000
 8000750:	4858      	ldr	r0, [pc, #352]	; (80008b4 <main+0x330>)
 8000752:	f000 fea9 	bl	80014a8 <HAL_GPIO_WritePin>
 8000756:	e11e      	b.n	8000996 <main+0x412>
	  }
	  else if (received_number == 6){
 8000758:	6c3b      	ldr	r3, [r7, #64]	; 0x40
 800075a:	2b06      	cmp	r3, #6
 800075c:	d118      	bne.n	8000790 <main+0x20c>
		  HAL_GPIO_WritePin(GPIOD, GPIO_PIN_12, GPIO_PIN_RESET);
 800075e:	2200      	movs	r2, #0
 8000760:	f44f 5180 	mov.w	r1, #4096	; 0x1000
 8000764:	4853      	ldr	r0, [pc, #332]	; (80008b4 <main+0x330>)
 8000766:	f000 fe9f 	bl	80014a8 <HAL_GPIO_WritePin>
		  HAL_GPIO_WritePin(GPIOD, GPIO_PIN_13, GPIO_PIN_SET);
 800076a:	2201      	movs	r2, #1
 800076c:	f44f 5100 	mov.w	r1, #8192	; 0x2000
 8000770:	4850      	ldr	r0, [pc, #320]	; (80008b4 <main+0x330>)
 8000772:	f000 fe99 	bl	80014a8 <HAL_GPIO_WritePin>
		  HAL_GPIO_WritePin(GPIOD, GPIO_PIN_14, GPIO_PIN_SET);
 8000776:	2201      	movs	r2, #1
 8000778:	f44f 4180 	mov.w	r1, #16384	; 0x4000
 800077c:	484d      	ldr	r0, [pc, #308]	; (80008b4 <main+0x330>)
 800077e:	f000 fe93 	bl	80014a8 <HAL_GPIO_WritePin>
		  HAL_GPIO_WritePin(GPIOD, GPIO_PIN_15, GPIO_PIN_RESET);
 8000782:	2200      	movs	r2, #0
 8000784:	f44f 4100 	mov.w	r1, #32768	; 0x8000
 8000788:	484a      	ldr	r0, [pc, #296]	; (80008b4 <main+0x330>)
 800078a:	f000 fe8d 	bl	80014a8 <HAL_GPIO_WritePin>
 800078e:	e102      	b.n	8000996 <main+0x412>
	  }
	  else if (received_number == 7){
 8000790:	6c3b      	ldr	r3, [r7, #64]	; 0x40
 8000792:	2b07      	cmp	r3, #7
 8000794:	d118      	bne.n	80007c8 <main+0x244>
	  		  HAL_GPIO_WritePin(GPIOD, GPIO_PIN_12, GPIO_PIN_SET);
 8000796:	2201      	movs	r2, #1
 8000798:	f44f 5180 	mov.w	r1, #4096	; 0x1000
 800079c:	4845      	ldr	r0, [pc, #276]	; (80008b4 <main+0x330>)
 800079e:	f000 fe83 	bl	80014a8 <HAL_GPIO_WritePin>
	  		  HAL_GPIO_WritePin(GPIOD, GPIO_PIN_13, GPIO_PIN_SET);
 80007a2:	2201      	movs	r2, #1
 80007a4:	f44f 5100 	mov.w	r1, #8192	; 0x2000
 80007a8:	4842      	ldr	r0, [pc, #264]	; (80008b4 <main+0x330>)
 80007aa:	f000 fe7d 	bl	80014a8 <HAL_GPIO_WritePin>
	  		  HAL_GPIO_WritePin(GPIOD, GPIO_PIN_14, GPIO_PIN_SET);
 80007ae:	2201      	movs	r2, #1
 80007b0:	f44f 4180 	mov.w	r1, #16384	; 0x4000
 80007b4:	483f      	ldr	r0, [pc, #252]	; (80008b4 <main+0x330>)
 80007b6:	f000 fe77 	bl	80014a8 <HAL_GPIO_WritePin>
	  		  HAL_GPIO_WritePin(GPIOD, GPIO_PIN_15, GPIO_PIN_RESET);
 80007ba:	2200      	movs	r2, #0
 80007bc:	f44f 4100 	mov.w	r1, #32768	; 0x8000
 80007c0:	483c      	ldr	r0, [pc, #240]	; (80008b4 <main+0x330>)
 80007c2:	f000 fe71 	bl	80014a8 <HAL_GPIO_WritePin>
 80007c6:	e0e6      	b.n	8000996 <main+0x412>
	  	  }
	  else if (received_number == 8){
 80007c8:	6c3b      	ldr	r3, [r7, #64]	; 0x40
 80007ca:	2b08      	cmp	r3, #8
 80007cc:	d118      	bne.n	8000800 <main+0x27c>
	  		  HAL_GPIO_WritePin(GPIOD, GPIO_PIN_12, GPIO_PIN_RESET);
 80007ce:	2200      	movs	r2, #0
 80007d0:	f44f 5180 	mov.w	r1, #4096	; 0x1000
 80007d4:	4837      	ldr	r0, [pc, #220]	; (80008b4 <main+0x330>)
 80007d6:	f000 fe67 	bl	80014a8 <HAL_GPIO_WritePin>
	  		  HAL_GPIO_WritePin(GPIOD, GPIO_PIN_13, GPIO_PIN_RESET);
 80007da:	2200      	movs	r2, #0
 80007dc:	f44f 5100 	mov.w	r1, #8192	; 0x2000
 80007e0:	4834      	ldr	r0, [pc, #208]	; (80008b4 <main+0x330>)
 80007e2:	f000 fe61 	bl	80014a8 <HAL_GPIO_WritePin>
	  		  HAL_GPIO_WritePin(GPIOD, GPIO_PIN_14, GPIO_PIN_RESET);
 80007e6:	2200      	movs	r2, #0
 80007e8:	f44f 4180 	mov.w	r1, #16384	; 0x4000
 80007ec:	4831      	ldr	r0, [pc, #196]	; (80008b4 <main+0x330>)
 80007ee:	f000 fe5b 	bl	80014a8 <HAL_GPIO_WritePin>
	  		  HAL_GPIO_WritePin(GPIOD, GPIO_PIN_15, GPIO_PIN_SET);
 80007f2:	2201      	movs	r2, #1
 80007f4:	f44f 4100 	mov.w	r1, #32768	; 0x8000
 80007f8:	482e      	ldr	r0, [pc, #184]	; (80008b4 <main+0x330>)
 80007fa:	f000 fe55 	bl	80014a8 <HAL_GPIO_WritePin>
 80007fe:	e0ca      	b.n	8000996 <main+0x412>
	  	  }
	  else if (received_number == 9){
 8000800:	6c3b      	ldr	r3, [r7, #64]	; 0x40
 8000802:	2b09      	cmp	r3, #9
 8000804:	d118      	bne.n	8000838 <main+0x2b4>
	  		  HAL_GPIO_WritePin(GPIOD, GPIO_PIN_12, GPIO_PIN_SET);
 8000806:	2201      	movs	r2, #1
 8000808:	f44f 5180 	mov.w	r1, #4096	; 0x1000
 800080c:	4829      	ldr	r0, [pc, #164]	; (80008b4 <main+0x330>)
 800080e:	f000 fe4b 	bl	80014a8 <HAL_GPIO_WritePin>
	  		  HAL_GPIO_WritePin(GPIOD, GPIO_PIN_13, GPIO_PIN_RESET);
 8000812:	2200      	movs	r2, #0
 8000814:	f44f 5100 	mov.w	r1, #8192	; 0x2000
 8000818:	4826      	ldr	r0, [pc, #152]	; (80008b4 <main+0x330>)
 800081a:	f000 fe45 	bl	80014a8 <HAL_GPIO_WritePin>
	  		  HAL_GPIO_WritePin(GPIOD, GPIO_PIN_14, GPIO_PIN_RESET);
 800081e:	2200      	movs	r2, #0
 8000820:	f44f 4180 	mov.w	r1, #16384	; 0x4000
 8000824:	4823      	ldr	r0, [pc, #140]	; (80008b4 <main+0x330>)
 8000826:	f000 fe3f 	bl	80014a8 <HAL_GPIO_WritePin>
	  		  HAL_GPIO_WritePin(GPIOD, GPIO_PIN_15, GPIO_PIN_SET);
 800082a:	2201      	movs	r2, #1
 800082c:	f44f 4100 	mov.w	r1, #32768	; 0x8000
 8000830:	4820      	ldr	r0, [pc, #128]	; (80008b4 <main+0x330>)
 8000832:	f000 fe39 	bl	80014a8 <HAL_GPIO_WritePin>
 8000836:	e0ae      	b.n	8000996 <main+0x412>
	  	  }
	  else if (received_number == 10){
 8000838:	6c3b      	ldr	r3, [r7, #64]	; 0x40
 800083a:	2b0a      	cmp	r3, #10
 800083c:	d118      	bne.n	8000870 <main+0x2ec>
	  		  HAL_GPIO_WritePin(GPIOD, GPIO_PIN_12, GPIO_PIN_RESET);
 800083e:	2200      	movs	r2, #0
 8000840:	f44f 5180 	mov.w	r1, #4096	; 0x1000
 8000844:	481b      	ldr	r0, [pc, #108]	; (80008b4 <main+0x330>)
 8000846:	f000 fe2f 	bl	80014a8 <HAL_GPIO_WritePin>
	  		  HAL_GPIO_WritePin(GPIOD, GPIO_PIN_13, GPIO_PIN_SET);
 800084a:	2201      	movs	r2, #1
 800084c:	f44f 5100 	mov.w	r1, #8192	; 0x2000
 8000850:	4818      	ldr	r0, [pc, #96]	; (80008b4 <main+0x330>)
 8000852:	f000 fe29 	bl	80014a8 <HAL_GPIO_WritePin>
	  		  HAL_GPIO_WritePin(GPIOD, GPIO_PIN_14, GPIO_PIN_RESET);
 8000856:	2200      	movs	r2, #0
 8000858:	f44f 4180 	mov.w	r1, #16384	; 0x4000
 800085c:	4815      	ldr	r0, [pc, #84]	; (80008b4 <main+0x330>)
 800085e:	f000 fe23 	bl	80014a8 <HAL_GPIO_WritePin>
	  		  HAL_GPIO_WritePin(GPIOD, GPIO_PIN_15, GPIO_PIN_SET);
 8000862:	2201      	movs	r2, #1
 8000864:	f44f 4100 	mov.w	r1, #32768	; 0x8000
 8000868:	4812      	ldr	r0, [pc, #72]	; (80008b4 <main+0x330>)
 800086a:	f000 fe1d 	bl	80014a8 <HAL_GPIO_WritePin>
 800086e:	e092      	b.n	8000996 <main+0x412>
	  	  }
	  else if (received_number == 11){
 8000870:	6c3b      	ldr	r3, [r7, #64]	; 0x40
 8000872:	2b0b      	cmp	r3, #11
 8000874:	d120      	bne.n	80008b8 <main+0x334>
	  		  HAL_GPIO_WritePin(GPIOD, GPIO_PIN_12, GPIO_PIN_SET);
 8000876:	2201      	movs	r2, #1
 8000878:	f44f 5180 	mov.w	r1, #4096	; 0x1000
 800087c:	480d      	ldr	r0, [pc, #52]	; (80008b4 <main+0x330>)
 800087e:	f000 fe13 	bl	80014a8 <HAL_GPIO_WritePin>
	  		  HAL_GPIO_WritePin(GPIOD, GPIO_PIN_13, GPIO_PIN_SET);
 8000882:	2201      	movs	r2, #1
 8000884:	f44f 5100 	mov.w	r1, #8192	; 0x2000
 8000888:	480a      	ldr	r0, [pc, #40]	; (80008b4 <main+0x330>)
 800088a:	f000 fe0d 	bl	80014a8 <HAL_GPIO_WritePin>
	  		  HAL_GPIO_WritePin(GPIOD, GPIO_PIN_14, GPIO_PIN_RESET);
 800088e:	2200      	movs	r2, #0
 8000890:	f44f 4180 	mov.w	r1, #16384	; 0x4000
 8000894:	4807      	ldr	r0, [pc, #28]	; (80008b4 <main+0x330>)
 8000896:	f000 fe07 	bl	80014a8 <HAL_GPIO_WritePin>
	  		  HAL_GPIO_WritePin(GPIOD, GPIO_PIN_15, GPIO_PIN_SET);
 800089a:	2201      	movs	r2, #1
 800089c:	f44f 4100 	mov.w	r1, #32768	; 0x8000
 80008a0:	4804      	ldr	r0, [pc, #16]	; (80008b4 <main+0x330>)
 80008a2:	f000 fe01 	bl	80014a8 <HAL_GPIO_WritePin>
 80008a6:	e076      	b.n	8000996 <main+0x412>
 80008a8:	080030cc 	.word	0x080030cc
 80008ac:	2000008c 	.word	0x2000008c
 80008b0:	200000d0 	.word	0x200000d0
 80008b4:	40020c00 	.word	0x40020c00
	  	  }
	  else if (received_number == 12){
 80008b8:	6c3b      	ldr	r3, [r7, #64]	; 0x40
 80008ba:	2b0c      	cmp	r3, #12
 80008bc:	d118      	bne.n	80008f0 <main+0x36c>
	  	  		  HAL_GPIO_WritePin(GPIOD, GPIO_PIN_12, GPIO_PIN_RESET);
 80008be:	2200      	movs	r2, #0
 80008c0:	f44f 5180 	mov.w	r1, #4096	; 0x1000
 80008c4:	4838      	ldr	r0, [pc, #224]	; (80009a8 <main+0x424>)
 80008c6:	f000 fdef 	bl	80014a8 <HAL_GPIO_WritePin>
	  	  		  HAL_GPIO_WritePin(GPIOD, GPIO_PIN_13, GPIO_PIN_RESET);
 80008ca:	2200      	movs	r2, #0
 80008cc:	f44f 5100 	mov.w	r1, #8192	; 0x2000
 80008d0:	4835      	ldr	r0, [pc, #212]	; (80009a8 <main+0x424>)
 80008d2:	f000 fde9 	bl	80014a8 <HAL_GPIO_WritePin>
	  	  		  HAL_GPIO_WritePin(GPIOD, GPIO_PIN_14, GPIO_PIN_SET);
 80008d6:	2201      	movs	r2, #1
 80008d8:	f44f 4180 	mov.w	r1, #16384	; 0x4000
 80008dc:	4832      	ldr	r0, [pc, #200]	; (80009a8 <main+0x424>)
 80008de:	f000 fde3 	bl	80014a8 <HAL_GPIO_WritePin>
	  	  		  HAL_GPIO_WritePin(GPIOD, GPIO_PIN_15, GPIO_PIN_SET);
 80008e2:	2201      	movs	r2, #1
 80008e4:	f44f 4100 	mov.w	r1, #32768	; 0x8000
 80008e8:	482f      	ldr	r0, [pc, #188]	; (80009a8 <main+0x424>)
 80008ea:	f000 fddd 	bl	80014a8 <HAL_GPIO_WritePin>
 80008ee:	e052      	b.n	8000996 <main+0x412>
	  	  	  }
	  else if (received_number == 13){
 80008f0:	6c3b      	ldr	r3, [r7, #64]	; 0x40
 80008f2:	2b0d      	cmp	r3, #13
 80008f4:	d118      	bne.n	8000928 <main+0x3a4>
	  	  		  HAL_GPIO_WritePin(GPIOD, GPIO_PIN_12, GPIO_PIN_SET);
 80008f6:	2201      	movs	r2, #1
 80008f8:	f44f 5180 	mov.w	r1, #4096	; 0x1000
 80008fc:	482a      	ldr	r0, [pc, #168]	; (80009a8 <main+0x424>)
 80008fe:	f000 fdd3 	bl	80014a8 <HAL_GPIO_WritePin>
	  	  		  HAL_GPIO_WritePin(GPIOD, GPIO_PIN_13, GPIO_PIN_RESET);
 8000902:	2200      	movs	r2, #0
 8000904:	f44f 5100 	mov.w	r1, #8192	; 0x2000
 8000908:	4827      	ldr	r0, [pc, #156]	; (80009a8 <main+0x424>)
 800090a:	f000 fdcd 	bl	80014a8 <HAL_GPIO_WritePin>
	  	  		  HAL_GPIO_WritePin(GPIOD, GPIO_PIN_14, GPIO_PIN_SET);
 800090e:	2201      	movs	r2, #1
 8000910:	f44f 4180 	mov.w	r1, #16384	; 0x4000
 8000914:	4824      	ldr	r0, [pc, #144]	; (80009a8 <main+0x424>)
 8000916:	f000 fdc7 	bl	80014a8 <HAL_GPIO_WritePin>
	  	  		  HAL_GPIO_WritePin(GPIOD, GPIO_PIN_15, GPIO_PIN_SET);
 800091a:	2201      	movs	r2, #1
 800091c:	f44f 4100 	mov.w	r1, #32768	; 0x8000
 8000920:	4821      	ldr	r0, [pc, #132]	; (80009a8 <main+0x424>)
 8000922:	f000 fdc1 	bl	80014a8 <HAL_GPIO_WritePin>
 8000926:	e036      	b.n	8000996 <main+0x412>
	  	  	  }
	  else if (received_number == 14){
 8000928:	6c3b      	ldr	r3, [r7, #64]	; 0x40
 800092a:	2b0e      	cmp	r3, #14
 800092c:	d118      	bne.n	8000960 <main+0x3dc>
	  	  		  HAL_GPIO_WritePin(GPIOD, GPIO_PIN_12, GPIO_PIN_RESET);
 800092e:	2200      	movs	r2, #0
 8000930:	f44f 5180 	mov.w	r1, #4096	; 0x1000
 8000934:	481c      	ldr	r0, [pc, #112]	; (80009a8 <main+0x424>)
 8000936:	f000 fdb7 	bl	80014a8 <HAL_GPIO_WritePin>
	  	  		  HAL_GPIO_WritePin(GPIOD, GPIO_PIN_13, GPIO_PIN_SET);
 800093a:	2201      	movs	r2, #1
 800093c:	f44f 5100 	mov.w	r1, #8192	; 0x2000
 8000940:	4819      	ldr	r0, [pc, #100]	; (80009a8 <main+0x424>)
 8000942:	f000 fdb1 	bl	80014a8 <HAL_GPIO_WritePin>
	  	  		  HAL_GPIO_WritePin(GPIOD, GPIO_PIN_14, GPIO_PIN_SET);
 8000946:	2201      	movs	r2, #1
 8000948:	f44f 4180 	mov.w	r1, #16384	; 0x4000
 800094c:	4816      	ldr	r0, [pc, #88]	; (80009a8 <main+0x424>)
 800094e:	f000 fdab 	bl	80014a8 <HAL_GPIO_WritePin>
	  	  		  HAL_GPIO_WritePin(GPIOD, GPIO_PIN_15, GPIO_PIN_SET);
 8000952:	2201      	movs	r2, #1
 8000954:	f44f 4100 	mov.w	r1, #32768	; 0x8000
 8000958:	4813      	ldr	r0, [pc, #76]	; (80009a8 <main+0x424>)
 800095a:	f000 fda5 	bl	80014a8 <HAL_GPIO_WritePin>
 800095e:	e01a      	b.n	8000996 <main+0x412>
	  	  	  }
	  else if (received_number == 15){
 8000960:	6c3b      	ldr	r3, [r7, #64]	; 0x40
 8000962:	2b0f      	cmp	r3, #15
 8000964:	d117      	bne.n	8000996 <main+0x412>
	  	  		  HAL_GPIO_WritePin(GPIOD, GPIO_PIN_12, GPIO_PIN_SET);
 8000966:	2201      	movs	r2, #1
 8000968:	f44f 5180 	mov.w	r1, #4096	; 0x1000
 800096c:	480e      	ldr	r0, [pc, #56]	; (80009a8 <main+0x424>)
 800096e:	f000 fd9b 	bl	80014a8 <HAL_GPIO_WritePin>
	  	  		  HAL_GPIO_WritePin(GPIOD, GPIO_PIN_13, GPIO_PIN_SET);
 8000972:	2201      	movs	r2, #1
 8000974:	f44f 5100 	mov.w	r1, #8192	; 0x2000
 8000978:	480b      	ldr	r0, [pc, #44]	; (80009a8 <main+0x424>)
 800097a:	f000 fd95 	bl	80014a8 <HAL_GPIO_WritePin>
	  	  		  HAL_GPIO_WritePin(GPIOD, GPIO_PIN_14, GPIO_PIN_SET);
 800097e:	2201      	movs	r2, #1
 8000980:	f44f 4180 	mov.w	r1, #16384	; 0x4000
 8000984:	4808      	ldr	r0, [pc, #32]	; (80009a8 <main+0x424>)
 8000986:	f000 fd8f 	bl	80014a8 <HAL_GPIO_WritePin>
	  	  		  HAL_GPIO_WritePin(GPIOD, GPIO_PIN_15, GPIO_PIN_SET);
 800098a:	2201      	movs	r2, #1
 800098c:	f44f 4100 	mov.w	r1, #32768	; 0x8000
 8000990:	4805      	ldr	r0, [pc, #20]	; (80009a8 <main+0x424>)
 8000992:	f000 fd89 	bl	80014a8 <HAL_GPIO_WritePin>
	  	  	  }

	  HAL_Delay(1000);
 8000996:	f44f 707a 	mov.w	r0, #1000	; 0x3e8
 800099a:	f000 fadf 	bl	8000f5c <HAL_Delay>
number++;
 800099e:	6c7b      	ldr	r3, [r7, #68]	; 0x44
 80009a0:	3301      	adds	r3, #1
 80009a2:	647b      	str	r3, [r7, #68]	; 0x44
  {
 80009a4:	e609      	b.n	80005ba <main+0x36>
 80009a6:	bf00      	nop
 80009a8:	40020c00 	.word	0x40020c00

080009ac <SystemClock_Config>:
/**
  * @brief System Clock Configuration
  * @retval None
  */
void SystemClock_Config(void)
{
 80009ac:	b580      	push	{r7, lr}
 80009ae:	b094      	sub	sp, #80	; 0x50
 80009b0:	af00      	add	r7, sp, #0
  RCC_OscInitTypeDef RCC_OscInitStruct = {0};
 80009b2:	f107 0320 	add.w	r3, r7, #32
 80009b6:	2230      	movs	r2, #48	; 0x30
 80009b8:	2100      	movs	r1, #0
 80009ba:	4618      	mov	r0, r3
 80009bc:	f001 fe78 	bl	80026b0 <memset>
  RCC_ClkInitTypeDef RCC_ClkInitStruct = {0};
 80009c0:	f107 030c 	add.w	r3, r7, #12
 80009c4:	2200      	movs	r2, #0
 80009c6:	601a      	str	r2, [r3, #0]
 80009c8:	605a      	str	r2, [r3, #4]
 80009ca:	609a      	str	r2, [r3, #8]
 80009cc:	60da      	str	r2, [r3, #12]
 80009ce:	611a      	str	r2, [r3, #16]

  /** Configure the main internal regulator output voltage
  */
  __HAL_RCC_PWR_CLK_ENABLE();
 80009d0:	2300      	movs	r3, #0
 80009d2:	60bb      	str	r3, [r7, #8]
 80009d4:	4b28      	ldr	r3, [pc, #160]	; (8000a78 <SystemClock_Config+0xcc>)
 80009d6:	6c1b      	ldr	r3, [r3, #64]	; 0x40
 80009d8:	4a27      	ldr	r2, [pc, #156]	; (8000a78 <SystemClock_Config+0xcc>)
 80009da:	f043 5380 	orr.w	r3, r3, #268435456	; 0x10000000
 80009de:	6413      	str	r3, [r2, #64]	; 0x40
 80009e0:	4b25      	ldr	r3, [pc, #148]	; (8000a78 <SystemClock_Config+0xcc>)
 80009e2:	6c1b      	ldr	r3, [r3, #64]	; 0x40
 80009e4:	f003 5380 	and.w	r3, r3, #268435456	; 0x10000000
 80009e8:	60bb      	str	r3, [r7, #8]
 80009ea:	68bb      	ldr	r3, [r7, #8]
  __HAL_PWR_VOLTAGESCALING_CONFIG(PWR_REGULATOR_VOLTAGE_SCALE1);
 80009ec:	2300      	movs	r3, #0
 80009ee:	607b      	str	r3, [r7, #4]
 80009f0:	4b22      	ldr	r3, [pc, #136]	; (8000a7c <SystemClock_Config+0xd0>)
 80009f2:	681b      	ldr	r3, [r3, #0]
 80009f4:	4a21      	ldr	r2, [pc, #132]	; (8000a7c <SystemClock_Config+0xd0>)
 80009f6:	f443 4380 	orr.w	r3, r3, #16384	; 0x4000
 80009fa:	6013      	str	r3, [r2, #0]
 80009fc:	4b1f      	ldr	r3, [pc, #124]	; (8000a7c <SystemClock_Config+0xd0>)
 80009fe:	681b      	ldr	r3, [r3, #0]
 8000a00:	f403 4380 	and.w	r3, r3, #16384	; 0x4000
 8000a04:	607b      	str	r3, [r7, #4]
 8000a06:	687b      	ldr	r3, [r7, #4]

  /** Initializes the RCC Oscillators according to the specified parameters
  * in the RCC_OscInitTypeDef structure.
  */
  RCC_OscInitStruct.OscillatorType = RCC_OSCILLATORTYPE_HSE;
 8000a08:	2301      	movs	r3, #1
 8000a0a:	623b      	str	r3, [r7, #32]
  RCC_OscInitStruct.HSEState = RCC_HSE_ON;
 8000a0c:	f44f 3380 	mov.w	r3, #65536	; 0x10000
 8000a10:	627b      	str	r3, [r7, #36]	; 0x24
  RCC_OscInitStruct.PLL.PLLState = RCC_PLL_ON;
 8000a12:	2302      	movs	r3, #2
 8000a14:	63bb      	str	r3, [r7, #56]	; 0x38
  RCC_OscInitStruct.PLL.PLLSource = RCC_PLLSOURCE_HSE;
 8000a16:	f44f 0380 	mov.w	r3, #4194304	; 0x400000
 8000a1a:	63fb      	str	r3, [r7, #60]	; 0x3c
  RCC_OscInitStruct.PLL.PLLM = 13;
 8000a1c:	230d      	movs	r3, #13
 8000a1e:	643b      	str	r3, [r7, #64]	; 0x40
  RCC_OscInitStruct.PLL.PLLN = 168;
 8000a20:	23a8      	movs	r3, #168	; 0xa8
 8000a22:	647b      	str	r3, [r7, #68]	; 0x44
  RCC_OscInitStruct.PLL.PLLP = RCC_PLLP_DIV2;
 8000a24:	2302      	movs	r3, #2
 8000a26:	64bb      	str	r3, [r7, #72]	; 0x48
  RCC_OscInitStruct.PLL.PLLQ = 4;
 8000a28:	2304      	movs	r3, #4
 8000a2a:	64fb      	str	r3, [r7, #76]	; 0x4c
  if (HAL_RCC_OscConfig(&RCC_OscInitStruct) != HAL_OK)
 8000a2c:	f107 0320 	add.w	r3, r7, #32
 8000a30:	4618      	mov	r0, r3
 8000a32:	f000 fd53 	bl	80014dc <HAL_RCC_OscConfig>
 8000a36:	4603      	mov	r3, r0
 8000a38:	2b00      	cmp	r3, #0
 8000a3a:	d001      	beq.n	8000a40 <SystemClock_Config+0x94>
  {
    Error_Handler();
 8000a3c:	f000 f8d4 	bl	8000be8 <Error_Handler>
  }

  /** Initializes the CPU, AHB and APB buses clocks
  */
  RCC_ClkInitStruct.ClockType = RCC_CLOCKTYPE_HCLK|RCC_CLOCKTYPE_SYSCLK
 8000a40:	230f      	movs	r3, #15
 8000a42:	60fb      	str	r3, [r7, #12]
                              |RCC_CLOCKTYPE_PCLK1|RCC_CLOCKTYPE_PCLK2;
  RCC_ClkInitStruct.SYSCLKSource = RCC_SYSCLKSOURCE_PLLCLK;
 8000a44:	2302      	movs	r3, #2
 8000a46:	613b      	str	r3, [r7, #16]
  RCC_ClkInitStruct.AHBCLKDivider = RCC_SYSCLK_DIV1;
 8000a48:	2300      	movs	r3, #0
 8000a4a:	617b      	str	r3, [r7, #20]
  RCC_ClkInitStruct.APB1CLKDivider = RCC_HCLK_DIV4;
 8000a4c:	f44f 53a0 	mov.w	r3, #5120	; 0x1400
 8000a50:	61bb      	str	r3, [r7, #24]
  RCC_ClkInitStruct.APB2CLKDivider = RCC_HCLK_DIV2;
 8000a52:	f44f 5380 	mov.w	r3, #4096	; 0x1000
 8000a56:	61fb      	str	r3, [r7, #28]

  if (HAL_RCC_ClockConfig(&RCC_ClkInitStruct, FLASH_LATENCY_5) != HAL_OK)
 8000a58:	f107 030c 	add.w	r3, r7, #12
 8000a5c:	2105      	movs	r1, #5
 8000a5e:	4618      	mov	r0, r3
 8000a60:	f000 ffb4 	bl	80019cc <HAL_RCC_ClockConfig>
 8000a64:	4603      	mov	r3, r0
 8000a66:	2b00      	cmp	r3, #0
 8000a68:	d001      	beq.n	8000a6e <SystemClock_Config+0xc2>
  {
    Error_Handler();
 8000a6a:	f000 f8bd 	bl	8000be8 <Error_Handler>
  }
}
 8000a6e:	bf00      	nop
 8000a70:	3750      	adds	r7, #80	; 0x50
 8000a72:	46bd      	mov	sp, r7
 8000a74:	bd80      	pop	{r7, pc}
 8000a76:	bf00      	nop
 8000a78:	40023800 	.word	0x40023800
 8000a7c:	40007000 	.word	0x40007000

08000a80 <MX_USART2_UART_Init>:
  * @brief USART2 Initialization Function
  * @param None
  * @retval None
  */
static void MX_USART2_UART_Init(void)
{
 8000a80:	b580      	push	{r7, lr}
 8000a82:	af00      	add	r7, sp, #0
  /* USER CODE END USART2_Init 0 */

  /* USER CODE BEGIN USART2_Init 1 */

  /* USER CODE END USART2_Init 1 */
  huart2.Instance = USART2;
 8000a84:	4b11      	ldr	r3, [pc, #68]	; (8000acc <MX_USART2_UART_Init+0x4c>)
 8000a86:	4a12      	ldr	r2, [pc, #72]	; (8000ad0 <MX_USART2_UART_Init+0x50>)
 8000a88:	601a      	str	r2, [r3, #0]
  huart2.Init.BaudRate = 115200;
 8000a8a:	4b10      	ldr	r3, [pc, #64]	; (8000acc <MX_USART2_UART_Init+0x4c>)
 8000a8c:	f44f 32e1 	mov.w	r2, #115200	; 0x1c200
 8000a90:	605a      	str	r2, [r3, #4]
  huart2.Init.WordLength = UART_WORDLENGTH_8B;
 8000a92:	4b0e      	ldr	r3, [pc, #56]	; (8000acc <MX_USART2_UART_Init+0x4c>)
 8000a94:	2200      	movs	r2, #0
 8000a96:	609a      	str	r2, [r3, #8]
  huart2.Init.StopBits = UART_STOPBITS_1;
 8000a98:	4b0c      	ldr	r3, [pc, #48]	; (8000acc <MX_USART2_UART_Init+0x4c>)
 8000a9a:	2200      	movs	r2, #0
 8000a9c:	60da      	str	r2, [r3, #12]
  huart2.Init.Parity = UART_PARITY_NONE;
 8000a9e:	4b0b      	ldr	r3, [pc, #44]	; (8000acc <MX_USART2_UART_Init+0x4c>)
 8000aa0:	2200      	movs	r2, #0
 8000aa2:	611a      	str	r2, [r3, #16]
  huart2.Init.Mode = UART_MODE_TX_RX;
 8000aa4:	4b09      	ldr	r3, [pc, #36]	; (8000acc <MX_USART2_UART_Init+0x4c>)
 8000aa6:	220c      	movs	r2, #12
 8000aa8:	615a      	str	r2, [r3, #20]
  huart2.Init.HwFlowCtl = UART_HWCONTROL_NONE;
 8000aaa:	4b08      	ldr	r3, [pc, #32]	; (8000acc <MX_USART2_UART_Init+0x4c>)
 8000aac:	2200      	movs	r2, #0
 8000aae:	619a      	str	r2, [r3, #24]
  huart2.Init.OverSampling = UART_OVERSAMPLING_16;
 8000ab0:	4b06      	ldr	r3, [pc, #24]	; (8000acc <MX_USART2_UART_Init+0x4c>)
 8000ab2:	2200      	movs	r2, #0
 8000ab4:	61da      	str	r2, [r3, #28]
  if (HAL_UART_Init(&huart2) != HAL_OK)
 8000ab6:	4805      	ldr	r0, [pc, #20]	; (8000acc <MX_USART2_UART_Init+0x4c>)
 8000ab8:	f001 f968 	bl	8001d8c <HAL_UART_Init>
 8000abc:	4603      	mov	r3, r0
 8000abe:	2b00      	cmp	r3, #0
 8000ac0:	d001      	beq.n	8000ac6 <MX_USART2_UART_Init+0x46>
  {
    Error_Handler();
 8000ac2:	f000 f891 	bl	8000be8 <Error_Handler>
  }
  /* USER CODE BEGIN USART2_Init 2 */

  /* USER CODE END USART2_Init 2 */

}
 8000ac6:	bf00      	nop
 8000ac8:	bd80      	pop	{r7, pc}
 8000aca:	bf00      	nop
 8000acc:	2000008c 	.word	0x2000008c
 8000ad0:	40004400 	.word	0x40004400

08000ad4 <MX_USART3_UART_Init>:
  * @brief USART3 Initialization Function
  * @param None
  * @retval None
  */
static void MX_USART3_UART_Init(void)
{
 8000ad4:	b580      	push	{r7, lr}
 8000ad6:	af00      	add	r7, sp, #0
  /* USER CODE END USART3_Init 0 */

  /* USER CODE BEGIN USART3_Init 1 */

  /* USER CODE END USART3_Init 1 */
  huart3.Instance = USART3;
 8000ad8:	4b11      	ldr	r3, [pc, #68]	; (8000b20 <MX_USART3_UART_Init+0x4c>)
 8000ada:	4a12      	ldr	r2, [pc, #72]	; (8000b24 <MX_USART3_UART_Init+0x50>)
 8000adc:	601a      	str	r2, [r3, #0]
  huart3.Init.BaudRate = 115200;
 8000ade:	4b10      	ldr	r3, [pc, #64]	; (8000b20 <MX_USART3_UART_Init+0x4c>)
 8000ae0:	f44f 32e1 	mov.w	r2, #115200	; 0x1c200
 8000ae4:	605a      	str	r2, [r3, #4]
  huart3.Init.WordLength = UART_WORDLENGTH_8B;
 8000ae6:	4b0e      	ldr	r3, [pc, #56]	; (8000b20 <MX_USART3_UART_Init+0x4c>)
 8000ae8:	2200      	movs	r2, #0
 8000aea:	609a      	str	r2, [r3, #8]
  huart3.Init.StopBits = UART_STOPBITS_1;
 8000aec:	4b0c      	ldr	r3, [pc, #48]	; (8000b20 <MX_USART3_UART_Init+0x4c>)
 8000aee:	2200      	movs	r2, #0
 8000af0:	60da      	str	r2, [r3, #12]
  huart3.Init.Parity = UART_PARITY_NONE;
 8000af2:	4b0b      	ldr	r3, [pc, #44]	; (8000b20 <MX_USART3_UART_Init+0x4c>)
 8000af4:	2200      	movs	r2, #0
 8000af6:	611a      	str	r2, [r3, #16]
  huart3.Init.Mode = UART_MODE_TX_RX;
 8000af8:	4b09      	ldr	r3, [pc, #36]	; (8000b20 <MX_USART3_UART_Init+0x4c>)
 8000afa:	220c      	movs	r2, #12
 8000afc:	615a      	str	r2, [r3, #20]
  huart3.Init.HwFlowCtl = UART_HWCONTROL_NONE;
 8000afe:	4b08      	ldr	r3, [pc, #32]	; (8000b20 <MX_USART3_UART_Init+0x4c>)
 8000b00:	2200      	movs	r2, #0
 8000b02:	619a      	str	r2, [r3, #24]
  huart3.Init.OverSampling = UART_OVERSAMPLING_16;
 8000b04:	4b06      	ldr	r3, [pc, #24]	; (8000b20 <MX_USART3_UART_Init+0x4c>)
 8000b06:	2200      	movs	r2, #0
 8000b08:	61da      	str	r2, [r3, #28]
  if (HAL_UART_Init(&huart3) != HAL_OK)
 8000b0a:	4805      	ldr	r0, [pc, #20]	; (8000b20 <MX_USART3_UART_Init+0x4c>)
 8000b0c:	f001 f93e 	bl	8001d8c <HAL_UART_Init>
 8000b10:	4603      	mov	r3, r0
 8000b12:	2b00      	cmp	r3, #0
 8000b14:	d001      	beq.n	8000b1a <MX_USART3_UART_Init+0x46>
  {
    Error_Handler();
 8000b16:	f000 f867 	bl	8000be8 <Error_Handler>
  }
  /* USER CODE BEGIN USART3_Init 2 */

  /* USER CODE END USART3_Init 2 */

}
 8000b1a:	bf00      	nop
 8000b1c:	bd80      	pop	{r7, pc}
 8000b1e:	bf00      	nop
 8000b20:	200000d0 	.word	0x200000d0
 8000b24:	40004800 	.word	0x40004800

08000b28 <MX_GPIO_Init>:
  * @brief GPIO Initialization Function
  * @param None
  * @retval None
  */
static void MX_GPIO_Init(void)
{
 8000b28:	b580      	push	{r7, lr}
 8000b2a:	b08a      	sub	sp, #40	; 0x28
 8000b2c:	af00      	add	r7, sp, #0
  GPIO_InitTypeDef GPIO_InitStruct = {0};
 8000b2e:	f107 0314 	add.w	r3, r7, #20
 8000b32:	2200      	movs	r2, #0
 8000b34:	601a      	str	r2, [r3, #0]
 8000b36:	605a      	str	r2, [r3, #4]
 8000b38:	609a      	str	r2, [r3, #8]
 8000b3a:	60da      	str	r2, [r3, #12]
 8000b3c:	611a      	str	r2, [r3, #16]
/* USER CODE BEGIN MX_GPIO_Init_1 */
/* USER CODE END MX_GPIO_Init_1 */

  /* GPIO Ports Clock Enable */
  __HAL_RCC_GPIOH_CLK_ENABLE();
 8000b3e:	2300      	movs	r3, #0
 8000b40:	613b      	str	r3, [r7, #16]
 8000b42:	4b27      	ldr	r3, [pc, #156]	; (8000be0 <MX_GPIO_Init+0xb8>)
 8000b44:	6b1b      	ldr	r3, [r3, #48]	; 0x30
 8000b46:	4a26      	ldr	r2, [pc, #152]	; (8000be0 <MX_GPIO_Init+0xb8>)
 8000b48:	f043 0380 	orr.w	r3, r3, #128	; 0x80
 8000b4c:	6313      	str	r3, [r2, #48]	; 0x30
 8000b4e:	4b24      	ldr	r3, [pc, #144]	; (8000be0 <MX_GPIO_Init+0xb8>)
 8000b50:	6b1b      	ldr	r3, [r3, #48]	; 0x30
 8000b52:	f003 0380 	and.w	r3, r3, #128	; 0x80
 8000b56:	613b      	str	r3, [r7, #16]
 8000b58:	693b      	ldr	r3, [r7, #16]
  __HAL_RCC_GPIOA_CLK_ENABLE();
 8000b5a:	2300      	movs	r3, #0
 8000b5c:	60fb      	str	r3, [r7, #12]
 8000b5e:	4b20      	ldr	r3, [pc, #128]	; (8000be0 <MX_GPIO_Init+0xb8>)
 8000b60:	6b1b      	ldr	r3, [r3, #48]	; 0x30
 8000b62:	4a1f      	ldr	r2, [pc, #124]	; (8000be0 <MX_GPIO_Init+0xb8>)
 8000b64:	f043 0301 	orr.w	r3, r3, #1
 8000b68:	6313      	str	r3, [r2, #48]	; 0x30
 8000b6a:	4b1d      	ldr	r3, [pc, #116]	; (8000be0 <MX_GPIO_Init+0xb8>)
 8000b6c:	6b1b      	ldr	r3, [r3, #48]	; 0x30
 8000b6e:	f003 0301 	and.w	r3, r3, #1
 8000b72:	60fb      	str	r3, [r7, #12]
 8000b74:	68fb      	ldr	r3, [r7, #12]
  __HAL_RCC_GPIOB_CLK_ENABLE();
 8000b76:	2300      	movs	r3, #0
 8000b78:	60bb      	str	r3, [r7, #8]
 8000b7a:	4b19      	ldr	r3, [pc, #100]	; (8000be0 <MX_GPIO_Init+0xb8>)
 8000b7c:	6b1b      	ldr	r3, [r3, #48]	; 0x30
 8000b7e:	4a18      	ldr	r2, [pc, #96]	; (8000be0 <MX_GPIO_Init+0xb8>)
 8000b80:	f043 0302 	orr.w	r3, r3, #2
 8000b84:	6313      	str	r3, [r2, #48]	; 0x30
 8000b86:	4b16      	ldr	r3, [pc, #88]	; (8000be0 <MX_GPIO_Init+0xb8>)
 8000b88:	6b1b      	ldr	r3, [r3, #48]	; 0x30
 8000b8a:	f003 0302 	and.w	r3, r3, #2
 8000b8e:	60bb      	str	r3, [r7, #8]
 8000b90:	68bb      	ldr	r3, [r7, #8]
  __HAL_RCC_GPIOD_CLK_ENABLE();
 8000b92:	2300      	movs	r3, #0
 8000b94:	607b      	str	r3, [r7, #4]
 8000b96:	4b12      	ldr	r3, [pc, #72]	; (8000be0 <MX_GPIO_Init+0xb8>)
 8000b98:	6b1b      	ldr	r3, [r3, #48]	; 0x30
 8000b9a:	4a11      	ldr	r2, [pc, #68]	; (8000be0 <MX_GPIO_Init+0xb8>)
 8000b9c:	f043 0308 	orr.w	r3, r3, #8
 8000ba0:	6313      	str	r3, [r2, #48]	; 0x30
 8000ba2:	4b0f      	ldr	r3, [pc, #60]	; (8000be0 <MX_GPIO_Init+0xb8>)
 8000ba4:	6b1b      	ldr	r3, [r3, #48]	; 0x30
 8000ba6:	f003 0308 	and.w	r3, r3, #8
 8000baa:	607b      	str	r3, [r7, #4]
 8000bac:	687b      	ldr	r3, [r7, #4]

  /*Configure GPIO pin Output Level */
  HAL_GPIO_WritePin(GPIOD, GPIO_PIN_12|GPIO_PIN_13|GPIO_PIN_14|GPIO_PIN_15, GPIO_PIN_RESET);
 8000bae:	2200      	movs	r2, #0
 8000bb0:	f44f 4170 	mov.w	r1, #61440	; 0xf000
 8000bb4:	480b      	ldr	r0, [pc, #44]	; (8000be4 <MX_GPIO_Init+0xbc>)
 8000bb6:	f000 fc77 	bl	80014a8 <HAL_GPIO_WritePin>

  /*Configure GPIO pins : PD12 PD13 PD14 PD15 */
  GPIO_InitStruct.Pin = GPIO_PIN_12|GPIO_PIN_13|GPIO_PIN_14|GPIO_PIN_15;
 8000bba:	f44f 4370 	mov.w	r3, #61440	; 0xf000
 8000bbe:	617b      	str	r3, [r7, #20]
  GPIO_InitStruct.Mode = GPIO_MODE_OUTPUT_PP;
 8000bc0:	2301      	movs	r3, #1
 8000bc2:	61bb      	str	r3, [r7, #24]
  GPIO_InitStruct.Pull = GPIO_NOPULL;
 8000bc4:	2300      	movs	r3, #0
 8000bc6:	61fb      	str	r3, [r7, #28]
  GPIO_InitStruct.Speed = GPIO_SPEED_FREQ_LOW;
 8000bc8:	2300      	movs	r3, #0
 8000bca:	623b      	str	r3, [r7, #32]
  HAL_GPIO_Init(GPIOD, &GPIO_InitStruct);
 8000bcc:	f107 0314 	add.w	r3, r7, #20
 8000bd0:	4619      	mov	r1, r3
 8000bd2:	4804      	ldr	r0, [pc, #16]	; (8000be4 <MX_GPIO_Init+0xbc>)
 8000bd4:	f000 facc 	bl	8001170 <HAL_GPIO_Init>

/* USER CODE BEGIN MX_GPIO_Init_2 */
/* USER CODE END MX_GPIO_Init_2 */
}
 8000bd8:	bf00      	nop
 8000bda:	3728      	adds	r7, #40	; 0x28
 8000bdc:	46bd      	mov	sp, r7
 8000bde:	bd80      	pop	{r7, pc}
 8000be0:	40023800 	.word	0x40023800
 8000be4:	40020c00 	.word	0x40020c00

08000be8 <Error_Handler>:
/**
  * @brief  This function is executed in case of error occurrence.
  * @retval None
  */
void Error_Handler(void)
{
 8000be8:	b480      	push	{r7}
 8000bea:	af00      	add	r7, sp, #0
  \details Disables IRQ interrupts by setting the I-bit in the CPSR.
           Can only be executed in Privileged modes.
 */
__STATIC_FORCEINLINE void __disable_irq(void)
{
  __ASM volatile ("cpsid i" : : : "memory");
 8000bec:	b672      	cpsid	i
}
 8000bee:	bf00      	nop
  /* USER CODE BEGIN Error_Handler_Debug */
  /* User can add his own implementation to report the HAL error return state */
  __disable_irq();
  while (1)
 8000bf0:	e7fe      	b.n	8000bf0 <Error_Handler+0x8>
	...

08000bf4 <HAL_MspInit>:
/* USER CODE END 0 */
/**
  * Initializes the Global MSP.
  */
void HAL_MspInit(void)
{
 8000bf4:	b480      	push	{r7}
 8000bf6:	b083      	sub	sp, #12
 8000bf8:	af00      	add	r7, sp, #0
  /* USER CODE BEGIN MspInit 0 */

  /* USER CODE END MspInit 0 */

  __HAL_RCC_SYSCFG_CLK_ENABLE();
 8000bfa:	2300      	movs	r3, #0
 8000bfc:	607b      	str	r3, [r7, #4]
 8000bfe:	4b10      	ldr	r3, [pc, #64]	; (8000c40 <HAL_MspInit+0x4c>)
 8000c00:	6c5b      	ldr	r3, [r3, #68]	; 0x44
 8000c02:	4a0f      	ldr	r2, [pc, #60]	; (8000c40 <HAL_MspInit+0x4c>)
 8000c04:	f443 4380 	orr.w	r3, r3, #16384	; 0x4000
 8000c08:	6453      	str	r3, [r2, #68]	; 0x44
 8000c0a:	4b0d      	ldr	r3, [pc, #52]	; (8000c40 <HAL_MspInit+0x4c>)
 8000c0c:	6c5b      	ldr	r3, [r3, #68]	; 0x44
 8000c0e:	f403 4380 	and.w	r3, r3, #16384	; 0x4000
 8000c12:	607b      	str	r3, [r7, #4]
 8000c14:	687b      	ldr	r3, [r7, #4]
  __HAL_RCC_PWR_CLK_ENABLE();
 8000c16:	2300      	movs	r3, #0
 8000c18:	603b      	str	r3, [r7, #0]
 8000c1a:	4b09      	ldr	r3, [pc, #36]	; (8000c40 <HAL_MspInit+0x4c>)
 8000c1c:	6c1b      	ldr	r3, [r3, #64]	; 0x40
 8000c1e:	4a08      	ldr	r2, [pc, #32]	; (8000c40 <HAL_MspInit+0x4c>)
 8000c20:	f043 5380 	orr.w	r3, r3, #268435456	; 0x10000000
 8000c24:	6413      	str	r3, [r2, #64]	; 0x40
 8000c26:	4b06      	ldr	r3, [pc, #24]	; (8000c40 <HAL_MspInit+0x4c>)
 8000c28:	6c1b      	ldr	r3, [r3, #64]	; 0x40
 8000c2a:	f003 5380 	and.w	r3, r3, #268435456	; 0x10000000
 8000c2e:	603b      	str	r3, [r7, #0]
 8000c30:	683b      	ldr	r3, [r7, #0]
  /* System interrupt init*/

  /* USER CODE BEGIN MspInit 1 */

  /* USER CODE END MspInit 1 */
}
 8000c32:	bf00      	nop
 8000c34:	370c      	adds	r7, #12
 8000c36:	46bd      	mov	sp, r7
 8000c38:	f85d 7b04 	ldr.w	r7, [sp], #4
 8000c3c:	4770      	bx	lr
 8000c3e:	bf00      	nop
 8000c40:	40023800 	.word	0x40023800

08000c44 <HAL_UART_MspInit>:
* This function configures the hardware resources used in this example
* @param huart: UART handle pointer
* @retval None
*/
void HAL_UART_MspInit(UART_HandleTypeDef* huart)
{
 8000c44:	b580      	push	{r7, lr}
 8000c46:	b08c      	sub	sp, #48	; 0x30
 8000c48:	af00      	add	r7, sp, #0
 8000c4a:	6078      	str	r0, [r7, #4]
  GPIO_InitTypeDef GPIO_InitStruct = {0};
 8000c4c:	f107 031c 	add.w	r3, r7, #28
 8000c50:	2200      	movs	r2, #0
 8000c52:	601a      	str	r2, [r3, #0]
 8000c54:	605a      	str	r2, [r3, #4]
 8000c56:	609a      	str	r2, [r3, #8]
 8000c58:	60da      	str	r2, [r3, #12]
 8000c5a:	611a      	str	r2, [r3, #16]
  if(huart->Instance==USART2)
 8000c5c:	687b      	ldr	r3, [r7, #4]
 8000c5e:	681b      	ldr	r3, [r3, #0]
 8000c60:	4a32      	ldr	r2, [pc, #200]	; (8000d2c <HAL_UART_MspInit+0xe8>)
 8000c62:	4293      	cmp	r3, r2
 8000c64:	d12c      	bne.n	8000cc0 <HAL_UART_MspInit+0x7c>
  {
  /* USER CODE BEGIN USART2_MspInit 0 */

  /* USER CODE END USART2_MspInit 0 */
    /* Peripheral clock enable */
    __HAL_RCC_USART2_CLK_ENABLE();
 8000c66:	2300      	movs	r3, #0
 8000c68:	61bb      	str	r3, [r7, #24]
 8000c6a:	4b31      	ldr	r3, [pc, #196]	; (8000d30 <HAL_UART_MspInit+0xec>)
 8000c6c:	6c1b      	ldr	r3, [r3, #64]	; 0x40
 8000c6e:	4a30      	ldr	r2, [pc, #192]	; (8000d30 <HAL_UART_MspInit+0xec>)
 8000c70:	f443 3300 	orr.w	r3, r3, #131072	; 0x20000
 8000c74:	6413      	str	r3, [r2, #64]	; 0x40
 8000c76:	4b2e      	ldr	r3, [pc, #184]	; (8000d30 <HAL_UART_MspInit+0xec>)
 8000c78:	6c1b      	ldr	r3, [r3, #64]	; 0x40
 8000c7a:	f403 3300 	and.w	r3, r3, #131072	; 0x20000
 8000c7e:	61bb      	str	r3, [r7, #24]
 8000c80:	69bb      	ldr	r3, [r7, #24]

    __HAL_RCC_GPIOA_CLK_ENABLE();
 8000c82:	2300      	movs	r3, #0
 8000c84:	617b      	str	r3, [r7, #20]
 8000c86:	4b2a      	ldr	r3, [pc, #168]	; (8000d30 <HAL_UART_MspInit+0xec>)
 8000c88:	6b1b      	ldr	r3, [r3, #48]	; 0x30
 8000c8a:	4a29      	ldr	r2, [pc, #164]	; (8000d30 <HAL_UART_MspInit+0xec>)
 8000c8c:	f043 0301 	orr.w	r3, r3, #1
 8000c90:	6313      	str	r3, [r2, #48]	; 0x30
 8000c92:	4b27      	ldr	r3, [pc, #156]	; (8000d30 <HAL_UART_MspInit+0xec>)
 8000c94:	6b1b      	ldr	r3, [r3, #48]	; 0x30
 8000c96:	f003 0301 	and.w	r3, r3, #1
 8000c9a:	617b      	str	r3, [r7, #20]
 8000c9c:	697b      	ldr	r3, [r7, #20]
    /**USART2 GPIO Configuration
    PA2     ------> USART2_TX
    PA3     ------> USART2_RX
    */
    GPIO_InitStruct.Pin = GPIO_PIN_2|GPIO_PIN_3;
 8000c9e:	230c      	movs	r3, #12
 8000ca0:	61fb      	str	r3, [r7, #28]
    GPIO_InitStruct.Mode = GPIO_MODE_AF_PP;
 8000ca2:	2302      	movs	r3, #2
 8000ca4:	623b      	str	r3, [r7, #32]
    GPIO_InitStruct.Pull = GPIO_NOPULL;
 8000ca6:	2300      	movs	r3, #0
 8000ca8:	627b      	str	r3, [r7, #36]	; 0x24
    GPIO_InitStruct.Speed = GPIO_SPEED_FREQ_VERY_HIGH;
 8000caa:	2303      	movs	r3, #3
 8000cac:	62bb      	str	r3, [r7, #40]	; 0x28
    GPIO_InitStruct.Alternate = GPIO_AF7_USART2;
 8000cae:	2307      	movs	r3, #7
 8000cb0:	62fb      	str	r3, [r7, #44]	; 0x2c
    HAL_GPIO_Init(GPIOA, &GPIO_InitStruct);
 8000cb2:	f107 031c 	add.w	r3, r7, #28
 8000cb6:	4619      	mov	r1, r3
 8000cb8:	481e      	ldr	r0, [pc, #120]	; (8000d34 <HAL_UART_MspInit+0xf0>)
 8000cba:	f000 fa59 	bl	8001170 <HAL_GPIO_Init>
  /* USER CODE BEGIN USART3_MspInit 1 */

  /* USER CODE END USART3_MspInit 1 */
  }

}
 8000cbe:	e031      	b.n	8000d24 <HAL_UART_MspInit+0xe0>
  else if(huart->Instance==USART3)
 8000cc0:	687b      	ldr	r3, [r7, #4]
 8000cc2:	681b      	ldr	r3, [r3, #0]
 8000cc4:	4a1c      	ldr	r2, [pc, #112]	; (8000d38 <HAL_UART_MspInit+0xf4>)
 8000cc6:	4293      	cmp	r3, r2
 8000cc8:	d12c      	bne.n	8000d24 <HAL_UART_MspInit+0xe0>
    __HAL_RCC_USART3_CLK_ENABLE();
 8000cca:	2300      	movs	r3, #0
 8000ccc:	613b      	str	r3, [r7, #16]
 8000cce:	4b18      	ldr	r3, [pc, #96]	; (8000d30 <HAL_UART_MspInit+0xec>)
 8000cd0:	6c1b      	ldr	r3, [r3, #64]	; 0x40
 8000cd2:	4a17      	ldr	r2, [pc, #92]	; (8000d30 <HAL_UART_MspInit+0xec>)
 8000cd4:	f443 2380 	orr.w	r3, r3, #262144	; 0x40000
 8000cd8:	6413      	str	r3, [r2, #64]	; 0x40
 8000cda:	4b15      	ldr	r3, [pc, #84]	; (8000d30 <HAL_UART_MspInit+0xec>)
 8000cdc:	6c1b      	ldr	r3, [r3, #64]	; 0x40
 8000cde:	f403 2380 	and.w	r3, r3, #262144	; 0x40000
 8000ce2:	613b      	str	r3, [r7, #16]
 8000ce4:	693b      	ldr	r3, [r7, #16]
    __HAL_RCC_GPIOB_CLK_ENABLE();
 8000ce6:	2300      	movs	r3, #0
 8000ce8:	60fb      	str	r3, [r7, #12]
 8000cea:	4b11      	ldr	r3, [pc, #68]	; (8000d30 <HAL_UART_MspInit+0xec>)
 8000cec:	6b1b      	ldr	r3, [r3, #48]	; 0x30
 8000cee:	4a10      	ldr	r2, [pc, #64]	; (8000d30 <HAL_UART_MspInit+0xec>)
 8000cf0:	f043 0302 	orr.w	r3, r3, #2
 8000cf4:	6313      	str	r3, [r2, #48]	; 0x30
 8000cf6:	4b0e      	ldr	r3, [pc, #56]	; (8000d30 <HAL_UART_MspInit+0xec>)
 8000cf8:	6b1b      	ldr	r3, [r3, #48]	; 0x30
 8000cfa:	f003 0302 	and.w	r3, r3, #2
 8000cfe:	60fb      	str	r3, [r7, #12]
 8000d00:	68fb      	ldr	r3, [r7, #12]
    GPIO_InitStruct.Pin = GPIO_PIN_10|GPIO_PIN_11;
 8000d02:	f44f 6340 	mov.w	r3, #3072	; 0xc00
 8000d06:	61fb      	str	r3, [r7, #28]
    GPIO_InitStruct.Mode = GPIO_MODE_AF_PP;
 8000d08:	2302      	movs	r3, #2
 8000d0a:	623b      	str	r3, [r7, #32]
    GPIO_InitStruct.Pull = GPIO_NOPULL;
 8000d0c:	2300      	movs	r3, #0
 8000d0e:	627b      	str	r3, [r7, #36]	; 0x24
    GPIO_InitStruct.Speed = GPIO_SPEED_FREQ_VERY_HIGH;
 8000d10:	2303      	movs	r3, #3
 8000d12:	62bb      	str	r3, [r7, #40]	; 0x28
    GPIO_InitStruct.Alternate = GPIO_AF7_USART3;
 8000d14:	2307      	movs	r3, #7
 8000d16:	62fb      	str	r3, [r7, #44]	; 0x2c
    HAL_GPIO_Init(GPIOB, &GPIO_InitStruct);
 8000d18:	f107 031c 	add.w	r3, r7, #28
 8000d1c:	4619      	mov	r1, r3
 8000d1e:	4807      	ldr	r0, [pc, #28]	; (8000d3c <HAL_UART_MspInit+0xf8>)
 8000d20:	f000 fa26 	bl	8001170 <HAL_GPIO_Init>
}
 8000d24:	bf00      	nop
 8000d26:	3730      	adds	r7, #48	; 0x30
 8000d28:	46bd      	mov	sp, r7
 8000d2a:	bd80      	pop	{r7, pc}
 8000d2c:	40004400 	.word	0x40004400
 8000d30:	40023800 	.word	0x40023800
 8000d34:	40020000 	.word	0x40020000
 8000d38:	40004800 	.word	0x40004800
 8000d3c:	40020400 	.word	0x40020400

08000d40 <NMI_Handler>:
/******************************************************************************/
/**
  * @brief This function handles Non maskable interrupt.
  */
void NMI_Handler(void)
{
 8000d40:	b480      	push	{r7}
 8000d42:	af00      	add	r7, sp, #0
  /* USER CODE BEGIN NonMaskableInt_IRQn 0 */

  /* USER CODE END NonMaskableInt_IRQn 0 */
  /* USER CODE BEGIN NonMaskableInt_IRQn 1 */
  while (1)
 8000d44:	e7fe      	b.n	8000d44 <NMI_Handler+0x4>

08000d46 <HardFault_Handler>:

/**
  * @brief This function handles Hard fault interrupt.
  */
void HardFault_Handler(void)
{
 8000d46:	b480      	push	{r7}
 8000d48:	af00      	add	r7, sp, #0
  /* USER CODE BEGIN HardFault_IRQn 0 */

  /* USER CODE END HardFault_IRQn 0 */
  while (1)
 8000d4a:	e7fe      	b.n	8000d4a <HardFault_Handler+0x4>

08000d4c <MemManage_Handler>:

/**
  * @brief This function handles Memory management fault.
  */
void MemManage_Handler(void)
{
 8000d4c:	b480      	push	{r7}
 8000d4e:	af00      	add	r7, sp, #0
  /* USER CODE BEGIN MemoryManagement_IRQn 0 */

  /* USER CODE END MemoryManagement_IRQn 0 */
  while (1)
 8000d50:	e7fe      	b.n	8000d50 <MemManage_Handler+0x4>

08000d52 <BusFault_Handler>:

/**
  * @brief This function handles Pre-fetch fault, memory access fault.
  */
void BusFault_Handler(void)
{
 8000d52:	b480      	push	{r7}
 8000d54:	af00      	add	r7, sp, #0
  /* USER CODE BEGIN BusFault_IRQn 0 */

  /* USER CODE END BusFault_IRQn 0 */
  while (1)
 8000d56:	e7fe      	b.n	8000d56 <BusFault_Handler+0x4>

08000d58 <UsageFault_Handler>:

/**
  * @brief This function handles Undefined instruction or illegal state.
  */
void UsageFault_Handler(void)
{
 8000d58:	b480      	push	{r7}
 8000d5a:	af00      	add	r7, sp, #0
  /* USER CODE BEGIN UsageFault_IRQn 0 */

  /* USER CODE END UsageFault_IRQn 0 */
  while (1)
 8000d5c:	e7fe      	b.n	8000d5c <UsageFault_Handler+0x4>

08000d5e <SVC_Handler>:

/**
  * @brief This function handles System service call via SWI instruction.
  */
void SVC_Handler(void)
{
 8000d5e:	b480      	push	{r7}
 8000d60:	af00      	add	r7, sp, #0

  /* USER CODE END SVCall_IRQn 0 */
  /* USER CODE BEGIN SVCall_IRQn 1 */

  /* USER CODE END SVCall_IRQn 1 */
}
 8000d62:	bf00      	nop
 8000d64:	46bd      	mov	sp, r7
 8000d66:	f85d 7b04 	ldr.w	r7, [sp], #4
 8000d6a:	4770      	bx	lr

08000d6c <DebugMon_Handler>:

/**
  * @brief This function handles Debug monitor.
  */
void DebugMon_Handler(void)
{
 8000d6c:	b480      	push	{r7}
 8000d6e:	af00      	add	r7, sp, #0

  /* USER CODE END DebugMonitor_IRQn 0 */
  /* USER CODE BEGIN DebugMonitor_IRQn 1 */

  /* USER CODE END DebugMonitor_IRQn 1 */
}
 8000d70:	bf00      	nop
 8000d72:	46bd      	mov	sp, r7
 8000d74:	f85d 7b04 	ldr.w	r7, [sp], #4
 8000d78:	4770      	bx	lr

08000d7a <PendSV_Handler>:

/**
  * @brief This function handles Pendable request for system service.
  */
void PendSV_Handler(void)
{
 8000d7a:	b480      	push	{r7}
 8000d7c:	af00      	add	r7, sp, #0

  /* USER CODE END PendSV_IRQn 0 */
  /* USER CODE BEGIN PendSV_IRQn 1 */

  /* USER CODE END PendSV_IRQn 1 */
}
 8000d7e:	bf00      	nop
 8000d80:	46bd      	mov	sp, r7
 8000d82:	f85d 7b04 	ldr.w	r7, [sp], #4
 8000d86:	4770      	bx	lr

08000d88 <SysTick_Handler>:

/**
  * @brief This function handles System tick timer.
  */
void SysTick_Handler(void)
{
 8000d88:	b580      	push	{r7, lr}
 8000d8a:	af00      	add	r7, sp, #0
  /* USER CODE BEGIN SysTick_IRQn 0 */

  /* USER CODE END SysTick_IRQn 0 */
  HAL_IncTick();
 8000d8c:	f000 f8c6 	bl	8000f1c <HAL_IncTick>
  /* USER CODE BEGIN SysTick_IRQn 1 */

  /* USER CODE END SysTick_IRQn 1 */
}
 8000d90:	bf00      	nop
 8000d92:	bd80      	pop	{r7, pc}

08000d94 <_sbrk>:
 *
 * @param incr Memory size
 * @return Pointer to allocated memory
 */
void *_sbrk(ptrdiff_t incr)
{
 8000d94:	b580      	push	{r7, lr}
 8000d96:	b086      	sub	sp, #24
 8000d98:	af00      	add	r7, sp, #0
 8000d9a:	6078      	str	r0, [r7, #4]
  extern uint8_t _end; /* Symbol defined in the linker script */
  extern uint8_t _estack; /* Symbol defined in the linker script */
  extern uint32_t _Min_Stack_Size; /* Symbol defined in the linker script */
  const uint32_t stack_limit = (uint32_t)&_estack - (uint32_t)&_Min_Stack_Size;
 8000d9c:	4a14      	ldr	r2, [pc, #80]	; (8000df0 <_sbrk+0x5c>)
 8000d9e:	4b15      	ldr	r3, [pc, #84]	; (8000df4 <_sbrk+0x60>)
 8000da0:	1ad3      	subs	r3, r2, r3
 8000da2:	617b      	str	r3, [r7, #20]
  const uint8_t *max_heap = (uint8_t *)stack_limit;
 8000da4:	697b      	ldr	r3, [r7, #20]
 8000da6:	613b      	str	r3, [r7, #16]
  uint8_t *prev_heap_end;

  /* Initialize heap end at first call */
  if (NULL == __sbrk_heap_end)
 8000da8:	4b13      	ldr	r3, [pc, #76]	; (8000df8 <_sbrk+0x64>)
 8000daa:	681b      	ldr	r3, [r3, #0]
 8000dac:	2b00      	cmp	r3, #0
 8000dae:	d102      	bne.n	8000db6 <_sbrk+0x22>
  {
    __sbrk_heap_end = &_end;
 8000db0:	4b11      	ldr	r3, [pc, #68]	; (8000df8 <_sbrk+0x64>)
 8000db2:	4a12      	ldr	r2, [pc, #72]	; (8000dfc <_sbrk+0x68>)
 8000db4:	601a      	str	r2, [r3, #0]
  }

  /* Protect heap from growing into the reserved MSP stack */
  if (__sbrk_heap_end + incr > max_heap)
 8000db6:	4b10      	ldr	r3, [pc, #64]	; (8000df8 <_sbrk+0x64>)
 8000db8:	681a      	ldr	r2, [r3, #0]
 8000dba:	687b      	ldr	r3, [r7, #4]
 8000dbc:	4413      	add	r3, r2
 8000dbe:	693a      	ldr	r2, [r7, #16]
 8000dc0:	429a      	cmp	r2, r3
 8000dc2:	d207      	bcs.n	8000dd4 <_sbrk+0x40>
  {
    errno = ENOMEM;
 8000dc4:	f001 fc4a 	bl	800265c <__errno>
 8000dc8:	4603      	mov	r3, r0
 8000dca:	220c      	movs	r2, #12
 8000dcc:	601a      	str	r2, [r3, #0]
    return (void *)-1;
 8000dce:	f04f 33ff 	mov.w	r3, #4294967295
 8000dd2:	e009      	b.n	8000de8 <_sbrk+0x54>
  }

  prev_heap_end = __sbrk_heap_end;
 8000dd4:	4b08      	ldr	r3, [pc, #32]	; (8000df8 <_sbrk+0x64>)
 8000dd6:	681b      	ldr	r3, [r3, #0]
 8000dd8:	60fb      	str	r3, [r7, #12]
  __sbrk_heap_end += incr;
 8000dda:	4b07      	ldr	r3, [pc, #28]	; (8000df8 <_sbrk+0x64>)
 8000ddc:	681a      	ldr	r2, [r3, #0]
 8000dde:	687b      	ldr	r3, [r7, #4]
 8000de0:	4413      	add	r3, r2
 8000de2:	4a05      	ldr	r2, [pc, #20]	; (8000df8 <_sbrk+0x64>)
 8000de4:	6013      	str	r3, [r2, #0]

  return (void *)prev_heap_end;
 8000de6:	68fb      	ldr	r3, [r7, #12]
}
 8000de8:	4618      	mov	r0, r3
 8000dea:	3718      	adds	r7, #24
 8000dec:	46bd      	mov	sp, r7
 8000dee:	bd80      	pop	{r7, pc}
 8000df0:	20020000 	.word	0x20020000
 8000df4:	00000400 	.word	0x00000400
 8000df8:	20000114 	.word	0x20000114
 8000dfc:	20000130 	.word	0x20000130

08000e00 <SystemInit>:
  *         configuration.
  * @param  None
  * @retval None
  */
void SystemInit(void)
{
 8000e00:	b480      	push	{r7}
 8000e02:	af00      	add	r7, sp, #0
  /* FPU settings ------------------------------------------------------------*/
  #if (__FPU_PRESENT == 1) && (__FPU_USED == 1)
    SCB->CPACR |= ((3UL << 10*2)|(3UL << 11*2));  /* set CP10 and CP11 Full Access */
 8000e04:	4b06      	ldr	r3, [pc, #24]	; (8000e20 <SystemInit+0x20>)
 8000e06:	f8d3 3088 	ldr.w	r3, [r3, #136]	; 0x88
 8000e0a:	4a05      	ldr	r2, [pc, #20]	; (8000e20 <SystemInit+0x20>)
 8000e0c:	f443 0370 	orr.w	r3, r3, #15728640	; 0xf00000
 8000e10:	f8c2 3088 	str.w	r3, [r2, #136]	; 0x88

  /* Configure the Vector Table location -------------------------------------*/
#if defined(USER_VECT_TAB_ADDRESS)
  SCB->VTOR = VECT_TAB_BASE_ADDRESS | VECT_TAB_OFFSET; /* Vector Table Relocation in Internal SRAM */
#endif /* USER_VECT_TAB_ADDRESS */
}
 8000e14:	bf00      	nop
 8000e16:	46bd      	mov	sp, r7
 8000e18:	f85d 7b04 	ldr.w	r7, [sp], #4
 8000e1c:	4770      	bx	lr
 8000e1e:	bf00      	nop
 8000e20:	e000ed00 	.word	0xe000ed00

08000e24 <Reset_Handler>:

    .section  .text.Reset_Handler
  .weak  Reset_Handler
  .type  Reset_Handler, %function
Reset_Handler:  
  ldr   sp, =_estack     /* set stack pointer */
 8000e24:	f8df d034 	ldr.w	sp, [pc, #52]	; 8000e5c <LoopFillZerobss+0x12>

/* Copy the data segment initializers from flash to SRAM */  
  ldr r0, =_sdata
 8000e28:	480d      	ldr	r0, [pc, #52]	; (8000e60 <LoopFillZerobss+0x16>)
  ldr r1, =_edata
 8000e2a:	490e      	ldr	r1, [pc, #56]	; (8000e64 <LoopFillZerobss+0x1a>)
  ldr r2, =_sidata
 8000e2c:	4a0e      	ldr	r2, [pc, #56]	; (8000e68 <LoopFillZerobss+0x1e>)
  movs r3, #0
 8000e2e:	2300      	movs	r3, #0
  b LoopCopyDataInit
 8000e30:	e002      	b.n	8000e38 <LoopCopyDataInit>

08000e32 <CopyDataInit>:

CopyDataInit:
  ldr r4, [r2, r3]
 8000e32:	58d4      	ldr	r4, [r2, r3]
  str r4, [r0, r3]
 8000e34:	50c4      	str	r4, [r0, r3]
  adds r3, r3, #4
 8000e36:	3304      	adds	r3, #4

08000e38 <LoopCopyDataInit>:

LoopCopyDataInit:
  adds r4, r0, r3
 8000e38:	18c4      	adds	r4, r0, r3
  cmp r4, r1
 8000e3a:	428c      	cmp	r4, r1
  bcc CopyDataInit
 8000e3c:	d3f9      	bcc.n	8000e32 <CopyDataInit>
  
/* Zero fill the bss segment. */
  ldr r2, =_sbss
 8000e3e:	4a0b      	ldr	r2, [pc, #44]	; (8000e6c <LoopFillZerobss+0x22>)
  ldr r4, =_ebss
 8000e40:	4c0b      	ldr	r4, [pc, #44]	; (8000e70 <LoopFillZerobss+0x26>)
  movs r3, #0
 8000e42:	2300      	movs	r3, #0
  b LoopFillZerobss
 8000e44:	e001      	b.n	8000e4a <LoopFillZerobss>

08000e46 <FillZerobss>:

FillZerobss:
  str  r3, [r2]
 8000e46:	6013      	str	r3, [r2, #0]
  adds r2, r2, #4
 8000e48:	3204      	adds	r2, #4

08000e4a <LoopFillZerobss>:

LoopFillZerobss:
  cmp r2, r4
 8000e4a:	42a2      	cmp	r2, r4
  bcc FillZerobss
 8000e4c:	d3fb      	bcc.n	8000e46 <FillZerobss>

/* Call the clock system initialization function.*/
  bl  SystemInit   
 8000e4e:	f7ff ffd7 	bl	8000e00 <SystemInit>
/* Call static constructors */
    bl __libc_init_array
 8000e52:	f001 fc09 	bl	8002668 <__libc_init_array>
/* Call the application's entry point.*/
  bl  main
 8000e56:	f7ff fb95 	bl	8000584 <main>
  bx  lr    
 8000e5a:	4770      	bx	lr
  ldr   sp, =_estack     /* set stack pointer */
 8000e5c:	20020000 	.word	0x20020000
  ldr r0, =_sdata
 8000e60:	20000000 	.word	0x20000000
  ldr r1, =_edata
 8000e64:	20000070 	.word	0x20000070
  ldr r2, =_sidata
 8000e68:	0800322c 	.word	0x0800322c
  ldr r2, =_sbss
 8000e6c:	20000070 	.word	0x20000070
  ldr r4, =_ebss
 8000e70:	2000012c 	.word	0x2000012c

08000e74 <ADC_IRQHandler>:
 * @retval None       
*/
    .section  .text.Default_Handler,"ax",%progbits
Default_Handler:
Infinite_Loop:
  b  Infinite_Loop
 8000e74:	e7fe      	b.n	8000e74 <ADC_IRQHandler>
	...

08000e78 <HAL_Init>:
  *         need to ensure that the SysTick time base is always set to 1 millisecond
  *         to have correct HAL operation.
  * @retval HAL status
  */
HAL_StatusTypeDef HAL_Init(void)
{
 8000e78:	b580      	push	{r7, lr}
 8000e7a:	af00      	add	r7, sp, #0
  /* Configure Flash prefetch, Instruction cache, Data cache */ 
#if (INSTRUCTION_CACHE_ENABLE != 0U)
  __HAL_FLASH_INSTRUCTION_CACHE_ENABLE();
 8000e7c:	4b0e      	ldr	r3, [pc, #56]	; (8000eb8 <HAL_Init+0x40>)
 8000e7e:	681b      	ldr	r3, [r3, #0]
 8000e80:	4a0d      	ldr	r2, [pc, #52]	; (8000eb8 <HAL_Init+0x40>)
 8000e82:	f443 7300 	orr.w	r3, r3, #512	; 0x200
 8000e86:	6013      	str	r3, [r2, #0]
#endif /* INSTRUCTION_CACHE_ENABLE */

#if (DATA_CACHE_ENABLE != 0U)
  __HAL_FLASH_DATA_CACHE_ENABLE();
 8000e88:	4b0b      	ldr	r3, [pc, #44]	; (8000eb8 <HAL_Init+0x40>)
 8000e8a:	681b      	ldr	r3, [r3, #0]
 8000e8c:	4a0a      	ldr	r2, [pc, #40]	; (8000eb8 <HAL_Init+0x40>)
 8000e8e:	f443 6380 	orr.w	r3, r3, #1024	; 0x400
 8000e92:	6013      	str	r3, [r2, #0]
#endif /* DATA_CACHE_ENABLE */

#if (PREFETCH_ENABLE != 0U)
  __HAL_FLASH_PREFETCH_BUFFER_ENABLE();
 8000e94:	4b08      	ldr	r3, [pc, #32]	; (8000eb8 <HAL_Init+0x40>)
 8000e96:	681b      	ldr	r3, [r3, #0]
 8000e98:	4a07      	ldr	r2, [pc, #28]	; (8000eb8 <HAL_Init+0x40>)
 8000e9a:	f443 7380 	orr.w	r3, r3, #256	; 0x100
 8000e9e:	6013      	str	r3, [r2, #0]
#endif /* PREFETCH_ENABLE */

  /* Set Interrupt Group Priority */
  HAL_NVIC_SetPriorityGrouping(NVIC_PRIORITYGROUP_4);
 8000ea0:	2003      	movs	r0, #3
 8000ea2:	f000 f931 	bl	8001108 <HAL_NVIC_SetPriorityGrouping>

  /* Use systick as time base source and configure 1ms tick (default clock after Reset is HSI) */
  HAL_InitTick(TICK_INT_PRIORITY);
 8000ea6:	200f      	movs	r0, #15
 8000ea8:	f000 f808 	bl	8000ebc <HAL_InitTick>

  /* Init the low level hardware */
  HAL_MspInit();
 8000eac:	f7ff fea2 	bl	8000bf4 <HAL_MspInit>

  /* Return function status */
  return HAL_OK;
 8000eb0:	2300      	movs	r3, #0
}
 8000eb2:	4618      	mov	r0, r3
 8000eb4:	bd80      	pop	{r7, pc}
 8000eb6:	bf00      	nop
 8000eb8:	40023c00 	.word	0x40023c00

08000ebc <HAL_InitTick>:
  *       implementation  in user file.
  * @param TickPriority Tick interrupt priority.
  * @retval HAL status
  */
__weak HAL_StatusTypeDef HAL_InitTick(uint32_t TickPriority)
{
 8000ebc:	b580      	push	{r7, lr}
 8000ebe:	b082      	sub	sp, #8
 8000ec0:	af00      	add	r7, sp, #0
 8000ec2:	6078      	str	r0, [r7, #4]
  /* Configure the SysTick to have interrupt in 1ms time basis*/
  if (HAL_SYSTICK_Config(SystemCoreClock / (1000U / uwTickFreq)) > 0U)
 8000ec4:	4b12      	ldr	r3, [pc, #72]	; (8000f10 <HAL_InitTick+0x54>)
 8000ec6:	681a      	ldr	r2, [r3, #0]
 8000ec8:	4b12      	ldr	r3, [pc, #72]	; (8000f14 <HAL_InitTick+0x58>)
 8000eca:	781b      	ldrb	r3, [r3, #0]
 8000ecc:	4619      	mov	r1, r3
 8000ece:	f44f 737a 	mov.w	r3, #1000	; 0x3e8
 8000ed2:	fbb3 f3f1 	udiv	r3, r3, r1
 8000ed6:	fbb2 f3f3 	udiv	r3, r2, r3
 8000eda:	4618      	mov	r0, r3
 8000edc:	f000 f93b 	bl	8001156 <HAL_SYSTICK_Config>
 8000ee0:	4603      	mov	r3, r0
 8000ee2:	2b00      	cmp	r3, #0
 8000ee4:	d001      	beq.n	8000eea <HAL_InitTick+0x2e>
  {
    return HAL_ERROR;
 8000ee6:	2301      	movs	r3, #1
 8000ee8:	e00e      	b.n	8000f08 <HAL_InitTick+0x4c>
  }

  /* Configure the SysTick IRQ priority */
  if (TickPriority < (1UL << __NVIC_PRIO_BITS))
 8000eea:	687b      	ldr	r3, [r7, #4]
 8000eec:	2b0f      	cmp	r3, #15
 8000eee:	d80a      	bhi.n	8000f06 <HAL_InitTick+0x4a>
  {
    HAL_NVIC_SetPriority(SysTick_IRQn, TickPriority, 0U);
 8000ef0:	2200      	movs	r2, #0
 8000ef2:	6879      	ldr	r1, [r7, #4]
 8000ef4:	f04f 30ff 	mov.w	r0, #4294967295
 8000ef8:	f000 f911 	bl	800111e <HAL_NVIC_SetPriority>
    uwTickPrio = TickPriority;
 8000efc:	4a06      	ldr	r2, [pc, #24]	; (8000f18 <HAL_InitTick+0x5c>)
 8000efe:	687b      	ldr	r3, [r7, #4]
 8000f00:	6013      	str	r3, [r2, #0]
  {
    return HAL_ERROR;
  }

  /* Return function status */
  return HAL_OK;
 8000f02:	2300      	movs	r3, #0
 8000f04:	e000      	b.n	8000f08 <HAL_InitTick+0x4c>
    return HAL_ERROR;
 8000f06:	2301      	movs	r3, #1
}
 8000f08:	4618      	mov	r0, r3
 8000f0a:	3708      	adds	r7, #8
 8000f0c:	46bd      	mov	sp, r7
 8000f0e:	bd80      	pop	{r7, pc}
 8000f10:	20000000 	.word	0x20000000
 8000f14:	20000008 	.word	0x20000008
 8000f18:	20000004 	.word	0x20000004

08000f1c <HAL_IncTick>:
 * @note This function is declared as __weak to be overwritten in case of other 
  *      implementations in user file.
  * @retval None
  */
__weak void HAL_IncTick(void)
{
 8000f1c:	b480      	push	{r7}
 8000f1e:	af00      	add	r7, sp, #0
  uwTick += uwTickFreq;
 8000f20:	4b06      	ldr	r3, [pc, #24]	; (8000f3c <HAL_IncTick+0x20>)
 8000f22:	781b      	ldrb	r3, [r3, #0]
 8000f24:	461a      	mov	r2, r3
 8000f26:	4b06      	ldr	r3, [pc, #24]	; (8000f40 <HAL_IncTick+0x24>)
 8000f28:	681b      	ldr	r3, [r3, #0]
 8000f2a:	4413      	add	r3, r2
 8000f2c:	4a04      	ldr	r2, [pc, #16]	; (8000f40 <HAL_IncTick+0x24>)
 8000f2e:	6013      	str	r3, [r2, #0]
}
 8000f30:	bf00      	nop
 8000f32:	46bd      	mov	sp, r7
 8000f34:	f85d 7b04 	ldr.w	r7, [sp], #4
 8000f38:	4770      	bx	lr
 8000f3a:	bf00      	nop
 8000f3c:	20000008 	.word	0x20000008
 8000f40:	20000118 	.word	0x20000118

08000f44 <HAL_GetTick>:
  * @note This function is declared as __weak to be overwritten in case of other 
  *       implementations in user file.
  * @retval tick value
  */
__weak uint32_t HAL_GetTick(void)
{
 8000f44:	b480      	push	{r7}
 8000f46:	af00      	add	r7, sp, #0
  return uwTick;
 8000f48:	4b03      	ldr	r3, [pc, #12]	; (8000f58 <HAL_GetTick+0x14>)
 8000f4a:	681b      	ldr	r3, [r3, #0]
}
 8000f4c:	4618      	mov	r0, r3
 8000f4e:	46bd      	mov	sp, r7
 8000f50:	f85d 7b04 	ldr.w	r7, [sp], #4
 8000f54:	4770      	bx	lr
 8000f56:	bf00      	nop
 8000f58:	20000118 	.word	0x20000118

08000f5c <HAL_Delay>:
  *       implementations in user file.
  * @param Delay specifies the delay time length, in milliseconds.
  * @retval None
  */
__weak void HAL_Delay(uint32_t Delay)
{
 8000f5c:	b580      	push	{r7, lr}
 8000f5e:	b084      	sub	sp, #16
 8000f60:	af00      	add	r7, sp, #0
 8000f62:	6078      	str	r0, [r7, #4]
  uint32_t tickstart = HAL_GetTick();
 8000f64:	f7ff ffee 	bl	8000f44 <HAL_GetTick>
 8000f68:	60b8      	str	r0, [r7, #8]
  uint32_t wait = Delay;
 8000f6a:	687b      	ldr	r3, [r7, #4]
 8000f6c:	60fb      	str	r3, [r7, #12]

  /* Add a freq to guarantee minimum wait */
  if (wait < HAL_MAX_DELAY)
 8000f6e:	68fb      	ldr	r3, [r7, #12]
 8000f70:	f1b3 3fff 	cmp.w	r3, #4294967295
 8000f74:	d005      	beq.n	8000f82 <HAL_Delay+0x26>
  {
    wait += (uint32_t)(uwTickFreq);
 8000f76:	4b0a      	ldr	r3, [pc, #40]	; (8000fa0 <HAL_Delay+0x44>)
 8000f78:	781b      	ldrb	r3, [r3, #0]
 8000f7a:	461a      	mov	r2, r3
 8000f7c:	68fb      	ldr	r3, [r7, #12]
 8000f7e:	4413      	add	r3, r2
 8000f80:	60fb      	str	r3, [r7, #12]
  }

  while((HAL_GetTick() - tickstart) < wait)
 8000f82:	bf00      	nop
 8000f84:	f7ff ffde 	bl	8000f44 <HAL_GetTick>
 8000f88:	4602      	mov	r2, r0
 8000f8a:	68bb      	ldr	r3, [r7, #8]
 8000f8c:	1ad3      	subs	r3, r2, r3
 8000f8e:	68fa      	ldr	r2, [r7, #12]
 8000f90:	429a      	cmp	r2, r3
 8000f92:	d8f7      	bhi.n	8000f84 <HAL_Delay+0x28>
  {
  }
}
 8000f94:	bf00      	nop
 8000f96:	bf00      	nop
 8000f98:	3710      	adds	r7, #16
 8000f9a:	46bd      	mov	sp, r7
 8000f9c:	bd80      	pop	{r7, pc}
 8000f9e:	bf00      	nop
 8000fa0:	20000008 	.word	0x20000008

08000fa4 <__NVIC_SetPriorityGrouping>:
           In case of a conflict between priority grouping and available
           priority bits (__NVIC_PRIO_BITS), the smallest possible priority group is set.
  \param [in]      PriorityGroup  Priority grouping field.
 */
__STATIC_INLINE void __NVIC_SetPriorityGrouping(uint32_t PriorityGroup)
{
 8000fa4:	b480      	push	{r7}
 8000fa6:	b085      	sub	sp, #20
 8000fa8:	af00      	add	r7, sp, #0
 8000faa:	6078      	str	r0, [r7, #4]
  uint32_t reg_value;
  uint32_t PriorityGroupTmp = (PriorityGroup & (uint32_t)0x07UL);             /* only values 0..7 are used          */
 8000fac:	687b      	ldr	r3, [r7, #4]
 8000fae:	f003 0307 	and.w	r3, r3, #7
 8000fb2:	60fb      	str	r3, [r7, #12]

  reg_value  =  SCB->AIRCR;                                                   /* read old register configuration    */
 8000fb4:	4b0c      	ldr	r3, [pc, #48]	; (8000fe8 <__NVIC_SetPriorityGrouping+0x44>)
 8000fb6:	68db      	ldr	r3, [r3, #12]
 8000fb8:	60bb      	str	r3, [r7, #8]
  reg_value &= ~((uint32_t)(SCB_AIRCR_VECTKEY_Msk | SCB_AIRCR_PRIGROUP_Msk)); /* clear bits to change               */
 8000fba:	68ba      	ldr	r2, [r7, #8]
 8000fbc:	f64f 03ff 	movw	r3, #63743	; 0xf8ff
 8000fc0:	4013      	ands	r3, r2
 8000fc2:	60bb      	str	r3, [r7, #8]
  reg_value  =  (reg_value                                   |
                ((uint32_t)0x5FAUL << SCB_AIRCR_VECTKEY_Pos) |
                (PriorityGroupTmp << SCB_AIRCR_PRIGROUP_Pos)  );              /* Insert write key and priority group */
 8000fc4:	68fb      	ldr	r3, [r7, #12]
 8000fc6:	021a      	lsls	r2, r3, #8
                ((uint32_t)0x5FAUL << SCB_AIRCR_VECTKEY_Pos) |
 8000fc8:	68bb      	ldr	r3, [r7, #8]
 8000fca:	4313      	orrs	r3, r2
  reg_value  =  (reg_value                                   |
 8000fcc:	f043 63bf 	orr.w	r3, r3, #100139008	; 0x5f80000
 8000fd0:	f443 3300 	orr.w	r3, r3, #131072	; 0x20000
 8000fd4:	60bb      	str	r3, [r7, #8]
  SCB->AIRCR =  reg_value;
 8000fd6:	4a04      	ldr	r2, [pc, #16]	; (8000fe8 <__NVIC_SetPriorityGrouping+0x44>)
 8000fd8:	68bb      	ldr	r3, [r7, #8]
 8000fda:	60d3      	str	r3, [r2, #12]
}
 8000fdc:	bf00      	nop
 8000fde:	3714      	adds	r7, #20
 8000fe0:	46bd      	mov	sp, r7
 8000fe2:	f85d 7b04 	ldr.w	r7, [sp], #4
 8000fe6:	4770      	bx	lr
 8000fe8:	e000ed00 	.word	0xe000ed00

08000fec <__NVIC_GetPriorityGrouping>:
  \brief   Get Priority Grouping
  \details Reads the priority grouping field from the NVIC Interrupt Controller.
  \return                Priority grouping field (SCB->AIRCR [10:8] PRIGROUP field).
 */
__STATIC_INLINE uint32_t __NVIC_GetPriorityGrouping(void)
{
 8000fec:	b480      	push	{r7}
 8000fee:	af00      	add	r7, sp, #0
  return ((uint32_t)((SCB->AIRCR & SCB_AIRCR_PRIGROUP_Msk) >> SCB_AIRCR_PRIGROUP_Pos));
 8000ff0:	4b04      	ldr	r3, [pc, #16]	; (8001004 <__NVIC_GetPriorityGrouping+0x18>)
 8000ff2:	68db      	ldr	r3, [r3, #12]
 8000ff4:	0a1b      	lsrs	r3, r3, #8
 8000ff6:	f003 0307 	and.w	r3, r3, #7
}
 8000ffa:	4618      	mov	r0, r3
 8000ffc:	46bd      	mov	sp, r7
 8000ffe:	f85d 7b04 	ldr.w	r7, [sp], #4
 8001002:	4770      	bx	lr
 8001004:	e000ed00 	.word	0xe000ed00

08001008 <__NVIC_SetPriority>:
  \param [in]      IRQn  Interrupt number.
  \param [in]  priority  Priority to set.
  \note    The priority cannot be set for every processor exception.
 */
__STATIC_INLINE void __NVIC_SetPriority(IRQn_Type IRQn, uint32_t priority)
{
 8001008:	b480      	push	{r7}
 800100a:	b083      	sub	sp, #12
 800100c:	af00      	add	r7, sp, #0
 800100e:	4603      	mov	r3, r0
 8001010:	6039      	str	r1, [r7, #0]
 8001012:	71fb      	strb	r3, [r7, #7]
  if ((int32_t)(IRQn) >= 0)
 8001014:	f997 3007 	ldrsb.w	r3, [r7, #7]
 8001018:	2b00      	cmp	r3, #0
 800101a:	db0a      	blt.n	8001032 <__NVIC_SetPriority+0x2a>
  {
    NVIC->IP[((uint32_t)IRQn)]               = (uint8_t)((priority << (8U - __NVIC_PRIO_BITS)) & (uint32_t)0xFFUL);
 800101c:	683b      	ldr	r3, [r7, #0]
 800101e:	b2da      	uxtb	r2, r3
 8001020:	490c      	ldr	r1, [pc, #48]	; (8001054 <__NVIC_SetPriority+0x4c>)
 8001022:	f997 3007 	ldrsb.w	r3, [r7, #7]
 8001026:	0112      	lsls	r2, r2, #4
 8001028:	b2d2      	uxtb	r2, r2
 800102a:	440b      	add	r3, r1
 800102c:	f883 2300 	strb.w	r2, [r3, #768]	; 0x300
  }
  else
  {
    SCB->SHP[(((uint32_t)IRQn) & 0xFUL)-4UL] = (uint8_t)((priority << (8U - __NVIC_PRIO_BITS)) & (uint32_t)0xFFUL);
  }
}
 8001030:	e00a      	b.n	8001048 <__NVIC_SetPriority+0x40>
    SCB->SHP[(((uint32_t)IRQn) & 0xFUL)-4UL] = (uint8_t)((priority << (8U - __NVIC_PRIO_BITS)) & (uint32_t)0xFFUL);
 8001032:	683b      	ldr	r3, [r7, #0]
 8001034:	b2da      	uxtb	r2, r3
 8001036:	4908      	ldr	r1, [pc, #32]	; (8001058 <__NVIC_SetPriority+0x50>)
 8001038:	79fb      	ldrb	r3, [r7, #7]
 800103a:	f003 030f 	and.w	r3, r3, #15
 800103e:	3b04      	subs	r3, #4
 8001040:	0112      	lsls	r2, r2, #4
 8001042:	b2d2      	uxtb	r2, r2
 8001044:	440b      	add	r3, r1
 8001046:	761a      	strb	r2, [r3, #24]
}
 8001048:	bf00      	nop
 800104a:	370c      	adds	r7, #12
 800104c:	46bd      	mov	sp, r7
 800104e:	f85d 7b04 	ldr.w	r7, [sp], #4
 8001052:	4770      	bx	lr
 8001054:	e000e100 	.word	0xe000e100
 8001058:	e000ed00 	.word	0xe000ed00

0800105c <NVIC_EncodePriority>:
  \param [in]   PreemptPriority  Preemptive priority value (starting from 0).
  \param [in]       SubPriority  Subpriority value (starting from 0).
  \return                        Encoded priority. Value can be used in the function \ref NVIC_SetPriority().
 */
__STATIC_INLINE uint32_t NVIC_EncodePriority (uint32_t PriorityGroup, uint32_t PreemptPriority, uint32_t SubPriority)
{
 800105c:	b480      	push	{r7}
 800105e:	b089      	sub	sp, #36	; 0x24
 8001060:	af00      	add	r7, sp, #0
 8001062:	60f8      	str	r0, [r7, #12]
 8001064:	60b9      	str	r1, [r7, #8]
 8001066:	607a      	str	r2, [r7, #4]
  uint32_t PriorityGroupTmp = (PriorityGroup & (uint32_t)0x07UL);   /* only values 0..7 are used          */
 8001068:	68fb      	ldr	r3, [r7, #12]
 800106a:	f003 0307 	and.w	r3, r3, #7
 800106e:	61fb      	str	r3, [r7, #28]
  uint32_t PreemptPriorityBits;
  uint32_t SubPriorityBits;

  PreemptPriorityBits = ((7UL - PriorityGroupTmp) > (uint32_t)(__NVIC_PRIO_BITS)) ? (uint32_t)(__NVIC_PRIO_BITS) : (uint32_t)(7UL - PriorityGroupTmp);
 8001070:	69fb      	ldr	r3, [r7, #28]
 8001072:	f1c3 0307 	rsb	r3, r3, #7
 8001076:	2b04      	cmp	r3, #4
 8001078:	bf28      	it	cs
 800107a:	2304      	movcs	r3, #4
 800107c:	61bb      	str	r3, [r7, #24]
  SubPriorityBits     = ((PriorityGroupTmp + (uint32_t)(__NVIC_PRIO_BITS)) < (uint32_t)7UL) ? (uint32_t)0UL : (uint32_t)((PriorityGroupTmp - 7UL) + (uint32_t)(__NVIC_PRIO_BITS));
 800107e:	69fb      	ldr	r3, [r7, #28]
 8001080:	3304      	adds	r3, #4
 8001082:	2b06      	cmp	r3, #6
 8001084:	d902      	bls.n	800108c <NVIC_EncodePriority+0x30>
 8001086:	69fb      	ldr	r3, [r7, #28]
 8001088:	3b03      	subs	r3, #3
 800108a:	e000      	b.n	800108e <NVIC_EncodePriority+0x32>
 800108c:	2300      	movs	r3, #0
 800108e:	617b      	str	r3, [r7, #20]

  return (
           ((PreemptPriority & (uint32_t)((1UL << (PreemptPriorityBits)) - 1UL)) << SubPriorityBits) |
 8001090:	f04f 32ff 	mov.w	r2, #4294967295
 8001094:	69bb      	ldr	r3, [r7, #24]
 8001096:	fa02 f303 	lsl.w	r3, r2, r3
 800109a:	43da      	mvns	r2, r3
 800109c:	68bb      	ldr	r3, [r7, #8]
 800109e:	401a      	ands	r2, r3
 80010a0:	697b      	ldr	r3, [r7, #20]
 80010a2:	409a      	lsls	r2, r3
           ((SubPriority     & (uint32_t)((1UL << (SubPriorityBits    )) - 1UL)))
 80010a4:	f04f 31ff 	mov.w	r1, #4294967295
 80010a8:	697b      	ldr	r3, [r7, #20]
 80010aa:	fa01 f303 	lsl.w	r3, r1, r3
 80010ae:	43d9      	mvns	r1, r3
 80010b0:	687b      	ldr	r3, [r7, #4]
 80010b2:	400b      	ands	r3, r1
           ((PreemptPriority & (uint32_t)((1UL << (PreemptPriorityBits)) - 1UL)) << SubPriorityBits) |
 80010b4:	4313      	orrs	r3, r2
         );
}
 80010b6:	4618      	mov	r0, r3
 80010b8:	3724      	adds	r7, #36	; 0x24
 80010ba:	46bd      	mov	sp, r7
 80010bc:	f85d 7b04 	ldr.w	r7, [sp], #4
 80010c0:	4770      	bx	lr
	...

080010c4 <SysTick_Config>:
  \note    When the variable <b>__Vendor_SysTickConfig</b> is set to 1, then the
           function <b>SysTick_Config</b> is not included. In this case, the file <b><i>device</i>.h</b>
           must contain a vendor-specific implementation of this function.
 */
__STATIC_INLINE uint32_t SysTick_Config(uint32_t ticks)
{
 80010c4:	b580      	push	{r7, lr}
 80010c6:	b082      	sub	sp, #8
 80010c8:	af00      	add	r7, sp, #0
 80010ca:	6078      	str	r0, [r7, #4]
  if ((ticks - 1UL) > SysTick_LOAD_RELOAD_Msk)
 80010cc:	687b      	ldr	r3, [r7, #4]
 80010ce:	3b01      	subs	r3, #1
 80010d0:	f1b3 7f80 	cmp.w	r3, #16777216	; 0x1000000
 80010d4:	d301      	bcc.n	80010da <SysTick_Config+0x16>
  {
    return (1UL);                                                   /* Reload value impossible */
 80010d6:	2301      	movs	r3, #1
 80010d8:	e00f      	b.n	80010fa <SysTick_Config+0x36>
  }

  SysTick->LOAD  = (uint32_t)(ticks - 1UL);                         /* set reload register */
 80010da:	4a0a      	ldr	r2, [pc, #40]	; (8001104 <SysTick_Config+0x40>)
 80010dc:	687b      	ldr	r3, [r7, #4]
 80010de:	3b01      	subs	r3, #1
 80010e0:	6053      	str	r3, [r2, #4]
  NVIC_SetPriority (SysTick_IRQn, (1UL << __NVIC_PRIO_BITS) - 1UL); /* set Priority for Systick Interrupt */
 80010e2:	210f      	movs	r1, #15
 80010e4:	f04f 30ff 	mov.w	r0, #4294967295
 80010e8:	f7ff ff8e 	bl	8001008 <__NVIC_SetPriority>
  SysTick->VAL   = 0UL;                                             /* Load the SysTick Counter Value */
 80010ec:	4b05      	ldr	r3, [pc, #20]	; (8001104 <SysTick_Config+0x40>)
 80010ee:	2200      	movs	r2, #0
 80010f0:	609a      	str	r2, [r3, #8]
  SysTick->CTRL  = SysTick_CTRL_CLKSOURCE_Msk |
 80010f2:	4b04      	ldr	r3, [pc, #16]	; (8001104 <SysTick_Config+0x40>)
 80010f4:	2207      	movs	r2, #7
 80010f6:	601a      	str	r2, [r3, #0]
                   SysTick_CTRL_TICKINT_Msk   |
                   SysTick_CTRL_ENABLE_Msk;                         /* Enable SysTick IRQ and SysTick Timer */
  return (0UL);                                                     /* Function successful */
 80010f8:	2300      	movs	r3, #0
}
 80010fa:	4618      	mov	r0, r3
 80010fc:	3708      	adds	r7, #8
 80010fe:	46bd      	mov	sp, r7
 8001100:	bd80      	pop	{r7, pc}
 8001102:	bf00      	nop
 8001104:	e000e010 	.word	0xe000e010

08001108 <HAL_NVIC_SetPriorityGrouping>:
  * @note   When the NVIC_PriorityGroup_0 is selected, IRQ preemption is no more possible. 
  *         The pending IRQ priority will be managed only by the subpriority. 
  * @retval None
  */
void HAL_NVIC_SetPriorityGrouping(uint32_t PriorityGroup)
{
 8001108:	b580      	push	{r7, lr}
 800110a:	b082      	sub	sp, #8
 800110c:	af00      	add	r7, sp, #0
 800110e:	6078      	str	r0, [r7, #4]
  /* Check the parameters */
  assert_param(IS_NVIC_PRIORITY_GROUP(PriorityGroup));
  
  /* Set the PRIGROUP[10:8] bits according to the PriorityGroup parameter value */
  NVIC_SetPriorityGrouping(PriorityGroup);
 8001110:	6878      	ldr	r0, [r7, #4]
 8001112:	f7ff ff47 	bl	8000fa4 <__NVIC_SetPriorityGrouping>
}
 8001116:	bf00      	nop
 8001118:	3708      	adds	r7, #8
 800111a:	46bd      	mov	sp, r7
 800111c:	bd80      	pop	{r7, pc}

0800111e <HAL_NVIC_SetPriority>:
  *         This parameter can be a value between 0 and 15
  *         A lower priority value indicates a higher priority.          
  * @retval None
  */
void HAL_NVIC_SetPriority(IRQn_Type IRQn, uint32_t PreemptPriority, uint32_t SubPriority)
{ 
 800111e:	b580      	push	{r7, lr}
 8001120:	b086      	sub	sp, #24
 8001122:	af00      	add	r7, sp, #0
 8001124:	4603      	mov	r3, r0
 8001126:	60b9      	str	r1, [r7, #8]
 8001128:	607a      	str	r2, [r7, #4]
 800112a:	73fb      	strb	r3, [r7, #15]
  uint32_t prioritygroup = 0x00U;
 800112c:	2300      	movs	r3, #0
 800112e:	617b      	str	r3, [r7, #20]
  
  /* Check the parameters */
  assert_param(IS_NVIC_SUB_PRIORITY(SubPriority));
  assert_param(IS_NVIC_PREEMPTION_PRIORITY(PreemptPriority));
  
  prioritygroup = NVIC_GetPriorityGrouping();
 8001130:	f7ff ff5c 	bl	8000fec <__NVIC_GetPriorityGrouping>
 8001134:	6178      	str	r0, [r7, #20]
  
  NVIC_SetPriority(IRQn, NVIC_EncodePriority(prioritygroup, PreemptPriority, SubPriority));
 8001136:	687a      	ldr	r2, [r7, #4]
 8001138:	68b9      	ldr	r1, [r7, #8]
 800113a:	6978      	ldr	r0, [r7, #20]
 800113c:	f7ff ff8e 	bl	800105c <NVIC_EncodePriority>
 8001140:	4602      	mov	r2, r0
 8001142:	f997 300f 	ldrsb.w	r3, [r7, #15]
 8001146:	4611      	mov	r1, r2
 8001148:	4618      	mov	r0, r3
 800114a:	f7ff ff5d 	bl	8001008 <__NVIC_SetPriority>
}
 800114e:	bf00      	nop
 8001150:	3718      	adds	r7, #24
 8001152:	46bd      	mov	sp, r7
 8001154:	bd80      	pop	{r7, pc}

08001156 <HAL_SYSTICK_Config>:
  * @param  TicksNumb Specifies the ticks Number of ticks between two interrupts.
  * @retval status:  - 0  Function succeeded.
  *                  - 1  Function failed.
  */
uint32_t HAL_SYSTICK_Config(uint32_t TicksNumb)
{
 8001156:	b580      	push	{r7, lr}
 8001158:	b082      	sub	sp, #8
 800115a:	af00      	add	r7, sp, #0
 800115c:	6078      	str	r0, [r7, #4]
   return SysTick_Config(TicksNumb);
 800115e:	6878      	ldr	r0, [r7, #4]
 8001160:	f7ff ffb0 	bl	80010c4 <SysTick_Config>
 8001164:	4603      	mov	r3, r0
}
 8001166:	4618      	mov	r0, r3
 8001168:	3708      	adds	r7, #8
 800116a:	46bd      	mov	sp, r7
 800116c:	bd80      	pop	{r7, pc}
	...

08001170 <HAL_GPIO_Init>:
  * @param  GPIO_Init pointer to a GPIO_InitTypeDef structure that contains
  *         the configuration information for the specified GPIO peripheral.
  * @retval None
  */
void HAL_GPIO_Init(GPIO_TypeDef  *GPIOx, GPIO_InitTypeDef *GPIO_Init)
{
 8001170:	b480      	push	{r7}
 8001172:	b089      	sub	sp, #36	; 0x24
 8001174:	af00      	add	r7, sp, #0
 8001176:	6078      	str	r0, [r7, #4]
 8001178:	6039      	str	r1, [r7, #0]
  uint32_t position;
  uint32_t ioposition = 0x00U;
 800117a:	2300      	movs	r3, #0
 800117c:	617b      	str	r3, [r7, #20]
  uint32_t iocurrent = 0x00U;
 800117e:	2300      	movs	r3, #0
 8001180:	613b      	str	r3, [r7, #16]
  uint32_t temp = 0x00U;
 8001182:	2300      	movs	r3, #0
 8001184:	61bb      	str	r3, [r7, #24]
  assert_param(IS_GPIO_ALL_INSTANCE(GPIOx));
  assert_param(IS_GPIO_PIN(GPIO_Init->Pin));
  assert_param(IS_GPIO_MODE(GPIO_Init->Mode));

  /* Configure the port pins */
  for(position = 0U; position < GPIO_NUMBER; position++)
 8001186:	2300      	movs	r3, #0
 8001188:	61fb      	str	r3, [r7, #28]
 800118a:	e16b      	b.n	8001464 <HAL_GPIO_Init+0x2f4>
  {
    /* Get the IO position */
    ioposition = 0x01U << position;
 800118c:	2201      	movs	r2, #1
 800118e:	69fb      	ldr	r3, [r7, #28]
 8001190:	fa02 f303 	lsl.w	r3, r2, r3
 8001194:	617b      	str	r3, [r7, #20]
    /* Get the current IO position */
    iocurrent = (uint32_t)(GPIO_Init->Pin) & ioposition;
 8001196:	683b      	ldr	r3, [r7, #0]
 8001198:	681b      	ldr	r3, [r3, #0]
 800119a:	697a      	ldr	r2, [r7, #20]
 800119c:	4013      	ands	r3, r2
 800119e:	613b      	str	r3, [r7, #16]

    if(iocurrent == ioposition)
 80011a0:	693a      	ldr	r2, [r7, #16]
 80011a2:	697b      	ldr	r3, [r7, #20]
 80011a4:	429a      	cmp	r2, r3
 80011a6:	f040 815a 	bne.w	800145e <HAL_GPIO_Init+0x2ee>
    {
      /*--------------------- GPIO Mode Configuration ------------------------*/
      /* In case of Output or Alternate function mode selection */
      if(((GPIO_Init->Mode & GPIO_MODE) == MODE_OUTPUT) || \
 80011aa:	683b      	ldr	r3, [r7, #0]
 80011ac:	685b      	ldr	r3, [r3, #4]
 80011ae:	f003 0303 	and.w	r3, r3, #3
 80011b2:	2b01      	cmp	r3, #1
 80011b4:	d005      	beq.n	80011c2 <HAL_GPIO_Init+0x52>
          (GPIO_Init->Mode & GPIO_MODE) == MODE_AF)
 80011b6:	683b      	ldr	r3, [r7, #0]
 80011b8:	685b      	ldr	r3, [r3, #4]
 80011ba:	f003 0303 	and.w	r3, r3, #3
      if(((GPIO_Init->Mode & GPIO_MODE) == MODE_OUTPUT) || \
 80011be:	2b02      	cmp	r3, #2
 80011c0:	d130      	bne.n	8001224 <HAL_GPIO_Init+0xb4>
      {
        /* Check the Speed parameter */
        assert_param(IS_GPIO_SPEED(GPIO_Init->Speed));
        /* Configure the IO Speed */
        temp = GPIOx->OSPEEDR; 
 80011c2:	687b      	ldr	r3, [r7, #4]
 80011c4:	689b      	ldr	r3, [r3, #8]
 80011c6:	61bb      	str	r3, [r7, #24]
        temp &= ~(GPIO_OSPEEDER_OSPEEDR0 << (position * 2U));
 80011c8:	69fb      	ldr	r3, [r7, #28]
 80011ca:	005b      	lsls	r3, r3, #1
 80011cc:	2203      	movs	r2, #3
 80011ce:	fa02 f303 	lsl.w	r3, r2, r3
 80011d2:	43db      	mvns	r3, r3
 80011d4:	69ba      	ldr	r2, [r7, #24]
 80011d6:	4013      	ands	r3, r2
 80011d8:	61bb      	str	r3, [r7, #24]
        temp |= (GPIO_Init->Speed << (position * 2U));
 80011da:	683b      	ldr	r3, [r7, #0]
 80011dc:	68da      	ldr	r2, [r3, #12]
 80011de:	69fb      	ldr	r3, [r7, #28]
 80011e0:	005b      	lsls	r3, r3, #1
 80011e2:	fa02 f303 	lsl.w	r3, r2, r3
 80011e6:	69ba      	ldr	r2, [r7, #24]
 80011e8:	4313      	orrs	r3, r2
 80011ea:	61bb      	str	r3, [r7, #24]
        GPIOx->OSPEEDR = temp;
 80011ec:	687b      	ldr	r3, [r7, #4]
 80011ee:	69ba      	ldr	r2, [r7, #24]
 80011f0:	609a      	str	r2, [r3, #8]

        /* Configure the IO Output Type */
        temp = GPIOx->OTYPER;
 80011f2:	687b      	ldr	r3, [r7, #4]
 80011f4:	685b      	ldr	r3, [r3, #4]
 80011f6:	61bb      	str	r3, [r7, #24]
        temp &= ~(GPIO_OTYPER_OT_0 << position) ;
 80011f8:	2201      	movs	r2, #1
 80011fa:	69fb      	ldr	r3, [r7, #28]
 80011fc:	fa02 f303 	lsl.w	r3, r2, r3
 8001200:	43db      	mvns	r3, r3
 8001202:	69ba      	ldr	r2, [r7, #24]
 8001204:	4013      	ands	r3, r2
 8001206:	61bb      	str	r3, [r7, #24]
        temp |= (((GPIO_Init->Mode & OUTPUT_TYPE) >> OUTPUT_TYPE_Pos) << position);
 8001208:	683b      	ldr	r3, [r7, #0]
 800120a:	685b      	ldr	r3, [r3, #4]
 800120c:	091b      	lsrs	r3, r3, #4
 800120e:	f003 0201 	and.w	r2, r3, #1
 8001212:	69fb      	ldr	r3, [r7, #28]
 8001214:	fa02 f303 	lsl.w	r3, r2, r3
 8001218:	69ba      	ldr	r2, [r7, #24]
 800121a:	4313      	orrs	r3, r2
 800121c:	61bb      	str	r3, [r7, #24]
        GPIOx->OTYPER = temp;
 800121e:	687b      	ldr	r3, [r7, #4]
 8001220:	69ba      	ldr	r2, [r7, #24]
 8001222:	605a      	str	r2, [r3, #4]
       }

      if((GPIO_Init->Mode & GPIO_MODE) != MODE_ANALOG)
 8001224:	683b      	ldr	r3, [r7, #0]
 8001226:	685b      	ldr	r3, [r3, #4]
 8001228:	f003 0303 	and.w	r3, r3, #3
 800122c:	2b03      	cmp	r3, #3
 800122e:	d017      	beq.n	8001260 <HAL_GPIO_Init+0xf0>
      {
        /* Check the parameters */
        assert_param(IS_GPIO_PULL(GPIO_Init->Pull));
        
        /* Activate the Pull-up or Pull down resistor for the current IO */
        temp = GPIOx->PUPDR;
 8001230:	687b      	ldr	r3, [r7, #4]
 8001232:	68db      	ldr	r3, [r3, #12]
 8001234:	61bb      	str	r3, [r7, #24]
        temp &= ~(GPIO_PUPDR_PUPDR0 << (position * 2U));
 8001236:	69fb      	ldr	r3, [r7, #28]
 8001238:	005b      	lsls	r3, r3, #1
 800123a:	2203      	movs	r2, #3
 800123c:	fa02 f303 	lsl.w	r3, r2, r3
 8001240:	43db      	mvns	r3, r3
 8001242:	69ba      	ldr	r2, [r7, #24]
 8001244:	4013      	ands	r3, r2
 8001246:	61bb      	str	r3, [r7, #24]
        temp |= ((GPIO_Init->Pull) << (position * 2U));
 8001248:	683b      	ldr	r3, [r7, #0]
 800124a:	689a      	ldr	r2, [r3, #8]
 800124c:	69fb      	ldr	r3, [r7, #28]
 800124e:	005b      	lsls	r3, r3, #1
 8001250:	fa02 f303 	lsl.w	r3, r2, r3
 8001254:	69ba      	ldr	r2, [r7, #24]
 8001256:	4313      	orrs	r3, r2
 8001258:	61bb      	str	r3, [r7, #24]
        GPIOx->PUPDR = temp;
 800125a:	687b      	ldr	r3, [r7, #4]
 800125c:	69ba      	ldr	r2, [r7, #24]
 800125e:	60da      	str	r2, [r3, #12]
      }

      /* In case of Alternate function mode selection */
      if((GPIO_Init->Mode & GPIO_MODE) == MODE_AF)
 8001260:	683b      	ldr	r3, [r7, #0]
 8001262:	685b      	ldr	r3, [r3, #4]
 8001264:	f003 0303 	and.w	r3, r3, #3
 8001268:	2b02      	cmp	r3, #2
 800126a:	d123      	bne.n	80012b4 <HAL_GPIO_Init+0x144>
      {
        /* Check the Alternate function parameter */
        assert_param(IS_GPIO_AF(GPIO_Init->Alternate));
        /* Configure Alternate function mapped with the current IO */
        temp = GPIOx->AFR[position >> 3U];
 800126c:	69fb      	ldr	r3, [r7, #28]
 800126e:	08da      	lsrs	r2, r3, #3
 8001270:	687b      	ldr	r3, [r7, #4]
 8001272:	3208      	adds	r2, #8
 8001274:	f853 3022 	ldr.w	r3, [r3, r2, lsl #2]
 8001278:	61bb      	str	r3, [r7, #24]
        temp &= ~(0xFU << ((uint32_t)(position & 0x07U) * 4U)) ;
 800127a:	69fb      	ldr	r3, [r7, #28]
 800127c:	f003 0307 	and.w	r3, r3, #7
 8001280:	009b      	lsls	r3, r3, #2
 8001282:	220f      	movs	r2, #15
 8001284:	fa02 f303 	lsl.w	r3, r2, r3
 8001288:	43db      	mvns	r3, r3
 800128a:	69ba      	ldr	r2, [r7, #24]
 800128c:	4013      	ands	r3, r2
 800128e:	61bb      	str	r3, [r7, #24]
        temp |= ((uint32_t)(GPIO_Init->Alternate) << (((uint32_t)position & 0x07U) * 4U));
 8001290:	683b      	ldr	r3, [r7, #0]
 8001292:	691a      	ldr	r2, [r3, #16]
 8001294:	69fb      	ldr	r3, [r7, #28]
 8001296:	f003 0307 	and.w	r3, r3, #7
 800129a:	009b      	lsls	r3, r3, #2
 800129c:	fa02 f303 	lsl.w	r3, r2, r3
 80012a0:	69ba      	ldr	r2, [r7, #24]
 80012a2:	4313      	orrs	r3, r2
 80012a4:	61bb      	str	r3, [r7, #24]
        GPIOx->AFR[position >> 3U] = temp;
 80012a6:	69fb      	ldr	r3, [r7, #28]
 80012a8:	08da      	lsrs	r2, r3, #3
 80012aa:	687b      	ldr	r3, [r7, #4]
 80012ac:	3208      	adds	r2, #8
 80012ae:	69b9      	ldr	r1, [r7, #24]
 80012b0:	f843 1022 	str.w	r1, [r3, r2, lsl #2]
      }

      /* Configure IO Direction mode (Input, Output, Alternate or Analog) */
      temp = GPIOx->MODER;
 80012b4:	687b      	ldr	r3, [r7, #4]
 80012b6:	681b      	ldr	r3, [r3, #0]
 80012b8:	61bb      	str	r3, [r7, #24]
      temp &= ~(GPIO_MODER_MODER0 << (position * 2U));
 80012ba:	69fb      	ldr	r3, [r7, #28]
 80012bc:	005b      	lsls	r3, r3, #1
 80012be:	2203      	movs	r2, #3
 80012c0:	fa02 f303 	lsl.w	r3, r2, r3
 80012c4:	43db      	mvns	r3, r3
 80012c6:	69ba      	ldr	r2, [r7, #24]
 80012c8:	4013      	ands	r3, r2
 80012ca:	61bb      	str	r3, [r7, #24]
      temp |= ((GPIO_Init->Mode & GPIO_MODE) << (position * 2U));
 80012cc:	683b      	ldr	r3, [r7, #0]
 80012ce:	685b      	ldr	r3, [r3, #4]
 80012d0:	f003 0203 	and.w	r2, r3, #3
 80012d4:	69fb      	ldr	r3, [r7, #28]
 80012d6:	005b      	lsls	r3, r3, #1
 80012d8:	fa02 f303 	lsl.w	r3, r2, r3
 80012dc:	69ba      	ldr	r2, [r7, #24]
 80012de:	4313      	orrs	r3, r2
 80012e0:	61bb      	str	r3, [r7, #24]
      GPIOx->MODER = temp;
 80012e2:	687b      	ldr	r3, [r7, #4]
 80012e4:	69ba      	ldr	r2, [r7, #24]
 80012e6:	601a      	str	r2, [r3, #0]

      /*--------------------- EXTI Mode Configuration ------------------------*/
      /* Configure the External Interrupt or event for the current IO */
      if((GPIO_Init->Mode & EXTI_MODE) != 0x00U)
 80012e8:	683b      	ldr	r3, [r7, #0]
 80012ea:	685b      	ldr	r3, [r3, #4]
 80012ec:	f403 3340 	and.w	r3, r3, #196608	; 0x30000
 80012f0:	2b00      	cmp	r3, #0
 80012f2:	f000 80b4 	beq.w	800145e <HAL_GPIO_Init+0x2ee>
      {
        /* Enable SYSCFG Clock */
        __HAL_RCC_SYSCFG_CLK_ENABLE();
 80012f6:	2300      	movs	r3, #0
 80012f8:	60fb      	str	r3, [r7, #12]
 80012fa:	4b60      	ldr	r3, [pc, #384]	; (800147c <HAL_GPIO_Init+0x30c>)
 80012fc:	6c5b      	ldr	r3, [r3, #68]	; 0x44
 80012fe:	4a5f      	ldr	r2, [pc, #380]	; (800147c <HAL_GPIO_Init+0x30c>)
 8001300:	f443 4380 	orr.w	r3, r3, #16384	; 0x4000
 8001304:	6453      	str	r3, [r2, #68]	; 0x44
 8001306:	4b5d      	ldr	r3, [pc, #372]	; (800147c <HAL_GPIO_Init+0x30c>)
 8001308:	6c5b      	ldr	r3, [r3, #68]	; 0x44
 800130a:	f403 4380 	and.w	r3, r3, #16384	; 0x4000
 800130e:	60fb      	str	r3, [r7, #12]
 8001310:	68fb      	ldr	r3, [r7, #12]

        temp = SYSCFG->EXTICR[position >> 2U];
 8001312:	4a5b      	ldr	r2, [pc, #364]	; (8001480 <HAL_GPIO_Init+0x310>)
 8001314:	69fb      	ldr	r3, [r7, #28]
 8001316:	089b      	lsrs	r3, r3, #2
 8001318:	3302      	adds	r3, #2
 800131a:	f852 3023 	ldr.w	r3, [r2, r3, lsl #2]
 800131e:	61bb      	str	r3, [r7, #24]
        temp &= ~(0x0FU << (4U * (position & 0x03U)));
 8001320:	69fb      	ldr	r3, [r7, #28]
 8001322:	f003 0303 	and.w	r3, r3, #3
 8001326:	009b      	lsls	r3, r3, #2
 8001328:	220f      	movs	r2, #15
 800132a:	fa02 f303 	lsl.w	r3, r2, r3
 800132e:	43db      	mvns	r3, r3
 8001330:	69ba      	ldr	r2, [r7, #24]
 8001332:	4013      	ands	r3, r2
 8001334:	61bb      	str	r3, [r7, #24]
        temp |= ((uint32_t)(GPIO_GET_INDEX(GPIOx)) << (4U * (position & 0x03U)));
 8001336:	687b      	ldr	r3, [r7, #4]
 8001338:	4a52      	ldr	r2, [pc, #328]	; (8001484 <HAL_GPIO_Init+0x314>)
 800133a:	4293      	cmp	r3, r2
 800133c:	d02b      	beq.n	8001396 <HAL_GPIO_Init+0x226>
 800133e:	687b      	ldr	r3, [r7, #4]
 8001340:	4a51      	ldr	r2, [pc, #324]	; (8001488 <HAL_GPIO_Init+0x318>)
 8001342:	4293      	cmp	r3, r2
 8001344:	d025      	beq.n	8001392 <HAL_GPIO_Init+0x222>
 8001346:	687b      	ldr	r3, [r7, #4]
 8001348:	4a50      	ldr	r2, [pc, #320]	; (800148c <HAL_GPIO_Init+0x31c>)
 800134a:	4293      	cmp	r3, r2
 800134c:	d01f      	beq.n	800138e <HAL_GPIO_Init+0x21e>
 800134e:	687b      	ldr	r3, [r7, #4]
 8001350:	4a4f      	ldr	r2, [pc, #316]	; (8001490 <HAL_GPIO_Init+0x320>)
 8001352:	4293      	cmp	r3, r2
 8001354:	d019      	beq.n	800138a <HAL_GPIO_Init+0x21a>
 8001356:	687b      	ldr	r3, [r7, #4]
 8001358:	4a4e      	ldr	r2, [pc, #312]	; (8001494 <HAL_GPIO_Init+0x324>)
 800135a:	4293      	cmp	r3, r2
 800135c:	d013      	beq.n	8001386 <HAL_GPIO_Init+0x216>
 800135e:	687b      	ldr	r3, [r7, #4]
 8001360:	4a4d      	ldr	r2, [pc, #308]	; (8001498 <HAL_GPIO_Init+0x328>)
 8001362:	4293      	cmp	r3, r2
 8001364:	d00d      	beq.n	8001382 <HAL_GPIO_Init+0x212>
 8001366:	687b      	ldr	r3, [r7, #4]
 8001368:	4a4c      	ldr	r2, [pc, #304]	; (800149c <HAL_GPIO_Init+0x32c>)
 800136a:	4293      	cmp	r3, r2
 800136c:	d007      	beq.n	800137e <HAL_GPIO_Init+0x20e>
 800136e:	687b      	ldr	r3, [r7, #4]
 8001370:	4a4b      	ldr	r2, [pc, #300]	; (80014a0 <HAL_GPIO_Init+0x330>)
 8001372:	4293      	cmp	r3, r2
 8001374:	d101      	bne.n	800137a <HAL_GPIO_Init+0x20a>
 8001376:	2307      	movs	r3, #7
 8001378:	e00e      	b.n	8001398 <HAL_GPIO_Init+0x228>
 800137a:	2308      	movs	r3, #8
 800137c:	e00c      	b.n	8001398 <HAL_GPIO_Init+0x228>
 800137e:	2306      	movs	r3, #6
 8001380:	e00a      	b.n	8001398 <HAL_GPIO_Init+0x228>
 8001382:	2305      	movs	r3, #5
 8001384:	e008      	b.n	8001398 <HAL_GPIO_Init+0x228>
 8001386:	2304      	movs	r3, #4
 8001388:	e006      	b.n	8001398 <HAL_GPIO_Init+0x228>
 800138a:	2303      	movs	r3, #3
 800138c:	e004      	b.n	8001398 <HAL_GPIO_Init+0x228>
 800138e:	2302      	movs	r3, #2
 8001390:	e002      	b.n	8001398 <HAL_GPIO_Init+0x228>
 8001392:	2301      	movs	r3, #1
 8001394:	e000      	b.n	8001398 <HAL_GPIO_Init+0x228>
 8001396:	2300      	movs	r3, #0
 8001398:	69fa      	ldr	r2, [r7, #28]
 800139a:	f002 0203 	and.w	r2, r2, #3
 800139e:	0092      	lsls	r2, r2, #2
 80013a0:	4093      	lsls	r3, r2
 80013a2:	69ba      	ldr	r2, [r7, #24]
 80013a4:	4313      	orrs	r3, r2
 80013a6:	61bb      	str	r3, [r7, #24]
        SYSCFG->EXTICR[position >> 2U] = temp;
 80013a8:	4935      	ldr	r1, [pc, #212]	; (8001480 <HAL_GPIO_Init+0x310>)
 80013aa:	69fb      	ldr	r3, [r7, #28]
 80013ac:	089b      	lsrs	r3, r3, #2
 80013ae:	3302      	adds	r3, #2
 80013b0:	69ba      	ldr	r2, [r7, #24]
 80013b2:	f841 2023 	str.w	r2, [r1, r3, lsl #2]

        /* Clear Rising Falling edge configuration */
        temp = EXTI->RTSR;
 80013b6:	4b3b      	ldr	r3, [pc, #236]	; (80014a4 <HAL_GPIO_Init+0x334>)
 80013b8:	689b      	ldr	r3, [r3, #8]
 80013ba:	61bb      	str	r3, [r7, #24]
        temp &= ~((uint32_t)iocurrent);
 80013bc:	693b      	ldr	r3, [r7, #16]
 80013be:	43db      	mvns	r3, r3
 80013c0:	69ba      	ldr	r2, [r7, #24]
 80013c2:	4013      	ands	r3, r2
 80013c4:	61bb      	str	r3, [r7, #24]
        if((GPIO_Init->Mode & TRIGGER_RISING) != 0x00U)
 80013c6:	683b      	ldr	r3, [r7, #0]
 80013c8:	685b      	ldr	r3, [r3, #4]
 80013ca:	f403 1380 	and.w	r3, r3, #1048576	; 0x100000
 80013ce:	2b00      	cmp	r3, #0
 80013d0:	d003      	beq.n	80013da <HAL_GPIO_Init+0x26a>
        {
          temp |= iocurrent;
 80013d2:	69ba      	ldr	r2, [r7, #24]
 80013d4:	693b      	ldr	r3, [r7, #16]
 80013d6:	4313      	orrs	r3, r2
 80013d8:	61bb      	str	r3, [r7, #24]
        }
        EXTI->RTSR = temp;
 80013da:	4a32      	ldr	r2, [pc, #200]	; (80014a4 <HAL_GPIO_Init+0x334>)
 80013dc:	69bb      	ldr	r3, [r7, #24]
 80013de:	6093      	str	r3, [r2, #8]

        temp = EXTI->FTSR;
 80013e0:	4b30      	ldr	r3, [pc, #192]	; (80014a4 <HAL_GPIO_Init+0x334>)
 80013e2:	68db      	ldr	r3, [r3, #12]
 80013e4:	61bb      	str	r3, [r7, #24]
        temp &= ~((uint32_t)iocurrent);
 80013e6:	693b      	ldr	r3, [r7, #16]
 80013e8:	43db      	mvns	r3, r3
 80013ea:	69ba      	ldr	r2, [r7, #24]
 80013ec:	4013      	ands	r3, r2
 80013ee:	61bb      	str	r3, [r7, #24]
        if((GPIO_Init->Mode & TRIGGER_FALLING) != 0x00U)
 80013f0:	683b      	ldr	r3, [r7, #0]
 80013f2:	685b      	ldr	r3, [r3, #4]
 80013f4:	f403 1300 	and.w	r3, r3, #2097152	; 0x200000
 80013f8:	2b00      	cmp	r3, #0
 80013fa:	d003      	beq.n	8001404 <HAL_GPIO_Init+0x294>
        {
          temp |= iocurrent;
 80013fc:	69ba      	ldr	r2, [r7, #24]
 80013fe:	693b      	ldr	r3, [r7, #16]
 8001400:	4313      	orrs	r3, r2
 8001402:	61bb      	str	r3, [r7, #24]
        }
        EXTI->FTSR = temp;
 8001404:	4a27      	ldr	r2, [pc, #156]	; (80014a4 <HAL_GPIO_Init+0x334>)
 8001406:	69bb      	ldr	r3, [r7, #24]
 8001408:	60d3      	str	r3, [r2, #12]

        temp = EXTI->EMR;
 800140a:	4b26      	ldr	r3, [pc, #152]	; (80014a4 <HAL_GPIO_Init+0x334>)
 800140c:	685b      	ldr	r3, [r3, #4]
 800140e:	61bb      	str	r3, [r7, #24]
        temp &= ~((uint32_t)iocurrent);
 8001410:	693b      	ldr	r3, [r7, #16]
 8001412:	43db      	mvns	r3, r3
 8001414:	69ba      	ldr	r2, [r7, #24]
 8001416:	4013      	ands	r3, r2
 8001418:	61bb      	str	r3, [r7, #24]
        if((GPIO_Init->Mode & EXTI_EVT) != 0x00U)
 800141a:	683b      	ldr	r3, [r7, #0]
 800141c:	685b      	ldr	r3, [r3, #4]
 800141e:	f403 3300 	and.w	r3, r3, #131072	; 0x20000
 8001422:	2b00      	cmp	r3, #0
 8001424:	d003      	beq.n	800142e <HAL_GPIO_Init+0x2be>
        {
          temp |= iocurrent;
 8001426:	69ba      	ldr	r2, [r7, #24]
 8001428:	693b      	ldr	r3, [r7, #16]
 800142a:	4313      	orrs	r3, r2
 800142c:	61bb      	str	r3, [r7, #24]
        }
        EXTI->EMR = temp;
 800142e:	4a1d      	ldr	r2, [pc, #116]	; (80014a4 <HAL_GPIO_Init+0x334>)
 8001430:	69bb      	ldr	r3, [r7, #24]
 8001432:	6053      	str	r3, [r2, #4]

        /* Clear EXTI line configuration */
        temp = EXTI->IMR;
 8001434:	4b1b      	ldr	r3, [pc, #108]	; (80014a4 <HAL_GPIO_Init+0x334>)
 8001436:	681b      	ldr	r3, [r3, #0]
 8001438:	61bb      	str	r3, [r7, #24]
        temp &= ~((uint32_t)iocurrent);
 800143a:	693b      	ldr	r3, [r7, #16]
 800143c:	43db      	mvns	r3, r3
 800143e:	69ba      	ldr	r2, [r7, #24]
 8001440:	4013      	ands	r3, r2
 8001442:	61bb      	str	r3, [r7, #24]
        if((GPIO_Init->Mode & EXTI_IT) != 0x00U)
 8001444:	683b      	ldr	r3, [r7, #0]
 8001446:	685b      	ldr	r3, [r3, #4]
 8001448:	f403 3380 	and.w	r3, r3, #65536	; 0x10000
 800144c:	2b00      	cmp	r3, #0
 800144e:	d003      	beq.n	8001458 <HAL_GPIO_Init+0x2e8>
        {
          temp |= iocurrent;
 8001450:	69ba      	ldr	r2, [r7, #24]
 8001452:	693b      	ldr	r3, [r7, #16]
 8001454:	4313      	orrs	r3, r2
 8001456:	61bb      	str	r3, [r7, #24]
        }
        EXTI->IMR = temp;
 8001458:	4a12      	ldr	r2, [pc, #72]	; (80014a4 <HAL_GPIO_Init+0x334>)
 800145a:	69bb      	ldr	r3, [r7, #24]
 800145c:	6013      	str	r3, [r2, #0]
  for(position = 0U; position < GPIO_NUMBER; position++)
 800145e:	69fb      	ldr	r3, [r7, #28]
 8001460:	3301      	adds	r3, #1
 8001462:	61fb      	str	r3, [r7, #28]
 8001464:	69fb      	ldr	r3, [r7, #28]
 8001466:	2b0f      	cmp	r3, #15
 8001468:	f67f ae90 	bls.w	800118c <HAL_GPIO_Init+0x1c>
      }
    }
  }
}
 800146c:	bf00      	nop
 800146e:	bf00      	nop
 8001470:	3724      	adds	r7, #36	; 0x24
 8001472:	46bd      	mov	sp, r7
 8001474:	f85d 7b04 	ldr.w	r7, [sp], #4
 8001478:	4770      	bx	lr
 800147a:	bf00      	nop
 800147c:	40023800 	.word	0x40023800
 8001480:	40013800 	.word	0x40013800
 8001484:	40020000 	.word	0x40020000
 8001488:	40020400 	.word	0x40020400
 800148c:	40020800 	.word	0x40020800
 8001490:	40020c00 	.word	0x40020c00
 8001494:	40021000 	.word	0x40021000
 8001498:	40021400 	.word	0x40021400
 800149c:	40021800 	.word	0x40021800
 80014a0:	40021c00 	.word	0x40021c00
 80014a4:	40013c00 	.word	0x40013c00

080014a8 <HAL_GPIO_WritePin>:
  *            @arg GPIO_PIN_RESET: to clear the port pin
  *            @arg GPIO_PIN_SET: to set the port pin
  * @retval None
  */
void HAL_GPIO_WritePin(GPIO_TypeDef* GPIOx, uint16_t GPIO_Pin, GPIO_PinState PinState)
{
 80014a8:	b480      	push	{r7}
 80014aa:	b083      	sub	sp, #12
 80014ac:	af00      	add	r7, sp, #0
 80014ae:	6078      	str	r0, [r7, #4]
 80014b0:	460b      	mov	r3, r1
 80014b2:	807b      	strh	r3, [r7, #2]
 80014b4:	4613      	mov	r3, r2
 80014b6:	707b      	strb	r3, [r7, #1]
  /* Check the parameters */
  assert_param(IS_GPIO_PIN(GPIO_Pin));
  assert_param(IS_GPIO_PIN_ACTION(PinState));

  if(PinState != GPIO_PIN_RESET)
 80014b8:	787b      	ldrb	r3, [r7, #1]
 80014ba:	2b00      	cmp	r3, #0
 80014bc:	d003      	beq.n	80014c6 <HAL_GPIO_WritePin+0x1e>
  {
    GPIOx->BSRR = GPIO_Pin;
 80014be:	887a      	ldrh	r2, [r7, #2]
 80014c0:	687b      	ldr	r3, [r7, #4]
 80014c2:	619a      	str	r2, [r3, #24]
  }
  else
  {
    GPIOx->BSRR = (uint32_t)GPIO_Pin << 16U;
  }
}
 80014c4:	e003      	b.n	80014ce <HAL_GPIO_WritePin+0x26>
    GPIOx->BSRR = (uint32_t)GPIO_Pin << 16U;
 80014c6:	887b      	ldrh	r3, [r7, #2]
 80014c8:	041a      	lsls	r2, r3, #16
 80014ca:	687b      	ldr	r3, [r7, #4]
 80014cc:	619a      	str	r2, [r3, #24]
}
 80014ce:	bf00      	nop
 80014d0:	370c      	adds	r7, #12
 80014d2:	46bd      	mov	sp, r7
 80014d4:	f85d 7b04 	ldr.w	r7, [sp], #4
 80014d8:	4770      	bx	lr
	...

080014dc <HAL_RCC_OscConfig>:
  *         supported by this API. User should request a transition to HSE Off
  *         first and then HSE On or HSE Bypass.
  * @retval HAL status
  */
__weak HAL_StatusTypeDef HAL_RCC_OscConfig(RCC_OscInitTypeDef  *RCC_OscInitStruct)
{
 80014dc:	b580      	push	{r7, lr}
 80014de:	b086      	sub	sp, #24
 80014e0:	af00      	add	r7, sp, #0
 80014e2:	6078      	str	r0, [r7, #4]
  uint32_t tickstart, pll_config;

  /* Check Null pointer */
  if(RCC_OscInitStruct == NULL)
 80014e4:	687b      	ldr	r3, [r7, #4]
 80014e6:	2b00      	cmp	r3, #0
 80014e8:	d101      	bne.n	80014ee <HAL_RCC_OscConfig+0x12>
  {
    return HAL_ERROR;
 80014ea:	2301      	movs	r3, #1
 80014ec:	e267      	b.n	80019be <HAL_RCC_OscConfig+0x4e2>
  }

  /* Check the parameters */
  assert_param(IS_RCC_OSCILLATORTYPE(RCC_OscInitStruct->OscillatorType));
  /*------------------------------- HSE Configuration ------------------------*/
  if(((RCC_OscInitStruct->OscillatorType) & RCC_OSCILLATORTYPE_HSE) == RCC_OSCILLATORTYPE_HSE)
 80014ee:	687b      	ldr	r3, [r7, #4]
 80014f0:	681b      	ldr	r3, [r3, #0]
 80014f2:	f003 0301 	and.w	r3, r3, #1
 80014f6:	2b00      	cmp	r3, #0
 80014f8:	d075      	beq.n	80015e6 <HAL_RCC_OscConfig+0x10a>
  {
    /* Check the parameters */
    assert_param(IS_RCC_HSE(RCC_OscInitStruct->HSEState));
    /* When the HSE is used as system clock or clock source for PLL in these cases HSE will not disabled */
    if((__HAL_RCC_GET_SYSCLK_SOURCE() == RCC_CFGR_SWS_HSE) ||\
 80014fa:	4b88      	ldr	r3, [pc, #544]	; (800171c <HAL_RCC_OscConfig+0x240>)
 80014fc:	689b      	ldr	r3, [r3, #8]
 80014fe:	f003 030c 	and.w	r3, r3, #12
 8001502:	2b04      	cmp	r3, #4
 8001504:	d00c      	beq.n	8001520 <HAL_RCC_OscConfig+0x44>
      ((__HAL_RCC_GET_SYSCLK_SOURCE() == RCC_CFGR_SWS_PLL) && ((RCC->PLLCFGR & RCC_PLLCFGR_PLLSRC) == RCC_PLLCFGR_PLLSRC_HSE)))
 8001506:	4b85      	ldr	r3, [pc, #532]	; (800171c <HAL_RCC_OscConfig+0x240>)
 8001508:	689b      	ldr	r3, [r3, #8]
 800150a:	f003 030c 	and.w	r3, r3, #12
    if((__HAL_RCC_GET_SYSCLK_SOURCE() == RCC_CFGR_SWS_HSE) ||\
 800150e:	2b08      	cmp	r3, #8
 8001510:	d112      	bne.n	8001538 <HAL_RCC_OscConfig+0x5c>
      ((__HAL_RCC_GET_SYSCLK_SOURCE() == RCC_CFGR_SWS_PLL) && ((RCC->PLLCFGR & RCC_PLLCFGR_PLLSRC) == RCC_PLLCFGR_PLLSRC_HSE)))
 8001512:	4b82      	ldr	r3, [pc, #520]	; (800171c <HAL_RCC_OscConfig+0x240>)
 8001514:	685b      	ldr	r3, [r3, #4]
 8001516:	f403 0380 	and.w	r3, r3, #4194304	; 0x400000
 800151a:	f5b3 0f80 	cmp.w	r3, #4194304	; 0x400000
 800151e:	d10b      	bne.n	8001538 <HAL_RCC_OscConfig+0x5c>
    {
      if((__HAL_RCC_GET_FLAG(RCC_FLAG_HSERDY) != RESET) && (RCC_OscInitStruct->HSEState == RCC_HSE_OFF))
 8001520:	4b7e      	ldr	r3, [pc, #504]	; (800171c <HAL_RCC_OscConfig+0x240>)
 8001522:	681b      	ldr	r3, [r3, #0]
 8001524:	f403 3300 	and.w	r3, r3, #131072	; 0x20000
 8001528:	2b00      	cmp	r3, #0
 800152a:	d05b      	beq.n	80015e4 <HAL_RCC_OscConfig+0x108>
 800152c:	687b      	ldr	r3, [r7, #4]
 800152e:	685b      	ldr	r3, [r3, #4]
 8001530:	2b00      	cmp	r3, #0
 8001532:	d157      	bne.n	80015e4 <HAL_RCC_OscConfig+0x108>
      {
        return HAL_ERROR;
 8001534:	2301      	movs	r3, #1
 8001536:	e242      	b.n	80019be <HAL_RCC_OscConfig+0x4e2>
      }
    }
    else
    {
      /* Set the new HSE configuration ---------------------------------------*/
      __HAL_RCC_HSE_CONFIG(RCC_OscInitStruct->HSEState);
 8001538:	687b      	ldr	r3, [r7, #4]
 800153a:	685b      	ldr	r3, [r3, #4]
 800153c:	f5b3 3f80 	cmp.w	r3, #65536	; 0x10000
 8001540:	d106      	bne.n	8001550 <HAL_RCC_OscConfig+0x74>
 8001542:	4b76      	ldr	r3, [pc, #472]	; (800171c <HAL_RCC_OscConfig+0x240>)
 8001544:	681b      	ldr	r3, [r3, #0]
 8001546:	4a75      	ldr	r2, [pc, #468]	; (800171c <HAL_RCC_OscConfig+0x240>)
 8001548:	f443 3380 	orr.w	r3, r3, #65536	; 0x10000
 800154c:	6013      	str	r3, [r2, #0]
 800154e:	e01d      	b.n	800158c <HAL_RCC_OscConfig+0xb0>
 8001550:	687b      	ldr	r3, [r7, #4]
 8001552:	685b      	ldr	r3, [r3, #4]
 8001554:	f5b3 2fa0 	cmp.w	r3, #327680	; 0x50000
 8001558:	d10c      	bne.n	8001574 <HAL_RCC_OscConfig+0x98>
 800155a:	4b70      	ldr	r3, [pc, #448]	; (800171c <HAL_RCC_OscConfig+0x240>)
 800155c:	681b      	ldr	r3, [r3, #0]
 800155e:	4a6f      	ldr	r2, [pc, #444]	; (800171c <HAL_RCC_OscConfig+0x240>)
 8001560:	f443 2380 	orr.w	r3, r3, #262144	; 0x40000
 8001564:	6013      	str	r3, [r2, #0]
 8001566:	4b6d      	ldr	r3, [pc, #436]	; (800171c <HAL_RCC_OscConfig+0x240>)
 8001568:	681b      	ldr	r3, [r3, #0]
 800156a:	4a6c      	ldr	r2, [pc, #432]	; (800171c <HAL_RCC_OscConfig+0x240>)
 800156c:	f443 3380 	orr.w	r3, r3, #65536	; 0x10000
 8001570:	6013      	str	r3, [r2, #0]
 8001572:	e00b      	b.n	800158c <HAL_RCC_OscConfig+0xb0>
 8001574:	4b69      	ldr	r3, [pc, #420]	; (800171c <HAL_RCC_OscConfig+0x240>)
 8001576:	681b      	ldr	r3, [r3, #0]
 8001578:	4a68      	ldr	r2, [pc, #416]	; (800171c <HAL_RCC_OscConfig+0x240>)
 800157a:	f423 3380 	bic.w	r3, r3, #65536	; 0x10000
 800157e:	6013      	str	r3, [r2, #0]
 8001580:	4b66      	ldr	r3, [pc, #408]	; (800171c <HAL_RCC_OscConfig+0x240>)
 8001582:	681b      	ldr	r3, [r3, #0]
 8001584:	4a65      	ldr	r2, [pc, #404]	; (800171c <HAL_RCC_OscConfig+0x240>)
 8001586:	f423 2380 	bic.w	r3, r3, #262144	; 0x40000
 800158a:	6013      	str	r3, [r2, #0]

      /* Check the HSE State */
      if((RCC_OscInitStruct->HSEState) != RCC_HSE_OFF)
 800158c:	687b      	ldr	r3, [r7, #4]
 800158e:	685b      	ldr	r3, [r3, #4]
 8001590:	2b00      	cmp	r3, #0
 8001592:	d013      	beq.n	80015bc <HAL_RCC_OscConfig+0xe0>
      {
        /* Get Start Tick */
        tickstart = HAL_GetTick();
 8001594:	f7ff fcd6 	bl	8000f44 <HAL_GetTick>
 8001598:	6138      	str	r0, [r7, #16]

        /* Wait till HSE is ready */
        while(__HAL_RCC_GET_FLAG(RCC_FLAG_HSERDY) == RESET)
 800159a:	e008      	b.n	80015ae <HAL_RCC_OscConfig+0xd2>
        {
          if((HAL_GetTick() - tickstart ) > HSE_TIMEOUT_VALUE)
 800159c:	f7ff fcd2 	bl	8000f44 <HAL_GetTick>
 80015a0:	4602      	mov	r2, r0
 80015a2:	693b      	ldr	r3, [r7, #16]
 80015a4:	1ad3      	subs	r3, r2, r3
 80015a6:	2b64      	cmp	r3, #100	; 0x64
 80015a8:	d901      	bls.n	80015ae <HAL_RCC_OscConfig+0xd2>
          {
            return HAL_TIMEOUT;
 80015aa:	2303      	movs	r3, #3
 80015ac:	e207      	b.n	80019be <HAL_RCC_OscConfig+0x4e2>
        while(__HAL_RCC_GET_FLAG(RCC_FLAG_HSERDY) == RESET)
 80015ae:	4b5b      	ldr	r3, [pc, #364]	; (800171c <HAL_RCC_OscConfig+0x240>)
 80015b0:	681b      	ldr	r3, [r3, #0]
 80015b2:	f403 3300 	and.w	r3, r3, #131072	; 0x20000
 80015b6:	2b00      	cmp	r3, #0
 80015b8:	d0f0      	beq.n	800159c <HAL_RCC_OscConfig+0xc0>
 80015ba:	e014      	b.n	80015e6 <HAL_RCC_OscConfig+0x10a>
        }
      }
      else
      {
        /* Get Start Tick */
        tickstart = HAL_GetTick();
 80015bc:	f7ff fcc2 	bl	8000f44 <HAL_GetTick>
 80015c0:	6138      	str	r0, [r7, #16]

        /* Wait till HSE is bypassed or disabled */
        while(__HAL_RCC_GET_FLAG(RCC_FLAG_HSERDY) != RESET)
 80015c2:	e008      	b.n	80015d6 <HAL_RCC_OscConfig+0xfa>
        {
          if((HAL_GetTick() - tickstart ) > HSE_TIMEOUT_VALUE)
 80015c4:	f7ff fcbe 	bl	8000f44 <HAL_GetTick>
 80015c8:	4602      	mov	r2, r0
 80015ca:	693b      	ldr	r3, [r7, #16]
 80015cc:	1ad3      	subs	r3, r2, r3
 80015ce:	2b64      	cmp	r3, #100	; 0x64
 80015d0:	d901      	bls.n	80015d6 <HAL_RCC_OscConfig+0xfa>
          {
            return HAL_TIMEOUT;
 80015d2:	2303      	movs	r3, #3
 80015d4:	e1f3      	b.n	80019be <HAL_RCC_OscConfig+0x4e2>
        while(__HAL_RCC_GET_FLAG(RCC_FLAG_HSERDY) != RESET)
 80015d6:	4b51      	ldr	r3, [pc, #324]	; (800171c <HAL_RCC_OscConfig+0x240>)
 80015d8:	681b      	ldr	r3, [r3, #0]
 80015da:	f403 3300 	and.w	r3, r3, #131072	; 0x20000
 80015de:	2b00      	cmp	r3, #0
 80015e0:	d1f0      	bne.n	80015c4 <HAL_RCC_OscConfig+0xe8>
 80015e2:	e000      	b.n	80015e6 <HAL_RCC_OscConfig+0x10a>
      if((__HAL_RCC_GET_FLAG(RCC_FLAG_HSERDY) != RESET) && (RCC_OscInitStruct->HSEState == RCC_HSE_OFF))
 80015e4:	bf00      	nop
        }
      }
    }
  }
  /*----------------------------- HSI Configuration --------------------------*/
  if(((RCC_OscInitStruct->OscillatorType) & RCC_OSCILLATORTYPE_HSI) == RCC_OSCILLATORTYPE_HSI)
 80015e6:	687b      	ldr	r3, [r7, #4]
 80015e8:	681b      	ldr	r3, [r3, #0]
 80015ea:	f003 0302 	and.w	r3, r3, #2
 80015ee:	2b00      	cmp	r3, #0
 80015f0:	d063      	beq.n	80016ba <HAL_RCC_OscConfig+0x1de>
    /* Check the parameters */
    assert_param(IS_RCC_HSI(RCC_OscInitStruct->HSIState));
    assert_param(IS_RCC_CALIBRATION_VALUE(RCC_OscInitStruct->HSICalibrationValue));

    /* Check if HSI is used as system clock or as PLL source when PLL is selected as system clock */
    if((__HAL_RCC_GET_SYSCLK_SOURCE() == RCC_CFGR_SWS_HSI) ||\
 80015f2:	4b4a      	ldr	r3, [pc, #296]	; (800171c <HAL_RCC_OscConfig+0x240>)
 80015f4:	689b      	ldr	r3, [r3, #8]
 80015f6:	f003 030c 	and.w	r3, r3, #12
 80015fa:	2b00      	cmp	r3, #0
 80015fc:	d00b      	beq.n	8001616 <HAL_RCC_OscConfig+0x13a>
      ((__HAL_RCC_GET_SYSCLK_SOURCE() == RCC_CFGR_SWS_PLL) && ((RCC->PLLCFGR & RCC_PLLCFGR_PLLSRC) == RCC_PLLCFGR_PLLSRC_HSI)))
 80015fe:	4b47      	ldr	r3, [pc, #284]	; (800171c <HAL_RCC_OscConfig+0x240>)
 8001600:	689b      	ldr	r3, [r3, #8]
 8001602:	f003 030c 	and.w	r3, r3, #12
    if((__HAL_RCC_GET_SYSCLK_SOURCE() == RCC_CFGR_SWS_HSI) ||\
 8001606:	2b08      	cmp	r3, #8
 8001608:	d11c      	bne.n	8001644 <HAL_RCC_OscConfig+0x168>
      ((__HAL_RCC_GET_SYSCLK_SOURCE() == RCC_CFGR_SWS_PLL) && ((RCC->PLLCFGR & RCC_PLLCFGR_PLLSRC) == RCC_PLLCFGR_PLLSRC_HSI)))
 800160a:	4b44      	ldr	r3, [pc, #272]	; (800171c <HAL_RCC_OscConfig+0x240>)
 800160c:	685b      	ldr	r3, [r3, #4]
 800160e:	f403 0380 	and.w	r3, r3, #4194304	; 0x400000
 8001612:	2b00      	cmp	r3, #0
 8001614:	d116      	bne.n	8001644 <HAL_RCC_OscConfig+0x168>
    {
      /* When HSI is used as system clock it will not disabled */
      if((__HAL_RCC_GET_FLAG(RCC_FLAG_HSIRDY) != RESET) && (RCC_OscInitStruct->HSIState != RCC_HSI_ON))
 8001616:	4b41      	ldr	r3, [pc, #260]	; (800171c <HAL_RCC_OscConfig+0x240>)
 8001618:	681b      	ldr	r3, [r3, #0]
 800161a:	f003 0302 	and.w	r3, r3, #2
 800161e:	2b00      	cmp	r3, #0
 8001620:	d005      	beq.n	800162e <HAL_RCC_OscConfig+0x152>
 8001622:	687b      	ldr	r3, [r7, #4]
 8001624:	68db      	ldr	r3, [r3, #12]
 8001626:	2b01      	cmp	r3, #1
 8001628:	d001      	beq.n	800162e <HAL_RCC_OscConfig+0x152>
      {
        return HAL_ERROR;
 800162a:	2301      	movs	r3, #1
 800162c:	e1c7      	b.n	80019be <HAL_RCC_OscConfig+0x4e2>
      }
      /* Otherwise, just the calibration is allowed */
      else
      {
        /* Adjusts the Internal High Speed oscillator (HSI) calibration value.*/
        __HAL_RCC_HSI_CALIBRATIONVALUE_ADJUST(RCC_OscInitStruct->HSICalibrationValue);
 800162e:	4b3b      	ldr	r3, [pc, #236]	; (800171c <HAL_RCC_OscConfig+0x240>)
 8001630:	681b      	ldr	r3, [r3, #0]
 8001632:	f023 02f8 	bic.w	r2, r3, #248	; 0xf8
 8001636:	687b      	ldr	r3, [r7, #4]
 8001638:	691b      	ldr	r3, [r3, #16]
 800163a:	00db      	lsls	r3, r3, #3
 800163c:	4937      	ldr	r1, [pc, #220]	; (800171c <HAL_RCC_OscConfig+0x240>)
 800163e:	4313      	orrs	r3, r2
 8001640:	600b      	str	r3, [r1, #0]
      if((__HAL_RCC_GET_FLAG(RCC_FLAG_HSIRDY) != RESET) && (RCC_OscInitStruct->HSIState != RCC_HSI_ON))
 8001642:	e03a      	b.n	80016ba <HAL_RCC_OscConfig+0x1de>
      }
    }
    else
    {
      /* Check the HSI State */
      if((RCC_OscInitStruct->HSIState)!= RCC_HSI_OFF)
 8001644:	687b      	ldr	r3, [r7, #4]
 8001646:	68db      	ldr	r3, [r3, #12]
 8001648:	2b00      	cmp	r3, #0
 800164a:	d020      	beq.n	800168e <HAL_RCC_OscConfig+0x1b2>
      {
        /* Enable the Internal High Speed oscillator (HSI). */
        __HAL_RCC_HSI_ENABLE();
 800164c:	4b34      	ldr	r3, [pc, #208]	; (8001720 <HAL_RCC_OscConfig+0x244>)
 800164e:	2201      	movs	r2, #1
 8001650:	601a      	str	r2, [r3, #0]

        /* Get Start Tick*/
        tickstart = HAL_GetTick();
 8001652:	f7ff fc77 	bl	8000f44 <HAL_GetTick>
 8001656:	6138      	str	r0, [r7, #16]

        /* Wait till HSI is ready */
        while(__HAL_RCC_GET_FLAG(RCC_FLAG_HSIRDY) == RESET)
 8001658:	e008      	b.n	800166c <HAL_RCC_OscConfig+0x190>
        {
          if((HAL_GetTick() - tickstart ) > HSI_TIMEOUT_VALUE)
 800165a:	f7ff fc73 	bl	8000f44 <HAL_GetTick>
 800165e:	4602      	mov	r2, r0
 8001660:	693b      	ldr	r3, [r7, #16]
 8001662:	1ad3      	subs	r3, r2, r3
 8001664:	2b02      	cmp	r3, #2
 8001666:	d901      	bls.n	800166c <HAL_RCC_OscConfig+0x190>
          {
            return HAL_TIMEOUT;
 8001668:	2303      	movs	r3, #3
 800166a:	e1a8      	b.n	80019be <HAL_RCC_OscConfig+0x4e2>
        while(__HAL_RCC_GET_FLAG(RCC_FLAG_HSIRDY) == RESET)
 800166c:	4b2b      	ldr	r3, [pc, #172]	; (800171c <HAL_RCC_OscConfig+0x240>)
 800166e:	681b      	ldr	r3, [r3, #0]
 8001670:	f003 0302 	and.w	r3, r3, #2
 8001674:	2b00      	cmp	r3, #0
 8001676:	d0f0      	beq.n	800165a <HAL_RCC_OscConfig+0x17e>
          }
        }

        /* Adjusts the Internal High Speed oscillator (HSI) calibration value. */
        __HAL_RCC_HSI_CALIBRATIONVALUE_ADJUST(RCC_OscInitStruct->HSICalibrationValue);
 8001678:	4b28      	ldr	r3, [pc, #160]	; (800171c <HAL_RCC_OscConfig+0x240>)
 800167a:	681b      	ldr	r3, [r3, #0]
 800167c:	f023 02f8 	bic.w	r2, r3, #248	; 0xf8
 8001680:	687b      	ldr	r3, [r7, #4]
 8001682:	691b      	ldr	r3, [r3, #16]
 8001684:	00db      	lsls	r3, r3, #3
 8001686:	4925      	ldr	r1, [pc, #148]	; (800171c <HAL_RCC_OscConfig+0x240>)
 8001688:	4313      	orrs	r3, r2
 800168a:	600b      	str	r3, [r1, #0]
 800168c:	e015      	b.n	80016ba <HAL_RCC_OscConfig+0x1de>
      }
      else
      {
        /* Disable the Internal High Speed oscillator (HSI). */
        __HAL_RCC_HSI_DISABLE();
 800168e:	4b24      	ldr	r3, [pc, #144]	; (8001720 <HAL_RCC_OscConfig+0x244>)
 8001690:	2200      	movs	r2, #0
 8001692:	601a      	str	r2, [r3, #0]

        /* Get Start Tick*/
        tickstart = HAL_GetTick();
 8001694:	f7ff fc56 	bl	8000f44 <HAL_GetTick>
 8001698:	6138      	str	r0, [r7, #16]

        /* Wait till HSI is ready */
        while(__HAL_RCC_GET_FLAG(RCC_FLAG_HSIRDY) != RESET)
 800169a:	e008      	b.n	80016ae <HAL_RCC_OscConfig+0x1d2>
        {
          if((HAL_GetTick() - tickstart ) > HSI_TIMEOUT_VALUE)
 800169c:	f7ff fc52 	bl	8000f44 <HAL_GetTick>
 80016a0:	4602      	mov	r2, r0
 80016a2:	693b      	ldr	r3, [r7, #16]
 80016a4:	1ad3      	subs	r3, r2, r3
 80016a6:	2b02      	cmp	r3, #2
 80016a8:	d901      	bls.n	80016ae <HAL_RCC_OscConfig+0x1d2>
          {
            return HAL_TIMEOUT;
 80016aa:	2303      	movs	r3, #3
 80016ac:	e187      	b.n	80019be <HAL_RCC_OscConfig+0x4e2>
        while(__HAL_RCC_GET_FLAG(RCC_FLAG_HSIRDY) != RESET)
 80016ae:	4b1b      	ldr	r3, [pc, #108]	; (800171c <HAL_RCC_OscConfig+0x240>)
 80016b0:	681b      	ldr	r3, [r3, #0]
 80016b2:	f003 0302 	and.w	r3, r3, #2
 80016b6:	2b00      	cmp	r3, #0
 80016b8:	d1f0      	bne.n	800169c <HAL_RCC_OscConfig+0x1c0>
        }
      }
    }
  }
  /*------------------------------ LSI Configuration -------------------------*/
  if(((RCC_OscInitStruct->OscillatorType) & RCC_OSCILLATORTYPE_LSI) == RCC_OSCILLATORTYPE_LSI)
 80016ba:	687b      	ldr	r3, [r7, #4]
 80016bc:	681b      	ldr	r3, [r3, #0]
 80016be:	f003 0308 	and.w	r3, r3, #8
 80016c2:	2b00      	cmp	r3, #0
 80016c4:	d036      	beq.n	8001734 <HAL_RCC_OscConfig+0x258>
  {
    /* Check the parameters */
    assert_param(IS_RCC_LSI(RCC_OscInitStruct->LSIState));

    /* Check the LSI State */
    if((RCC_OscInitStruct->LSIState)!= RCC_LSI_OFF)
 80016c6:	687b      	ldr	r3, [r7, #4]
 80016c8:	695b      	ldr	r3, [r3, #20]
 80016ca:	2b00      	cmp	r3, #0
 80016cc:	d016      	beq.n	80016fc <HAL_RCC_OscConfig+0x220>
    {
      /* Enable the Internal Low Speed oscillator (LSI). */
      __HAL_RCC_LSI_ENABLE();
 80016ce:	4b15      	ldr	r3, [pc, #84]	; (8001724 <HAL_RCC_OscConfig+0x248>)
 80016d0:	2201      	movs	r2, #1
 80016d2:	601a      	str	r2, [r3, #0]

      /* Get Start Tick*/
      tickstart = HAL_GetTick();
 80016d4:	f7ff fc36 	bl	8000f44 <HAL_GetTick>
 80016d8:	6138      	str	r0, [r7, #16]

      /* Wait till LSI is ready */
      while(__HAL_RCC_GET_FLAG(RCC_FLAG_LSIRDY) == RESET)
 80016da:	e008      	b.n	80016ee <HAL_RCC_OscConfig+0x212>
      {
        if((HAL_GetTick() - tickstart ) > LSI_TIMEOUT_VALUE)
 80016dc:	f7ff fc32 	bl	8000f44 <HAL_GetTick>
 80016e0:	4602      	mov	r2, r0
 80016e2:	693b      	ldr	r3, [r7, #16]
 80016e4:	1ad3      	subs	r3, r2, r3
 80016e6:	2b02      	cmp	r3, #2
 80016e8:	d901      	bls.n	80016ee <HAL_RCC_OscConfig+0x212>
        {
          return HAL_TIMEOUT;
 80016ea:	2303      	movs	r3, #3
 80016ec:	e167      	b.n	80019be <HAL_RCC_OscConfig+0x4e2>
      while(__HAL_RCC_GET_FLAG(RCC_FLAG_LSIRDY) == RESET)
 80016ee:	4b0b      	ldr	r3, [pc, #44]	; (800171c <HAL_RCC_OscConfig+0x240>)
 80016f0:	6f5b      	ldr	r3, [r3, #116]	; 0x74
 80016f2:	f003 0302 	and.w	r3, r3, #2
 80016f6:	2b00      	cmp	r3, #0
 80016f8:	d0f0      	beq.n	80016dc <HAL_RCC_OscConfig+0x200>
 80016fa:	e01b      	b.n	8001734 <HAL_RCC_OscConfig+0x258>
      }
    }
    else
    {
      /* Disable the Internal Low Speed oscillator (LSI). */
      __HAL_RCC_LSI_DISABLE();
 80016fc:	4b09      	ldr	r3, [pc, #36]	; (8001724 <HAL_RCC_OscConfig+0x248>)
 80016fe:	2200      	movs	r2, #0
 8001700:	601a      	str	r2, [r3, #0]

      /* Get Start Tick */
      tickstart = HAL_GetTick();
 8001702:	f7ff fc1f 	bl	8000f44 <HAL_GetTick>
 8001706:	6138      	str	r0, [r7, #16]

      /* Wait till LSI is ready */
      while(__HAL_RCC_GET_FLAG(RCC_FLAG_LSIRDY) != RESET)
 8001708:	e00e      	b.n	8001728 <HAL_RCC_OscConfig+0x24c>
      {
        if((HAL_GetTick() - tickstart ) > LSI_TIMEOUT_VALUE)
 800170a:	f7ff fc1b 	bl	8000f44 <HAL_GetTick>
 800170e:	4602      	mov	r2, r0
 8001710:	693b      	ldr	r3, [r7, #16]
 8001712:	1ad3      	subs	r3, r2, r3
 8001714:	2b02      	cmp	r3, #2
 8001716:	d907      	bls.n	8001728 <HAL_RCC_OscConfig+0x24c>
        {
          return HAL_TIMEOUT;
 8001718:	2303      	movs	r3, #3
 800171a:	e150      	b.n	80019be <HAL_RCC_OscConfig+0x4e2>
 800171c:	40023800 	.word	0x40023800
 8001720:	42470000 	.word	0x42470000
 8001724:	42470e80 	.word	0x42470e80
      while(__HAL_RCC_GET_FLAG(RCC_FLAG_LSIRDY) != RESET)
 8001728:	4b88      	ldr	r3, [pc, #544]	; (800194c <HAL_RCC_OscConfig+0x470>)
 800172a:	6f5b      	ldr	r3, [r3, #116]	; 0x74
 800172c:	f003 0302 	and.w	r3, r3, #2
 8001730:	2b00      	cmp	r3, #0
 8001732:	d1ea      	bne.n	800170a <HAL_RCC_OscConfig+0x22e>
        }
      }
    }
  }
  /*------------------------------ LSE Configuration -------------------------*/
  if(((RCC_OscInitStruct->OscillatorType) & RCC_OSCILLATORTYPE_LSE) == RCC_OSCILLATORTYPE_LSE)
 8001734:	687b      	ldr	r3, [r7, #4]
 8001736:	681b      	ldr	r3, [r3, #0]
 8001738:	f003 0304 	and.w	r3, r3, #4
 800173c:	2b00      	cmp	r3, #0
 800173e:	f000 8097 	beq.w	8001870 <HAL_RCC_OscConfig+0x394>
  {
    FlagStatus       pwrclkchanged = RESET;
 8001742:	2300      	movs	r3, #0
 8001744:	75fb      	strb	r3, [r7, #23]
    /* Check the parameters */
    assert_param(IS_RCC_LSE(RCC_OscInitStruct->LSEState));

    /* Update LSE configuration in Backup Domain control register    */
    /* Requires to enable write access to Backup Domain of necessary */
    if(__HAL_RCC_PWR_IS_CLK_DISABLED())
 8001746:	4b81      	ldr	r3, [pc, #516]	; (800194c <HAL_RCC_OscConfig+0x470>)
 8001748:	6c1b      	ldr	r3, [r3, #64]	; 0x40
 800174a:	f003 5380 	and.w	r3, r3, #268435456	; 0x10000000
 800174e:	2b00      	cmp	r3, #0
 8001750:	d10f      	bne.n	8001772 <HAL_RCC_OscConfig+0x296>
    {
      __HAL_RCC_PWR_CLK_ENABLE();
 8001752:	2300      	movs	r3, #0
 8001754:	60bb      	str	r3, [r7, #8]
 8001756:	4b7d      	ldr	r3, [pc, #500]	; (800194c <HAL_RCC_OscConfig+0x470>)
 8001758:	6c1b      	ldr	r3, [r3, #64]	; 0x40
 800175a:	4a7c      	ldr	r2, [pc, #496]	; (800194c <HAL_RCC_OscConfig+0x470>)
 800175c:	f043 5380 	orr.w	r3, r3, #268435456	; 0x10000000
 8001760:	6413      	str	r3, [r2, #64]	; 0x40
 8001762:	4b7a      	ldr	r3, [pc, #488]	; (800194c <HAL_RCC_OscConfig+0x470>)
 8001764:	6c1b      	ldr	r3, [r3, #64]	; 0x40
 8001766:	f003 5380 	and.w	r3, r3, #268435456	; 0x10000000
 800176a:	60bb      	str	r3, [r7, #8]
 800176c:	68bb      	ldr	r3, [r7, #8]
      pwrclkchanged = SET;
 800176e:	2301      	movs	r3, #1
 8001770:	75fb      	strb	r3, [r7, #23]
    }

    if(HAL_IS_BIT_CLR(PWR->CR, PWR_CR_DBP))
 8001772:	4b77      	ldr	r3, [pc, #476]	; (8001950 <HAL_RCC_OscConfig+0x474>)
 8001774:	681b      	ldr	r3, [r3, #0]
 8001776:	f403 7380 	and.w	r3, r3, #256	; 0x100
 800177a:	2b00      	cmp	r3, #0
 800177c:	d118      	bne.n	80017b0 <HAL_RCC_OscConfig+0x2d4>
    {
      /* Enable write access to Backup domain */
      SET_BIT(PWR->CR, PWR_CR_DBP);
 800177e:	4b74      	ldr	r3, [pc, #464]	; (8001950 <HAL_RCC_OscConfig+0x474>)
 8001780:	681b      	ldr	r3, [r3, #0]
 8001782:	4a73      	ldr	r2, [pc, #460]	; (8001950 <HAL_RCC_OscConfig+0x474>)
 8001784:	f443 7380 	orr.w	r3, r3, #256	; 0x100
 8001788:	6013      	str	r3, [r2, #0]

      /* Wait for Backup domain Write protection disable */
      tickstart = HAL_GetTick();
 800178a:	f7ff fbdb 	bl	8000f44 <HAL_GetTick>
 800178e:	6138      	str	r0, [r7, #16]

      while(HAL_IS_BIT_CLR(PWR->CR, PWR_CR_DBP))
 8001790:	e008      	b.n	80017a4 <HAL_RCC_OscConfig+0x2c8>
      {
        if((HAL_GetTick() - tickstart) > RCC_DBP_TIMEOUT_VALUE)
 8001792:	f7ff fbd7 	bl	8000f44 <HAL_GetTick>
 8001796:	4602      	mov	r2, r0
 8001798:	693b      	ldr	r3, [r7, #16]
 800179a:	1ad3      	subs	r3, r2, r3
 800179c:	2b02      	cmp	r3, #2
 800179e:	d901      	bls.n	80017a4 <HAL_RCC_OscConfig+0x2c8>
        {
          return HAL_TIMEOUT;
 80017a0:	2303      	movs	r3, #3
 80017a2:	e10c      	b.n	80019be <HAL_RCC_OscConfig+0x4e2>
      while(HAL_IS_BIT_CLR(PWR->CR, PWR_CR_DBP))
 80017a4:	4b6a      	ldr	r3, [pc, #424]	; (8001950 <HAL_RCC_OscConfig+0x474>)
 80017a6:	681b      	ldr	r3, [r3, #0]
 80017a8:	f403 7380 	and.w	r3, r3, #256	; 0x100
 80017ac:	2b00      	cmp	r3, #0
 80017ae:	d0f0      	beq.n	8001792 <HAL_RCC_OscConfig+0x2b6>
        }
      }
    }

    /* Set the new LSE configuration -----------------------------------------*/
    __HAL_RCC_LSE_CONFIG(RCC_OscInitStruct->LSEState);
 80017b0:	687b      	ldr	r3, [r7, #4]
 80017b2:	689b      	ldr	r3, [r3, #8]
 80017b4:	2b01      	cmp	r3, #1
 80017b6:	d106      	bne.n	80017c6 <HAL_RCC_OscConfig+0x2ea>
 80017b8:	4b64      	ldr	r3, [pc, #400]	; (800194c <HAL_RCC_OscConfig+0x470>)
 80017ba:	6f1b      	ldr	r3, [r3, #112]	; 0x70
 80017bc:	4a63      	ldr	r2, [pc, #396]	; (800194c <HAL_RCC_OscConfig+0x470>)
 80017be:	f043 0301 	orr.w	r3, r3, #1
 80017c2:	6713      	str	r3, [r2, #112]	; 0x70
 80017c4:	e01c      	b.n	8001800 <HAL_RCC_OscConfig+0x324>
 80017c6:	687b      	ldr	r3, [r7, #4]
 80017c8:	689b      	ldr	r3, [r3, #8]
 80017ca:	2b05      	cmp	r3, #5
 80017cc:	d10c      	bne.n	80017e8 <HAL_RCC_OscConfig+0x30c>
 80017ce:	4b5f      	ldr	r3, [pc, #380]	; (800194c <HAL_RCC_OscConfig+0x470>)
 80017d0:	6f1b      	ldr	r3, [r3, #112]	; 0x70
 80017d2:	4a5e      	ldr	r2, [pc, #376]	; (800194c <HAL_RCC_OscConfig+0x470>)
 80017d4:	f043 0304 	orr.w	r3, r3, #4
 80017d8:	6713      	str	r3, [r2, #112]	; 0x70
 80017da:	4b5c      	ldr	r3, [pc, #368]	; (800194c <HAL_RCC_OscConfig+0x470>)
 80017dc:	6f1b      	ldr	r3, [r3, #112]	; 0x70
 80017de:	4a5b      	ldr	r2, [pc, #364]	; (800194c <HAL_RCC_OscConfig+0x470>)
 80017e0:	f043 0301 	orr.w	r3, r3, #1
 80017e4:	6713      	str	r3, [r2, #112]	; 0x70
 80017e6:	e00b      	b.n	8001800 <HAL_RCC_OscConfig+0x324>
 80017e8:	4b58      	ldr	r3, [pc, #352]	; (800194c <HAL_RCC_OscConfig+0x470>)
 80017ea:	6f1b      	ldr	r3, [r3, #112]	; 0x70
 80017ec:	4a57      	ldr	r2, [pc, #348]	; (800194c <HAL_RCC_OscConfig+0x470>)
 80017ee:	f023 0301 	bic.w	r3, r3, #1
 80017f2:	6713      	str	r3, [r2, #112]	; 0x70
 80017f4:	4b55      	ldr	r3, [pc, #340]	; (800194c <HAL_RCC_OscConfig+0x470>)
 80017f6:	6f1b      	ldr	r3, [r3, #112]	; 0x70
 80017f8:	4a54      	ldr	r2, [pc, #336]	; (800194c <HAL_RCC_OscConfig+0x470>)
 80017fa:	f023 0304 	bic.w	r3, r3, #4
 80017fe:	6713      	str	r3, [r2, #112]	; 0x70
    /* Check the LSE State */
    if((RCC_OscInitStruct->LSEState) != RCC_LSE_OFF)
 8001800:	687b      	ldr	r3, [r7, #4]
 8001802:	689b      	ldr	r3, [r3, #8]
 8001804:	2b00      	cmp	r3, #0
 8001806:	d015      	beq.n	8001834 <HAL_RCC_OscConfig+0x358>
    {
      /* Get Start Tick*/
      tickstart = HAL_GetTick();
 8001808:	f7ff fb9c 	bl	8000f44 <HAL_GetTick>
 800180c:	6138      	str	r0, [r7, #16]

      /* Wait till LSE is ready */
      while(__HAL_RCC_GET_FLAG(RCC_FLAG_LSERDY) == RESET)
 800180e:	e00a      	b.n	8001826 <HAL_RCC_OscConfig+0x34a>
      {
        if((HAL_GetTick() - tickstart ) > RCC_LSE_TIMEOUT_VALUE)
 8001810:	f7ff fb98 	bl	8000f44 <HAL_GetTick>
 8001814:	4602      	mov	r2, r0
 8001816:	693b      	ldr	r3, [r7, #16]
 8001818:	1ad3      	subs	r3, r2, r3
 800181a:	f241 3288 	movw	r2, #5000	; 0x1388
 800181e:	4293      	cmp	r3, r2
 8001820:	d901      	bls.n	8001826 <HAL_RCC_OscConfig+0x34a>
        {
          return HAL_TIMEOUT;
 8001822:	2303      	movs	r3, #3
 8001824:	e0cb      	b.n	80019be <HAL_RCC_OscConfig+0x4e2>
      while(__HAL_RCC_GET_FLAG(RCC_FLAG_LSERDY) == RESET)
 8001826:	4b49      	ldr	r3, [pc, #292]	; (800194c <HAL_RCC_OscConfig+0x470>)
 8001828:	6f1b      	ldr	r3, [r3, #112]	; 0x70
 800182a:	f003 0302 	and.w	r3, r3, #2
 800182e:	2b00      	cmp	r3, #0
 8001830:	d0ee      	beq.n	8001810 <HAL_RCC_OscConfig+0x334>
 8001832:	e014      	b.n	800185e <HAL_RCC_OscConfig+0x382>
      }
    }
    else
    {
      /* Get Start Tick */
      tickstart = HAL_GetTick();
 8001834:	f7ff fb86 	bl	8000f44 <HAL_GetTick>
 8001838:	6138      	str	r0, [r7, #16]

      /* Wait till LSE is ready */
      while(__HAL_RCC_GET_FLAG(RCC_FLAG_LSERDY) != RESET)
 800183a:	e00a      	b.n	8001852 <HAL_RCC_OscConfig+0x376>
      {
        if((HAL_GetTick() - tickstart ) > RCC_LSE_TIMEOUT_VALUE)
 800183c:	f7ff fb82 	bl	8000f44 <HAL_GetTick>
 8001840:	4602      	mov	r2, r0
 8001842:	693b      	ldr	r3, [r7, #16]
 8001844:	1ad3      	subs	r3, r2, r3
 8001846:	f241 3288 	movw	r2, #5000	; 0x1388
 800184a:	4293      	cmp	r3, r2
 800184c:	d901      	bls.n	8001852 <HAL_RCC_OscConfig+0x376>
        {
          return HAL_TIMEOUT;
 800184e:	2303      	movs	r3, #3
 8001850:	e0b5      	b.n	80019be <HAL_RCC_OscConfig+0x4e2>
      while(__HAL_RCC_GET_FLAG(RCC_FLAG_LSERDY) != RESET)
 8001852:	4b3e      	ldr	r3, [pc, #248]	; (800194c <HAL_RCC_OscConfig+0x470>)
 8001854:	6f1b      	ldr	r3, [r3, #112]	; 0x70
 8001856:	f003 0302 	and.w	r3, r3, #2
 800185a:	2b00      	cmp	r3, #0
 800185c:	d1ee      	bne.n	800183c <HAL_RCC_OscConfig+0x360>
        }
      }
    }

    /* Restore clock configuration if changed */
    if(pwrclkchanged == SET)
 800185e:	7dfb      	ldrb	r3, [r7, #23]
 8001860:	2b01      	cmp	r3, #1
 8001862:	d105      	bne.n	8001870 <HAL_RCC_OscConfig+0x394>
    {
      __HAL_RCC_PWR_CLK_DISABLE();
 8001864:	4b39      	ldr	r3, [pc, #228]	; (800194c <HAL_RCC_OscConfig+0x470>)
 8001866:	6c1b      	ldr	r3, [r3, #64]	; 0x40
 8001868:	4a38      	ldr	r2, [pc, #224]	; (800194c <HAL_RCC_OscConfig+0x470>)
 800186a:	f023 5380 	bic.w	r3, r3, #268435456	; 0x10000000
 800186e:	6413      	str	r3, [r2, #64]	; 0x40
    }
  }
  /*-------------------------------- PLL Configuration -----------------------*/
  /* Check the parameters */
  assert_param(IS_RCC_PLL(RCC_OscInitStruct->PLL.PLLState));
  if ((RCC_OscInitStruct->PLL.PLLState) != RCC_PLL_NONE)
 8001870:	687b      	ldr	r3, [r7, #4]
 8001872:	699b      	ldr	r3, [r3, #24]
 8001874:	2b00      	cmp	r3, #0
 8001876:	f000 80a1 	beq.w	80019bc <HAL_RCC_OscConfig+0x4e0>
  {
    /* Check if the PLL is used as system clock or not */
    if(__HAL_RCC_GET_SYSCLK_SOURCE() != RCC_CFGR_SWS_PLL)
 800187a:	4b34      	ldr	r3, [pc, #208]	; (800194c <HAL_RCC_OscConfig+0x470>)
 800187c:	689b      	ldr	r3, [r3, #8]
 800187e:	f003 030c 	and.w	r3, r3, #12
 8001882:	2b08      	cmp	r3, #8
 8001884:	d05c      	beq.n	8001940 <HAL_RCC_OscConfig+0x464>
    {
      if((RCC_OscInitStruct->PLL.PLLState) == RCC_PLL_ON)
 8001886:	687b      	ldr	r3, [r7, #4]
 8001888:	699b      	ldr	r3, [r3, #24]
 800188a:	2b02      	cmp	r3, #2
 800188c:	d141      	bne.n	8001912 <HAL_RCC_OscConfig+0x436>
        assert_param(IS_RCC_PLLN_VALUE(RCC_OscInitStruct->PLL.PLLN));
        assert_param(IS_RCC_PLLP_VALUE(RCC_OscInitStruct->PLL.PLLP));
        assert_param(IS_RCC_PLLQ_VALUE(RCC_OscInitStruct->PLL.PLLQ));

        /* Disable the main PLL. */
        __HAL_RCC_PLL_DISABLE();
 800188e:	4b31      	ldr	r3, [pc, #196]	; (8001954 <HAL_RCC_OscConfig+0x478>)
 8001890:	2200      	movs	r2, #0
 8001892:	601a      	str	r2, [r3, #0]

        /* Get Start Tick */
        tickstart = HAL_GetTick();
 8001894:	f7ff fb56 	bl	8000f44 <HAL_GetTick>
 8001898:	6138      	str	r0, [r7, #16]

        /* Wait till PLL is ready */
        while(__HAL_RCC_GET_FLAG(RCC_FLAG_PLLRDY) != RESET)
 800189a:	e008      	b.n	80018ae <HAL_RCC_OscConfig+0x3d2>
        {
          if((HAL_GetTick() - tickstart ) > PLL_TIMEOUT_VALUE)
 800189c:	f7ff fb52 	bl	8000f44 <HAL_GetTick>
 80018a0:	4602      	mov	r2, r0
 80018a2:	693b      	ldr	r3, [r7, #16]
 80018a4:	1ad3      	subs	r3, r2, r3
 80018a6:	2b02      	cmp	r3, #2
 80018a8:	d901      	bls.n	80018ae <HAL_RCC_OscConfig+0x3d2>
          {
            return HAL_TIMEOUT;
 80018aa:	2303      	movs	r3, #3
 80018ac:	e087      	b.n	80019be <HAL_RCC_OscConfig+0x4e2>
        while(__HAL_RCC_GET_FLAG(RCC_FLAG_PLLRDY) != RESET)
 80018ae:	4b27      	ldr	r3, [pc, #156]	; (800194c <HAL_RCC_OscConfig+0x470>)
 80018b0:	681b      	ldr	r3, [r3, #0]
 80018b2:	f003 7300 	and.w	r3, r3, #33554432	; 0x2000000
 80018b6:	2b00      	cmp	r3, #0
 80018b8:	d1f0      	bne.n	800189c <HAL_RCC_OscConfig+0x3c0>
          }
        }

        /* Configure the main PLL clock source, multiplication and division factors. */
        WRITE_REG(RCC->PLLCFGR, (RCC_OscInitStruct->PLL.PLLSource                                            | \
 80018ba:	687b      	ldr	r3, [r7, #4]
 80018bc:	69da      	ldr	r2, [r3, #28]
 80018be:	687b      	ldr	r3, [r7, #4]
 80018c0:	6a1b      	ldr	r3, [r3, #32]
 80018c2:	431a      	orrs	r2, r3
 80018c4:	687b      	ldr	r3, [r7, #4]
 80018c6:	6a5b      	ldr	r3, [r3, #36]	; 0x24
 80018c8:	019b      	lsls	r3, r3, #6
 80018ca:	431a      	orrs	r2, r3
 80018cc:	687b      	ldr	r3, [r7, #4]
 80018ce:	6a9b      	ldr	r3, [r3, #40]	; 0x28
 80018d0:	085b      	lsrs	r3, r3, #1
 80018d2:	3b01      	subs	r3, #1
 80018d4:	041b      	lsls	r3, r3, #16
 80018d6:	431a      	orrs	r2, r3
 80018d8:	687b      	ldr	r3, [r7, #4]
 80018da:	6adb      	ldr	r3, [r3, #44]	; 0x2c
 80018dc:	061b      	lsls	r3, r3, #24
 80018de:	491b      	ldr	r1, [pc, #108]	; (800194c <HAL_RCC_OscConfig+0x470>)
 80018e0:	4313      	orrs	r3, r2
 80018e2:	604b      	str	r3, [r1, #4]
                                 RCC_OscInitStruct->PLL.PLLM                                                 | \
                                 (RCC_OscInitStruct->PLL.PLLN << RCC_PLLCFGR_PLLN_Pos)             | \
                                 (((RCC_OscInitStruct->PLL.PLLP >> 1U) - 1U) << RCC_PLLCFGR_PLLP_Pos) | \
                                 (RCC_OscInitStruct->PLL.PLLQ << RCC_PLLCFGR_PLLQ_Pos)));
        /* Enable the main PLL. */
        __HAL_RCC_PLL_ENABLE();
 80018e4:	4b1b      	ldr	r3, [pc, #108]	; (8001954 <HAL_RCC_OscConfig+0x478>)
 80018e6:	2201      	movs	r2, #1
 80018e8:	601a      	str	r2, [r3, #0]

        /* Get Start Tick */
        tickstart = HAL_GetTick();
 80018ea:	f7ff fb2b 	bl	8000f44 <HAL_GetTick>
 80018ee:	6138      	str	r0, [r7, #16]

        /* Wait till PLL is ready */
        while(__HAL_RCC_GET_FLAG(RCC_FLAG_PLLRDY) == RESET)
 80018f0:	e008      	b.n	8001904 <HAL_RCC_OscConfig+0x428>
        {
          if((HAL_GetTick() - tickstart ) > PLL_TIMEOUT_VALUE)
 80018f2:	f7ff fb27 	bl	8000f44 <HAL_GetTick>
 80018f6:	4602      	mov	r2, r0
 80018f8:	693b      	ldr	r3, [r7, #16]
 80018fa:	1ad3      	subs	r3, r2, r3
 80018fc:	2b02      	cmp	r3, #2
 80018fe:	d901      	bls.n	8001904 <HAL_RCC_OscConfig+0x428>
          {
            return HAL_TIMEOUT;
 8001900:	2303      	movs	r3, #3
 8001902:	e05c      	b.n	80019be <HAL_RCC_OscConfig+0x4e2>
        while(__HAL_RCC_GET_FLAG(RCC_FLAG_PLLRDY) == RESET)
 8001904:	4b11      	ldr	r3, [pc, #68]	; (800194c <HAL_RCC_OscConfig+0x470>)
 8001906:	681b      	ldr	r3, [r3, #0]
 8001908:	f003 7300 	and.w	r3, r3, #33554432	; 0x2000000
 800190c:	2b00      	cmp	r3, #0
 800190e:	d0f0      	beq.n	80018f2 <HAL_RCC_OscConfig+0x416>
 8001910:	e054      	b.n	80019bc <HAL_RCC_OscConfig+0x4e0>
        }
      }
      else
      {
        /* Disable the main PLL. */
        __HAL_RCC_PLL_DISABLE();
 8001912:	4b10      	ldr	r3, [pc, #64]	; (8001954 <HAL_RCC_OscConfig+0x478>)
 8001914:	2200      	movs	r2, #0
 8001916:	601a      	str	r2, [r3, #0]

        /* Get Start Tick */
        tickstart = HAL_GetTick();
 8001918:	f7ff fb14 	bl	8000f44 <HAL_GetTick>
 800191c:	6138      	str	r0, [r7, #16]

        /* Wait till PLL is ready */
        while(__HAL_RCC_GET_FLAG(RCC_FLAG_PLLRDY) != RESET)
 800191e:	e008      	b.n	8001932 <HAL_RCC_OscConfig+0x456>
        {
          if((HAL_GetTick() - tickstart ) > PLL_TIMEOUT_VALUE)
 8001920:	f7ff fb10 	bl	8000f44 <HAL_GetTick>
 8001924:	4602      	mov	r2, r0
 8001926:	693b      	ldr	r3, [r7, #16]
 8001928:	1ad3      	subs	r3, r2, r3
 800192a:	2b02      	cmp	r3, #2
 800192c:	d901      	bls.n	8001932 <HAL_RCC_OscConfig+0x456>
          {
            return HAL_TIMEOUT;
 800192e:	2303      	movs	r3, #3
 8001930:	e045      	b.n	80019be <HAL_RCC_OscConfig+0x4e2>
        while(__HAL_RCC_GET_FLAG(RCC_FLAG_PLLRDY) != RESET)
 8001932:	4b06      	ldr	r3, [pc, #24]	; (800194c <HAL_RCC_OscConfig+0x470>)
 8001934:	681b      	ldr	r3, [r3, #0]
 8001936:	f003 7300 	and.w	r3, r3, #33554432	; 0x2000000
 800193a:	2b00      	cmp	r3, #0
 800193c:	d1f0      	bne.n	8001920 <HAL_RCC_OscConfig+0x444>
 800193e:	e03d      	b.n	80019bc <HAL_RCC_OscConfig+0x4e0>
      }
    }
    else
    {
      /* Check if there is a request to disable the PLL used as System clock source */
      if((RCC_OscInitStruct->PLL.PLLState) == RCC_PLL_OFF)
 8001940:	687b      	ldr	r3, [r7, #4]
 8001942:	699b      	ldr	r3, [r3, #24]
 8001944:	2b01      	cmp	r3, #1
 8001946:	d107      	bne.n	8001958 <HAL_RCC_OscConfig+0x47c>
      {
        return HAL_ERROR;
 8001948:	2301      	movs	r3, #1
 800194a:	e038      	b.n	80019be <HAL_RCC_OscConfig+0x4e2>
 800194c:	40023800 	.word	0x40023800
 8001950:	40007000 	.word	0x40007000
 8001954:	42470060 	.word	0x42470060
      }
      else
      {
        /* Do not return HAL_ERROR if request repeats the current configuration */
        pll_config = RCC->PLLCFGR;
 8001958:	4b1b      	ldr	r3, [pc, #108]	; (80019c8 <HAL_RCC_OscConfig+0x4ec>)
 800195a:	685b      	ldr	r3, [r3, #4]
 800195c:	60fb      	str	r3, [r7, #12]
            (READ_BIT(pll_config, RCC_PLLCFGR_PLLN) != (RCC_OscInitStruct->PLL.PLLN) << RCC_PLLCFGR_PLLN_Pos) ||
            (READ_BIT(pll_config, RCC_PLLCFGR_PLLP) != (((RCC_OscInitStruct->PLL.PLLP >> 1U) - 1U)) << RCC_PLLCFGR_PLLP_Pos) ||
            (READ_BIT(pll_config, RCC_PLLCFGR_PLLQ) != (RCC_OscInitStruct->PLL.PLLQ << RCC_PLLCFGR_PLLQ_Pos)) ||
            (READ_BIT(pll_config, RCC_PLLCFGR_PLLR) != (RCC_OscInitStruct->PLL.PLLR << RCC_PLLCFGR_PLLR_Pos)))
#else
        if (((RCC_OscInitStruct->PLL.PLLState) == RCC_PLL_OFF) ||
 800195e:	687b      	ldr	r3, [r7, #4]
 8001960:	699b      	ldr	r3, [r3, #24]
 8001962:	2b01      	cmp	r3, #1
 8001964:	d028      	beq.n	80019b8 <HAL_RCC_OscConfig+0x4dc>
            (READ_BIT(pll_config, RCC_PLLCFGR_PLLSRC) != RCC_OscInitStruct->PLL.PLLSource) ||
 8001966:	68fb      	ldr	r3, [r7, #12]
 8001968:	f403 0280 	and.w	r2, r3, #4194304	; 0x400000
 800196c:	687b      	ldr	r3, [r7, #4]
 800196e:	69db      	ldr	r3, [r3, #28]
        if (((RCC_OscInitStruct->PLL.PLLState) == RCC_PLL_OFF) ||
 8001970:	429a      	cmp	r2, r3
 8001972:	d121      	bne.n	80019b8 <HAL_RCC_OscConfig+0x4dc>
            (READ_BIT(pll_config, RCC_PLLCFGR_PLLM) != (RCC_OscInitStruct->PLL.PLLM) << RCC_PLLCFGR_PLLM_Pos) ||
 8001974:	68fb      	ldr	r3, [r7, #12]
 8001976:	f003 023f 	and.w	r2, r3, #63	; 0x3f
 800197a:	687b      	ldr	r3, [r7, #4]
 800197c:	6a1b      	ldr	r3, [r3, #32]
            (READ_BIT(pll_config, RCC_PLLCFGR_PLLSRC) != RCC_OscInitStruct->PLL.PLLSource) ||
 800197e:	429a      	cmp	r2, r3
 8001980:	d11a      	bne.n	80019b8 <HAL_RCC_OscConfig+0x4dc>
            (READ_BIT(pll_config, RCC_PLLCFGR_PLLN) != (RCC_OscInitStruct->PLL.PLLN) << RCC_PLLCFGR_PLLN_Pos) ||
 8001982:	68fa      	ldr	r2, [r7, #12]
 8001984:	f647 73c0 	movw	r3, #32704	; 0x7fc0
 8001988:	4013      	ands	r3, r2
 800198a:	687a      	ldr	r2, [r7, #4]
 800198c:	6a52      	ldr	r2, [r2, #36]	; 0x24
 800198e:	0192      	lsls	r2, r2, #6
            (READ_BIT(pll_config, RCC_PLLCFGR_PLLM) != (RCC_OscInitStruct->PLL.PLLM) << RCC_PLLCFGR_PLLM_Pos) ||
 8001990:	4293      	cmp	r3, r2
 8001992:	d111      	bne.n	80019b8 <HAL_RCC_OscConfig+0x4dc>
            (READ_BIT(pll_config, RCC_PLLCFGR_PLLP) != (((RCC_OscInitStruct->PLL.PLLP >> 1U) - 1U)) << RCC_PLLCFGR_PLLP_Pos) ||
 8001994:	68fb      	ldr	r3, [r7, #12]
 8001996:	f403 3240 	and.w	r2, r3, #196608	; 0x30000
 800199a:	687b      	ldr	r3, [r7, #4]
 800199c:	6a9b      	ldr	r3, [r3, #40]	; 0x28
 800199e:	085b      	lsrs	r3, r3, #1
 80019a0:	3b01      	subs	r3, #1
 80019a2:	041b      	lsls	r3, r3, #16
            (READ_BIT(pll_config, RCC_PLLCFGR_PLLN) != (RCC_OscInitStruct->PLL.PLLN) << RCC_PLLCFGR_PLLN_Pos) ||
 80019a4:	429a      	cmp	r2, r3
 80019a6:	d107      	bne.n	80019b8 <HAL_RCC_OscConfig+0x4dc>
            (READ_BIT(pll_config, RCC_PLLCFGR_PLLQ) != (RCC_OscInitStruct->PLL.PLLQ << RCC_PLLCFGR_PLLQ_Pos)))
 80019a8:	68fb      	ldr	r3, [r7, #12]
 80019aa:	f003 6270 	and.w	r2, r3, #251658240	; 0xf000000
 80019ae:	687b      	ldr	r3, [r7, #4]
 80019b0:	6adb      	ldr	r3, [r3, #44]	; 0x2c
 80019b2:	061b      	lsls	r3, r3, #24
            (READ_BIT(pll_config, RCC_PLLCFGR_PLLP) != (((RCC_OscInitStruct->PLL.PLLP >> 1U) - 1U)) << RCC_PLLCFGR_PLLP_Pos) ||
 80019b4:	429a      	cmp	r2, r3
 80019b6:	d001      	beq.n	80019bc <HAL_RCC_OscConfig+0x4e0>
#endif
        {
          return HAL_ERROR;
 80019b8:	2301      	movs	r3, #1
 80019ba:	e000      	b.n	80019be <HAL_RCC_OscConfig+0x4e2>
        }
      }
    }
  }
  return HAL_OK;
 80019bc:	2300      	movs	r3, #0
}
 80019be:	4618      	mov	r0, r3
 80019c0:	3718      	adds	r7, #24
 80019c2:	46bd      	mov	sp, r7
 80019c4:	bd80      	pop	{r7, pc}
 80019c6:	bf00      	nop
 80019c8:	40023800 	.word	0x40023800

080019cc <HAL_RCC_ClockConfig>:
  *         HPRE[3:0] bits to ensure that HCLK not exceed the maximum allowed frequency
  *         (for more details refer to section above "Initialization/de-initialization functions")
  * @retval None
  */
HAL_StatusTypeDef HAL_RCC_ClockConfig(RCC_ClkInitTypeDef  *RCC_ClkInitStruct, uint32_t FLatency)
{
 80019cc:	b580      	push	{r7, lr}
 80019ce:	b084      	sub	sp, #16
 80019d0:	af00      	add	r7, sp, #0
 80019d2:	6078      	str	r0, [r7, #4]
 80019d4:	6039      	str	r1, [r7, #0]
  uint32_t tickstart;

  /* Check Null pointer */
  if(RCC_ClkInitStruct == NULL)
 80019d6:	687b      	ldr	r3, [r7, #4]
 80019d8:	2b00      	cmp	r3, #0
 80019da:	d101      	bne.n	80019e0 <HAL_RCC_ClockConfig+0x14>
  {
    return HAL_ERROR;
 80019dc:	2301      	movs	r3, #1
 80019de:	e0cc      	b.n	8001b7a <HAL_RCC_ClockConfig+0x1ae>
  /* To correctly read data from FLASH memory, the number of wait states (LATENCY)
    must be correctly programmed according to the frequency of the CPU clock
    (HCLK) and the supply voltage of the device. */

  /* Increasing the number of wait states because of higher CPU frequency */
  if(FLatency > __HAL_FLASH_GET_LATENCY())
 80019e0:	4b68      	ldr	r3, [pc, #416]	; (8001b84 <HAL_RCC_ClockConfig+0x1b8>)
 80019e2:	681b      	ldr	r3, [r3, #0]
 80019e4:	f003 0307 	and.w	r3, r3, #7
 80019e8:	683a      	ldr	r2, [r7, #0]
 80019ea:	429a      	cmp	r2, r3
 80019ec:	d90c      	bls.n	8001a08 <HAL_RCC_ClockConfig+0x3c>
  {
    /* Program the new number of wait states to the LATENCY bits in the FLASH_ACR register */
    __HAL_FLASH_SET_LATENCY(FLatency);
 80019ee:	4b65      	ldr	r3, [pc, #404]	; (8001b84 <HAL_RCC_ClockConfig+0x1b8>)
 80019f0:	683a      	ldr	r2, [r7, #0]
 80019f2:	b2d2      	uxtb	r2, r2
 80019f4:	701a      	strb	r2, [r3, #0]

    /* Check that the new number of wait states is taken into account to access the Flash
    memory by reading the FLASH_ACR register */
    if(__HAL_FLASH_GET_LATENCY() != FLatency)
 80019f6:	4b63      	ldr	r3, [pc, #396]	; (8001b84 <HAL_RCC_ClockConfig+0x1b8>)
 80019f8:	681b      	ldr	r3, [r3, #0]
 80019fa:	f003 0307 	and.w	r3, r3, #7
 80019fe:	683a      	ldr	r2, [r7, #0]
 8001a00:	429a      	cmp	r2, r3
 8001a02:	d001      	beq.n	8001a08 <HAL_RCC_ClockConfig+0x3c>
    {
      return HAL_ERROR;
 8001a04:	2301      	movs	r3, #1
 8001a06:	e0b8      	b.n	8001b7a <HAL_RCC_ClockConfig+0x1ae>
    }
  }

  /*-------------------------- HCLK Configuration --------------------------*/
  if(((RCC_ClkInitStruct->ClockType) & RCC_CLOCKTYPE_HCLK) == RCC_CLOCKTYPE_HCLK)
 8001a08:	687b      	ldr	r3, [r7, #4]
 8001a0a:	681b      	ldr	r3, [r3, #0]
 8001a0c:	f003 0302 	and.w	r3, r3, #2
 8001a10:	2b00      	cmp	r3, #0
 8001a12:	d020      	beq.n	8001a56 <HAL_RCC_ClockConfig+0x8a>
  {
    /* Set the highest APBx dividers in order to ensure that we do not go through
       a non-spec phase whatever we decrease or increase HCLK. */
    if(((RCC_ClkInitStruct->ClockType) & RCC_CLOCKTYPE_PCLK1) == RCC_CLOCKTYPE_PCLK1)
 8001a14:	687b      	ldr	r3, [r7, #4]
 8001a16:	681b      	ldr	r3, [r3, #0]
 8001a18:	f003 0304 	and.w	r3, r3, #4
 8001a1c:	2b00      	cmp	r3, #0
 8001a1e:	d005      	beq.n	8001a2c <HAL_RCC_ClockConfig+0x60>
    {
      MODIFY_REG(RCC->CFGR, RCC_CFGR_PPRE1, RCC_HCLK_DIV16);
 8001a20:	4b59      	ldr	r3, [pc, #356]	; (8001b88 <HAL_RCC_ClockConfig+0x1bc>)
 8001a22:	689b      	ldr	r3, [r3, #8]
 8001a24:	4a58      	ldr	r2, [pc, #352]	; (8001b88 <HAL_RCC_ClockConfig+0x1bc>)
 8001a26:	f443 53e0 	orr.w	r3, r3, #7168	; 0x1c00
 8001a2a:	6093      	str	r3, [r2, #8]
    }

    if(((RCC_ClkInitStruct->ClockType) & RCC_CLOCKTYPE_PCLK2) == RCC_CLOCKTYPE_PCLK2)
 8001a2c:	687b      	ldr	r3, [r7, #4]
 8001a2e:	681b      	ldr	r3, [r3, #0]
 8001a30:	f003 0308 	and.w	r3, r3, #8
 8001a34:	2b00      	cmp	r3, #0
 8001a36:	d005      	beq.n	8001a44 <HAL_RCC_ClockConfig+0x78>
    {
      MODIFY_REG(RCC->CFGR, RCC_CFGR_PPRE2, (RCC_HCLK_DIV16 << 3));
 8001a38:	4b53      	ldr	r3, [pc, #332]	; (8001b88 <HAL_RCC_ClockConfig+0x1bc>)
 8001a3a:	689b      	ldr	r3, [r3, #8]
 8001a3c:	4a52      	ldr	r2, [pc, #328]	; (8001b88 <HAL_RCC_ClockConfig+0x1bc>)
 8001a3e:	f443 4360 	orr.w	r3, r3, #57344	; 0xe000
 8001a42:	6093      	str	r3, [r2, #8]
    }

    assert_param(IS_RCC_HCLK(RCC_ClkInitStruct->AHBCLKDivider));
    MODIFY_REG(RCC->CFGR, RCC_CFGR_HPRE, RCC_ClkInitStruct->AHBCLKDivider);
 8001a44:	4b50      	ldr	r3, [pc, #320]	; (8001b88 <HAL_RCC_ClockConfig+0x1bc>)
 8001a46:	689b      	ldr	r3, [r3, #8]
 8001a48:	f023 02f0 	bic.w	r2, r3, #240	; 0xf0
 8001a4c:	687b      	ldr	r3, [r7, #4]
 8001a4e:	689b      	ldr	r3, [r3, #8]
 8001a50:	494d      	ldr	r1, [pc, #308]	; (8001b88 <HAL_RCC_ClockConfig+0x1bc>)
 8001a52:	4313      	orrs	r3, r2
 8001a54:	608b      	str	r3, [r1, #8]
  }

  /*------------------------- SYSCLK Configuration ---------------------------*/
  if(((RCC_ClkInitStruct->ClockType) & RCC_CLOCKTYPE_SYSCLK) == RCC_CLOCKTYPE_SYSCLK)
 8001a56:	687b      	ldr	r3, [r7, #4]
 8001a58:	681b      	ldr	r3, [r3, #0]
 8001a5a:	f003 0301 	and.w	r3, r3, #1
 8001a5e:	2b00      	cmp	r3, #0
 8001a60:	d044      	beq.n	8001aec <HAL_RCC_ClockConfig+0x120>
  {
    assert_param(IS_RCC_SYSCLKSOURCE(RCC_ClkInitStruct->SYSCLKSource));

    /* HSE is selected as System Clock Source */
    if(RCC_ClkInitStruct->SYSCLKSource == RCC_SYSCLKSOURCE_HSE)
 8001a62:	687b      	ldr	r3, [r7, #4]
 8001a64:	685b      	ldr	r3, [r3, #4]
 8001a66:	2b01      	cmp	r3, #1
 8001a68:	d107      	bne.n	8001a7a <HAL_RCC_ClockConfig+0xae>
    {
      /* Check the HSE ready flag */
      if(__HAL_RCC_GET_FLAG(RCC_FLAG_HSERDY) == RESET)
 8001a6a:	4b47      	ldr	r3, [pc, #284]	; (8001b88 <HAL_RCC_ClockConfig+0x1bc>)
 8001a6c:	681b      	ldr	r3, [r3, #0]
 8001a6e:	f403 3300 	and.w	r3, r3, #131072	; 0x20000
 8001a72:	2b00      	cmp	r3, #0
 8001a74:	d119      	bne.n	8001aaa <HAL_RCC_ClockConfig+0xde>
      {
        return HAL_ERROR;
 8001a76:	2301      	movs	r3, #1
 8001a78:	e07f      	b.n	8001b7a <HAL_RCC_ClockConfig+0x1ae>
      }
    }
    /* PLL is selected as System Clock Source */
    else if((RCC_ClkInitStruct->SYSCLKSource == RCC_SYSCLKSOURCE_PLLCLK)   ||
 8001a7a:	687b      	ldr	r3, [r7, #4]
 8001a7c:	685b      	ldr	r3, [r3, #4]
 8001a7e:	2b02      	cmp	r3, #2
 8001a80:	d003      	beq.n	8001a8a <HAL_RCC_ClockConfig+0xbe>
            (RCC_ClkInitStruct->SYSCLKSource == RCC_SYSCLKSOURCE_PLLRCLK))
 8001a82:	687b      	ldr	r3, [r7, #4]
 8001a84:	685b      	ldr	r3, [r3, #4]
    else if((RCC_ClkInitStruct->SYSCLKSource == RCC_SYSCLKSOURCE_PLLCLK)   ||
 8001a86:	2b03      	cmp	r3, #3
 8001a88:	d107      	bne.n	8001a9a <HAL_RCC_ClockConfig+0xce>
    {
      /* Check the PLL ready flag */
      if(__HAL_RCC_GET_FLAG(RCC_FLAG_PLLRDY) == RESET)
 8001a8a:	4b3f      	ldr	r3, [pc, #252]	; (8001b88 <HAL_RCC_ClockConfig+0x1bc>)
 8001a8c:	681b      	ldr	r3, [r3, #0]
 8001a8e:	f003 7300 	and.w	r3, r3, #33554432	; 0x2000000
 8001a92:	2b00      	cmp	r3, #0
 8001a94:	d109      	bne.n	8001aaa <HAL_RCC_ClockConfig+0xde>
      {
        return HAL_ERROR;
 8001a96:	2301      	movs	r3, #1
 8001a98:	e06f      	b.n	8001b7a <HAL_RCC_ClockConfig+0x1ae>
    }
    /* HSI is selected as System Clock Source */
    else
    {
      /* Check the HSI ready flag */
      if(__HAL_RCC_GET_FLAG(RCC_FLAG_HSIRDY) == RESET)
 8001a9a:	4b3b      	ldr	r3, [pc, #236]	; (8001b88 <HAL_RCC_ClockConfig+0x1bc>)
 8001a9c:	681b      	ldr	r3, [r3, #0]
 8001a9e:	f003 0302 	and.w	r3, r3, #2
 8001aa2:	2b00      	cmp	r3, #0
 8001aa4:	d101      	bne.n	8001aaa <HAL_RCC_ClockConfig+0xde>
      {
        return HAL_ERROR;
 8001aa6:	2301      	movs	r3, #1
 8001aa8:	e067      	b.n	8001b7a <HAL_RCC_ClockConfig+0x1ae>
      }
    }

    __HAL_RCC_SYSCLK_CONFIG(RCC_ClkInitStruct->SYSCLKSource);
 8001aaa:	4b37      	ldr	r3, [pc, #220]	; (8001b88 <HAL_RCC_ClockConfig+0x1bc>)
 8001aac:	689b      	ldr	r3, [r3, #8]
 8001aae:	f023 0203 	bic.w	r2, r3, #3
 8001ab2:	687b      	ldr	r3, [r7, #4]
 8001ab4:	685b      	ldr	r3, [r3, #4]
 8001ab6:	4934      	ldr	r1, [pc, #208]	; (8001b88 <HAL_RCC_ClockConfig+0x1bc>)
 8001ab8:	4313      	orrs	r3, r2
 8001aba:	608b      	str	r3, [r1, #8]

    /* Get Start Tick */
    tickstart = HAL_GetTick();
 8001abc:	f7ff fa42 	bl	8000f44 <HAL_GetTick>
 8001ac0:	60f8      	str	r0, [r7, #12]

    while (__HAL_RCC_GET_SYSCLK_SOURCE() != (RCC_ClkInitStruct->SYSCLKSource << RCC_CFGR_SWS_Pos))
 8001ac2:	e00a      	b.n	8001ada <HAL_RCC_ClockConfig+0x10e>
    {
      if ((HAL_GetTick() - tickstart) > CLOCKSWITCH_TIMEOUT_VALUE)
 8001ac4:	f7ff fa3e 	bl	8000f44 <HAL_GetTick>
 8001ac8:	4602      	mov	r2, r0
 8001aca:	68fb      	ldr	r3, [r7, #12]
 8001acc:	1ad3      	subs	r3, r2, r3
 8001ace:	f241 3288 	movw	r2, #5000	; 0x1388
 8001ad2:	4293      	cmp	r3, r2
 8001ad4:	d901      	bls.n	8001ada <HAL_RCC_ClockConfig+0x10e>
      {
        return HAL_TIMEOUT;
 8001ad6:	2303      	movs	r3, #3
 8001ad8:	e04f      	b.n	8001b7a <HAL_RCC_ClockConfig+0x1ae>
    while (__HAL_RCC_GET_SYSCLK_SOURCE() != (RCC_ClkInitStruct->SYSCLKSource << RCC_CFGR_SWS_Pos))
 8001ada:	4b2b      	ldr	r3, [pc, #172]	; (8001b88 <HAL_RCC_ClockConfig+0x1bc>)
 8001adc:	689b      	ldr	r3, [r3, #8]
 8001ade:	f003 020c 	and.w	r2, r3, #12
 8001ae2:	687b      	ldr	r3, [r7, #4]
 8001ae4:	685b      	ldr	r3, [r3, #4]
 8001ae6:	009b      	lsls	r3, r3, #2
 8001ae8:	429a      	cmp	r2, r3
 8001aea:	d1eb      	bne.n	8001ac4 <HAL_RCC_ClockConfig+0xf8>
      }
    }
  }

  /* Decreasing the number of wait states because of lower CPU frequency */
  if(FLatency < __HAL_FLASH_GET_LATENCY())
 8001aec:	4b25      	ldr	r3, [pc, #148]	; (8001b84 <HAL_RCC_ClockConfig+0x1b8>)
 8001aee:	681b      	ldr	r3, [r3, #0]
 8001af0:	f003 0307 	and.w	r3, r3, #7
 8001af4:	683a      	ldr	r2, [r7, #0]
 8001af6:	429a      	cmp	r2, r3
 8001af8:	d20c      	bcs.n	8001b14 <HAL_RCC_ClockConfig+0x148>
  {
     /* Program the new number of wait states to the LATENCY bits in the FLASH_ACR register */
    __HAL_FLASH_SET_LATENCY(FLatency);
 8001afa:	4b22      	ldr	r3, [pc, #136]	; (8001b84 <HAL_RCC_ClockConfig+0x1b8>)
 8001afc:	683a      	ldr	r2, [r7, #0]
 8001afe:	b2d2      	uxtb	r2, r2
 8001b00:	701a      	strb	r2, [r3, #0]

    /* Check that the new number of wait states is taken into account to access the Flash
    memory by reading the FLASH_ACR register */
    if(__HAL_FLASH_GET_LATENCY() != FLatency)
 8001b02:	4b20      	ldr	r3, [pc, #128]	; (8001b84 <HAL_RCC_ClockConfig+0x1b8>)
 8001b04:	681b      	ldr	r3, [r3, #0]
 8001b06:	f003 0307 	and.w	r3, r3, #7
 8001b0a:	683a      	ldr	r2, [r7, #0]
 8001b0c:	429a      	cmp	r2, r3
 8001b0e:	d001      	beq.n	8001b14 <HAL_RCC_ClockConfig+0x148>
    {
      return HAL_ERROR;
 8001b10:	2301      	movs	r3, #1
 8001b12:	e032      	b.n	8001b7a <HAL_RCC_ClockConfig+0x1ae>
    }
  }

  /*-------------------------- PCLK1 Configuration ---------------------------*/
  if(((RCC_ClkInitStruct->ClockType) & RCC_CLOCKTYPE_PCLK1) == RCC_CLOCKTYPE_PCLK1)
 8001b14:	687b      	ldr	r3, [r7, #4]
 8001b16:	681b      	ldr	r3, [r3, #0]
 8001b18:	f003 0304 	and.w	r3, r3, #4
 8001b1c:	2b00      	cmp	r3, #0
 8001b1e:	d008      	beq.n	8001b32 <HAL_RCC_ClockConfig+0x166>
  {
    assert_param(IS_RCC_PCLK(RCC_ClkInitStruct->APB1CLKDivider));
    MODIFY_REG(RCC->CFGR, RCC_CFGR_PPRE1, RCC_ClkInitStruct->APB1CLKDivider);
 8001b20:	4b19      	ldr	r3, [pc, #100]	; (8001b88 <HAL_RCC_ClockConfig+0x1bc>)
 8001b22:	689b      	ldr	r3, [r3, #8]
 8001b24:	f423 52e0 	bic.w	r2, r3, #7168	; 0x1c00
 8001b28:	687b      	ldr	r3, [r7, #4]
 8001b2a:	68db      	ldr	r3, [r3, #12]
 8001b2c:	4916      	ldr	r1, [pc, #88]	; (8001b88 <HAL_RCC_ClockConfig+0x1bc>)
 8001b2e:	4313      	orrs	r3, r2
 8001b30:	608b      	str	r3, [r1, #8]
  }

  /*-------------------------- PCLK2 Configuration ---------------------------*/
  if(((RCC_ClkInitStruct->ClockType) & RCC_CLOCKTYPE_PCLK2) == RCC_CLOCKTYPE_PCLK2)
 8001b32:	687b      	ldr	r3, [r7, #4]
 8001b34:	681b      	ldr	r3, [r3, #0]
 8001b36:	f003 0308 	and.w	r3, r3, #8
 8001b3a:	2b00      	cmp	r3, #0
 8001b3c:	d009      	beq.n	8001b52 <HAL_RCC_ClockConfig+0x186>
  {
    assert_param(IS_RCC_PCLK(RCC_ClkInitStruct->APB2CLKDivider));
    MODIFY_REG(RCC->CFGR, RCC_CFGR_PPRE2, ((RCC_ClkInitStruct->APB2CLKDivider) << 3U));
 8001b3e:	4b12      	ldr	r3, [pc, #72]	; (8001b88 <HAL_RCC_ClockConfig+0x1bc>)
 8001b40:	689b      	ldr	r3, [r3, #8]
 8001b42:	f423 4260 	bic.w	r2, r3, #57344	; 0xe000
 8001b46:	687b      	ldr	r3, [r7, #4]
 8001b48:	691b      	ldr	r3, [r3, #16]
 8001b4a:	00db      	lsls	r3, r3, #3
 8001b4c:	490e      	ldr	r1, [pc, #56]	; (8001b88 <HAL_RCC_ClockConfig+0x1bc>)
 8001b4e:	4313      	orrs	r3, r2
 8001b50:	608b      	str	r3, [r1, #8]
  }

  /* Update the SystemCoreClock global variable */
  SystemCoreClock = HAL_RCC_GetSysClockFreq() >> AHBPrescTable[(RCC->CFGR & RCC_CFGR_HPRE)>> RCC_CFGR_HPRE_Pos];
 8001b52:	f000 f821 	bl	8001b98 <HAL_RCC_GetSysClockFreq>
 8001b56:	4602      	mov	r2, r0
 8001b58:	4b0b      	ldr	r3, [pc, #44]	; (8001b88 <HAL_RCC_ClockConfig+0x1bc>)
 8001b5a:	689b      	ldr	r3, [r3, #8]
 8001b5c:	091b      	lsrs	r3, r3, #4
 8001b5e:	f003 030f 	and.w	r3, r3, #15
 8001b62:	490a      	ldr	r1, [pc, #40]	; (8001b8c <HAL_RCC_ClockConfig+0x1c0>)
 8001b64:	5ccb      	ldrb	r3, [r1, r3]
 8001b66:	fa22 f303 	lsr.w	r3, r2, r3
 8001b6a:	4a09      	ldr	r2, [pc, #36]	; (8001b90 <HAL_RCC_ClockConfig+0x1c4>)
 8001b6c:	6013      	str	r3, [r2, #0]

  /* Configure the source of time base considering new system clocks settings */
  HAL_InitTick (uwTickPrio);
 8001b6e:	4b09      	ldr	r3, [pc, #36]	; (8001b94 <HAL_RCC_ClockConfig+0x1c8>)
 8001b70:	681b      	ldr	r3, [r3, #0]
 8001b72:	4618      	mov	r0, r3
 8001b74:	f7ff f9a2 	bl	8000ebc <HAL_InitTick>

  return HAL_OK;
 8001b78:	2300      	movs	r3, #0
}
 8001b7a:	4618      	mov	r0, r3
 8001b7c:	3710      	adds	r7, #16
 8001b7e:	46bd      	mov	sp, r7
 8001b80:	bd80      	pop	{r7, pc}
 8001b82:	bf00      	nop
 8001b84:	40023c00 	.word	0x40023c00
 8001b88:	40023800 	.word	0x40023800
 8001b8c:	080030d0 	.word	0x080030d0
 8001b90:	20000000 	.word	0x20000000
 8001b94:	20000004 	.word	0x20000004

08001b98 <HAL_RCC_GetSysClockFreq>:
  *
  *
  * @retval SYSCLK frequency
  */
__weak uint32_t HAL_RCC_GetSysClockFreq(void)
{
 8001b98:	e92d 4fb0 	stmdb	sp!, {r4, r5, r7, r8, r9, sl, fp, lr}
 8001b9c:	b090      	sub	sp, #64	; 0x40
 8001b9e:	af00      	add	r7, sp, #0
  uint32_t pllm = 0U, pllvco = 0U, pllp = 0U;
 8001ba0:	2300      	movs	r3, #0
 8001ba2:	637b      	str	r3, [r7, #52]	; 0x34
 8001ba4:	2300      	movs	r3, #0
 8001ba6:	63fb      	str	r3, [r7, #60]	; 0x3c
 8001ba8:	2300      	movs	r3, #0
 8001baa:	633b      	str	r3, [r7, #48]	; 0x30
  uint32_t sysclockfreq = 0U;
 8001bac:	2300      	movs	r3, #0
 8001bae:	63bb      	str	r3, [r7, #56]	; 0x38

  /* Get SYSCLK source -------------------------------------------------------*/
  switch (RCC->CFGR & RCC_CFGR_SWS)
 8001bb0:	4b59      	ldr	r3, [pc, #356]	; (8001d18 <HAL_RCC_GetSysClockFreq+0x180>)
 8001bb2:	689b      	ldr	r3, [r3, #8]
 8001bb4:	f003 030c 	and.w	r3, r3, #12
 8001bb8:	2b08      	cmp	r3, #8
 8001bba:	d00d      	beq.n	8001bd8 <HAL_RCC_GetSysClockFreq+0x40>
 8001bbc:	2b08      	cmp	r3, #8
 8001bbe:	f200 80a1 	bhi.w	8001d04 <HAL_RCC_GetSysClockFreq+0x16c>
 8001bc2:	2b00      	cmp	r3, #0
 8001bc4:	d002      	beq.n	8001bcc <HAL_RCC_GetSysClockFreq+0x34>
 8001bc6:	2b04      	cmp	r3, #4
 8001bc8:	d003      	beq.n	8001bd2 <HAL_RCC_GetSysClockFreq+0x3a>
 8001bca:	e09b      	b.n	8001d04 <HAL_RCC_GetSysClockFreq+0x16c>
  {
    case RCC_CFGR_SWS_HSI:  /* HSI used as system clock source */
    {
      sysclockfreq = HSI_VALUE;
 8001bcc:	4b53      	ldr	r3, [pc, #332]	; (8001d1c <HAL_RCC_GetSysClockFreq+0x184>)
 8001bce:	63bb      	str	r3, [r7, #56]	; 0x38
       break;
 8001bd0:	e09b      	b.n	8001d0a <HAL_RCC_GetSysClockFreq+0x172>
    }
    case RCC_CFGR_SWS_HSE:  /* HSE used as system clock  source */
    {
      sysclockfreq = HSE_VALUE;
 8001bd2:	4b53      	ldr	r3, [pc, #332]	; (8001d20 <HAL_RCC_GetSysClockFreq+0x188>)
 8001bd4:	63bb      	str	r3, [r7, #56]	; 0x38
      break;
 8001bd6:	e098      	b.n	8001d0a <HAL_RCC_GetSysClockFreq+0x172>
    }
    case RCC_CFGR_SWS_PLL:  /* PLL used as system clock  source */
    {
      /* PLL_VCO = (HSE_VALUE or HSI_VALUE / PLLM) * PLLN
      SYSCLK = PLL_VCO / PLLP */
      pllm = RCC->PLLCFGR & RCC_PLLCFGR_PLLM;
 8001bd8:	4b4f      	ldr	r3, [pc, #316]	; (8001d18 <HAL_RCC_GetSysClockFreq+0x180>)
 8001bda:	685b      	ldr	r3, [r3, #4]
 8001bdc:	f003 033f 	and.w	r3, r3, #63	; 0x3f
 8001be0:	637b      	str	r3, [r7, #52]	; 0x34
      if(__HAL_RCC_GET_PLL_OSCSOURCE() != RCC_PLLSOURCE_HSI)
 8001be2:	4b4d      	ldr	r3, [pc, #308]	; (8001d18 <HAL_RCC_GetSysClockFreq+0x180>)
 8001be4:	685b      	ldr	r3, [r3, #4]
 8001be6:	f403 0380 	and.w	r3, r3, #4194304	; 0x400000
 8001bea:	2b00      	cmp	r3, #0
 8001bec:	d028      	beq.n	8001c40 <HAL_RCC_GetSysClockFreq+0xa8>
      {
        /* HSE used as PLL clock source */
        pllvco = (uint32_t) ((((uint64_t) HSE_VALUE * ((uint64_t) ((RCC->PLLCFGR & RCC_PLLCFGR_PLLN) >> RCC_PLLCFGR_PLLN_Pos)))) / (uint64_t)pllm);
 8001bee:	4b4a      	ldr	r3, [pc, #296]	; (8001d18 <HAL_RCC_GetSysClockFreq+0x180>)
 8001bf0:	685b      	ldr	r3, [r3, #4]
 8001bf2:	099b      	lsrs	r3, r3, #6
 8001bf4:	2200      	movs	r2, #0
 8001bf6:	623b      	str	r3, [r7, #32]
 8001bf8:	627a      	str	r2, [r7, #36]	; 0x24
 8001bfa:	6a3b      	ldr	r3, [r7, #32]
 8001bfc:	f3c3 0008 	ubfx	r0, r3, #0, #9
 8001c00:	2100      	movs	r1, #0
 8001c02:	4b47      	ldr	r3, [pc, #284]	; (8001d20 <HAL_RCC_GetSysClockFreq+0x188>)
 8001c04:	fb03 f201 	mul.w	r2, r3, r1
 8001c08:	2300      	movs	r3, #0
 8001c0a:	fb00 f303 	mul.w	r3, r0, r3
 8001c0e:	4413      	add	r3, r2
 8001c10:	4a43      	ldr	r2, [pc, #268]	; (8001d20 <HAL_RCC_GetSysClockFreq+0x188>)
 8001c12:	fba0 1202 	umull	r1, r2, r0, r2
 8001c16:	62fa      	str	r2, [r7, #44]	; 0x2c
 8001c18:	460a      	mov	r2, r1
 8001c1a:	62ba      	str	r2, [r7, #40]	; 0x28
 8001c1c:	6afa      	ldr	r2, [r7, #44]	; 0x2c
 8001c1e:	4413      	add	r3, r2
 8001c20:	62fb      	str	r3, [r7, #44]	; 0x2c
 8001c22:	6b7b      	ldr	r3, [r7, #52]	; 0x34
 8001c24:	2200      	movs	r2, #0
 8001c26:	61bb      	str	r3, [r7, #24]
 8001c28:	61fa      	str	r2, [r7, #28]
 8001c2a:	e9d7 2306 	ldrd	r2, r3, [r7, #24]
 8001c2e:	e9d7 010a 	ldrd	r0, r1, [r7, #40]	; 0x28
 8001c32:	f7fe fb25 	bl	8000280 <__aeabi_uldivmod>
 8001c36:	4602      	mov	r2, r0
 8001c38:	460b      	mov	r3, r1
 8001c3a:	4613      	mov	r3, r2
 8001c3c:	63fb      	str	r3, [r7, #60]	; 0x3c
 8001c3e:	e053      	b.n	8001ce8 <HAL_RCC_GetSysClockFreq+0x150>
      }
      else
      {
        /* HSI used as PLL clock source */
        pllvco = (uint32_t) ((((uint64_t) HSI_VALUE * ((uint64_t) ((RCC->PLLCFGR & RCC_PLLCFGR_PLLN) >> RCC_PLLCFGR_PLLN_Pos)))) / (uint64_t)pllm);
 8001c40:	4b35      	ldr	r3, [pc, #212]	; (8001d18 <HAL_RCC_GetSysClockFreq+0x180>)
 8001c42:	685b      	ldr	r3, [r3, #4]
 8001c44:	099b      	lsrs	r3, r3, #6
 8001c46:	2200      	movs	r2, #0
 8001c48:	613b      	str	r3, [r7, #16]
 8001c4a:	617a      	str	r2, [r7, #20]
 8001c4c:	693b      	ldr	r3, [r7, #16]
 8001c4e:	f3c3 0a08 	ubfx	sl, r3, #0, #9
 8001c52:	f04f 0b00 	mov.w	fp, #0
 8001c56:	4652      	mov	r2, sl
 8001c58:	465b      	mov	r3, fp
 8001c5a:	f04f 0000 	mov.w	r0, #0
 8001c5e:	f04f 0100 	mov.w	r1, #0
 8001c62:	0159      	lsls	r1, r3, #5
 8001c64:	ea41 61d2 	orr.w	r1, r1, r2, lsr #27
 8001c68:	0150      	lsls	r0, r2, #5
 8001c6a:	4602      	mov	r2, r0
 8001c6c:	460b      	mov	r3, r1
 8001c6e:	ebb2 080a 	subs.w	r8, r2, sl
 8001c72:	eb63 090b 	sbc.w	r9, r3, fp
 8001c76:	f04f 0200 	mov.w	r2, #0
 8001c7a:	f04f 0300 	mov.w	r3, #0
 8001c7e:	ea4f 1389 	mov.w	r3, r9, lsl #6
 8001c82:	ea43 6398 	orr.w	r3, r3, r8, lsr #26
 8001c86:	ea4f 1288 	mov.w	r2, r8, lsl #6
 8001c8a:	ebb2 0408 	subs.w	r4, r2, r8
 8001c8e:	eb63 0509 	sbc.w	r5, r3, r9
 8001c92:	f04f 0200 	mov.w	r2, #0
 8001c96:	f04f 0300 	mov.w	r3, #0
 8001c9a:	00eb      	lsls	r3, r5, #3
 8001c9c:	ea43 7354 	orr.w	r3, r3, r4, lsr #29
 8001ca0:	00e2      	lsls	r2, r4, #3
 8001ca2:	4614      	mov	r4, r2
 8001ca4:	461d      	mov	r5, r3
 8001ca6:	eb14 030a 	adds.w	r3, r4, sl
 8001caa:	603b      	str	r3, [r7, #0]
 8001cac:	eb45 030b 	adc.w	r3, r5, fp
 8001cb0:	607b      	str	r3, [r7, #4]
 8001cb2:	f04f 0200 	mov.w	r2, #0
 8001cb6:	f04f 0300 	mov.w	r3, #0
 8001cba:	e9d7 4500 	ldrd	r4, r5, [r7]
 8001cbe:	4629      	mov	r1, r5
 8001cc0:	028b      	lsls	r3, r1, #10
 8001cc2:	4621      	mov	r1, r4
 8001cc4:	ea43 5391 	orr.w	r3, r3, r1, lsr #22
 8001cc8:	4621      	mov	r1, r4
 8001cca:	028a      	lsls	r2, r1, #10
 8001ccc:	4610      	mov	r0, r2
 8001cce:	4619      	mov	r1, r3
 8001cd0:	6b7b      	ldr	r3, [r7, #52]	; 0x34
 8001cd2:	2200      	movs	r2, #0
 8001cd4:	60bb      	str	r3, [r7, #8]
 8001cd6:	60fa      	str	r2, [r7, #12]
 8001cd8:	e9d7 2302 	ldrd	r2, r3, [r7, #8]
 8001cdc:	f7fe fad0 	bl	8000280 <__aeabi_uldivmod>
 8001ce0:	4602      	mov	r2, r0
 8001ce2:	460b      	mov	r3, r1
 8001ce4:	4613      	mov	r3, r2
 8001ce6:	63fb      	str	r3, [r7, #60]	; 0x3c
      }
      pllp = ((((RCC->PLLCFGR & RCC_PLLCFGR_PLLP) >> RCC_PLLCFGR_PLLP_Pos) + 1U) *2U);
 8001ce8:	4b0b      	ldr	r3, [pc, #44]	; (8001d18 <HAL_RCC_GetSysClockFreq+0x180>)
 8001cea:	685b      	ldr	r3, [r3, #4]
 8001cec:	0c1b      	lsrs	r3, r3, #16
 8001cee:	f003 0303 	and.w	r3, r3, #3
 8001cf2:	3301      	adds	r3, #1
 8001cf4:	005b      	lsls	r3, r3, #1
 8001cf6:	633b      	str	r3, [r7, #48]	; 0x30

      sysclockfreq = pllvco/pllp;
 8001cf8:	6bfa      	ldr	r2, [r7, #60]	; 0x3c
 8001cfa:	6b3b      	ldr	r3, [r7, #48]	; 0x30
 8001cfc:	fbb2 f3f3 	udiv	r3, r2, r3
 8001d00:	63bb      	str	r3, [r7, #56]	; 0x38
      break;
 8001d02:	e002      	b.n	8001d0a <HAL_RCC_GetSysClockFreq+0x172>
    }
    default:
    {
      sysclockfreq = HSI_VALUE;
 8001d04:	4b05      	ldr	r3, [pc, #20]	; (8001d1c <HAL_RCC_GetSysClockFreq+0x184>)
 8001d06:	63bb      	str	r3, [r7, #56]	; 0x38
      break;
 8001d08:	bf00      	nop
    }
  }
  return sysclockfreq;
 8001d0a:	6bbb      	ldr	r3, [r7, #56]	; 0x38
}
 8001d0c:	4618      	mov	r0, r3
 8001d0e:	3740      	adds	r7, #64	; 0x40
 8001d10:	46bd      	mov	sp, r7
 8001d12:	e8bd 8fb0 	ldmia.w	sp!, {r4, r5, r7, r8, r9, sl, fp, pc}
 8001d16:	bf00      	nop
 8001d18:	40023800 	.word	0x40023800
 8001d1c:	00f42400 	.word	0x00f42400
 8001d20:	018cba80 	.word	0x018cba80

08001d24 <HAL_RCC_GetHCLKFreq>:
  * @note   The SystemCoreClock CMSIS variable is used to store System Clock Frequency
  *         and updated within this function
  * @retval HCLK frequency
  */
uint32_t HAL_RCC_GetHCLKFreq(void)
{
 8001d24:	b480      	push	{r7}
 8001d26:	af00      	add	r7, sp, #0
  return SystemCoreClock;
 8001d28:	4b03      	ldr	r3, [pc, #12]	; (8001d38 <HAL_RCC_GetHCLKFreq+0x14>)
 8001d2a:	681b      	ldr	r3, [r3, #0]
}
 8001d2c:	4618      	mov	r0, r3
 8001d2e:	46bd      	mov	sp, r7
 8001d30:	f85d 7b04 	ldr.w	r7, [sp], #4
 8001d34:	4770      	bx	lr
 8001d36:	bf00      	nop
 8001d38:	20000000 	.word	0x20000000

08001d3c <HAL_RCC_GetPCLK1Freq>:
  * @note   Each time PCLK1 changes, this function must be called to update the
  *         right PCLK1 value. Otherwise, any configuration based on this function will be incorrect.
  * @retval PCLK1 frequency
  */
uint32_t HAL_RCC_GetPCLK1Freq(void)
{
 8001d3c:	b580      	push	{r7, lr}
 8001d3e:	af00      	add	r7, sp, #0
  /* Get HCLK source and Compute PCLK1 frequency ---------------------------*/
  return (HAL_RCC_GetHCLKFreq() >> APBPrescTable[(RCC->CFGR & RCC_CFGR_PPRE1)>> RCC_CFGR_PPRE1_Pos]);
 8001d40:	f7ff fff0 	bl	8001d24 <HAL_RCC_GetHCLKFreq>
 8001d44:	4602      	mov	r2, r0
 8001d46:	4b05      	ldr	r3, [pc, #20]	; (8001d5c <HAL_RCC_GetPCLK1Freq+0x20>)
 8001d48:	689b      	ldr	r3, [r3, #8]
 8001d4a:	0a9b      	lsrs	r3, r3, #10
 8001d4c:	f003 0307 	and.w	r3, r3, #7
 8001d50:	4903      	ldr	r1, [pc, #12]	; (8001d60 <HAL_RCC_GetPCLK1Freq+0x24>)
 8001d52:	5ccb      	ldrb	r3, [r1, r3]
 8001d54:	fa22 f303 	lsr.w	r3, r2, r3
}
 8001d58:	4618      	mov	r0, r3
 8001d5a:	bd80      	pop	{r7, pc}
 8001d5c:	40023800 	.word	0x40023800
 8001d60:	080030e0 	.word	0x080030e0

08001d64 <HAL_RCC_GetPCLK2Freq>:
  * @note   Each time PCLK2 changes, this function must be called to update the
  *         right PCLK2 value. Otherwise, any configuration based on this function will be incorrect.
  * @retval PCLK2 frequency
  */
uint32_t HAL_RCC_GetPCLK2Freq(void)
{
 8001d64:	b580      	push	{r7, lr}
 8001d66:	af00      	add	r7, sp, #0
  /* Get HCLK source and Compute PCLK2 frequency ---------------------------*/
  return (HAL_RCC_GetHCLKFreq()>> APBPrescTable[(RCC->CFGR & RCC_CFGR_PPRE2)>> RCC_CFGR_PPRE2_Pos]);
 8001d68:	f7ff ffdc 	bl	8001d24 <HAL_RCC_GetHCLKFreq>
 8001d6c:	4602      	mov	r2, r0
 8001d6e:	4b05      	ldr	r3, [pc, #20]	; (8001d84 <HAL_RCC_GetPCLK2Freq+0x20>)
 8001d70:	689b      	ldr	r3, [r3, #8]
 8001d72:	0b5b      	lsrs	r3, r3, #13
 8001d74:	f003 0307 	and.w	r3, r3, #7
 8001d78:	4903      	ldr	r1, [pc, #12]	; (8001d88 <HAL_RCC_GetPCLK2Freq+0x24>)
 8001d7a:	5ccb      	ldrb	r3, [r1, r3]
 8001d7c:	fa22 f303 	lsr.w	r3, r2, r3
}
 8001d80:	4618      	mov	r0, r3
 8001d82:	bd80      	pop	{r7, pc}
 8001d84:	40023800 	.word	0x40023800
 8001d88:	080030e0 	.word	0x080030e0

08001d8c <HAL_UART_Init>:
  * @param  huart  Pointer to a UART_HandleTypeDef structure that contains
  *                the configuration information for the specified UART module.
  * @retval HAL status
  */
HAL_StatusTypeDef HAL_UART_Init(UART_HandleTypeDef *huart)
{
 8001d8c:	b580      	push	{r7, lr}
 8001d8e:	b082      	sub	sp, #8
 8001d90:	af00      	add	r7, sp, #0
 8001d92:	6078      	str	r0, [r7, #4]
  /* Check the UART handle allocation */
  if (huart == NULL)
 8001d94:	687b      	ldr	r3, [r7, #4]
 8001d96:	2b00      	cmp	r3, #0
 8001d98:	d101      	bne.n	8001d9e <HAL_UART_Init+0x12>
  {
    return HAL_ERROR;
 8001d9a:	2301      	movs	r3, #1
 8001d9c:	e03f      	b.n	8001e1e <HAL_UART_Init+0x92>
    assert_param(IS_UART_INSTANCE(huart->Instance));
  }
  assert_param(IS_UART_WORD_LENGTH(huart->Init.WordLength));
  assert_param(IS_UART_OVERSAMPLING(huart->Init.OverSampling));

  if (huart->gState == HAL_UART_STATE_RESET)
 8001d9e:	687b      	ldr	r3, [r7, #4]
 8001da0:	f893 303d 	ldrb.w	r3, [r3, #61]	; 0x3d
 8001da4:	b2db      	uxtb	r3, r3
 8001da6:	2b00      	cmp	r3, #0
 8001da8:	d106      	bne.n	8001db8 <HAL_UART_Init+0x2c>
  {
    /* Allocate lock resource and initialize it */
    huart->Lock = HAL_UNLOCKED;
 8001daa:	687b      	ldr	r3, [r7, #4]
 8001dac:	2200      	movs	r2, #0
 8001dae:	f883 203c 	strb.w	r2, [r3, #60]	; 0x3c

    /* Init the low level hardware */
    huart->MspInitCallback(huart);
#else
    /* Init the low level hardware : GPIO, CLOCK */
    HAL_UART_MspInit(huart);
 8001db2:	6878      	ldr	r0, [r7, #4]
 8001db4:	f7fe ff46 	bl	8000c44 <HAL_UART_MspInit>
#endif /* (USE_HAL_UART_REGISTER_CALLBACKS) */
  }

  huart->gState = HAL_UART_STATE_BUSY;
 8001db8:	687b      	ldr	r3, [r7, #4]
 8001dba:	2224      	movs	r2, #36	; 0x24
 8001dbc:	f883 203d 	strb.w	r2, [r3, #61]	; 0x3d

  /* Disable the peripheral */
  __HAL_UART_DISABLE(huart);
 8001dc0:	687b      	ldr	r3, [r7, #4]
 8001dc2:	681b      	ldr	r3, [r3, #0]
 8001dc4:	68da      	ldr	r2, [r3, #12]
 8001dc6:	687b      	ldr	r3, [r7, #4]
 8001dc8:	681b      	ldr	r3, [r3, #0]
 8001dca:	f422 5200 	bic.w	r2, r2, #8192	; 0x2000
 8001dce:	60da      	str	r2, [r3, #12]

  /* Set the UART Communication parameters */
  UART_SetConfig(huart);
 8001dd0:	6878      	ldr	r0, [r7, #4]
 8001dd2:	f000 f9cb 	bl	800216c <UART_SetConfig>

  /* In asynchronous mode, the following bits must be kept cleared:
     - LINEN and CLKEN bits in the USART_CR2 register,
     - SCEN, HDSEL and IREN  bits in the USART_CR3 register.*/
  CLEAR_BIT(huart->Instance->CR2, (USART_CR2_LINEN | USART_CR2_CLKEN));
 8001dd6:	687b      	ldr	r3, [r7, #4]
 8001dd8:	681b      	ldr	r3, [r3, #0]
 8001dda:	691a      	ldr	r2, [r3, #16]
 8001ddc:	687b      	ldr	r3, [r7, #4]
 8001dde:	681b      	ldr	r3, [r3, #0]
 8001de0:	f422 4290 	bic.w	r2, r2, #18432	; 0x4800
 8001de4:	611a      	str	r2, [r3, #16]
  CLEAR_BIT(huart->Instance->CR3, (USART_CR3_SCEN | USART_CR3_HDSEL | USART_CR3_IREN));
 8001de6:	687b      	ldr	r3, [r7, #4]
 8001de8:	681b      	ldr	r3, [r3, #0]
 8001dea:	695a      	ldr	r2, [r3, #20]
 8001dec:	687b      	ldr	r3, [r7, #4]
 8001dee:	681b      	ldr	r3, [r3, #0]
 8001df0:	f022 022a 	bic.w	r2, r2, #42	; 0x2a
 8001df4:	615a      	str	r2, [r3, #20]

  /* Enable the peripheral */
  __HAL_UART_ENABLE(huart);
 8001df6:	687b      	ldr	r3, [r7, #4]
 8001df8:	681b      	ldr	r3, [r3, #0]
 8001dfa:	68da      	ldr	r2, [r3, #12]
 8001dfc:	687b      	ldr	r3, [r7, #4]
 8001dfe:	681b      	ldr	r3, [r3, #0]
 8001e00:	f442 5200 	orr.w	r2, r2, #8192	; 0x2000
 8001e04:	60da      	str	r2, [r3, #12]

  /* Initialize the UART state */
  huart->ErrorCode = HAL_UART_ERROR_NONE;
 8001e06:	687b      	ldr	r3, [r7, #4]
 8001e08:	2200      	movs	r2, #0
 8001e0a:	641a      	str	r2, [r3, #64]	; 0x40
  huart->gState = HAL_UART_STATE_READY;
 8001e0c:	687b      	ldr	r3, [r7, #4]
 8001e0e:	2220      	movs	r2, #32
 8001e10:	f883 203d 	strb.w	r2, [r3, #61]	; 0x3d
  huart->RxState = HAL_UART_STATE_READY;
 8001e14:	687b      	ldr	r3, [r7, #4]
 8001e16:	2220      	movs	r2, #32
 8001e18:	f883 203e 	strb.w	r2, [r3, #62]	; 0x3e

  return HAL_OK;
 8001e1c:	2300      	movs	r3, #0
}
 8001e1e:	4618      	mov	r0, r3
 8001e20:	3708      	adds	r7, #8
 8001e22:	46bd      	mov	sp, r7
 8001e24:	bd80      	pop	{r7, pc}

08001e26 <HAL_UART_Transmit>:
  * @param  Size  Amount of data elements (u8 or u16) to be sent
  * @param  Timeout Timeout duration
  * @retval HAL status
  */
HAL_StatusTypeDef HAL_UART_Transmit(UART_HandleTypeDef *huart, const uint8_t *pData, uint16_t Size, uint32_t Timeout)
{
 8001e26:	b580      	push	{r7, lr}
 8001e28:	b08a      	sub	sp, #40	; 0x28
 8001e2a:	af02      	add	r7, sp, #8
 8001e2c:	60f8      	str	r0, [r7, #12]
 8001e2e:	60b9      	str	r1, [r7, #8]
 8001e30:	603b      	str	r3, [r7, #0]
 8001e32:	4613      	mov	r3, r2
 8001e34:	80fb      	strh	r3, [r7, #6]
  const uint8_t  *pdata8bits;
  const uint16_t *pdata16bits;
  uint32_t tickstart = 0U;
 8001e36:	2300      	movs	r3, #0
 8001e38:	617b      	str	r3, [r7, #20]

  /* Check that a Tx process is not already ongoing */
  if (huart->gState == HAL_UART_STATE_READY)
 8001e3a:	68fb      	ldr	r3, [r7, #12]
 8001e3c:	f893 303d 	ldrb.w	r3, [r3, #61]	; 0x3d
 8001e40:	b2db      	uxtb	r3, r3
 8001e42:	2b20      	cmp	r3, #32
 8001e44:	d17c      	bne.n	8001f40 <HAL_UART_Transmit+0x11a>
  {
    if ((pData == NULL) || (Size == 0U))
 8001e46:	68bb      	ldr	r3, [r7, #8]
 8001e48:	2b00      	cmp	r3, #0
 8001e4a:	d002      	beq.n	8001e52 <HAL_UART_Transmit+0x2c>
 8001e4c:	88fb      	ldrh	r3, [r7, #6]
 8001e4e:	2b00      	cmp	r3, #0
 8001e50:	d101      	bne.n	8001e56 <HAL_UART_Transmit+0x30>
    {
      return  HAL_ERROR;
 8001e52:	2301      	movs	r3, #1
 8001e54:	e075      	b.n	8001f42 <HAL_UART_Transmit+0x11c>
    }

    /* Process Locked */
    __HAL_LOCK(huart);
 8001e56:	68fb      	ldr	r3, [r7, #12]
 8001e58:	f893 303c 	ldrb.w	r3, [r3, #60]	; 0x3c
 8001e5c:	2b01      	cmp	r3, #1
 8001e5e:	d101      	bne.n	8001e64 <HAL_UART_Transmit+0x3e>
 8001e60:	2302      	movs	r3, #2
 8001e62:	e06e      	b.n	8001f42 <HAL_UART_Transmit+0x11c>
 8001e64:	68fb      	ldr	r3, [r7, #12]
 8001e66:	2201      	movs	r2, #1
 8001e68:	f883 203c 	strb.w	r2, [r3, #60]	; 0x3c

    huart->ErrorCode = HAL_UART_ERROR_NONE;
 8001e6c:	68fb      	ldr	r3, [r7, #12]
 8001e6e:	2200      	movs	r2, #0
 8001e70:	641a      	str	r2, [r3, #64]	; 0x40
    huart->gState = HAL_UART_STATE_BUSY_TX;
 8001e72:	68fb      	ldr	r3, [r7, #12]
 8001e74:	2221      	movs	r2, #33	; 0x21
 8001e76:	f883 203d 	strb.w	r2, [r3, #61]	; 0x3d

    /* Init tickstart for timeout management */
    tickstart = HAL_GetTick();
 8001e7a:	f7ff f863 	bl	8000f44 <HAL_GetTick>
 8001e7e:	6178      	str	r0, [r7, #20]

    huart->TxXferSize = Size;
 8001e80:	68fb      	ldr	r3, [r7, #12]
 8001e82:	88fa      	ldrh	r2, [r7, #6]
 8001e84:	849a      	strh	r2, [r3, #36]	; 0x24
    huart->TxXferCount = Size;
 8001e86:	68fb      	ldr	r3, [r7, #12]
 8001e88:	88fa      	ldrh	r2, [r7, #6]
 8001e8a:	84da      	strh	r2, [r3, #38]	; 0x26

    /* In case of 9bits/No Parity transfer, pData needs to be handled as a uint16_t pointer */
    if ((huart->Init.WordLength == UART_WORDLENGTH_9B) && (huart->Init.Parity == UART_PARITY_NONE))
 8001e8c:	68fb      	ldr	r3, [r7, #12]
 8001e8e:	689b      	ldr	r3, [r3, #8]
 8001e90:	f5b3 5f80 	cmp.w	r3, #4096	; 0x1000
 8001e94:	d108      	bne.n	8001ea8 <HAL_UART_Transmit+0x82>
 8001e96:	68fb      	ldr	r3, [r7, #12]
 8001e98:	691b      	ldr	r3, [r3, #16]
 8001e9a:	2b00      	cmp	r3, #0
 8001e9c:	d104      	bne.n	8001ea8 <HAL_UART_Transmit+0x82>
    {
      pdata8bits  = NULL;
 8001e9e:	2300      	movs	r3, #0
 8001ea0:	61fb      	str	r3, [r7, #28]
      pdata16bits = (const uint16_t *) pData;
 8001ea2:	68bb      	ldr	r3, [r7, #8]
 8001ea4:	61bb      	str	r3, [r7, #24]
 8001ea6:	e003      	b.n	8001eb0 <HAL_UART_Transmit+0x8a>
    }
    else
    {
      pdata8bits  = pData;
 8001ea8:	68bb      	ldr	r3, [r7, #8]
 8001eaa:	61fb      	str	r3, [r7, #28]
      pdata16bits = NULL;
 8001eac:	2300      	movs	r3, #0
 8001eae:	61bb      	str	r3, [r7, #24]
    }

    /* Process Unlocked */
    __HAL_UNLOCK(huart);
 8001eb0:	68fb      	ldr	r3, [r7, #12]
 8001eb2:	2200      	movs	r2, #0
 8001eb4:	f883 203c 	strb.w	r2, [r3, #60]	; 0x3c

    while (huart->TxXferCount > 0U)
 8001eb8:	e02a      	b.n	8001f10 <HAL_UART_Transmit+0xea>
    {
      if (UART_WaitOnFlagUntilTimeout(huart, UART_FLAG_TXE, RESET, tickstart, Timeout) != HAL_OK)
 8001eba:	683b      	ldr	r3, [r7, #0]
 8001ebc:	9300      	str	r3, [sp, #0]
 8001ebe:	697b      	ldr	r3, [r7, #20]
 8001ec0:	2200      	movs	r2, #0
 8001ec2:	2180      	movs	r1, #128	; 0x80
 8001ec4:	68f8      	ldr	r0, [r7, #12]
 8001ec6:	f000 f8e2 	bl	800208e <UART_WaitOnFlagUntilTimeout>
 8001eca:	4603      	mov	r3, r0
 8001ecc:	2b00      	cmp	r3, #0
 8001ece:	d001      	beq.n	8001ed4 <HAL_UART_Transmit+0xae>
      {
        return HAL_TIMEOUT;
 8001ed0:	2303      	movs	r3, #3
 8001ed2:	e036      	b.n	8001f42 <HAL_UART_Transmit+0x11c>
      }
      if (pdata8bits == NULL)
 8001ed4:	69fb      	ldr	r3, [r7, #28]
 8001ed6:	2b00      	cmp	r3, #0
 8001ed8:	d10b      	bne.n	8001ef2 <HAL_UART_Transmit+0xcc>
      {
        huart->Instance->DR = (uint16_t)(*pdata16bits & 0x01FFU);
 8001eda:	69bb      	ldr	r3, [r7, #24]
 8001edc:	881b      	ldrh	r3, [r3, #0]
 8001ede:	461a      	mov	r2, r3
 8001ee0:	68fb      	ldr	r3, [r7, #12]
 8001ee2:	681b      	ldr	r3, [r3, #0]
 8001ee4:	f3c2 0208 	ubfx	r2, r2, #0, #9
 8001ee8:	605a      	str	r2, [r3, #4]
        pdata16bits++;
 8001eea:	69bb      	ldr	r3, [r7, #24]
 8001eec:	3302      	adds	r3, #2
 8001eee:	61bb      	str	r3, [r7, #24]
 8001ef0:	e007      	b.n	8001f02 <HAL_UART_Transmit+0xdc>
      }
      else
      {
        huart->Instance->DR = (uint8_t)(*pdata8bits & 0xFFU);
 8001ef2:	69fb      	ldr	r3, [r7, #28]
 8001ef4:	781a      	ldrb	r2, [r3, #0]
 8001ef6:	68fb      	ldr	r3, [r7, #12]
 8001ef8:	681b      	ldr	r3, [r3, #0]
 8001efa:	605a      	str	r2, [r3, #4]
        pdata8bits++;
 8001efc:	69fb      	ldr	r3, [r7, #28]
 8001efe:	3301      	adds	r3, #1
 8001f00:	61fb      	str	r3, [r7, #28]
      }
      huart->TxXferCount--;
 8001f02:	68fb      	ldr	r3, [r7, #12]
 8001f04:	8cdb      	ldrh	r3, [r3, #38]	; 0x26
 8001f06:	b29b      	uxth	r3, r3
 8001f08:	3b01      	subs	r3, #1
 8001f0a:	b29a      	uxth	r2, r3
 8001f0c:	68fb      	ldr	r3, [r7, #12]
 8001f0e:	84da      	strh	r2, [r3, #38]	; 0x26
    while (huart->TxXferCount > 0U)
 8001f10:	68fb      	ldr	r3, [r7, #12]
 8001f12:	8cdb      	ldrh	r3, [r3, #38]	; 0x26
 8001f14:	b29b      	uxth	r3, r3
 8001f16:	2b00      	cmp	r3, #0
 8001f18:	d1cf      	bne.n	8001eba <HAL_UART_Transmit+0x94>
    }

    if (UART_WaitOnFlagUntilTimeout(huart, UART_FLAG_TC, RESET, tickstart, Timeout) != HAL_OK)
 8001f1a:	683b      	ldr	r3, [r7, #0]
 8001f1c:	9300      	str	r3, [sp, #0]
 8001f1e:	697b      	ldr	r3, [r7, #20]
 8001f20:	2200      	movs	r2, #0
 8001f22:	2140      	movs	r1, #64	; 0x40
 8001f24:	68f8      	ldr	r0, [r7, #12]
 8001f26:	f000 f8b2 	bl	800208e <UART_WaitOnFlagUntilTimeout>
 8001f2a:	4603      	mov	r3, r0
 8001f2c:	2b00      	cmp	r3, #0
 8001f2e:	d001      	beq.n	8001f34 <HAL_UART_Transmit+0x10e>
    {
      return HAL_TIMEOUT;
 8001f30:	2303      	movs	r3, #3
 8001f32:	e006      	b.n	8001f42 <HAL_UART_Transmit+0x11c>
    }

    /* At end of Tx process, restore huart->gState to Ready */
    huart->gState = HAL_UART_STATE_READY;
 8001f34:	68fb      	ldr	r3, [r7, #12]
 8001f36:	2220      	movs	r2, #32
 8001f38:	f883 203d 	strb.w	r2, [r3, #61]	; 0x3d

    return HAL_OK;
 8001f3c:	2300      	movs	r3, #0
 8001f3e:	e000      	b.n	8001f42 <HAL_UART_Transmit+0x11c>
  }
  else
  {
    return HAL_BUSY;
 8001f40:	2302      	movs	r3, #2
  }
}
 8001f42:	4618      	mov	r0, r3
 8001f44:	3720      	adds	r7, #32
 8001f46:	46bd      	mov	sp, r7
 8001f48:	bd80      	pop	{r7, pc}

08001f4a <HAL_UART_Receive>:
  * @param  Size  Amount of data elements (u8 or u16) to be received.
  * @param  Timeout Timeout duration
  * @retval HAL status
  */
HAL_StatusTypeDef HAL_UART_Receive(UART_HandleTypeDef *huart, uint8_t *pData, uint16_t Size, uint32_t Timeout)
{
 8001f4a:	b580      	push	{r7, lr}
 8001f4c:	b08a      	sub	sp, #40	; 0x28
 8001f4e:	af02      	add	r7, sp, #8
 8001f50:	60f8      	str	r0, [r7, #12]
 8001f52:	60b9      	str	r1, [r7, #8]
 8001f54:	603b      	str	r3, [r7, #0]
 8001f56:	4613      	mov	r3, r2
 8001f58:	80fb      	strh	r3, [r7, #6]
  uint8_t  *pdata8bits;
  uint16_t *pdata16bits;
  uint32_t tickstart = 0U;
 8001f5a:	2300      	movs	r3, #0
 8001f5c:	617b      	str	r3, [r7, #20]

  /* Check that a Rx process is not already ongoing */
  if (huart->RxState == HAL_UART_STATE_READY)
 8001f5e:	68fb      	ldr	r3, [r7, #12]
 8001f60:	f893 303e 	ldrb.w	r3, [r3, #62]	; 0x3e
 8001f64:	b2db      	uxtb	r3, r3
 8001f66:	2b20      	cmp	r3, #32
 8001f68:	f040 808c 	bne.w	8002084 <HAL_UART_Receive+0x13a>
  {
    if ((pData == NULL) || (Size == 0U))
 8001f6c:	68bb      	ldr	r3, [r7, #8]
 8001f6e:	2b00      	cmp	r3, #0
 8001f70:	d002      	beq.n	8001f78 <HAL_UART_Receive+0x2e>
 8001f72:	88fb      	ldrh	r3, [r7, #6]
 8001f74:	2b00      	cmp	r3, #0
 8001f76:	d101      	bne.n	8001f7c <HAL_UART_Receive+0x32>
    {
      return  HAL_ERROR;
 8001f78:	2301      	movs	r3, #1
 8001f7a:	e084      	b.n	8002086 <HAL_UART_Receive+0x13c>
    }

    /* Process Locked */
    __HAL_LOCK(huart);
 8001f7c:	68fb      	ldr	r3, [r7, #12]
 8001f7e:	f893 303c 	ldrb.w	r3, [r3, #60]	; 0x3c
 8001f82:	2b01      	cmp	r3, #1
 8001f84:	d101      	bne.n	8001f8a <HAL_UART_Receive+0x40>
 8001f86:	2302      	movs	r3, #2
 8001f88:	e07d      	b.n	8002086 <HAL_UART_Receive+0x13c>
 8001f8a:	68fb      	ldr	r3, [r7, #12]
 8001f8c:	2201      	movs	r2, #1
 8001f8e:	f883 203c 	strb.w	r2, [r3, #60]	; 0x3c

    huart->ErrorCode = HAL_UART_ERROR_NONE;
 8001f92:	68fb      	ldr	r3, [r7, #12]
 8001f94:	2200      	movs	r2, #0
 8001f96:	641a      	str	r2, [r3, #64]	; 0x40
    huart->RxState = HAL_UART_STATE_BUSY_RX;
 8001f98:	68fb      	ldr	r3, [r7, #12]
 8001f9a:	2222      	movs	r2, #34	; 0x22
 8001f9c:	f883 203e 	strb.w	r2, [r3, #62]	; 0x3e
    huart->ReceptionType = HAL_UART_RECEPTION_STANDARD;
 8001fa0:	68fb      	ldr	r3, [r7, #12]
 8001fa2:	2200      	movs	r2, #0
 8001fa4:	631a      	str	r2, [r3, #48]	; 0x30

    /* Init tickstart for timeout management */
    tickstart = HAL_GetTick();
 8001fa6:	f7fe ffcd 	bl	8000f44 <HAL_GetTick>
 8001faa:	6178      	str	r0, [r7, #20]

    huart->RxXferSize = Size;
 8001fac:	68fb      	ldr	r3, [r7, #12]
 8001fae:	88fa      	ldrh	r2, [r7, #6]
 8001fb0:	859a      	strh	r2, [r3, #44]	; 0x2c
    huart->RxXferCount = Size;
 8001fb2:	68fb      	ldr	r3, [r7, #12]
 8001fb4:	88fa      	ldrh	r2, [r7, #6]
 8001fb6:	85da      	strh	r2, [r3, #46]	; 0x2e

    /* In case of 9bits/No Parity transfer, pRxData needs to be handled as a uint16_t pointer */
    if ((huart->Init.WordLength == UART_WORDLENGTH_9B) && (huart->Init.Parity == UART_PARITY_NONE))
 8001fb8:	68fb      	ldr	r3, [r7, #12]
 8001fba:	689b      	ldr	r3, [r3, #8]
 8001fbc:	f5b3 5f80 	cmp.w	r3, #4096	; 0x1000
 8001fc0:	d108      	bne.n	8001fd4 <HAL_UART_Receive+0x8a>
 8001fc2:	68fb      	ldr	r3, [r7, #12]
 8001fc4:	691b      	ldr	r3, [r3, #16]
 8001fc6:	2b00      	cmp	r3, #0
 8001fc8:	d104      	bne.n	8001fd4 <HAL_UART_Receive+0x8a>
    {
      pdata8bits  = NULL;
 8001fca:	2300      	movs	r3, #0
 8001fcc:	61fb      	str	r3, [r7, #28]
      pdata16bits = (uint16_t *) pData;
 8001fce:	68bb      	ldr	r3, [r7, #8]
 8001fd0:	61bb      	str	r3, [r7, #24]
 8001fd2:	e003      	b.n	8001fdc <HAL_UART_Receive+0x92>
    }
    else
    {
      pdata8bits  = pData;
 8001fd4:	68bb      	ldr	r3, [r7, #8]
 8001fd6:	61fb      	str	r3, [r7, #28]
      pdata16bits = NULL;
 8001fd8:	2300      	movs	r3, #0
 8001fda:	61bb      	str	r3, [r7, #24]
    }

    /* Process Unlocked */
    __HAL_UNLOCK(huart);
 8001fdc:	68fb      	ldr	r3, [r7, #12]
 8001fde:	2200      	movs	r2, #0
 8001fe0:	f883 203c 	strb.w	r2, [r3, #60]	; 0x3c

    /* Check the remain data to be received */
    while (huart->RxXferCount > 0U)
 8001fe4:	e043      	b.n	800206e <HAL_UART_Receive+0x124>
    {
      if (UART_WaitOnFlagUntilTimeout(huart, UART_FLAG_RXNE, RESET, tickstart, Timeout) != HAL_OK)
 8001fe6:	683b      	ldr	r3, [r7, #0]
 8001fe8:	9300      	str	r3, [sp, #0]
 8001fea:	697b      	ldr	r3, [r7, #20]
 8001fec:	2200      	movs	r2, #0
 8001fee:	2120      	movs	r1, #32
 8001ff0:	68f8      	ldr	r0, [r7, #12]
 8001ff2:	f000 f84c 	bl	800208e <UART_WaitOnFlagUntilTimeout>
 8001ff6:	4603      	mov	r3, r0
 8001ff8:	2b00      	cmp	r3, #0
 8001ffa:	d001      	beq.n	8002000 <HAL_UART_Receive+0xb6>
      {
        return HAL_TIMEOUT;
 8001ffc:	2303      	movs	r3, #3
 8001ffe:	e042      	b.n	8002086 <HAL_UART_Receive+0x13c>
      }
      if (pdata8bits == NULL)
 8002000:	69fb      	ldr	r3, [r7, #28]
 8002002:	2b00      	cmp	r3, #0
 8002004:	d10c      	bne.n	8002020 <HAL_UART_Receive+0xd6>
      {
        *pdata16bits = (uint16_t)(huart->Instance->DR & 0x01FF);
 8002006:	68fb      	ldr	r3, [r7, #12]
 8002008:	681b      	ldr	r3, [r3, #0]
 800200a:	685b      	ldr	r3, [r3, #4]
 800200c:	b29b      	uxth	r3, r3
 800200e:	f3c3 0308 	ubfx	r3, r3, #0, #9
 8002012:	b29a      	uxth	r2, r3
 8002014:	69bb      	ldr	r3, [r7, #24]
 8002016:	801a      	strh	r2, [r3, #0]
        pdata16bits++;
 8002018:	69bb      	ldr	r3, [r7, #24]
 800201a:	3302      	adds	r3, #2
 800201c:	61bb      	str	r3, [r7, #24]
 800201e:	e01f      	b.n	8002060 <HAL_UART_Receive+0x116>
      }
      else
      {
        if ((huart->Init.WordLength == UART_WORDLENGTH_9B) || ((huart->Init.WordLength == UART_WORDLENGTH_8B) && (huart->Init.Parity == UART_PARITY_NONE)))
 8002020:	68fb      	ldr	r3, [r7, #12]
 8002022:	689b      	ldr	r3, [r3, #8]
 8002024:	f5b3 5f80 	cmp.w	r3, #4096	; 0x1000
 8002028:	d007      	beq.n	800203a <HAL_UART_Receive+0xf0>
 800202a:	68fb      	ldr	r3, [r7, #12]
 800202c:	689b      	ldr	r3, [r3, #8]
 800202e:	2b00      	cmp	r3, #0
 8002030:	d10a      	bne.n	8002048 <HAL_UART_Receive+0xfe>
 8002032:	68fb      	ldr	r3, [r7, #12]
 8002034:	691b      	ldr	r3, [r3, #16]
 8002036:	2b00      	cmp	r3, #0
 8002038:	d106      	bne.n	8002048 <HAL_UART_Receive+0xfe>
        {
          *pdata8bits = (uint8_t)(huart->Instance->DR & (uint8_t)0x00FF);
 800203a:	68fb      	ldr	r3, [r7, #12]
 800203c:	681b      	ldr	r3, [r3, #0]
 800203e:	685b      	ldr	r3, [r3, #4]
 8002040:	b2da      	uxtb	r2, r3
 8002042:	69fb      	ldr	r3, [r7, #28]
 8002044:	701a      	strb	r2, [r3, #0]
 8002046:	e008      	b.n	800205a <HAL_UART_Receive+0x110>
        }
        else
        {
          *pdata8bits = (uint8_t)(huart->Instance->DR & (uint8_t)0x007F);
 8002048:	68fb      	ldr	r3, [r7, #12]
 800204a:	681b      	ldr	r3, [r3, #0]
 800204c:	685b      	ldr	r3, [r3, #4]
 800204e:	b2db      	uxtb	r3, r3
 8002050:	f003 037f 	and.w	r3, r3, #127	; 0x7f
 8002054:	b2da      	uxtb	r2, r3
 8002056:	69fb      	ldr	r3, [r7, #28]
 8002058:	701a      	strb	r2, [r3, #0]
        }
        pdata8bits++;
 800205a:	69fb      	ldr	r3, [r7, #28]
 800205c:	3301      	adds	r3, #1
 800205e:	61fb      	str	r3, [r7, #28]
      }
      huart->RxXferCount--;
 8002060:	68fb      	ldr	r3, [r7, #12]
 8002062:	8ddb      	ldrh	r3, [r3, #46]	; 0x2e
 8002064:	b29b      	uxth	r3, r3
 8002066:	3b01      	subs	r3, #1
 8002068:	b29a      	uxth	r2, r3
 800206a:	68fb      	ldr	r3, [r7, #12]
 800206c:	85da      	strh	r2, [r3, #46]	; 0x2e
    while (huart->RxXferCount > 0U)
 800206e:	68fb      	ldr	r3, [r7, #12]
