
MS_LW_6.1S.elf:     file format elf32-littlearm

Sections:
Idx Name          Size      VMA       LMA       File off  Algn
  0 .isr_vector   00000188  08000000  08000000  00010000  2**0
                  CONTENTS, ALLOC, LOAD, READONLY, DATA
  1 .text         00001d88  08000188  08000188  00010188  2**2
                  CONTENTS, ALLOC, LOAD, READONLY, CODE
  2 .rodata       00000018  08001f10  08001f10  00011f10  2**2
                  CONTENTS, ALLOC, LOAD, READONLY, DATA
  3 .ARM.extab    00000000  08001f28  08001f28  0002000c  2**0
                  CONTENTS
  4 .ARM          00000008  08001f28  08001f28  00011f28  2**2
                  CONTENTS, ALLOC, LOAD, READONLY, DATA
  5 .preinit_array 00000000  08001f30  08001f30  0002000c  2**0
                  CONTENTS, ALLOC, LOAD, DATA
  6 .init_array   00000004  08001f30  08001f30  00011f30  2**2
                  CONTENTS, ALLOC, LOAD, DATA
  7 .fini_array   00000004  08001f34  08001f34  00011f34  2**2
                  CONTENTS, ALLOC, LOAD, DATA
  8 .data         0000000c  20000000  08001f38  00020000  2**2
                  CONTENTS, ALLOC, LOAD, DATA
  9 .ccmram       00000000  10000000  10000000  0002000c  2**0
                  CONTENTS
 10 .bss          00000078  2000000c  2000000c  0002000c  2**2
                  ALLOC
 11 ._user_heap_stack 00000604  20000084  20000084  0002000c  2**0
                  ALLOC
 12 .ARM.attributes 00000030  00000000  00000000  0002000c  2**0
                  CONTENTS, READONLY
 13 .debug_info   00006b8c  00000000  00000000  0002003c  2**0
                  CONTENTS, READONLY, DEBUGGING, OCTETS
 14 .debug_abbrev 000011b4  00000000  00000000  00026bc8  2**0
                  CONTENTS, READONLY, DEBUGGING, OCTETS
 15 .debug_aranges 000006a8  00000000  00000000  00027d80  2**3
                  CONTENTS, READONLY, DEBUGGING, OCTETS
 16 .debug_ranges 00000628  00000000  00000000  00028428  2**3
                  CONTENTS, READONLY, DEBUGGING, OCTETS
 17 .debug_macro  0001f2b2  00000000  00000000  00028a50  2**0
                  CONTENTS, READONLY, DEBUGGING, OCTETS
 18 .debug_line   000084e3  00000000  00000000  00047d02  2**0
                  CONTENTS, READONLY, DEBUGGING, OCTETS
 19 .debug_str    000be67d  00000000  00000000  000501e5  2**0
                  CONTENTS, READONLY, DEBUGGING, OCTETS
 20 .comment      00000050  00000000  00000000  0010e862  2**0
                  CONTENTS, READONLY
 21 .debug_frame  00001ad4  00000000  00000000  0010e8b4  2**2
                  CONTENTS, READONLY, DEBUGGING, OCTETS

Disassembly of section .text:

08000188 <__do_global_dtors_aux>:
 8000188:	b510      	push	{r4, lr}
 800018a:	4c05      	ldr	r4, [pc, #20]	; (80001a0 <__do_global_dtors_aux+0x18>)
 800018c:	7823      	ldrb	r3, [r4, #0]
 800018e:	b933      	cbnz	r3, 800019e <__do_global_dtors_aux+0x16>
 8000190:	4b04      	ldr	r3, [pc, #16]	; (80001a4 <__do_global_dtors_aux+0x1c>)
 8000192:	b113      	cbz	r3, 800019a <__do_global_dtors_aux+0x12>
 8000194:	4804      	ldr	r0, [pc, #16]	; (80001a8 <__do_global_dtors_aux+0x20>)
 8000196:	f3af 8000 	nop.w
 800019a:	2301      	movs	r3, #1
 800019c:	7023      	strb	r3, [r4, #0]
 800019e:	bd10      	pop	{r4, pc}
 80001a0:	2000000c 	.word	0x2000000c
 80001a4:	00000000 	.word	0x00000000
 80001a8:	08001ef8 	.word	0x08001ef8

080001ac <frame_dummy>:
 80001ac:	b508      	push	{r3, lr}
 80001ae:	4b03      	ldr	r3, [pc, #12]	; (80001bc <frame_dummy+0x10>)
 80001b0:	b11b      	cbz	r3, 80001ba <frame_dummy+0xe>
 80001b2:	4903      	ldr	r1, [pc, #12]	; (80001c0 <frame_dummy+0x14>)
 80001b4:	4803      	ldr	r0, [pc, #12]	; (80001c4 <frame_dummy+0x18>)
 80001b6:	f3af 8000 	nop.w
 80001ba:	bd08      	pop	{r3, pc}
 80001bc:	00000000 	.word	0x00000000
 80001c0:	20000010 	.word	0x20000010
 80001c4:	08001ef8 	.word	0x08001ef8

080001c8 <__aeabi_uldivmod>:
 80001c8:	b953      	cbnz	r3, 80001e0 <__aeabi_uldivmod+0x18>
 80001ca:	b94a      	cbnz	r2, 80001e0 <__aeabi_uldivmod+0x18>
 80001cc:	2900      	cmp	r1, #0
 80001ce:	bf08      	it	eq
 80001d0:	2800      	cmpeq	r0, #0
 80001d2:	bf1c      	itt	ne
 80001d4:	f04f 31ff 	movne.w	r1, #4294967295
 80001d8:	f04f 30ff 	movne.w	r0, #4294967295
 80001dc:	f000 b974 	b.w	80004c8 <__aeabi_idiv0>
 80001e0:	f1ad 0c08 	sub.w	ip, sp, #8
 80001e4:	e96d ce04 	strd	ip, lr, [sp, #-16]!
 80001e8:	f000 f806 	bl	80001f8 <__udivmoddi4>
 80001ec:	f8dd e004 	ldr.w	lr, [sp, #4]
 80001f0:	e9dd 2302 	ldrd	r2, r3, [sp, #8]
 80001f4:	b004      	add	sp, #16
 80001f6:	4770      	bx	lr

080001f8 <__udivmoddi4>:
 80001f8:	e92d 47f0 	stmdb	sp!, {r4, r5, r6, r7, r8, r9, sl, lr}
 80001fc:	9d08      	ldr	r5, [sp, #32]
 80001fe:	4604      	mov	r4, r0
 8000200:	468e      	mov	lr, r1
 8000202:	2b00      	cmp	r3, #0
 8000204:	d14d      	bne.n	80002a2 <__udivmoddi4+0xaa>
 8000206:	428a      	cmp	r2, r1
 8000208:	4694      	mov	ip, r2
 800020a:	d969      	bls.n	80002e0 <__udivmoddi4+0xe8>
 800020c:	fab2 f282 	clz	r2, r2
 8000210:	b152      	cbz	r2, 8000228 <__udivmoddi4+0x30>
 8000212:	fa01 f302 	lsl.w	r3, r1, r2
 8000216:	f1c2 0120 	rsb	r1, r2, #32
 800021a:	fa20 f101 	lsr.w	r1, r0, r1
 800021e:	fa0c fc02 	lsl.w	ip, ip, r2
 8000222:	ea41 0e03 	orr.w	lr, r1, r3
 8000226:	4094      	lsls	r4, r2
 8000228:	ea4f 481c 	mov.w	r8, ip, lsr #16
 800022c:	0c21      	lsrs	r1, r4, #16
 800022e:	fbbe f6f8 	udiv	r6, lr, r8
 8000232:	fa1f f78c 	uxth.w	r7, ip
 8000236:	fb08 e316 	mls	r3, r8, r6, lr
 800023a:	ea41 4303 	orr.w	r3, r1, r3, lsl #16
 800023e:	fb06 f107 	mul.w	r1, r6, r7
 8000242:	4299      	cmp	r1, r3
 8000244:	d90a      	bls.n	800025c <__udivmoddi4+0x64>
 8000246:	eb1c 0303 	adds.w	r3, ip, r3
 800024a:	f106 30ff 	add.w	r0, r6, #4294967295
 800024e:	f080 811f 	bcs.w	8000490 <__udivmoddi4+0x298>
 8000252:	4299      	cmp	r1, r3
 8000254:	f240 811c 	bls.w	8000490 <__udivmoddi4+0x298>
 8000258:	3e02      	subs	r6, #2
 800025a:	4463      	add	r3, ip
 800025c:	1a5b      	subs	r3, r3, r1
 800025e:	b2a4      	uxth	r4, r4
 8000260:	fbb3 f0f8 	udiv	r0, r3, r8
 8000264:	fb08 3310 	mls	r3, r8, r0, r3
 8000268:	ea44 4403 	orr.w	r4, r4, r3, lsl #16
 800026c:	fb00 f707 	mul.w	r7, r0, r7
 8000270:	42a7      	cmp	r7, r4
 8000272:	d90a      	bls.n	800028a <__udivmoddi4+0x92>
 8000274:	eb1c 0404 	adds.w	r4, ip, r4
 8000278:	f100 33ff 	add.w	r3, r0, #4294967295
 800027c:	f080 810a 	bcs.w	8000494 <__udivmoddi4+0x29c>
 8000280:	42a7      	cmp	r7, r4
 8000282:	f240 8107 	bls.w	8000494 <__udivmoddi4+0x29c>
 8000286:	4464      	add	r4, ip
 8000288:	3802      	subs	r0, #2
 800028a:	ea40 4006 	orr.w	r0, r0, r6, lsl #16
 800028e:	1be4      	subs	r4, r4, r7
 8000290:	2600      	movs	r6, #0
 8000292:	b11d      	cbz	r5, 800029c <__udivmoddi4+0xa4>
 8000294:	40d4      	lsrs	r4, r2
 8000296:	2300      	movs	r3, #0
 8000298:	e9c5 4300 	strd	r4, r3, [r5]
 800029c:	4631      	mov	r1, r6
 800029e:	e8bd 87f0 	ldmia.w	sp!, {r4, r5, r6, r7, r8, r9, sl, pc}
 80002a2:	428b      	cmp	r3, r1
 80002a4:	d909      	bls.n	80002ba <__udivmoddi4+0xc2>
 80002a6:	2d00      	cmp	r5, #0
 80002a8:	f000 80ef 	beq.w	800048a <__udivmoddi4+0x292>
 80002ac:	2600      	movs	r6, #0
 80002ae:	e9c5 0100 	strd	r0, r1, [r5]
 80002b2:	4630      	mov	r0, r6
 80002b4:	4631      	mov	r1, r6
 80002b6:	e8bd 87f0 	ldmia.w	sp!, {r4, r5, r6, r7, r8, r9, sl, pc}
 80002ba:	fab3 f683 	clz	r6, r3
 80002be:	2e00      	cmp	r6, #0
 80002c0:	d14a      	bne.n	8000358 <__udivmoddi4+0x160>
 80002c2:	428b      	cmp	r3, r1
 80002c4:	d302      	bcc.n	80002cc <__udivmoddi4+0xd4>
 80002c6:	4282      	cmp	r2, r0
 80002c8:	f200 80f9 	bhi.w	80004be <__udivmoddi4+0x2c6>
 80002cc:	1a84      	subs	r4, r0, r2
 80002ce:	eb61 0303 	sbc.w	r3, r1, r3
 80002d2:	2001      	movs	r0, #1
 80002d4:	469e      	mov	lr, r3
 80002d6:	2d00      	cmp	r5, #0
 80002d8:	d0e0      	beq.n	800029c <__udivmoddi4+0xa4>
 80002da:	e9c5 4e00 	strd	r4, lr, [r5]
 80002de:	e7dd      	b.n	800029c <__udivmoddi4+0xa4>
 80002e0:	b902      	cbnz	r2, 80002e4 <__udivmoddi4+0xec>
 80002e2:	deff      	udf	#255	; 0xff
 80002e4:	fab2 f282 	clz	r2, r2
 80002e8:	2a00      	cmp	r2, #0
 80002ea:	f040 8092 	bne.w	8000412 <__udivmoddi4+0x21a>
 80002ee:	eba1 010c 	sub.w	r1, r1, ip
 80002f2:	ea4f 471c 	mov.w	r7, ip, lsr #16
 80002f6:	fa1f fe8c 	uxth.w	lr, ip
 80002fa:	2601      	movs	r6, #1
 80002fc:	0c20      	lsrs	r0, r4, #16
 80002fe:	fbb1 f3f7 	udiv	r3, r1, r7
 8000302:	fb07 1113 	mls	r1, r7, r3, r1
 8000306:	ea40 4101 	orr.w	r1, r0, r1, lsl #16
 800030a:	fb0e f003 	mul.w	r0, lr, r3
 800030e:	4288      	cmp	r0, r1
 8000310:	d908      	bls.n	8000324 <__udivmoddi4+0x12c>
 8000312:	eb1c 0101 	adds.w	r1, ip, r1
 8000316:	f103 38ff 	add.w	r8, r3, #4294967295
 800031a:	d202      	bcs.n	8000322 <__udivmoddi4+0x12a>
 800031c:	4288      	cmp	r0, r1
 800031e:	f200 80cb 	bhi.w	80004b8 <__udivmoddi4+0x2c0>
 8000322:	4643      	mov	r3, r8
 8000324:	1a09      	subs	r1, r1, r0
 8000326:	b2a4      	uxth	r4, r4
 8000328:	fbb1 f0f7 	udiv	r0, r1, r7
 800032c:	fb07 1110 	mls	r1, r7, r0, r1
 8000330:	ea44 4401 	orr.w	r4, r4, r1, lsl #16
 8000334:	fb0e fe00 	mul.w	lr, lr, r0
 8000338:	45a6      	cmp	lr, r4
 800033a:	d908      	bls.n	800034e <__udivmoddi4+0x156>
 800033c:	eb1c 0404 	adds.w	r4, ip, r4
 8000340:	f100 31ff 	add.w	r1, r0, #4294967295
 8000344:	d202      	bcs.n	800034c <__udivmoddi4+0x154>
 8000346:	45a6      	cmp	lr, r4
 8000348:	f200 80bb 	bhi.w	80004c2 <__udivmoddi4+0x2ca>
 800034c:	4608      	mov	r0, r1
 800034e:	eba4 040e 	sub.w	r4, r4, lr
 8000352:	ea40 4003 	orr.w	r0, r0, r3, lsl #16
 8000356:	e79c      	b.n	8000292 <__udivmoddi4+0x9a>
 8000358:	f1c6 0720 	rsb	r7, r6, #32
 800035c:	40b3      	lsls	r3, r6
 800035e:	fa22 fc07 	lsr.w	ip, r2, r7
 8000362:	ea4c 0c03 	orr.w	ip, ip, r3
 8000366:	fa20 f407 	lsr.w	r4, r0, r7
 800036a:	fa01 f306 	lsl.w	r3, r1, r6
 800036e:	431c      	orrs	r4, r3
 8000370:	40f9      	lsrs	r1, r7
 8000372:	ea4f 491c 	mov.w	r9, ip, lsr #16
 8000376:	fa00 f306 	lsl.w	r3, r0, r6
 800037a:	fbb1 f8f9 	udiv	r8, r1, r9
 800037e:	0c20      	lsrs	r0, r4, #16
 8000380:	fa1f fe8c 	uxth.w	lr, ip
 8000384:	fb09 1118 	mls	r1, r9, r8, r1
 8000388:	ea40 4101 	orr.w	r1, r0, r1, lsl #16
 800038c:	fb08 f00e 	mul.w	r0, r8, lr
 8000390:	4288      	cmp	r0, r1
 8000392:	fa02 f206 	lsl.w	r2, r2, r6
 8000396:	d90b      	bls.n	80003b0 <__udivmoddi4+0x1b8>
 8000398:	eb1c 0101 	adds.w	r1, ip, r1
 800039c:	f108 3aff 	add.w	sl, r8, #4294967295
 80003a0:	f080 8088 	bcs.w	80004b4 <__udivmoddi4+0x2bc>
 80003a4:	4288      	cmp	r0, r1
 80003a6:	f240 8085 	bls.w	80004b4 <__udivmoddi4+0x2bc>
 80003aa:	f1a8 0802 	sub.w	r8, r8, #2
 80003ae:	4461      	add	r1, ip
 80003b0:	1a09      	subs	r1, r1, r0
 80003b2:	b2a4      	uxth	r4, r4
 80003b4:	fbb1 f0f9 	udiv	r0, r1, r9
 80003b8:	fb09 1110 	mls	r1, r9, r0, r1
 80003bc:	ea44 4101 	orr.w	r1, r4, r1, lsl #16
 80003c0:	fb00 fe0e 	mul.w	lr, r0, lr
 80003c4:	458e      	cmp	lr, r1
 80003c6:	d908      	bls.n	80003da <__udivmoddi4+0x1e2>
 80003c8:	eb1c 0101 	adds.w	r1, ip, r1
 80003cc:	f100 34ff 	add.w	r4, r0, #4294967295
 80003d0:	d26c      	bcs.n	80004ac <__udivmoddi4+0x2b4>
 80003d2:	458e      	cmp	lr, r1
 80003d4:	d96a      	bls.n	80004ac <__udivmoddi4+0x2b4>
 80003d6:	3802      	subs	r0, #2
 80003d8:	4461      	add	r1, ip
 80003da:	ea40 4008 	orr.w	r0, r0, r8, lsl #16
 80003de:	fba0 9402 	umull	r9, r4, r0, r2
 80003e2:	eba1 010e 	sub.w	r1, r1, lr
 80003e6:	42a1      	cmp	r1, r4
 80003e8:	46c8      	mov	r8, r9
 80003ea:	46a6      	mov	lr, r4
 80003ec:	d356      	bcc.n	800049c <__udivmoddi4+0x2a4>
 80003ee:	d053      	beq.n	8000498 <__udivmoddi4+0x2a0>
 80003f0:	b15d      	cbz	r5, 800040a <__udivmoddi4+0x212>
 80003f2:	ebb3 0208 	subs.w	r2, r3, r8
 80003f6:	eb61 010e 	sbc.w	r1, r1, lr
 80003fa:	fa01 f707 	lsl.w	r7, r1, r7
 80003fe:	fa22 f306 	lsr.w	r3, r2, r6
 8000402:	40f1      	lsrs	r1, r6
 8000404:	431f      	orrs	r7, r3
 8000406:	e9c5 7100 	strd	r7, r1, [r5]
 800040a:	2600      	movs	r6, #0
 800040c:	4631      	mov	r1, r6
 800040e:	e8bd 87f0 	ldmia.w	sp!, {r4, r5, r6, r7, r8, r9, sl, pc}
 8000412:	f1c2 0320 	rsb	r3, r2, #32
 8000416:	40d8      	lsrs	r0, r3
 8000418:	fa0c fc02 	lsl.w	ip, ip, r2
 800041c:	fa21 f303 	lsr.w	r3, r1, r3
 8000420:	4091      	lsls	r1, r2
 8000422:	4301      	orrs	r1, r0
 8000424:	ea4f 471c 	mov.w	r7, ip, lsr #16
 8000428:	fa1f fe8c 	uxth.w	lr, ip
 800042c:	fbb3 f0f7 	udiv	r0, r3, r7
 8000430:	fb07 3610 	mls	r6, r7, r0, r3
 8000434:	0c0b      	lsrs	r3, r1, #16
 8000436:	ea43 4306 	orr.w	r3, r3, r6, lsl #16
 800043a:	fb00 f60e 	mul.w	r6, r0, lr
 800043e:	429e      	cmp	r6, r3
 8000440:	fa04 f402 	lsl.w	r4, r4, r2
 8000444:	d908      	bls.n	8000458 <__udivmoddi4+0x260>
 8000446:	eb1c 0303 	adds.w	r3, ip, r3
 800044a:	f100 38ff 	add.w	r8, r0, #4294967295
 800044e:	d22f      	bcs.n	80004b0 <__udivmoddi4+0x2b8>
 8000450:	429e      	cmp	r6, r3
 8000452:	d92d      	bls.n	80004b0 <__udivmoddi4+0x2b8>
 8000454:	3802      	subs	r0, #2
 8000456:	4463      	add	r3, ip
 8000458:	1b9b      	subs	r3, r3, r6
 800045a:	b289      	uxth	r1, r1
 800045c:	fbb3 f6f7 	udiv	r6, r3, r7
 8000460:	fb07 3316 	mls	r3, r7, r6, r3
 8000464:	ea41 4103 	orr.w	r1, r1, r3, lsl #16
 8000468:	fb06 f30e 	mul.w	r3, r6, lr
 800046c:	428b      	cmp	r3, r1
 800046e:	d908      	bls.n	8000482 <__udivmoddi4+0x28a>
 8000470:	eb1c 0101 	adds.w	r1, ip, r1
 8000474:	f106 38ff 	add.w	r8, r6, #4294967295
 8000478:	d216      	bcs.n	80004a8 <__udivmoddi4+0x2b0>
 800047a:	428b      	cmp	r3, r1
 800047c:	d914      	bls.n	80004a8 <__udivmoddi4+0x2b0>
 800047e:	3e02      	subs	r6, #2
 8000480:	4461      	add	r1, ip
 8000482:	1ac9      	subs	r1, r1, r3
 8000484:	ea46 4600 	orr.w	r6, r6, r0, lsl #16
 8000488:	e738      	b.n	80002fc <__udivmoddi4+0x104>
 800048a:	462e      	mov	r6, r5
 800048c:	4628      	mov	r0, r5
 800048e:	e705      	b.n	800029c <__udivmoddi4+0xa4>
 8000490:	4606      	mov	r6, r0
 8000492:	e6e3      	b.n	800025c <__udivmoddi4+0x64>
 8000494:	4618      	mov	r0, r3
 8000496:	e6f8      	b.n	800028a <__udivmoddi4+0x92>
 8000498:	454b      	cmp	r3, r9
 800049a:	d2a9      	bcs.n	80003f0 <__udivmoddi4+0x1f8>
 800049c:	ebb9 0802 	subs.w	r8, r9, r2
 80004a0:	eb64 0e0c 	sbc.w	lr, r4, ip
 80004a4:	3801      	subs	r0, #1
 80004a6:	e7a3      	b.n	80003f0 <__udivmoddi4+0x1f8>
 80004a8:	4646      	mov	r6, r8
 80004aa:	e7ea      	b.n	8000482 <__udivmoddi4+0x28a>
 80004ac:	4620      	mov	r0, r4
 80004ae:	e794      	b.n	80003da <__udivmoddi4+0x1e2>
 80004b0:	4640      	mov	r0, r8
 80004b2:	e7d1      	b.n	8000458 <__udivmoddi4+0x260>
 80004b4:	46d0      	mov	r8, sl
 80004b6:	e77b      	b.n	80003b0 <__udivmoddi4+0x1b8>
 80004b8:	3b02      	subs	r3, #2
 80004ba:	4461      	add	r1, ip
 80004bc:	e732      	b.n	8000324 <__udivmoddi4+0x12c>
 80004be:	4630      	mov	r0, r6
 80004c0:	e709      	b.n	80002d6 <__udivmoddi4+0xde>
 80004c2:	4464      	add	r4, ip
 80004c4:	3802      	subs	r0, #2
 80004c6:	e742      	b.n	800034e <__udivmoddi4+0x156>

080004c8 <__aeabi_idiv0>:
 80004c8:	4770      	bx	lr
 80004ca:	bf00      	nop

080004cc <main>:
/**
  * @brief  The application entry point.
  * @retval int
  */
int main(void)
{
 80004cc:	b580      	push	{r7, lr}
 80004ce:	af00      	add	r7, sp, #0
  /* USER CODE END 1 */

  /* MCU Configuration--------------------------------------------------------*/

  /* Reset of all peripherals, Initializes the Flash interface and the Systick. */
  HAL_Init();
 80004d0:	f000 f9ec 	bl	80008ac <HAL_Init>
  /* USER CODE BEGIN Init */

  /* USER CODE END Init */

  /* Configure the system clock */
  SystemClock_Config();
 80004d4:	f000 f824 	bl	8000520 <SystemClock_Config>
  /* USER CODE BEGIN SysInit */

  /* USER CODE END SysInit */

  /* Initialize all configured peripherals */
  MX_GPIO_Init();
 80004d8:	f000 f8ba 	bl	8000650 <MX_GPIO_Init>
  MX_I2C1_Init();
 80004dc:	f000 f88a 	bl	80005f4 <MX_I2C1_Init>
  {
    /* USER CODE END WHILE */

    /* USER CODE BEGIN 3 */

	  if(HAL_I2C_Slave_Receive(&hi2c1,(uint8_t *)&aRx, sizeof(aRx), 1000) == HAL_OK)
 80004e0:	f44f 737a 	mov.w	r3, #1000	; 0x3e8
 80004e4:	2201      	movs	r2, #1
 80004e6:	490b      	ldr	r1, [pc, #44]	; (8000514 <main+0x48>)
 80004e8:	480b      	ldr	r0, [pc, #44]	; (8000518 <main+0x4c>)
 80004ea:	f000 fe31 	bl	8001150 <HAL_I2C_Slave_Receive>
 80004ee:	4603      	mov	r3, r0
 80004f0:	2b00      	cmp	r3, #0
 80004f2:	d1f5      	bne.n	80004e0 <main+0x14>
	  {
		  GPIOD->ODR &= 0x00000000;
 80004f4:	4b09      	ldr	r3, [pc, #36]	; (800051c <main+0x50>)
 80004f6:	695b      	ldr	r3, [r3, #20]
 80004f8:	4b08      	ldr	r3, [pc, #32]	; (800051c <main+0x50>)
 80004fa:	2200      	movs	r2, #0
 80004fc:	615a      	str	r2, [r3, #20]
		  GPIOD->ODR |= (aRx << 12);
 80004fe:	4b07      	ldr	r3, [pc, #28]	; (800051c <main+0x50>)
 8000500:	695b      	ldr	r3, [r3, #20]
 8000502:	4a04      	ldr	r2, [pc, #16]	; (8000514 <main+0x48>)
 8000504:	7812      	ldrb	r2, [r2, #0]
 8000506:	0312      	lsls	r2, r2, #12
 8000508:	4611      	mov	r1, r2
 800050a:	4a04      	ldr	r2, [pc, #16]	; (800051c <main+0x50>)
 800050c:	430b      	orrs	r3, r1
 800050e:	6153      	str	r3, [r2, #20]
	  if(HAL_I2C_Slave_Receive(&hi2c1,(uint8_t *)&aRx, sizeof(aRx), 1000) == HAL_OK)
 8000510:	e7e6      	b.n	80004e0 <main+0x14>
 8000512:	bf00      	nop
 8000514:	2000007c 	.word	0x2000007c
 8000518:	20000028 	.word	0x20000028
 800051c:	40020c00 	.word	0x40020c00

08000520 <SystemClock_Config>:
/**
  * @brief System Clock Configuration
  * @retval None
  */
void SystemClock_Config(void)
{
 8000520:	b580      	push	{r7, lr}
 8000522:	b094      	sub	sp, #80	; 0x50
 8000524:	af00      	add	r7, sp, #0
  RCC_OscInitTypeDef RCC_OscInitStruct = {0};
 8000526:	f107 0320 	add.w	r3, r7, #32
 800052a:	2230      	movs	r2, #48	; 0x30
 800052c:	2100      	movs	r1, #0
 800052e:	4618      	mov	r0, r3
 8000530:	f001 fcda 	bl	8001ee8 <memset>
  RCC_ClkInitTypeDef RCC_ClkInitStruct = {0};
 8000534:	f107 030c 	add.w	r3, r7, #12
 8000538:	2200      	movs	r2, #0
 800053a:	601a      	str	r2, [r3, #0]
 800053c:	605a      	str	r2, [r3, #4]
 800053e:	609a      	str	r2, [r3, #8]
 8000540:	60da      	str	r2, [r3, #12]
 8000542:	611a      	str	r2, [r3, #16]

  /** Configure the main internal regulator output voltage
  */
  __HAL_RCC_PWR_CLK_ENABLE();
 8000544:	2300      	movs	r3, #0
 8000546:	60bb      	str	r3, [r7, #8]
 8000548:	4b28      	ldr	r3, [pc, #160]	; (80005ec <SystemClock_Config+0xcc>)
 800054a:	6c1b      	ldr	r3, [r3, #64]	; 0x40
 800054c:	4a27      	ldr	r2, [pc, #156]	; (80005ec <SystemClock_Config+0xcc>)
 800054e:	f043 5380 	orr.w	r3, r3, #268435456	; 0x10000000
 8000552:	6413      	str	r3, [r2, #64]	; 0x40
 8000554:	4b25      	ldr	r3, [pc, #148]	; (80005ec <SystemClock_Config+0xcc>)
 8000556:	6c1b      	ldr	r3, [r3, #64]	; 0x40
 8000558:	f003 5380 	and.w	r3, r3, #268435456	; 0x10000000
 800055c:	60bb      	str	r3, [r7, #8]
 800055e:	68bb      	ldr	r3, [r7, #8]
  __HAL_PWR_VOLTAGESCALING_CONFIG(PWR_REGULATOR_VOLTAGE_SCALE1);
 8000560:	2300      	movs	r3, #0
 8000562:	607b      	str	r3, [r7, #4]
 8000564:	4b22      	ldr	r3, [pc, #136]	; (80005f0 <SystemClock_Config+0xd0>)
 8000566:	681b      	ldr	r3, [r3, #0]
 8000568:	4a21      	ldr	r2, [pc, #132]	; (80005f0 <SystemClock_Config+0xd0>)
 800056a:	f443 4380 	orr.w	r3, r3, #16384	; 0x4000
 800056e:	6013      	str	r3, [r2, #0]
 8000570:	4b1f      	ldr	r3, [pc, #124]	; (80005f0 <SystemClock_Config+0xd0>)
 8000572:	681b      	ldr	r3, [r3, #0]
 8000574:	f403 4380 	and.w	r3, r3, #16384	; 0x4000
 8000578:	607b      	str	r3, [r7, #4]
 800057a:	687b      	ldr	r3, [r7, #4]

  /** Initializes the RCC Oscillators according to the specified parameters
  * in the RCC_OscInitTypeDef structure.
  */
  RCC_OscInitStruct.OscillatorType = RCC_OSCILLATORTYPE_HSI;
 800057c:	2302      	movs	r3, #2
 800057e:	623b      	str	r3, [r7, #32]
  RCC_OscInitStruct.HSIState = RCC_HSI_ON;
 8000580:	2301      	movs	r3, #1
 8000582:	62fb      	str	r3, [r7, #44]	; 0x2c
  RCC_OscInitStruct.HSICalibrationValue = RCC_HSICALIBRATION_DEFAULT;
 8000584:	2310      	movs	r3, #16
 8000586:	633b      	str	r3, [r7, #48]	; 0x30
  RCC_OscInitStruct.PLL.PLLState = RCC_PLL_ON;
 8000588:	2302      	movs	r3, #2
 800058a:	63bb      	str	r3, [r7, #56]	; 0x38
  RCC_OscInitStruct.PLL.PLLSource = RCC_PLLSOURCE_HSI;
 800058c:	2300      	movs	r3, #0
 800058e:	63fb      	str	r3, [r7, #60]	; 0x3c
  RCC_OscInitStruct.PLL.PLLM = 8;
 8000590:	2308      	movs	r3, #8
 8000592:	643b      	str	r3, [r7, #64]	; 0x40
  RCC_OscInitStruct.PLL.PLLN = 168;
 8000594:	23a8      	movs	r3, #168	; 0xa8
 8000596:	647b      	str	r3, [r7, #68]	; 0x44
  RCC_OscInitStruct.PLL.PLLP = RCC_PLLP_DIV2;
 8000598:	2302      	movs	r3, #2
 800059a:	64bb      	str	r3, [r7, #72]	; 0x48
  RCC_OscInitStruct.PLL.PLLQ = 7;
 800059c:	2307      	movs	r3, #7
 800059e:	64fb      	str	r3, [r7, #76]	; 0x4c
  if (HAL_RCC_OscConfig(&RCC_OscInitStruct) != HAL_OK)
 80005a0:	f107 0320 	add.w	r3, r7, #32
 80005a4:	4618      	mov	r0, r3
 80005a6:	f000 fff7 	bl	8001598 <HAL_RCC_OscConfig>
 80005aa:	4603      	mov	r3, r0
 80005ac:	2b00      	cmp	r3, #0
 80005ae:	d001      	beq.n	80005b4 <SystemClock_Config+0x94>
  {
    Error_Handler();
 80005b0:	f000 f8a0 	bl	80006f4 <Error_Handler>
  }

  /** Initializes the CPU, AHB and APB buses clocks
  */
  RCC_ClkInitStruct.ClockType = RCC_CLOCKTYPE_HCLK|RCC_CLOCKTYPE_SYSCLK
 80005b4:	230f      	movs	r3, #15
 80005b6:	60fb      	str	r3, [r7, #12]
                              |RCC_CLOCKTYPE_PCLK1|RCC_CLOCKTYPE_PCLK2;
  RCC_ClkInitStruct.SYSCLKSource = RCC_SYSCLKSOURCE_PLLCLK;
 80005b8:	2302      	movs	r3, #2
 80005ba:	613b      	str	r3, [r7, #16]
  RCC_ClkInitStruct.AHBCLKDivider = RCC_SYSCLK_DIV1;
 80005bc:	2300      	movs	r3, #0
 80005be:	617b      	str	r3, [r7, #20]
  RCC_ClkInitStruct.APB1CLKDivider = RCC_HCLK_DIV4;
 80005c0:	f44f 53a0 	mov.w	r3, #5120	; 0x1400
 80005c4:	61bb      	str	r3, [r7, #24]
  RCC_ClkInitStruct.APB2CLKDivider = RCC_HCLK_DIV2;
 80005c6:	f44f 5380 	mov.w	r3, #4096	; 0x1000
 80005ca:	61fb      	str	r3, [r7, #28]

  if (HAL_RCC_ClockConfig(&RCC_ClkInitStruct, FLASH_LATENCY_5) != HAL_OK)
 80005cc:	f107 030c 	add.w	r3, r7, #12
 80005d0:	2105      	movs	r1, #5
 80005d2:	4618      	mov	r0, r3
 80005d4:	f001 fa58 	bl	8001a88 <HAL_RCC_ClockConfig>
 80005d8:	4603      	mov	r3, r0
 80005da:	2b00      	cmp	r3, #0
 80005dc:	d001      	beq.n	80005e2 <SystemClock_Config+0xc2>
  {
    Error_Handler();
 80005de:	f000 f889 	bl	80006f4 <Error_Handler>
  }
}
 80005e2:	bf00      	nop
 80005e4:	3750      	adds	r7, #80	; 0x50
 80005e6:	46bd      	mov	sp, r7
 80005e8:	bd80      	pop	{r7, pc}
 80005ea:	bf00      	nop
 80005ec:	40023800 	.word	0x40023800
 80005f0:	40007000 	.word	0x40007000

080005f4 <MX_I2C1_Init>:
  * @brief I2C1 Initialization Function
  * @param None
  * @retval None
  */
static void MX_I2C1_Init(void)
{
 80005f4:	b580      	push	{r7, lr}
 80005f6:	af00      	add	r7, sp, #0
  /* USER CODE END I2C1_Init 0 */

  /* USER CODE BEGIN I2C1_Init 1 */

  /* USER CODE END I2C1_Init 1 */
  hi2c1.Instance = I2C1;
 80005f8:	4b12      	ldr	r3, [pc, #72]	; (8000644 <MX_I2C1_Init+0x50>)
 80005fa:	4a13      	ldr	r2, [pc, #76]	; (8000648 <MX_I2C1_Init+0x54>)
 80005fc:	601a      	str	r2, [r3, #0]
  hi2c1.Init.ClockSpeed = 100000;
 80005fe:	4b11      	ldr	r3, [pc, #68]	; (8000644 <MX_I2C1_Init+0x50>)
 8000600:	4a12      	ldr	r2, [pc, #72]	; (800064c <MX_I2C1_Init+0x58>)
 8000602:	605a      	str	r2, [r3, #4]
  hi2c1.Init.DutyCycle = I2C_DUTYCYCLE_2;
 8000604:	4b0f      	ldr	r3, [pc, #60]	; (8000644 <MX_I2C1_Init+0x50>)
 8000606:	2200      	movs	r2, #0
 8000608:	609a      	str	r2, [r3, #8]
  hi2c1.Init.OwnAddress1 = 0xFA;
 800060a:	4b0e      	ldr	r3, [pc, #56]	; (8000644 <MX_I2C1_Init+0x50>)
 800060c:	22fa      	movs	r2, #250	; 0xfa
 800060e:	60da      	str	r2, [r3, #12]
  hi2c1.Init.AddressingMode = I2C_ADDRESSINGMODE_7BIT;
 8000610:	4b0c      	ldr	r3, [pc, #48]	; (8000644 <MX_I2C1_Init+0x50>)
 8000612:	f44f 4280 	mov.w	r2, #16384	; 0x4000
 8000616:	611a      	str	r2, [r3, #16]
  hi2c1.Init.DualAddressMode = I2C_DUALADDRESS_DISABLE;
 8000618:	4b0a      	ldr	r3, [pc, #40]	; (8000644 <MX_I2C1_Init+0x50>)
 800061a:	2200      	movs	r2, #0
 800061c:	615a      	str	r2, [r3, #20]
  hi2c1.Init.OwnAddress2 = 0;
 800061e:	4b09      	ldr	r3, [pc, #36]	; (8000644 <MX_I2C1_Init+0x50>)
 8000620:	2200      	movs	r2, #0
 8000622:	619a      	str	r2, [r3, #24]
  hi2c1.Init.GeneralCallMode = I2C_GENERALCALL_DISABLE;
 8000624:	4b07      	ldr	r3, [pc, #28]	; (8000644 <MX_I2C1_Init+0x50>)
 8000626:	2200      	movs	r2, #0
 8000628:	61da      	str	r2, [r3, #28]
  hi2c1.Init.NoStretchMode = I2C_NOSTRETCH_DISABLE;
 800062a:	4b06      	ldr	r3, [pc, #24]	; (8000644 <MX_I2C1_Init+0x50>)
 800062c:	2200      	movs	r2, #0
 800062e:	621a      	str	r2, [r3, #32]
  if (HAL_I2C_Init(&hi2c1) != HAL_OK)
 8000630:	4804      	ldr	r0, [pc, #16]	; (8000644 <MX_I2C1_Init+0x50>)
 8000632:	f000 fc49 	bl	8000ec8 <HAL_I2C_Init>
 8000636:	4603      	mov	r3, r0
 8000638:	2b00      	cmp	r3, #0
 800063a:	d001      	beq.n	8000640 <MX_I2C1_Init+0x4c>
  {
    Error_Handler();
 800063c:	f000 f85a 	bl	80006f4 <Error_Handler>
  }
  /* USER CODE BEGIN I2C1_Init 2 */

  /* USER CODE END I2C1_Init 2 */

}
 8000640:	bf00      	nop
 8000642:	bd80      	pop	{r7, pc}
 8000644:	20000028 	.word	0x20000028
 8000648:	40005400 	.word	0x40005400
 800064c:	000186a0 	.word	0x000186a0

08000650 <MX_GPIO_Init>:
  * @brief GPIO Initialization Function
  * @param None
  * @retval None
  */
static void MX_GPIO_Init(void)
{
 8000650:	b580      	push	{r7, lr}
 8000652:	b088      	sub	sp, #32
 8000654:	af00      	add	r7, sp, #0
  GPIO_InitTypeDef GPIO_InitStruct = {0};
 8000656:	f107 030c 	add.w	r3, r7, #12
 800065a:	2200      	movs	r2, #0
 800065c:	601a      	str	r2, [r3, #0]
 800065e:	605a      	str	r2, [r3, #4]
 8000660:	609a      	str	r2, [r3, #8]
 8000662:	60da      	str	r2, [r3, #12]
 8000664:	611a      	str	r2, [r3, #16]
/* USER CODE BEGIN MX_GPIO_Init_1 */
/* USER CODE END MX_GPIO_Init_1 */

  /* GPIO Ports Clock Enable */
  __HAL_RCC_GPIOD_CLK_ENABLE();
 8000666:	2300      	movs	r3, #0
 8000668:	60bb      	str	r3, [r7, #8]
 800066a:	4b20      	ldr	r3, [pc, #128]	; (80006ec <MX_GPIO_Init+0x9c>)
 800066c:	6b1b      	ldr	r3, [r3, #48]	; 0x30
 800066e:	4a1f      	ldr	r2, [pc, #124]	; (80006ec <MX_GPIO_Init+0x9c>)
 8000670:	f043 0308 	orr.w	r3, r3, #8
 8000674:	6313      	str	r3, [r2, #48]	; 0x30
 8000676:	4b1d      	ldr	r3, [pc, #116]	; (80006ec <MX_GPIO_Init+0x9c>)
 8000678:	6b1b      	ldr	r3, [r3, #48]	; 0x30
 800067a:	f003 0308 	and.w	r3, r3, #8
 800067e:	60bb      	str	r3, [r7, #8]
 8000680:	68bb      	ldr	r3, [r7, #8]
  __HAL_RCC_GPIOA_CLK_ENABLE();
 8000682:	2300      	movs	r3, #0
 8000684:	607b      	str	r3, [r7, #4]
 8000686:	4b19      	ldr	r3, [pc, #100]	; (80006ec <MX_GPIO_Init+0x9c>)
 8000688:	6b1b      	ldr	r3, [r3, #48]	; 0x30
 800068a:	4a18      	ldr	r2, [pc, #96]	; (80006ec <MX_GPIO_Init+0x9c>)
 800068c:	f043 0301 	orr.w	r3, r3, #1
 8000690:	6313      	str	r3, [r2, #48]	; 0x30
 8000692:	4b16      	ldr	r3, [pc, #88]	; (80006ec <MX_GPIO_Init+0x9c>)
 8000694:	6b1b      	ldr	r3, [r3, #48]	; 0x30
 8000696:	f003 0301 	and.w	r3, r3, #1
 800069a:	607b      	str	r3, [r7, #4]
 800069c:	687b      	ldr	r3, [r7, #4]
  __HAL_RCC_GPIOB_CLK_ENABLE();
 800069e:	2300      	movs	r3, #0
 80006a0:	603b      	str	r3, [r7, #0]
 80006a2:	4b12      	ldr	r3, [pc, #72]	; (80006ec <MX_GPIO_Init+0x9c>)
 80006a4:	6b1b      	ldr	r3, [r3, #48]	; 0x30
 80006a6:	4a11      	ldr	r2, [pc, #68]	; (80006ec <MX_GPIO_Init+0x9c>)
 80006a8:	f043 0302 	orr.w	r3, r3, #2
 80006ac:	6313      	str	r3, [r2, #48]	; 0x30
 80006ae:	4b0f      	ldr	r3, [pc, #60]	; (80006ec <MX_GPIO_Init+0x9c>)
 80006b0:	6b1b      	ldr	r3, [r3, #48]	; 0x30
 80006b2:	f003 0302 	and.w	r3, r3, #2
 80006b6:	603b      	str	r3, [r7, #0]
 80006b8:	683b      	ldr	r3, [r7, #0]

  /*Configure GPIO pin Output Level */
  HAL_GPIO_WritePin(GPIOD, GPIO_PIN_12|GPIO_PIN_13|GPIO_PIN_14|GPIO_PIN_15, GPIO_PIN_RESET);
 80006ba:	2200      	movs	r2, #0
 80006bc:	f44f 4170 	mov.w	r1, #61440	; 0xf000
 80006c0:	480b      	ldr	r0, [pc, #44]	; (80006f0 <MX_GPIO_Init+0xa0>)
 80006c2:	f000 fbe7 	bl	8000e94 <HAL_GPIO_WritePin>

  /*Configure GPIO pins : PD12 PD13 PD14 PD15 */
  GPIO_InitStruct.Pin = GPIO_PIN_12|GPIO_PIN_13|GPIO_PIN_14|GPIO_PIN_15;
 80006c6:	f44f 4370 	mov.w	r3, #61440	; 0xf000
 80006ca:	60fb      	str	r3, [r7, #12]
  GPIO_InitStruct.Mode = GPIO_MODE_OUTPUT_PP;
 80006cc:	2301      	movs	r3, #1
 80006ce:	613b      	str	r3, [r7, #16]
  GPIO_InitStruct.Pull = GPIO_NOPULL;
 80006d0:	2300      	movs	r3, #0
 80006d2:	617b      	str	r3, [r7, #20]
  GPIO_InitStruct.Speed = GPIO_SPEED_FREQ_LOW;
 80006d4:	2300      	movs	r3, #0
 80006d6:	61bb      	str	r3, [r7, #24]
  HAL_GPIO_Init(GPIOD, &GPIO_InitStruct);
 80006d8:	f107 030c 	add.w	r3, r7, #12
 80006dc:	4619      	mov	r1, r3
 80006de:	4804      	ldr	r0, [pc, #16]	; (80006f0 <MX_GPIO_Init+0xa0>)
 80006e0:	f000 fa3c 	bl	8000b5c <HAL_GPIO_Init>

/* USER CODE BEGIN MX_GPIO_Init_2 */
/* USER CODE END MX_GPIO_Init_2 */
}
 80006e4:	bf00      	nop
 80006e6:	3720      	adds	r7, #32
 80006e8:	46bd      	mov	sp, r7
 80006ea:	bd80      	pop	{r7, pc}
 80006ec:	40023800 	.word	0x40023800
 80006f0:	40020c00 	.word	0x40020c00

080006f4 <Error_Handler>:
/**
  * @brief  This function is executed in case of error occurrence.
  * @retval None
  */
void Error_Handler(void)
{
 80006f4:	b480      	push	{r7}
 80006f6:	af00      	add	r7, sp, #0
  \details Disables IRQ interrupts by setting the I-bit in the CPSR.
           Can only be executed in Privileged modes.
 */
__STATIC_FORCEINLINE void __disable_irq(void)
{
  __ASM volatile ("cpsid i" : : : "memory");
 80006f8:	b672      	cpsid	i
}
 80006fa:	bf00      	nop
  /* USER CODE BEGIN Error_Handler_Debug */
  /* User can add his own implementation to report the HAL error return state */
  __disable_irq();
  while (1)
 80006fc:	e7fe      	b.n	80006fc <Error_Handler+0x8>
	...

08000700 <HAL_MspInit>:
/* USER CODE END 0 */
/**
  * Initializes the Global MSP.
  */
void HAL_MspInit(void)
{
 8000700:	b580      	push	{r7, lr}
 8000702:	b082      	sub	sp, #8
 8000704:	af00      	add	r7, sp, #0
  /* USER CODE BEGIN MspInit 0 */

  /* USER CODE END MspInit 0 */

  __HAL_RCC_SYSCFG_CLK_ENABLE();
 8000706:	2300      	movs	r3, #0
 8000708:	607b      	str	r3, [r7, #4]
 800070a:	4b10      	ldr	r3, [pc, #64]	; (800074c <HAL_MspInit+0x4c>)
 800070c:	6c5b      	ldr	r3, [r3, #68]	; 0x44
 800070e:	4a0f      	ldr	r2, [pc, #60]	; (800074c <HAL_MspInit+0x4c>)
 8000710:	f443 4380 	orr.w	r3, r3, #16384	; 0x4000
 8000714:	6453      	str	r3, [r2, #68]	; 0x44
 8000716:	4b0d      	ldr	r3, [pc, #52]	; (800074c <HAL_MspInit+0x4c>)
 8000718:	6c5b      	ldr	r3, [r3, #68]	; 0x44
 800071a:	f403 4380 	and.w	r3, r3, #16384	; 0x4000
 800071e:	607b      	str	r3, [r7, #4]
 8000720:	687b      	ldr	r3, [r7, #4]
  __HAL_RCC_PWR_CLK_ENABLE();
 8000722:	2300      	movs	r3, #0
 8000724:	603b      	str	r3, [r7, #0]
 8000726:	4b09      	ldr	r3, [pc, #36]	; (800074c <HAL_MspInit+0x4c>)
 8000728:	6c1b      	ldr	r3, [r3, #64]	; 0x40
 800072a:	4a08      	ldr	r2, [pc, #32]	; (800074c <HAL_MspInit+0x4c>)
 800072c:	f043 5380 	orr.w	r3, r3, #268435456	; 0x10000000
 8000730:	6413      	str	r3, [r2, #64]	; 0x40
 8000732:	4b06      	ldr	r3, [pc, #24]	; (800074c <HAL_MspInit+0x4c>)
 8000734:	6c1b      	ldr	r3, [r3, #64]	; 0x40
 8000736:	f003 5380 	and.w	r3, r3, #268435456	; 0x10000000
 800073a:	603b      	str	r3, [r7, #0]
 800073c:	683b      	ldr	r3, [r7, #0]

  HAL_NVIC_SetPriorityGrouping(NVIC_PRIORITYGROUP_0);
 800073e:	2007      	movs	r0, #7
 8000740:	f000 f9d8 	bl	8000af4 <HAL_NVIC_SetPriorityGrouping>
  /* System interrupt init*/

  /* USER CODE BEGIN MspInit 1 */

  /* USER CODE END MspInit 1 */
}
 8000744:	bf00      	nop
 8000746:	3708      	adds	r7, #8
 8000748:	46bd      	mov	sp, r7
 800074a:	bd80      	pop	{r7, pc}
 800074c:	40023800 	.word	0x40023800

08000750 <HAL_I2C_MspInit>:
* This function configures the hardware resources used in this example
* @param hi2c: I2C handle pointer
* @retval None
*/
void HAL_I2C_MspInit(I2C_HandleTypeDef* hi2c)
{
 8000750:	b580      	push	{r7, lr}
 8000752:	b08a      	sub	sp, #40	; 0x28
 8000754:	af00      	add	r7, sp, #0
 8000756:	6078      	str	r0, [r7, #4]
  GPIO_InitTypeDef GPIO_InitStruct = {0};
 8000758:	f107 0314 	add.w	r3, r7, #20
 800075c:	2200      	movs	r2, #0
 800075e:	601a      	str	r2, [r3, #0]
 8000760:	605a      	str	r2, [r3, #4]
 8000762:	609a      	str	r2, [r3, #8]
 8000764:	60da      	str	r2, [r3, #12]
 8000766:	611a      	str	r2, [r3, #16]
  if(hi2c->Instance==I2C1)
 8000768:	687b      	ldr	r3, [r7, #4]
 800076a:	681b      	ldr	r3, [r3, #0]
 800076c:	4a19      	ldr	r2, [pc, #100]	; (80007d4 <HAL_I2C_MspInit+0x84>)
 800076e:	4293      	cmp	r3, r2
 8000770:	d12b      	bne.n	80007ca <HAL_I2C_MspInit+0x7a>
  {
  /* USER CODE BEGIN I2C1_MspInit 0 */

  /* USER CODE END I2C1_MspInit 0 */

    __HAL_RCC_GPIOB_CLK_ENABLE();
 8000772:	2300      	movs	r3, #0
 8000774:	613b      	str	r3, [r7, #16]
 8000776:	4b18      	ldr	r3, [pc, #96]	; (80007d8 <HAL_I2C_MspInit+0x88>)
 8000778:	6b1b      	ldr	r3, [r3, #48]	; 0x30
 800077a:	4a17      	ldr	r2, [pc, #92]	; (80007d8 <HAL_I2C_MspInit+0x88>)
 800077c:	f043 0302 	orr.w	r3, r3, #2
 8000780:	6313      	str	r3, [r2, #48]	; 0x30
 8000782:	4b15      	ldr	r3, [pc, #84]	; (80007d8 <HAL_I2C_MspInit+0x88>)
 8000784:	6b1b      	ldr	r3, [r3, #48]	; 0x30
 8000786:	f003 0302 	and.w	r3, r3, #2
 800078a:	613b      	str	r3, [r7, #16]
 800078c:	693b      	ldr	r3, [r7, #16]
    /**I2C1 GPIO Configuration
    PB6     ------> I2C1_SCL
    PB7     ------> I2C1_SDA
    */
    GPIO_InitStruct.Pin = GPIO_PIN_6|GPIO_PIN_7;
 800078e:	23c0      	movs	r3, #192	; 0xc0
 8000790:	617b      	str	r3, [r7, #20]
    GPIO_InitStruct.Mode = GPIO_MODE_AF_OD;
 8000792:	2312      	movs	r3, #18
 8000794:	61bb      	str	r3, [r7, #24]
    GPIO_InitStruct.Pull = GPIO_NOPULL;
 8000796:	2300      	movs	r3, #0
 8000798:	61fb      	str	r3, [r7, #28]
    GPIO_InitStruct.Speed = GPIO_SPEED_FREQ_VERY_HIGH;
 800079a:	2303      	movs	r3, #3
 800079c:	623b      	str	r3, [r7, #32]
    GPIO_InitStruct.Alternate = GPIO_AF4_I2C1;
 800079e:	2304      	movs	r3, #4
 80007a0:	627b      	str	r3, [r7, #36]	; 0x24
    HAL_GPIO_Init(GPIOB, &GPIO_InitStruct);
 80007a2:	f107 0314 	add.w	r3, r7, #20
 80007a6:	4619      	mov	r1, r3
 80007a8:	480c      	ldr	r0, [pc, #48]	; (80007dc <HAL_I2C_MspInit+0x8c>)
 80007aa:	f000 f9d7 	bl	8000b5c <HAL_GPIO_Init>

    /* Peripheral clock enable */
    __HAL_RCC_I2C1_CLK_ENABLE();
 80007ae:	2300      	movs	r3, #0
 80007b0:	60fb      	str	r3, [r7, #12]
 80007b2:	4b09      	ldr	r3, [pc, #36]	; (80007d8 <HAL_I2C_MspInit+0x88>)
 80007b4:	6c1b      	ldr	r3, [r3, #64]	; 0x40
 80007b6:	4a08      	ldr	r2, [pc, #32]	; (80007d8 <HAL_I2C_MspInit+0x88>)
 80007b8:	f443 1300 	orr.w	r3, r3, #2097152	; 0x200000
 80007bc:	6413      	str	r3, [r2, #64]	; 0x40
 80007be:	4b06      	ldr	r3, [pc, #24]	; (80007d8 <HAL_I2C_MspInit+0x88>)
 80007c0:	6c1b      	ldr	r3, [r3, #64]	; 0x40
 80007c2:	f403 1300 	and.w	r3, r3, #2097152	; 0x200000
 80007c6:	60fb      	str	r3, [r7, #12]
 80007c8:	68fb      	ldr	r3, [r7, #12]
  /* USER CODE BEGIN I2C1_MspInit 1 */

  /* USER CODE END I2C1_MspInit 1 */
  }

}
 80007ca:	bf00      	nop
 80007cc:	3728      	adds	r7, #40	; 0x28
 80007ce:	46bd      	mov	sp, r7
 80007d0:	bd80      	pop	{r7, pc}
 80007d2:	bf00      	nop
 80007d4:	40005400 	.word	0x40005400
 80007d8:	40023800 	.word	0x40023800
 80007dc:	40020400 	.word	0x40020400

080007e0 <NMI_Handler>:
/******************************************************************************/
/**
  * @brief This function handles Non maskable interrupt.
  */
void NMI_Handler(void)
{
 80007e0:	b480      	push	{r7}
 80007e2:	af00      	add	r7, sp, #0
  /* USER CODE BEGIN NonMaskableInt_IRQn 0 */

  /* USER CODE END NonMaskableInt_IRQn 0 */
  /* USER CODE BEGIN NonMaskableInt_IRQn 1 */
  while (1)
 80007e4:	e7fe      	b.n	80007e4 <NMI_Handler+0x4>

080007e6 <HardFault_Handler>:

/**
  * @brief This function handles Hard fault interrupt.
  */
void HardFault_Handler(void)
{
 80007e6:	b480      	push	{r7}
 80007e8:	af00      	add	r7, sp, #0
  /* USER CODE BEGIN HardFault_IRQn 0 */

  /* USER CODE END HardFault_IRQn 0 */
  while (1)
 80007ea:	e7fe      	b.n	80007ea <HardFault_Handler+0x4>

080007ec <MemManage_Handler>:

/**
  * @brief This function handles Memory management fault.
  */
void MemManage_Handler(void)
{
 80007ec:	b480      	push	{r7}
 80007ee:	af00      	add	r7, sp, #0
  /* USER CODE BEGIN MemoryManagement_IRQn 0 */

  /* USER CODE END MemoryManagement_IRQn 0 */
  while (1)
 80007f0:	e7fe      	b.n	80007f0 <MemManage_Handler+0x4>

080007f2 <BusFault_Handler>:

/**
  * @brief This function handles Pre-fetch fault, memory access fault.
  */
void BusFault_Handler(void)
{
 80007f2:	b480      	push	{r7}
 80007f4:	af00      	add	r7, sp, #0
  /* USER CODE BEGIN BusFault_IRQn 0 */

  /* USER CODE END BusFault_IRQn 0 */
  while (1)
 80007f6:	e7fe      	b.n	80007f6 <BusFault_Handler+0x4>

080007f8 <UsageFault_Handler>:

/**
  * @brief This function handles Undefined instruction or illegal state.
  */
void UsageFault_Handler(void)
{
 80007f8:	b480      	push	{r7}
 80007fa:	af00      	add	r7, sp, #0
  /* USER CODE BEGIN UsageFault_IRQn 0 */

  /* USER CODE END UsageFault_IRQn 0 */
  while (1)
 80007fc:	e7fe      	b.n	80007fc <UsageFault_Handler+0x4>

080007fe <SVC_Handler>:

/**
  * @brief This function handles System service call via SWI instruction.
  */
void SVC_Handler(void)
{
 80007fe:	b480      	push	{r7}
 8000800:	af00      	add	r7, sp, #0

  /* USER CODE END SVCall_IRQn 0 */
  /* USER CODE BEGIN SVCall_IRQn 1 */

  /* USER CODE END SVCall_IRQn 1 */
}
 8000802:	bf00      	nop
 8000804:	46bd      	mov	sp, r7
 8000806:	f85d 7b04 	ldr.w	r7, [sp], #4
 800080a:	4770      	bx	lr

0800080c <DebugMon_Handler>:

/**
  * @brief This function handles Debug monitor.
  */
void DebugMon_Handler(void)
{
 800080c:	b480      	push	{r7}
 800080e:	af00      	add	r7, sp, #0

  /* USER CODE END DebugMonitor_IRQn 0 */
  /* USER CODE BEGIN DebugMonitor_IRQn 1 */

  /* USER CODE END DebugMonitor_IRQn 1 */
}
 8000810:	bf00      	nop
 8000812:	46bd      	mov	sp, r7
 8000814:	f85d 7b04 	ldr.w	r7, [sp], #4
 8000818:	4770      	bx	lr

0800081a <PendSV_Handler>:

/**
  * @brief This function handles Pendable request for system service.
  */
void PendSV_Handler(void)
{
 800081a:	b480      	push	{r7}
 800081c:	af00      	add	r7, sp, #0

  /* USER CODE END PendSV_IRQn 0 */
  /* USER CODE BEGIN PendSV_IRQn 1 */

  /* USER CODE END PendSV_IRQn 1 */
}
 800081e:	bf00      	nop
 8000820:	46bd      	mov	sp, r7
 8000822:	f85d 7b04 	ldr.w	r7, [sp], #4
 8000826:	4770      	bx	lr

08000828 <SysTick_Handler>:

/**
  * @brief This function handles System tick timer.
  */
void SysTick_Handler(void)
{
 8000828:	b580      	push	{r7, lr}
 800082a:	af00      	add	r7, sp, #0
  /* USER CODE BEGIN SysTick_IRQn 0 */

  /* USER CODE END SysTick_IRQn 0 */
  HAL_IncTick();
 800082c:	f000 f890 	bl	8000950 <HAL_IncTick>
  /* USER CODE BEGIN SysTick_IRQn 1 */

  /* USER CODE END SysTick_IRQn 1 */
}
 8000830:	bf00      	nop
 8000832:	bd80      	pop	{r7, pc}

08000834 <SystemInit>:
  *         configuration.
  * @param  None
  * @retval None
  */
void SystemInit(void)
{
 8000834:	b480      	push	{r7}
 8000836:	af00      	add	r7, sp, #0
  /* FPU settings ------------------------------------------------------------*/
  #if (__FPU_PRESENT == 1) && (__FPU_USED == 1)
    SCB->CPACR |= ((3UL << 10*2)|(3UL << 11*2));  /* set CP10 and CP11 Full Access */
 8000838:	4b06      	ldr	r3, [pc, #24]	; (8000854 <SystemInit+0x20>)
 800083a:	f8d3 3088 	ldr.w	r3, [r3, #136]	; 0x88
 800083e:	4a05      	ldr	r2, [pc, #20]	; (8000854 <SystemInit+0x20>)
 8000840:	f443 0370 	orr.w	r3, r3, #15728640	; 0xf00000
 8000844:	f8c2 3088 	str.w	r3, [r2, #136]	; 0x88

  /* Configure the Vector Table location -------------------------------------*/
#if defined(USER_VECT_TAB_ADDRESS)
  SCB->VTOR = VECT_TAB_BASE_ADDRESS | VECT_TAB_OFFSET; /* Vector Table Relocation in Internal SRAM */
#endif /* USER_VECT_TAB_ADDRESS */
}
 8000848:	bf00      	nop
 800084a:	46bd      	mov	sp, r7
 800084c:	f85d 7b04 	ldr.w	r7, [sp], #4
 8000850:	4770      	bx	lr
 8000852:	bf00      	nop
 8000854:	e000ed00 	.word	0xe000ed00

08000858 <Reset_Handler>:

    .section  .text.Reset_Handler
  .weak  Reset_Handler
  .type  Reset_Handler, %function
Reset_Handler:  
  ldr   sp, =_estack     /* set stack pointer */
 8000858:	f8df d034 	ldr.w	sp, [pc, #52]	; 8000890 <LoopFillZerobss+0x12>

/* Copy the data segment initializers from flash to SRAM */  
  ldr r0, =_sdata
 800085c:	480d      	ldr	r0, [pc, #52]	; (8000894 <LoopFillZerobss+0x16>)
  ldr r1, =_edata
 800085e:	490e      	ldr	r1, [pc, #56]	; (8000898 <LoopFillZerobss+0x1a>)
  ldr r2, =_sidata
 8000860:	4a0e      	ldr	r2, [pc, #56]	; (800089c <LoopFillZerobss+0x1e>)
  movs r3, #0
 8000862:	2300      	movs	r3, #0
  b LoopCopyDataInit
 8000864:	e002      	b.n	800086c <LoopCopyDataInit>

08000866 <CopyDataInit>:

CopyDataInit:
  ldr r4, [r2, r3]
 8000866:	58d4      	ldr	r4, [r2, r3]
  str r4, [r0, r3]
 8000868:	50c4      	str	r4, [r0, r3]
  adds r3, r3, #4
 800086a:	3304      	adds	r3, #4

0800086c <LoopCopyDataInit>:

LoopCopyDataInit:
  adds r4, r0, r3
 800086c:	18c4      	adds	r4, r0, r3
  cmp r4, r1
 800086e:	428c      	cmp	r4, r1
  bcc CopyDataInit
 8000870:	d3f9      	bcc.n	8000866 <CopyDataInit>
  
/* Zero fill the bss segment. */
  ldr r2, =_sbss
 8000872:	4a0b      	ldr	r2, [pc, #44]	; (80008a0 <LoopFillZerobss+0x22>)
  ldr r4, =_ebss
 8000874:	4c0b      	ldr	r4, [pc, #44]	; (80008a4 <LoopFillZerobss+0x26>)
  movs r3, #0
 8000876:	2300      	movs	r3, #0
  b LoopFillZerobss
 8000878:	e001      	b.n	800087e <LoopFillZerobss>

0800087a <FillZerobss>:

FillZerobss:
  str  r3, [r2]
 800087a:	6013      	str	r3, [r2, #0]
  adds r2, r2, #4
 800087c:	3204      	adds	r2, #4

0800087e <LoopFillZerobss>:

LoopFillZerobss:
  cmp r2, r4
 800087e:	42a2      	cmp	r2, r4
  bcc FillZerobss
 8000880:	d3fb      	bcc.n	800087a <FillZerobss>

/* Call the clock system initialization function.*/
  bl  SystemInit   
 8000882:	f7ff ffd7 	bl	8000834 <SystemInit>
/* Call static constructors */
    bl __libc_init_array
 8000886:	f001 fb0b 	bl	8001ea0 <__libc_init_array>
/* Call the application's entry point.*/
  bl  main
 800088a:	f7ff fe1f 	bl	80004cc <main>
  bx  lr    
 800088e:	4770      	bx	lr
  ldr   sp, =_estack     /* set stack pointer */
 8000890:	20020000 	.word	0x20020000
  ldr r0, =_sdata
 8000894:	20000000 	.word	0x20000000
  ldr r1, =_edata
 8000898:	2000000c 	.word	0x2000000c
  ldr r2, =_sidata
 800089c:	08001f38 	.word	0x08001f38
  ldr r2, =_sbss
 80008a0:	2000000c 	.word	0x2000000c
  ldr r4, =_ebss
 80008a4:	20000084 	.word	0x20000084

080008a8 <ADC_IRQHandler>:
 * @retval None       
*/
    .section  .text.Default_Handler,"ax",%progbits
Default_Handler:
Infinite_Loop:
  b  Infinite_Loop
 80008a8:	e7fe      	b.n	80008a8 <ADC_IRQHandler>
	...

080008ac <HAL_Init>:
  *         need to ensure that the SysTick time base is always set to 1 millisecond
  *         to have correct HAL operation.
  * @retval HAL status
  */
HAL_StatusTypeDef HAL_Init(void)
{
 80008ac:	b580      	push	{r7, lr}
 80008ae:	af00      	add	r7, sp, #0
  /* Configure Flash prefetch, Instruction cache, Data cache */ 
#if (INSTRUCTION_CACHE_ENABLE != 0U)
  __HAL_FLASH_INSTRUCTION_CACHE_ENABLE();
 80008b0:	4b0e      	ldr	r3, [pc, #56]	; (80008ec <HAL_Init+0x40>)
 80008b2:	681b      	ldr	r3, [r3, #0]
 80008b4:	4a0d      	ldr	r2, [pc, #52]	; (80008ec <HAL_Init+0x40>)
 80008b6:	f443 7300 	orr.w	r3, r3, #512	; 0x200
 80008ba:	6013      	str	r3, [r2, #0]
#endif /* INSTRUCTION_CACHE_ENABLE */

#if (DATA_CACHE_ENABLE != 0U)
  __HAL_FLASH_DATA_CACHE_ENABLE();
 80008bc:	4b0b      	ldr	r3, [pc, #44]	; (80008ec <HAL_Init+0x40>)
 80008be:	681b      	ldr	r3, [r3, #0]
 80008c0:	4a0a      	ldr	r2, [pc, #40]	; (80008ec <HAL_Init+0x40>)
 80008c2:	f443 6380 	orr.w	r3, r3, #1024	; 0x400
 80008c6:	6013      	str	r3, [r2, #0]
#endif /* DATA_CACHE_ENABLE */

#if (PREFETCH_ENABLE != 0U)
  __HAL_FLASH_PREFETCH_BUFFER_ENABLE();
 80008c8:	4b08      	ldr	r3, [pc, #32]	; (80008ec <HAL_Init+0x40>)
 80008ca:	681b      	ldr	r3, [r3, #0]
 80008cc:	4a07      	ldr	r2, [pc, #28]	; (80008ec <HAL_Init+0x40>)
 80008ce:	f443 7380 	orr.w	r3, r3, #256	; 0x100
 80008d2:	6013      	str	r3, [r2, #0]
#endif /* PREFETCH_ENABLE */

  /* Set Interrupt Group Priority */
  HAL_NVIC_SetPriorityGrouping(NVIC_PRIORITYGROUP_4);
 80008d4:	2003      	movs	r0, #3
 80008d6:	f000 f90d 	bl	8000af4 <HAL_NVIC_SetPriorityGrouping>

  /* Use systick as time base source and configure 1ms tick (default clock after Reset is HSI) */
  HAL_InitTick(TICK_INT_PRIORITY);
 80008da:	2000      	movs	r0, #0
 80008dc:	f000 f808 	bl	80008f0 <HAL_InitTick>

  /* Init the low level hardware */
  HAL_MspInit();
 80008e0:	f7ff ff0e 	bl	8000700 <HAL_MspInit>

  /* Return function status */
  return HAL_OK;
 80008e4:	2300      	movs	r3, #0
}
 80008e6:	4618      	mov	r0, r3
 80008e8:	bd80      	pop	{r7, pc}
 80008ea:	bf00      	nop
 80008ec:	40023c00 	.word	0x40023c00

080008f0 <HAL_InitTick>:
  *       implementation  in user file.
  * @param TickPriority Tick interrupt priority.
  * @retval HAL status
  */
__weak HAL_StatusTypeDef HAL_InitTick(uint32_t TickPriority)
{
 80008f0:	b580      	push	{r7, lr}
 80008f2:	b082      	sub	sp, #8
 80008f4:	af00      	add	r7, sp, #0
 80008f6:	6078      	str	r0, [r7, #4]
  /* Configure the SysTick to have interrupt in 1ms time basis*/
  if (HAL_SYSTICK_Config(SystemCoreClock / (1000U / uwTickFreq)) > 0U)
 80008f8:	4b12      	ldr	r3, [pc, #72]	; (8000944 <HAL_InitTick+0x54>)
 80008fa:	681a      	ldr	r2, [r3, #0]
 80008fc:	4b12      	ldr	r3, [pc, #72]	; (8000948 <HAL_InitTick+0x58>)
 80008fe:	781b      	ldrb	r3, [r3, #0]
 8000900:	4619      	mov	r1, r3
 8000902:	f44f 737a 	mov.w	r3, #1000	; 0x3e8
 8000906:	fbb3 f3f1 	udiv	r3, r3, r1
 800090a:	fbb2 f3f3 	udiv	r3, r2, r3
 800090e:	4618      	mov	r0, r3
 8000910:	f000 f917 	bl	8000b42 <HAL_SYSTICK_Config>
 8000914:	4603      	mov	r3, r0
 8000916:	2b00      	cmp	r3, #0
 8000918:	d001      	beq.n	800091e <HAL_InitTick+0x2e>
  {
    return HAL_ERROR;
 800091a:	2301      	movs	r3, #1
 800091c:	e00e      	b.n	800093c <HAL_InitTick+0x4c>
  }

  /* Configure the SysTick IRQ priority */
  if (TickPriority < (1UL << __NVIC_PRIO_BITS))
 800091e:	687b      	ldr	r3, [r7, #4]
 8000920:	2b0f      	cmp	r3, #15
 8000922:	d80a      	bhi.n	800093a <HAL_InitTick+0x4a>
  {
    HAL_NVIC_SetPriority(SysTick_IRQn, TickPriority, 0U);
 8000924:	2200      	movs	r2, #0
 8000926:	6879      	ldr	r1, [r7, #4]
 8000928:	f04f 30ff 	mov.w	r0, #4294967295
 800092c:	f000 f8ed 	bl	8000b0a <HAL_NVIC_SetPriority>
    uwTickPrio = TickPriority;
 8000930:	4a06      	ldr	r2, [pc, #24]	; (800094c <HAL_InitTick+0x5c>)
 8000932:	687b      	ldr	r3, [r7, #4]
 8000934:	6013      	str	r3, [r2, #0]
  {
    return HAL_ERROR;
  }

  /* Return function status */
  return HAL_OK;
 8000936:	2300      	movs	r3, #0
 8000938:	e000      	b.n	800093c <HAL_InitTick+0x4c>
    return HAL_ERROR;
 800093a:	2301      	movs	r3, #1
}
 800093c:	4618      	mov	r0, r3
 800093e:	3708      	adds	r7, #8
 8000940:	46bd      	mov	sp, r7
 8000942:	bd80      	pop	{r7, pc}
 8000944:	20000000 	.word	0x20000000
 8000948:	20000008 	.word	0x20000008
 800094c:	20000004 	.word	0x20000004

08000950 <HAL_IncTick>:
 * @note This function is declared as __weak to be overwritten in case of other 
  *      implementations in user file.
  * @retval None
  */
__weak void HAL_IncTick(void)
{
 8000950:	b480      	push	{r7}
 8000952:	af00      	add	r7, sp, #0
  uwTick += uwTickFreq;
 8000954:	4b06      	ldr	r3, [pc, #24]	; (8000970 <HAL_IncTick+0x20>)
 8000956:	781b      	ldrb	r3, [r3, #0]
 8000958:	461a      	mov	r2, r3
 800095a:	4b06      	ldr	r3, [pc, #24]	; (8000974 <HAL_IncTick+0x24>)
 800095c:	681b      	ldr	r3, [r3, #0]
 800095e:	4413      	add	r3, r2
 8000960:	4a04      	ldr	r2, [pc, #16]	; (8000974 <HAL_IncTick+0x24>)
 8000962:	6013      	str	r3, [r2, #0]
}
 8000964:	bf00      	nop
 8000966:	46bd      	mov	sp, r7
 8000968:	f85d 7b04 	ldr.w	r7, [sp], #4
 800096c:	4770      	bx	lr
 800096e:	bf00      	nop
 8000970:	20000008 	.word	0x20000008
 8000974:	20000080 	.word	0x20000080

08000978 <HAL_GetTick>:
  * @note This function is declared as __weak to be overwritten in case of other 
  *       implementations in user file.
  * @retval tick value
  */
__weak uint32_t HAL_GetTick(void)
{
 8000978:	b480      	push	{r7}
 800097a:	af00      	add	r7, sp, #0
  return uwTick;
 800097c:	4b03      	ldr	r3, [pc, #12]	; (800098c <HAL_GetTick+0x14>)
 800097e:	681b      	ldr	r3, [r3, #0]
}
 8000980:	4618      	mov	r0, r3
 8000982:	46bd      	mov	sp, r7
 8000984:	f85d 7b04 	ldr.w	r7, [sp], #4
 8000988:	4770      	bx	lr
 800098a:	bf00      	nop
 800098c:	20000080 	.word	0x20000080

08000990 <__NVIC_SetPriorityGrouping>:
           In case of a conflict between priority grouping and available
           priority bits (__NVIC_PRIO_BITS), the smallest possible priority group is set.
  \param [in]      PriorityGroup  Priority grouping field.
 */
__STATIC_INLINE void __NVIC_SetPriorityGrouping(uint32_t PriorityGroup)
{
 8000990:	b480      	push	{r7}
 8000992:	b085      	sub	sp, #20
 8000994:	af00      	add	r7, sp, #0
 8000996:	6078      	str	r0, [r7, #4]
  uint32_t reg_value;
  uint32_t PriorityGroupTmp = (PriorityGroup & (uint32_t)0x07UL);             /* only values 0..7 are used          */
 8000998:	687b      	ldr	r3, [r7, #4]
 800099a:	f003 0307 	and.w	r3, r3, #7
 800099e:	60fb      	str	r3, [r7, #12]

  reg_value  =  SCB->AIRCR;                                                   /* read old register configuration    */
 80009a0:	4b0c      	ldr	r3, [pc, #48]	; (80009d4 <__NVIC_SetPriorityGrouping+0x44>)
 80009a2:	68db      	ldr	r3, [r3, #12]
 80009a4:	60bb      	str	r3, [r7, #8]
  reg_value &= ~((uint32_t)(SCB_AIRCR_VECTKEY_Msk | SCB_AIRCR_PRIGROUP_Msk)); /* clear bits to change               */
 80009a6:	68ba      	ldr	r2, [r7, #8]
 80009a8:	f64f 03ff 	movw	r3, #63743	; 0xf8ff
 80009ac:	4013      	ands	r3, r2
 80009ae:	60bb      	str	r3, [r7, #8]
  reg_value  =  (reg_value                                   |
                ((uint32_t)0x5FAUL << SCB_AIRCR_VECTKEY_Pos) |
                (PriorityGroupTmp << SCB_AIRCR_PRIGROUP_Pos)  );              /* Insert write key and priority group */
 80009b0:	68fb      	ldr	r3, [r7, #12]
 80009b2:	021a      	lsls	r2, r3, #8
                ((uint32_t)0x5FAUL << SCB_AIRCR_VECTKEY_Pos) |
 80009b4:	68bb      	ldr	r3, [r7, #8]
 80009b6:	4313      	orrs	r3, r2
  reg_value  =  (reg_value                                   |
 80009b8:	f043 63bf 	orr.w	r3, r3, #100139008	; 0x5f80000
 80009bc:	f443 3300 	orr.w	r3, r3, #131072	; 0x20000
 80009c0:	60bb      	str	r3, [r7, #8]
  SCB->AIRCR =  reg_value;
 80009c2:	4a04      	ldr	r2, [pc, #16]	; (80009d4 <__NVIC_SetPriorityGrouping+0x44>)
 80009c4:	68bb      	ldr	r3, [r7, #8]
 80009c6:	60d3      	str	r3, [r2, #12]
}
 80009c8:	bf00      	nop
 80009ca:	3714      	adds	r7, #20
 80009cc:	46bd      	mov	sp, r7
 80009ce:	f85d 7b04 	ldr.w	r7, [sp], #4
 80009d2:	4770      	bx	lr
 80009d4:	e000ed00 	.word	0xe000ed00

080009d8 <__NVIC_GetPriorityGrouping>:
  \brief   Get Priority Grouping
  \details Reads the priority grouping field from the NVIC Interrupt Controller.
  \return                Priority grouping field (SCB->AIRCR [10:8] PRIGROUP field).
 */
__STATIC_INLINE uint32_t __NVIC_GetPriorityGrouping(void)
{
 80009d8:	b480      	push	{r7}
 80009da:	af00      	add	r7, sp, #0
  return ((uint32_t)((SCB->AIRCR & SCB_AIRCR_PRIGROUP_Msk) >> SCB_AIRCR_PRIGROUP_Pos));
 80009dc:	4b04      	ldr	r3, [pc, #16]	; (80009f0 <__NVIC_GetPriorityGrouping+0x18>)
 80009de:	68db      	ldr	r3, [r3, #12]
 80009e0:	0a1b      	lsrs	r3, r3, #8
 80009e2:	f003 0307 	and.w	r3, r3, #7
}
 80009e6:	4618      	mov	r0, r3
 80009e8:	46bd      	mov	sp, r7
 80009ea:	f85d 7b04 	ldr.w	r7, [sp], #4
 80009ee:	4770      	bx	lr
 80009f0:	e000ed00 	.word	0xe000ed00

080009f4 <__NVIC_SetPriority>:
  \param [in]      IRQn  Interrupt number.
  \param [in]  priority  Priority to set.
  \note    The priority cannot be set for every processor exception.
 */
__STATIC_INLINE void __NVIC_SetPriority(IRQn_Type IRQn, uint32_t priority)
{
 80009f4:	b480      	push	{r7}
 80009f6:	b083      	sub	sp, #12
 80009f8:	af00      	add	r7, sp, #0
 80009fa:	4603      	mov	r3, r0
 80009fc:	6039      	str	r1, [r7, #0]
 80009fe:	71fb      	strb	r3, [r7, #7]
  if ((int32_t)(IRQn) >= 0)
 8000a00:	f997 3007 	ldrsb.w	r3, [r7, #7]
 8000a04:	2b00      	cmp	r3, #0
 8000a06:	db0a      	blt.n	8000a1e <__NVIC_SetPriority+0x2a>
  {
    NVIC->IP[((uint32_t)IRQn)]               = (uint8_t)((priority << (8U - __NVIC_PRIO_BITS)) & (uint32_t)0xFFUL);
 8000a08:	683b      	ldr	r3, [r7, #0]
 8000a0a:	b2da      	uxtb	r2, r3
 8000a0c:	490c      	ldr	r1, [pc, #48]	; (8000a40 <__NVIC_SetPriority+0x4c>)
 8000a0e:	f997 3007 	ldrsb.w	r3, [r7, #7]
 8000a12:	0112      	lsls	r2, r2, #4
 8000a14:	b2d2      	uxtb	r2, r2
 8000a16:	440b      	add	r3, r1
 8000a18:	f883 2300 	strb.w	r2, [r3, #768]	; 0x300
  }
  else
  {
    SCB->SHP[(((uint32_t)IRQn) & 0xFUL)-4UL] = (uint8_t)((priority << (8U - __NVIC_PRIO_BITS)) & (uint32_t)0xFFUL);
  }
}
 8000a1c:	e00a      	b.n	8000a34 <__NVIC_SetPriority+0x40>
    SCB->SHP[(((uint32_t)IRQn) & 0xFUL)-4UL] = (uint8_t)((priority << (8U - __NVIC_PRIO_BITS)) & (uint32_t)0xFFUL);
 8000a1e:	683b      	ldr	r3, [r7, #0]
 8000a20:	b2da      	uxtb	r2, r3
 8000a22:	4908      	ldr	r1, [pc, #32]	; (8000a44 <__NVIC_SetPriority+0x50>)
 8000a24:	79fb      	ldrb	r3, [r7, #7]
 8000a26:	f003 030f 	and.w	r3, r3, #15
 8000a2a:	3b04      	subs	r3, #4
 8000a2c:	0112      	lsls	r2, r2, #4
 8000a2e:	b2d2      	uxtb	r2, r2
 8000a30:	440b      	add	r3, r1
 8000a32:	761a      	strb	r2, [r3, #24]
}
 8000a34:	bf00      	nop
 8000a36:	370c      	adds	r7, #12
 8000a38:	46bd      	mov	sp, r7
 8000a3a:	f85d 7b04 	ldr.w	r7, [sp], #4
 8000a3e:	4770      	bx	lr
 8000a40:	e000e100 	.word	0xe000e100
 8000a44:	e000ed00 	.word	0xe000ed00

08000a48 <NVIC_EncodePriority>:
  \param [in]   PreemptPriority  Preemptive priority value (starting from 0).
  \param [in]       SubPriority  Subpriority value (starting from 0).
  \return                        Encoded priority. Value can be used in the function \ref NVIC_SetPriority().
 */
__STATIC_INLINE uint32_t NVIC_EncodePriority (uint32_t PriorityGroup, uint32_t PreemptPriority, uint32_t SubPriority)
{
 8000a48:	b480      	push	{r7}
 8000a4a:	b089      	sub	sp, #36	; 0x24
 8000a4c:	af00      	add	r7, sp, #0
 8000a4e:	60f8      	str	r0, [r7, #12]
 8000a50:	60b9      	str	r1, [r7, #8]
 8000a52:	607a      	str	r2, [r7, #4]
  uint32_t PriorityGroupTmp = (PriorityGroup & (uint32_t)0x07UL);   /* only values 0..7 are used          */
 8000a54:	68fb      	ldr	r3, [r7, #12]
 8000a56:	f003 0307 	and.w	r3, r3, #7
 8000a5a:	61fb      	str	r3, [r7, #28]
  uint32_t PreemptPriorityBits;
  uint32_t SubPriorityBits;

  PreemptPriorityBits = ((7UL - PriorityGroupTmp) > (uint32_t)(__NVIC_PRIO_BITS)) ? (uint32_t)(__NVIC_PRIO_BITS) : (uint32_t)(7UL - PriorityGroupTmp);
 8000a5c:	69fb      	ldr	r3, [r7, #28]
 8000a5e:	f1c3 0307 	rsb	r3, r3, #7
 8000a62:	2b04      	cmp	r3, #4
 8000a64:	bf28      	it	cs
 8000a66:	2304      	movcs	r3, #4
 8000a68:	61bb      	str	r3, [r7, #24]
  SubPriorityBits     = ((PriorityGroupTmp + (uint32_t)(__NVIC_PRIO_BITS)) < (uint32_t)7UL) ? (uint32_t)0UL : (uint32_t)((PriorityGroupTmp - 7UL) + (uint32_t)(__NVIC_PRIO_BITS));
 8000a6a:	69fb      	ldr	r3, [r7, #28]
 8000a6c:	3304      	adds	r3, #4
 8000a6e:	2b06      	cmp	r3, #6
 8000a70:	d902      	bls.n	8000a78 <NVIC_EncodePriority+0x30>
 8000a72:	69fb      	ldr	r3, [r7, #28]
 8000a74:	3b03      	subs	r3, #3
 8000a76:	e000      	b.n	8000a7a <NVIC_EncodePriority+0x32>
 8000a78:	2300      	movs	r3, #0
 8000a7a:	617b      	str	r3, [r7, #20]

  return (
           ((PreemptPriority & (uint32_t)((1UL << (PreemptPriorityBits)) - 1UL)) << SubPriorityBits) |
 8000a7c:	f04f 32ff 	mov.w	r2, #4294967295
 8000a80:	69bb      	ldr	r3, [r7, #24]
 8000a82:	fa02 f303 	lsl.w	r3, r2, r3
 8000a86:	43da      	mvns	r2, r3
 8000a88:	68bb      	ldr	r3, [r7, #8]
 8000a8a:	401a      	ands	r2, r3
 8000a8c:	697b      	ldr	r3, [r7, #20]
 8000a8e:	409a      	lsls	r2, r3
           ((SubPriority     & (uint32_t)((1UL << (SubPriorityBits    )) - 1UL)))
 8000a90:	f04f 31ff 	mov.w	r1, #4294967295
 8000a94:	697b      	ldr	r3, [r7, #20]
 8000a96:	fa01 f303 	lsl.w	r3, r1, r3
 8000a9a:	43d9      	mvns	r1, r3
 8000a9c:	687b      	ldr	r3, [r7, #4]
 8000a9e:	400b      	ands	r3, r1
           ((PreemptPriority & (uint32_t)((1UL << (PreemptPriorityBits)) - 1UL)) << SubPriorityBits) |
 8000aa0:	4313      	orrs	r3, r2
         );
}
 8000aa2:	4618      	mov	r0, r3
 8000aa4:	3724      	adds	r7, #36	; 0x24
 8000aa6:	46bd      	mov	sp, r7
 8000aa8:	f85d 7b04 	ldr.w	r7, [sp], #4
 8000aac:	4770      	bx	lr
	...

08000ab0 <SysTick_Config>:
  \note    When the variable <b>__Vendor_SysTickConfig</b> is set to 1, then the
           function <b>SysTick_Config</b> is not included. In this case, the file <b><i>device</i>.h</b>
           must contain a vendor-specific implementation of this function.
 */
__STATIC_INLINE uint32_t SysTick_Config(uint32_t ticks)
{
 8000ab0:	b580      	push	{r7, lr}
 8000ab2:	b082      	sub	sp, #8
 8000ab4:	af00      	add	r7, sp, #0
 8000ab6:	6078      	str	r0, [r7, #4]
  if ((ticks - 1UL) > SysTick_LOAD_RELOAD_Msk)
 8000ab8:	687b      	ldr	r3, [r7, #4]
 8000aba:	3b01      	subs	r3, #1
 8000abc:	f1b3 7f80 	cmp.w	r3, #16777216	; 0x1000000
 8000ac0:	d301      	bcc.n	8000ac6 <SysTick_Config+0x16>
  {
    return (1UL);                                                   /* Reload value impossible */
 8000ac2:	2301      	movs	r3, #1
 8000ac4:	e00f      	b.n	8000ae6 <SysTick_Config+0x36>
  }

  SysTick->LOAD  = (uint32_t)(ticks - 1UL);                         /* set reload register */
 8000ac6:	4a0a      	ldr	r2, [pc, #40]	; (8000af0 <SysTick_Config+0x40>)
 8000ac8:	687b      	ldr	r3, [r7, #4]
 8000aca:	3b01      	subs	r3, #1
 8000acc:	6053      	str	r3, [r2, #4]
  NVIC_SetPriority (SysTick_IRQn, (1UL << __NVIC_PRIO_BITS) - 1UL); /* set Priority for Systick Interrupt */
 8000ace:	210f      	movs	r1, #15
 8000ad0:	f04f 30ff 	mov.w	r0, #4294967295
 8000ad4:	f7ff ff8e 	bl	80009f4 <__NVIC_SetPriority>
  SysTick->VAL   = 0UL;                                             /* Load the SysTick Counter Value */
 8000ad8:	4b05      	ldr	r3, [pc, #20]	; (8000af0 <SysTick_Config+0x40>)
 8000ada:	2200      	movs	r2, #0
 8000adc:	609a      	str	r2, [r3, #8]
  SysTick->CTRL  = SysTick_CTRL_CLKSOURCE_Msk |
 8000ade:	4b04      	ldr	r3, [pc, #16]	; (8000af0 <SysTick_Config+0x40>)
 8000ae0:	2207      	movs	r2, #7
 8000ae2:	601a      	str	r2, [r3, #0]
                   SysTick_CTRL_TICKINT_Msk   |
                   SysTick_CTRL_ENABLE_Msk;                         /* Enable SysTick IRQ and SysTick Timer */
  return (0UL);                                                     /* Function successful */
 8000ae4:	2300      	movs	r3, #0
}
 8000ae6:	4618      	mov	r0, r3
 8000ae8:	3708      	adds	r7, #8
 8000aea:	46bd      	mov	sp, r7
 8000aec:	bd80      	pop	{r7, pc}
 8000aee:	bf00      	nop
 8000af0:	e000e010 	.word	0xe000e010

08000af4 <HAL_NVIC_SetPriorityGrouping>:
  * @note   When the NVIC_PriorityGroup_0 is selected, IRQ preemption is no more possible. 
  *         The pending IRQ priority will be managed only by the subpriority. 
  * @retval None
  */
void HAL_NVIC_SetPriorityGrouping(uint32_t PriorityGroup)
{
 8000af4:	b580      	push	{r7, lr}
 8000af6:	b082      	sub	sp, #8
 8000af8:	af00      	add	r7, sp, #0
 8000afa:	6078      	str	r0, [r7, #4]
  /* Check the parameters */
  assert_param(IS_NVIC_PRIORITY_GROUP(PriorityGroup));
  
  /* Set the PRIGROUP[10:8] bits according to the PriorityGroup parameter value */
  NVIC_SetPriorityGrouping(PriorityGroup);
 8000afc:	6878      	ldr	r0, [r7, #4]
 8000afe:	f7ff ff47 	bl	8000990 <__NVIC_SetPriorityGrouping>
}
 8000b02:	bf00      	nop
 8000b04:	3708      	adds	r7, #8
 8000b06:	46bd      	mov	sp, r7
 8000b08:	bd80      	pop	{r7, pc}

08000b0a <HAL_NVIC_SetPriority>:
  *         This parameter can be a value between 0 and 15
  *         A lower priority value indicates a higher priority.          
  * @retval None
  */
void HAL_NVIC_SetPriority(IRQn_Type IRQn, uint32_t PreemptPriority, uint32_t SubPriority)
{ 
 8000b0a:	b580      	push	{r7, lr}
 8000b0c:	b086      	sub	sp, #24
 8000b0e:	af00      	add	r7, sp, #0
 8000b10:	4603      	mov	r3, r0
 8000b12:	60b9      	str	r1, [r7, #8]
 8000b14:	607a      	str	r2, [r7, #4]
 8000b16:	73fb      	strb	r3, [r7, #15]
  uint32_t prioritygroup = 0x00U;
 8000b18:	2300      	movs	r3, #0
 8000b1a:	617b      	str	r3, [r7, #20]
  
  /* Check the parameters */
  assert_param(IS_NVIC_SUB_PRIORITY(SubPriority));
  assert_param(IS_NVIC_PREEMPTION_PRIORITY(PreemptPriority));
  
  prioritygroup = NVIC_GetPriorityGrouping();
 8000b1c:	f7ff ff5c 	bl	80009d8 <__NVIC_GetPriorityGrouping>
 8000b20:	6178      	str	r0, [r7, #20]
  
  NVIC_SetPriority(IRQn, NVIC_EncodePriority(prioritygroup, PreemptPriority, SubPriority));
 8000b22:	687a      	ldr	r2, [r7, #4]
 8000b24:	68b9      	ldr	r1, [r7, #8]
 8000b26:	6978      	ldr	r0, [r7, #20]
 8000b28:	f7ff ff8e 	bl	8000a48 <NVIC_EncodePriority>
 8000b2c:	4602      	mov	r2, r0
 8000b2e:	f997 300f 	ldrsb.w	r3, [r7, #15]
 8000b32:	4611      	mov	r1, r2
 8000b34:	4618      	mov	r0, r3
 8000b36:	f7ff ff5d 	bl	80009f4 <__NVIC_SetPriority>
}
 8000b3a:	bf00      	nop
 8000b3c:	3718      	adds	r7, #24
 8000b3e:	46bd      	mov	sp, r7
 8000b40:	bd80      	pop	{r7, pc}

08000b42 <HAL_SYSTICK_Config>:
  * @param  TicksNumb Specifies the ticks Number of ticks between two interrupts.
  * @retval status:  - 0  Function succeeded.
  *                  - 1  Function failed.
  */
uint32_t HAL_SYSTICK_Config(uint32_t TicksNumb)
{
 8000b42:	b580      	push	{r7, lr}
 8000b44:	b082      	sub	sp, #8
 8000b46:	af00      	add	r7, sp, #0
 8000b48:	6078      	str	r0, [r7, #4]
   return SysTick_Config(TicksNumb);
 8000b4a:	6878      	ldr	r0, [r7, #4]
 8000b4c:	f7ff ffb0 	bl	8000ab0 <SysTick_Config>
 8000b50:	4603      	mov	r3, r0
}
 8000b52:	4618      	mov	r0, r3
 8000b54:	3708      	adds	r7, #8
 8000b56:	46bd      	mov	sp, r7
 8000b58:	bd80      	pop	{r7, pc}
	...

08000b5c <HAL_GPIO_Init>:
  * @param  GPIO_Init pointer to a GPIO_InitTypeDef structure that contains
  *         the configuration information for the specified GPIO peripheral.
  * @retval None
  */
void HAL_GPIO_Init(GPIO_TypeDef  *GPIOx, GPIO_InitTypeDef *GPIO_Init)
{
 8000b5c:	b480      	push	{r7}
 8000b5e:	b089      	sub	sp, #36	; 0x24
 8000b60:	af00      	add	r7, sp, #0
 8000b62:	6078      	str	r0, [r7, #4]
 8000b64:	6039      	str	r1, [r7, #0]
  uint32_t position;
  uint32_t ioposition = 0x00U;
 8000b66:	2300      	movs	r3, #0
 8000b68:	617b      	str	r3, [r7, #20]
  uint32_t iocurrent = 0x00U;
 8000b6a:	2300      	movs	r3, #0
 8000b6c:	613b      	str	r3, [r7, #16]
  uint32_t temp = 0x00U;
 8000b6e:	2300      	movs	r3, #0
 8000b70:	61bb      	str	r3, [r7, #24]
  assert_param(IS_GPIO_ALL_INSTANCE(GPIOx));
  assert_param(IS_GPIO_PIN(GPIO_Init->Pin));
  assert_param(IS_GPIO_MODE(GPIO_Init->Mode));

  /* Configure the port pins */
  for(position = 0U; position < GPIO_NUMBER; position++)
 8000b72:	2300      	movs	r3, #0
 8000b74:	61fb      	str	r3, [r7, #28]
 8000b76:	e16b      	b.n	8000e50 <HAL_GPIO_Init+0x2f4>
  {
    /* Get the IO position */
    ioposition = 0x01U << position;
 8000b78:	2201      	movs	r2, #1
 8000b7a:	69fb      	ldr	r3, [r7, #28]
 8000b7c:	fa02 f303 	lsl.w	r3, r2, r3
 8000b80:	617b      	str	r3, [r7, #20]
    /* Get the current IO position */
    iocurrent = (uint32_t)(GPIO_Init->Pin) & ioposition;
 8000b82:	683b      	ldr	r3, [r7, #0]
 8000b84:	681b      	ldr	r3, [r3, #0]
 8000b86:	697a      	ldr	r2, [r7, #20]
 8000b88:	4013      	ands	r3, r2
 8000b8a:	613b      	str	r3, [r7, #16]

    if(iocurrent == ioposition)
 8000b8c:	693a      	ldr	r2, [r7, #16]
 8000b8e:	697b      	ldr	r3, [r7, #20]
 8000b90:	429a      	cmp	r2, r3
 8000b92:	f040 815a 	bne.w	8000e4a <HAL_GPIO_Init+0x2ee>
    {
      /*--------------------- GPIO Mode Configuration ------------------------*/
      /* In case of Output or Alternate function mode selection */
      if(((GPIO_Init->Mode & GPIO_MODE) == MODE_OUTPUT) || \
 8000b96:	683b      	ldr	r3, [r7, #0]
 8000b98:	685b      	ldr	r3, [r3, #4]
 8000b9a:	f003 0303 	and.w	r3, r3, #3
 8000b9e:	2b01      	cmp	r3, #1
 8000ba0:	d005      	beq.n	8000bae <HAL_GPIO_Init+0x52>
          (GPIO_Init->Mode & GPIO_MODE) == MODE_AF)
 8000ba2:	683b      	ldr	r3, [r7, #0]
 8000ba4:	685b      	ldr	r3, [r3, #4]
 8000ba6:	f003 0303 	and.w	r3, r3, #3
      if(((GPIO_Init->Mode & GPIO_MODE) == MODE_OUTPUT) || \
 8000baa:	2b02      	cmp	r3, #2
 8000bac:	d130      	bne.n	8000c10 <HAL_GPIO_Init+0xb4>
      {
        /* Check the Speed parameter */
        assert_param(IS_GPIO_SPEED(GPIO_Init->Speed));
        /* Configure the IO Speed */
        temp = GPIOx->OSPEEDR; 
 8000bae:	687b      	ldr	r3, [r7, #4]
 8000bb0:	689b      	ldr	r3, [r3, #8]
 8000bb2:	61bb      	str	r3, [r7, #24]
        temp &= ~(GPIO_OSPEEDER_OSPEEDR0 << (position * 2U));
 8000bb4:	69fb      	ldr	r3, [r7, #28]
 8000bb6:	005b      	lsls	r3, r3, #1
 8000bb8:	2203      	movs	r2, #3
 8000bba:	fa02 f303 	lsl.w	r3, r2, r3
 8000bbe:	43db      	mvns	r3, r3
 8000bc0:	69ba      	ldr	r2, [r7, #24]
 8000bc2:	4013      	ands	r3, r2
 8000bc4:	61bb      	str	r3, [r7, #24]
        temp |= (GPIO_Init->Speed << (position * 2U));
 8000bc6:	683b      	ldr	r3, [r7, #0]
 8000bc8:	68da      	ldr	r2, [r3, #12]
 8000bca:	69fb      	ldr	r3, [r7, #28]
 8000bcc:	005b      	lsls	r3, r3, #1
 8000bce:	fa02 f303 	lsl.w	r3, r2, r3
 8000bd2:	69ba      	ldr	r2, [r7, #24]
 8000bd4:	4313      	orrs	r3, r2
 8000bd6:	61bb      	str	r3, [r7, #24]
        GPIOx->OSPEEDR = temp;
 8000bd8:	687b      	ldr	r3, [r7, #4]
 8000bda:	69ba      	ldr	r2, [r7, #24]
 8000bdc:	609a      	str	r2, [r3, #8]

        /* Configure the IO Output Type */
        temp = GPIOx->OTYPER;
 8000bde:	687b      	ldr	r3, [r7, #4]
 8000be0:	685b      	ldr	r3, [r3, #4]
 8000be2:	61bb      	str	r3, [r7, #24]
        temp &= ~(GPIO_OTYPER_OT_0 << position) ;
 8000be4:	2201      	movs	r2, #1
 8000be6:	69fb      	ldr	r3, [r7, #28]
 8000be8:	fa02 f303 	lsl.w	r3, r2, r3
 8000bec:	43db      	mvns	r3, r3
 8000bee:	69ba      	ldr	r2, [r7, #24]
 8000bf0:	4013      	ands	r3, r2
 8000bf2:	61bb      	str	r3, [r7, #24]
        temp |= (((GPIO_Init->Mode & OUTPUT_TYPE) >> OUTPUT_TYPE_Pos) << position);
 8000bf4:	683b      	ldr	r3, [r7, #0]
 8000bf6:	685b      	ldr	r3, [r3, #4]
 8000bf8:	091b      	lsrs	r3, r3, #4
 8000bfa:	f003 0201 	and.w	r2, r3, #1
 8000bfe:	69fb      	ldr	r3, [r7, #28]
 8000c00:	fa02 f303 	lsl.w	r3, r2, r3
 8000c04:	69ba      	ldr	r2, [r7, #24]
 8000c06:	4313      	orrs	r3, r2
 8000c08:	61bb      	str	r3, [r7, #24]
        GPIOx->OTYPER = temp;
 8000c0a:	687b      	ldr	r3, [r7, #4]
 8000c0c:	69ba      	ldr	r2, [r7, #24]
 8000c0e:	605a      	str	r2, [r3, #4]
       }

      if((GPIO_Init->Mode & GPIO_MODE) != MODE_ANALOG)
 8000c10:	683b      	ldr	r3, [r7, #0]
 8000c12:	685b      	ldr	r3, [r3, #4]
 8000c14:	f003 0303 	and.w	r3, r3, #3
 8000c18:	2b03      	cmp	r3, #3
 8000c1a:	d017      	beq.n	8000c4c <HAL_GPIO_Init+0xf0>
      {
        /* Check the parameters */
        assert_param(IS_GPIO_PULL(GPIO_Init->Pull));
        
        /* Activate the Pull-up or Pull down resistor for the current IO */
        temp = GPIOx->PUPDR;
 8000c1c:	687b      	ldr	r3, [r7, #4]
 8000c1e:	68db      	ldr	r3, [r3, #12]
 8000c20:	61bb      	str	r3, [r7, #24]
        temp &= ~(GPIO_PUPDR_PUPDR0 << (position * 2U));
 8000c22:	69fb      	ldr	r3, [r7, #28]
 8000c24:	005b      	lsls	r3, r3, #1
 8000c26:	2203      	movs	r2, #3
 8000c28:	fa02 f303 	lsl.w	r3, r2, r3
 8000c2c:	43db      	mvns	r3, r3
 8000c2e:	69ba      	ldr	r2, [r7, #24]
 8000c30:	4013      	ands	r3, r2
 8000c32:	61bb      	str	r3, [r7, #24]
        temp |= ((GPIO_Init->Pull) << (position * 2U));
 8000c34:	683b      	ldr	r3, [r7, #0]
 8000c36:	689a      	ldr	r2, [r3, #8]
 8000c38:	69fb      	ldr	r3, [r7, #28]
 8000c3a:	005b      	lsls	r3, r3, #1
 8000c3c:	fa02 f303 	lsl.w	r3, r2, r3
 8000c40:	69ba      	ldr	r2, [r7, #24]
 8000c42:	4313      	orrs	r3, r2
 8000c44:	61bb      	str	r3, [r7, #24]
        GPIOx->PUPDR = temp;
 8000c46:	687b      	ldr	r3, [r7, #4]
 8000c48:	69ba      	ldr	r2, [r7, #24]
 8000c4a:	60da      	str	r2, [r3, #12]
      }

      /* In case of Alternate function mode selection */
      if((GPIO_Init->Mode & GPIO_MODE) == MODE_AF)
 8000c4c:	683b      	ldr	r3, [r7, #0]
 8000c4e:	685b      	ldr	r3, [r3, #4]
 8000c50:	f003 0303 	and.w	r3, r3, #3
 8000c54:	2b02      	cmp	r3, #2
 8000c56:	d123      	bne.n	8000ca0 <HAL_GPIO_Init+0x144>
      {
        /* Check the Alternate function parameter */
        assert_param(IS_GPIO_AF(GPIO_Init->Alternate));
        /* Configure Alternate function mapped with the current IO */
        temp = GPIOx->AFR[position >> 3U];
 8000c58:	69fb      	ldr	r3, [r7, #28]
 8000c5a:	08da      	lsrs	r2, r3, #3
 8000c5c:	687b      	ldr	r3, [r7, #4]
 8000c5e:	3208      	adds	r2, #8
 8000c60:	f853 3022 	ldr.w	r3, [r3, r2, lsl #2]
 8000c64:	61bb      	str	r3, [r7, #24]
        temp &= ~(0xFU << ((uint32_t)(position & 0x07U) * 4U)) ;
 8000c66:	69fb      	ldr	r3, [r7, #28]
 8000c68:	f003 0307 	and.w	r3, r3, #7
 8000c6c:	009b      	lsls	r3, r3, #2
 8000c6e:	220f      	movs	r2, #15
 8000c70:	fa02 f303 	lsl.w	r3, r2, r3
 8000c74:	43db      	mvns	r3, r3
 8000c76:	69ba      	ldr	r2, [r7, #24]
 8000c78:	4013      	ands	r3, r2
 8000c7a:	61bb      	str	r3, [r7, #24]
        temp |= ((uint32_t)(GPIO_Init->Alternate) << (((uint32_t)position & 0x07U) * 4U));
 8000c7c:	683b      	ldr	r3, [r7, #0]
 8000c7e:	691a      	ldr	r2, [r3, #16]
 8000c80:	69fb      	ldr	r3, [r7, #28]
 8000c82:	f003 0307 	and.w	r3, r3, #7
 8000c86:	009b      	lsls	r3, r3, #2
 8000c88:	fa02 f303 	lsl.w	r3, r2, r3
 8000c8c:	69ba      	ldr	r2, [r7, #24]
 8000c8e:	4313      	orrs	r3, r2
 8000c90:	61bb      	str	r3, [r7, #24]
        GPIOx->AFR[position >> 3U] = temp;
 8000c92:	69fb      	ldr	r3, [r7, #28]
 8000c94:	08da      	lsrs	r2, r3, #3
 8000c96:	687b      	ldr	r3, [r7, #4]
 8000c98:	3208      	adds	r2, #8
 8000c9a:	69b9      	ldr	r1, [r7, #24]
 8000c9c:	f843 1022 	str.w	r1, [r3, r2, lsl #2]
      }

      /* Configure IO Direction mode (Input, Output, Alternate or Analog) */
      temp = GPIOx->MODER;
 8000ca0:	687b      	ldr	r3, [r7, #4]
 8000ca2:	681b      	ldr	r3, [r3, #0]
 8000ca4:	61bb      	str	r3, [r7, #24]
      temp &= ~(GPIO_MODER_MODER0 << (position * 2U));
 8000ca6:	69fb      	ldr	r3, [r7, #28]
 8000ca8:	005b      	lsls	r3, r3, #1
 8000caa:	2203      	movs	r2, #3
 8000cac:	fa02 f303 	lsl.w	r3, r2, r3
 8000cb0:	43db      	mvns	r3, r3
 8000cb2:	69ba      	ldr	r2, [r7, #24]
 8000cb4:	4013      	ands	r3, r2
 8000cb6:	61bb      	str	r3, [r7, #24]
      temp |= ((GPIO_Init->Mode & GPIO_MODE) << (position * 2U));
 8000cb8:	683b      	ldr	r3, [r7, #0]
 8000cba:	685b      	ldr	r3, [r3, #4]
 8000cbc:	f003 0203 	and.w	r2, r3, #3
 8000cc0:	69fb      	ldr	r3, [r7, #28]
 8000cc2:	005b      	lsls	r3, r3, #1
 8000cc4:	fa02 f303 	lsl.w	r3, r2, r3
 8000cc8:	69ba      	ldr	r2, [r7, #24]
 8000cca:	4313      	orrs	r3, r2
 8000ccc:	61bb      	str	r3, [r7, #24]
      GPIOx->MODER = temp;
 8000cce:	687b      	ldr	r3, [r7, #4]
 8000cd0:	69ba      	ldr	r2, [r7, #24]
 8000cd2:	601a      	str	r2, [r3, #0]

      /*--------------------- EXTI Mode Configuration ------------------------*/
      /* Configure the External Interrupt or event for the current IO */
      if((GPIO_Init->Mode & EXTI_MODE) != 0x00U)
 8000cd4:	683b      	ldr	r3, [r7, #0]
 8000cd6:	685b      	ldr	r3, [r3, #4]
 8000cd8:	f403 3340 	and.w	r3, r3, #196608	; 0x30000
 8000cdc:	2b00      	cmp	r3, #0
 8000cde:	f000 80b4 	beq.w	8000e4a <HAL_GPIO_Init+0x2ee>
      {
        /* Enable SYSCFG Clock */
        __HAL_RCC_SYSCFG_CLK_ENABLE();
 8000ce2:	2300      	movs	r3, #0
 8000ce4:	60fb      	str	r3, [r7, #12]
 8000ce6:	4b60      	ldr	r3, [pc, #384]	; (8000e68 <HAL_GPIO_Init+0x30c>)
 8000ce8:	6c5b      	ldr	r3, [r3, #68]	; 0x44
 8000cea:	4a5f      	ldr	r2, [pc, #380]	; (8000e68 <HAL_GPIO_Init+0x30c>)
 8000cec:	f443 4380 	orr.w	r3, r3, #16384	; 0x4000
 8000cf0:	6453      	str	r3, [r2, #68]	; 0x44
 8000cf2:	4b5d      	ldr	r3, [pc, #372]	; (8000e68 <HAL_GPIO_Init+0x30c>)
 8000cf4:	6c5b      	ldr	r3, [r3, #68]	; 0x44
 8000cf6:	f403 4380 	and.w	r3, r3, #16384	; 0x4000
 8000cfa:	60fb      	str	r3, [r7, #12]
 8000cfc:	68fb      	ldr	r3, [r7, #12]

        temp = SYSCFG->EXTICR[position >> 2U];
 8000cfe:	4a5b      	ldr	r2, [pc, #364]	; (8000e6c <HAL_GPIO_Init+0x310>)
 8000d00:	69fb      	ldr	r3, [r7, #28]
 8000d02:	089b      	lsrs	r3, r3, #2
 8000d04:	3302      	adds	r3, #2
 8000d06:	f852 3023 	ldr.w	r3, [r2, r3, lsl #2]
 8000d0a:	61bb      	str	r3, [r7, #24]
        temp &= ~(0x0FU << (4U * (position & 0x03U)));
 8000d0c:	69fb      	ldr	r3, [r7, #28]
 8000d0e:	f003 0303 	and.w	r3, r3, #3
 8000d12:	009b      	lsls	r3, r3, #2
 8000d14:	220f      	movs	r2, #15
 8000d16:	fa02 f303 	lsl.w	r3, r2, r3
 8000d1a:	43db      	mvns	r3, r3
 8000d1c:	69ba      	ldr	r2, [r7, #24]
 8000d1e:	4013      	ands	r3, r2
 8000d20:	61bb      	str	r3, [r7, #24]
        temp |= ((uint32_t)(GPIO_GET_INDEX(GPIOx)) << (4U * (position & 0x03U)));
 8000d22:	687b      	ldr	r3, [r7, #4]
 8000d24:	4a52      	ldr	r2, [pc, #328]	; (8000e70 <HAL_GPIO_Init+0x314>)
 8000d26:	4293      	cmp	r3, r2
 8000d28:	d02b      	beq.n	8000d82 <HAL_GPIO_Init+0x226>
 8000d2a:	687b      	ldr	r3, [r7, #4]
 8000d2c:	4a51      	ldr	r2, [pc, #324]	; (8000e74 <HAL_GPIO_Init+0x318>)
 8000d2e:	4293      	cmp	r3, r2
 8000d30:	d025      	beq.n	8000d7e <HAL_GPIO_Init+0x222>
 8000d32:	687b      	ldr	r3, [r7, #4]
 8000d34:	4a50      	ldr	r2, [pc, #320]	; (8000e78 <HAL_GPIO_Init+0x31c>)
 8000d36:	4293      	cmp	r3, r2
 8000d38:	d01f      	beq.n	8000d7a <HAL_GPIO_Init+0x21e>
 8000d3a:	687b      	ldr	r3, [r7, #4]
 8000d3c:	4a4f      	ldr	r2, [pc, #316]	; (8000e7c <HAL_GPIO_Init+0x320>)
 8000d3e:	4293      	cmp	r3, r2
 8000d40:	d019      	beq.n	8000d76 <HAL_GPIO_Init+0x21a>
 8000d42:	687b      	ldr	r3, [r7, #4]
 8000d44:	4a4e      	ldr	r2, [pc, #312]	; (8000e80 <HAL_GPIO_Init+0x324>)
 8000d46:	4293      	cmp	r3, r2
 8000d48:	d013      	beq.n	8000d72 <HAL_GPIO_Init+0x216>
 8000d4a:	687b      	ldr	r3, [r7, #4]
 8000d4c:	4a4d      	ldr	r2, [pc, #308]	; (8000e84 <HAL_GPIO_Init+0x328>)
 8000d4e:	4293      	cmp	r3, r2
 8000d50:	d00d      	beq.n	8000d6e <HAL_GPIO_Init+0x212>
 8000d52:	687b      	ldr	r3, [r7, #4]
 8000d54:	4a4c      	ldr	r2, [pc, #304]	; (8000e88 <HAL_GPIO_Init+0x32c>)
 8000d56:	4293      	cmp	r3, r2
 8000d58:	d007      	beq.n	8000d6a <HAL_GPIO_Init+0x20e>
 8000d5a:	687b      	ldr	r3, [r7, #4]
 8000d5c:	4a4b      	ldr	r2, [pc, #300]	; (8000e8c <HAL_GPIO_Init+0x330>)
 8000d5e:	4293      	cmp	r3, r2
 8000d60:	d101      	bne.n	8000d66 <HAL_GPIO_Init+0x20a>
 8000d62:	2307      	movs	r3, #7
 8000d64:	e00e      	b.n	8000d84 <HAL_GPIO_Init+0x228>
 8000d66:	2308      	movs	r3, #8
 8000d68:	e00c      	b.n	8000d84 <HAL_GPIO_Init+0x228>
 8000d6a:	2306      	movs	r3, #6
 8000d6c:	e00a      	b.n	8000d84 <HAL_GPIO_Init+0x228>
 8000d6e:	2305      	movs	r3, #5
 8000d70:	e008      	b.n	8000d84 <HAL_GPIO_Init+0x228>
 8000d72:	2304      	movs	r3, #4
 8000d74:	e006      	b.n	8000d84 <HAL_GPIO_Init+0x228>
 8000d76:	2303      	movs	r3, #3
 8000d78:	e004      	b.n	8000d84 <HAL_GPIO_Init+0x228>
 8000d7a:	2302      	movs	r3, #2
 8000d7c:	e002      	b.n	8000d84 <HAL_GPIO_Init+0x228>
 8000d7e:	2301      	movs	r3, #1
 8000d80:	e000      	b.n	8000d84 <HAL_GPIO_Init+0x228>
 8000d82:	2300      	movs	r3, #0
 8000d84:	69fa      	ldr	r2, [r7, #28]
 8000d86:	f002 0203 	and.w	r2, r2, #3
 8000d8a:	0092      	lsls	r2, r2, #2
 8000d8c:	4093      	lsls	r3, r2
 8000d8e:	69ba      	ldr	r2, [r7, #24]
 8000d90:	4313      	orrs	r3, r2
 8000d92:	61bb      	str	r3, [r7, #24]
        SYSCFG->EXTICR[position >> 2U] = temp;
 8000d94:	4935      	ldr	r1, [pc, #212]	; (8000e6c <HAL_GPIO_Init+0x310>)
 8000d96:	69fb      	ldr	r3, [r7, #28]
 8000d98:	089b      	lsrs	r3, r3, #2
 8000d9a:	3302      	adds	r3, #2
 8000d9c:	69ba      	ldr	r2, [r7, #24]
 8000d9e:	f841 2023 	str.w	r2, [r1, r3, lsl #2]

        /* Clear Rising Falling edge configuration */
        temp = EXTI->RTSR;
 8000da2:	4b3b      	ldr	r3, [pc, #236]	; (8000e90 <HAL_GPIO_Init+0x334>)
 8000da4:	689b      	ldr	r3, [r3, #8]
 8000da6:	61bb      	str	r3, [r7, #24]
        temp &= ~((uint32_t)iocurrent);
 8000da8:	693b      	ldr	r3, [r7, #16]
 8000daa:	43db      	mvns	r3, r3
 8000dac:	69ba      	ldr	r2, [r7, #24]
 8000dae:	4013      	ands	r3, r2
 8000db0:	61bb      	str	r3, [r7, #24]
        if((GPIO_Init->Mode & TRIGGER_RISING) != 0x00U)
 8000db2:	683b      	ldr	r3, [r7, #0]
 8000db4:	685b      	ldr	r3, [r3, #4]
 8000db6:	f403 1380 	and.w	r3, r3, #1048576	; 0x100000
 8000dba:	2b00      	cmp	r3, #0
 8000dbc:	d003      	beq.n	8000dc6 <HAL_GPIO_Init+0x26a>
        {
          temp |= iocurrent;
 8000dbe:	69ba      	ldr	r2, [r7, #24]
 8000dc0:	693b      	ldr	r3, [r7, #16]
 8000dc2:	4313      	orrs	r3, r2
 8000dc4:	61bb      	str	r3, [r7, #24]
        }
        EXTI->RTSR = temp;
 8000dc6:	4a32      	ldr	r2, [pc, #200]	; (8000e90 <HAL_GPIO_Init+0x334>)
 8000dc8:	69bb      	ldr	r3, [r7, #24]
 8000dca:	6093      	str	r3, [r2, #8]

        temp = EXTI->FTSR;
 8000dcc:	4b30      	ldr	r3, [pc, #192]	; (8000e90 <HAL_GPIO_Init+0x334>)
 8000dce:	68db      	ldr	r3, [r3, #12]
 8000dd0:	61bb      	str	r3, [r7, #24]
        temp &= ~((uint32_t)iocurrent);
 8000dd2:	693b      	ldr	r3, [r7, #16]
 8000dd4:	43db      	mvns	r3, r3
 8000dd6:	69ba      	ldr	r2, [r7, #24]
 8000dd8:	4013      	ands	r3, r2
 8000dda:	61bb      	str	r3, [r7, #24]
        if((GPIO_Init->Mode & TRIGGER_FALLING) != 0x00U)
 8000ddc:	683b      	ldr	r3, [r7, #0]
 8000dde:	685b      	ldr	r3, [r3, #4]
 8000de0:	f403 1300 	and.w	r3, r3, #2097152	; 0x200000
 8000de4:	2b00      	cmp	r3, #0
 8000de6:	d003      	beq.n	8000df0 <HAL_GPIO_Init+0x294>
        {
          temp |= iocurrent;
 8000de8:	69ba      	ldr	r2, [r7, #24]
 8000dea:	693b      	ldr	r3, [r7, #16]
 8000dec:	4313      	orrs	r3, r2
 8000dee:	61bb      	str	r3, [r7, #24]
        }
        EXTI->FTSR = temp;
 8000df0:	4a27      	ldr	r2, [pc, #156]	; (8000e90 <HAL_GPIO_Init+0x334>)
 8000df2:	69bb      	ldr	r3, [r7, #24]
 8000df4:	60d3      	str	r3, [r2, #12]

        temp = EXTI->EMR;
 8000df6:	4b26      	ldr	r3, [pc, #152]	; (8000e90 <HAL_GPIO_Init+0x334>)
 8000df8:	685b      	ldr	r3, [r3, #4]
 8000dfa:	61bb      	str	r3, [r7, #24]
        temp &= ~((uint32_t)iocurrent);
 8000dfc:	693b      	ldr	r3, [r7, #16]
 8000dfe:	43db      	mvns	r3, r3
 8000e00:	69ba      	ldr	r2, [r7, #24]
 8000e02:	4013      	ands	r3, r2
 8000e04:	61bb      	str	r3, [r7, #24]
        if((GPIO_Init->Mode & EXTI_EVT) != 0x00U)
 8000e06:	683b      	ldr	r3, [r7, #0]
 8000e08:	685b      	ldr	r3, [r3, #4]
 8000e0a:	f403 3300 	and.w	r3, r3, #131072	; 0x20000
 8000e0e:	2b00      	cmp	r3, #0
 8000e10:	d003      	beq.n	8000e1a <HAL_GPIO_Init+0x2be>
        {
          temp |= iocurrent;
 8000e12:	69ba      	ldr	r2, [r7, #24]
 8000e14:	693b      	ldr	r3, [r7, #16]
 8000e16:	4313      	orrs	r3, r2
 8000e18:	61bb      	str	r3, [r7, #24]
        }
        EXTI->EMR = temp;
 8000e1a:	4a1d      	ldr	r2, [pc, #116]	; (8000e90 <HAL_GPIO_Init+0x334>)
 8000e1c:	69bb      	ldr	r3, [r7, #24]
 8000e1e:	6053      	str	r3, [r2, #4]

        /* Clear EXTI line configuration */
        temp = EXTI->IMR;
 8000e20:	4b1b      	ldr	r3, [pc, #108]	; (8000e90 <HAL_GPIO_Init+0x334>)
 8000e22:	681b      	ldr	r3, [r3, #0]
 8000e24:	61bb      	str	r3, [r7, #24]
        temp &= ~((uint32_t)iocurrent);
 8000e26:	693b      	ldr	r3, [r7, #16]
 8000e28:	43db      	mvns	r3, r3
 8000e2a:	69ba      	ldr	r2, [r7, #24]
 8000e2c:	4013      	ands	r3, r2
 8000e2e:	61bb      	str	r3, [r7, #24]
        if((GPIO_Init->Mode & EXTI_IT) != 0x00U)
 8000e30:	683b      	ldr	r3, [r7, #0]
 8000e32:	685b      	ldr	r3, [r3, #4]
 8000e34:	f403 3380 	and.w	r3, r3, #65536	; 0x10000
 8000e38:	2b00      	cmp	r3, #0
 8000e3a:	d003      	beq.n	8000e44 <HAL_GPIO_Init+0x2e8>
        {
          temp |= iocurrent;
 8000e3c:	69ba      	ldr	r2, [r7, #24]
 8000e3e:	693b      	ldr	r3, [r7, #16]
 8000e40:	4313      	orrs	r3, r2
 8000e42:	61bb      	str	r3, [r7, #24]
        }
        EXTI->IMR = temp;
 8000e44:	4a12      	ldr	r2, [pc, #72]	; (8000e90 <HAL_GPIO_Init+0x334>)
 8000e46:	69bb      	ldr	r3, [r7, #24]
 8000e48:	6013      	str	r3, [r2, #0]
  for(position = 0U; position < GPIO_NUMBER; position++)
 8000e4a:	69fb      	ldr	r3, [r7, #28]
 8000e4c:	3301      	adds	r3, #1
 8000e4e:	61fb      	str	r3, [r7, #28]
 8000e50:	69fb      	ldr	r3, [r7, #28]
 8000e52:	2b0f      	cmp	r3, #15
 8000e54:	f67f ae90 	bls.w	8000b78 <HAL_GPIO_Init+0x1c>
      }
    }
  }
}
 8000e58:	bf00      	nop
 8000e5a:	bf00      	nop
 8000e5c:	3724      	adds	r7, #36	; 0x24
 8000e5e:	46bd      	mov	sp, r7
 8000e60:	f85d 7b04 	ldr.w	r7, [sp], #4
 8000e64:	4770      	bx	lr
 8000e66:	bf00      	nop
 8000e68:	40023800 	.word	0x40023800
 8000e6c:	40013800 	.word	0x40013800
 8000e70:	40020000 	.word	0x40020000
 8000e74:	40020400 	.word	0x40020400
 8000e78:	40020800 	.word	0x40020800
 8000e7c:	40020c00 	.word	0x40020c00
 8000e80:	40021000 	.word	0x40021000
 8000e84:	40021400 	.word	0x40021400
 8000e88:	40021800 	.word	0x40021800
 8000e8c:	40021c00 	.word	0x40021c00
 8000e90:	40013c00 	.word	0x40013c00

08000e94 <HAL_GPIO_WritePin>:
  *            @arg GPIO_PIN_RESET: to clear the port pin
  *            @arg GPIO_PIN_SET: to set the port pin
  * @retval None
  */
void HAL_GPIO_WritePin(GPIO_TypeDef* GPIOx, uint16_t GPIO_Pin, GPIO_PinState PinState)
{
 8000e94:	b480      	push	{r7}
 8000e96:	b083      	sub	sp, #12
 8000e98:	af00      	add	r7, sp, #0
 8000e9a:	6078      	str	r0, [r7, #4]
 8000e9c:	460b      	mov	r3, r1
 8000e9e:	807b      	strh	r3, [r7, #2]
 8000ea0:	4613      	mov	r3, r2
 8000ea2:	707b      	strb	r3, [r7, #1]
  /* Check the parameters */
  assert_param(IS_GPIO_PIN(GPIO_Pin));
  assert_param(IS_GPIO_PIN_ACTION(PinState));

  if(PinState != GPIO_PIN_RESET)
 8000ea4:	787b      	ldrb	r3, [r7, #1]
 8000ea6:	2b00      	cmp	r3, #0
 8000ea8:	d003      	beq.n	8000eb2 <HAL_GPIO_WritePin+0x1e>
  {
    GPIOx->BSRR = GPIO_Pin;
 8000eaa:	887a      	ldrh	r2, [r7, #2]
 8000eac:	687b      	ldr	r3, [r7, #4]
 8000eae:	619a      	str	r2, [r3, #24]
  }
  else
  {
    GPIOx->BSRR = (uint32_t)GPIO_Pin << 16U;
  }
}
 8000eb0:	e003      	b.n	8000eba <HAL_GPIO_WritePin+0x26>
    GPIOx->BSRR = (uint32_t)GPIO_Pin << 16U;
 8000eb2:	887b      	ldrh	r3, [r7, #2]
 8000eb4:	041a      	lsls	r2, r3, #16
 8000eb6:	687b      	ldr	r3, [r7, #4]
 8000eb8:	619a      	str	r2, [r3, #24]
}
 8000eba:	bf00      	nop
 8000ebc:	370c      	adds	r7, #12
 8000ebe:	46bd      	mov	sp, r7
 8000ec0:	f85d 7b04 	ldr.w	r7, [sp], #4
 8000ec4:	4770      	bx	lr
	...

08000ec8 <HAL_I2C_Init>:
  * @param  hi2c Pointer to a I2C_HandleTypeDef structure that contains
  *                the configuration information for the specified I2C.
  * @retval HAL status
  */
HAL_StatusTypeDef HAL_I2C_Init(I2C_HandleTypeDef *hi2c)
{
 8000ec8:	b580      	push	{r7, lr}
 8000eca:	b084      	sub	sp, #16
 8000ecc:	af00      	add	r7, sp, #0
 8000ece:	6078      	str	r0, [r7, #4]
  uint32_t freqrange;
  uint32_t pclk1;

  /* Check the I2C handle allocation */
  if (hi2c == NULL)
 8000ed0:	687b      	ldr	r3, [r7, #4]
 8000ed2:	2b00      	cmp	r3, #0
 8000ed4:	d101      	bne.n	8000eda <HAL_I2C_Init+0x12>
  {
    return HAL_ERROR;
 8000ed6:	2301      	movs	r3, #1
 8000ed8:	e12b      	b.n	8001132 <HAL_I2C_Init+0x26a>
  assert_param(IS_I2C_DUAL_ADDRESS(hi2c->Init.DualAddressMode));
  assert_param(IS_I2C_OWN_ADDRESS2(hi2c->Init.OwnAddress2));
  assert_param(IS_I2C_GENERAL_CALL(hi2c->Init.GeneralCallMode));
  assert_param(IS_I2C_NO_STRETCH(hi2c->Init.NoStretchMode));

  if (hi2c->State == HAL_I2C_STATE_RESET)
 8000eda:	687b      	ldr	r3, [r7, #4]
 8000edc:	f893 303d 	ldrb.w	r3, [r3, #61]	; 0x3d
 8000ee0:	b2db      	uxtb	r3, r3
 8000ee2:	2b00      	cmp	r3, #0
 8000ee4:	d106      	bne.n	8000ef4 <HAL_I2C_Init+0x2c>
  {
    /* Allocate lock resource and initialize it */
    hi2c->Lock = HAL_UNLOCKED;
 8000ee6:	687b      	ldr	r3, [r7, #4]
 8000ee8:	2200      	movs	r2, #0
 8000eea:	f883 203c 	strb.w	r2, [r3, #60]	; 0x3c

    /* Init the low level hardware : GPIO, CLOCK, NVIC */
    hi2c->MspInitCallback(hi2c);
#else
    /* Init the low level hardware : GPIO, CLOCK, NVIC */
    HAL_I2C_MspInit(hi2c);
 8000eee:	6878      	ldr	r0, [r7, #4]
 8000ef0:	f7ff fc2e 	bl	8000750 <HAL_I2C_MspInit>
#endif /* USE_HAL_I2C_REGISTER_CALLBACKS */
  }

  hi2c->State = HAL_I2C_STATE_BUSY;
 8000ef4:	687b      	ldr	r3, [r7, #4]
 8000ef6:	2224      	movs	r2, #36	; 0x24
 8000ef8:	f883 203d 	strb.w	r2, [r3, #61]	; 0x3d

  /* Disable the selected I2C peripheral */
  __HAL_I2C_DISABLE(hi2c);
 8000efc:	687b      	ldr	r3, [r7, #4]
 8000efe:	681b      	ldr	r3, [r3, #0]
 8000f00:	681a      	ldr	r2, [r3, #0]
 8000f02:	687b      	ldr	r3, [r7, #4]
 8000f04:	681b      	ldr	r3, [r3, #0]
 8000f06:	f022 0201 	bic.w	r2, r2, #1
 8000f0a:	601a      	str	r2, [r3, #0]

  /*Reset I2C*/
  hi2c->Instance->CR1 |= I2C_CR1_SWRST;
 8000f0c:	687b      	ldr	r3, [r7, #4]
 8000f0e:	681b      	ldr	r3, [r3, #0]
 8000f10:	681a      	ldr	r2, [r3, #0]
 8000f12:	687b      	ldr	r3, [r7, #4]
 8000f14:	681b      	ldr	r3, [r3, #0]
 8000f16:	f442 4200 	orr.w	r2, r2, #32768	; 0x8000
 8000f1a:	601a      	str	r2, [r3, #0]
  hi2c->Instance->CR1 &= ~I2C_CR1_SWRST;
 8000f1c:	687b      	ldr	r3, [r7, #4]
 8000f1e:	681b      	ldr	r3, [r3, #0]
 8000f20:	681a      	ldr	r2, [r3, #0]
 8000f22:	687b      	ldr	r3, [r7, #4]
 8000f24:	681b      	ldr	r3, [r3, #0]
 8000f26:	f422 4200 	bic.w	r2, r2, #32768	; 0x8000
 8000f2a:	601a      	str	r2, [r3, #0]

  /* Get PCLK1 frequency */
  pclk1 = HAL_RCC_GetPCLK1Freq();
 8000f2c:	f000 ffa4 	bl	8001e78 <HAL_RCC_GetPCLK1Freq>
 8000f30:	60f8      	str	r0, [r7, #12]

  /* Check the minimum allowed PCLK1 frequency */
  if (I2C_MIN_PCLK_FREQ(pclk1, hi2c->Init.ClockSpeed) == 1U)
 8000f32:	687b      	ldr	r3, [r7, #4]
 8000f34:	685b      	ldr	r3, [r3, #4]
 8000f36:	4a81      	ldr	r2, [pc, #516]	; (800113c <HAL_I2C_Init+0x274>)
 8000f38:	4293      	cmp	r3, r2
 8000f3a:	d807      	bhi.n	8000f4c <HAL_I2C_Init+0x84>
 8000f3c:	68fb      	ldr	r3, [r7, #12]
 8000f3e:	4a80      	ldr	r2, [pc, #512]	; (8001140 <HAL_I2C_Init+0x278>)
 8000f40:	4293      	cmp	r3, r2
 8000f42:	bf94      	ite	ls
 8000f44:	2301      	movls	r3, #1
 8000f46:	2300      	movhi	r3, #0
 8000f48:	b2db      	uxtb	r3, r3
 8000f4a:	e006      	b.n	8000f5a <HAL_I2C_Init+0x92>
 8000f4c:	68fb      	ldr	r3, [r7, #12]
 8000f4e:	4a7d      	ldr	r2, [pc, #500]	; (8001144 <HAL_I2C_Init+0x27c>)
 8000f50:	4293      	cmp	r3, r2
 8000f52:	bf94      	ite	ls
 8000f54:	2301      	movls	r3, #1
 8000f56:	2300      	movhi	r3, #0
 8000f58:	b2db      	uxtb	r3, r3
 8000f5a:	2b00      	cmp	r3, #0
 8000f5c:	d001      	beq.n	8000f62 <HAL_I2C_Init+0x9a>
  {
    return HAL_ERROR;
 8000f5e:	2301      	movs	r3, #1
 8000f60:	e0e7      	b.n	8001132 <HAL_I2C_Init+0x26a>
  }

  /* Calculate frequency range */
  freqrange = I2C_FREQRANGE(pclk1);
 8000f62:	68fb      	ldr	r3, [r7, #12]
 8000f64:	4a78      	ldr	r2, [pc, #480]	; (8001148 <HAL_I2C_Init+0x280>)
 8000f66:	fba2 2303 	umull	r2, r3, r2, r3
 8000f6a:	0c9b      	lsrs	r3, r3, #18
 8000f6c:	60bb      	str	r3, [r7, #8]

  /*---------------------------- I2Cx CR2 Configuration ----------------------*/
  /* Configure I2Cx: Frequency range */
  MODIFY_REG(hi2c->Instance->CR2, I2C_CR2_FREQ, freqrange);
 8000f6e:	687b      	ldr	r3, [r7, #4]
 8000f70:	681b      	ldr	r3, [r3, #0]
 8000f72:	685b      	ldr	r3, [r3, #4]
 8000f74:	f023 013f 	bic.w	r1, r3, #63	; 0x3f
 8000f78:	687b      	ldr	r3, [r7, #4]
 8000f7a:	681b      	ldr	r3, [r3, #0]
 8000f7c:	68ba      	ldr	r2, [r7, #8]
 8000f7e:	430a      	orrs	r2, r1
 8000f80:	605a      	str	r2, [r3, #4]

  /*---------------------------- I2Cx TRISE Configuration --------------------*/
  /* Configure I2Cx: Rise Time */
  MODIFY_REG(hi2c->Instance->TRISE, I2C_TRISE_TRISE, I2C_RISE_TIME(freqrange, hi2c->Init.ClockSpeed));
 8000f82:	687b      	ldr	r3, [r7, #4]
 8000f84:	681b      	ldr	r3, [r3, #0]
 8000f86:	6a1b      	ldr	r3, [r3, #32]
 8000f88:	f023 013f 	bic.w	r1, r3, #63	; 0x3f
 8000f8c:	687b      	ldr	r3, [r7, #4]
 8000f8e:	685b      	ldr	r3, [r3, #4]
 8000f90:	4a6a      	ldr	r2, [pc, #424]	; (800113c <HAL_I2C_Init+0x274>)
 8000f92:	4293      	cmp	r3, r2
 8000f94:	d802      	bhi.n	8000f9c <HAL_I2C_Init+0xd4>
 8000f96:	68bb      	ldr	r3, [r7, #8]
 8000f98:	3301      	adds	r3, #1
 8000f9a:	e009      	b.n	8000fb0 <HAL_I2C_Init+0xe8>
 8000f9c:	68bb      	ldr	r3, [r7, #8]
 8000f9e:	f44f 7296 	mov.w	r2, #300	; 0x12c
 8000fa2:	fb02 f303 	mul.w	r3, r2, r3
 8000fa6:	4a69      	ldr	r2, [pc, #420]	; (800114c <HAL_I2C_Init+0x284>)
 8000fa8:	fba2 2303 	umull	r2, r3, r2, r3
 8000fac:	099b      	lsrs	r3, r3, #6
 8000fae:	3301      	adds	r3, #1
 8000fb0:	687a      	ldr	r2, [r7, #4]
 8000fb2:	6812      	ldr	r2, [r2, #0]
 8000fb4:	430b      	orrs	r3, r1
 8000fb6:	6213      	str	r3, [r2, #32]

  /*---------------------------- I2Cx CCR Configuration ----------------------*/
  /* Configure I2Cx: Speed */
  MODIFY_REG(hi2c->Instance->CCR, (I2C_CCR_FS | I2C_CCR_DUTY | I2C_CCR_CCR), I2C_SPEED(pclk1, hi2c->Init.ClockSpeed, hi2c->Init.DutyCycle));
 8000fb8:	687b      	ldr	r3, [r7, #4]
 8000fba:	681b      	ldr	r3, [r3, #0]
 8000fbc:	69db      	ldr	r3, [r3, #28]
 8000fbe:	f423 424f 	bic.w	r2, r3, #52992	; 0xcf00
 8000fc2:	f022 02ff 	bic.w	r2, r2, #255	; 0xff
 8000fc6:	687b      	ldr	r3, [r7, #4]
 8000fc8:	685b      	ldr	r3, [r3, #4]
 8000fca:	495c      	ldr	r1, [pc, #368]	; (800113c <HAL_I2C_Init+0x274>)
 8000fcc:	428b      	cmp	r3, r1
 8000fce:	d819      	bhi.n	8001004 <HAL_I2C_Init+0x13c>
 8000fd0:	68fb      	ldr	r3, [r7, #12]
 8000fd2:	1e59      	subs	r1, r3, #1
 8000fd4:	687b      	ldr	r3, [r7, #4]
 8000fd6:	685b      	ldr	r3, [r3, #4]
 8000fd8:	005b      	lsls	r3, r3, #1
 8000fda:	fbb1 f3f3 	udiv	r3, r1, r3
 8000fde:	1c59      	adds	r1, r3, #1
 8000fe0:	f640 73fc 	movw	r3, #4092	; 0xffc
 8000fe4:	400b      	ands	r3, r1
 8000fe6:	2b00      	cmp	r3, #0
 8000fe8:	d00a      	beq.n	8001000 <HAL_I2C_Init+0x138>
 8000fea:	68fb      	ldr	r3, [r7, #12]
 8000fec:	1e59      	subs	r1, r3, #1
 8000fee:	687b      	ldr	r3, [r7, #4]
 8000ff0:	685b      	ldr	r3, [r3, #4]
 8000ff2:	005b      	lsls	r3, r3, #1
 8000ff4:	fbb1 f3f3 	udiv	r3, r1, r3
 8000ff8:	3301      	adds	r3, #1
 8000ffa:	f3c3 030b 	ubfx	r3, r3, #0, #12
 8000ffe:	e051      	b.n	80010a4 <HAL_I2C_Init+0x1dc>
 8001000:	2304      	movs	r3, #4
 8001002:	e04f      	b.n	80010a4 <HAL_I2C_Init+0x1dc>
 8001004:	687b      	ldr	r3, [r7, #4]
 8001006:	689b      	ldr	r3, [r3, #8]
 8001008:	2b00      	cmp	r3, #0
 800100a:	d111      	bne.n	8001030 <HAL_I2C_Init+0x168>
 800100c:	68fb      	ldr	r3, [r7, #12]
 800100e:	1e58      	subs	r0, r3, #1
 8001010:	687b      	ldr	r3, [r7, #4]
 8001012:	6859      	ldr	r1, [r3, #4]
 8001014:	460b      	mov	r3, r1
 8001016:	005b      	lsls	r3, r3, #1
 8001018:	440b      	add	r3, r1
 800101a:	fbb0 f3f3 	udiv	r3, r0, r3
 800101e:	3301      	adds	r3, #1
 8001020:	f3c3 030b 	ubfx	r3, r3, #0, #12
 8001024:	2b00      	cmp	r3, #0
 8001026:	bf0c      	ite	eq
 8001028:	2301      	moveq	r3, #1
 800102a:	2300      	movne	r3, #0
 800102c:	b2db      	uxtb	r3, r3
 800102e:	e012      	b.n	8001056 <HAL_I2C_Init+0x18e>
 8001030:	68fb      	ldr	r3, [r7, #12]
 8001032:	1e58      	subs	r0, r3, #1
 8001034:	687b      	ldr	r3, [r7, #4]
 8001036:	6859      	ldr	r1, [r3, #4]
 8001038:	460b      	mov	r3, r1
 800103a:	009b      	lsls	r3, r3, #2
 800103c:	440b      	add	r3, r1
 800103e:	0099      	lsls	r1, r3, #2
 8001040:	440b      	add	r3, r1
 8001042:	fbb0 f3f3 	udiv	r3, r0, r3
 8001046:	3301      	adds	r3, #1
 8001048:	f3c3 030b 	ubfx	r3, r3, #0, #12
 800104c:	2b00      	cmp	r3, #0
 800104e:	bf0c      	ite	eq
 8001050:	2301      	moveq	r3, #1
 8001052:	2300      	movne	r3, #0
 8001054:	b2db      	uxtb	r3, r3
 8001056:	2b00      	cmp	r3, #0
 8001058:	d001      	beq.n	800105e <HAL_I2C_Init+0x196>
 800105a:	2301      	movs	r3, #1
 800105c:	e022      	b.n	80010a4 <HAL_I2C_Init+0x1dc>
 800105e:	687b      	ldr	r3, [r7, #4]
 8001060:	689b      	ldr	r3, [r3, #8]
 8001062:	2b00      	cmp	r3, #0
 8001064:	d10e      	bne.n	8001084 <HAL_I2C_Init+0x1bc>
 8001066:	68fb      	ldr	r3, [r7, #12]
 8001068:	1e58      	subs	r0, r3, #1
 800106a:	687b      	ldr	r3, [r7, #4]
 800106c:	6859      	ldr	r1, [r3, #4]
 800106e:	460b      	mov	r3, r1
 8001070:	005b      	lsls	r3, r3, #1
 8001072:	440b      	add	r3, r1
 8001074:	fbb0 f3f3 	udiv	r3, r0, r3
 8001078:	3301      	adds	r3, #1
 800107a:	f3c3 030b 	ubfx	r3, r3, #0, #12
 800107e:	f443 4300 	orr.w	r3, r3, #32768	; 0x8000
 8001082:	e00f      	b.n	80010a4 <HAL_I2C_Init+0x1dc>
 8001084:	68fb      	ldr	r3, [r7, #12]
 8001086:	1e58      	subs	r0, r3, #1
 8001088:	687b      	ldr	r3, [r7, #4]
 800108a:	6859      	ldr	r1, [r3, #4]
 800108c:	460b      	mov	r3, r1
 800108e:	009b      	lsls	r3, r3, #2
 8001090:	440b      	add	r3, r1
 8001092:	0099      	lsls	r1, r3, #2
 8001094:	440b      	add	r3, r1
 8001096:	fbb0 f3f3 	udiv	r3, r0, r3
 800109a:	3301      	adds	r3, #1
 800109c:	f3c3 030b 	ubfx	r3, r3, #0, #12
 80010a0:	f443 4340 	orr.w	r3, r3, #49152	; 0xc000
 80010a4:	6879      	ldr	r1, [r7, #4]
 80010a6:	6809      	ldr	r1, [r1, #0]
 80010a8:	4313      	orrs	r3, r2
 80010aa:	61cb      	str	r3, [r1, #28]

  /*---------------------------- I2Cx CR1 Configuration ----------------------*/
  /* Configure I2Cx: Generalcall and NoStretch mode */
  MODIFY_REG(hi2c->Instance->CR1, (I2C_CR1_ENGC | I2C_CR1_NOSTRETCH), (hi2c->Init.GeneralCallMode | hi2c->Init.NoStretchMode));
 80010ac:	687b      	ldr	r3, [r7, #4]
 80010ae:	681b      	ldr	r3, [r3, #0]
 80010b0:	681b      	ldr	r3, [r3, #0]
 80010b2:	f023 01c0 	bic.w	r1, r3, #192	; 0xc0
 80010b6:	687b      	ldr	r3, [r7, #4]
 80010b8:	69da      	ldr	r2, [r3, #28]
 80010ba:	687b      	ldr	r3, [r7, #4]
 80010bc:	6a1b      	ldr	r3, [r3, #32]
 80010be:	431a      	orrs	r2, r3
 80010c0:	687b      	ldr	r3, [r7, #4]
 80010c2:	681b      	ldr	r3, [r3, #0]
 80010c4:	430a      	orrs	r2, r1
 80010c6:	601a      	str	r2, [r3, #0]

  /*---------------------------- I2Cx OAR1 Configuration ---------------------*/
  /* Configure I2Cx: Own Address1 and addressing mode */
  MODIFY_REG(hi2c->Instance->OAR1, (I2C_OAR1_ADDMODE | I2C_OAR1_ADD8_9 | I2C_OAR1_ADD1_7 | I2C_OAR1_ADD0), (hi2c->Init.AddressingMode | hi2c->Init.OwnAddress1));
 80010c8:	687b      	ldr	r3, [r7, #4]
 80010ca:	681b      	ldr	r3, [r3, #0]
 80010cc:	689b      	ldr	r3, [r3, #8]
 80010ce:	f423 4303 	bic.w	r3, r3, #33536	; 0x8300
 80010d2:	f023 03ff 	bic.w	r3, r3, #255	; 0xff
 80010d6:	687a      	ldr	r2, [r7, #4]
 80010d8:	6911      	ldr	r1, [r2, #16]
 80010da:	687a      	ldr	r2, [r7, #4]
 80010dc:	68d2      	ldr	r2, [r2, #12]
 80010de:	4311      	orrs	r1, r2
 80010e0:	687a      	ldr	r2, [r7, #4]
 80010e2:	6812      	ldr	r2, [r2, #0]
 80010e4:	430b      	orrs	r3, r1
 80010e6:	6093      	str	r3, [r2, #8]

  /*---------------------------- I2Cx OAR2 Configuration ---------------------*/
  /* Configure I2Cx: Dual mode and Own Address2 */
  MODIFY_REG(hi2c->Instance->OAR2, (I2C_OAR2_ENDUAL | I2C_OAR2_ADD2), (hi2c->Init.DualAddressMode | hi2c->Init.OwnAddress2));
 80010e8:	687b      	ldr	r3, [r7, #4]
 80010ea:	681b      	ldr	r3, [r3, #0]
 80010ec:	68db      	ldr	r3, [r3, #12]
 80010ee:	f023 01ff 	bic.w	r1, r3, #255	; 0xff
 80010f2:	687b      	ldr	r3, [r7, #4]
 80010f4:	695a      	ldr	r2, [r3, #20]
 80010f6:	687b      	ldr	r3, [r7, #4]
 80010f8:	699b      	ldr	r3, [r3, #24]
 80010fa:	431a      	orrs	r2, r3
 80010fc:	687b      	ldr	r3, [r7, #4]
 80010fe:	681b      	ldr	r3, [r3, #0]
 8001100:	430a      	orrs	r2, r1
 8001102:	60da      	str	r2, [r3, #12]

  /* Enable the selected I2C peripheral */
  __HAL_I2C_ENABLE(hi2c);
 8001104:	687b      	ldr	r3, [r7, #4]
 8001106:	681b      	ldr	r3, [r3, #0]
 8001108:	681a      	ldr	r2, [r3, #0]
 800110a:	687b      	ldr	r3, [r7, #4]
 800110c:	681b      	ldr	r3, [r3, #0]
 800110e:	f042 0201 	orr.w	r2, r2, #1
 8001112:	601a      	str	r2, [r3, #0]

  hi2c->ErrorCode = HAL_I2C_ERROR_NONE;
 8001114:	687b      	ldr	r3, [r7, #4]
 8001116:	2200      	movs	r2, #0
 8001118:	641a      	str	r2, [r3, #64]	; 0x40
  hi2c->State = HAL_I2C_STATE_READY;
 800111a:	687b      	ldr	r3, [r7, #4]
 800111c:	2220      	movs	r2, #32
 800111e:	f883 203d 	strb.w	r2, [r3, #61]	; 0x3d
  hi2c->PreviousState = I2C_STATE_NONE;
 8001122:	687b      	ldr	r3, [r7, #4]
 8001124:	2200      	movs	r2, #0
 8001126:	631a      	str	r2, [r3, #48]	; 0x30
  hi2c->Mode = HAL_I2C_MODE_NONE;
 8001128:	687b      	ldr	r3, [r7, #4]
 800112a:	2200      	movs	r2, #0
 800112c:	f883 203e 	strb.w	r2, [r3, #62]	; 0x3e

  return HAL_OK;
 8001130:	2300      	movs	r3, #0
}
 8001132:	4618      	mov	r0, r3
 8001134:	3710      	adds	r7, #16
 8001136:	46bd      	mov	sp, r7
 8001138:	bd80      	pop	{r7, pc}
 800113a:	bf00      	nop
 800113c:	000186a0 	.word	0x000186a0
 8001140:	001e847f 	.word	0x001e847f
 8001144:	003d08ff 	.word	0x003d08ff
 8001148:	431bde83 	.word	0x431bde83
 800114c:	10624dd3 	.word	0x10624dd3

08001150 <HAL_I2C_Slave_Receive>:
  * @param  Size Amount of data to be sent
  * @param  Timeout Timeout duration
  * @retval HAL status
  */
HAL_StatusTypeDef HAL_I2C_Slave_Receive(I2C_HandleTypeDef *hi2c, uint8_t *pData, uint16_t Size, uint32_t Timeout)
{
 8001150:	b580      	push	{r7, lr}
 8001152:	b08a      	sub	sp, #40	; 0x28
 8001154:	af02      	add	r7, sp, #8
 8001156:	60f8      	str	r0, [r7, #12]
 8001158:	60b9      	str	r1, [r7, #8]
 800115a:	603b      	str	r3, [r7, #0]
 800115c:	4613      	mov	r3, r2
 800115e:	80fb      	strh	r3, [r7, #6]
  /* Init tickstart for timeout management*/
  uint32_t tickstart = HAL_GetTick();
 8001160:	f7ff fc0a 	bl	8000978 <HAL_GetTick>
 8001164:	61f8      	str	r0, [r7, #28]

  if (hi2c->State == HAL_I2C_STATE_READY)
 8001166:	68fb      	ldr	r3, [r7, #12]
 8001168:	f893 303d 	ldrb.w	r3, [r3, #61]	; 0x3d
 800116c:	b2db      	uxtb	r3, r3
 800116e:	2b20      	cmp	r3, #32
 8001170:	f040 80ee 	bne.w	8001350 <HAL_I2C_Slave_Receive+0x200>
  {
    if ((pData == NULL) || (Size == (uint16_t)0))
 8001174:	68bb      	ldr	r3, [r7, #8]
 8001176:	2b00      	cmp	r3, #0
 8001178:	d002      	beq.n	8001180 <HAL_I2C_Slave_Receive+0x30>
 800117a:	88fb      	ldrh	r3, [r7, #6]
 800117c:	2b00      	cmp	r3, #0
 800117e:	d101      	bne.n	8001184 <HAL_I2C_Slave_Receive+0x34>
    {
      return HAL_ERROR;
 8001180:	2301      	movs	r3, #1
 8001182:	e0e6      	b.n	8001352 <HAL_I2C_Slave_Receive+0x202>
    }

    /* Process Locked */
    __HAL_LOCK(hi2c);
 8001184:	68fb      	ldr	r3, [r7, #12]
 8001186:	f893 303c 	ldrb.w	r3, [r3, #60]	; 0x3c
 800118a:	2b01      	cmp	r3, #1
 800118c:	d101      	bne.n	8001192 <HAL_I2C_Slave_Receive+0x42>
 800118e:	2302      	movs	r3, #2
 8001190:	e0df      	b.n	8001352 <HAL_I2C_Slave_Receive+0x202>
 8001192:	68fb      	ldr	r3, [r7, #12]
 8001194:	2201      	movs	r2, #1
 8001196:	f883 203c 	strb.w	r2, [r3, #60]	; 0x3c

    /* Check if the I2C is already enabled */
    if ((hi2c->Instance->CR1 & I2C_CR1_PE) != I2C_CR1_PE)
 800119a:	68fb      	ldr	r3, [r7, #12]
 800119c:	681b      	ldr	r3, [r3, #0]
 800119e:	681b      	ldr	r3, [r3, #0]
 80011a0:	f003 0301 	and.w	r3, r3, #1
 80011a4:	2b01      	cmp	r3, #1
 80011a6:	d007      	beq.n	80011b8 <HAL_I2C_Slave_Receive+0x68>
    {
      /* Enable I2C peripheral */
      __HAL_I2C_ENABLE(hi2c);
 80011a8:	68fb      	ldr	r3, [r7, #12]
 80011aa:	681b      	ldr	r3, [r3, #0]
 80011ac:	681a      	ldr	r2, [r3, #0]
 80011ae:	68fb      	ldr	r3, [r7, #12]
 80011b0:	681b      	ldr	r3, [r3, #0]
 80011b2:	f042 0201 	orr.w	r2, r2, #1
 80011b6:	601a      	str	r2, [r3, #0]
    }

    /* Disable Pos */
    CLEAR_BIT(hi2c->Instance->CR1, I2C_CR1_POS);
 80011b8:	68fb      	ldr	r3, [r7, #12]
 80011ba:	681b      	ldr	r3, [r3, #0]
 80011bc:	681a      	ldr	r2, [r3, #0]
 80011be:	68fb      	ldr	r3, [r7, #12]
 80011c0:	681b      	ldr	r3, [r3, #0]
 80011c2:	f422 6200 	bic.w	r2, r2, #2048	; 0x800
 80011c6:	601a      	str	r2, [r3, #0]

    hi2c->State       = HAL_I2C_STATE_BUSY_RX;
 80011c8:	68fb      	ldr	r3, [r7, #12]
 80011ca:	2222      	movs	r2, #34	; 0x22
 80011cc:	f883 203d 	strb.w	r2, [r3, #61]	; 0x3d
    hi2c->Mode        = HAL_I2C_MODE_SLAVE;
 80011d0:	68fb      	ldr	r3, [r7, #12]
 80011d2:	2220      	movs	r2, #32
 80011d4:	f883 203e 	strb.w	r2, [r3, #62]	; 0x3e
    hi2c->ErrorCode   = HAL_I2C_ERROR_NONE;
 80011d8:	68fb      	ldr	r3, [r7, #12]
 80011da:	2200      	movs	r2, #0
 80011dc:	641a      	str	r2, [r3, #64]	; 0x40

    /* Prepare transfer parameters */
    hi2c->pBuffPtr    = pData;
 80011de:	68fb      	ldr	r3, [r7, #12]
 80011e0:	68ba      	ldr	r2, [r7, #8]
 80011e2:	625a      	str	r2, [r3, #36]	; 0x24
    hi2c->XferCount   = Size;
 80011e4:	68fb      	ldr	r3, [r7, #12]
 80011e6:	88fa      	ldrh	r2, [r7, #6]
 80011e8:	855a      	strh	r2, [r3, #42]	; 0x2a
    hi2c->XferSize    = hi2c->XferCount;
 80011ea:	68fb      	ldr	r3, [r7, #12]
 80011ec:	8d5b      	ldrh	r3, [r3, #42]	; 0x2a
 80011ee:	b29a      	uxth	r2, r3
 80011f0:	68fb      	ldr	r3, [r7, #12]
 80011f2:	851a      	strh	r2, [r3, #40]	; 0x28
    hi2c->XferOptions = I2C_NO_OPTION_FRAME;
 80011f4:	68fb      	ldr	r3, [r7, #12]
 80011f6:	4a59      	ldr	r2, [pc, #356]	; (800135c <HAL_I2C_Slave_Receive+0x20c>)
 80011f8:	62da      	str	r2, [r3, #44]	; 0x2c

    /* Enable Address Acknowledge */
    SET_BIT(hi2c->Instance->CR1, I2C_CR1_ACK);
 80011fa:	68fb      	ldr	r3, [r7, #12]
 80011fc:	681b      	ldr	r3, [r3, #0]
 80011fe:	681a      	ldr	r2, [r3, #0]
 8001200:	68fb      	ldr	r3, [r7, #12]
 8001202:	681b      	ldr	r3, [r3, #0]
 8001204:	f442 6280 	orr.w	r2, r2, #1024	; 0x400
 8001208:	601a      	str	r2, [r3, #0]

    /* Wait until ADDR flag is set */
    if (I2C_WaitOnFlagUntilTimeout(hi2c, I2C_FLAG_ADDR, RESET, Timeout, tickstart) != HAL_OK)
 800120a:	69fb      	ldr	r3, [r7, #28]
 800120c:	9300      	str	r3, [sp, #0]
 800120e:	683b      	ldr	r3, [r7, #0]
 8001210:	2200      	movs	r2, #0
 8001212:	4953      	ldr	r1, [pc, #332]	; (8001360 <HAL_I2C_Slave_Receive+0x210>)
 8001214:	68f8      	ldr	r0, [r7, #12]
 8001216:	f000 f8a5 	bl	8001364 <I2C_WaitOnFlagUntilTimeout>
 800121a:	4603      	mov	r3, r0
 800121c:	2b00      	cmp	r3, #0
 800121e:	d001      	beq.n	8001224 <HAL_I2C_Slave_Receive+0xd4>
    {
      return HAL_ERROR;
 8001220:	2301      	movs	r3, #1
 8001222:	e096      	b.n	8001352 <HAL_I2C_Slave_Receive+0x202>
    }

    /* Clear ADDR flag */
    __HAL_I2C_CLEAR_ADDRFLAG(hi2c);
 8001224:	2300      	movs	r3, #0
 8001226:	61bb      	str	r3, [r7, #24]
 8001228:	68fb      	ldr	r3, [r7, #12]
 800122a:	681b      	ldr	r3, [r3, #0]
 800122c:	695b      	ldr	r3, [r3, #20]
 800122e:	61bb      	str	r3, [r7, #24]
 8001230:	68fb      	ldr	r3, [r7, #12]
 8001232:	681b      	ldr	r3, [r3, #0]
 8001234:	699b      	ldr	r3, [r3, #24]
 8001236:	61bb      	str	r3, [r7, #24]
 8001238:	69bb      	ldr	r3, [r7, #24]

    while (hi2c->XferSize > 0U)
 800123a:	e04e      	b.n	80012da <HAL_I2C_Slave_Receive+0x18a>
    {
      /* Wait until RXNE flag is set */
      if (I2C_WaitOnRXNEFlagUntilTimeout(hi2c, Timeout, tickstart) != HAL_OK)
 800123c:	69fa      	ldr	r2, [r7, #28]
 800123e:	6839      	ldr	r1, [r7, #0]
 8001240:	68f8      	ldr	r0, [r7, #12]
 8001242:	f000 f923 	bl	800148c <I2C_WaitOnRXNEFlagUntilTimeout>
 8001246:	4603      	mov	r3, r0
 8001248:	2b00      	cmp	r3, #0
 800124a:	d009      	beq.n	8001260 <HAL_I2C_Slave_Receive+0x110>
      {
        /* Disable Address Acknowledge */
        CLEAR_BIT(hi2c->Instance->CR1, I2C_CR1_ACK);
 800124c:	68fb      	ldr	r3, [r7, #12]
 800124e:	681b      	ldr	r3, [r3, #0]
 8001250:	681a      	ldr	r2, [r3, #0]
 8001252:	68fb      	ldr	r3, [r7, #12]
 8001254:	681b      	ldr	r3, [r3, #0]
 8001256:	f422 6280 	bic.w	r2, r2, #1024	; 0x400
 800125a:	601a      	str	r2, [r3, #0]

        return HAL_ERROR;
 800125c:	2301      	movs	r3, #1
 800125e:	e078      	b.n	8001352 <HAL_I2C_Slave_Receive+0x202>
      }

      /* Read data from DR */
      *hi2c->pBuffPtr = (uint8_t)hi2c->Instance->DR;
 8001260:	68fb      	ldr	r3, [r7, #12]
 8001262:	681b      	ldr	r3, [r3, #0]
 8001264:	691a      	ldr	r2, [r3, #16]
 8001266:	68fb      	ldr	r3, [r7, #12]
 8001268:	6a5b      	ldr	r3, [r3, #36]	; 0x24
 800126a:	b2d2      	uxtb	r2, r2
 800126c:	701a      	strb	r2, [r3, #0]

      /* Increment Buffer pointer */
      hi2c->pBuffPtr++;
 800126e:	68fb      	ldr	r3, [r7, #12]
 8001270:	6a5b      	ldr	r3, [r3, #36]	; 0x24
 8001272:	1c5a      	adds	r2, r3, #1
 8001274:	68fb      	ldr	r3, [r7, #12]
 8001276:	625a      	str	r2, [r3, #36]	; 0x24

      /* Update counter */
      hi2c->XferSize--;
 8001278:	68fb      	ldr	r3, [r7, #12]
 800127a:	8d1b      	ldrh	r3, [r3, #40]	; 0x28
 800127c:	3b01      	subs	r3, #1
 800127e:	b29a      	uxth	r2, r3
 8001280:	68fb      	ldr	r3, [r7, #12]
 8001282:	851a      	strh	r2, [r3, #40]	; 0x28
      hi2c->XferCount--;
 8001284:	68fb      	ldr	r3, [r7, #12]
 8001286:	8d5b      	ldrh	r3, [r3, #42]	; 0x2a
 8001288:	b29b      	uxth	r3, r3
 800128a:	3b01      	subs	r3, #1
 800128c:	b29a      	uxth	r2, r3
 800128e:	68fb      	ldr	r3, [r7, #12]
 8001290:	855a      	strh	r2, [r3, #42]	; 0x2a

      if ((__HAL_I2C_GET_FLAG(hi2c, I2C_FLAG_BTF) == SET) && (hi2c->XferSize != 0U))
 8001292:	68fb      	ldr	r3, [r7, #12]
 8001294:	681b      	ldr	r3, [r3, #0]
 8001296:	695b      	ldr	r3, [r3, #20]
 8001298:	f003 0304 	and.w	r3, r3, #4
 800129c:	2b04      	cmp	r3, #4
 800129e:	d11c      	bne.n	80012da <HAL_I2C_Slave_Receive+0x18a>
 80012a0:	68fb      	ldr	r3, [r7, #12]
 80012a2:	8d1b      	ldrh	r3, [r3, #40]	; 0x28
 80012a4:	2b00      	cmp	r3, #0
 80012a6:	d018      	beq.n	80012da <HAL_I2C_Slave_Receive+0x18a>
      {
        /* Read data from DR */
        *hi2c->pBuffPtr = (uint8_t)hi2c->Instance->DR;
 80012a8:	68fb      	ldr	r3, [r7, #12]
 80012aa:	681b      	ldr	r3, [r3, #0]
 80012ac:	691a      	ldr	r2, [r3, #16]
 80012ae:	68fb      	ldr	r3, [r7, #12]
 80012b0:	6a5b      	ldr	r3, [r3, #36]	; 0x24
 80012b2:	b2d2      	uxtb	r2, r2
 80012b4:	701a      	strb	r2, [r3, #0]

        /* Increment Buffer pointer */
        hi2c->pBuffPtr++;
 80012b6:	68fb      	ldr	r3, [r7, #12]
 80012b8:	6a5b      	ldr	r3, [r3, #36]	; 0x24
 80012ba:	1c5a      	adds	r2, r3, #1
 80012bc:	68fb      	ldr	r3, [r7, #12]
 80012be:	625a      	str	r2, [r3, #36]	; 0x24

        /* Update counter */
        hi2c->XferSize--;
 80012c0:	68fb      	ldr	r3, [r7, #12]
 80012c2:	8d1b      	ldrh	r3, [r3, #40]	; 0x28
 80012c4:	3b01      	subs	r3, #1
 80012c6:	b29a      	uxth	r2, r3
 80012c8:	68fb      	ldr	r3, [r7, #12]
 80012ca:	851a      	strh	r2, [r3, #40]	; 0x28
        hi2c->XferCount--;
 80012cc:	68fb      	ldr	r3, [r7, #12]
 80012ce:	8d5b      	ldrh	r3, [r3, #42]	; 0x2a
 80012d0:	b29b      	uxth	r3, r3
 80012d2:	3b01      	subs	r3, #1
 80012d4:	b29a      	uxth	r2, r3
 80012d6:	68fb      	ldr	r3, [r7, #12]
 80012d8:	855a      	strh	r2, [r3, #42]	; 0x2a
    while (hi2c->XferSize > 0U)
 80012da:	68fb      	ldr	r3, [r7, #12]
 80012dc:	8d1b      	ldrh	r3, [r3, #40]	; 0x28
 80012de:	2b00      	cmp	r3, #0
 80012e0:	d1ac      	bne.n	800123c <HAL_I2C_Slave_Receive+0xec>
      }
    }

    /* Wait until STOP flag is set */
    if (I2C_WaitOnSTOPFlagUntilTimeout(hi2c, Timeout, tickstart) != HAL_OK)
 80012e2:	69fa      	ldr	r2, [r7, #28]
 80012e4:	6839      	ldr	r1, [r7, #0]
 80012e6:	68f8      	ldr	r0, [r7, #12]
 80012e8:	f000 f893 	bl	8001412 <I2C_WaitOnSTOPFlagUntilTimeout>
 80012ec:	4603      	mov	r3, r0
 80012ee:	2b00      	cmp	r3, #0
 80012f0:	d009      	beq.n	8001306 <HAL_I2C_Slave_Receive+0x1b6>
    {
      /* Disable Address Acknowledge */
      CLEAR_BIT(hi2c->Instance->CR1, I2C_CR1_ACK);
 80012f2:	68fb      	ldr	r3, [r7, #12]
 80012f4:	681b      	ldr	r3, [r3, #0]
 80012f6:	681a      	ldr	r2, [r3, #0]
 80012f8:	68fb      	ldr	r3, [r7, #12]
 80012fa:	681b      	ldr	r3, [r3, #0]
 80012fc:	f422 6280 	bic.w	r2, r2, #1024	; 0x400
 8001300:	601a      	str	r2, [r3, #0]

      return HAL_ERROR;
 8001302:	2301      	movs	r3, #1
 8001304:	e025      	b.n	8001352 <HAL_I2C_Slave_Receive+0x202>
    }

    /* Clear STOP flag */
    __HAL_I2C_CLEAR_STOPFLAG(hi2c);
 8001306:	2300      	movs	r3, #0
 8001308:	617b      	str	r3, [r7, #20]
 800130a:	68fb      	ldr	r3, [r7, #12]
 800130c:	681b      	ldr	r3, [r3, #0]
 800130e:	695b      	ldr	r3, [r3, #20]
 8001310:	617b      	str	r3, [r7, #20]
 8001312:	68fb      	ldr	r3, [r7, #12]
 8001314:	681b      	ldr	r3, [r3, #0]
 8001316:	681a      	ldr	r2, [r3, #0]
 8001318:	68fb      	ldr	r3, [r7, #12]
 800131a:	681b      	ldr	r3, [r3, #0]
 800131c:	f042 0201 	orr.w	r2, r2, #1
 8001320:	601a      	str	r2, [r3, #0]
 8001322:	697b      	ldr	r3, [r7, #20]

    /* Disable Address Acknowledge */
    CLEAR_BIT(hi2c->Instance->CR1, I2C_CR1_ACK);
 8001324:	68fb      	ldr	r3, [r7, #12]
 8001326:	681b      	ldr	r3, [r3, #0]
 8001328:	681a      	ldr	r2, [r3, #0]
 800132a:	68fb      	ldr	r3, [r7, #12]
 800132c:	681b      	ldr	r3, [r3, #0]
 800132e:	f422 6280 	bic.w	r2, r2, #1024	; 0x400
 8001332:	601a      	str	r2, [r3, #0]

    hi2c->State = HAL_I2C_STATE_READY;
 8001334:	68fb      	ldr	r3, [r7, #12]
 8001336:	2220      	movs	r2, #32
 8001338:	f883 203d 	strb.w	r2, [r3, #61]	; 0x3d
    hi2c->Mode = HAL_I2C_MODE_NONE;
 800133c:	68fb      	ldr	r3, [r7, #12]
 800133e:	2200      	movs	r2, #0
 8001340:	f883 203e 	strb.w	r2, [r3, #62]	; 0x3e

    /* Process Unlocked */
    __HAL_UNLOCK(hi2c);
 8001344:	68fb      	ldr	r3, [r7, #12]
 8001346:	2200      	movs	r2, #0
 8001348:	f883 203c 	strb.w	r2, [r3, #60]	; 0x3c

    return HAL_OK;
 800134c:	2300      	movs	r3, #0
 800134e:	e000      	b.n	8001352 <HAL_I2C_Slave_Receive+0x202>
  }
  else
  {
    return HAL_BUSY;
 8001350:	2302      	movs	r3, #2
  }
}
 8001352:	4618      	mov	r0, r3
 8001354:	3720      	adds	r7, #32
 8001356:	46bd      	mov	sp, r7
 8001358:	bd80      	pop	{r7, pc}
 800135a:	bf00      	nop
 800135c:	ffff0000 	.word	0xffff0000
 8001360:	00010002 	.word	0x00010002

08001364 <I2C_WaitOnFlagUntilTimeout>:
  * @param  Timeout Timeout duration
  * @param  Tickstart Tick start value
  * @retval HAL status
  */
static HAL_StatusTypeDef I2C_WaitOnFlagUntilTimeout(I2C_HandleTypeDef *hi2c, uint32_t Flag, FlagStatus Status, uint32_t Timeout, uint32_t Tickstart)
{
 8001364:	b580      	push	{r7, lr}
 8001366:	b084      	sub	sp, #16
 8001368:	af00      	add	r7, sp, #0
 800136a:	60f8      	str	r0, [r7, #12]
 800136c:	60b9      	str	r1, [r7, #8]
 800136e:	603b      	str	r3, [r7, #0]
 8001370:	4613      	mov	r3, r2
 8001372:	71fb      	strb	r3, [r7, #7]
  /* Wait until flag is set */
  while (__HAL_I2C_GET_FLAG(hi2c, Flag) == Status)
 8001374:	e025      	b.n	80013c2 <I2C_WaitOnFlagUntilTimeout+0x5e>
  {
    /* Check for the Timeout */
    if (Timeout != HAL_MAX_DELAY)
 8001376:	683b      	ldr	r3, [r7, #0]
 8001378:	f1b3 3fff 	cmp.w	r3, #4294967295
 800137c:	d021      	beq.n	80013c2 <I2C_WaitOnFlagUntilTimeout+0x5e>
    {
      if (((HAL_GetTick() - Tickstart) > Timeout) || (Timeout == 0U))
 800137e:	f7ff fafb 	bl	8000978 <HAL_GetTick>
 8001382:	4602      	mov	r2, r0
 8001384:	69bb      	ldr	r3, [r7, #24]
 8001386:	1ad3      	subs	r3, r2, r3
 8001388:	683a      	ldr	r2, [r7, #0]
 800138a:	429a      	cmp	r2, r3
 800138c:	d302      	bcc.n	8001394 <I2C_WaitOnFlagUntilTimeout+0x30>
 800138e:	683b      	ldr	r3, [r7, #0]
 8001390:	2b00      	cmp	r3, #0
 8001392:	d116      	bne.n	80013c2 <I2C_WaitOnFlagUntilTimeout+0x5e>
      {
        hi2c->PreviousState     = I2C_STATE_NONE;
 8001394:	68fb      	ldr	r3, [r7, #12]
 8001396:	2200      	movs	r2, #0
 8001398:	631a      	str	r2, [r3, #48]	; 0x30
        hi2c->State             = HAL_I2C_STATE_READY;
 800139a:	68fb      	ldr	r3, [r7, #12]
 800139c:	2220      	movs	r2, #32
 800139e:	f883 203d 	strb.w	r2, [r3, #61]	; 0x3d
        hi2c->Mode              = HAL_I2C_MODE_NONE;
 80013a2:	68fb      	ldr	r3, [r7, #12]
 80013a4:	2200      	movs	r2, #0
 80013a6:	f883 203e 	strb.w	r2, [r3, #62]	; 0x3e
        hi2c->ErrorCode         |= HAL_I2C_ERROR_TIMEOUT;
 80013aa:	68fb      	ldr	r3, [r7, #12]
 80013ac:	6c1b      	ldr	r3, [r3, #64]	; 0x40
 80013ae:	f043 0220 	orr.w	r2, r3, #32
 80013b2:	68fb      	ldr	r3, [r7, #12]
 80013b4:	641a      	str	r2, [r3, #64]	; 0x40

        /* Process Unlocked */
        __HAL_UNLOCK(hi2c);
 80013b6:	68fb      	ldr	r3, [r7, #12]
 80013b8:	2200      	movs	r2, #0
 80013ba:	f883 203c 	strb.w	r2, [r3, #60]	; 0x3c

        return HAL_ERROR;
 80013be:	2301      	movs	r3, #1
 80013c0:	e023      	b.n	800140a <I2C_WaitOnFlagUntilTimeout+0xa6>
  while (__HAL_I2C_GET_FLAG(hi2c, Flag) == Status)
 80013c2:	68bb      	ldr	r3, [r7, #8]
 80013c4:	0c1b      	lsrs	r3, r3, #16
 80013c6:	b2db      	uxtb	r3, r3
 80013c8:	2b01      	cmp	r3, #1
 80013ca:	d10d      	bne.n	80013e8 <I2C_WaitOnFlagUntilTimeout+0x84>
 80013cc:	68fb      	ldr	r3, [r7, #12]
 80013ce:	681b      	ldr	r3, [r3, #0]
 80013d0:	695b      	ldr	r3, [r3, #20]
 80013d2:	43da      	mvns	r2, r3
 80013d4:	68bb      	ldr	r3, [r7, #8]
 80013d6:	4013      	ands	r3, r2
 80013d8:	b29b      	uxth	r3, r3
 80013da:	2b00      	cmp	r3, #0
 80013dc:	bf0c      	ite	eq
 80013de:	2301      	moveq	r3, #1
 80013e0:	2300      	movne	r3, #0
 80013e2:	b2db      	uxtb	r3, r3
 80013e4:	461a      	mov	r2, r3
 80013e6:	e00c      	b.n	8001402 <I2C_WaitOnFlagUntilTimeout+0x9e>
 80013e8:	68fb      	ldr	r3, [r7, #12]
 80013ea:	681b      	ldr	r3, [r3, #0]
 80013ec:	699b      	ldr	r3, [r3, #24]
 80013ee:	43da      	mvns	r2, r3
 80013f0:	68bb      	ldr	r3, [r7, #8]
 80013f2:	4013      	ands	r3, r2
 80013f4:	b29b      	uxth	r3, r3
 80013f6:	2b00      	cmp	r3, #0
 80013f8:	bf0c      	ite	eq
 80013fa:	2301      	moveq	r3, #1
 80013fc:	2300      	movne	r3, #0
 80013fe:	b2db      	uxtb	r3, r3
 8001400:	461a      	mov	r2, r3
 8001402:	79fb      	ldrb	r3, [r7, #7]
 8001404:	429a      	cmp	r2, r3
 8001406:	d0b6      	beq.n	8001376 <I2C_WaitOnFlagUntilTimeout+0x12>
      }
    }
  }
  return HAL_OK;
 8001408:	2300      	movs	r3, #0
}
 800140a:	4618      	mov	r0, r3
 800140c:	3710      	adds	r7, #16
 800140e:	46bd      	mov	sp, r7
 8001410:	bd80      	pop	{r7, pc}

08001412 <I2C_WaitOnSTOPFlagUntilTimeout>:
  * @param  Timeout Timeout duration
  * @param  Tickstart Tick start value
  * @retval HAL status
  */
static HAL_StatusTypeDef I2C_WaitOnSTOPFlagUntilTimeout(I2C_HandleTypeDef *hi2c, uint32_t Timeout, uint32_t Tickstart)
{
 8001412:	b580      	push	{r7, lr}
 8001414:	b084      	sub	sp, #16
 8001416:	af00      	add	r7, sp, #0
 8001418:	60f8      	str	r0, [r7, #12]
 800141a:	60b9      	str	r1, [r7, #8]
 800141c:	607a      	str	r2, [r7, #4]
  while (__HAL_I2C_GET_FLAG(hi2c, I2C_FLAG_STOPF) == RESET)
 800141e:	e029      	b.n	8001474 <I2C_WaitOnSTOPFlagUntilTimeout+0x62>
  {
    /* Check if a NACK is detected */
    if (I2C_IsAcknowledgeFailed(hi2c) != HAL_OK)
 8001420:	68f8      	ldr	r0, [r7, #12]
 8001422:	f000 f889 	bl	8001538 <I2C_IsAcknowledgeFailed>
 8001426:	4603      	mov	r3, r0
 8001428:	2b00      	cmp	r3, #0
 800142a:	d001      	beq.n	8001430 <I2C_WaitOnSTOPFlagUntilTimeout+0x1e>
    {
      return HAL_ERROR;
 800142c:	2301      	movs	r3, #1
 800142e:	e029      	b.n	8001484 <I2C_WaitOnSTOPFlagUntilTimeout+0x72>
    }

    /* Check for the Timeout */
    if (((HAL_GetTick() - Tickstart) > Timeout) || (Timeout == 0U))
 8001430:	f7ff faa2 	bl	8000978 <HAL_GetTick>
 8001434:	4602      	mov	r2, r0
 8001436:	687b      	ldr	r3, [r7, #4]
 8001438:	1ad3      	subs	r3, r2, r3
 800143a:	68ba      	ldr	r2, [r7, #8]
 800143c:	429a      	cmp	r2, r3
 800143e:	d302      	bcc.n	8001446 <I2C_WaitOnSTOPFlagUntilTimeout+0x34>
 8001440:	68bb      	ldr	r3, [r7, #8]
 8001442:	2b00      	cmp	r3, #0
 8001444:	d116      	bne.n	8001474 <I2C_WaitOnSTOPFlagUntilTimeout+0x62>
    {
      hi2c->PreviousState       = I2C_STATE_NONE;
 8001446:	68fb      	ldr	r3, [r7, #12]
 8001448:	2200      	movs	r2, #0
 800144a:	631a      	str	r2, [r3, #48]	; 0x30
      hi2c->State               = HAL_I2C_STATE_READY;
 800144c:	68fb      	ldr	r3, [r7, #12]
 800144e:	2220      	movs	r2, #32
 8001450:	f883 203d 	strb.w	r2, [r3, #61]	; 0x3d
      hi2c->Mode                = HAL_I2C_MODE_NONE;
 8001454:	68fb      	ldr	r3, [r7, #12]
 8001456:	2200      	movs	r2, #0
 8001458:	f883 203e 	strb.w	r2, [r3, #62]	; 0x3e
      hi2c->ErrorCode           |= HAL_I2C_ERROR_TIMEOUT;
 800145c:	68fb      	ldr	r3, [r7, #12]
 800145e:	6c1b      	ldr	r3, [r3, #64]	; 0x40
 8001460:	f043 0220 	orr.w	r2, r3, #32
 8001464:	68fb      	ldr	r3, [r7, #12]
 8001466:	641a      	str	r2, [r3, #64]	; 0x40

      /* Process Unlocked */
      __HAL_UNLOCK(hi2c);
 8001468:	68fb      	ldr	r3, [r7, #12]
 800146a:	2200      	movs	r2, #0
 800146c:	f883 203c 	strb.w	r2, [r3, #60]	; 0x3c

      return HAL_ERROR;
 8001470:	2301      	movs	r3, #1
 8001472:	e007      	b.n	8001484 <I2C_WaitOnSTOPFlagUntilTimeout+0x72>
  while (__HAL_I2C_GET_FLAG(hi2c, I2C_FLAG_STOPF) == RESET)
 8001474:	68fb      	ldr	r3, [r7, #12]
 8001476:	681b      	ldr	r3, [r3, #0]
 8001478:	695b      	ldr	r3, [r3, #20]
 800147a:	f003 0310 	and.w	r3, r3, #16
 800147e:	2b10      	cmp	r3, #16
 8001480:	d1ce      	bne.n	8001420 <I2C_WaitOnSTOPFlagUntilTimeout+0xe>
    }
  }
  return HAL_OK;
 8001482:	2300      	movs	r3, #0
}
 8001484:	4618      	mov	r0, r3
 8001486:	3710      	adds	r7, #16
 8001488:	46bd      	mov	sp, r7
 800148a:	bd80      	pop	{r7, pc}

0800148c <I2C_WaitOnRXNEFlagUntilTimeout>:
  * @param  Timeout Timeout duration
  * @param  Tickstart Tick start value
  * @retval HAL status
  */
static HAL_StatusTypeDef I2C_WaitOnRXNEFlagUntilTimeout(I2C_HandleTypeDef *hi2c, uint32_t Timeout, uint32_t Tickstart)
{
 800148c:	b580      	push	{r7, lr}
 800148e:	b084      	sub	sp, #16
 8001490:	af00      	add	r7, sp, #0
 8001492:	60f8      	str	r0, [r7, #12]
 8001494:	60b9      	str	r1, [r7, #8]
 8001496:	607a      	str	r2, [r7, #4]

  while (__HAL_I2C_GET_FLAG(hi2c, I2C_FLAG_RXNE) == RESET)
 8001498:	e042      	b.n	8001520 <I2C_WaitOnRXNEFlagUntilTimeout+0x94>
  {
    /* Check if a STOPF is detected */
    if (__HAL_I2C_GET_FLAG(hi2c, I2C_FLAG_STOPF) == SET)
 800149a:	68fb      	ldr	r3, [r7, #12]
 800149c:	681b      	ldr	r3, [r3, #0]
 800149e:	695b      	ldr	r3, [r3, #20]
 80014a0:	f003 0310 	and.w	r3, r3, #16
 80014a4:	2b10      	cmp	r3, #16
 80014a6:	d119      	bne.n	80014dc <I2C_WaitOnRXNEFlagUntilTimeout+0x50>
    {
      /* Clear STOP Flag */
      __HAL_I2C_CLEAR_FLAG(hi2c, I2C_FLAG_STOPF);
 80014a8:	68fb      	ldr	r3, [r7, #12]
 80014aa:	681b      	ldr	r3, [r3, #0]
 80014ac:	f06f 0210 	mvn.w	r2, #16
 80014b0:	615a      	str	r2, [r3, #20]

      hi2c->PreviousState       = I2C_STATE_NONE;
 80014b2:	68fb      	ldr	r3, [r7, #12]
 80014b4:	2200      	movs	r2, #0
 80014b6:	631a      	str	r2, [r3, #48]	; 0x30
      hi2c->State               = HAL_I2C_STATE_READY;
 80014b8:	68fb      	ldr	r3, [r7, #12]
 80014ba:	2220      	movs	r2, #32
 80014bc:	f883 203d 	strb.w	r2, [r3, #61]	; 0x3d
      hi2c->Mode                = HAL_I2C_MODE_NONE;
 80014c0:	68fb      	ldr	r3, [r7, #12]
 80014c2:	2200      	movs	r2, #0
 80014c4:	f883 203e 	strb.w	r2, [r3, #62]	; 0x3e
      hi2c->ErrorCode           |= HAL_I2C_ERROR_NONE;
 80014c8:	68fb      	ldr	r3, [r7, #12]
 80014ca:	6c1a      	ldr	r2, [r3, #64]	; 0x40
 80014cc:	68fb      	ldr	r3, [r7, #12]
 80014ce:	641a      	str	r2, [r3, #64]	; 0x40

      /* Process Unlocked */
      __HAL_UNLOCK(hi2c);
 80014d0:	68fb      	ldr	r3, [r7, #12]
 80014d2:	2200      	movs	r2, #0
 80014d4:	f883 203c 	strb.w	r2, [r3, #60]	; 0x3c

      return HAL_ERROR;
 80014d8:	2301      	movs	r3, #1
 80014da:	e029      	b.n	8001530 <I2C_WaitOnRXNEFlagUntilTimeout+0xa4>
    }

    /* Check for the Timeout */
    if (((HAL_GetTick() - Tickstart) > Timeout) || (Timeout == 0U))
 80014dc:	f7ff fa4c 	bl	8000978 <HAL_GetTick>
 80014e0:	4602      	mov	r2, r0
 80014e2:	687b      	ldr	r3, [r7, #4]
 80014e4:	1ad3      	subs	r3, r2, r3
 80014e6:	68ba      	ldr	r2, [r7, #8]
 80014e8:	429a      	cmp	r2, r3
 80014ea:	d302      	bcc.n	80014f2 <I2C_WaitOnRXNEFlagUntilTimeout+0x66>
 80014ec:	68bb      	ldr	r3, [r7, #8]
 80014ee:	2b00      	cmp	r3, #0
 80014f0:	d116      	bne.n	8001520 <I2C_WaitOnRXNEFlagUntilTimeout+0x94>
    {
      hi2c->PreviousState       = I2C_STATE_NONE;
 80014f2:	68fb      	ldr	r3, [r7, #12]
 80014f4:	2200      	movs	r2, #0
 80014f6:	631a      	str	r2, [r3, #48]	; 0x30
      hi2c->State               = HAL_I2C_STATE_READY;
 80014f8:	68fb      	ldr	r3, [r7, #12]
 80014fa:	2220      	movs	r2, #32
 80014fc:	f883 203d 	strb.w	r2, [r3, #61]	; 0x3d
      hi2c->Mode                = HAL_I2C_MODE_NONE;
 8001500:	68fb      	ldr	r3, [r7, #12]
 8001502:	2200      	movs	r2, #0
 8001504:	f883 203e 	strb.w	r2, [r3, #62]	; 0x3e
      hi2c->ErrorCode           |= HAL_I2C_ERROR_TIMEOUT;
 8001508:	68fb      	ldr	r3, [r7, #12]
 800150a:	6c1b      	ldr	r3, [r3, #64]	; 0x40
 800150c:	f043 0220 	orr.w	r2, r3, #32
 8001510:	68fb      	ldr	r3, [r7, #12]
 8001512:	641a      	str	r2, [r3, #64]	; 0x40

      /* Process Unlocked */
      __HAL_UNLOCK(hi2c);
 8001514:	68fb      	ldr	r3, [r7, #12]
 8001516:	2200      	movs	r2, #0
 8001518:	f883 203c 	strb.w	r2, [r3, #60]	; 0x3c

      return HAL_ERROR;
 800151c:	2301      	movs	r3, #1
 800151e:	e007      	b.n	8001530 <I2C_WaitOnRXNEFlagUntilTimeout+0xa4>
  while (__HAL_I2C_GET_FLAG(hi2c, I2C_FLAG_RXNE) == RESET)
 8001520:	68fb      	ldr	r3, [r7, #12]
 8001522:	681b      	ldr	r3, [r3, #0]
 8001524:	695b      	ldr	r3, [r3, #20]
 8001526:	f003 0340 	and.w	r3, r3, #64	; 0x40
 800152a:	2b40      	cmp	r3, #64	; 0x40
 800152c:	d1b5      	bne.n	800149a <I2C_WaitOnRXNEFlagUntilTimeout+0xe>
    }
  }
  return HAL_OK;
 800152e:	2300      	movs	r3, #0
}
 8001530:	4618      	mov	r0, r3
 8001532:	3710      	adds	r7, #16
 8001534:	46bd      	mov	sp, r7
 8001536:	bd80      	pop	{r7, pc}

08001538 <I2C_IsAcknowledgeFailed>:
  * @param  hi2c Pointer to a I2C_HandleTypeDef structure that contains
  *                the configuration information for the specified I2C.
  * @retval HAL status
  */
static HAL_StatusTypeDef I2C_IsAcknowledgeFailed(I2C_HandleTypeDef *hi2c)
{
 8001538:	b480      	push	{r7}
 800153a:	b083      	sub	sp, #12
 800153c:	af00      	add	r7, sp, #0
 800153e:	6078      	str	r0, [r7, #4]
  if (__HAL_I2C_GET_FLAG(hi2c, I2C_FLAG_AF) == SET)
 8001540:	687b      	ldr	r3, [r7, #4]
 8001542:	681b      	ldr	r3, [r3, #0]
 8001544:	695b      	ldr	r3, [r3, #20]
 8001546:	f403 6380 	and.w	r3, r3, #1024	; 0x400
 800154a:	f5b3 6f80 	cmp.w	r3, #1024	; 0x400
 800154e:	d11b      	bne.n	8001588 <I2C_IsAcknowledgeFailed+0x50>
  {
    /* Clear NACKF Flag */
    __HAL_I2C_CLEAR_FLAG(hi2c, I2C_FLAG_AF);
 8001550:	687b      	ldr	r3, [r7, #4]
 8001552:	681b      	ldr	r3, [r3, #0]
 8001554:	f46f 6280 	mvn.w	r2, #1024	; 0x400
 8001558:	615a      	str	r2, [r3, #20]

    hi2c->PreviousState       = I2C_STATE_NONE;
 800155a:	687b      	ldr	r3, [r7, #4]
 800155c:	2200      	movs	r2, #0
 800155e:	631a      	str	r2, [r3, #48]	; 0x30
    hi2c->State               = HAL_I2C_STATE_READY;
 8001560:	687b      	ldr	r3, [r7, #4]
 8001562:	2220      	movs	r2, #32
 8001564:	f883 203d 	strb.w	r2, [r3, #61]	; 0x3d
    hi2c->Mode                = HAL_I2C_MODE_NONE;
 8001568:	687b      	ldr	r3, [r7, #4]
 800156a:	2200      	movs	r2, #0
 800156c:	f883 203e 	strb.w	r2, [r3, #62]	; 0x3e
    hi2c->ErrorCode           |= HAL_I2C_ERROR_AF;
 8001570:	687b      	ldr	r3, [r7, #4]
 8001572:	6c1b      	ldr	r3, [r3, #64]	; 0x40
 8001574:	f043 0204 	orr.w	r2, r3, #4
 8001578:	687b      	ldr	r3, [r7, #4]
 800157a:	641a      	str	r2, [r3, #64]	; 0x40

    /* Process Unlocked */
    __HAL_UNLOCK(hi2c);
 800157c:	687b      	ldr	r3, [r7, #4]
 800157e:	2200      	movs	r2, #0
 8001580:	f883 203c 	strb.w	r2, [r3, #60]	; 0x3c

    return HAL_ERROR;
 8001584:	2301      	movs	r3, #1
 8001586:	e000      	b.n	800158a <I2C_IsAcknowledgeFailed+0x52>
  }
  return HAL_OK;
 8001588:	2300      	movs	r3, #0
}
 800158a:	4618      	mov	r0, r3
 800158c:	370c      	adds	r7, #12
 800158e:	46bd      	mov	sp, r7
 8001590:	f85d 7b04 	ldr.w	r7, [sp], #4
 8001594:	4770      	bx	lr
	...

08001598 <HAL_RCC_OscConfig>:
  *         supported by this API. User should request a transition to HSE Off
  *         first and then HSE On or HSE Bypass.
  * @retval HAL status
  */
__weak HAL_StatusTypeDef HAL_RCC_OscConfig(RCC_OscInitTypeDef  *RCC_OscInitStruct)
{
 8001598:	b580      	push	{r7, lr}
 800159a:	b086      	sub	sp, #24
 800159c:	af00      	add	r7, sp, #0
 800159e:	6078      	str	r0, [r7, #4]
  uint32_t tickstart, pll_config;

  /* Check Null pointer */
  if(RCC_OscInitStruct == NULL)
 80015a0:	687b      	ldr	r3, [r7, #4]
 80015a2:	2b00      	cmp	r3, #0
 80015a4:	d101      	bne.n	80015aa <HAL_RCC_OscConfig+0x12>
  {
    return HAL_ERROR;
 80015a6:	2301      	movs	r3, #1
 80015a8:	e267      	b.n	8001a7a <HAL_RCC_OscConfig+0x4e2>
  }

  /* Check the parameters */
  assert_param(IS_RCC_OSCILLATORTYPE(RCC_OscInitStruct->OscillatorType));
  /*------------------------------- HSE Configuration ------------------------*/
  if(((RCC_OscInitStruct->OscillatorType) & RCC_OSCILLATORTYPE_HSE) == RCC_OSCILLATORTYPE_HSE)
 80015aa:	687b      	ldr	r3, [r7, #4]
 80015ac:	681b      	ldr	r3, [r3, #0]
 80015ae:	f003 0301 	and.w	r3, r3, #1
 80015b2:	2b00      	cmp	r3, #0
 80015b4:	d075      	beq.n	80016a2 <HAL_RCC_OscConfig+0x10a>
  {
    /* Check the parameters */
    assert_param(IS_RCC_HSE(RCC_OscInitStruct->HSEState));
    /* When the HSE is used as system clock or clock source for PLL in these cases HSE will not disabled */
    if((__HAL_RCC_GET_SYSCLK_SOURCE() == RCC_CFGR_SWS_HSE) ||\
 80015b6:	4b88      	ldr	r3, [pc, #544]	; (80017d8 <HAL_RCC_OscConfig+0x240>)
 80015b8:	689b      	ldr	r3, [r3, #8]
 80015ba:	f003 030c 	and.w	r3, r3, #12
 80015be:	2b04      	cmp	r3, #4
 80015c0:	d00c      	beq.n	80015dc <HAL_RCC_OscConfig+0x44>
      ((__HAL_RCC_GET_SYSCLK_SOURCE() == RCC_CFGR_SWS_PLL) && ((RCC->PLLCFGR & RCC_PLLCFGR_PLLSRC) == RCC_PLLCFGR_PLLSRC_HSE)))
 80015c2:	4b85      	ldr	r3, [pc, #532]	; (80017d8 <HAL_RCC_OscConfig+0x240>)
 80015c4:	689b      	ldr	r3, [r3, #8]
 80015c6:	f003 030c 	and.w	r3, r3, #12
    if((__HAL_RCC_GET_SYSCLK_SOURCE() == RCC_CFGR_SWS_HSE) ||\
 80015ca:	2b08      	cmp	r3, #8
 80015cc:	d112      	bne.n	80015f4 <HAL_RCC_OscConfig+0x5c>
      ((__HAL_RCC_GET_SYSCLK_SOURCE() == RCC_CFGR_SWS_PLL) && ((RCC->PLLCFGR & RCC_PLLCFGR_PLLSRC) == RCC_PLLCFGR_PLLSRC_HSE)))
 80015ce:	4b82      	ldr	r3, [pc, #520]	; (80017d8 <HAL_RCC_OscConfig+0x240>)
 80015d0:	685b      	ldr	r3, [r3, #4]
 80015d2:	f403 0380 	and.w	r3, r3, #4194304	; 0x400000
 80015d6:	f5b3 0f80 	cmp.w	r3, #4194304	; 0x400000
 80015da:	d10b      	bne.n	80015f4 <HAL_RCC_OscConfig+0x5c>
    {
      if((__HAL_RCC_GET_FLAG(RCC_FLAG_HSERDY) != RESET) && (RCC_OscInitStruct->HSEState == RCC_HSE_OFF))
 80015dc:	4b7e      	ldr	r3, [pc, #504]	; (80017d8 <HAL_RCC_OscConfig+0x240>)
 80015de:	681b      	ldr	r3, [r3, #0]
 80015e0:	f403 3300 	and.w	r3, r3, #131072	; 0x20000
 80015e4:	2b00      	cmp	r3, #0
 80015e6:	d05b      	beq.n	80016a0 <HAL_RCC_OscConfig+0x108>
 80015e8:	687b      	ldr	r3, [r7, #4]
 80015ea:	685b      	ldr	r3, [r3, #4]
 80015ec:	2b00      	cmp	r3, #0
 80015ee:	d157      	bne.n	80016a0 <HAL_RCC_OscConfig+0x108>
      {
        return HAL_ERROR;
 80015f0:	2301      	movs	r3, #1
 80015f2:	e242      	b.n	8001a7a <HAL_RCC_OscConfig+0x4e2>
      }
    }
    else
    {
      /* Set the new HSE configuration ---------------------------------------*/
      __HAL_RCC_HSE_CONFIG(RCC_OscInitStruct->HSEState);
 80015f4:	687b      	ldr	r3, [r7, #4]
 80015f6:	685b      	ldr	r3, [r3, #4]
 80015f8:	f5b3 3f80 	cmp.w	r3, #65536	; 0x10000
 80015fc:	d106      	bne.n	800160c <HAL_RCC_OscConfig+0x74>
 80015fe:	4b76      	ldr	r3, [pc, #472]	; (80017d8 <HAL_RCC_OscConfig+0x240>)
 8001600:	681b      	ldr	r3, [r3, #0]
 8001602:	4a75      	ldr	r2, [pc, #468]	; (80017d8 <HAL_RCC_OscConfig+0x240>)
 8001604:	f443 3380 	orr.w	r3, r3, #65536	; 0x10000
 8001608:	6013      	str	r3, [r2, #0]
 800160a:	e01d      	b.n	8001648 <HAL_RCC_OscConfig+0xb0>
 800160c:	687b      	ldr	r3, [r7, #4]
 800160e:	685b      	ldr	r3, [r3, #4]
 8001610:	f5b3 2fa0 	cmp.w	r3, #327680	; 0x50000
 8001614:	d10c      	bne.n	8001630 <HAL_RCC_OscConfig+0x98>
 8001616:	4b70      	ldr	r3, [pc, #448]	; (80017d8 <HAL_RCC_OscConfig+0x240>)
 8001618:	681b      	ldr	r3, [r3, #0]
 800161a:	4a6f      	ldr	r2, [pc, #444]	; (80017d8 <HAL_RCC_OscConfig+0x240>)
 800161c:	f443 2380 	orr.w	r3, r3, #262144	; 0x40000
 8001620:	6013      	str	r3, [r2, #0]
 8001622:	4b6d      	ldr	r3, [pc, #436]	; (80017d8 <HAL_RCC_OscConfig+0x240>)
 8001624:	681b      	ldr	r3, [r3, #0]
 8001626:	4a6c      	ldr	r2, [pc, #432]	; (80017d8 <HAL_RCC_OscConfig+0x240>)
 8001628:	f443 3380 	orr.w	r3, r3, #65536	; 0x10000
 800162c:	6013      	str	r3, [r2, #0]
 800162e:	e00b      	b.n	8001648 <HAL_RCC_OscConfig+0xb0>
 8001630:	4b69      	ldr	r3, [pc, #420]	; (80017d8 <HAL_RCC_OscConfig+0x240>)
 8001632:	681b      	ldr	r3, [r3, #0]
 8001634:	4a68      	ldr	r2, [pc, #416]	; (80017d8 <HAL_RCC_OscConfig+0x240>)
 8001636:	f423 3380 	bic.w	r3, r3, #65536	; 0x10000
 800163a:	6013      	str	r3, [r2, #0]
 800163c:	4b66      	ldr	r3, [pc, #408]	; (80017d8 <HAL_RCC_OscConfig+0x240>)
 800163e:	681b      	ldr	r3, [r3, #0]
 8001640:	4a65      	ldr	r2, [pc, #404]	; (80017d8 <HAL_RCC_OscConfig+0x240>)
 8001642:	f423 2380 	bic.w	r3, r3, #262144	; 0x40000
 8001646:	6013      	str	r3, [r2, #0]

      /* Check the HSE State */
      if((RCC_OscInitStruct->HSEState) != RCC_HSE_OFF)
 8001648:	687b      	ldr	r3, [r7, #4]
 800164a:	685b      	ldr	r3, [r3, #4]
 800164c:	2b00      	cmp	r3, #0
 800164e:	d013      	beq.n	8001678 <HAL_RCC_OscConfig+0xe0>
      {
        /* Get Start Tick */
        tickstart = HAL_GetTick();
 8001650:	f7ff f992 	bl	8000978 <HAL_GetTick>
 8001654:	6138      	str	r0, [r7, #16]

        /* Wait till HSE is ready */
        while(__HAL_RCC_GET_FLAG(RCC_FLAG_HSERDY) == RESET)
 8001656:	e008      	b.n	800166a <HAL_RCC_OscConfig+0xd2>
        {
          if((HAL_GetTick() - tickstart ) > HSE_TIMEOUT_VALUE)
 8001658:	f7ff f98e 	bl	8000978 <HAL_GetTick>
 800165c:	4602      	mov	r2, r0
 800165e:	693b      	ldr	r3, [r7, #16]
 8001660:	1ad3      	subs	r3, r2, r3
 8001662:	2b64      	cmp	r3, #100	; 0x64
 8001664:	d901      	bls.n	800166a <HAL_RCC_OscConfig+0xd2>
          {
            return HAL_TIMEOUT;
 8001666:	2303      	movs	r3, #3
 8001668:	e207      	b.n	8001a7a <HAL_RCC_OscConfig+0x4e2>
        while(__HAL_RCC_GET_FLAG(RCC_FLAG_HSERDY) == RESET)
 800166a:	4b5b      	ldr	r3, [pc, #364]	; (80017d8 <HAL_RCC_OscConfig+0x240>)
 800166c:	681b      	ldr	r3, [r3, #0]
 800166e:	f403 3300 	and.w	r3, r3, #131072	; 0x20000
 8001672:	2b00      	cmp	r3, #0
 8001674:	d0f0      	beq.n	8001658 <HAL_RCC_OscConfig+0xc0>
 8001676:	e014      	b.n	80016a2 <HAL_RCC_OscConfig+0x10a>
        }
      }
      else
      {
        /* Get Start Tick */
        tickstart = HAL_GetTick();
 8001678:	f7ff f97e 	bl	8000978 <HAL_GetTick>
 800167c:	6138      	str	r0, [r7, #16]

        /* Wait till HSE is bypassed or disabled */
        while(__HAL_RCC_GET_FLAG(RCC_FLAG_HSERDY) != RESET)
 800167e:	e008      	b.n	8001692 <HAL_RCC_OscConfig+0xfa>
        {
          if((HAL_GetTick() - tickstart ) > HSE_TIMEOUT_VALUE)
 8001680:	f7ff f97a 	bl	8000978 <HAL_GetTick>
 8001684:	4602      	mov	r2, r0
 8001686:	693b      	ldr	r3, [r7, #16]
 8001688:	1ad3      	subs	r3, r2, r3
 800168a:	2b64      	cmp	r3, #100	; 0x64
 800168c:	d901      	bls.n	8001692 <HAL_RCC_OscConfig+0xfa>
          {
            return HAL_TIMEOUT;
 800168e:	2303      	movs	r3, #3
 8001690:	e1f3      	b.n	8001a7a <HAL_RCC_OscConfig+0x4e2>
        while(__HAL_RCC_GET_FLAG(RCC_FLAG_HSERDY) != RESET)
 8001692:	4b51      	ldr	r3, [pc, #324]	; (80017d8 <HAL_RCC_OscConfig+0x240>)
 8001694:	681b      	ldr	r3, [r3, #0]
 8001696:	f403 3300 	and.w	r3, r3, #131072	; 0x20000
 800169a:	2b00      	cmp	r3, #0
 800169c:	d1f0      	bne.n	8001680 <HAL_RCC_OscConfig+0xe8>
 800169e:	e000      	b.n	80016a2 <HAL_RCC_OscConfig+0x10a>
      if((__HAL_RCC_GET_FLAG(RCC_FLAG_HSERDY) != RESET) && (RCC_OscInitStruct->HSEState == RCC_HSE_OFF))
 80016a0:	bf00      	nop
        }
      }
    }
  }
  /*----------------------------- HSI Configuration --------------------------*/
  if(((RCC_OscInitStruct->OscillatorType) & RCC_OSCILLATORTYPE_HSI) == RCC_OSCILLATORTYPE_HSI)
 80016a2:	687b      	ldr	r3, [r7, #4]
 80016a4:	681b      	ldr	r3, [r3, #0]
 80016a6:	f003 0302 	and.w	r3, r3, #2
 80016aa:	2b00      	cmp	r3, #0
 80016ac:	d063      	beq.n	8001776 <HAL_RCC_OscConfig+0x1de>
    /* Check the parameters */
    assert_param(IS_RCC_HSI(RCC_OscInitStruct->HSIState));
    assert_param(IS_RCC_CALIBRATION_VALUE(RCC_OscInitStruct->HSICalibrationValue));

    /* Check if HSI is used as system clock or as PLL source when PLL is selected as system clock */
    if((__HAL_RCC_GET_SYSCLK_SOURCE() == RCC_CFGR_SWS_HSI) ||\
 80016ae:	4b4a      	ldr	r3, [pc, #296]	; (80017d8 <HAL_RCC_OscConfig+0x240>)
 80016b0:	689b      	ldr	r3, [r3, #8]
 80016b2:	f003 030c 	and.w	r3, r3, #12
 80016b6:	2b00      	cmp	r3, #0
 80016b8:	d00b      	beq.n	80016d2 <HAL_RCC_OscConfig+0x13a>
      ((__HAL_RCC_GET_SYSCLK_SOURCE() == RCC_CFGR_SWS_PLL) && ((RCC->PLLCFGR & RCC_PLLCFGR_PLLSRC) == RCC_PLLCFGR_PLLSRC_HSI)))
 80016ba:	4b47      	ldr	r3, [pc, #284]	; (80017d8 <HAL_RCC_OscConfig+0x240>)
 80016bc:	689b      	ldr	r3, [r3, #8]
 80016be:	f003 030c 	and.w	r3, r3, #12
    if((__HAL_RCC_GET_SYSCLK_SOURCE() == RCC_CFGR_SWS_HSI) ||\
 80016c2:	2b08      	cmp	r3, #8
 80016c4:	d11c      	bne.n	8001700 <HAL_RCC_OscConfig+0x168>
      ((__HAL_RCC_GET_SYSCLK_SOURCE() == RCC_CFGR_SWS_PLL) && ((RCC->PLLCFGR & RCC_PLLCFGR_PLLSRC) == RCC_PLLCFGR_PLLSRC_HSI)))
 80016c6:	4b44      	ldr	r3, [pc, #272]	; (80017d8 <HAL_RCC_OscConfig+0x240>)
 80016c8:	685b      	ldr	r3, [r3, #4]
 80016ca:	f403 0380 	and.w	r3, r3, #4194304	; 0x400000
 80016ce:	2b00      	cmp	r3, #0
 80016d0:	d116      	bne.n	8001700 <HAL_RCC_OscConfig+0x168>
    {
      /* When HSI is used as system clock it will not disabled */
      if((__HAL_RCC_GET_FLAG(RCC_FLAG_HSIRDY) != RESET) && (RCC_OscInitStruct->HSIState != RCC_HSI_ON))
 80016d2:	4b41      	ldr	r3, [pc, #260]	; (80017d8 <HAL_RCC_OscConfig+0x240>)
 80016d4:	681b      	ldr	r3, [r3, #0]
 80016d6:	f003 0302 	and.w	r3, r3, #2
 80016da:	2b00      	cmp	r3, #0
 80016dc:	d005      	beq.n	80016ea <HAL_RCC_OscConfig+0x152>
 80016de:	687b      	ldr	r3, [r7, #4]
 80016e0:	68db      	ldr	r3, [r3, #12]
 80016e2:	2b01      	cmp	r3, #1
 80016e4:	d001      	beq.n	80016ea <HAL_RCC_OscConfig+0x152>
      {
        return HAL_ERROR;
 80016e6:	2301      	movs	r3, #1
 80016e8:	e1c7      	b.n	8001a7a <HAL_RCC_OscConfig+0x4e2>
      }
      /* Otherwise, just the calibration is allowed */
      else
      {
        /* Adjusts the Internal High Speed oscillator (HSI) calibration value.*/
        __HAL_RCC_HSI_CALIBRATIONVALUE_ADJUST(RCC_OscInitStruct->HSICalibrationValue);
 80016ea:	4b3b      	ldr	r3, [pc, #236]	; (80017d8 <HAL_RCC_OscConfig+0x240>)
 80016ec:	681b      	ldr	r3, [r3, #0]
 80016ee:	f023 02f8 	bic.w	r2, r3, #248	; 0xf8
 80016f2:	687b      	ldr	r3, [r7, #4]
 80016f4:	691b      	ldr	r3, [r3, #16]
 80016f6:	00db      	lsls	r3, r3, #3
 80016f8:	4937      	ldr	r1, [pc, #220]	; (80017d8 <HAL_RCC_OscConfig+0x240>)
 80016fa:	4313      	orrs	r3, r2
 80016fc:	600b      	str	r3, [r1, #0]
      if((__HAL_RCC_GET_FLAG(RCC_FLAG_HSIRDY) != RESET) && (RCC_OscInitStruct->HSIState != RCC_HSI_ON))
 80016fe:	e03a      	b.n	8001776 <HAL_RCC_OscConfig+0x1de>
      }
    }
    else
    {
      /* Check the HSI State */
      if((RCC_OscInitStruct->HSIState)!= RCC_HSI_OFF)
 8001700:	687b      	ldr	r3, [r7, #4]
 8001702:	68db      	ldr	r3, [r3, #12]
 8001704:	2b00      	cmp	r3, #0
 8001706:	d020      	beq.n	800174a <HAL_RCC_OscConfig+0x1b2>
      {
        /* Enable the Internal High Speed oscillator (HSI). */
        __HAL_RCC_HSI_ENABLE();
 8001708:	4b34      	ldr	r3, [pc, #208]	; (80017dc <HAL_RCC_OscConfig+0x244>)
 800170a:	2201      	movs	r2, #1
 800170c:	601a      	str	r2, [r3, #0]

        /* Get Start Tick*/
        tickstart = HAL_GetTick();
 800170e:	f7ff f933 	bl	8000978 <HAL_GetTick>
 8001712:	6138      	str	r0, [r7, #16]

        /* Wait till HSI is ready */
        while(__HAL_RCC_GET_FLAG(RCC_FLAG_HSIRDY) == RESET)
 8001714:	e008      	b.n	8001728 <HAL_RCC_OscConfig+0x190>
        {
          if((HAL_GetTick() - tickstart ) > HSI_TIMEOUT_VALUE)
 8001716:	f7ff f92f 	bl	8000978 <HAL_GetTick>
 800171a:	4602      	mov	r2, r0
 800171c:	693b      	ldr	r3, [r7, #16]
 800171e:	1ad3      	subs	r3, r2, r3
 8001720:	2b02      	cmp	r3, #2
 8001722:	d901      	bls.n	8001728 <HAL_RCC_OscConfig+0x190>
          {
            return HAL_TIMEOUT;
 8001724:	2303      	movs	r3, #3
 8001726:	e1a8      	b.n	8001a7a <HAL_RCC_OscConfig+0x4e2>
        while(__HAL_RCC_GET_FLAG(RCC_FLAG_HSIRDY) == RESET)
 8001728:	4b2b      	ldr	r3, [pc, #172]	; (80017d8 <HAL_RCC_OscConfig+0x240>)
 800172a:	681b      	ldr	r3, [r3, #0]
 800172c:	f003 0302 	and.w	r3, r3, #2
 8001730:	2b00      	cmp	r3, #0
 8001732:	d0f0      	beq.n	8001716 <HAL_RCC_OscConfig+0x17e>
          }
        }

        /* Adjusts the Internal High Speed oscillator (HSI) calibration value. */
        __HAL_RCC_HSI_CALIBRATIONVALUE_ADJUST(RCC_OscInitStruct->HSICalibrationValue);
 8001734:	4b28      	ldr	r3, [pc, #160]	; (80017d8 <HAL_RCC_OscConfig+0x240>)
 8001736:	681b      	ldr	r3, [r3, #0]
 8001738:	f023 02f8 	bic.w	r2, r3, #248	; 0xf8
 800173c:	687b      	ldr	r3, [r7, #4]
 800173e:	691b      	ldr	r3, [r3, #16]
 8001740:	00db      	lsls	r3, r3, #3
 8001742:	4925      	ldr	r1, [pc, #148]	; (80017d8 <HAL_RCC_OscConfig+0x240>)
 8001744:	4313      	orrs	r3, r2
 8001746:	600b      	str	r3, [r1, #0]
 8001748:	e015      	b.n	8001776 <HAL_RCC_OscConfig+0x1de>
      }
      else
      {
        /* Disable the Internal High Speed oscillator (HSI). */
        __HAL_RCC_HSI_DISABLE();
 800174a:	4b24      	ldr	r3, [pc, #144]	; (80017dc <HAL_RCC_OscConfig+0x244>)
 800174c:	2200      	movs	r2, #0
 800174e:	601a      	str	r2, [r3, #0]

        /* Get Start Tick*/
        tickstart = HAL_GetTick();
 8001750:	f7ff f912 	bl	8000978 <HAL_GetTick>
 8001754:	6138      	str	r0, [r7, #16]

        /* Wait till HSI is ready */
        while(__HAL_RCC_GET_FLAG(RCC_FLAG_HSIRDY) != RESET)
 8001756:	e008      	b.n	800176a <HAL_RCC_OscConfig+0x1d2>
        {
          if((HAL_GetTick() - tickstart ) > HSI_TIMEOUT_VALUE)
 8001758:	f7ff f90e 	bl	8000978 <HAL_GetTick>
 800175c:	4602      	mov	r2, r0
 800175e:	693b      	ldr	r3, [r7, #16]
 8001760:	1ad3      	subs	r3, r2, r3
 8001762:	2b02      	cmp	r3, #2
 8001764:	d901      	bls.n	800176a <HAL_RCC_OscConfig+0x1d2>
          {
            return HAL_TIMEOUT;
 8001766:	2303      	movs	r3, #3
 8001768:	e187      	b.n	8001a7a <HAL_RCC_OscConfig+0x4e2>
        while(__HAL_RCC_GET_FLAG(RCC_FLAG_HSIRDY) != RESET)
 800176a:	4b1b      	ldr	r3, [pc, #108]	; (80017d8 <HAL_RCC_OscConfig+0x240>)
 800176c:	681b      	ldr	r3, [r3, #0]
 800176e:	f003 0302 	and.w	r3, r3, #2
 8001772:	2b00      	cmp	r3, #0
 8001774:	d1f0      	bne.n	8001758 <HAL_RCC_OscConfig+0x1c0>
        }
      }
    }
  }
  /*------------------------------ LSI Configuration -------------------------*/
  if(((RCC_OscInitStruct->OscillatorType) & RCC_OSCILLATORTYPE_LSI) == RCC_OSCILLATORTYPE_LSI)
 8001776:	687b      	ldr	r3, [r7, #4]
 8001778:	681b      	ldr	r3, [r3, #0]
 800177a:	f003 0308 	and.w	r3, r3, #8
 800177e:	2b00      	cmp	r3, #0
 8001780:	d036      	beq.n	80017f0 <HAL_RCC_OscConfig+0x258>
  {
    /* Check the parameters */
    assert_param(IS_RCC_LSI(RCC_OscInitStruct->LSIState));

    /* Check the LSI State */
    if((RCC_OscInitStruct->LSIState)!= RCC_LSI_OFF)
 8001782:	687b      	ldr	r3, [r7, #4]
 8001784:	695b      	ldr	r3, [r3, #20]
 8001786:	2b00      	cmp	r3, #0
 8001788:	d016      	beq.n	80017b8 <HAL_RCC_OscConfig+0x220>
    {
      /* Enable the Internal Low Speed oscillator (LSI). */
      __HAL_RCC_LSI_ENABLE();
 800178a:	4b15      	ldr	r3, [pc, #84]	; (80017e0 <HAL_RCC_OscConfig+0x248>)
 800178c:	2201      	movs	r2, #1
 800178e:	601a      	str	r2, [r3, #0]

      /* Get Start Tick*/
      tickstart = HAL_GetTick();
 8001790:	f7ff f8f2 	bl	8000978 <HAL_GetTick>
 8001794:	6138      	str	r0, [r7, #16]

      /* Wait till LSI is ready */
      while(__HAL_RCC_GET_FLAG(RCC_FLAG_LSIRDY) == RESET)
 8001796:	e008      	b.n	80017aa <HAL_RCC_OscConfig+0x212>
      {
        if((HAL_GetTick() - tickstart ) > LSI_TIMEOUT_VALUE)
 8001798:	f7ff f8ee 	bl	8000978 <HAL_GetTick>
 800179c:	4602      	mov	r2, r0
 800179e:	693b      	ldr	r3, [r7, #16]
 80017a0:	1ad3      	subs	r3, r2, r3
 80017a2:	2b02      	cmp	r3, #2
 80017a4:	d901      	bls.n	80017aa <HAL_RCC_OscConfig+0x212>
        {
          return HAL_TIMEOUT;
 80017a6:	2303      	movs	r3, #3
 80017a8:	e167      	b.n	8001a7a <HAL_RCC_OscConfig+0x4e2>
      while(__HAL_RCC_GET_FLAG(RCC_FLAG_LSIRDY) == RESET)
 80017aa:	4b0b      	ldr	r3, [pc, #44]	; (80017d8 <HAL_RCC_OscConfig+0x240>)
 80017ac:	6f5b      	ldr	r3, [r3, #116]	; 0x74
 80017ae:	f003 0302 	and.w	r3, r3, #2
 80017b2:	2b00      	cmp	r3, #0
 80017b4:	d0f0      	beq.n	8001798 <HAL_RCC_OscConfig+0x200>
 80017b6:	e01b      	b.n	80017f0 <HAL_RCC_OscConfig+0x258>
      }
    }
    else
    {
      /* Disable the Internal Low Speed oscillator (LSI). */
      __HAL_RCC_LSI_DISABLE();
 80017b8:	4b09      	ldr	r3, [pc, #36]	; (80017e0 <HAL_RCC_OscConfig+0x248>)
 80017ba:	2200      	movs	r2, #0
 80017bc:	601a      	str	r2, [r3, #0]

      /* Get Start Tick */
      tickstart = HAL_GetTick();
 80017be:	f7ff f8db 	bl	8000978 <HAL_GetTick>
 80017c2:	6138      	str	r0, [r7, #16]

      /* Wait till LSI is ready */
      while(__HAL_RCC_GET_FLAG(RCC_FLAG_LSIRDY) != RESET)
 80017c4:	e00e      	b.n	80017e4 <HAL_RCC_OscConfig+0x24c>
      {
        if((HAL_GetTick() - tickstart ) > LSI_TIMEOUT_VALUE)
 80017c6:	f7ff f8d7 	bl	8000978 <HAL_GetTick>
 80017ca:	4602      	mov	r2, r0
 80017cc:	693b      	ldr	r3, [r7, #16]
 80017ce:	1ad3      	subs	r3, r2, r3
 80017d0:	2b02      	cmp	r3, #2
 80017d2:	d907      	bls.n	80017e4 <HAL_RCC_OscConfig+0x24c>
        {
          return HAL_TIMEOUT;
 80017d4:	2303      	movs	r3, #3
 80017d6:	e150      	b.n	8001a7a <HAL_RCC_OscConfig+0x4e2>
 80017d8:	40023800 	.word	0x40023800
 80017dc:	42470000 	.word	0x42470000
 80017e0:	42470e80 	.word	0x42470e80
      while(__HAL_RCC_GET_FLAG(RCC_FLAG_LSIRDY) != RESET)
 80017e4:	4b88      	ldr	r3, [pc, #544]	; (8001a08 <HAL_RCC_OscConfig+0x470>)
 80017e6:	6f5b      	ldr	r3, [r3, #116]	; 0x74
 80017e8:	f003 0302 	and.w	r3, r3, #2
 80017ec:	2b00      	cmp	r3, #0
 80017ee:	d1ea      	bne.n	80017c6 <HAL_RCC_OscConfig+0x22e>
        }
      }
    }
  }
  /*------------------------------ LSE Configuration -------------------------*/
  if(((RCC_OscInitStruct->OscillatorType) & RCC_OSCILLATORTYPE_LSE) == RCC_OSCILLATORTYPE_LSE)
 80017f0:	687b      	ldr	r3, [r7, #4]
 80017f2:	681b      	ldr	r3, [r3, #0]
 80017f4:	f003 0304 	and.w	r3, r3, #4
 80017f8:	2b00      	cmp	r3, #0
 80017fa:	f000 8097 	beq.w	800192c <HAL_RCC_OscConfig+0x394>
  {
    FlagStatus       pwrclkchanged = RESET;
 80017fe:	2300      	movs	r3, #0
 8001800:	75fb      	strb	r3, [r7, #23]
    /* Check the parameters */
    assert_param(IS_RCC_LSE(RCC_OscInitStruct->LSEState));

    /* Update LSE configuration in Backup Domain control register    */
    /* Requires to enable write access to Backup Domain of necessary */
    if(__HAL_RCC_PWR_IS_CLK_DISABLED())
 8001802:	4b81      	ldr	r3, [pc, #516]	; (8001a08 <HAL_RCC_OscConfig+0x470>)
 8001804:	6c1b      	ldr	r3, [r3, #64]	; 0x40
 8001806:	f003 5380 	and.w	r3, r3, #268435456	; 0x10000000
 800180a:	2b00      	cmp	r3, #0
 800180c:	d10f      	bne.n	800182e <HAL_RCC_OscConfig+0x296>
    {
      __HAL_RCC_PWR_CLK_ENABLE();
 800180e:	2300      	movs	r3, #0
 8001810:	60bb      	str	r3, [r7, #8]
 8001812:	4b7d      	ldr	r3, [pc, #500]	; (8001a08 <HAL_RCC_OscConfig+0x470>)
 8001814:	6c1b      	ldr	r3, [r3, #64]	; 0x40
 8001816:	4a7c      	ldr	r2, [pc, #496]	; (8001a08 <HAL_RCC_OscConfig+0x470>)
 8001818:	f043 5380 	orr.w	r3, r3, #268435456	; 0x10000000
 800181c:	6413      	str	r3, [r2, #64]	; 0x40
 800181e:	4b7a      	ldr	r3, [pc, #488]	; (8001a08 <HAL_RCC_OscConfig+0x470>)
 8001820:	6c1b      	ldr	r3, [r3, #64]	; 0x40
 8001822:	f003 5380 	and.w	r3, r3, #268435456	; 0x10000000
 8001826:	60bb      	str	r3, [r7, #8]
 8001828:	68bb      	ldr	r3, [r7, #8]
      pwrclkchanged = SET;
 800182a:	2301      	movs	r3, #1
 800182c:	75fb      	strb	r3, [r7, #23]
    }

    if(HAL_IS_BIT_CLR(PWR->CR, PWR_CR_DBP))
 800182e:	4b77      	ldr	r3, [pc, #476]	; (8001a0c <HAL_RCC_OscConfig+0x474>)
 8001830:	681b      	ldr	r3, [r3, #0]
 8001832:	f403 7380 	and.w	r3, r3, #256	; 0x100
 8001836:	2b00      	cmp	r3, #0
 8001838:	d118      	bne.n	800186c <HAL_RCC_OscConfig+0x2d4>
    {
      /* Enable write access to Backup domain */
      SET_BIT(PWR->CR, PWR_CR_DBP);
 800183a:	4b74      	ldr	r3, [pc, #464]	; (8001a0c <HAL_RCC_OscConfig+0x474>)
 800183c:	681b      	ldr	r3, [r3, #0]
 800183e:	4a73      	ldr	r2, [pc, #460]	; (8001a0c <HAL_RCC_OscConfig+0x474>)
 8001840:	f443 7380 	orr.w	r3, r3, #256	; 0x100
 8001844:	6013      	str	r3, [r2, #0]

      /* Wait for Backup domain Write protection disable */
      tickstart = HAL_GetTick();
 8001846:	f7ff f897 	bl	8000978 <HAL_GetTick>
 800184a:	6138      	str	r0, [r7, #16]

      while(HAL_IS_BIT_CLR(PWR->CR, PWR_CR_DBP))
 800184c:	e008      	b.n	8001860 <HAL_RCC_OscConfig+0x2c8>
      {
        if((HAL_GetTick() - tickstart) > RCC_DBP_TIMEOUT_VALUE)
 800184e:	f7ff f893 	bl	8000978 <HAL_GetTick>
 8001852:	4602      	mov	r2, r0
 8001854:	693b      	ldr	r3, [r7, #16]
 8001856:	1ad3      	subs	r3, r2, r3
 8001858:	2b02      	cmp	r3, #2
 800185a:	d901      	bls.n	8001860 <HAL_RCC_OscConfig+0x2c8>
        {
          return HAL_TIMEOUT;
 800185c:	2303      	movs	r3, #3
 800185e:	e10c      	b.n	8001a7a <HAL_RCC_OscConfig+0x4e2>
      while(HAL_IS_BIT_CLR(PWR->CR, PWR_CR_DBP))
 8001860:	4b6a      	ldr	r3, [pc, #424]	; (8001a0c <HAL_RCC_OscConfig+0x474>)
 8001862:	681b      	ldr	r3, [r3, #0]
 8001864:	f403 7380 	and.w	r3, r3, #256	; 0x100
 8001868:	2b00      	cmp	r3, #0
 800186a:	d0f0      	beq.n	800184e <HAL_RCC_OscConfig+0x2b6>
        }
      }
    }

    /* Set the new LSE configuration -----------------------------------------*/
    __HAL_RCC_LSE_CONFIG(RCC_OscInitStruct->LSEState);
 800186c:	687b      	ldr	r3, [r7, #4]
 800186e:	689b      	ldr	r3, [r3, #8]
 8001870:	2b01      	cmp	r3, #1
 8001872:	d106      	bne.n	8001882 <HAL_RCC_OscConfig+0x2ea>
 8001874:	4b64      	ldr	r3, [pc, #400]	; (8001a08 <HAL_RCC_OscConfig+0x470>)
 8001876:	6f1b      	ldr	r3, [r3, #112]	; 0x70
 8001878:	4a63      	ldr	r2, [pc, #396]	; (8001a08 <HAL_RCC_OscConfig+0x470>)
 800187a:	f043 0301 	orr.w	r3, r3, #1
 800187e:	6713      	str	r3, [r2, #112]	; 0x70
 8001880:	e01c      	b.n	80018bc <HAL_RCC_OscConfig+0x324>
 8001882:	687b      	ldr	r3, [r7, #4]
 8001884:	689b      	ldr	r3, [r3, #8]
 8001886:	2b05      	cmp	r3, #5
 8001888:	d10c      	bne.n	80018a4 <HAL_RCC_OscConfig+0x30c>
 800188a:	4b5f      	ldr	r3, [pc, #380]	; (8001a08 <HAL_RCC_OscConfig+0x470>)
 800188c:	6f1b      	ldr	r3, [r3, #112]	; 0x70
 800188e:	4a5e      	ldr	r2, [pc, #376]	; (8001a08 <HAL_RCC_OscConfig+0x470>)
 8001890:	f043 0304 	orr.w	r3, r3, #4
 8001894:	6713      	str	r3, [r2, #112]	; 0x70
 8001896:	4b5c      	ldr	r3, [pc, #368]	; (8001a08 <HAL_RCC_OscConfig+0x470>)
 8001898:	6f1b      	ldr	r3, [r3, #112]	; 0x70
 800189a:	4a5b      	ldr	r2, [pc, #364]	; (8001a08 <HAL_RCC_OscConfig+0x470>)
 800189c:	f043 0301 	orr.w	r3, r3, #1
 80018a0:	6713      	str	r3, [r2, #112]	; 0x70
 80018a2:	e00b      	b.n	80018bc <HAL_RCC_OscConfig+0x324>
 80018a4:	4b58      	ldr	r3, [pc, #352]	; (8001a08 <HAL_RCC_OscConfig+0x470>)
 80018a6:	6f1b      	ldr	r3, [r3, #112]	; 0x70
 80018a8:	4a57      	ldr	r2, [pc, #348]	; (8001a08 <HAL_RCC_OscConfig+0x470>)
 80018aa:	f023 0301 	bic.w	r3, r3, #1
 80018ae:	6713      	str	r3, [r2, #112]	; 0x70
 80018b0:	4b55      	ldr	r3, [pc, #340]	; (8001a08 <HAL_RCC_OscConfig+0x470>)
 80018b2:	6f1b      	ldr	r3, [r3, #112]	; 0x70
 80018b4:	4a54      	ldr	r2, [pc, #336]	; (8001a08 <HAL_RCC_OscConfig+0x470>)
 80018b6:	f023 0304 	bic.w	r3, r3, #4
 80018ba:	6713      	str	r3, [r2, #112]	; 0x70
    /* Check the LSE State */
    if((RCC_OscInitStruct->LSEState) != RCC_LSE_OFF)
 80018bc:	687b      	ldr	r3, [r7, #4]
 80018be:	689b      	ldr	r3, [r3, #8]
 80018c0:	2b00      	cmp	r3, #0
 80018c2:	d015      	beq.n	80018f0 <HAL_RCC_OscConfig+0x358>
    {
      /* Get Start Tick*/
      tickstart = HAL_GetTick();
 80018c4:	f7ff f858 	bl	8000978 <HAL_GetTick>
 80018c8:	6138      	str	r0, [r7, #16]

      /* Wait till LSE is ready */
      while(__HAL_RCC_GET_FLAG(RCC_FLAG_LSERDY) == RESET)
 80018ca:	e00a      	b.n	80018e2 <HAL_RCC_OscConfig+0x34a>
      {
        if((HAL_GetTick() - tickstart ) > RCC_LSE_TIMEOUT_VALUE)
 80018cc:	f7ff f854 	bl	8000978 <HAL_GetTick>
 80018d0:	4602      	mov	r2, r0
 80018d2:	693b      	ldr	r3, [r7, #16]
 80018d4:	1ad3      	subs	r3, r2, r3
 80018d6:	f241 3288 	movw	r2, #5000	; 0x1388
 80018da:	4293      	cmp	r3, r2
 80018dc:	d901      	bls.n	80018e2 <HAL_RCC_OscConfig+0x34a>
        {
          return HAL_TIMEOUT;
 80018de:	2303      	movs	r3, #3
 80018e0:	e0cb      	b.n	8001a7a <HAL_RCC_OscConfig+0x4e2>
      while(__HAL_RCC_GET_FLAG(RCC_FLAG_LSERDY) == RESET)
 80018e2:	4b49      	ldr	r3, [pc, #292]	; (8001a08 <HAL_RCC_OscConfig+0x470>)
 80018e4:	6f1b      	ldr	r3, [r3, #112]	; 0x70
 80018e6:	f003 0302 	and.w	r3, r3, #2
 80018ea:	2b00      	cmp	r3, #0
 80018ec:	d0ee      	beq.n	80018cc <HAL_RCC_OscConfig+0x334>
 80018ee:	e014      	b.n	800191a <HAL_RCC_OscConfig+0x382>
      }
    }
    else
    {
      /* Get Start Tick */
      tickstart = HAL_GetTick();
 80018f0:	f7ff f842 	bl	8000978 <HAL_GetTick>
 80018f4:	6138      	str	r0, [r7, #16]

      /* Wait till LSE is ready */
      while(__HAL_RCC_GET_FLAG(RCC_FLAG_LSERDY) != RESET)
 80018f6:	e00a      	b.n	800190e <HAL_RCC_OscConfig+0x376>
      {
        if((HAL_GetTick() - tickstart ) > RCC_LSE_TIMEOUT_VALUE)
 80018f8:	f7ff f83e 	bl	8000978 <HAL_GetTick>
 80018fc:	4602      	mov	r2, r0
 80018fe:	693b      	ldr	r3, [r7, #16]
 8001900:	1ad3      	subs	r3, r2, r3
 8001902:	f241 3288 	movw	r2, #5000	; 0x1388
 8001906:	4293      	cmp	r3, r2
 8001908:	d901      	bls.n	800190e <HAL_RCC_OscConfig+0x376>
        {
          return HAL_TIMEOUT;
 800190a:	2303      	movs	r3, #3
 800190c:	e0b5      	b.n	8001a7a <HAL_RCC_OscConfig+0x4e2>
      while(__HAL_RCC_GET_FLAG(RCC_FLAG_LSERDY) != RESET)
 800190e:	4b3e      	ldr	r3, [pc, #248]	; (8001a08 <HAL_RCC_OscConfig+0x470>)
 8001910:	6f1b      	ldr	r3, [r3, #112]	; 0x70
 8001912:	f003 0302 	and.w	r3, r3, #2
 8001916:	2b00      	cmp	r3, #0
 8001918:	d1ee      	bne.n	80018f8 <HAL_RCC_OscConfig+0x360>
        }
      }
    }

    /* Restore clock configuration if changed */
    if(pwrclkchanged == SET)
 800191a:	7dfb      	ldrb	r3, [r7, #23]
 800191c:	2b01      	cmp	r3, #1
 800191e:	d105      	bne.n	800192c <HAL_RCC_OscConfig+0x394>
    {
      __HAL_RCC_PWR_CLK_DISABLE();
 8001920:	4b39      	ldr	r3, [pc, #228]	; (8001a08 <HAL_RCC_OscConfig+0x470>)
 8001922:	6c1b      	ldr	r3, [r3, #64]	; 0x40
 8001924:	4a38      	ldr	r2, [pc, #224]	; (8001a08 <HAL_RCC_OscConfig+0x470>)
 8001926:	f023 5380 	bic.w	r3, r3, #268435456	; 0x10000000
 800192a:	6413      	str	r3, [r2, #64]	; 0x40
    }
  }
  /*-------------------------------- PLL Configuration -----------------------*/
  /* Check the parameters */
  assert_param(IS_RCC_PLL(RCC_OscInitStruct->PLL.PLLState));
  if ((RCC_OscInitStruct->PLL.PLLState) != RCC_PLL_NONE)
 800192c:	687b      	ldr	r3, [r7, #4]
 800192e:	699b      	ldr	r3, [r3, #24]
 8001930:	2b00      	cmp	r3, #0
 8001932:	f000 80a1 	beq.w	8001a78 <HAL_RCC_OscConfig+0x4e0>
  {
    /* Check if the PLL is used as system clock or not */
    if(__HAL_RCC_GET_SYSCLK_SOURCE() != RCC_CFGR_SWS_PLL)
 8001936:	4b34      	ldr	r3, [pc, #208]	; (8001a08 <HAL_RCC_OscConfig+0x470>)
 8001938:	689b      	ldr	r3, [r3, #8]
 800193a:	f003 030c 	and.w	r3, r3, #12
 800193e:	2b08      	cmp	r3, #8
 8001940:	d05c      	beq.n	80019fc <HAL_RCC_OscConfig+0x464>
    {
      if((RCC_OscInitStruct->PLL.PLLState) == RCC_PLL_ON)
 8001942:	687b      	ldr	r3, [r7, #4]
 8001944:	699b      	ldr	r3, [r3, #24]
 8001946:	2b02      	cmp	r3, #2
 8001948:	d141      	bne.n	80019ce <HAL_RCC_OscConfig+0x436>
        assert_param(IS_RCC_PLLN_VALUE(RCC_OscInitStruct->PLL.PLLN));
        assert_param(IS_RCC_PLLP_VALUE(RCC_OscInitStruct->PLL.PLLP));
        assert_param(IS_RCC_PLLQ_VALUE(RCC_OscInitStruct->PLL.PLLQ));

        /* Disable the main PLL. */
        __HAL_RCC_PLL_DISABLE();
 800194a:	4b31      	ldr	r3, [pc, #196]	; (8001a10 <HAL_RCC_OscConfig+0x478>)
 800194c:	2200      	movs	r2, #0
 800194e:	601a      	str	r2, [r3, #0]

        /* Get Start Tick */
        tickstart = HAL_GetTick();
 8001950:	f7ff f812 	bl	8000978 <HAL_GetTick>
 8001954:	6138      	str	r0, [r7, #16]

        /* Wait till PLL is ready */
        while(__HAL_RCC_GET_FLAG(RCC_FLAG_PLLRDY) != RESET)
 8001956:	e008      	b.n	800196a <HAL_RCC_OscConfig+0x3d2>
        {
          if((HAL_GetTick() - tickstart ) > PLL_TIMEOUT_VALUE)
 8001958:	f7ff f80e 	bl	8000978 <HAL_GetTick>
 800195c:	4602      	mov	r2, r0
 800195e:	693b      	ldr	r3, [r7, #16]
 8001960:	1ad3      	subs	r3, r2, r3
 8001962:	2b02      	cmp	r3, #2
 8001964:	d901      	bls.n	800196a <HAL_RCC_OscConfig+0x3d2>
          {
            return HAL_TIMEOUT;
 8001966:	2303      	movs	r3, #3
 8001968:	e087      	b.n	8001a7a <HAL_RCC_OscConfig+0x4e2>
        while(__HAL_RCC_GET_FLAG(RCC_FLAG_PLLRDY) != RESET)
 800196a:	4b27      	ldr	r3, [pc, #156]	; (8001a08 <HAL_RCC_OscConfig+0x470>)
 800196c:	681b      	ldr	r3, [r3, #0]
 800196e:	f003 7300 	and.w	r3, r3, #33554432	; 0x2000000
 8001972:	2b00      	cmp	r3, #0
 8001974:	d1f0      	bne.n	8001958 <HAL_RCC_OscConfig+0x3c0>
          }
        }

        /* Configure the main PLL clock source, multiplication and division factors. */
        WRITE_REG(RCC->PLLCFGR, (RCC_OscInitStruct->PLL.PLLSource                                            | \
 8001976:	687b      	ldr	r3, [r7, #4]
 8001978:	69da      	ldr	r2, [r3, #28]
 800197a:	687b      	ldr	r3, [r7, #4]
 800197c:	6a1b      	ldr	r3, [r3, #32]
 800197e:	431a      	orrs	r2, r3
 8001980:	687b      	ldr	r3, [r7, #4]
 8001982:	6a5b      	ldr	r3, [r3, #36]	; 0x24
 8001984:	019b      	lsls	r3, r3, #6
 8001986:	431a      	orrs	r2, r3
 8001988:	687b      	ldr	r3, [r7, #4]
 800198a:	6a9b      	ldr	r3, [r3, #40]	; 0x28
 800198c:	085b      	lsrs	r3, r3, #1
 800198e:	3b01      	subs	r3, #1
 8001990:	041b      	lsls	r3, r3, #16
 8001992:	431a      	orrs	r2, r3
 8001994:	687b      	ldr	r3, [r7, #4]
 8001996:	6adb      	ldr	r3, [r3, #44]	; 0x2c
 8001998:	061b      	lsls	r3, r3, #24
 800199a:	491b      	ldr	r1, [pc, #108]	; (8001a08 <HAL_RCC_OscConfig+0x470>)
 800199c:	4313      	orrs	r3, r2
 800199e:	604b      	str	r3, [r1, #4]
                                 RCC_OscInitStruct->PLL.PLLM                                                 | \
                                 (RCC_OscInitStruct->PLL.PLLN << RCC_PLLCFGR_PLLN_Pos)             | \
                                 (((RCC_OscInitStruct->PLL.PLLP >> 1U) - 1U) << RCC_PLLCFGR_PLLP_Pos) | \
                                 (RCC_OscInitStruct->PLL.PLLQ << RCC_PLLCFGR_PLLQ_Pos)));
        /* Enable the main PLL. */
        __HAL_RCC_PLL_ENABLE();
 80019a0:	4b1b      	ldr	r3, [pc, #108]	; (8001a10 <HAL_RCC_OscConfig+0x478>)
 80019a2:	2201      	movs	r2, #1
 80019a4:	601a      	str	r2, [r3, #0]

        /* Get Start Tick */
        tickstart = HAL_GetTick();
 80019a6:	f7fe ffe7 	bl	8000978 <HAL_GetTick>
 80019aa:	6138      	str	r0, [r7, #16]

        /* Wait till PLL is ready */
        while(__HAL_RCC_GET_FLAG(RCC_FLAG_PLLRDY) == RESET)
 80019ac:	e008      	b.n	80019c0 <HAL_RCC_OscConfig+0x428>
        {
          if((HAL_GetTick() - tickstart ) > PLL_TIMEOUT_VALUE)
 80019ae:	f7fe ffe3 	bl	8000978 <HAL_GetTick>
 80019b2:	4602      	mov	r2, r0
 80019b4:	693b      	ldr	r3, [r7, #16]
 80019b6:	1ad3      	subs	r3, r2, r3
 80019b8:	2b02      	cmp	r3, #2
 80019ba:	d901      	bls.n	80019c0 <HAL_RCC_OscConfig+0x428>
          {
            return HAL_TIMEOUT;
 80019bc:	2303      	movs	r3, #3
 80019be:	e05c      	b.n	8001a7a <HAL_RCC_OscConfig+0x4e2>
        while(__HAL_RCC_GET_FLAG(RCC_FLAG_PLLRDY) == RESET)
 80019c0:	4b11      	ldr	r3, [pc, #68]	; (8001a08 <HAL_RCC_OscConfig+0x470>)
 80019c2:	681b      	ldr	r3, [r3, #0]
 80019c4:	f003 7300 	and.w	r3, r3, #33554432	; 0x2000000
 80019c8:	2b00      	cmp	r3, #0
 80019ca:	d0f0      	beq.n	80019ae <HAL_RCC_OscConfig+0x416>
 80019cc:	e054      	b.n	8001a78 <HAL_RCC_OscConfig+0x4e0>
        }
      }
      else
      {
        /* Disable the main PLL. */
        __HAL_RCC_PLL_DISABLE();
 80019ce:	4b10      	ldr	r3, [pc, #64]	; (8001a10 <HAL_RCC_OscConfig+0x478>)
 80019d0:	2200      	movs	r2, #0
 80019d2:	601a      	str	r2, [r3, #0]

        /* Get Start Tick */
        tickstart = HAL_GetTick();
 80019d4:	f7fe ffd0 	bl	8000978 <HAL_GetTick>
 80019d8:	6138      	str	r0, [r7, #16]

        /* Wait till PLL is ready */
        while(__HAL_RCC_GET_FLAG(RCC_FLAG_PLLRDY) != RESET)
 80019da:	e008      	b.n	80019ee <HAL_RCC_OscConfig+0x456>
        {
          if((HAL_GetTick() - tickstart ) > PLL_TIMEOUT_VALUE)
 80019dc:	f7fe ffcc 	bl	8000978 <HAL_GetTick>
 80019e0:	4602      	mov	r2, r0
 80019e2:	693b      	ldr	r3, [r7, #16]
 80019e4:	1ad3      	subs	r3, r2, r3
 80019e6:	2b02      	cmp	r3, #2
 80019e8:	d901      	bls.n	80019ee <HAL_RCC_OscConfig+0x456>
          {
            return HAL_TIMEOUT;
 80019ea:	2303      	movs	r3, #3
 80019ec:	e045      	b.n	8001a7a <HAL_RCC_OscConfig+0x4e2>
        while(__HAL_RCC_GET_FLAG(RCC_FLAG_PLLRDY) != RESET)
 80019ee:	4b06      	ldr	r3, [pc, #24]	; (8001a08 <HAL_RCC_OscConfig+0x470>)
 80019f0:	681b      	ldr	r3, [r3, #0]
 80019f2:	f003 7300 	and.w	r3, r3, #33554432	; 0x2000000
 80019f6:	2b00      	cmp	r3, #0
 80019f8:	d1f0      	bne.n	80019dc <HAL_RCC_OscConfig+0x444>
 80019fa:	e03d      	b.n	8001a78 <HAL_RCC_OscConfig+0x4e0>
      }
    }
    else
    {
      /* Check if there is a request to disable the PLL used as System clock source */
      if((RCC_OscInitStruct->PLL.PLLState) == RCC_PLL_OFF)
 80019fc:	687b      	ldr	r3, [r7, #4]
 80019fe:	699b      	ldr	r3, [r3, #24]
 8001a00:	2b01      	cmp	r3, #1
 8001a02:	d107      	bne.n	8001a14 <HAL_RCC_OscConfig+0x47c>
      {
        return HAL_ERROR;
 8001a04:	2301      	movs	r3, #1
 8001a06:	e038      	b.n	8001a7a <HAL_RCC_OscConfig+0x4e2>
 8001a08:	40023800 	.word	0x40023800
 8001a0c:	40007000 	.word	0x40007000
 8001a10:	42470060 	.word	0x42470060
      }
      else
      {
        /* Do not return HAL_ERROR if request repeats the current configuration */
        pll_config = RCC->PLLCFGR;
 8001a14:	4b1b      	ldr	r3, [pc, #108]	; (8001a84 <HAL_RCC_OscConfig+0x4ec>)
 8001a16:	685b      	ldr	r3, [r3, #4]
 8001a18:	60fb      	str	r3, [r7, #12]
            (READ_BIT(pll_config, RCC_PLLCFGR_PLLN) != (RCC_OscInitStruct->PLL.PLLN) << RCC_PLLCFGR_PLLN_Pos) ||
            (READ_BIT(pll_config, RCC_PLLCFGR_PLLP) != (((RCC_OscInitStruct->PLL.PLLP >> 1U) - 1U)) << RCC_PLLCFGR_PLLP_Pos) ||
            (READ_BIT(pll_config, RCC_PLLCFGR_PLLQ) != (RCC_OscInitStruct->PLL.PLLQ << RCC_PLLCFGR_PLLQ_Pos)) ||
            (READ_BIT(pll_config, RCC_PLLCFGR_PLLR) != (RCC_OscInitStruct->PLL.PLLR << RCC_PLLCFGR_PLLR_Pos)))
#else
        if (((RCC_OscInitStruct->PLL.PLLState) == RCC_PLL_OFF) ||
 8001a1a:	687b      	ldr	r3, [r7, #4]
 8001a1c:	699b      	ldr	r3, [r3, #24]
 8001a1e:	2b01      	cmp	r3, #1
 8001a20:	d028      	beq.n	8001a74 <HAL_RCC_OscConfig+0x4dc>
            (READ_BIT(pll_config, RCC_PLLCFGR_PLLSRC) != RCC_OscInitStruct->PLL.PLLSource) ||
 8001a22:	68fb      	ldr	r3, [r7, #12]
 8001a24:	f403 0280 	and.w	r2, r3, #4194304	; 0x400000
 8001a28:	687b      	ldr	r3, [r7, #4]
 8001a2a:	69db      	ldr	r3, [r3, #28]
        if (((RCC_OscInitStruct->PLL.PLLState) == RCC_PLL_OFF) ||
 8001a2c:	429a      	cmp	r2, r3
 8001a2e:	d121      	bne.n	8001a74 <HAL_RCC_OscConfig+0x4dc>
            (READ_BIT(pll_config, RCC_PLLCFGR_PLLM) != (RCC_OscInitStruct->PLL.PLLM) << RCC_PLLCFGR_PLLM_Pos) ||
 8001a30:	68fb      	ldr	r3, [r7, #12]
 8001a32:	f003 023f 	and.w	r2, r3, #63	; 0x3f
 8001a36:	687b      	ldr	r3, [r7, #4]
 8001a38:	6a1b      	ldr	r3, [r3, #32]
            (READ_BIT(pll_config, RCC_PLLCFGR_PLLSRC) != RCC_OscInitStruct->PLL.PLLSource) ||
 8001a3a:	429a      	cmp	r2, r3
 8001a3c:	d11a      	bne.n	8001a74 <HAL_RCC_OscConfig+0x4dc>
            (READ_BIT(pll_config, RCC_PLLCFGR_PLLN) != (RCC_OscInitStruct->PLL.PLLN) << RCC_PLLCFGR_PLLN_Pos) ||
 8001a3e:	68fa      	ldr	r2, [r7, #12]
 8001a40:	f647 73c0 	movw	r3, #32704	; 0x7fc0
 8001a44:	4013      	ands	r3, r2
 8001a46:	687a      	ldr	r2, [r7, #4]
 8001a48:	6a52      	ldr	r2, [r2, #36]	; 0x24
 8001a4a:	0192      	lsls	r2, r2, #6
            (READ_BIT(pll_config, RCC_PLLCFGR_PLLM) != (RCC_OscInitStruct->PLL.PLLM) << RCC_PLLCFGR_PLLM_Pos) ||
 8001a4c:	4293      	cmp	r3, r2
 8001a4e:	d111      	bne.n	8001a74 <HAL_RCC_OscConfig+0x4dc>
            (READ_BIT(pll_config, RCC_PLLCFGR_PLLP) != (((RCC_OscInitStruct->PLL.PLLP >> 1U) - 1U)) << RCC_PLLCFGR_PLLP_Pos) ||
 8001a50:	68fb      	ldr	r3, [r7, #12]
 8001a52:	f403 3240 	and.w	r2, r3, #196608	; 0x30000
 8001a56:	687b      	ldr	r3, [r7, #4]
 8001a58:	6a9b      	ldr	r3, [r3, #40]	; 0x28
 8001a5a:	085b      	lsrs	r3, r3, #1
 8001a5c:	3b01      	subs	r3, #1
 8001a5e:	041b      	lsls	r3, r3, #16
            (READ_BIT(pll_config, RCC_PLLCFGR_PLLN) != (RCC_OscInitStruct->PLL.PLLN) << RCC_PLLCFGR_PLLN_Pos) ||
 8001a60:	429a      	cmp	r2, r3
 8001a62:	d107      	bne.n	8001a74 <HAL_RCC_OscConfig+0x4dc>
            (READ_BIT(pll_config, RCC_PLLCFGR_PLLQ) != (RCC_OscInitStruct->PLL.PLLQ << RCC_PLLCFGR_PLLQ_Pos)))
 8001a64:	68fb      	ldr	r3, [r7, #12]
 8001a66:	f003 6270 	and.w	r2, r3, #251658240	; 0xf000000
 8001a6a:	687b      	ldr	r3, [r7, #4]
 8001a6c:	6adb      	ldr	r3, [r3, #44]	; 0x2c
 8001a6e:	061b      	lsls	r3, r3, #24
            (READ_BIT(pll_config, RCC_PLLCFGR_PLLP) != (((RCC_OscInitStruct->PLL.PLLP >> 1U) - 1U)) << RCC_PLLCFGR_PLLP_Pos) ||
 8001a70:	429a      	cmp	r2, r3
 8001a72:	d001      	beq.n	8001a78 <HAL_RCC_OscConfig+0x4e0>
#endif
        {
          return HAL_ERROR;
 8001a74:	2301      	movs	r3, #1
 8001a76:	e000      	b.n	8001a7a <HAL_RCC_OscConfig+0x4e2>
        }
      }
    }
  }
  return HAL_OK;
 8001a78:	2300      	movs	r3, #0
}
 8001a7a:	4618      	mov	r0, r3
 8001a7c:	3718      	adds	r7, #24
 8001a7e:	46bd      	mov	sp, r7
 8001a80:	bd80      	pop	{r7, pc}
 8001a82:	bf00      	nop
 8001a84:	40023800 	.word	0x40023800

08001a88 <HAL_RCC_ClockConfig>:
  *         HPRE[3:0] bits to ensure that HCLK not exceed the maximum allowed frequency
  *         (for more details refer to section above "Initialization/de-initialization functions")
  * @retval None
  */
HAL_StatusTypeDef HAL_RCC_ClockConfig(RCC_ClkInitTypeDef  *RCC_ClkInitStruct, uint32_t FLatency)
{
 8001a88:	b580      	push	{r7, lr}
 8001a8a:	b084      	sub	sp, #16
 8001a8c:	af00      	add	r7, sp, #0
 8001a8e:	6078      	str	r0, [r7, #4]
 8001a90:	6039      	str	r1, [r7, #0]
  uint32_t tickstart;

  /* Check Null pointer */
  if(RCC_ClkInitStruct == NULL)
 8001a92:	687b      	ldr	r3, [r7, #4]
 8001a94:	2b00      	cmp	r3, #0
 8001a96:	d101      	bne.n	8001a9c <HAL_RCC_ClockConfig+0x14>
  {
    return HAL_ERROR;
 8001a98:	2301      	movs	r3, #1
 8001a9a:	e0cc      	b.n	8001c36 <HAL_RCC_ClockConfig+0x1ae>
  /* To correctly read data from FLASH memory, the number of wait states (LATENCY)
    must be correctly programmed according to the frequency of the CPU clock
    (HCLK) and the supply voltage of the device. */

  /* Increasing the number of wait states because of higher CPU frequency */
  if(FLatency > __HAL_FLASH_GET_LATENCY())
 8001a9c:	4b68      	ldr	r3, [pc, #416]	; (8001c40 <HAL_RCC_ClockConfig+0x1b8>)
 8001a9e:	681b      	ldr	r3, [r3, #0]
 8001aa0:	f003 0307 	and.w	r3, r3, #7
 8001aa4:	683a      	ldr	r2, [r7, #0]
 8001aa6:	429a      	cmp	r2, r3
 8001aa8:	d90c      	bls.n	8001ac4 <HAL_RCC_ClockConfig+0x3c>
  {
    /* Program the new number of wait states to the LATENCY bits in the FLASH_ACR register */
    __HAL_FLASH_SET_LATENCY(FLatency);
 8001aaa:	4b65      	ldr	r3, [pc, #404]	; (8001c40 <HAL_RCC_ClockConfig+0x1b8>)
 8001aac:	683a      	ldr	r2, [r7, #0]
 8001aae:	b2d2      	uxtb	r2, r2
 8001ab0:	701a      	strb	r2, [r3, #0]

    /* Check that the new number of wait states is taken into account to access the Flash
    memory by reading the FLASH_ACR register */
    if(__HAL_FLASH_GET_LATENCY() != FLatency)
 8001ab2:	4b63      	ldr	r3, [pc, #396]	; (8001c40 <HAL_RCC_ClockConfig+0x1b8>)
 8001ab4:	681b      	ldr	r3, [r3, #0]
 8001ab6:	f003 0307 	and.w	r3, r3, #7
 8001aba:	683a      	ldr	r2, [r7, #0]
 8001abc:	429a      	cmp	r2, r3
 8001abe:	d001      	beq.n	8001ac4 <HAL_RCC_ClockConfig+0x3c>
    {
      return HAL_ERROR;
 8001ac0:	2301      	movs	r3, #1
 8001ac2:	e0b8      	b.n	8001c36 <HAL_RCC_ClockConfig+0x1ae>
    }
  }

  /*-------------------------- HCLK Configuration --------------------------*/
  if(((RCC_ClkInitStruct->ClockType) & RCC_CLOCKTYPE_HCLK) == RCC_CLOCKTYPE_HCLK)
 8001ac4:	687b      	ldr	r3, [r7, #4]
 8001ac6:	681b      	ldr	r3, [r3, #0]
 8001ac8:	f003 0302 	and.w	r3, r3, #2
 8001acc:	2b00      	cmp	r3, #0
 8001ace:	d020      	beq.n	8001b12 <HAL_RCC_ClockConfig+0x8a>
  {
    /* Set the highest APBx dividers in order to ensure that we do not go through
       a non-spec phase whatever we decrease or increase HCLK. */
    if(((RCC_ClkInitStruct->ClockType) & RCC_CLOCKTYPE_PCLK1) == RCC_CLOCKTYPE_PCLK1)
 8001ad0:	687b      	ldr	r3, [r7, #4]
 8001ad2:	681b      	ldr	r3, [r3, #0]
 8001ad4:	f003 0304 	and.w	r3, r3, #4
 8001ad8:	2b00      	cmp	r3, #0
 8001ada:	d005      	beq.n	8001ae8 <HAL_RCC_ClockConfig+0x60>
    {
      MODIFY_REG(RCC->CFGR, RCC_CFGR_PPRE1, RCC_HCLK_DIV16);
 8001adc:	4b59      	ldr	r3, [pc, #356]	; (8001c44 <HAL_RCC_ClockConfig+0x1bc>)
 8001ade:	689b      	ldr	r3, [r3, #8]
 8001ae0:	4a58      	ldr	r2, [pc, #352]	; (8001c44 <HAL_RCC_ClockConfig+0x1bc>)
 8001ae2:	f443 53e0 	orr.w	r3, r3, #7168	; 0x1c00
 8001ae6:	6093      	str	r3, [r2, #8]
    }

    if(((RCC_ClkInitStruct->ClockType) & RCC_CLOCKTYPE_PCLK2) == RCC_CLOCKTYPE_PCLK2)
 8001ae8:	687b      	ldr	r3, [r7, #4]
 8001aea:	681b      	ldr	r3, [r3, #0]
 8001aec:	f003 0308 	and.w	r3, r3, #8
 8001af0:	2b00      	cmp	r3, #0
 8001af2:	d005      	beq.n	8001b00 <HAL_RCC_ClockConfig+0x78>
    {
      MODIFY_REG(RCC->CFGR, RCC_CFGR_PPRE2, (RCC_HCLK_DIV16 << 3));
 8001af4:	4b53      	ldr	r3, [pc, #332]	; (8001c44 <HAL_RCC_ClockConfig+0x1bc>)
 8001af6:	689b      	ldr	r3, [r3, #8]
 8001af8:	4a52      	ldr	r2, [pc, #328]	; (8001c44 <HAL_RCC_ClockConfig+0x1bc>)
 8001afa:	f443 4360 	orr.w	r3, r3, #57344	; 0xe000
 8001afe:	6093      	str	r3, [r2, #8]
    }

    assert_param(IS_RCC_HCLK(RCC_ClkInitStruct->AHBCLKDivider));
    MODIFY_REG(RCC->CFGR, RCC_CFGR_HPRE, RCC_ClkInitStruct->AHBCLKDivider);
 8001b00:	4b50      	ldr	r3, [pc, #320]	; (8001c44 <HAL_RCC_ClockConfig+0x1bc>)
 8001b02:	689b      	ldr	r3, [r3, #8]
 8001b04:	f023 02f0 	bic.w	r2, r3, #240	; 0xf0
 8001b08:	687b      	ldr	r3, [r7, #4]
 8001b0a:	689b      	ldr	r3, [r3, #8]
 8001b0c:	494d      	ldr	r1, [pc, #308]	; (8001c44 <HAL_RCC_ClockConfig+0x1bc>)
 8001b0e:	4313      	orrs	r3, r2
 8001b10:	608b      	str	r3, [r1, #8]
  }

  /*------------------------- SYSCLK Configuration ---------------------------*/
  if(((RCC_ClkInitStruct->ClockType) & RCC_CLOCKTYPE_SYSCLK) == RCC_CLOCKTYPE_SYSCLK)
 8001b12:	687b      	ldr	r3, [r7, #4]
 8001b14:	681b      	ldr	r3, [r3, #0]
 8001b16:	f003 0301 	and.w	r3, r3, #1
 8001b1a:	2b00      	cmp	r3, #0
 8001b1c:	d044      	beq.n	8001ba8 <HAL_RCC_ClockConfig+0x120>
  {
    assert_param(IS_RCC_SYSCLKSOURCE(RCC_ClkInitStruct->SYSCLKSource));

    /* HSE is selected as System Clock Source */
    if(RCC_ClkInitStruct->SYSCLKSource == RCC_SYSCLKSOURCE_HSE)
 8001b1e:	687b      	ldr	r3, [r7, #4]
 8001b20:	685b      	ldr	r3, [r3, #4]
 8001b22:	2b01      	cmp	r3, #1
 8001b24:	d107      	bne.n	8001b36 <HAL_RCC_ClockConfig+0xae>
    {
      /* Check the HSE ready flag */
      if(__HAL_RCC_GET_FLAG(RCC_FLAG_HSERDY) == RESET)
 8001b26:	4b47      	ldr	r3, [pc, #284]	; (8001c44 <HAL_RCC_ClockConfig+0x1bc>)
 8001b28:	681b      	ldr	r3, [r3, #0]
 8001b2a:	f403 3300 	and.w	r3, r3, #131072	; 0x20000
 8001b2e:	2b00      	cmp	r3, #0
 8001b30:	d119      	bne.n	8001b66 <HAL_RCC_ClockConfig+0xde>
      {
        return HAL_ERROR;
 8001b32:	2301      	movs	r3, #1
 8001b34:	e07f      	b.n	8001c36 <HAL_RCC_ClockConfig+0x1ae>
      }
    }
    /* PLL is selected as System Clock Source */
    else if((RCC_ClkInitStruct->SYSCLKSource == RCC_SYSCLKSOURCE_PLLCLK)   ||
 8001b36:	687b      	ldr	r3, [r7, #4]
 8001b38:	685b      	ldr	r3, [r3, #4]
 8001b3a:	2b02      	cmp	r3, #2
 8001b3c:	d003      	beq.n	8001b46 <HAL_RCC_ClockConfig+0xbe>
            (RCC_ClkInitStruct->SYSCLKSource == RCC_SYSCLKSOURCE_PLLRCLK))
 8001b3e:	687b      	ldr	r3, [r7, #4]
 8001b40:	685b      	ldr	r3, [r3, #4]
    else if((RCC_ClkInitStruct->SYSCLKSource == RCC_SYSCLKSOURCE_PLLCLK)   ||
 8001b42:	2b03      	cmp	r3, #3
 8001b44:	d107      	bne.n	8001b56 <HAL_RCC_ClockConfig+0xce>
    {
      /* Check the PLL ready flag */
      if(__HAL_RCC_GET_FLAG(RCC_FLAG_PLLRDY) == RESET)
 8001b46:	4b3f      	ldr	r3, [pc, #252]	; (8001c44 <HAL_RCC_ClockConfig+0x1bc>)
 8001b48:	681b      	ldr	r3, [r3, #0]
 8001b4a:	f003 7300 	and.w	r3, r3, #33554432	; 0x2000000
 8001b4e:	2b00      	cmp	r3, #0
 8001b50:	d109      	bne.n	8001b66 <HAL_RCC_ClockConfig+0xde>
      {
        return HAL_ERROR;
 8001b52:	2301      	movs	r3, #1
 8001b54:	e06f      	b.n	8001c36 <HAL_RCC_ClockConfig+0x1ae>
    }
    /* HSI is selected as System Clock Source */
    else
    {
      /* Check the HSI ready flag */
      if(__HAL_RCC_GET_FLAG(RCC_FLAG_HSIRDY) == RESET)
 8001b56:	4b3b      	ldr	r3, [pc, #236]	; (8001c44 <HAL_RCC_ClockConfig+0x1bc>)
 8001b58:	681b      	ldr	r3, [r3, #0]
 8001b5a:	f003 0302 	and.w	r3, r3, #2
 8001b5e:	2b00      	cmp	r3, #0
 8001b60:	d101      	bne.n	8001b66 <HAL_RCC_ClockConfig+0xde>
      {
        return HAL_ERROR;
 8001b62:	2301      	movs	r3, #1
 8001b64:	e067      	b.n	8001c36 <HAL_RCC_ClockConfig+0x1ae>
      }
    }

    __HAL_RCC_SYSCLK_CONFIG(RCC_ClkInitStruct->SYSCLKSource);
 8001b66:	4b37      	ldr	r3, [pc, #220]	; (8001c44 <HAL_RCC_ClockConfig+0x1bc>)
 8001b68:	689b      	ldr	r3, [r3, #8]
 8001b6a:	f023 0203 	bic.w	r2, r3, #3
 8001b6e:	687b      	ldr	r3, [r7, #4]
 8001b70:	685b      	ldr	r3, [r3, #4]
 8001b72:	4934      	ldr	r1, [pc, #208]	; (8001c44 <HAL_RCC_ClockConfig+0x1bc>)
 8001b74:	4313      	orrs	r3, r2
 8001b76:	608b      	str	r3, [r1, #8]

    /* Get Start Tick */
    tickstart = HAL_GetTick();
 8001b78:	f7fe fefe 	bl	8000978 <HAL_GetTick>
 8001b7c:	60f8      	str	r0, [r7, #12]

    while (__HAL_RCC_GET_SYSCLK_SOURCE() != (RCC_ClkInitStruct->SYSCLKSource << RCC_CFGR_SWS_Pos))
 8001b7e:	e00a      	b.n	8001b96 <HAL_RCC_ClockConfig+0x10e>
    {
      if ((HAL_GetTick() - tickstart) > CLOCKSWITCH_TIMEOUT_VALUE)
 8001b80:	f7fe fefa 	bl	8000978 <HAL_GetTick>
 8001b84:	4602      	mov	r2, r0
 8001b86:	68fb      	ldr	r3, [r7, #12]
 8001b88:	1ad3      	subs	r3, r2, r3
 8001b8a:	f241 3288 	movw	r2, #5000	; 0x1388
 8001b8e:	4293      	cmp	r3, r2
 8001b90:	d901      	bls.n	8001b96 <HAL_RCC_ClockConfig+0x10e>
      {
        return HAL_TIMEOUT;
 8001b92:	2303      	movs	r3, #3
 8001b94:	e04f      	b.n	8001c36 <HAL_RCC_ClockConfig+0x1ae>
    while (__HAL_RCC_GET_SYSCLK_SOURCE() != (RCC_ClkInitStruct->SYSCLKSource << RCC_CFGR_SWS_Pos))
 8001b96:	4b2b      	ldr	r3, [pc, #172]	; (8001c44 <HAL_RCC_ClockConfig+0x1bc>)
 8001b98:	689b      	ldr	r3, [r3, #8]
 8001b9a:	f003 020c 	and.w	r2, r3, #12
 8001b9e:	687b      	ldr	r3, [r7, #4]
 8001ba0:	685b      	ldr	r3, [r3, #4]
 8001ba2:	009b      	lsls	r3, r3, #2
 8001ba4:	429a      	cmp	r2, r3
 8001ba6:	d1eb      	bne.n	8001b80 <HAL_RCC_ClockConfig+0xf8>
      }
    }
  }

  /* Decreasing the number of wait states because of lower CPU frequency */
  if(FLatency < __HAL_FLASH_GET_LATENCY())
 8001ba8:	4b25      	ldr	r3, [pc, #148]	; (8001c40 <HAL_RCC_ClockConfig+0x1b8>)
 8001baa:	681b      	ldr	r3, [r3, #0]
 8001bac:	f003 0307 	and.w	r3, r3, #7
 8001bb0:	683a      	ldr	r2, [r7, #0]
 8001bb2:	429a      	cmp	r2, r3
 8001bb4:	d20c      	bcs.n	8001bd0 <HAL_RCC_ClockConfig+0x148>
  {
     /* Program the new number of wait states to the LATENCY bits in the FLASH_ACR register */
    __HAL_FLASH_SET_LATENCY(FLatency);
 8001bb6:	4b22      	ldr	r3, [pc, #136]	; (8001c40 <HAL_RCC_ClockConfig+0x1b8>)
 8001bb8:	683a      	ldr	r2, [r7, #0]
 8001bba:	b2d2      	uxtb	r2, r2
 8001bbc:	701a      	strb	r2, [r3, #0]

    /* Check that the new number of wait states is taken into account to access the Flash
    memory by reading the FLASH_ACR register */
    if(__HAL_FLASH_GET_LATENCY() != FLatency)
 8001bbe:	4b20      	ldr	r3, [pc, #128]	; (8001c40 <HAL_RCC_ClockConfig+0x1b8>)
 8001bc0:	681b      	ldr	r3, [r3, #0]
 8001bc2:	f003 0307 	and.w	r3, r3, #7
 8001bc6:	683a      	ldr	r2, [r7, #0]
 8001bc8:	429a      	cmp	r2, r3
 8001bca:	d001      	beq.n	8001bd0 <HAL_RCC_ClockConfig+0x148>
    {
      return HAL_ERROR;
 8001bcc:	2301      	movs	r3, #1
 8001bce:	e032      	b.n	8001c36 <HAL_RCC_ClockConfig+0x1ae>
    }
  }

  /*-------------------------- PCLK1 Configuration ---------------------------*/
  if(((RCC_ClkInitStruct->ClockType) & RCC_CLOCKTYPE_PCLK1) == RCC_CLOCKTYPE_PCLK1)
 8001bd0:	687b      	ldr	r3, [r7, #4]
 8001bd2:	681b      	ldr	r3, [r3, #0]
 8001bd4:	f003 0304 	and.w	r3, r3, #4
 8001bd8:	2b00      	cmp	r3, #0
 8001bda:	d008      	beq.n	8001bee <HAL_RCC_ClockConfig+0x166>
  {
    assert_param(IS_RCC_PCLK(RCC_ClkInitStruct->APB1CLKDivider));
    MODIFY_REG(RCC->CFGR, RCC_CFGR_PPRE1, RCC_ClkInitStruct->APB1CLKDivider);
 8001bdc:	4b19      	ldr	r3, [pc, #100]	; (8001c44 <HAL_RCC_ClockConfig+0x1bc>)
 8001bde:	689b      	ldr	r3, [r3, #8]
 8001be0:	f423 52e0 	bic.w	r2, r3, #7168	; 0x1c00
 8001be4:	687b      	ldr	r3, [r7, #4]
 8001be6:	68db      	ldr	r3, [r3, #12]
 8001be8:	4916      	ldr	r1, [pc, #88]	; (8001c44 <HAL_RCC_ClockConfig+0x1bc>)
 8001bea:	4313      	orrs	r3, r2
 8001bec:	608b      	str	r3, [r1, #8]
  }

  /*-------------------------- PCLK2 Configuration ---------------------------*/
  if(((RCC_ClkInitStruct->ClockType) & RCC_CLOCKTYPE_PCLK2) == RCC_CLOCKTYPE_PCLK2)
 8001bee:	687b      	ldr	r3, [r7, #4]
 8001bf0:	681b      	ldr	r3, [r3, #0]
 8001bf2:	f003 0308 	and.w	r3, r3, #8
 8001bf6:	2b00      	cmp	r3, #0
 8001bf8:	d009      	beq.n	8001c0e <HAL_RCC_ClockConfig+0x186>
  {
    assert_param(IS_RCC_PCLK(RCC_ClkInitStruct->APB2CLKDivider));
    MODIFY_REG(RCC->CFGR, RCC_CFGR_PPRE2, ((RCC_ClkInitStruct->APB2CLKDivider) << 3U));
 8001bfa:	4b12      	ldr	r3, [pc, #72]	; (8001c44 <HAL_RCC_ClockConfig+0x1bc>)
 8001bfc:	689b      	ldr	r3, [r3, #8]
 8001bfe:	f423 4260 	bic.w	r2, r3, #57344	; 0xe000
 8001c02:	687b      	ldr	r3, [r7, #4]
 8001c04:	691b      	ldr	r3, [r3, #16]
 8001c06:	00db      	lsls	r3, r3, #3
 8001c08:	490e      	ldr	r1, [pc, #56]	; (8001c44 <HAL_RCC_ClockConfig+0x1bc>)
 8001c0a:	4313      	orrs	r3, r2
 8001c0c:	608b      	str	r3, [r1, #8]
  }

  /* Update the SystemCoreClock global variable */
  SystemCoreClock = HAL_RCC_GetSysClockFreq() >> AHBPrescTable[(RCC->CFGR & RCC_CFGR_HPRE)>> RCC_CFGR_HPRE_Pos];
 8001c0e:	f000 f821 	bl	8001c54 <HAL_RCC_GetSysClockFreq>
 8001c12:	4602      	mov	r2, r0
 8001c14:	4b0b      	ldr	r3, [pc, #44]	; (8001c44 <HAL_RCC_ClockConfig+0x1bc>)
 8001c16:	689b      	ldr	r3, [r3, #8]
 8001c18:	091b      	lsrs	r3, r3, #4
 8001c1a:	f003 030f 	and.w	r3, r3, #15
 8001c1e:	490a      	ldr	r1, [pc, #40]	; (8001c48 <HAL_RCC_ClockConfig+0x1c0>)
 8001c20:	5ccb      	ldrb	r3, [r1, r3]
 8001c22:	fa22 f303 	lsr.w	r3, r2, r3
 8001c26:	4a09      	ldr	r2, [pc, #36]	; (8001c4c <HAL_RCC_ClockConfig+0x1c4>)
 8001c28:	6013      	str	r3, [r2, #0]

  /* Configure the source of time base considering new system clocks settings */
  HAL_InitTick (uwTickPrio);
 8001c2a:	4b09      	ldr	r3, [pc, #36]	; (8001c50 <HAL_RCC_ClockConfig+0x1c8>)
 8001c2c:	681b      	ldr	r3, [r3, #0]
 8001c2e:	4618      	mov	r0, r3
 8001c30:	f7fe fe5e 	bl	80008f0 <HAL_InitTick>

  return HAL_OK;
 8001c34:	2300      	movs	r3, #0
}
 8001c36:	4618      	mov	r0, r3
 8001c38:	3710      	adds	r7, #16
 8001c3a:	46bd      	mov	sp, r7
 8001c3c:	bd80      	pop	{r7, pc}
 8001c3e:	bf00      	nop
 8001c40:	40023c00 	.word	0x40023c00
 8001c44:	40023800 	.word	0x40023800
 8001c48:	08001f10 	.word	0x08001f10
 8001c4c:	20000000 	.word	0x20000000
 8001c50:	20000004 	.word	0x20000004

08001c54 <HAL_RCC_GetSysClockFreq>:
  *
  *
  * @retval SYSCLK frequency
  */
__weak uint32_t HAL_RCC_GetSysClockFreq(void)
{
 8001c54:	e92d 4fb0 	stmdb	sp!, {r4, r5, r7, r8, r9, sl, fp, lr}
 8001c58:	b094      	sub	sp, #80	; 0x50
 8001c5a:	af00      	add	r7, sp, #0
  uint32_t pllm = 0U, pllvco = 0U, pllp = 0U;
 8001c5c:	2300      	movs	r3, #0
 8001c5e:	647b      	str	r3, [r7, #68]	; 0x44
 8001c60:	2300      	movs	r3, #0
 8001c62:	64fb      	str	r3, [r7, #76]	; 0x4c
 8001c64:	2300      	movs	r3, #0
 8001c66:	643b      	str	r3, [r7, #64]	; 0x40
  uint32_t sysclockfreq = 0U;
 8001c68:	2300      	movs	r3, #0
 8001c6a:	64bb      	str	r3, [r7, #72]	; 0x48

  /* Get SYSCLK source -------------------------------------------------------*/
  switch (RCC->CFGR & RCC_CFGR_SWS)
 8001c6c:	4b79      	ldr	r3, [pc, #484]	; (8001e54 <HAL_RCC_GetSysClockFreq+0x200>)
 8001c6e:	689b      	ldr	r3, [r3, #8]
 8001c70:	f003 030c 	and.w	r3, r3, #12
 8001c74:	2b08      	cmp	r3, #8
 8001c76:	d00d      	beq.n	8001c94 <HAL_RCC_GetSysClockFreq+0x40>
 8001c78:	2b08      	cmp	r3, #8
 8001c7a:	f200 80e1 	bhi.w	8001e40 <HAL_RCC_GetSysClockFreq+0x1ec>
 8001c7e:	2b00      	cmp	r3, #0
 8001c80:	d002      	beq.n	8001c88 <HAL_RCC_GetSysClockFreq+0x34>
 8001c82:	2b04      	cmp	r3, #4
 8001c84:	d003      	beq.n	8001c8e <HAL_RCC_GetSysClockFreq+0x3a>
 8001c86:	e0db      	b.n	8001e40 <HAL_RCC_GetSysClockFreq+0x1ec>
  {
    case RCC_CFGR_SWS_HSI:  /* HSI used as system clock source */
    {
      sysclockfreq = HSI_VALUE;
 8001c88:	4b73      	ldr	r3, [pc, #460]	; (8001e58 <HAL_RCC_GetSysClockFreq+0x204>)
 8001c8a:	64bb      	str	r3, [r7, #72]	; 0x48
       break;
 8001c8c:	e0db      	b.n	8001e46 <HAL_RCC_GetSysClockFreq+0x1f2>
    }
    case RCC_CFGR_SWS_HSE:  /* HSE used as system clock  source */
    {
      sysclockfreq = HSE_VALUE;
 8001c8e:	4b73      	ldr	r3, [pc, #460]	; (8001e5c <HAL_RCC_GetSysClockFreq+0x208>)
 8001c90:	64bb      	str	r3, [r7, #72]	; 0x48
      break;
 8001c92:	e0d8      	b.n	8001e46 <HAL_RCC_GetSysClockFreq+0x1f2>
    }
    case RCC_CFGR_SWS_PLL:  /* PLL used as system clock  source */
    {
      /* PLL_VCO = (HSE_VALUE or HSI_VALUE / PLLM) * PLLN
      SYSCLK = PLL_VCO / PLLP */
      pllm = RCC->PLLCFGR & RCC_PLLCFGR_PLLM;
 8001c94:	4b6f      	ldr	r3, [pc, #444]	; (8001e54 <HAL_RCC_GetSysClockFreq+0x200>)
 8001c96:	685b      	ldr	r3, [r3, #4]
 8001c98:	f003 033f 	and.w	r3, r3, #63	; 0x3f
 8001c9c:	647b      	str	r3, [r7, #68]	; 0x44
      if(__HAL_RCC_GET_PLL_OSCSOURCE() != RCC_PLLSOURCE_HSI)
 8001c9e:	4b6d      	ldr	r3, [pc, #436]	; (8001e54 <HAL_RCC_GetSysClockFreq+0x200>)
 8001ca0:	685b      	ldr	r3, [r3, #4]
 8001ca2:	f403 0380 	and.w	r3, r3, #4194304	; 0x400000
 8001ca6:	2b00      	cmp	r3, #0
 8001ca8:	d063      	beq.n	8001d72 <HAL_RCC_GetSysClockFreq+0x11e>
      {
        /* HSE used as PLL clock source */
        pllvco = (uint32_t) ((((uint64_t) HSE_VALUE * ((uint64_t) ((RCC->PLLCFGR & RCC_PLLCFGR_PLLN) >> RCC_PLLCFGR_PLLN_Pos)))) / (uint64_t)pllm);
 8001caa:	4b6a      	ldr	r3, [pc, #424]	; (8001e54 <HAL_RCC_GetSysClockFreq+0x200>)
 8001cac:	685b      	ldr	r3, [r3, #4]
 8001cae:	099b      	lsrs	r3, r3, #6
 8001cb0:	2200      	movs	r2, #0
 8001cb2:	63bb      	str	r3, [r7, #56]	; 0x38
 8001cb4:	63fa      	str	r2, [r7, #60]	; 0x3c
 8001cb6:	6bbb      	ldr	r3, [r7, #56]	; 0x38
 8001cb8:	f3c3 0308 	ubfx	r3, r3, #0, #9
 8001cbc:	633b      	str	r3, [r7, #48]	; 0x30
 8001cbe:	2300      	movs	r3, #0
 8001cc0:	637b      	str	r3, [r7, #52]	; 0x34
 8001cc2:	e9d7 450c 	ldrd	r4, r5, [r7, #48]	; 0x30
 8001cc6:	4622      	mov	r2, r4
 8001cc8:	462b      	mov	r3, r5
 8001cca:	f04f 0000 	mov.w	r0, #0
 8001cce:	f04f 0100 	mov.w	r1, #0
 8001cd2:	0159      	lsls	r1, r3, #5
 8001cd4:	ea41 61d2 	orr.w	r1, r1, r2, lsr #27
 8001cd8:	0150      	lsls	r0, r2, #5
 8001cda:	4602      	mov	r2, r0
 8001cdc:	460b      	mov	r3, r1
 8001cde:	4621      	mov	r1, r4
 8001ce0:	1a51      	subs	r1, r2, r1
 8001ce2:	6139      	str	r1, [r7, #16]
 8001ce4:	4629      	mov	r1, r5
 8001ce6:	eb63 0301 	sbc.w	r3, r3, r1
 8001cea:	617b      	str	r3, [r7, #20]
 8001cec:	f04f 0200 	mov.w	r2, #0
 8001cf0:	f04f 0300 	mov.w	r3, #0
 8001cf4:	e9d7 ab04 	ldrd	sl, fp, [r7, #16]
 8001cf8:	4659      	mov	r1, fp
 8001cfa:	018b      	lsls	r3, r1, #6
 8001cfc:	4651      	mov	r1, sl
 8001cfe:	ea43 6391 	orr.w	r3, r3, r1, lsr #26
 8001d02:	4651      	mov	r1, sl
 8001d04:	018a      	lsls	r2, r1, #6
 8001d06:	4651      	mov	r1, sl
 8001d08:	ebb2 0801 	subs.w	r8, r2, r1
 8001d0c:	4659      	mov	r1, fp
 8001d0e:	eb63 0901 	sbc.w	r9, r3, r1
 8001d12:	f04f 0200 	mov.w	r2, #0
 8001d16:	f04f 0300 	mov.w	r3, #0
 8001d1a:	ea4f 03c9 	mov.w	r3, r9, lsl #3
 8001d1e:	ea43 7358 	orr.w	r3, r3, r8, lsr #29
 8001d22:	ea4f 02c8 	mov.w	r2, r8, lsl #3
 8001d26:	4690      	mov	r8, r2
 8001d28:	4699      	mov	r9, r3
 8001d2a:	4623      	mov	r3, r4
 8001d2c:	eb18 0303 	adds.w	r3, r8, r3
 8001d30:	60bb      	str	r3, [r7, #8]
 8001d32:	462b      	mov	r3, r5
 8001d34:	eb49 0303 	adc.w	r3, r9, r3
 8001d38:	60fb      	str	r3, [r7, #12]
 8001d3a:	f04f 0200 	mov.w	r2, #0
 8001d3e:	f04f 0300 	mov.w	r3, #0
 8001d42:	e9d7 4502 	ldrd	r4, r5, [r7, #8]
 8001d46:	4629      	mov	r1, r5
 8001d48:	024b      	lsls	r3, r1, #9
 8001d4a:	4621      	mov	r1, r4
 8001d4c:	ea43 53d1 	orr.w	r3, r3, r1, lsr #23
 8001d50:	4621      	mov	r1, r4
 8001d52:	024a      	lsls	r2, r1, #9
 8001d54:	4610      	mov	r0, r2
 8001d56:	4619      	mov	r1, r3
 8001d58:	6c7b      	ldr	r3, [r7, #68]	; 0x44
 8001d5a:	2200      	movs	r2, #0
 8001d5c:	62bb      	str	r3, [r7, #40]	; 0x28
 8001d5e:	62fa      	str	r2, [r7, #44]	; 0x2c
 8001d60:	e9d7 230a 	ldrd	r2, r3, [r7, #40]	; 0x28
 8001d64:	f7fe fa30 	bl	80001c8 <__aeabi_uldivmod>
 8001d68:	4602      	mov	r2, r0
 8001d6a:	460b      	mov	r3, r1
 8001d6c:	4613      	mov	r3, r2
 8001d6e:	64fb      	str	r3, [r7, #76]	; 0x4c
 8001d70:	e058      	b.n	8001e24 <HAL_RCC_GetSysClockFreq+0x1d0>
      }
      else
      {
        /* HSI used as PLL clock source */
        pllvco = (uint32_t) ((((uint64_t) HSI_VALUE * ((uint64_t) ((RCC->PLLCFGR & RCC_PLLCFGR_PLLN) >> RCC_PLLCFGR_PLLN_Pos)))) / (uint64_t)pllm);
 8001d72:	4b38      	ldr	r3, [pc, #224]	; (8001e54 <HAL_RCC_GetSysClockFreq+0x200>)
 8001d74:	685b      	ldr	r3, [r3, #4]
 8001d76:	099b      	lsrs	r3, r3, #6
 8001d78:	2200      	movs	r2, #0
 8001d7a:	4618      	mov	r0, r3
 8001d7c:	4611      	mov	r1, r2
 8001d7e:	f3c0 0308 	ubfx	r3, r0, #0, #9
 8001d82:	623b      	str	r3, [r7, #32]
 8001d84:	2300      	movs	r3, #0
 8001d86:	627b      	str	r3, [r7, #36]	; 0x24
 8001d88:	e9d7 8908 	ldrd	r8, r9, [r7, #32]
 8001d8c:	4642      	mov	r2, r8
 8001d8e:	464b      	mov	r3, r9
 8001d90:	f04f 0000 	mov.w	r0, #0
 8001d94:	f04f 0100 	mov.w	r1, #0
 8001d98:	0159      	lsls	r1, r3, #5
 8001d9a:	ea41 61d2 	orr.w	r1, r1, r2, lsr #27
 8001d9e:	0150      	lsls	r0, r2, #5
 8001da0:	4602      	mov	r2, r0
 8001da2:	460b      	mov	r3, r1
 8001da4:	4641      	mov	r1, r8
 8001da6:	ebb2 0a01 	subs.w	sl, r2, r1
 8001daa:	4649      	mov	r1, r9
 8001dac:	eb63 0b01 	sbc.w	fp, r3, r1
 8001db0:	f04f 0200 	mov.w	r2, #0
 8001db4:	f04f 0300 	mov.w	r3, #0
 8001db8:	ea4f 138b 	mov.w	r3, fp, lsl #6
 8001dbc:	ea43 639a 	orr.w	r3, r3, sl, lsr #26
 8001dc0:	ea4f 128a 	mov.w	r2, sl, lsl #6
 8001dc4:	ebb2 040a 	subs.w	r4, r2, sl
 8001dc8:	eb63 050b 	sbc.w	r5, r3, fp
 8001dcc:	f04f 0200 	mov.w	r2, #0
 8001dd0:	f04f 0300 	mov.w	r3, #0
 8001dd4:	00eb      	lsls	r3, r5, #3
 8001dd6:	ea43 7354 	orr.w	r3, r3, r4, lsr #29
 8001dda:	00e2      	lsls	r2, r4, #3
 8001ddc:	4614      	mov	r4, r2
 8001dde:	461d      	mov	r5, r3
 8001de0:	4643      	mov	r3, r8
 8001de2:	18e3      	adds	r3, r4, r3
 8001de4:	603b      	str	r3, [r7, #0]
 8001de6:	464b      	mov	r3, r9
 8001de8:	eb45 0303 	adc.w	r3, r5, r3
 8001dec:	607b      	str	r3, [r7, #4]
 8001dee:	f04f 0200 	mov.w	r2, #0
 8001df2:	f04f 0300 	mov.w	r3, #0
 8001df6:	e9d7 4500 	ldrd	r4, r5, [r7]
 8001dfa:	4629      	mov	r1, r5
 8001dfc:	028b      	lsls	r3, r1, #10
 8001dfe:	4621      	mov	r1, r4
 8001e00:	ea43 5391 	orr.w	r3, r3, r1, lsr #22
 8001e04:	4621      	mov	r1, r4
 8001e06:	028a      	lsls	r2, r1, #10
 8001e08:	4610      	mov	r0, r2
 8001e0a:	4619      	mov	r1, r3
 8001e0c:	6c7b      	ldr	r3, [r7, #68]	; 0x44
 8001e0e:	2200      	movs	r2, #0
 8001e10:	61bb      	str	r3, [r7, #24]
 8001e12:	61fa      	str	r2, [r7, #28]
 8001e14:	e9d7 2306 	ldrd	r2, r3, [r7, #24]
 8001e18:	f7fe f9d6 	bl	80001c8 <__aeabi_uldivmod>
 8001e1c:	4602      	mov	r2, r0
 8001e1e:	460b      	mov	r3, r1
 8001e20:	4613      	mov	r3, r2
 8001e22:	64fb      	str	r3, [r7, #76]	; 0x4c
      }
      pllp = ((((RCC->PLLCFGR & RCC_PLLCFGR_PLLP) >> RCC_PLLCFGR_PLLP_Pos) + 1U) *2U);
 8001e24:	4b0b      	ldr	r3, [pc, #44]	; (8001e54 <HAL_RCC_GetSysClockFreq+0x200>)
 8001e26:	685b      	ldr	r3, [r3, #4]
 8001e28:	0c1b      	lsrs	r3, r3, #16
 8001e2a:	f003 0303 	and.w	r3, r3, #3
 8001e2e:	3301      	adds	r3, #1
 8001e30:	005b      	lsls	r3, r3, #1
 8001e32:	643b      	str	r3, [r7, #64]	; 0x40

      sysclockfreq = pllvco/pllp;
 8001e34:	6cfa      	ldr	r2, [r7, #76]	; 0x4c
 8001e36:	6c3b      	ldr	r3, [r7, #64]	; 0x40
 8001e38:	fbb2 f3f3 	udiv	r3, r2, r3
 8001e3c:	64bb      	str	r3, [r7, #72]	; 0x48
      break;
 8001e3e:	e002      	b.n	8001e46 <HAL_RCC_GetSysClockFreq+0x1f2>
    }
    default:
    {
      sysclockfreq = HSI_VALUE;
 8001e40:	4b05      	ldr	r3, [pc, #20]	; (8001e58 <HAL_RCC_GetSysClockFreq+0x204>)
 8001e42:	64bb      	str	r3, [r7, #72]	; 0x48
      break;
 8001e44:	bf00      	nop
    }
  }
  return sysclockfreq;
 8001e46:	6cbb      	ldr	r3, [r7, #72]	; 0x48
}
 8001e48:	4618      	mov	r0, r3
 8001e4a:	3750      	adds	r7, #80	; 0x50
 8001e4c:	46bd      	mov	sp, r7
 8001e4e:	e8bd 8fb0 	ldmia.w	sp!, {r4, r5, r7, r8, r9, sl, fp, pc}
 8001e52:	bf00      	nop
 8001e54:	40023800 	.word	0x40023800
 8001e58:	00f42400 	.word	0x00f42400
 8001e5c:	007a1200 	.word	0x007a1200

08001e60 <HAL_RCC_GetHCLKFreq>:
  * @note   The SystemCoreClock CMSIS variable is used to store System Clock Frequency
  *         and updated within this function
  * @retval HCLK frequency
  */
uint32_t HAL_RCC_GetHCLKFreq(void)
{
 8001e60:	b480      	push	{r7}
 8001e62:	af00      	add	r7, sp, #0
  return SystemCoreClock;
 8001e64:	4b03      	ldr	r3, [pc, #12]	; (8001e74 <HAL_RCC_GetHCLKFreq+0x14>)
 8001e66:	681b      	ldr	r3, [r3, #0]
}
 8001e68:	4618      	mov	r0, r3
 8001e6a:	46bd      	mov	sp, r7
 8001e6c:	f85d 7b04 	ldr.w	r7, [sp], #4
 8001e70:	4770      	bx	lr
 8001e72:	bf00      	nop
 8001e74:	20000000 	.word	0x20000000

08001e78 <HAL_RCC_GetPCLK1Freq>:
  * @note   Each time PCLK1 changes, this function must be called to update the
  *         right PCLK1 value. Otherwise, any configuration based on this function will be incorrect.
  * @retval PCLK1 frequency
  */
uint32_t HAL_RCC_GetPCLK1Freq(void)
{
 8001e78:	b580      	push	{r7, lr}
 8001e7a:	af00      	add	r7, sp, #0
  /* Get HCLK source and Compute PCLK1 frequency ---------------------------*/
  return (HAL_RCC_GetHCLKFreq() >> APBPrescTable[(RCC->CFGR & RCC_CFGR_PPRE1)>> RCC_CFGR_PPRE1_Pos]);
 8001e7c:	f7ff fff0 	bl	8001e60 <HAL_RCC_GetHCLKFreq>
 8001e80:	4602      	mov	r2, r0
 8001e82:	4b05      	ldr	r3, [pc, #20]	; (8001e98 <HAL_RCC_GetPCLK1Freq+0x20>)
 8001e84:	689b      	ldr	r3, [r3, #8]
 8001e86:	0a9b      	lsrs	r3, r3, #10
 8001e88:	f003 0307 	and.w	r3, r3, #7
 8001e8c:	4903      	ldr	r1, [pc, #12]	; (8001e9c <HAL_RCC_GetPCLK1Freq+0x24>)
 8001e8e:	5ccb      	ldrb	r3, [r1, r3]
 8001e90:	fa22 f303 	lsr.w	r3, r2, r3
}
 8001e94:	4618      	mov	r0, r3
 8001e96:	bd80      	pop	{r7, pc}
 8001e98:	40023800 	.word	0x40023800
 8001e9c:	08001f20 	.word	0x08001f20

08001ea0 <__libc_init_array>:
 8001ea0:	b570      	push	{r4, r5, r6, lr}
 8001ea2:	4d0d      	ldr	r5, [pc, #52]	; (8001ed8 <__libc_init_array+0x38>)
 8001ea4:	4c0d      	ldr	r4, [pc, #52]	; (8001edc <__libc_init_array+0x3c>)
 8001ea6:	1b64      	subs	r4, r4, r5
 8001ea8:	10a4      	asrs	r4, r4, #2
 8001eaa:	2600      	movs	r6, #0
 8001eac:	42a6      	cmp	r6, r4
 8001eae:	d109      	bne.n	8001ec4 <__libc_init_array+0x24>
 8001eb0:	4d0b      	ldr	r5, [pc, #44]	; (8001ee0 <__libc_init_array+0x40>)
 8001eb2:	4c0c      	ldr	r4, [pc, #48]	; (8001ee4 <__libc_init_array+0x44>)
 8001eb4:	f000 f820 	bl	8001ef8 <_init>
 8001eb8:	1b64      	subs	r4, r4, r5
 8001eba:	10a4      	asrs	r4, r4, #2
 8001ebc:	2600      	movs	r6, #0
 8001ebe:	42a6      	cmp	r6, r4
 8001ec0:	d105      	bne.n	8001ece <__libc_init_array+0x2e>
 8001ec2:	bd70      	pop	{r4, r5, r6, pc}
 8001ec4:	f855 3b04 	ldr.w	r3, [r5], #4
 8001ec8:	4798      	blx	r3
 8001eca:	3601      	adds	r6, #1
 8001ecc:	e7ee      	b.n	8001eac <__libc_init_array+0xc>
 8001ece:	f855 3b04 	ldr.w	r3, [r5], #4
 8001ed2:	4798      	blx	r3
 8001ed4:	3601      	adds	r6, #1
 8001ed6:	e7f2      	b.n	8001ebe <__libc_init_array+0x1e>
 8001ed8:	08001f30 	.word	0x08001f30
 8001edc:	08001f30 	.word	0x08001f30
 8001ee0:	08001f30 	.word	0x08001f30
 8001ee4:	08001f34 	.word	0x08001f34

08001ee8 <memset>:
 8001ee8:	4402      	add	r2, r0
 8001eea:	4603      	mov	r3, r0
 8001eec:	4293      	cmp	r3, r2
 8001eee:	d100      	bne.n	8001ef2 <memset+0xa>
 8001ef0:	4770      	bx	lr
 8001ef2:	f803 1b01 	strb.w	r1, [r3], #1
 8001ef6:	e7f9      	b.n	8001eec <memset+0x4>

08001ef8 <_init>:
 8001ef8:	b5f8      	push	{r3, r4, r5, r6, r7, lr}
 8001efa:	bf00      	nop
 8001efc:	bcf8      	pop	{r3, r4, r5, r6, r7}
 8001efe:	bc08      	pop	{r3}
 8001f00:	469e      	mov	lr, r3
 8001f02:	4770      	bx	lr

08001f04 <_fini>:
 8001f04:	b5f8      	push	{r3, r4, r5, r6, r7, lr}
 8001f06:	bf00      	nop
 8001f08:	bcf8      	pop	{r3, r4, r5, r6, r7}
 8001f0a:	bc08      	pop	{r3}
 8001f0c:	469e      	mov	lr, r3
 8001f0e:	4770      	bx	lr
