
MS_LW_5.2.elf:     file format elf32-littlearm

Sections:
Idx Name          Size      VMA       LMA       File off  Algn
  0 .isr_vector   00000188  08000000  08000000  00010000  2**0
                  CONTENTS, ALLOC, LOAD, READONLY, DATA
  1 .text         00003248  08000188  08000188  00010188  2**2
                  CONTENTS, ALLOC, LOAD, READONLY, CODE
  2 .rodata       00000010  080033d0  080033d0  000133d0  2**2
                  CONTENTS, ALLOC, LOAD, READONLY, DATA
  3 .ARM.extab    00000000  080033e0  080033e0  00020010  2**0
                  CONTENTS
  4 .ARM          00000008  080033e0  080033e0  000133e0  2**2
                  CONTENTS, ALLOC, LOAD, READONLY, DATA
  5 .preinit_array 00000000  080033e8  080033e8  00020010  2**0
                  CONTENTS, ALLOC, LOAD, DATA
  6 .init_array   00000004  080033e8  080033e8  000133e8  2**2
                  CONTENTS, ALLOC, LOAD, DATA
  7 .fini_array   00000004  080033ec  080033ec  000133ec  2**2
                  CONTENTS, ALLOC, LOAD, DATA
  8 .data         00000010  20000000  080033f0  00020000  2**2
                  CONTENTS, ALLOC, LOAD, DATA
  9 .ccmram       00000000  10000000  10000000  00020010  2**0
                  CONTENTS
 10 .bss          00000120  20000010  20000010  00020010  2**2
                  ALLOC
 11 ._user_heap_stack 00000600  20000130  20000130  00020010  2**0
                  ALLOC
 12 .ARM.attributes 00000030  00000000  00000000  00020010  2**0
                  CONTENTS, READONLY
 13 .debug_info   0000c02f  00000000  00000000  00020040  2**0
                  CONTENTS, READONLY, DEBUGGING, OCTETS
 14 .debug_abbrev 00001a6d  00000000  00000000  0002c06f  2**0
                  CONTENTS, READONLY, DEBUGGING, OCTETS
 15 .debug_aranges 00000be8  00000000  00000000  0002dae0  2**3
                  CONTENTS, READONLY, DEBUGGING, OCTETS
 16 .debug_ranges 00000b20  00000000  00000000  0002e6c8  2**3
                  CONTENTS, READONLY, DEBUGGING, OCTETS
 17 .debug_macro  000200d6  00000000  00000000  0002f1e8  2**0
                  CONTENTS, READONLY, DEBUGGING, OCTETS
 18 .debug_line   0000c9cd  00000000  00000000  0004f2be  2**0
                  CONTENTS, READONLY, DEBUGGING, OCTETS
 19 .debug_str    000c6625  00000000  00000000  0005bc8b  2**0
                  CONTENTS, READONLY, DEBUGGING, OCTETS
 20 .comment      00000050  00000000  00000000  001222b0  2**0
                  CONTENTS, READONLY
 21 .debug_frame  0000320c  00000000  00000000  00122300  2**2
                  CONTENTS, READONLY, DEBUGGING, OCTETS

Disassembly of section .text:

08000188 <__do_global_dtors_aux>:
 8000188:	b510      	push	{r4, lr}
 800018a:	4c05      	ldr	r4, [pc, #20]	; (80001a0 <__do_global_dtors_aux+0x18>)
 800018c:	7823      	ldrb	r3, [r4, #0]
 800018e:	b933      	cbnz	r3, 800019e <__do_global_dtors_aux+0x16>
 8000190:	4b04      	ldr	r3, [pc, #16]	; (80001a4 <__do_global_dtors_aux+0x1c>)
 8000192:	b113      	cbz	r3, 800019a <__do_global_dtors_aux+0x12>
 8000194:	4804      	ldr	r0, [pc, #16]	; (80001a8 <__do_global_dtors_aux+0x20>)
 8000196:	f3af 8000 	nop.w
 800019a:	2301      	movs	r3, #1
 800019c:	7023      	strb	r3, [r4, #0]
 800019e:	bd10      	pop	{r4, pc}
 80001a0:	20000010 	.word	0x20000010
 80001a4:	00000000 	.word	0x00000000
 80001a8:	080033b8 	.word	0x080033b8

080001ac <frame_dummy>:
 80001ac:	b508      	push	{r3, lr}
 80001ae:	4b03      	ldr	r3, [pc, #12]	; (80001bc <frame_dummy+0x10>)
 80001b0:	b11b      	cbz	r3, 80001ba <frame_dummy+0xe>
 80001b2:	4903      	ldr	r1, [pc, #12]	; (80001c0 <frame_dummy+0x14>)
 80001b4:	4803      	ldr	r0, [pc, #12]	; (80001c4 <frame_dummy+0x18>)
 80001b6:	f3af 8000 	nop.w
 80001ba:	bd08      	pop	{r3, pc}
 80001bc:	00000000 	.word	0x00000000
 80001c0:	20000014 	.word	0x20000014
 80001c4:	080033b8 	.word	0x080033b8

080001c8 <__aeabi_uldivmod>:
 80001c8:	b953      	cbnz	r3, 80001e0 <__aeabi_uldivmod+0x18>
 80001ca:	b94a      	cbnz	r2, 80001e0 <__aeabi_uldivmod+0x18>
 80001cc:	2900      	cmp	r1, #0
 80001ce:	bf08      	it	eq
 80001d0:	2800      	cmpeq	r0, #0
 80001d2:	bf1c      	itt	ne
 80001d4:	f04f 31ff 	movne.w	r1, #4294967295
 80001d8:	f04f 30ff 	movne.w	r0, #4294967295
 80001dc:	f000 b974 	b.w	80004c8 <__aeabi_idiv0>
 80001e0:	f1ad 0c08 	sub.w	ip, sp, #8
 80001e4:	e96d ce04 	strd	ip, lr, [sp, #-16]!
 80001e8:	f000 f806 	bl	80001f8 <__udivmoddi4>
 80001ec:	f8dd e004 	ldr.w	lr, [sp, #4]
 80001f0:	e9dd 2302 	ldrd	r2, r3, [sp, #8]
 80001f4:	b004      	add	sp, #16
 80001f6:	4770      	bx	lr

080001f8 <__udivmoddi4>:
 80001f8:	e92d 47f0 	stmdb	sp!, {r4, r5, r6, r7, r8, r9, sl, lr}
 80001fc:	9d08      	ldr	r5, [sp, #32]
 80001fe:	4604      	mov	r4, r0
 8000200:	468e      	mov	lr, r1
 8000202:	2b00      	cmp	r3, #0
 8000204:	d14d      	bne.n	80002a2 <__udivmoddi4+0xaa>
 8000206:	428a      	cmp	r2, r1
 8000208:	4694      	mov	ip, r2
 800020a:	d969      	bls.n	80002e0 <__udivmoddi4+0xe8>
 800020c:	fab2 f282 	clz	r2, r2
 8000210:	b152      	cbz	r2, 8000228 <__udivmoddi4+0x30>
 8000212:	fa01 f302 	lsl.w	r3, r1, r2
 8000216:	f1c2 0120 	rsb	r1, r2, #32
 800021a:	fa20 f101 	lsr.w	r1, r0, r1
 800021e:	fa0c fc02 	lsl.w	ip, ip, r2
 8000222:	ea41 0e03 	orr.w	lr, r1, r3
 8000226:	4094      	lsls	r4, r2
 8000228:	ea4f 481c 	mov.w	r8, ip, lsr #16
 800022c:	0c21      	lsrs	r1, r4, #16
 800022e:	fbbe f6f8 	udiv	r6, lr, r8
 8000232:	fa1f f78c 	uxth.w	r7, ip
 8000236:	fb08 e316 	mls	r3, r8, r6, lr
 800023a:	ea41 4303 	orr.w	r3, r1, r3, lsl #16
 800023e:	fb06 f107 	mul.w	r1, r6, r7
 8000242:	4299      	cmp	r1, r3
 8000244:	d90a      	bls.n	800025c <__udivmoddi4+0x64>
 8000246:	eb1c 0303 	adds.w	r3, ip, r3
 800024a:	f106 30ff 	add.w	r0, r6, #4294967295
 800024e:	f080 811f 	bcs.w	8000490 <__udivmoddi4+0x298>
 8000252:	4299      	cmp	r1, r3
 8000254:	f240 811c 	bls.w	8000490 <__udivmoddi4+0x298>
 8000258:	3e02      	subs	r6, #2
 800025a:	4463      	add	r3, ip
 800025c:	1a5b      	subs	r3, r3, r1
 800025e:	b2a4      	uxth	r4, r4
 8000260:	fbb3 f0f8 	udiv	r0, r3, r8
 8000264:	fb08 3310 	mls	r3, r8, r0, r3
 8000268:	ea44 4403 	orr.w	r4, r4, r3, lsl #16
 800026c:	fb00 f707 	mul.w	r7, r0, r7
 8000270:	42a7      	cmp	r7, r4
 8000272:	d90a      	bls.n	800028a <__udivmoddi4+0x92>
 8000274:	eb1c 0404 	adds.w	r4, ip, r4
 8000278:	f100 33ff 	add.w	r3, r0, #4294967295
 800027c:	f080 810a 	bcs.w	8000494 <__udivmoddi4+0x29c>
 8000280:	42a7      	cmp	r7, r4
 8000282:	f240 8107 	bls.w	8000494 <__udivmoddi4+0x29c>
 8000286:	4464      	add	r4, ip
 8000288:	3802      	subs	r0, #2
 800028a:	ea40 4006 	orr.w	r0, r0, r6, lsl #16
 800028e:	1be4      	subs	r4, r4, r7
 8000290:	2600      	movs	r6, #0
 8000292:	b11d      	cbz	r5, 800029c <__udivmoddi4+0xa4>
 8000294:	40d4      	lsrs	r4, r2
 8000296:	2300      	movs	r3, #0
 8000298:	e9c5 4300 	strd	r4, r3, [r5]
 800029c:	4631      	mov	r1, r6
 800029e:	e8bd 87f0 	ldmia.w	sp!, {r4, r5, r6, r7, r8, r9, sl, pc}
 80002a2:	428b      	cmp	r3, r1
 80002a4:	d909      	bls.n	80002ba <__udivmoddi4+0xc2>
 80002a6:	2d00      	cmp	r5, #0
 80002a8:	f000 80ef 	beq.w	800048a <__udivmoddi4+0x292>
 80002ac:	2600      	movs	r6, #0
 80002ae:	e9c5 0100 	strd	r0, r1, [r5]
 80002b2:	4630      	mov	r0, r6
 80002b4:	4631      	mov	r1, r6
 80002b6:	e8bd 87f0 	ldmia.w	sp!, {r4, r5, r6, r7, r8, r9, sl, pc}
 80002ba:	fab3 f683 	clz	r6, r3
 80002be:	2e00      	cmp	r6, #0
 80002c0:	d14a      	bne.n	8000358 <__udivmoddi4+0x160>
 80002c2:	428b      	cmp	r3, r1
 80002c4:	d302      	bcc.n	80002cc <__udivmoddi4+0xd4>
 80002c6:	4282      	cmp	r2, r0
 80002c8:	f200 80f9 	bhi.w	80004be <__udivmoddi4+0x2c6>
 80002cc:	1a84      	subs	r4, r0, r2
 80002ce:	eb61 0303 	sbc.w	r3, r1, r3
 80002d2:	2001      	movs	r0, #1
 80002d4:	469e      	mov	lr, r3
 80002d6:	2d00      	cmp	r5, #0
 80002d8:	d0e0      	beq.n	800029c <__udivmoddi4+0xa4>
 80002da:	e9c5 4e00 	strd	r4, lr, [r5]
 80002de:	e7dd      	b.n	800029c <__udivmoddi4+0xa4>
 80002e0:	b902      	cbnz	r2, 80002e4 <__udivmoddi4+0xec>
 80002e2:	deff      	udf	#255	; 0xff
 80002e4:	fab2 f282 	clz	r2, r2
 80002e8:	2a00      	cmp	r2, #0
 80002ea:	f040 8092 	bne.w	8000412 <__udivmoddi4+0x21a>
 80002ee:	eba1 010c 	sub.w	r1, r1, ip
 80002f2:	ea4f 471c 	mov.w	r7, ip, lsr #16
 80002f6:	fa1f fe8c 	uxth.w	lr, ip
 80002fa:	2601      	movs	r6, #1
 80002fc:	0c20      	lsrs	r0, r4, #16
 80002fe:	fbb1 f3f7 	udiv	r3, r1, r7
 8000302:	fb07 1113 	mls	r1, r7, r3, r1
 8000306:	ea40 4101 	orr.w	r1, r0, r1, lsl #16
 800030a:	fb0e f003 	mul.w	r0, lr, r3
 800030e:	4288      	cmp	r0, r1
 8000310:	d908      	bls.n	8000324 <__udivmoddi4+0x12c>
 8000312:	eb1c 0101 	adds.w	r1, ip, r1
 8000316:	f103 38ff 	add.w	r8, r3, #4294967295
 800031a:	d202      	bcs.n	8000322 <__udivmoddi4+0x12a>
 800031c:	4288      	cmp	r0, r1
 800031e:	f200 80cb 	bhi.w	80004b8 <__udivmoddi4+0x2c0>
 8000322:	4643      	mov	r3, r8
 8000324:	1a09      	subs	r1, r1, r0
 8000326:	b2a4      	uxth	r4, r4
 8000328:	fbb1 f0f7 	udiv	r0, r1, r7
 800032c:	fb07 1110 	mls	r1, r7, r0, r1
 8000330:	ea44 4401 	orr.w	r4, r4, r1, lsl #16
 8000334:	fb0e fe00 	mul.w	lr, lr, r0
 8000338:	45a6      	cmp	lr, r4
 800033a:	d908      	bls.n	800034e <__udivmoddi4+0x156>
 800033c:	eb1c 0404 	adds.w	r4, ip, r4
 8000340:	f100 31ff 	add.w	r1, r0, #4294967295
 8000344:	d202      	bcs.n	800034c <__udivmoddi4+0x154>
 8000346:	45a6      	cmp	lr, r4
 8000348:	f200 80bb 	bhi.w	80004c2 <__udivmoddi4+0x2ca>
 800034c:	4608      	mov	r0, r1
 800034e:	eba4 040e 	sub.w	r4, r4, lr
 8000352:	ea40 4003 	orr.w	r0, r0, r3, lsl #16
 8000356:	e79c      	b.n	8000292 <__udivmoddi4+0x9a>
 8000358:	f1c6 0720 	rsb	r7, r6, #32
 800035c:	40b3      	lsls	r3, r6
 800035e:	fa22 fc07 	lsr.w	ip, r2, r7
 8000362:	ea4c 0c03 	orr.w	ip, ip, r3
 8000366:	fa20 f407 	lsr.w	r4, r0, r7
 800036a:	fa01 f306 	lsl.w	r3, r1, r6
 800036e:	431c      	orrs	r4, r3
 8000370:	40f9      	lsrs	r1, r7
 8000372:	ea4f 491c 	mov.w	r9, ip, lsr #16
 8000376:	fa00 f306 	lsl.w	r3, r0, r6
 800037a:	fbb1 f8f9 	udiv	r8, r1, r9
 800037e:	0c20      	lsrs	r0, r4, #16
 8000380:	fa1f fe8c 	uxth.w	lr, ip
 8000384:	fb09 1118 	mls	r1, r9, r8, r1
 8000388:	ea40 4101 	orr.w	r1, r0, r1, lsl #16
 800038c:	fb08 f00e 	mul.w	r0, r8, lr
 8000390:	4288      	cmp	r0, r1
 8000392:	fa02 f206 	lsl.w	r2, r2, r6
 8000396:	d90b      	bls.n	80003b0 <__udivmoddi4+0x1b8>
 8000398:	eb1c 0101 	adds.w	r1, ip, r1
 800039c:	f108 3aff 	add.w	sl, r8, #4294967295
 80003a0:	f080 8088 	bcs.w	80004b4 <__udivmoddi4+0x2bc>
 80003a4:	4288      	cmp	r0, r1
 80003a6:	f240 8085 	bls.w	80004b4 <__udivmoddi4+0x2bc>
 80003aa:	f1a8 0802 	sub.w	r8, r8, #2
 80003ae:	4461      	add	r1, ip
 80003b0:	1a09      	subs	r1, r1, r0
 80003b2:	b2a4      	uxth	r4, r4
 80003b4:	fbb1 f0f9 	udiv	r0, r1, r9
 80003b8:	fb09 1110 	mls	r1, r9, r0, r1
 80003bc:	ea44 4101 	orr.w	r1, r4, r1, lsl #16
 80003c0:	fb00 fe0e 	mul.w	lr, r0, lr
 80003c4:	458e      	cmp	lr, r1
 80003c6:	d908      	bls.n	80003da <__udivmoddi4+0x1e2>
 80003c8:	eb1c 0101 	adds.w	r1, ip, r1
 80003cc:	f100 34ff 	add.w	r4, r0, #4294967295
 80003d0:	d26c      	bcs.n	80004ac <__udivmoddi4+0x2b4>
 80003d2:	458e      	cmp	lr, r1
 80003d4:	d96a      	bls.n	80004ac <__udivmoddi4+0x2b4>
 80003d6:	3802      	subs	r0, #2
 80003d8:	4461      	add	r1, ip
 80003da:	ea40 4008 	orr.w	r0, r0, r8, lsl #16
 80003de:	fba0 9402 	umull	r9, r4, r0, r2
 80003e2:	eba1 010e 	sub.w	r1, r1, lr
 80003e6:	42a1      	cmp	r1, r4
 80003e8:	46c8      	mov	r8, r9
 80003ea:	46a6      	mov	lr, r4
 80003ec:	d356      	bcc.n	800049c <__udivmoddi4+0x2a4>
 80003ee:	d053      	beq.n	8000498 <__udivmoddi4+0x2a0>
 80003f0:	b15d      	cbz	r5, 800040a <__udivmoddi4+0x212>
 80003f2:	ebb3 0208 	subs.w	r2, r3, r8
 80003f6:	eb61 010e 	sbc.w	r1, r1, lr
 80003fa:	fa01 f707 	lsl.w	r7, r1, r7
 80003fe:	fa22 f306 	lsr.w	r3, r2, r6
 8000402:	40f1      	lsrs	r1, r6
 8000404:	431f      	orrs	r7, r3
 8000406:	e9c5 7100 	strd	r7, r1, [r5]
 800040a:	2600      	movs	r6, #0
 800040c:	4631      	mov	r1, r6
 800040e:	e8bd 87f0 	ldmia.w	sp!, {r4, r5, r6, r7, r8, r9, sl, pc}
 8000412:	f1c2 0320 	rsb	r3, r2, #32
 8000416:	40d8      	lsrs	r0, r3
 8000418:	fa0c fc02 	lsl.w	ip, ip, r2
 800041c:	fa21 f303 	lsr.w	r3, r1, r3
 8000420:	4091      	lsls	r1, r2
 8000422:	4301      	orrs	r1, r0
 8000424:	ea4f 471c 	mov.w	r7, ip, lsr #16
 8000428:	fa1f fe8c 	uxth.w	lr, ip
 800042c:	fbb3 f0f7 	udiv	r0, r3, r7
 8000430:	fb07 3610 	mls	r6, r7, r0, r3
 8000434:	0c0b      	lsrs	r3, r1, #16
 8000436:	ea43 4306 	orr.w	r3, r3, r6, lsl #16
 800043a:	fb00 f60e 	mul.w	r6, r0, lr
 800043e:	429e      	cmp	r6, r3
 8000440:	fa04 f402 	lsl.w	r4, r4, r2
 8000444:	d908      	bls.n	8000458 <__udivmoddi4+0x260>
 8000446:	eb1c 0303 	adds.w	r3, ip, r3
 800044a:	f100 38ff 	add.w	r8, r0, #4294967295
 800044e:	d22f      	bcs.n	80004b0 <__udivmoddi4+0x2b8>
 8000450:	429e      	cmp	r6, r3
 8000452:	d92d      	bls.n	80004b0 <__udivmoddi4+0x2b8>
 8000454:	3802      	subs	r0, #2
 8000456:	4463      	add	r3, ip
 8000458:	1b9b      	subs	r3, r3, r6
 800045a:	b289      	uxth	r1, r1
 800045c:	fbb3 f6f7 	udiv	r6, r3, r7
 8000460:	fb07 3316 	mls	r3, r7, r6, r3
 8000464:	ea41 4103 	orr.w	r1, r1, r3, lsl #16
 8000468:	fb06 f30e 	mul.w	r3, r6, lr
 800046c:	428b      	cmp	r3, r1
 800046e:	d908      	bls.n	8000482 <__udivmoddi4+0x28a>
 8000470:	eb1c 0101 	adds.w	r1, ip, r1
 8000474:	f106 38ff 	add.w	r8, r6, #4294967295
 8000478:	d216      	bcs.n	80004a8 <__udivmoddi4+0x2b0>
 800047a:	428b      	cmp	r3, r1
 800047c:	d914      	bls.n	80004a8 <__udivmoddi4+0x2b0>
 800047e:	3e02      	subs	r6, #2
 8000480:	4461      	add	r1, ip
 8000482:	1ac9      	subs	r1, r1, r3
 8000484:	ea46 4600 	orr.w	r6, r6, r0, lsl #16
 8000488:	e738      	b.n	80002fc <__udivmoddi4+0x104>
 800048a:	462e      	mov	r6, r5
 800048c:	4628      	mov	r0, r5
 800048e:	e705      	b.n	800029c <__udivmoddi4+0xa4>
 8000490:	4606      	mov	r6, r0
 8000492:	e6e3      	b.n	800025c <__udivmoddi4+0x64>
 8000494:	4618      	mov	r0, r3
 8000496:	e6f8      	b.n	800028a <__udivmoddi4+0x92>
 8000498:	454b      	cmp	r3, r9
 800049a:	d2a9      	bcs.n	80003f0 <__udivmoddi4+0x1f8>
 800049c:	ebb9 0802 	subs.w	r8, r9, r2
 80004a0:	eb64 0e0c 	sbc.w	lr, r4, ip
 80004a4:	3801      	subs	r0, #1
 80004a6:	e7a3      	b.n	80003f0 <__udivmoddi4+0x1f8>
 80004a8:	4646      	mov	r6, r8
 80004aa:	e7ea      	b.n	8000482 <__udivmoddi4+0x28a>
 80004ac:	4620      	mov	r0, r4
 80004ae:	e794      	b.n	80003da <__udivmoddi4+0x1e2>
 80004b0:	4640      	mov	r0, r8
 80004b2:	e7d1      	b.n	8000458 <__udivmoddi4+0x260>
 80004b4:	46d0      	mov	r8, sl
 80004b6:	e77b      	b.n	80003b0 <__udivmoddi4+0x1b8>
 80004b8:	3b02      	subs	r3, #2
 80004ba:	4461      	add	r1, ip
 80004bc:	e732      	b.n	8000324 <__udivmoddi4+0x12c>
 80004be:	4630      	mov	r0, r6
 80004c0:	e709      	b.n	80002d6 <__udivmoddi4+0xde>
 80004c2:	4464      	add	r4, ip
 80004c4:	3802      	subs	r0, #2
 80004c6:	e742      	b.n	800034e <__udivmoddi4+0x156>

080004c8 <__aeabi_idiv0>:
 80004c8:	4770      	bx	lr
 80004ca:	bf00      	nop

080004cc <main>:
/**
  * @brief  The application entry point.
  * @retval int
  */
int main(void)
{
 80004cc:	b580      	push	{r7, lr}
 80004ce:	af00      	add	r7, sp, #0
  /* USER CODE END 1 */

  /* MCU Configuration--------------------------------------------------------*/

  /* Reset of all peripherals, Initializes the Flash interface and the Systick. */
  HAL_Init();
 80004d0:	f000 fbee 	bl	8000cb0 <HAL_Init>
  /* USER CODE BEGIN Init */

  /* USER CODE END Init */

  /* Configure the system clock */
  SystemClock_Config();
 80004d4:	f000 f810 	bl	80004f8 <SystemClock_Config>
  /* USER CODE BEGIN SysInit */

  /* USER CODE END SysInit */

  /* Initialize all configured peripherals */
  MX_GPIO_Init();
 80004d8:	f000 f944 	bl	8000764 <MX_GPIO_Init>
  MX_SPI2_Init();
 80004dc:	f000 f88a 	bl	80005f4 <MX_SPI2_Init>
  MX_SPI3_Init();
 80004e0:	f000 f8be 	bl	8000660 <MX_SPI3_Init>
  MX_TIM3_Init();
 80004e4:	f000 f8f0 	bl	80006c8 <MX_TIM3_Init>

  /* Initialize interrupts */
  MX_NVIC_Init();
 80004e8:	f000 f870 	bl	80005cc <MX_NVIC_Init>
  /* USER CODE BEGIN 2 */
  //HAL_SPI
  HAL_TIM_Base_Start_IT(&htim3);
 80004ec:	4801      	ldr	r0, [pc, #4]	; (80004f4 <main+0x28>)
 80004ee:	f002 fb05 	bl	8002afc <HAL_TIM_Base_Start_IT>
  /* USER CODE END 2 */

  /* Infinite loop */
  /* USER CODE BEGIN WHILE */

   while (1)
 80004f2:	e7fe      	b.n	80004f2 <main+0x26>
 80004f4:	200000dc 	.word	0x200000dc

080004f8 <SystemClock_Config>:
/**
  * @brief System Clock Configuration
  * @retval None
  */
void SystemClock_Config(void)
{
 80004f8:	b580      	push	{r7, lr}
 80004fa:	b094      	sub	sp, #80	; 0x50
 80004fc:	af00      	add	r7, sp, #0
  RCC_OscInitTypeDef RCC_OscInitStruct = {0};
 80004fe:	f107 0320 	add.w	r3, r7, #32
 8000502:	2230      	movs	r2, #48	; 0x30
 8000504:	2100      	movs	r1, #0
 8000506:	4618      	mov	r0, r3
 8000508:	f002 ff4e 	bl	80033a8 <memset>
  RCC_ClkInitTypeDef RCC_ClkInitStruct = {0};
 800050c:	f107 030c 	add.w	r3, r7, #12
 8000510:	2200      	movs	r2, #0
 8000512:	601a      	str	r2, [r3, #0]
 8000514:	605a      	str	r2, [r3, #4]
 8000516:	609a      	str	r2, [r3, #8]
 8000518:	60da      	str	r2, [r3, #12]
 800051a:	611a      	str	r2, [r3, #16]

  /** Configure the main internal regulator output voltage
  */
  __HAL_RCC_PWR_CLK_ENABLE();
 800051c:	2300      	movs	r3, #0
 800051e:	60bb      	str	r3, [r7, #8]
 8000520:	4b28      	ldr	r3, [pc, #160]	; (80005c4 <SystemClock_Config+0xcc>)
 8000522:	6c1b      	ldr	r3, [r3, #64]	; 0x40
 8000524:	4a27      	ldr	r2, [pc, #156]	; (80005c4 <SystemClock_Config+0xcc>)
 8000526:	f043 5380 	orr.w	r3, r3, #268435456	; 0x10000000
 800052a:	6413      	str	r3, [r2, #64]	; 0x40
 800052c:	4b25      	ldr	r3, [pc, #148]	; (80005c4 <SystemClock_Config+0xcc>)
 800052e:	6c1b      	ldr	r3, [r3, #64]	; 0x40
 8000530:	f003 5380 	and.w	r3, r3, #268435456	; 0x10000000
 8000534:	60bb      	str	r3, [r7, #8]
 8000536:	68bb      	ldr	r3, [r7, #8]
  __HAL_PWR_VOLTAGESCALING_CONFIG(PWR_REGULATOR_VOLTAGE_SCALE1);
 8000538:	2300      	movs	r3, #0
 800053a:	607b      	str	r3, [r7, #4]
 800053c:	4b22      	ldr	r3, [pc, #136]	; (80005c8 <SystemClock_Config+0xd0>)
 800053e:	681b      	ldr	r3, [r3, #0]
 8000540:	4a21      	ldr	r2, [pc, #132]	; (80005c8 <SystemClock_Config+0xd0>)
 8000542:	f443 4380 	orr.w	r3, r3, #16384	; 0x4000
 8000546:	6013      	str	r3, [r2, #0]
 8000548:	4b1f      	ldr	r3, [pc, #124]	; (80005c8 <SystemClock_Config+0xd0>)
 800054a:	681b      	ldr	r3, [r3, #0]
 800054c:	f403 4380 	and.w	r3, r3, #16384	; 0x4000
 8000550:	607b      	str	r3, [r7, #4]
 8000552:	687b      	ldr	r3, [r7, #4]

  /** Initializes the RCC Oscillators according to the specified parameters
  * in the RCC_OscInitTypeDef structure.
  */
  RCC_OscInitStruct.OscillatorType = RCC_OSCILLATORTYPE_HSE;
 8000554:	2301      	movs	r3, #1
 8000556:	623b      	str	r3, [r7, #32]
  RCC_OscInitStruct.HSEState = RCC_HSE_ON;
 8000558:	f44f 3380 	mov.w	r3, #65536	; 0x10000
 800055c:	627b      	str	r3, [r7, #36]	; 0x24
  RCC_OscInitStruct.PLL.PLLState = RCC_PLL_ON;
 800055e:	2302      	movs	r3, #2
 8000560:	63bb      	str	r3, [r7, #56]	; 0x38
  RCC_OscInitStruct.PLL.PLLSource = RCC_PLLSOURCE_HSE;
 8000562:	f44f 0380 	mov.w	r3, #4194304	; 0x400000
 8000566:	63fb      	str	r3, [r7, #60]	; 0x3c
  RCC_OscInitStruct.PLL.PLLM = 4;
 8000568:	2304      	movs	r3, #4
 800056a:	643b      	str	r3, [r7, #64]	; 0x40
  RCC_OscInitStruct.PLL.PLLN = 64;
 800056c:	2340      	movs	r3, #64	; 0x40
 800056e:	647b      	str	r3, [r7, #68]	; 0x44
  RCC_OscInitStruct.PLL.PLLP = RCC_PLLP_DIV2;
 8000570:	2302      	movs	r3, #2
 8000572:	64bb      	str	r3, [r7, #72]	; 0x48
  RCC_OscInitStruct.PLL.PLLQ = 7;
 8000574:	2307      	movs	r3, #7
 8000576:	64fb      	str	r3, [r7, #76]	; 0x4c
  if (HAL_RCC_OscConfig(&RCC_OscInitStruct) != HAL_OK)
 8000578:	f107 0320 	add.w	r3, r7, #32
 800057c:	4618      	mov	r0, r3
 800057e:	f000 fef3 	bl	8001368 <HAL_RCC_OscConfig>
 8000582:	4603      	mov	r3, r0
 8000584:	2b00      	cmp	r3, #0
 8000586:	d001      	beq.n	800058c <SystemClock_Config+0x94>
  {
    Error_Handler();
 8000588:	f000 f964 	bl	8000854 <Error_Handler>
  }

  /** Initializes the CPU, AHB and APB buses clocks
  */
  RCC_ClkInitStruct.ClockType = RCC_CLOCKTYPE_HCLK|RCC_CLOCKTYPE_SYSCLK
 800058c:	230f      	movs	r3, #15
 800058e:	60fb      	str	r3, [r7, #12]
                              |RCC_CLOCKTYPE_PCLK1|RCC_CLOCKTYPE_PCLK2;
  RCC_ClkInitStruct.SYSCLKSource = RCC_SYSCLKSOURCE_PLLCLK;
 8000590:	2302      	movs	r3, #2
 8000592:	613b      	str	r3, [r7, #16]
  RCC_ClkInitStruct.AHBCLKDivider = RCC_SYSCLK_DIV1;
 8000594:	2300      	movs	r3, #0
 8000596:	617b      	str	r3, [r7, #20]
  RCC_ClkInitStruct.APB1CLKDivider = RCC_HCLK_DIV8;
 8000598:	f44f 53c0 	mov.w	r3, #6144	; 0x1800
 800059c:	61bb      	str	r3, [r7, #24]
  RCC_ClkInitStruct.APB2CLKDivider = RCC_HCLK_DIV2;
 800059e:	f44f 5380 	mov.w	r3, #4096	; 0x1000
 80005a2:	61fb      	str	r3, [r7, #28]

  if (HAL_RCC_ClockConfig(&RCC_ClkInitStruct, FLASH_LATENCY_2) != HAL_OK)
 80005a4:	f107 030c 	add.w	r3, r7, #12
 80005a8:	2102      	movs	r1, #2
 80005aa:	4618      	mov	r0, r3
 80005ac:	f001 f954 	bl	8001858 <HAL_RCC_ClockConfig>
 80005b0:	4603      	mov	r3, r0
 80005b2:	2b00      	cmp	r3, #0
 80005b4:	d001      	beq.n	80005ba <SystemClock_Config+0xc2>
  {
    Error_Handler();
 80005b6:	f000 f94d 	bl	8000854 <Error_Handler>
  }
}
 80005ba:	bf00      	nop
 80005bc:	3750      	adds	r7, #80	; 0x50
 80005be:	46bd      	mov	sp, r7
 80005c0:	bd80      	pop	{r7, pc}
 80005c2:	bf00      	nop
 80005c4:	40023800 	.word	0x40023800
 80005c8:	40007000 	.word	0x40007000

080005cc <MX_NVIC_Init>:
/**
  * @brief NVIC Configuration.
  * @retval None
  */
static void MX_NVIC_Init(void)
{
 80005cc:	b580      	push	{r7, lr}
 80005ce:	af00      	add	r7, sp, #0
  /* TIM3_IRQn interrupt configuration */
  HAL_NVIC_SetPriority(TIM3_IRQn, 0, 0);
 80005d0:	2200      	movs	r2, #0
 80005d2:	2100      	movs	r1, #0
 80005d4:	201d      	movs	r0, #29
 80005d6:	f000 fcb8 	bl	8000f4a <HAL_NVIC_SetPriority>
  HAL_NVIC_EnableIRQ(TIM3_IRQn);
 80005da:	201d      	movs	r0, #29
 80005dc:	f000 fcd1 	bl	8000f82 <HAL_NVIC_EnableIRQ>
  /* SPI3_IRQn interrupt configuration */
  HAL_NVIC_SetPriority(SPI3_IRQn, 0, 0);
 80005e0:	2200      	movs	r2, #0
 80005e2:	2100      	movs	r1, #0
 80005e4:	2033      	movs	r0, #51	; 0x33
 80005e6:	f000 fcb0 	bl	8000f4a <HAL_NVIC_SetPriority>
  HAL_NVIC_EnableIRQ(SPI3_IRQn);
 80005ea:	2033      	movs	r0, #51	; 0x33
 80005ec:	f000 fcc9 	bl	8000f82 <HAL_NVIC_EnableIRQ>
}
 80005f0:	bf00      	nop
 80005f2:	bd80      	pop	{r7, pc}

080005f4 <MX_SPI2_Init>:
  * @brief SPI2 Initialization Function
  * @param None
  * @retval None
  */
static void MX_SPI2_Init(void)
{
 80005f4:	b580      	push	{r7, lr}
 80005f6:	af00      	add	r7, sp, #0

  /* USER CODE BEGIN SPI2_Init 1 */

  /* USER CODE END SPI2_Init 1 */
  /* SPI2 parameter configuration*/
  hspi2.Instance = SPI2;
 80005f8:	4b17      	ldr	r3, [pc, #92]	; (8000658 <MX_SPI2_Init+0x64>)
 80005fa:	4a18      	ldr	r2, [pc, #96]	; (800065c <MX_SPI2_Init+0x68>)
 80005fc:	601a      	str	r2, [r3, #0]
  hspi2.Init.Mode = SPI_MODE_MASTER;
 80005fe:	4b16      	ldr	r3, [pc, #88]	; (8000658 <MX_SPI2_Init+0x64>)
 8000600:	f44f 7282 	mov.w	r2, #260	; 0x104
 8000604:	605a      	str	r2, [r3, #4]
  hspi2.Init.Direction = SPI_DIRECTION_2LINES;
 8000606:	4b14      	ldr	r3, [pc, #80]	; (8000658 <MX_SPI2_Init+0x64>)
 8000608:	2200      	movs	r2, #0
 800060a:	609a      	str	r2, [r3, #8]
  hspi2.Init.DataSize = SPI_DATASIZE_8BIT;
 800060c:	4b12      	ldr	r3, [pc, #72]	; (8000658 <MX_SPI2_Init+0x64>)
 800060e:	2200      	movs	r2, #0
 8000610:	60da      	str	r2, [r3, #12]
  hspi2.Init.CLKPolarity = SPI_POLARITY_LOW;
 8000612:	4b11      	ldr	r3, [pc, #68]	; (8000658 <MX_SPI2_Init+0x64>)
 8000614:	2200      	movs	r2, #0
 8000616:	611a      	str	r2, [r3, #16]
  hspi2.Init.CLKPhase = SPI_PHASE_1EDGE;
 8000618:	4b0f      	ldr	r3, [pc, #60]	; (8000658 <MX_SPI2_Init+0x64>)
 800061a:	2200      	movs	r2, #0
 800061c:	615a      	str	r2, [r3, #20]
  hspi2.Init.NSS = SPI_NSS_SOFT;
 800061e:	4b0e      	ldr	r3, [pc, #56]	; (8000658 <MX_SPI2_Init+0x64>)
 8000620:	f44f 7200 	mov.w	r2, #512	; 0x200
 8000624:	619a      	str	r2, [r3, #24]
  hspi2.Init.BaudRatePrescaler = SPI_BAUDRATEPRESCALER_8;
 8000626:	4b0c      	ldr	r3, [pc, #48]	; (8000658 <MX_SPI2_Init+0x64>)
 8000628:	2210      	movs	r2, #16
 800062a:	61da      	str	r2, [r3, #28]
  hspi2.Init.FirstBit = SPI_FIRSTBIT_MSB;
 800062c:	4b0a      	ldr	r3, [pc, #40]	; (8000658 <MX_SPI2_Init+0x64>)
 800062e:	2200      	movs	r2, #0
 8000630:	621a      	str	r2, [r3, #32]
  hspi2.Init.TIMode = SPI_TIMODE_DISABLE;
 8000632:	4b09      	ldr	r3, [pc, #36]	; (8000658 <MX_SPI2_Init+0x64>)
 8000634:	2200      	movs	r2, #0
 8000636:	625a      	str	r2, [r3, #36]	; 0x24
  hspi2.Init.CRCCalculation = SPI_CRCCALCULATION_DISABLE;
 8000638:	4b07      	ldr	r3, [pc, #28]	; (8000658 <MX_SPI2_Init+0x64>)
 800063a:	2200      	movs	r2, #0
 800063c:	629a      	str	r2, [r3, #40]	; 0x28
  hspi2.Init.CRCPolynomial = 10;
 800063e:	4b06      	ldr	r3, [pc, #24]	; (8000658 <MX_SPI2_Init+0x64>)
 8000640:	220a      	movs	r2, #10
 8000642:	62da      	str	r2, [r3, #44]	; 0x2c
  if (HAL_SPI_Init(&hspi2) != HAL_OK)
 8000644:	4804      	ldr	r0, [pc, #16]	; (8000658 <MX_SPI2_Init+0x64>)
 8000646:	f001 faf3 	bl	8001c30 <HAL_SPI_Init>
 800064a:	4603      	mov	r3, r0
 800064c:	2b00      	cmp	r3, #0
 800064e:	d001      	beq.n	8000654 <MX_SPI2_Init+0x60>
  {
    Error_Handler();
 8000650:	f000 f900 	bl	8000854 <Error_Handler>
  }
  /* USER CODE BEGIN SPI2_Init 2 */

  /* USER CODE END SPI2_Init 2 */

}
 8000654:	bf00      	nop
 8000656:	bd80      	pop	{r7, pc}
 8000658:	2000002c 	.word	0x2000002c
 800065c:	40003800 	.word	0x40003800

08000660 <MX_SPI3_Init>:
  * @brief SPI3 Initialization Function
  * @param None
  * @retval None
  */
static void MX_SPI3_Init(void)
{
 8000660:	b580      	push	{r7, lr}
 8000662:	af00      	add	r7, sp, #0

  /* USER CODE BEGIN SPI3_Init 1 */

  /* USER CODE END SPI3_Init 1 */
  /* SPI3 parameter configuration*/
  hspi3.Instance = SPI3;
 8000664:	4b16      	ldr	r3, [pc, #88]	; (80006c0 <MX_SPI3_Init+0x60>)
 8000666:	4a17      	ldr	r2, [pc, #92]	; (80006c4 <MX_SPI3_Init+0x64>)
 8000668:	601a      	str	r2, [r3, #0]
  hspi3.Init.Mode = SPI_MODE_SLAVE;
 800066a:	4b15      	ldr	r3, [pc, #84]	; (80006c0 <MX_SPI3_Init+0x60>)
 800066c:	2200      	movs	r2, #0
 800066e:	605a      	str	r2, [r3, #4]
  hspi3.Init.Direction = SPI_DIRECTION_2LINES_RXONLY;
 8000670:	4b13      	ldr	r3, [pc, #76]	; (80006c0 <MX_SPI3_Init+0x60>)
 8000672:	f44f 6280 	mov.w	r2, #1024	; 0x400
 8000676:	609a      	str	r2, [r3, #8]
  hspi3.Init.DataSize = SPI_DATASIZE_8BIT;
 8000678:	4b11      	ldr	r3, [pc, #68]	; (80006c0 <MX_SPI3_Init+0x60>)
 800067a:	2200      	movs	r2, #0
 800067c:	60da      	str	r2, [r3, #12]
  hspi3.Init.CLKPolarity = SPI_POLARITY_LOW;
 800067e:	4b10      	ldr	r3, [pc, #64]	; (80006c0 <MX_SPI3_Init+0x60>)
 8000680:	2200      	movs	r2, #0
 8000682:	611a      	str	r2, [r3, #16]
  hspi3.Init.CLKPhase = SPI_PHASE_1EDGE;
 8000684:	4b0e      	ldr	r3, [pc, #56]	; (80006c0 <MX_SPI3_Init+0x60>)
 8000686:	2200      	movs	r2, #0
 8000688:	615a      	str	r2, [r3, #20]
  hspi3.Init.NSS = SPI_NSS_SOFT;
 800068a:	4b0d      	ldr	r3, [pc, #52]	; (80006c0 <MX_SPI3_Init+0x60>)
 800068c:	f44f 7200 	mov.w	r2, #512	; 0x200
 8000690:	619a      	str	r2, [r3, #24]
  hspi3.Init.FirstBit = SPI_FIRSTBIT_MSB;
 8000692:	4b0b      	ldr	r3, [pc, #44]	; (80006c0 <MX_SPI3_Init+0x60>)
 8000694:	2200      	movs	r2, #0
 8000696:	621a      	str	r2, [r3, #32]
  hspi3.Init.TIMode = SPI_TIMODE_DISABLE;
 8000698:	4b09      	ldr	r3, [pc, #36]	; (80006c0 <MX_SPI3_Init+0x60>)
 800069a:	2200      	movs	r2, #0
 800069c:	625a      	str	r2, [r3, #36]	; 0x24
  hspi3.Init.CRCCalculation = SPI_CRCCALCULATION_DISABLE;
 800069e:	4b08      	ldr	r3, [pc, #32]	; (80006c0 <MX_SPI3_Init+0x60>)
 80006a0:	2200      	movs	r2, #0
 80006a2:	629a      	str	r2, [r3, #40]	; 0x28
  hspi3.Init.CRCPolynomial = 10;
 80006a4:	4b06      	ldr	r3, [pc, #24]	; (80006c0 <MX_SPI3_Init+0x60>)
 80006a6:	220a      	movs	r2, #10
 80006a8:	62da      	str	r2, [r3, #44]	; 0x2c
  if (HAL_SPI_Init(&hspi3) != HAL_OK)
 80006aa:	4805      	ldr	r0, [pc, #20]	; (80006c0 <MX_SPI3_Init+0x60>)
 80006ac:	f001 fac0 	bl	8001c30 <HAL_SPI_Init>
 80006b0:	4603      	mov	r3, r0
 80006b2:	2b00      	cmp	r3, #0
 80006b4:	d001      	beq.n	80006ba <MX_SPI3_Init+0x5a>
  {
    Error_Handler();
 80006b6:	f000 f8cd 	bl	8000854 <Error_Handler>
  }
  /* USER CODE BEGIN SPI3_Init 2 */

  /* USER CODE END SPI3_Init 2 */

}
 80006ba:	bf00      	nop
 80006bc:	bd80      	pop	{r7, pc}
 80006be:	bf00      	nop
 80006c0:	20000084 	.word	0x20000084
 80006c4:	40003c00 	.word	0x40003c00

080006c8 <MX_TIM3_Init>:
  * @brief TIM3 Initialization Function
  * @param None
  * @retval None
  */
static void MX_TIM3_Init(void)
{
 80006c8:	b580      	push	{r7, lr}
 80006ca:	b086      	sub	sp, #24
 80006cc:	af00      	add	r7, sp, #0

  /* USER CODE BEGIN TIM3_Init 0 */

  /* USER CODE END TIM3_Init 0 */

  TIM_ClockConfigTypeDef sClockSourceConfig = {0};
 80006ce:	f107 0308 	add.w	r3, r7, #8
 80006d2:	2200      	movs	r2, #0
 80006d4:	601a      	str	r2, [r3, #0]
 80006d6:	605a      	str	r2, [r3, #4]
 80006d8:	609a      	str	r2, [r3, #8]
 80006da:	60da      	str	r2, [r3, #12]
  TIM_MasterConfigTypeDef sMasterConfig = {0};
 80006dc:	463b      	mov	r3, r7
 80006de:	2200      	movs	r2, #0
 80006e0:	601a      	str	r2, [r3, #0]
 80006e2:	605a      	str	r2, [r3, #4]

  /* USER CODE BEGIN TIM3_Init 1 */

  /* USER CODE END TIM3_Init 1 */
  htim3.Instance = TIM3;
 80006e4:	4b1d      	ldr	r3, [pc, #116]	; (800075c <MX_TIM3_Init+0x94>)
 80006e6:	4a1e      	ldr	r2, [pc, #120]	; (8000760 <MX_TIM3_Init+0x98>)
 80006e8:	601a      	str	r2, [r3, #0]
  htim3.Init.Prescaler = 16000-1;
 80006ea:	4b1c      	ldr	r3, [pc, #112]	; (800075c <MX_TIM3_Init+0x94>)
 80006ec:	f643 627f 	movw	r2, #15999	; 0x3e7f
 80006f0:	605a      	str	r2, [r3, #4]
  htim3.Init.CounterMode = TIM_COUNTERMODE_UP;
 80006f2:	4b1a      	ldr	r3, [pc, #104]	; (800075c <MX_TIM3_Init+0x94>)
 80006f4:	2200      	movs	r2, #0
 80006f6:	609a      	str	r2, [r3, #8]
  htim3.Init.Period = 1000;
 80006f8:	4b18      	ldr	r3, [pc, #96]	; (800075c <MX_TIM3_Init+0x94>)
 80006fa:	f44f 727a 	mov.w	r2, #1000	; 0x3e8
 80006fe:	60da      	str	r2, [r3, #12]
  htim3.Init.ClockDivision = TIM_CLOCKDIVISION_DIV1;
 8000700:	4b16      	ldr	r3, [pc, #88]	; (800075c <MX_TIM3_Init+0x94>)
 8000702:	2200      	movs	r2, #0
 8000704:	611a      	str	r2, [r3, #16]
  htim3.Init.AutoReloadPreload = TIM_AUTORELOAD_PRELOAD_DISABLE;
 8000706:	4b15      	ldr	r3, [pc, #84]	; (800075c <MX_TIM3_Init+0x94>)
 8000708:	2200      	movs	r2, #0
 800070a:	619a      	str	r2, [r3, #24]
  if (HAL_TIM_Base_Init(&htim3) != HAL_OK)
 800070c:	4813      	ldr	r0, [pc, #76]	; (800075c <MX_TIM3_Init+0x94>)
 800070e:	f002 f9a5 	bl	8002a5c <HAL_TIM_Base_Init>
 8000712:	4603      	mov	r3, r0
 8000714:	2b00      	cmp	r3, #0
 8000716:	d001      	beq.n	800071c <MX_TIM3_Init+0x54>
  {
    Error_Handler();
 8000718:	f000 f89c 	bl	8000854 <Error_Handler>
  }
  sClockSourceConfig.ClockSource = TIM_CLOCKSOURCE_INTERNAL;
 800071c:	f44f 5380 	mov.w	r3, #4096	; 0x1000
 8000720:	60bb      	str	r3, [r7, #8]
  if (HAL_TIM_ConfigClockSource(&htim3, &sClockSourceConfig) != HAL_OK)
 8000722:	f107 0308 	add.w	r3, r7, #8
 8000726:	4619      	mov	r1, r3
 8000728:	480c      	ldr	r0, [pc, #48]	; (800075c <MX_TIM3_Init+0x94>)
 800072a:	f002 fb5f 	bl	8002dec <HAL_TIM_ConfigClockSource>
 800072e:	4603      	mov	r3, r0
 8000730:	2b00      	cmp	r3, #0
 8000732:	d001      	beq.n	8000738 <MX_TIM3_Init+0x70>
  {
    Error_Handler();
 8000734:	f000 f88e 	bl	8000854 <Error_Handler>
  }
  sMasterConfig.MasterOutputTrigger = TIM_TRGO_RESET;
 8000738:	2300      	movs	r3, #0
 800073a:	603b      	str	r3, [r7, #0]
  sMasterConfig.MasterSlaveMode = TIM_MASTERSLAVEMODE_DISABLE;
 800073c:	2300      	movs	r3, #0
 800073e:	607b      	str	r3, [r7, #4]
  if (HAL_TIMEx_MasterConfigSynchronization(&htim3, &sMasterConfig) != HAL_OK)
 8000740:	463b      	mov	r3, r7
 8000742:	4619      	mov	r1, r3
 8000744:	4805      	ldr	r0, [pc, #20]	; (800075c <MX_TIM3_Init+0x94>)
 8000746:	f002 fd7b 	bl	8003240 <HAL_TIMEx_MasterConfigSynchronization>
 800074a:	4603      	mov	r3, r0
 800074c:	2b00      	cmp	r3, #0
 800074e:	d001      	beq.n	8000754 <MX_TIM3_Init+0x8c>
  {
    Error_Handler();
 8000750:	f000 f880 	bl	8000854 <Error_Handler>
  }
  /* USER CODE BEGIN TIM3_Init 2 */

  /* USER CODE END TIM3_Init 2 */

}
 8000754:	bf00      	nop
 8000756:	3718      	adds	r7, #24
 8000758:	46bd      	mov	sp, r7
 800075a:	bd80      	pop	{r7, pc}
 800075c:	200000dc 	.word	0x200000dc
 8000760:	40000400 	.word	0x40000400

08000764 <MX_GPIO_Init>:
  * @brief GPIO Initialization Function
  * @param None
  * @retval None
  */
static void MX_GPIO_Init(void)
{
 8000764:	b580      	push	{r7, lr}
 8000766:	b08a      	sub	sp, #40	; 0x28
 8000768:	af00      	add	r7, sp, #0
  GPIO_InitTypeDef GPIO_InitStruct = {0};
 800076a:	f107 0314 	add.w	r3, r7, #20
 800076e:	2200      	movs	r2, #0
 8000770:	601a      	str	r2, [r3, #0]
 8000772:	605a      	str	r2, [r3, #4]
 8000774:	609a      	str	r2, [r3, #8]
 8000776:	60da      	str	r2, [r3, #12]
 8000778:	611a      	str	r2, [r3, #16]
/* USER CODE BEGIN MX_GPIO_Init_1 */
/* USER CODE END MX_GPIO_Init_1 */

  /* GPIO Ports Clock Enable */
  __HAL_RCC_GPIOH_CLK_ENABLE();
 800077a:	2300      	movs	r3, #0
 800077c:	613b      	str	r3, [r7, #16]
 800077e:	4b2e      	ldr	r3, [pc, #184]	; (8000838 <MX_GPIO_Init+0xd4>)
 8000780:	6b1b      	ldr	r3, [r3, #48]	; 0x30
 8000782:	4a2d      	ldr	r2, [pc, #180]	; (8000838 <MX_GPIO_Init+0xd4>)
 8000784:	f043 0380 	orr.w	r3, r3, #128	; 0x80
 8000788:	6313      	str	r3, [r2, #48]	; 0x30
 800078a:	4b2b      	ldr	r3, [pc, #172]	; (8000838 <MX_GPIO_Init+0xd4>)
 800078c:	6b1b      	ldr	r3, [r3, #48]	; 0x30
 800078e:	f003 0380 	and.w	r3, r3, #128	; 0x80
 8000792:	613b      	str	r3, [r7, #16]
 8000794:	693b      	ldr	r3, [r7, #16]
  __HAL_RCC_GPIOC_CLK_ENABLE();
 8000796:	2300      	movs	r3, #0
 8000798:	60fb      	str	r3, [r7, #12]
 800079a:	4b27      	ldr	r3, [pc, #156]	; (8000838 <MX_GPIO_Init+0xd4>)
 800079c:	6b1b      	ldr	r3, [r3, #48]	; 0x30
 800079e:	4a26      	ldr	r2, [pc, #152]	; (8000838 <MX_GPIO_Init+0xd4>)
 80007a0:	f043 0304 	orr.w	r3, r3, #4
 80007a4:	6313      	str	r3, [r2, #48]	; 0x30
 80007a6:	4b24      	ldr	r3, [pc, #144]	; (8000838 <MX_GPIO_Init+0xd4>)
 80007a8:	6b1b      	ldr	r3, [r3, #48]	; 0x30
 80007aa:	f003 0304 	and.w	r3, r3, #4
 80007ae:	60fb      	str	r3, [r7, #12]
 80007b0:	68fb      	ldr	r3, [r7, #12]
  __HAL_RCC_GPIOB_CLK_ENABLE();
 80007b2:	2300      	movs	r3, #0
 80007b4:	60bb      	str	r3, [r7, #8]
 80007b6:	4b20      	ldr	r3, [pc, #128]	; (8000838 <MX_GPIO_Init+0xd4>)
 80007b8:	6b1b      	ldr	r3, [r3, #48]	; 0x30
 80007ba:	4a1f      	ldr	r2, [pc, #124]	; (8000838 <MX_GPIO_Init+0xd4>)
 80007bc:	f043 0302 	orr.w	r3, r3, #2
 80007c0:	6313      	str	r3, [r2, #48]	; 0x30
 80007c2:	4b1d      	ldr	r3, [pc, #116]	; (8000838 <MX_GPIO_Init+0xd4>)
 80007c4:	6b1b      	ldr	r3, [r3, #48]	; 0x30
 80007c6:	f003 0302 	and.w	r3, r3, #2
 80007ca:	60bb      	str	r3, [r7, #8]
 80007cc:	68bb      	ldr	r3, [r7, #8]
  __HAL_RCC_GPIOD_CLK_ENABLE();
 80007ce:	2300      	movs	r3, #0
 80007d0:	607b      	str	r3, [r7, #4]
 80007d2:	4b19      	ldr	r3, [pc, #100]	; (8000838 <MX_GPIO_Init+0xd4>)
 80007d4:	6b1b      	ldr	r3, [r3, #48]	; 0x30
 80007d6:	4a18      	ldr	r2, [pc, #96]	; (8000838 <MX_GPIO_Init+0xd4>)
 80007d8:	f043 0308 	orr.w	r3, r3, #8
 80007dc:	6313      	str	r3, [r2, #48]	; 0x30
 80007de:	4b16      	ldr	r3, [pc, #88]	; (8000838 <MX_GPIO_Init+0xd4>)
 80007e0:	6b1b      	ldr	r3, [r3, #48]	; 0x30
 80007e2:	f003 0308 	and.w	r3, r3, #8
 80007e6:	607b      	str	r3, [r7, #4]
 80007e8:	687b      	ldr	r3, [r7, #4]
  __HAL_RCC_GPIOA_CLK_ENABLE();
 80007ea:	2300      	movs	r3, #0
 80007ec:	603b      	str	r3, [r7, #0]
 80007ee:	4b12      	ldr	r3, [pc, #72]	; (8000838 <MX_GPIO_Init+0xd4>)
 80007f0:	6b1b      	ldr	r3, [r3, #48]	; 0x30
 80007f2:	4a11      	ldr	r2, [pc, #68]	; (8000838 <MX_GPIO_Init+0xd4>)
 80007f4:	f043 0301 	orr.w	r3, r3, #1
 80007f8:	6313      	str	r3, [r2, #48]	; 0x30
 80007fa:	4b0f      	ldr	r3, [pc, #60]	; (8000838 <MX_GPIO_Init+0xd4>)
 80007fc:	6b1b      	ldr	r3, [r3, #48]	; 0x30
 80007fe:	f003 0301 	and.w	r3, r3, #1
 8000802:	603b      	str	r3, [r7, #0]
 8000804:	683b      	ldr	r3, [r7, #0]

  /*Configure GPIO pin Output Level */
  HAL_GPIO_WritePin(GPIOD, GPIO_PIN_12|GPIO_PIN_13|GPIO_PIN_14|GPIO_PIN_15, GPIO_PIN_RESET);
 8000806:	2200      	movs	r2, #0
 8000808:	f44f 4170 	mov.w	r1, #61440	; 0xf000
 800080c:	480b      	ldr	r0, [pc, #44]	; (800083c <MX_GPIO_Init+0xd8>)
 800080e:	f000 fd91 	bl	8001334 <HAL_GPIO_WritePin>

  /*Configure GPIO pins : PD12 PD13 PD14 PD15 */
  GPIO_InitStruct.Pin = GPIO_PIN_12|GPIO_PIN_13|GPIO_PIN_14|GPIO_PIN_15;
 8000812:	f44f 4370 	mov.w	r3, #61440	; 0xf000
 8000816:	617b      	str	r3, [r7, #20]
  GPIO_InitStruct.Mode = GPIO_MODE_OUTPUT_PP;
 8000818:	2301      	movs	r3, #1
 800081a:	61bb      	str	r3, [r7, #24]
  GPIO_InitStruct.Pull = GPIO_NOPULL;
 800081c:	2300      	movs	r3, #0
 800081e:	61fb      	str	r3, [r7, #28]
  GPIO_InitStruct.Speed = GPIO_SPEED_FREQ_LOW;
 8000820:	2300      	movs	r3, #0
 8000822:	623b      	str	r3, [r7, #32]
  HAL_GPIO_Init(GPIOD, &GPIO_InitStruct);
 8000824:	f107 0314 	add.w	r3, r7, #20
 8000828:	4619      	mov	r1, r3
 800082a:	4804      	ldr	r0, [pc, #16]	; (800083c <MX_GPIO_Init+0xd8>)
 800082c:	f000 fbe6 	bl	8000ffc <HAL_GPIO_Init>

/* USER CODE BEGIN MX_GPIO_Init_2 */
/* USER CODE END MX_GPIO_Init_2 */
}
 8000830:	bf00      	nop
 8000832:	3728      	adds	r7, #40	; 0x28
 8000834:	46bd      	mov	sp, r7
 8000836:	bd80      	pop	{r7, pc}
 8000838:	40023800 	.word	0x40023800
 800083c:	40020c00 	.word	0x40020c00

08000840 <HAL_TIM_PeriodElapsedCallback>:

/* USER CODE BEGIN 4 */
/////////////////////////////////////
void HAL_TIM_PeriodElapsedCallback(TIM_HandleTypeDef *htim)
{
 8000840:	b480      	push	{r7}
 8000842:	b083      	sub	sp, #12
 8000844:	af00      	add	r7, sp, #0
 8000846:	6078      	str	r0, [r7, #4]
  }
  /* USER CODE BEGIN Callback 1 */
  //temp = temp + 1;

  /* USER CODE END Callback 1 */
}
 8000848:	bf00      	nop
 800084a:	370c      	adds	r7, #12
 800084c:	46bd      	mov	sp, r7
 800084e:	f85d 7b04 	ldr.w	r7, [sp], #4
 8000852:	4770      	bx	lr

08000854 <Error_Handler>:
/**
  * @brief  This function is executed in case of error occurrence.
  * @retval None
  */
void Error_Handler(void)
{
 8000854:	b480      	push	{r7}
 8000856:	af00      	add	r7, sp, #0
  \details Disables IRQ interrupts by setting the I-bit in the CPSR.
           Can only be executed in Privileged modes.
 */
__STATIC_FORCEINLINE void __disable_irq(void)
{
  __ASM volatile ("cpsid i" : : : "memory");
 8000858:	b672      	cpsid	i
}
 800085a:	bf00      	nop
  /* USER CODE BEGIN Error_Handler_Debug */
  /* User can add his own implementation to report the HAL error return state */
  __disable_irq();
  while (1)
 800085c:	e7fe      	b.n	800085c <Error_Handler+0x8>
	...

08000860 <HAL_MspInit>:
/* USER CODE END 0 */
/**
  * Initializes the Global MSP.
  */
void HAL_MspInit(void)
{
 8000860:	b580      	push	{r7, lr}
 8000862:	b082      	sub	sp, #8
 8000864:	af00      	add	r7, sp, #0
  /* USER CODE BEGIN MspInit 0 */

  /* USER CODE END MspInit 0 */

  __HAL_RCC_SYSCFG_CLK_ENABLE();
 8000866:	2300      	movs	r3, #0
 8000868:	607b      	str	r3, [r7, #4]
 800086a:	4b10      	ldr	r3, [pc, #64]	; (80008ac <HAL_MspInit+0x4c>)
 800086c:	6c5b      	ldr	r3, [r3, #68]	; 0x44
 800086e:	4a0f      	ldr	r2, [pc, #60]	; (80008ac <HAL_MspInit+0x4c>)
 8000870:	f443 4380 	orr.w	r3, r3, #16384	; 0x4000
 8000874:	6453      	str	r3, [r2, #68]	; 0x44
 8000876:	4b0d      	ldr	r3, [pc, #52]	; (80008ac <HAL_MspInit+0x4c>)
 8000878:	6c5b      	ldr	r3, [r3, #68]	; 0x44
 800087a:	f403 4380 	and.w	r3, r3, #16384	; 0x4000
 800087e:	607b      	str	r3, [r7, #4]
 8000880:	687b      	ldr	r3, [r7, #4]
  __HAL_RCC_PWR_CLK_ENABLE();
 8000882:	2300      	movs	r3, #0
 8000884:	603b      	str	r3, [r7, #0]
 8000886:	4b09      	ldr	r3, [pc, #36]	; (80008ac <HAL_MspInit+0x4c>)
 8000888:	6c1b      	ldr	r3, [r3, #64]	; 0x40
 800088a:	4a08      	ldr	r2, [pc, #32]	; (80008ac <HAL_MspInit+0x4c>)
 800088c:	f043 5380 	orr.w	r3, r3, #268435456	; 0x10000000
 8000890:	6413      	str	r3, [r2, #64]	; 0x40
 8000892:	4b06      	ldr	r3, [pc, #24]	; (80008ac <HAL_MspInit+0x4c>)
 8000894:	6c1b      	ldr	r3, [r3, #64]	; 0x40
 8000896:	f003 5380 	and.w	r3, r3, #268435456	; 0x10000000
 800089a:	603b      	str	r3, [r7, #0]
 800089c:	683b      	ldr	r3, [r7, #0]

  HAL_NVIC_SetPriorityGrouping(NVIC_PRIORITYGROUP_0);
 800089e:	2007      	movs	r0, #7
 80008a0:	f000 fb48 	bl	8000f34 <HAL_NVIC_SetPriorityGrouping>
  /* System interrupt init*/

  /* USER CODE BEGIN MspInit 1 */

  /* USER CODE END MspInit 1 */
}
 80008a4:	bf00      	nop
 80008a6:	3708      	adds	r7, #8
 80008a8:	46bd      	mov	sp, r7
 80008aa:	bd80      	pop	{r7, pc}
 80008ac:	40023800 	.word	0x40023800

080008b0 <HAL_SPI_MspInit>:
* This function configures the hardware resources used in this example
* @param hspi: SPI handle pointer
* @retval None
*/
void HAL_SPI_MspInit(SPI_HandleTypeDef* hspi)
{
 80008b0:	b580      	push	{r7, lr}
 80008b2:	b08c      	sub	sp, #48	; 0x30
 80008b4:	af00      	add	r7, sp, #0
 80008b6:	6078      	str	r0, [r7, #4]
  GPIO_InitTypeDef GPIO_InitStruct = {0};
 80008b8:	f107 031c 	add.w	r3, r7, #28
 80008bc:	2200      	movs	r2, #0
 80008be:	601a      	str	r2, [r3, #0]
 80008c0:	605a      	str	r2, [r3, #4]
 80008c2:	609a      	str	r2, [r3, #8]
 80008c4:	60da      	str	r2, [r3, #12]
 80008c6:	611a      	str	r2, [r3, #16]
  if(hspi->Instance==SPI2)
 80008c8:	687b      	ldr	r3, [r7, #4]
 80008ca:	681b      	ldr	r3, [r3, #0]
 80008cc:	4a46      	ldr	r2, [pc, #280]	; (80009e8 <HAL_SPI_MspInit+0x138>)
 80008ce:	4293      	cmp	r3, r2
 80008d0:	d153      	bne.n	800097a <HAL_SPI_MspInit+0xca>
  {
  /* USER CODE BEGIN SPI2_MspInit 0 */

  /* USER CODE END SPI2_MspInit 0 */
    /* Peripheral clock enable */
    __HAL_RCC_SPI2_CLK_ENABLE();
 80008d2:	2300      	movs	r3, #0
 80008d4:	61bb      	str	r3, [r7, #24]
 80008d6:	4b45      	ldr	r3, [pc, #276]	; (80009ec <HAL_SPI_MspInit+0x13c>)
 80008d8:	6c1b      	ldr	r3, [r3, #64]	; 0x40
 80008da:	4a44      	ldr	r2, [pc, #272]	; (80009ec <HAL_SPI_MspInit+0x13c>)
 80008dc:	f443 4380 	orr.w	r3, r3, #16384	; 0x4000
 80008e0:	6413      	str	r3, [r2, #64]	; 0x40
 80008e2:	4b42      	ldr	r3, [pc, #264]	; (80009ec <HAL_SPI_MspInit+0x13c>)
 80008e4:	6c1b      	ldr	r3, [r3, #64]	; 0x40
 80008e6:	f403 4380 	and.w	r3, r3, #16384	; 0x4000
 80008ea:	61bb      	str	r3, [r7, #24]
 80008ec:	69bb      	ldr	r3, [r7, #24]

    __HAL_RCC_GPIOC_CLK_ENABLE();
 80008ee:	2300      	movs	r3, #0
 80008f0:	617b      	str	r3, [r7, #20]
 80008f2:	4b3e      	ldr	r3, [pc, #248]	; (80009ec <HAL_SPI_MspInit+0x13c>)
 80008f4:	6b1b      	ldr	r3, [r3, #48]	; 0x30
 80008f6:	4a3d      	ldr	r2, [pc, #244]	; (80009ec <HAL_SPI_MspInit+0x13c>)
 80008f8:	f043 0304 	orr.w	r3, r3, #4
 80008fc:	6313      	str	r3, [r2, #48]	; 0x30
 80008fe:	4b3b      	ldr	r3, [pc, #236]	; (80009ec <HAL_SPI_MspInit+0x13c>)
 8000900:	6b1b      	ldr	r3, [r3, #48]	; 0x30
 8000902:	f003 0304 	and.w	r3, r3, #4
 8000906:	617b      	str	r3, [r7, #20]
 8000908:	697b      	ldr	r3, [r7, #20]
    __HAL_RCC_GPIOB_CLK_ENABLE();
 800090a:	2300      	movs	r3, #0
 800090c:	613b      	str	r3, [r7, #16]
 800090e:	4b37      	ldr	r3, [pc, #220]	; (80009ec <HAL_SPI_MspInit+0x13c>)
 8000910:	6b1b      	ldr	r3, [r3, #48]	; 0x30
 8000912:	4a36      	ldr	r2, [pc, #216]	; (80009ec <HAL_SPI_MspInit+0x13c>)
 8000914:	f043 0302 	orr.w	r3, r3, #2
 8000918:	6313      	str	r3, [r2, #48]	; 0x30
 800091a:	4b34      	ldr	r3, [pc, #208]	; (80009ec <HAL_SPI_MspInit+0x13c>)
 800091c:	6b1b      	ldr	r3, [r3, #48]	; 0x30
 800091e:	f003 0302 	and.w	r3, r3, #2
 8000922:	613b      	str	r3, [r7, #16]
 8000924:	693b      	ldr	r3, [r7, #16]
    /**SPI2 GPIO Configuration
    PC2     ------> SPI2_MISO
    PC3     ------> SPI2_MOSI
    PB10     ------> SPI2_SCK
    */
    GPIO_InitStruct.Pin = GPIO_PIN_2|GPIO_PIN_3;
 8000926:	230c      	movs	r3, #12
 8000928:	61fb      	str	r3, [r7, #28]
    GPIO_InitStruct.Mode = GPIO_MODE_AF_PP;
 800092a:	2302      	movs	r3, #2
 800092c:	623b      	str	r3, [r7, #32]
    GPIO_InitStruct.Pull = GPIO_NOPULL;
 800092e:	2300      	movs	r3, #0
 8000930:	627b      	str	r3, [r7, #36]	; 0x24
    GPIO_InitStruct.Speed = GPIO_SPEED_FREQ_VERY_HIGH;
 8000932:	2303      	movs	r3, #3
 8000934:	62bb      	str	r3, [r7, #40]	; 0x28
    GPIO_InitStruct.Alternate = GPIO_AF5_SPI2;
 8000936:	2305      	movs	r3, #5
 8000938:	62fb      	str	r3, [r7, #44]	; 0x2c
    HAL_GPIO_Init(GPIOC, &GPIO_InitStruct);
 800093a:	f107 031c 	add.w	r3, r7, #28
 800093e:	4619      	mov	r1, r3
 8000940:	482b      	ldr	r0, [pc, #172]	; (80009f0 <HAL_SPI_MspInit+0x140>)
 8000942:	f000 fb5b 	bl	8000ffc <HAL_GPIO_Init>

    GPIO_InitStruct.Pin = GPIO_PIN_10;
 8000946:	f44f 6380 	mov.w	r3, #1024	; 0x400
 800094a:	61fb      	str	r3, [r7, #28]
    GPIO_InitStruct.Mode = GPIO_MODE_AF_PP;
 800094c:	2302      	movs	r3, #2
 800094e:	623b      	str	r3, [r7, #32]
    GPIO_InitStruct.Pull = GPIO_NOPULL;
 8000950:	2300      	movs	r3, #0
 8000952:	627b      	str	r3, [r7, #36]	; 0x24
    GPIO_InitStruct.Speed = GPIO_SPEED_FREQ_VERY_HIGH;
 8000954:	2303      	movs	r3, #3
 8000956:	62bb      	str	r3, [r7, #40]	; 0x28
    GPIO_InitStruct.Alternate = GPIO_AF5_SPI2;
 8000958:	2305      	movs	r3, #5
 800095a:	62fb      	str	r3, [r7, #44]	; 0x2c
    HAL_GPIO_Init(GPIOB, &GPIO_InitStruct);
 800095c:	f107 031c 	add.w	r3, r7, #28
 8000960:	4619      	mov	r1, r3
 8000962:	4824      	ldr	r0, [pc, #144]	; (80009f4 <HAL_SPI_MspInit+0x144>)
 8000964:	f000 fb4a 	bl	8000ffc <HAL_GPIO_Init>

    /* SPI2 interrupt Init */
    HAL_NVIC_SetPriority(SPI2_IRQn, 0, 0);
 8000968:	2200      	movs	r2, #0
 800096a:	2100      	movs	r1, #0
 800096c:	2024      	movs	r0, #36	; 0x24
 800096e:	f000 faec 	bl	8000f4a <HAL_NVIC_SetPriority>
    HAL_NVIC_EnableIRQ(SPI2_IRQn);
 8000972:	2024      	movs	r0, #36	; 0x24
 8000974:	f000 fb05 	bl	8000f82 <HAL_NVIC_EnableIRQ>
  /* USER CODE BEGIN SPI3_MspInit 1 */

  /* USER CODE END SPI3_MspInit 1 */
  }

}
 8000978:	e031      	b.n	80009de <HAL_SPI_MspInit+0x12e>
  else if(hspi->Instance==SPI3)
 800097a:	687b      	ldr	r3, [r7, #4]
 800097c:	681b      	ldr	r3, [r3, #0]
 800097e:	4a1e      	ldr	r2, [pc, #120]	; (80009f8 <HAL_SPI_MspInit+0x148>)
 8000980:	4293      	cmp	r3, r2
 8000982:	d12c      	bne.n	80009de <HAL_SPI_MspInit+0x12e>
    __HAL_RCC_SPI3_CLK_ENABLE();
 8000984:	2300      	movs	r3, #0
 8000986:	60fb      	str	r3, [r7, #12]
 8000988:	4b18      	ldr	r3, [pc, #96]	; (80009ec <HAL_SPI_MspInit+0x13c>)
 800098a:	6c1b      	ldr	r3, [r3, #64]	; 0x40
 800098c:	4a17      	ldr	r2, [pc, #92]	; (80009ec <HAL_SPI_MspInit+0x13c>)
 800098e:	f443 4300 	orr.w	r3, r3, #32768	; 0x8000
 8000992:	6413      	str	r3, [r2, #64]	; 0x40
 8000994:	4b15      	ldr	r3, [pc, #84]	; (80009ec <HAL_SPI_MspInit+0x13c>)
 8000996:	6c1b      	ldr	r3, [r3, #64]	; 0x40
 8000998:	f403 4300 	and.w	r3, r3, #32768	; 0x8000
 800099c:	60fb      	str	r3, [r7, #12]
 800099e:	68fb      	ldr	r3, [r7, #12]
    __HAL_RCC_GPIOC_CLK_ENABLE();
 80009a0:	2300      	movs	r3, #0
 80009a2:	60bb      	str	r3, [r7, #8]
 80009a4:	4b11      	ldr	r3, [pc, #68]	; (80009ec <HAL_SPI_MspInit+0x13c>)
 80009a6:	6b1b      	ldr	r3, [r3, #48]	; 0x30
 80009a8:	4a10      	ldr	r2, [pc, #64]	; (80009ec <HAL_SPI_MspInit+0x13c>)
 80009aa:	f043 0304 	orr.w	r3, r3, #4
 80009ae:	6313      	str	r3, [r2, #48]	; 0x30
 80009b0:	4b0e      	ldr	r3, [pc, #56]	; (80009ec <HAL_SPI_MspInit+0x13c>)
 80009b2:	6b1b      	ldr	r3, [r3, #48]	; 0x30
 80009b4:	f003 0304 	and.w	r3, r3, #4
 80009b8:	60bb      	str	r3, [r7, #8]
 80009ba:	68bb      	ldr	r3, [r7, #8]
    GPIO_InitStruct.Pin = GPIO_PIN_10|GPIO_PIN_12;
 80009bc:	f44f 53a0 	mov.w	r3, #5120	; 0x1400
 80009c0:	61fb      	str	r3, [r7, #28]
    GPIO_InitStruct.Mode = GPIO_MODE_AF_PP;
 80009c2:	2302      	movs	r3, #2
 80009c4:	623b      	str	r3, [r7, #32]
    GPIO_InitStruct.Pull = GPIO_NOPULL;
 80009c6:	2300      	movs	r3, #0
 80009c8:	627b      	str	r3, [r7, #36]	; 0x24
    GPIO_InitStruct.Speed = GPIO_SPEED_FREQ_VERY_HIGH;
 80009ca:	2303      	movs	r3, #3
 80009cc:	62bb      	str	r3, [r7, #40]	; 0x28
    GPIO_InitStruct.Alternate = GPIO_AF6_SPI3;
 80009ce:	2306      	movs	r3, #6
 80009d0:	62fb      	str	r3, [r7, #44]	; 0x2c
    HAL_GPIO_Init(GPIOC, &GPIO_InitStruct);
 80009d2:	f107 031c 	add.w	r3, r7, #28
 80009d6:	4619      	mov	r1, r3
 80009d8:	4805      	ldr	r0, [pc, #20]	; (80009f0 <HAL_SPI_MspInit+0x140>)
 80009da:	f000 fb0f 	bl	8000ffc <HAL_GPIO_Init>
}
 80009de:	bf00      	nop
 80009e0:	3730      	adds	r7, #48	; 0x30
 80009e2:	46bd      	mov	sp, r7
 80009e4:	bd80      	pop	{r7, pc}
 80009e6:	bf00      	nop
 80009e8:	40003800 	.word	0x40003800
 80009ec:	40023800 	.word	0x40023800
 80009f0:	40020800 	.word	0x40020800
 80009f4:	40020400 	.word	0x40020400
 80009f8:	40003c00 	.word	0x40003c00

080009fc <HAL_TIM_Base_MspInit>:
* This function configures the hardware resources used in this example
* @param htim_base: TIM_Base handle pointer
* @retval None
*/
void HAL_TIM_Base_MspInit(TIM_HandleTypeDef* htim_base)
{
 80009fc:	b480      	push	{r7}
 80009fe:	b085      	sub	sp, #20
 8000a00:	af00      	add	r7, sp, #0
 8000a02:	6078      	str	r0, [r7, #4]
  if(htim_base->Instance==TIM3)
 8000a04:	687b      	ldr	r3, [r7, #4]
 8000a06:	681b      	ldr	r3, [r3, #0]
 8000a08:	4a0b      	ldr	r2, [pc, #44]	; (8000a38 <HAL_TIM_Base_MspInit+0x3c>)
 8000a0a:	4293      	cmp	r3, r2
 8000a0c:	d10d      	bne.n	8000a2a <HAL_TIM_Base_MspInit+0x2e>
  {
  /* USER CODE BEGIN TIM3_MspInit 0 */

  /* USER CODE END TIM3_MspInit 0 */
    /* Peripheral clock enable */
    __HAL_RCC_TIM3_CLK_ENABLE();
 8000a0e:	2300      	movs	r3, #0
 8000a10:	60fb      	str	r3, [r7, #12]
 8000a12:	4b0a      	ldr	r3, [pc, #40]	; (8000a3c <HAL_TIM_Base_MspInit+0x40>)
 8000a14:	6c1b      	ldr	r3, [r3, #64]	; 0x40
 8000a16:	4a09      	ldr	r2, [pc, #36]	; (8000a3c <HAL_TIM_Base_MspInit+0x40>)
 8000a18:	f043 0302 	orr.w	r3, r3, #2
 8000a1c:	6413      	str	r3, [r2, #64]	; 0x40
 8000a1e:	4b07      	ldr	r3, [pc, #28]	; (8000a3c <HAL_TIM_Base_MspInit+0x40>)
 8000a20:	6c1b      	ldr	r3, [r3, #64]	; 0x40
 8000a22:	f003 0302 	and.w	r3, r3, #2
 8000a26:	60fb      	str	r3, [r7, #12]
 8000a28:	68fb      	ldr	r3, [r7, #12]
  /* USER CODE BEGIN TIM3_MspInit 1 */

  /* USER CODE END TIM3_MspInit 1 */
  }

}
 8000a2a:	bf00      	nop
 8000a2c:	3714      	adds	r7, #20
 8000a2e:	46bd      	mov	sp, r7
 8000a30:	f85d 7b04 	ldr.w	r7, [sp], #4
 8000a34:	4770      	bx	lr
 8000a36:	bf00      	nop
 8000a38:	40000400 	.word	0x40000400
 8000a3c:	40023800 	.word	0x40023800

08000a40 <NMI_Handler>:
/******************************************************************************/
/**
  * @brief This function handles Non maskable interrupt.
  */
void NMI_Handler(void)
{
 8000a40:	b480      	push	{r7}
 8000a42:	af00      	add	r7, sp, #0
  /* USER CODE BEGIN NonMaskableInt_IRQn 0 */

  /* USER CODE END NonMaskableInt_IRQn 0 */
  /* USER CODE BEGIN NonMaskableInt_IRQn 1 */
  while (1)
 8000a44:	e7fe      	b.n	8000a44 <NMI_Handler+0x4>

08000a46 <HardFault_Handler>:

/**
  * @brief This function handles Hard fault interrupt.
  */
void HardFault_Handler(void)
{
 8000a46:	b480      	push	{r7}
 8000a48:	af00      	add	r7, sp, #0
  /* USER CODE BEGIN HardFault_IRQn 0 */

  /* USER CODE END HardFault_IRQn 0 */
  while (1)
 8000a4a:	e7fe      	b.n	8000a4a <HardFault_Handler+0x4>

08000a4c <MemManage_Handler>:

/**
  * @brief This function handles Memory management fault.
  */
void MemManage_Handler(void)
{
 8000a4c:	b480      	push	{r7}
 8000a4e:	af00      	add	r7, sp, #0
  /* USER CODE BEGIN MemoryManagement_IRQn 0 */

  /* USER CODE END MemoryManagement_IRQn 0 */
  while (1)
 8000a50:	e7fe      	b.n	8000a50 <MemManage_Handler+0x4>

08000a52 <BusFault_Handler>:

/**
  * @brief This function handles Pre-fetch fault, memory access fault.
  */
void BusFault_Handler(void)
{
 8000a52:	b480      	push	{r7}
 8000a54:	af00      	add	r7, sp, #0
  /* USER CODE BEGIN BusFault_IRQn 0 */

  /* USER CODE END BusFault_IRQn 0 */
  while (1)
 8000a56:	e7fe      	b.n	8000a56 <BusFault_Handler+0x4>

08000a58 <UsageFault_Handler>:

/**
  * @brief This function handles Undefined instruction or illegal state.
  */
void UsageFault_Handler(void)
{
 8000a58:	b480      	push	{r7}
 8000a5a:	af00      	add	r7, sp, #0
  /* USER CODE BEGIN UsageFault_IRQn 0 */

  /* USER CODE END UsageFault_IRQn 0 */
  while (1)
 8000a5c:	e7fe      	b.n	8000a5c <UsageFault_Handler+0x4>

08000a5e <SVC_Handler>:

/**
  * @brief This function handles System service call via SWI instruction.
  */
void SVC_Handler(void)
{
 8000a5e:	b480      	push	{r7}
 8000a60:	af00      	add	r7, sp, #0

  /* USER CODE END SVCall_IRQn 0 */
  /* USER CODE BEGIN SVCall_IRQn 1 */

  /* USER CODE END SVCall_IRQn 1 */
}
 8000a62:	bf00      	nop
 8000a64:	46bd      	mov	sp, r7
 8000a66:	f85d 7b04 	ldr.w	r7, [sp], #4
 8000a6a:	4770      	bx	lr

08000a6c <DebugMon_Handler>:

/**
  * @brief This function handles Debug monitor.
  */
void DebugMon_Handler(void)
{
 8000a6c:	b480      	push	{r7}
 8000a6e:	af00      	add	r7, sp, #0

  /* USER CODE END DebugMonitor_IRQn 0 */
  /* USER CODE BEGIN DebugMonitor_IRQn 1 */

  /* USER CODE END DebugMonitor_IRQn 1 */
}
 8000a70:	bf00      	nop
 8000a72:	46bd      	mov	sp, r7
 8000a74:	f85d 7b04 	ldr.w	r7, [sp], #4
 8000a78:	4770      	bx	lr

08000a7a <PendSV_Handler>:

/**
  * @brief This function handles Pendable request for system service.
  */
void PendSV_Handler(void)
{
 8000a7a:	b480      	push	{r7}
 8000a7c:	af00      	add	r7, sp, #0

  /* USER CODE END PendSV_IRQn 0 */
  /* USER CODE BEGIN PendSV_IRQn 1 */

  /* USER CODE END PendSV_IRQn 1 */
}
 8000a7e:	bf00      	nop
 8000a80:	46bd      	mov	sp, r7
 8000a82:	f85d 7b04 	ldr.w	r7, [sp], #4
 8000a86:	4770      	bx	lr

08000a88 <SysTick_Handler>:

/**
  * @brief This function handles System tick timer.
  */
void SysTick_Handler(void)
{
 8000a88:	b580      	push	{r7, lr}
 8000a8a:	af00      	add	r7, sp, #0
  /* USER CODE BEGIN SysTick_IRQn 0 */

  /* USER CODE END SysTick_IRQn 0 */
  HAL_IncTick();
 8000a8c:	f000 f962 	bl	8000d54 <HAL_IncTick>
  /* USER CODE BEGIN SysTick_IRQn 1 */

  /* USER CODE END SysTick_IRQn 1 */
}
 8000a90:	bf00      	nop
 8000a92:	bd80      	pop	{r7, pc}

08000a94 <TIM3_IRQHandler>:

/**
  * @brief This function handles TIM3 global interrupt.
  */
void TIM3_IRQHandler(void)
{
 8000a94:	b580      	push	{r7, lr}
 8000a96:	af00      	add	r7, sp, #0
  /* USER CODE BEGIN TIM3_IRQn 0 */

  /* USER CODE END TIM3_IRQn 0 */
  HAL_TIM_IRQHandler(&htim3);
 8000a98:	480f      	ldr	r0, [pc, #60]	; (8000ad8 <TIM3_IRQHandler+0x44>)
 8000a9a:	f002 f89f 	bl	8002bdc <HAL_TIM_IRQHandler>
  /* USER CODE BEGIN TIM3_IRQn 1 */
  HAL_SPI_Transmit_IT(&hspi2, &buffer_tx[temp], 1);
 8000a9e:	4b0f      	ldr	r3, [pc, #60]	; (8000adc <TIM3_IRQHandler+0x48>)
 8000aa0:	681b      	ldr	r3, [r3, #0]
 8000aa2:	4a0f      	ldr	r2, [pc, #60]	; (8000ae0 <TIM3_IRQHandler+0x4c>)
 8000aa4:	4413      	add	r3, r2
 8000aa6:	2201      	movs	r2, #1
 8000aa8:	4619      	mov	r1, r3
 8000aaa:	480e      	ldr	r0, [pc, #56]	; (8000ae4 <TIM3_IRQHandler+0x50>)
 8000aac:	f001 f94a 	bl	8001d44 <HAL_SPI_Transmit_IT>
  temp += 1;
 8000ab0:	4b0a      	ldr	r3, [pc, #40]	; (8000adc <TIM3_IRQHandler+0x48>)
 8000ab2:	681b      	ldr	r3, [r3, #0]
 8000ab4:	3301      	adds	r3, #1
 8000ab6:	4a09      	ldr	r2, [pc, #36]	; (8000adc <TIM3_IRQHandler+0x48>)
 8000ab8:	6013      	str	r3, [r2, #0]
	  if(temp == 4){
 8000aba:	4b08      	ldr	r3, [pc, #32]	; (8000adc <TIM3_IRQHandler+0x48>)
 8000abc:	681b      	ldr	r3, [r3, #0]
 8000abe:	2b04      	cmp	r3, #4
 8000ac0:	d102      	bne.n	8000ac8 <TIM3_IRQHandler+0x34>
	 		  temp = 0;
 8000ac2:	4b06      	ldr	r3, [pc, #24]	; (8000adc <TIM3_IRQHandler+0x48>)
 8000ac4:	2200      	movs	r2, #0
 8000ac6:	601a      	str	r2, [r3, #0]
	 	  }

  HAL_SPI_Receive_IT(&hspi3, &buffer_rx, 1);
 8000ac8:	2201      	movs	r2, #1
 8000aca:	4907      	ldr	r1, [pc, #28]	; (8000ae8 <TIM3_IRQHandler+0x54>)
 8000acc:	4807      	ldr	r0, [pc, #28]	; (8000aec <TIM3_IRQHandler+0x58>)
 8000ace:	f001 f9c3 	bl	8001e58 <HAL_SPI_Receive_IT>
  /* USER CODE END TIM3_IRQn 1 */
}
 8000ad2:	bf00      	nop
 8000ad4:	bd80      	pop	{r7, pc}
 8000ad6:	bf00      	nop
 8000ad8:	200000dc 	.word	0x200000dc
 8000adc:	20000128 	.word	0x20000128
 8000ae0:	20000000 	.word	0x20000000
 8000ae4:	2000002c 	.word	0x2000002c
 8000ae8:	20000124 	.word	0x20000124
 8000aec:	20000084 	.word	0x20000084

08000af0 <SPI2_IRQHandler>:

/**
  * @brief This function handles SPI2 global interrupt.
  */
void SPI2_IRQHandler(void)
{
 8000af0:	b580      	push	{r7, lr}
 8000af2:	af00      	add	r7, sp, #0
  /* USER CODE BEGIN SPI2_IRQn 0 */

  /* USER CODE END SPI2_IRQn 0 */
  HAL_SPI_IRQHandler(&hspi2);
 8000af4:	4802      	ldr	r0, [pc, #8]	; (8000b00 <SPI2_IRQHandler+0x10>)
 8000af6:	f001 fae1 	bl	80020bc <HAL_SPI_IRQHandler>
  /* USER CODE BEGIN SPI2_IRQn 1 */

  /* USER CODE END SPI2_IRQn 1 */
}
 8000afa:	bf00      	nop
 8000afc:	bd80      	pop	{r7, pc}
 8000afe:	bf00      	nop
 8000b00:	2000002c 	.word	0x2000002c

08000b04 <SPI3_IRQHandler>:

/**
  * @brief This function handles SPI3 global interrupt.
  */
void SPI3_IRQHandler(void)
{
 8000b04:	b580      	push	{r7, lr}
 8000b06:	af00      	add	r7, sp, #0
  /* USER CODE BEGIN SPI3_IRQn 0 */

  /* USER CODE END SPI3_IRQn 0 */
  HAL_SPI_IRQHandler(&hspi3);
 8000b08:	4848      	ldr	r0, [pc, #288]	; (8000c2c <SPI3_IRQHandler+0x128>)
 8000b0a:	f001 fad7 	bl	80020bc <HAL_SPI_IRQHandler>
  /* USER CODE BEGIN SPI3_IRQn 1 */

  if(buffer_rx == 12){
 8000b0e:	4b48      	ldr	r3, [pc, #288]	; (8000c30 <SPI3_IRQHandler+0x12c>)
 8000b10:	781b      	ldrb	r3, [r3, #0]
 8000b12:	2b0c      	cmp	r3, #12
 8000b14:	d118      	bne.n	8000b48 <SPI3_IRQHandler+0x44>
	  HAL_GPIO_WritePin(GPIOD, GPIO_PIN_12, GPIO_PIN_SET);
 8000b16:	2201      	movs	r2, #1
 8000b18:	f44f 5180 	mov.w	r1, #4096	; 0x1000
 8000b1c:	4845      	ldr	r0, [pc, #276]	; (8000c34 <SPI3_IRQHandler+0x130>)
 8000b1e:	f000 fc09 	bl	8001334 <HAL_GPIO_WritePin>
	  HAL_GPIO_WritePin(GPIOD, GPIO_PIN_13, GPIO_PIN_RESET);
 8000b22:	2200      	movs	r2, #0
 8000b24:	f44f 5100 	mov.w	r1, #8192	; 0x2000
 8000b28:	4842      	ldr	r0, [pc, #264]	; (8000c34 <SPI3_IRQHandler+0x130>)
 8000b2a:	f000 fc03 	bl	8001334 <HAL_GPIO_WritePin>
	  HAL_GPIO_WritePin(GPIOD, GPIO_PIN_14, GPIO_PIN_RESET);
 8000b2e:	2200      	movs	r2, #0
 8000b30:	f44f 4180 	mov.w	r1, #16384	; 0x4000
 8000b34:	483f      	ldr	r0, [pc, #252]	; (8000c34 <SPI3_IRQHandler+0x130>)
 8000b36:	f000 fbfd 	bl	8001334 <HAL_GPIO_WritePin>
	  HAL_GPIO_WritePin(GPIOD, GPIO_PIN_15, GPIO_PIN_RESET);
 8000b3a:	2200      	movs	r2, #0
 8000b3c:	f44f 4100 	mov.w	r1, #32768	; 0x8000
 8000b40:	483c      	ldr	r0, [pc, #240]	; (8000c34 <SPI3_IRQHandler+0x130>)
 8000b42:	f000 fbf7 	bl	8001334 <HAL_GPIO_WritePin>
	  HAL_GPIO_WritePin(GPIOD, GPIO_PIN_14, GPIO_PIN_RESET);
	  HAL_GPIO_WritePin(GPIOD, GPIO_PIN_15, GPIO_PIN_RESET);
  }

  /* USER CODE END SPI3_IRQn 1 */
}
 8000b46:	e06e      	b.n	8000c26 <SPI3_IRQHandler+0x122>
  else if(buffer_rx == 13){
 8000b48:	4b39      	ldr	r3, [pc, #228]	; (8000c30 <SPI3_IRQHandler+0x12c>)
 8000b4a:	781b      	ldrb	r3, [r3, #0]
 8000b4c:	2b0d      	cmp	r3, #13
 8000b4e:	d118      	bne.n	8000b82 <SPI3_IRQHandler+0x7e>
	  HAL_GPIO_WritePin(GPIOD, GPIO_PIN_12, GPIO_PIN_RESET);
 8000b50:	2200      	movs	r2, #0
 8000b52:	f44f 5180 	mov.w	r1, #4096	; 0x1000
 8000b56:	4837      	ldr	r0, [pc, #220]	; (8000c34 <SPI3_IRQHandler+0x130>)
 8000b58:	f000 fbec 	bl	8001334 <HAL_GPIO_WritePin>
	  HAL_GPIO_WritePin(GPIOD, GPIO_PIN_13, GPIO_PIN_SET);
 8000b5c:	2201      	movs	r2, #1
 8000b5e:	f44f 5100 	mov.w	r1, #8192	; 0x2000
 8000b62:	4834      	ldr	r0, [pc, #208]	; (8000c34 <SPI3_IRQHandler+0x130>)
 8000b64:	f000 fbe6 	bl	8001334 <HAL_GPIO_WritePin>
	  HAL_GPIO_WritePin(GPIOD, GPIO_PIN_14, GPIO_PIN_RESET);
 8000b68:	2200      	movs	r2, #0
 8000b6a:	f44f 4180 	mov.w	r1, #16384	; 0x4000
 8000b6e:	4831      	ldr	r0, [pc, #196]	; (8000c34 <SPI3_IRQHandler+0x130>)
 8000b70:	f000 fbe0 	bl	8001334 <HAL_GPIO_WritePin>
	  HAL_GPIO_WritePin(GPIOD, GPIO_PIN_15, GPIO_PIN_RESET);
 8000b74:	2200      	movs	r2, #0
 8000b76:	f44f 4100 	mov.w	r1, #32768	; 0x8000
 8000b7a:	482e      	ldr	r0, [pc, #184]	; (8000c34 <SPI3_IRQHandler+0x130>)
 8000b7c:	f000 fbda 	bl	8001334 <HAL_GPIO_WritePin>
}
 8000b80:	e051      	b.n	8000c26 <SPI3_IRQHandler+0x122>
  else if(buffer_rx == 14){
 8000b82:	4b2b      	ldr	r3, [pc, #172]	; (8000c30 <SPI3_IRQHandler+0x12c>)
 8000b84:	781b      	ldrb	r3, [r3, #0]
 8000b86:	2b0e      	cmp	r3, #14
 8000b88:	d118      	bne.n	8000bbc <SPI3_IRQHandler+0xb8>
	  HAL_GPIO_WritePin(GPIOD, GPIO_PIN_12, GPIO_PIN_RESET);
 8000b8a:	2200      	movs	r2, #0
 8000b8c:	f44f 5180 	mov.w	r1, #4096	; 0x1000
 8000b90:	4828      	ldr	r0, [pc, #160]	; (8000c34 <SPI3_IRQHandler+0x130>)
 8000b92:	f000 fbcf 	bl	8001334 <HAL_GPIO_WritePin>
	  HAL_GPIO_WritePin(GPIOD, GPIO_PIN_13, GPIO_PIN_RESET);
 8000b96:	2200      	movs	r2, #0
 8000b98:	f44f 5100 	mov.w	r1, #8192	; 0x2000
 8000b9c:	4825      	ldr	r0, [pc, #148]	; (8000c34 <SPI3_IRQHandler+0x130>)
 8000b9e:	f000 fbc9 	bl	8001334 <HAL_GPIO_WritePin>
	  HAL_GPIO_WritePin(GPIOD, GPIO_PIN_14, GPIO_PIN_SET);
 8000ba2:	2201      	movs	r2, #1
 8000ba4:	f44f 4180 	mov.w	r1, #16384	; 0x4000
 8000ba8:	4822      	ldr	r0, [pc, #136]	; (8000c34 <SPI3_IRQHandler+0x130>)
 8000baa:	f000 fbc3 	bl	8001334 <HAL_GPIO_WritePin>
	  HAL_GPIO_WritePin(GPIOD, GPIO_PIN_15, GPIO_PIN_RESET);
 8000bae:	2200      	movs	r2, #0
 8000bb0:	f44f 4100 	mov.w	r1, #32768	; 0x8000
 8000bb4:	481f      	ldr	r0, [pc, #124]	; (8000c34 <SPI3_IRQHandler+0x130>)
 8000bb6:	f000 fbbd 	bl	8001334 <HAL_GPIO_WritePin>
}
 8000bba:	e034      	b.n	8000c26 <SPI3_IRQHandler+0x122>
  else if(buffer_rx == 15){
 8000bbc:	4b1c      	ldr	r3, [pc, #112]	; (8000c30 <SPI3_IRQHandler+0x12c>)
 8000bbe:	781b      	ldrb	r3, [r3, #0]
 8000bc0:	2b0f      	cmp	r3, #15
 8000bc2:	d118      	bne.n	8000bf6 <SPI3_IRQHandler+0xf2>
	  HAL_GPIO_WritePin(GPIOD, GPIO_PIN_12, GPIO_PIN_RESET);
 8000bc4:	2200      	movs	r2, #0
 8000bc6:	f44f 5180 	mov.w	r1, #4096	; 0x1000
 8000bca:	481a      	ldr	r0, [pc, #104]	; (8000c34 <SPI3_IRQHandler+0x130>)
 8000bcc:	f000 fbb2 	bl	8001334 <HAL_GPIO_WritePin>
	  HAL_GPIO_WritePin(GPIOD, GPIO_PIN_13, GPIO_PIN_RESET);
 8000bd0:	2200      	movs	r2, #0
 8000bd2:	f44f 5100 	mov.w	r1, #8192	; 0x2000
 8000bd6:	4817      	ldr	r0, [pc, #92]	; (8000c34 <SPI3_IRQHandler+0x130>)
 8000bd8:	f000 fbac 	bl	8001334 <HAL_GPIO_WritePin>
	  HAL_GPIO_WritePin(GPIOD, GPIO_PIN_14, GPIO_PIN_RESET);
 8000bdc:	2200      	movs	r2, #0
 8000bde:	f44f 4180 	mov.w	r1, #16384	; 0x4000
 8000be2:	4814      	ldr	r0, [pc, #80]	; (8000c34 <SPI3_IRQHandler+0x130>)
 8000be4:	f000 fba6 	bl	8001334 <HAL_GPIO_WritePin>
	  HAL_GPIO_WritePin(GPIOD, GPIO_PIN_15, GPIO_PIN_SET);
 8000be8:	2201      	movs	r2, #1
 8000bea:	f44f 4100 	mov.w	r1, #32768	; 0x8000
 8000bee:	4811      	ldr	r0, [pc, #68]	; (8000c34 <SPI3_IRQHandler+0x130>)
 8000bf0:	f000 fba0 	bl	8001334 <HAL_GPIO_WritePin>
}
 8000bf4:	e017      	b.n	8000c26 <SPI3_IRQHandler+0x122>
	  HAL_GPIO_WritePin(GPIOD, GPIO_PIN_12, GPIO_PIN_SET);
 8000bf6:	2201      	movs	r2, #1
 8000bf8:	f44f 5180 	mov.w	r1, #4096	; 0x1000
 8000bfc:	480d      	ldr	r0, [pc, #52]	; (8000c34 <SPI3_IRQHandler+0x130>)
 8000bfe:	f000 fb99 	bl	8001334 <HAL_GPIO_WritePin>
      HAL_GPIO_WritePin(GPIOD, GPIO_PIN_13, GPIO_PIN_RESET);
 8000c02:	2200      	movs	r2, #0
 8000c04:	f44f 5100 	mov.w	r1, #8192	; 0x2000
 8000c08:	480a      	ldr	r0, [pc, #40]	; (8000c34 <SPI3_IRQHandler+0x130>)
 8000c0a:	f000 fb93 	bl	8001334 <HAL_GPIO_WritePin>
	  HAL_GPIO_WritePin(GPIOD, GPIO_PIN_14, GPIO_PIN_RESET);
 8000c0e:	2200      	movs	r2, #0
 8000c10:	f44f 4180 	mov.w	r1, #16384	; 0x4000
 8000c14:	4807      	ldr	r0, [pc, #28]	; (8000c34 <SPI3_IRQHandler+0x130>)
 8000c16:	f000 fb8d 	bl	8001334 <HAL_GPIO_WritePin>
	  HAL_GPIO_WritePin(GPIOD, GPIO_PIN_15, GPIO_PIN_RESET);
 8000c1a:	2200      	movs	r2, #0
 8000c1c:	f44f 4100 	mov.w	r1, #32768	; 0x8000
 8000c20:	4804      	ldr	r0, [pc, #16]	; (8000c34 <SPI3_IRQHandler+0x130>)
 8000c22:	f000 fb87 	bl	8001334 <HAL_GPIO_WritePin>
}
 8000c26:	bf00      	nop
 8000c28:	bd80      	pop	{r7, pc}
 8000c2a:	bf00      	nop
 8000c2c:	20000084 	.word	0x20000084
 8000c30:	20000124 	.word	0x20000124
 8000c34:	40020c00 	.word	0x40020c00

08000c38 <SystemInit>:
  *         configuration.
  * @param  None
  * @retval None
  */
void SystemInit(void)
{
 8000c38:	b480      	push	{r7}
 8000c3a:	af00      	add	r7, sp, #0
  /* FPU settings ------------------------------------------------------------*/
  #if (__FPU_PRESENT == 1) && (__FPU_USED == 1)
    SCB->CPACR |= ((3UL << 10*2)|(3UL << 11*2));  /* set CP10 and CP11 Full Access */
 8000c3c:	4b06      	ldr	r3, [pc, #24]	; (8000c58 <SystemInit+0x20>)
 8000c3e:	f8d3 3088 	ldr.w	r3, [r3, #136]	; 0x88
 8000c42:	4a05      	ldr	r2, [pc, #20]	; (8000c58 <SystemInit+0x20>)
 8000c44:	f443 0370 	orr.w	r3, r3, #15728640	; 0xf00000
 8000c48:	f8c2 3088 	str.w	r3, [r2, #136]	; 0x88

  /* Configure the Vector Table location -------------------------------------*/
#if defined(USER_VECT_TAB_ADDRESS)
  SCB->VTOR = VECT_TAB_BASE_ADDRESS | VECT_TAB_OFFSET; /* Vector Table Relocation in Internal SRAM */
#endif /* USER_VECT_TAB_ADDRESS */
}
 8000c4c:	bf00      	nop
 8000c4e:	46bd      	mov	sp, r7
 8000c50:	f85d 7b04 	ldr.w	r7, [sp], #4
 8000c54:	4770      	bx	lr
 8000c56:	bf00      	nop
 8000c58:	e000ed00 	.word	0xe000ed00

08000c5c <Reset_Handler>:
 8000c5c:	f8df d034 	ldr.w	sp, [pc, #52]	; 8000c94 <LoopFillZerobss+0x12>
 8000c60:	480d      	ldr	r0, [pc, #52]	; (8000c98 <LoopFillZerobss+0x16>)
 8000c62:	490e      	ldr	r1, [pc, #56]	; (8000c9c <LoopFillZerobss+0x1a>)
 8000c64:	4a0e      	ldr	r2, [pc, #56]	; (8000ca0 <LoopFillZerobss+0x1e>)
 8000c66:	2300      	movs	r3, #0
 8000c68:	e002      	b.n	8000c70 <LoopCopyDataInit>

08000c6a <CopyDataInit>:
 8000c6a:	58d4      	ldr	r4, [r2, r3]
 8000c6c:	50c4      	str	r4, [r0, r3]
 8000c6e:	3304      	adds	r3, #4

08000c70 <LoopCopyDataInit>:
 8000c70:	18c4      	adds	r4, r0, r3
 8000c72:	428c      	cmp	r4, r1
 8000c74:	d3f9      	bcc.n	8000c6a <CopyDataInit>
 8000c76:	4a0b      	ldr	r2, [pc, #44]	; (8000ca4 <LoopFillZerobss+0x22>)
 8000c78:	4c0b      	ldr	r4, [pc, #44]	; (8000ca8 <LoopFillZerobss+0x26>)
 8000c7a:	2300      	movs	r3, #0
 8000c7c:	e001      	b.n	8000c82 <LoopFillZerobss>

08000c7e <FillZerobss>:
 8000c7e:	6013      	str	r3, [r2, #0]
 8000c80:	3204      	adds	r2, #4

08000c82 <LoopFillZerobss>:
 8000c82:	42a2      	cmp	r2, r4
 8000c84:	d3fb      	bcc.n	8000c7e <FillZerobss>
 8000c86:	f7ff ffd7 	bl	8000c38 <SystemInit>
 8000c8a:	f002 fb69 	bl	8003360 <__libc_init_array>
 8000c8e:	f7ff fc1d 	bl	80004cc <main>
 8000c92:	4770      	bx	lr
 8000c94:	20020000 	.word	0x20020000
 8000c98:	20000000 	.word	0x20000000
 8000c9c:	20000010 	.word	0x20000010
 8000ca0:	080033f0 	.word	0x080033f0
 8000ca4:	20000010 	.word	0x20000010
 8000ca8:	20000130 	.word	0x20000130

08000cac <ADC_IRQHandler>:
 8000cac:	e7fe      	b.n	8000cac <ADC_IRQHandler>
	...

08000cb0 <HAL_Init>:
  *         need to ensure that the SysTick time base is always set to 1 millisecond
  *         to have correct HAL operation.
  * @retval HAL status
  */
HAL_StatusTypeDef HAL_Init(void)
{
 8000cb0:	b580      	push	{r7, lr}
 8000cb2:	af00      	add	r7, sp, #0
  /* Configure Flash prefetch, Instruction cache, Data cache */ 
#if (INSTRUCTION_CACHE_ENABLE != 0U)
  __HAL_FLASH_INSTRUCTION_CACHE_ENABLE();
 8000cb4:	4b0e      	ldr	r3, [pc, #56]	; (8000cf0 <HAL_Init+0x40>)
 8000cb6:	681b      	ldr	r3, [r3, #0]
 8000cb8:	4a0d      	ldr	r2, [pc, #52]	; (8000cf0 <HAL_Init+0x40>)
 8000cba:	f443 7300 	orr.w	r3, r3, #512	; 0x200
 8000cbe:	6013      	str	r3, [r2, #0]
#endif /* INSTRUCTION_CACHE_ENABLE */

#if (DATA_CACHE_ENABLE != 0U)
  __HAL_FLASH_DATA_CACHE_ENABLE();
 8000cc0:	4b0b      	ldr	r3, [pc, #44]	; (8000cf0 <HAL_Init+0x40>)
 8000cc2:	681b      	ldr	r3, [r3, #0]
 8000cc4:	4a0a      	ldr	r2, [pc, #40]	; (8000cf0 <HAL_Init+0x40>)
 8000cc6:	f443 6380 	orr.w	r3, r3, #1024	; 0x400
 8000cca:	6013      	str	r3, [r2, #0]
#endif /* DATA_CACHE_ENABLE */

#if (PREFETCH_ENABLE != 0U)
  __HAL_FLASH_PREFETCH_BUFFER_ENABLE();
 8000ccc:	4b08      	ldr	r3, [pc, #32]	; (8000cf0 <HAL_Init+0x40>)
 8000cce:	681b      	ldr	r3, [r3, #0]
 8000cd0:	4a07      	ldr	r2, [pc, #28]	; (8000cf0 <HAL_Init+0x40>)
 8000cd2:	f443 7380 	orr.w	r3, r3, #256	; 0x100
 8000cd6:	6013      	str	r3, [r2, #0]
#endif /* PREFETCH_ENABLE */

  /* Set Interrupt Group Priority */
  HAL_NVIC_SetPriorityGrouping(NVIC_PRIORITYGROUP_4);
 8000cd8:	2003      	movs	r0, #3
 8000cda:	f000 f92b 	bl	8000f34 <HAL_NVIC_SetPriorityGrouping>

  /* Use systick as time base source and configure 1ms tick (default clock after Reset is HSI) */
  HAL_InitTick(TICK_INT_PRIORITY);
 8000cde:	2000      	movs	r0, #0
 8000ce0:	f000 f808 	bl	8000cf4 <HAL_InitTick>

  /* Init the low level hardware */
  HAL_MspInit();
 8000ce4:	f7ff fdbc 	bl	8000860 <HAL_MspInit>

  /* Return function status */
  return HAL_OK;
 8000ce8:	2300      	movs	r3, #0
}
 8000cea:	4618      	mov	r0, r3
 8000cec:	bd80      	pop	{r7, pc}
 8000cee:	bf00      	nop
 8000cf0:	40023c00 	.word	0x40023c00

08000cf4 <HAL_InitTick>:
  *       implementation  in user file.
  * @param TickPriority Tick interrupt priority.
  * @retval HAL status
  */
__weak HAL_StatusTypeDef HAL_InitTick(uint32_t TickPriority)
{
 8000cf4:	b580      	push	{r7, lr}
 8000cf6:	b082      	sub	sp, #8
 8000cf8:	af00      	add	r7, sp, #0
 8000cfa:	6078      	str	r0, [r7, #4]
  /* Configure the SysTick to have interrupt in 1ms time basis*/
  if (HAL_SYSTICK_Config(SystemCoreClock / (1000U / uwTickFreq)) > 0U)
 8000cfc:	4b12      	ldr	r3, [pc, #72]	; (8000d48 <HAL_InitTick+0x54>)
 8000cfe:	681a      	ldr	r2, [r3, #0]
 8000d00:	4b12      	ldr	r3, [pc, #72]	; (8000d4c <HAL_InitTick+0x58>)
 8000d02:	781b      	ldrb	r3, [r3, #0]
 8000d04:	4619      	mov	r1, r3
 8000d06:	f44f 737a 	mov.w	r3, #1000	; 0x3e8
 8000d0a:	fbb3 f3f1 	udiv	r3, r3, r1
 8000d0e:	fbb2 f3f3 	udiv	r3, r2, r3
 8000d12:	4618      	mov	r0, r3
 8000d14:	f000 f943 	bl	8000f9e <HAL_SYSTICK_Config>
 8000d18:	4603      	mov	r3, r0
 8000d1a:	2b00      	cmp	r3, #0
 8000d1c:	d001      	beq.n	8000d22 <HAL_InitTick+0x2e>
  {
    return HAL_ERROR;
 8000d1e:	2301      	movs	r3, #1
 8000d20:	e00e      	b.n	8000d40 <HAL_InitTick+0x4c>
  }

  /* Configure the SysTick IRQ priority */
  if (TickPriority < (1UL << __NVIC_PRIO_BITS))
 8000d22:	687b      	ldr	r3, [r7, #4]
 8000d24:	2b0f      	cmp	r3, #15
 8000d26:	d80a      	bhi.n	8000d3e <HAL_InitTick+0x4a>
  {
    HAL_NVIC_SetPriority(SysTick_IRQn, TickPriority, 0U);
 8000d28:	2200      	movs	r2, #0
 8000d2a:	6879      	ldr	r1, [r7, #4]
 8000d2c:	f04f 30ff 	mov.w	r0, #4294967295
 8000d30:	f000 f90b 	bl	8000f4a <HAL_NVIC_SetPriority>
    uwTickPrio = TickPriority;
 8000d34:	4a06      	ldr	r2, [pc, #24]	; (8000d50 <HAL_InitTick+0x5c>)
 8000d36:	687b      	ldr	r3, [r7, #4]
 8000d38:	6013      	str	r3, [r2, #0]
  {
    return HAL_ERROR;
  }

  /* Return function status */
  return HAL_OK;
 8000d3a:	2300      	movs	r3, #0
 8000d3c:	e000      	b.n	8000d40 <HAL_InitTick+0x4c>
    return HAL_ERROR;
 8000d3e:	2301      	movs	r3, #1
}
 8000d40:	4618      	mov	r0, r3
 8000d42:	3708      	adds	r7, #8
 8000d44:	46bd      	mov	sp, r7
 8000d46:	bd80      	pop	{r7, pc}
 8000d48:	20000004 	.word	0x20000004
 8000d4c:	2000000c 	.word	0x2000000c
 8000d50:	20000008 	.word	0x20000008

08000d54 <HAL_IncTick>:
 * @note This function is declared as __weak to be overwritten in case of other 
  *      implementations in user file.
  * @retval None
  */
__weak void HAL_IncTick(void)
{
 8000d54:	b480      	push	{r7}
 8000d56:	af00      	add	r7, sp, #0
  uwTick += uwTickFreq;
 8000d58:	4b06      	ldr	r3, [pc, #24]	; (8000d74 <HAL_IncTick+0x20>)
 8000d5a:	781b      	ldrb	r3, [r3, #0]
 8000d5c:	461a      	mov	r2, r3
 8000d5e:	4b06      	ldr	r3, [pc, #24]	; (8000d78 <HAL_IncTick+0x24>)
 8000d60:	681b      	ldr	r3, [r3, #0]
 8000d62:	4413      	add	r3, r2
 8000d64:	4a04      	ldr	r2, [pc, #16]	; (8000d78 <HAL_IncTick+0x24>)
 8000d66:	6013      	str	r3, [r2, #0]
}
 8000d68:	bf00      	nop
 8000d6a:	46bd      	mov	sp, r7
 8000d6c:	f85d 7b04 	ldr.w	r7, [sp], #4
 8000d70:	4770      	bx	lr
 8000d72:	bf00      	nop
 8000d74:	2000000c 	.word	0x2000000c
 8000d78:	2000012c 	.word	0x2000012c

08000d7c <HAL_GetTick>:
  * @note This function is declared as __weak to be overwritten in case of other 
  *       implementations in user file.
  * @retval tick value
  */
__weak uint32_t HAL_GetTick(void)
{
 8000d7c:	b480      	push	{r7}
 8000d7e:	af00      	add	r7, sp, #0
  return uwTick;
 8000d80:	4b03      	ldr	r3, [pc, #12]	; (8000d90 <HAL_GetTick+0x14>)
 8000d82:	681b      	ldr	r3, [r3, #0]
}
 8000d84:	4618      	mov	r0, r3
 8000d86:	46bd      	mov	sp, r7
 8000d88:	f85d 7b04 	ldr.w	r7, [sp], #4
 8000d8c:	4770      	bx	lr
 8000d8e:	bf00      	nop
 8000d90:	2000012c 	.word	0x2000012c

08000d94 <__NVIC_SetPriorityGrouping>:
           In case of a conflict between priority grouping and available
           priority bits (__NVIC_PRIO_BITS), the smallest possible priority group is set.
  \param [in]      PriorityGroup  Priority grouping field.
 */
__STATIC_INLINE void __NVIC_SetPriorityGrouping(uint32_t PriorityGroup)
{
 8000d94:	b480      	push	{r7}
 8000d96:	b085      	sub	sp, #20
 8000d98:	af00      	add	r7, sp, #0
 8000d9a:	6078      	str	r0, [r7, #4]
  uint32_t reg_value;
  uint32_t PriorityGroupTmp = (PriorityGroup & (uint32_t)0x07UL);             /* only values 0..7 are used          */
 8000d9c:	687b      	ldr	r3, [r7, #4]
 8000d9e:	f003 0307 	and.w	r3, r3, #7
 8000da2:	60fb      	str	r3, [r7, #12]

  reg_value  =  SCB->AIRCR;                                                   /* read old register configuration    */
 8000da4:	4b0c      	ldr	r3, [pc, #48]	; (8000dd8 <__NVIC_SetPriorityGrouping+0x44>)
 8000da6:	68db      	ldr	r3, [r3, #12]
 8000da8:	60bb      	str	r3, [r7, #8]
  reg_value &= ~((uint32_t)(SCB_AIRCR_VECTKEY_Msk | SCB_AIRCR_PRIGROUP_Msk)); /* clear bits to change               */
 8000daa:	68ba      	ldr	r2, [r7, #8]
 8000dac:	f64f 03ff 	movw	r3, #63743	; 0xf8ff
 8000db0:	4013      	ands	r3, r2
 8000db2:	60bb      	str	r3, [r7, #8]
  reg_value  =  (reg_value                                   |
                ((uint32_t)0x5FAUL << SCB_AIRCR_VECTKEY_Pos) |
                (PriorityGroupTmp << SCB_AIRCR_PRIGROUP_Pos)  );              /* Insert write key and priority group */
 8000db4:	68fb      	ldr	r3, [r7, #12]
 8000db6:	021a      	lsls	r2, r3, #8
                ((uint32_t)0x5FAUL << SCB_AIRCR_VECTKEY_Pos) |
 8000db8:	68bb      	ldr	r3, [r7, #8]
 8000dba:	4313      	orrs	r3, r2
  reg_value  =  (reg_value                                   |
 8000dbc:	f043 63bf 	orr.w	r3, r3, #100139008	; 0x5f80000
 8000dc0:	f443 3300 	orr.w	r3, r3, #131072	; 0x20000
 8000dc4:	60bb      	str	r3, [r7, #8]
  SCB->AIRCR =  reg_value;
 8000dc6:	4a04      	ldr	r2, [pc, #16]	; (8000dd8 <__NVIC_SetPriorityGrouping+0x44>)
 8000dc8:	68bb      	ldr	r3, [r7, #8]
 8000dca:	60d3      	str	r3, [r2, #12]
}
 8000dcc:	bf00      	nop
 8000dce:	3714      	adds	r7, #20
 8000dd0:	46bd      	mov	sp, r7
 8000dd2:	f85d 7b04 	ldr.w	r7, [sp], #4
 8000dd6:	4770      	bx	lr
 8000dd8:	e000ed00 	.word	0xe000ed00

08000ddc <__NVIC_GetPriorityGrouping>:
  \brief   Get Priority Grouping
  \details Reads the priority grouping field from the NVIC Interrupt Controller.
  \return                Priority grouping field (SCB->AIRCR [10:8] PRIGROUP field).
 */
__STATIC_INLINE uint32_t __NVIC_GetPriorityGrouping(void)
{
 8000ddc:	b480      	push	{r7}
 8000dde:	af00      	add	r7, sp, #0
  return ((uint32_t)((SCB->AIRCR & SCB_AIRCR_PRIGROUP_Msk) >> SCB_AIRCR_PRIGROUP_Pos));
 8000de0:	4b04      	ldr	r3, [pc, #16]	; (8000df4 <__NVIC_GetPriorityGrouping+0x18>)
 8000de2:	68db      	ldr	r3, [r3, #12]
 8000de4:	0a1b      	lsrs	r3, r3, #8
 8000de6:	f003 0307 	and.w	r3, r3, #7
}
 8000dea:	4618      	mov	r0, r3
 8000dec:	46bd      	mov	sp, r7
 8000dee:	f85d 7b04 	ldr.w	r7, [sp], #4
 8000df2:	4770      	bx	lr
 8000df4:	e000ed00 	.word	0xe000ed00

08000df8 <__NVIC_EnableIRQ>:
  \details Enables a device specific interrupt in the NVIC interrupt controller.
  \param [in]      IRQn  Device specific interrupt number.
  \note    IRQn must not be negative.
 */
__STATIC_INLINE void __NVIC_EnableIRQ(IRQn_Type IRQn)
{
 8000df8:	b480      	push	{r7}
 8000dfa:	b083      	sub	sp, #12
 8000dfc:	af00      	add	r7, sp, #0
 8000dfe:	4603      	mov	r3, r0
 8000e00:	71fb      	strb	r3, [r7, #7]
  if ((int32_t)(IRQn) >= 0)
 8000e02:	f997 3007 	ldrsb.w	r3, [r7, #7]
 8000e06:	2b00      	cmp	r3, #0
 8000e08:	db0b      	blt.n	8000e22 <__NVIC_EnableIRQ+0x2a>
  {
    NVIC->ISER[(((uint32_t)IRQn) >> 5UL)] = (uint32_t)(1UL << (((uint32_t)IRQn) & 0x1FUL));
 8000e0a:	79fb      	ldrb	r3, [r7, #7]
 8000e0c:	f003 021f 	and.w	r2, r3, #31
 8000e10:	4907      	ldr	r1, [pc, #28]	; (8000e30 <__NVIC_EnableIRQ+0x38>)
 8000e12:	f997 3007 	ldrsb.w	r3, [r7, #7]
 8000e16:	095b      	lsrs	r3, r3, #5
 8000e18:	2001      	movs	r0, #1
 8000e1a:	fa00 f202 	lsl.w	r2, r0, r2
 8000e1e:	f841 2023 	str.w	r2, [r1, r3, lsl #2]
  }
}
 8000e22:	bf00      	nop
 8000e24:	370c      	adds	r7, #12
 8000e26:	46bd      	mov	sp, r7
 8000e28:	f85d 7b04 	ldr.w	r7, [sp], #4
 8000e2c:	4770      	bx	lr
 8000e2e:	bf00      	nop
 8000e30:	e000e100 	.word	0xe000e100

08000e34 <__NVIC_SetPriority>:
  \param [in]      IRQn  Interrupt number.
  \param [in]  priority  Priority to set.
  \note    The priority cannot be set for every processor exception.
 */
__STATIC_INLINE void __NVIC_SetPriority(IRQn_Type IRQn, uint32_t priority)
{
 8000e34:	b480      	push	{r7}
 8000e36:	b083      	sub	sp, #12
 8000e38:	af00      	add	r7, sp, #0
 8000e3a:	4603      	mov	r3, r0
 8000e3c:	6039      	str	r1, [r7, #0]
 8000e3e:	71fb      	strb	r3, [r7, #7]
  if ((int32_t)(IRQn) >= 0)
 8000e40:	f997 3007 	ldrsb.w	r3, [r7, #7]
 8000e44:	2b00      	cmp	r3, #0
 8000e46:	db0a      	blt.n	8000e5e <__NVIC_SetPriority+0x2a>
  {
    NVIC->IP[((uint32_t)IRQn)]               = (uint8_t)((priority << (8U - __NVIC_PRIO_BITS)) & (uint32_t)0xFFUL);
 8000e48:	683b      	ldr	r3, [r7, #0]
 8000e4a:	b2da      	uxtb	r2, r3
 8000e4c:	490c      	ldr	r1, [pc, #48]	; (8000e80 <__NVIC_SetPriority+0x4c>)
 8000e4e:	f997 3007 	ldrsb.w	r3, [r7, #7]
 8000e52:	0112      	lsls	r2, r2, #4
 8000e54:	b2d2      	uxtb	r2, r2
 8000e56:	440b      	add	r3, r1
 8000e58:	f883 2300 	strb.w	r2, [r3, #768]	; 0x300
  }
  else
  {
    SCB->SHP[(((uint32_t)IRQn) & 0xFUL)-4UL] = (uint8_t)((priority << (8U - __NVIC_PRIO_BITS)) & (uint32_t)0xFFUL);
  }
}
 8000e5c:	e00a      	b.n	8000e74 <__NVIC_SetPriority+0x40>
    SCB->SHP[(((uint32_t)IRQn) & 0xFUL)-4UL] = (uint8_t)((priority << (8U - __NVIC_PRIO_BITS)) & (uint32_t)0xFFUL);
 8000e5e:	683b      	ldr	r3, [r7, #0]
 8000e60:	b2da      	uxtb	r2, r3
 8000e62:	4908      	ldr	r1, [pc, #32]	; (8000e84 <__NVIC_SetPriority+0x50>)
 8000e64:	79fb      	ldrb	r3, [r7, #7]
 8000e66:	f003 030f 	and.w	r3, r3, #15
 8000e6a:	3b04      	subs	r3, #4
 8000e6c:	0112      	lsls	r2, r2, #4
 8000e6e:	b2d2      	uxtb	r2, r2
 8000e70:	440b      	add	r3, r1
 8000e72:	761a      	strb	r2, [r3, #24]
}
 8000e74:	bf00      	nop
 8000e76:	370c      	adds	r7, #12
 8000e78:	46bd      	mov	sp, r7
 8000e7a:	f85d 7b04 	ldr.w	r7, [sp], #4
 8000e7e:	4770      	bx	lr
 8000e80:	e000e100 	.word	0xe000e100
 8000e84:	e000ed00 	.word	0xe000ed00

08000e88 <NVIC_EncodePriority>:
  \param [in]   PreemptPriority  Preemptive priority value (starting from 0).
  \param [in]       SubPriority  Subpriority value (starting from 0).
  \return                        Encoded priority. Value can be used in the function \ref NVIC_SetPriority().
 */
__STATIC_INLINE uint32_t NVIC_EncodePriority (uint32_t PriorityGroup, uint32_t PreemptPriority, uint32_t SubPriority)
{
 8000e88:	b480      	push	{r7}
 8000e8a:	b089      	sub	sp, #36	; 0x24
 8000e8c:	af00      	add	r7, sp, #0
 8000e8e:	60f8      	str	r0, [r7, #12]
 8000e90:	60b9      	str	r1, [r7, #8]
 8000e92:	607a      	str	r2, [r7, #4]
  uint32_t PriorityGroupTmp = (PriorityGroup & (uint32_t)0x07UL);   /* only values 0..7 are used          */
 8000e94:	68fb      	ldr	r3, [r7, #12]
 8000e96:	f003 0307 	and.w	r3, r3, #7
 8000e9a:	61fb      	str	r3, [r7, #28]
  uint32_t PreemptPriorityBits;
  uint32_t SubPriorityBits;

  PreemptPriorityBits = ((7UL - PriorityGroupTmp) > (uint32_t)(__NVIC_PRIO_BITS)) ? (uint32_t)(__NVIC_PRIO_BITS) : (uint32_t)(7UL - PriorityGroupTmp);
 8000e9c:	69fb      	ldr	r3, [r7, #28]
 8000e9e:	f1c3 0307 	rsb	r3, r3, #7
 8000ea2:	2b04      	cmp	r3, #4
 8000ea4:	bf28      	it	cs
 8000ea6:	2304      	movcs	r3, #4
 8000ea8:	61bb      	str	r3, [r7, #24]
  SubPriorityBits     = ((PriorityGroupTmp + (uint32_t)(__NVIC_PRIO_BITS)) < (uint32_t)7UL) ? (uint32_t)0UL : (uint32_t)((PriorityGroupTmp - 7UL) + (uint32_t)(__NVIC_PRIO_BITS));
 8000eaa:	69fb      	ldr	r3, [r7, #28]
 8000eac:	3304      	adds	r3, #4
 8000eae:	2b06      	cmp	r3, #6
 8000eb0:	d902      	bls.n	8000eb8 <NVIC_EncodePriority+0x30>
 8000eb2:	69fb      	ldr	r3, [r7, #28]
 8000eb4:	3b03      	subs	r3, #3
 8000eb6:	e000      	b.n	8000eba <NVIC_EncodePriority+0x32>
 8000eb8:	2300      	movs	r3, #0
 8000eba:	617b      	str	r3, [r7, #20]

  return (
           ((PreemptPriority & (uint32_t)((1UL << (PreemptPriorityBits)) - 1UL)) << SubPriorityBits) |
 8000ebc:	f04f 32ff 	mov.w	r2, #4294967295
 8000ec0:	69bb      	ldr	r3, [r7, #24]
 8000ec2:	fa02 f303 	lsl.w	r3, r2, r3
 8000ec6:	43da      	mvns	r2, r3
 8000ec8:	68bb      	ldr	r3, [r7, #8]
 8000eca:	401a      	ands	r2, r3
 8000ecc:	697b      	ldr	r3, [r7, #20]
 8000ece:	409a      	lsls	r2, r3
           ((SubPriority     & (uint32_t)((1UL << (SubPriorityBits    )) - 1UL)))
 8000ed0:	f04f 31ff 	mov.w	r1, #4294967295
 8000ed4:	697b      	ldr	r3, [r7, #20]
 8000ed6:	fa01 f303 	lsl.w	r3, r1, r3
 8000eda:	43d9      	mvns	r1, r3
 8000edc:	687b      	ldr	r3, [r7, #4]
 8000ede:	400b      	ands	r3, r1
           ((PreemptPriority & (uint32_t)((1UL << (PreemptPriorityBits)) - 1UL)) << SubPriorityBits) |
 8000ee0:	4313      	orrs	r3, r2
         );
}
 8000ee2:	4618      	mov	r0, r3
 8000ee4:	3724      	adds	r7, #36	; 0x24
 8000ee6:	46bd      	mov	sp, r7
 8000ee8:	f85d 7b04 	ldr.w	r7, [sp], #4
 8000eec:	4770      	bx	lr
	...

08000ef0 <SysTick_Config>:
  \note    When the variable <b>__Vendor_SysTickConfig</b> is set to 1, then the
           function <b>SysTick_Config</b> is not included. In this case, the file <b><i>device</i>.h</b>
           must contain a vendor-specific implementation of this function.
 */
__STATIC_INLINE uint32_t SysTick_Config(uint32_t ticks)
{
 8000ef0:	b580      	push	{r7, lr}
 8000ef2:	b082      	sub	sp, #8
 8000ef4:	af00      	add	r7, sp, #0
 8000ef6:	6078      	str	r0, [r7, #4]
  if ((ticks - 1UL) > SysTick_LOAD_RELOAD_Msk)
 8000ef8:	687b      	ldr	r3, [r7, #4]
 8000efa:	3b01      	subs	r3, #1
 8000efc:	f1b3 7f80 	cmp.w	r3, #16777216	; 0x1000000
 8000f00:	d301      	bcc.n	8000f06 <SysTick_Config+0x16>
  {
    return (1UL);                                                   /* Reload value impossible */
 8000f02:	2301      	movs	r3, #1
 8000f04:	e00f      	b.n	8000f26 <SysTick_Config+0x36>
  }

  SysTick->LOAD  = (uint32_t)(ticks - 1UL);                         /* set reload register */
 8000f06:	4a0a      	ldr	r2, [pc, #40]	; (8000f30 <SysTick_Config+0x40>)
 8000f08:	687b      	ldr	r3, [r7, #4]
 8000f0a:	3b01      	subs	r3, #1
 8000f0c:	6053      	str	r3, [r2, #4]
  NVIC_SetPriority (SysTick_IRQn, (1UL << __NVIC_PRIO_BITS) - 1UL); /* set Priority for Systick Interrupt */
 8000f0e:	210f      	movs	r1, #15
 8000f10:	f04f 30ff 	mov.w	r0, #4294967295
 8000f14:	f7ff ff8e 	bl	8000e34 <__NVIC_SetPriority>
  SysTick->VAL   = 0UL;                                             /* Load the SysTick Counter Value */
 8000f18:	4b05      	ldr	r3, [pc, #20]	; (8000f30 <SysTick_Config+0x40>)
 8000f1a:	2200      	movs	r2, #0
 8000f1c:	609a      	str	r2, [r3, #8]
  SysTick->CTRL  = SysTick_CTRL_CLKSOURCE_Msk |
 8000f1e:	4b04      	ldr	r3, [pc, #16]	; (8000f30 <SysTick_Config+0x40>)
 8000f20:	2207      	movs	r2, #7
 8000f22:	601a      	str	r2, [r3, #0]
                   SysTick_CTRL_TICKINT_Msk   |
                   SysTick_CTRL_ENABLE_Msk;                         /* Enable SysTick IRQ and SysTick Timer */
  return (0UL);                                                     /* Function successful */
 8000f24:	2300      	movs	r3, #0
}
 8000f26:	4618      	mov	r0, r3
 8000f28:	3708      	adds	r7, #8
 8000f2a:	46bd      	mov	sp, r7
 8000f2c:	bd80      	pop	{r7, pc}
 8000f2e:	bf00      	nop
 8000f30:	e000e010 	.word	0xe000e010

08000f34 <HAL_NVIC_SetPriorityGrouping>:
  * @note   When the NVIC_PriorityGroup_0 is selected, IRQ preemption is no more possible. 
  *         The pending IRQ priority will be managed only by the subpriority. 
  * @retval None
  */
void HAL_NVIC_SetPriorityGrouping(uint32_t PriorityGroup)
{
 8000f34:	b580      	push	{r7, lr}
 8000f36:	b082      	sub	sp, #8
 8000f38:	af00      	add	r7, sp, #0
 8000f3a:	6078      	str	r0, [r7, #4]
  /* Check the parameters */
  assert_param(IS_NVIC_PRIORITY_GROUP(PriorityGroup));
  
  /* Set the PRIGROUP[10:8] bits according to the PriorityGroup parameter value */
  NVIC_SetPriorityGrouping(PriorityGroup);
 8000f3c:	6878      	ldr	r0, [r7, #4]
 8000f3e:	f7ff ff29 	bl	8000d94 <__NVIC_SetPriorityGrouping>
}
 8000f42:	bf00      	nop
 8000f44:	3708      	adds	r7, #8
 8000f46:	46bd      	mov	sp, r7
 8000f48:	bd80      	pop	{r7, pc}

08000f4a <HAL_NVIC_SetPriority>:
  *         This parameter can be a value between 0 and 15
  *         A lower priority value indicates a higher priority.          
  * @retval None
  */
void HAL_NVIC_SetPriority(IRQn_Type IRQn, uint32_t PreemptPriority, uint32_t SubPriority)
{ 
 8000f4a:	b580      	push	{r7, lr}
 8000f4c:	b086      	sub	sp, #24
 8000f4e:	af00      	add	r7, sp, #0
 8000f50:	4603      	mov	r3, r0
 8000f52:	60b9      	str	r1, [r7, #8]
 8000f54:	607a      	str	r2, [r7, #4]
 8000f56:	73fb      	strb	r3, [r7, #15]
  uint32_t prioritygroup = 0x00U;
 8000f58:	2300      	movs	r3, #0
 8000f5a:	617b      	str	r3, [r7, #20]
  
  /* Check the parameters */
  assert_param(IS_NVIC_SUB_PRIORITY(SubPriority));
  assert_param(IS_NVIC_PREEMPTION_PRIORITY(PreemptPriority));
  
  prioritygroup = NVIC_GetPriorityGrouping();
 8000f5c:	f7ff ff3e 	bl	8000ddc <__NVIC_GetPriorityGrouping>
 8000f60:	6178      	str	r0, [r7, #20]
  
  NVIC_SetPriority(IRQn, NVIC_EncodePriority(prioritygroup, PreemptPriority, SubPriority));
 8000f62:	687a      	ldr	r2, [r7, #4]
 8000f64:	68b9      	ldr	r1, [r7, #8]
 8000f66:	6978      	ldr	r0, [r7, #20]
 8000f68:	f7ff ff8e 	bl	8000e88 <NVIC_EncodePriority>
 8000f6c:	4602      	mov	r2, r0
 8000f6e:	f997 300f 	ldrsb.w	r3, [r7, #15]
 8000f72:	4611      	mov	r1, r2
 8000f74:	4618      	mov	r0, r3
 8000f76:	f7ff ff5d 	bl	8000e34 <__NVIC_SetPriority>
}
 8000f7a:	bf00      	nop
 8000f7c:	3718      	adds	r7, #24
 8000f7e:	46bd      	mov	sp, r7
 8000f80:	bd80      	pop	{r7, pc}

08000f82 <HAL_NVIC_EnableIRQ>:
  *         This parameter can be an enumerator of IRQn_Type enumeration
  *         (For the complete STM32 Devices IRQ Channels list, please refer to the appropriate CMSIS device file (stm32f4xxxx.h))
  * @retval None
  */
void HAL_NVIC_EnableIRQ(IRQn_Type IRQn)
{
 8000f82:	b580      	push	{r7, lr}
 8000f84:	b082      	sub	sp, #8
 8000f86:	af00      	add	r7, sp, #0
 8000f88:	4603      	mov	r3, r0
 8000f8a:	71fb      	strb	r3, [r7, #7]
  /* Check the parameters */
  assert_param(IS_NVIC_DEVICE_IRQ(IRQn));
  
  /* Enable interrupt */
  NVIC_EnableIRQ(IRQn);
 8000f8c:	f997 3007 	ldrsb.w	r3, [r7, #7]
 8000f90:	4618      	mov	r0, r3
 8000f92:	f7ff ff31 	bl	8000df8 <__NVIC_EnableIRQ>
}
 8000f96:	bf00      	nop
 8000f98:	3708      	adds	r7, #8
 8000f9a:	46bd      	mov	sp, r7
 8000f9c:	bd80      	pop	{r7, pc}

08000f9e <HAL_SYSTICK_Config>:
  * @param  TicksNumb Specifies the ticks Number of ticks between two interrupts.
  * @retval status:  - 0  Function succeeded.
  *                  - 1  Function failed.
  */
uint32_t HAL_SYSTICK_Config(uint32_t TicksNumb)
{
 8000f9e:	b580      	push	{r7, lr}
 8000fa0:	b082      	sub	sp, #8
 8000fa2:	af00      	add	r7, sp, #0
 8000fa4:	6078      	str	r0, [r7, #4]
   return SysTick_Config(TicksNumb);
 8000fa6:	6878      	ldr	r0, [r7, #4]
 8000fa8:	f7ff ffa2 	bl	8000ef0 <SysTick_Config>
 8000fac:	4603      	mov	r3, r0
}
 8000fae:	4618      	mov	r0, r3
 8000fb0:	3708      	adds	r7, #8
 8000fb2:	46bd      	mov	sp, r7
 8000fb4:	bd80      	pop	{r7, pc}

08000fb6 <HAL_DMA_Abort_IT>:
  * @param  hdma   pointer to a DMA_HandleTypeDef structure that contains
  *                 the configuration information for the specified DMA Stream.
  * @retval HAL status
  */
HAL_StatusTypeDef HAL_DMA_Abort_IT(DMA_HandleTypeDef *hdma)
{
 8000fb6:	b480      	push	{r7}
 8000fb8:	b083      	sub	sp, #12
 8000fba:	af00      	add	r7, sp, #0
 8000fbc:	6078      	str	r0, [r7, #4]
  if(hdma->State != HAL_DMA_STATE_BUSY)
 8000fbe:	687b      	ldr	r3, [r7, #4]
 8000fc0:	f893 3035 	ldrb.w	r3, [r3, #53]	; 0x35
 8000fc4:	b2db      	uxtb	r3, r3
 8000fc6:	2b02      	cmp	r3, #2
 8000fc8:	d004      	beq.n	8000fd4 <HAL_DMA_Abort_IT+0x1e>
  {
    hdma->ErrorCode = HAL_DMA_ERROR_NO_XFER;
 8000fca:	687b      	ldr	r3, [r7, #4]
 8000fcc:	2280      	movs	r2, #128	; 0x80
 8000fce:	655a      	str	r2, [r3, #84]	; 0x54
    return HAL_ERROR;
 8000fd0:	2301      	movs	r3, #1
 8000fd2:	e00c      	b.n	8000fee <HAL_DMA_Abort_IT+0x38>
  }
  else
  {
    /* Set Abort State  */
    hdma->State = HAL_DMA_STATE_ABORT;
 8000fd4:	687b      	ldr	r3, [r7, #4]
 8000fd6:	2205      	movs	r2, #5
 8000fd8:	f883 2035 	strb.w	r2, [r3, #53]	; 0x35
    
    /* Disable the stream */
    __HAL_DMA_DISABLE(hdma);
 8000fdc:	687b      	ldr	r3, [r7, #4]
 8000fde:	681b      	ldr	r3, [r3, #0]
 8000fe0:	681a      	ldr	r2, [r3, #0]
 8000fe2:	687b      	ldr	r3, [r7, #4]
 8000fe4:	681b      	ldr	r3, [r3, #0]
 8000fe6:	f022 0201 	bic.w	r2, r2, #1
 8000fea:	601a      	str	r2, [r3, #0]
  }

  return HAL_OK;
 8000fec:	2300      	movs	r3, #0
}
 8000fee:	4618      	mov	r0, r3
 8000ff0:	370c      	adds	r7, #12
 8000ff2:	46bd      	mov	sp, r7
 8000ff4:	f85d 7b04 	ldr.w	r7, [sp], #4
 8000ff8:	4770      	bx	lr
	...

08000ffc <HAL_GPIO_Init>:
  * @param  GPIO_Init pointer to a GPIO_InitTypeDef structure that contains
  *         the configuration information for the specified GPIO peripheral.
  * @retval None
  */
void HAL_GPIO_Init(GPIO_TypeDef  *GPIOx, GPIO_InitTypeDef *GPIO_Init)
{
 8000ffc:	b480      	push	{r7}
 8000ffe:	b089      	sub	sp, #36	; 0x24
 8001000:	af00      	add	r7, sp, #0
 8001002:	6078      	str	r0, [r7, #4]
 8001004:	6039      	str	r1, [r7, #0]
  uint32_t position;
  uint32_t ioposition = 0x00U;
 8001006:	2300      	movs	r3, #0
 8001008:	617b      	str	r3, [r7, #20]
  uint32_t iocurrent = 0x00U;
 800100a:	2300      	movs	r3, #0
 800100c:	613b      	str	r3, [r7, #16]
  uint32_t temp = 0x00U;
 800100e:	2300      	movs	r3, #0
 8001010:	61bb      	str	r3, [r7, #24]
  assert_param(IS_GPIO_ALL_INSTANCE(GPIOx));
  assert_param(IS_GPIO_PIN(GPIO_Init->Pin));
  assert_param(IS_GPIO_MODE(GPIO_Init->Mode));

  /* Configure the port pins */
  for(position = 0U; position < GPIO_NUMBER; position++)
 8001012:	2300      	movs	r3, #0
 8001014:	61fb      	str	r3, [r7, #28]
 8001016:	e16b      	b.n	80012f0 <HAL_GPIO_Init+0x2f4>
  {
    /* Get the IO position */
    ioposition = 0x01U << position;
 8001018:	2201      	movs	r2, #1
 800101a:	69fb      	ldr	r3, [r7, #28]
 800101c:	fa02 f303 	lsl.w	r3, r2, r3
 8001020:	617b      	str	r3, [r7, #20]
    /* Get the current IO position */
    iocurrent = (uint32_t)(GPIO_Init->Pin) & ioposition;
 8001022:	683b      	ldr	r3, [r7, #0]
 8001024:	681b      	ldr	r3, [r3, #0]
 8001026:	697a      	ldr	r2, [r7, #20]
 8001028:	4013      	ands	r3, r2
 800102a:	613b      	str	r3, [r7, #16]

    if(iocurrent == ioposition)
 800102c:	693a      	ldr	r2, [r7, #16]
 800102e:	697b      	ldr	r3, [r7, #20]
 8001030:	429a      	cmp	r2, r3
 8001032:	f040 815a 	bne.w	80012ea <HAL_GPIO_Init+0x2ee>
    {
      /*--------------------- GPIO Mode Configuration ------------------------*/
      /* In case of Output or Alternate function mode selection */
      if(((GPIO_Init->Mode & GPIO_MODE) == MODE_OUTPUT) || \
 8001036:	683b      	ldr	r3, [r7, #0]
 8001038:	685b      	ldr	r3, [r3, #4]
 800103a:	f003 0303 	and.w	r3, r3, #3
 800103e:	2b01      	cmp	r3, #1
 8001040:	d005      	beq.n	800104e <HAL_GPIO_Init+0x52>
          (GPIO_Init->Mode & GPIO_MODE) == MODE_AF)
 8001042:	683b      	ldr	r3, [r7, #0]
 8001044:	685b      	ldr	r3, [r3, #4]
 8001046:	f003 0303 	and.w	r3, r3, #3
      if(((GPIO_Init->Mode & GPIO_MODE) == MODE_OUTPUT) || \
 800104a:	2b02      	cmp	r3, #2
 800104c:	d130      	bne.n	80010b0 <HAL_GPIO_Init+0xb4>
      {
        /* Check the Speed parameter */
        assert_param(IS_GPIO_SPEED(GPIO_Init->Speed));
        /* Configure the IO Speed */
        temp = GPIOx->OSPEEDR; 
 800104e:	687b      	ldr	r3, [r7, #4]
 8001050:	689b      	ldr	r3, [r3, #8]
 8001052:	61bb      	str	r3, [r7, #24]
        temp &= ~(GPIO_OSPEEDER_OSPEEDR0 << (position * 2U));
 8001054:	69fb      	ldr	r3, [r7, #28]
 8001056:	005b      	lsls	r3, r3, #1
 8001058:	2203      	movs	r2, #3
 800105a:	fa02 f303 	lsl.w	r3, r2, r3
 800105e:	43db      	mvns	r3, r3
 8001060:	69ba      	ldr	r2, [r7, #24]
 8001062:	4013      	ands	r3, r2
 8001064:	61bb      	str	r3, [r7, #24]
        temp |= (GPIO_Init->Speed << (position * 2U));
 8001066:	683b      	ldr	r3, [r7, #0]
 8001068:	68da      	ldr	r2, [r3, #12]
 800106a:	69fb      	ldr	r3, [r7, #28]
 800106c:	005b      	lsls	r3, r3, #1
 800106e:	fa02 f303 	lsl.w	r3, r2, r3
 8001072:	69ba      	ldr	r2, [r7, #24]
 8001074:	4313      	orrs	r3, r2
 8001076:	61bb      	str	r3, [r7, #24]
        GPIOx->OSPEEDR = temp;
 8001078:	687b      	ldr	r3, [r7, #4]
 800107a:	69ba      	ldr	r2, [r7, #24]
 800107c:	609a      	str	r2, [r3, #8]

        /* Configure the IO Output Type */
        temp = GPIOx->OTYPER;
 800107e:	687b      	ldr	r3, [r7, #4]
 8001080:	685b      	ldr	r3, [r3, #4]
 8001082:	61bb      	str	r3, [r7, #24]
        temp &= ~(GPIO_OTYPER_OT_0 << position) ;
 8001084:	2201      	movs	r2, #1
 8001086:	69fb      	ldr	r3, [r7, #28]
 8001088:	fa02 f303 	lsl.w	r3, r2, r3
 800108c:	43db      	mvns	r3, r3
 800108e:	69ba      	ldr	r2, [r7, #24]
 8001090:	4013      	ands	r3, r2
 8001092:	61bb      	str	r3, [r7, #24]
        temp |= (((GPIO_Init->Mode & OUTPUT_TYPE) >> OUTPUT_TYPE_Pos) << position);
 8001094:	683b      	ldr	r3, [r7, #0]
 8001096:	685b      	ldr	r3, [r3, #4]
 8001098:	091b      	lsrs	r3, r3, #4
 800109a:	f003 0201 	and.w	r2, r3, #1
 800109e:	69fb      	ldr	r3, [r7, #28]
 80010a0:	fa02 f303 	lsl.w	r3, r2, r3
 80010a4:	69ba      	ldr	r2, [r7, #24]
 80010a6:	4313      	orrs	r3, r2
 80010a8:	61bb      	str	r3, [r7, #24]
        GPIOx->OTYPER = temp;
 80010aa:	687b      	ldr	r3, [r7, #4]
 80010ac:	69ba      	ldr	r2, [r7, #24]
 80010ae:	605a      	str	r2, [r3, #4]
       }

      if((GPIO_Init->Mode & GPIO_MODE) != MODE_ANALOG)
 80010b0:	683b      	ldr	r3, [r7, #0]
 80010b2:	685b      	ldr	r3, [r3, #4]
 80010b4:	f003 0303 	and.w	r3, r3, #3
 80010b8:	2b03      	cmp	r3, #3
 80010ba:	d017      	beq.n	80010ec <HAL_GPIO_Init+0xf0>
      {
        /* Check the parameters */
        assert_param(IS_GPIO_PULL(GPIO_Init->Pull));
        
        /* Activate the Pull-up or Pull down resistor for the current IO */
        temp = GPIOx->PUPDR;
 80010bc:	687b      	ldr	r3, [r7, #4]
 80010be:	68db      	ldr	r3, [r3, #12]
 80010c0:	61bb      	str	r3, [r7, #24]
        temp &= ~(GPIO_PUPDR_PUPDR0 << (position * 2U));
 80010c2:	69fb      	ldr	r3, [r7, #28]
 80010c4:	005b      	lsls	r3, r3, #1
 80010c6:	2203      	movs	r2, #3
 80010c8:	fa02 f303 	lsl.w	r3, r2, r3
 80010cc:	43db      	mvns	r3, r3
 80010ce:	69ba      	ldr	r2, [r7, #24]
 80010d0:	4013      	ands	r3, r2
 80010d2:	61bb      	str	r3, [r7, #24]
        temp |= ((GPIO_Init->Pull) << (position * 2U));
 80010d4:	683b      	ldr	r3, [r7, #0]
 80010d6:	689a      	ldr	r2, [r3, #8]
 80010d8:	69fb      	ldr	r3, [r7, #28]
 80010da:	005b      	lsls	r3, r3, #1
 80010dc:	fa02 f303 	lsl.w	r3, r2, r3
 80010e0:	69ba      	ldr	r2, [r7, #24]
 80010e2:	4313      	orrs	r3, r2
 80010e4:	61bb      	str	r3, [r7, #24]
        GPIOx->PUPDR = temp;
 80010e6:	687b      	ldr	r3, [r7, #4]
 80010e8:	69ba      	ldr	r2, [r7, #24]
 80010ea:	60da      	str	r2, [r3, #12]
      }

      /* In case of Alternate function mode selection */
      if((GPIO_Init->Mode & GPIO_MODE) == MODE_AF)
 80010ec:	683b      	ldr	r3, [r7, #0]
 80010ee:	685b      	ldr	r3, [r3, #4]
 80010f0:	f003 0303 	and.w	r3, r3, #3
 80010f4:	2b02      	cmp	r3, #2
 80010f6:	d123      	bne.n	8001140 <HAL_GPIO_Init+0x144>
      {
        /* Check the Alternate function parameter */
        assert_param(IS_GPIO_AF(GPIO_Init->Alternate));
        /* Configure Alternate function mapped with the current IO */
        temp = GPIOx->AFR[position >> 3U];
 80010f8:	69fb      	ldr	r3, [r7, #28]
 80010fa:	08da      	lsrs	r2, r3, #3
 80010fc:	687b      	ldr	r3, [r7, #4]
 80010fe:	3208      	adds	r2, #8
 8001100:	f853 3022 	ldr.w	r3, [r3, r2, lsl #2]
 8001104:	61bb      	str	r3, [r7, #24]
        temp &= ~(0xFU << ((uint32_t)(position & 0x07U) * 4U)) ;
 8001106:	69fb      	ldr	r3, [r7, #28]
 8001108:	f003 0307 	and.w	r3, r3, #7
 800110c:	009b      	lsls	r3, r3, #2
 800110e:	220f      	movs	r2, #15
 8001110:	fa02 f303 	lsl.w	r3, r2, r3
 8001114:	43db      	mvns	r3, r3
 8001116:	69ba      	ldr	r2, [r7, #24]
 8001118:	4013      	ands	r3, r2
 800111a:	61bb      	str	r3, [r7, #24]
        temp |= ((uint32_t)(GPIO_Init->Alternate) << (((uint32_t)position & 0x07U) * 4U));
 800111c:	683b      	ldr	r3, [r7, #0]
 800111e:	691a      	ldr	r2, [r3, #16]
 8001120:	69fb      	ldr	r3, [r7, #28]
 8001122:	f003 0307 	and.w	r3, r3, #7
 8001126:	009b      	lsls	r3, r3, #2
 8001128:	fa02 f303 	lsl.w	r3, r2, r3
 800112c:	69ba      	ldr	r2, [r7, #24]
 800112e:	4313      	orrs	r3, r2
 8001130:	61bb      	str	r3, [r7, #24]
        GPIOx->AFR[position >> 3U] = temp;
 8001132:	69fb      	ldr	r3, [r7, #28]
 8001134:	08da      	lsrs	r2, r3, #3
 8001136:	687b      	ldr	r3, [r7, #4]
 8001138:	3208      	adds	r2, #8
 800113a:	69b9      	ldr	r1, [r7, #24]
 800113c:	f843 1022 	str.w	r1, [r3, r2, lsl #2]
      }

      /* Configure IO Direction mode (Input, Output, Alternate or Analog) */
      temp = GPIOx->MODER;
 8001140:	687b      	ldr	r3, [r7, #4]
 8001142:	681b      	ldr	r3, [r3, #0]
 8001144:	61bb      	str	r3, [r7, #24]
      temp &= ~(GPIO_MODER_MODER0 << (position * 2U));
 8001146:	69fb      	ldr	r3, [r7, #28]
 8001148:	005b      	lsls	r3, r3, #1
 800114a:	2203      	movs	r2, #3
 800114c:	fa02 f303 	lsl.w	r3, r2, r3
 8001150:	43db      	mvns	r3, r3
 8001152:	69ba      	ldr	r2, [r7, #24]
 8001154:	4013      	ands	r3, r2
 8001156:	61bb      	str	r3, [r7, #24]
      temp |= ((GPIO_Init->Mode & GPIO_MODE) << (position * 2U));
 8001158:	683b      	ldr	r3, [r7, #0]
 800115a:	685b      	ldr	r3, [r3, #4]
 800115c:	f003 0203 	and.w	r2, r3, #3
 8001160:	69fb      	ldr	r3, [r7, #28]
 8001162:	005b      	lsls	r3, r3, #1
 8001164:	fa02 f303 	lsl.w	r3, r2, r3
 8001168:	69ba      	ldr	r2, [r7, #24]
 800116a:	4313      	orrs	r3, r2
 800116c:	61bb      	str	r3, [r7, #24]
      GPIOx->MODER = temp;
 800116e:	687b      	ldr	r3, [r7, #4]
 8001170:	69ba      	ldr	r2, [r7, #24]
 8001172:	601a      	str	r2, [r3, #0]

      /*--------------------- EXTI Mode Configuration ------------------------*/
      /* Configure the External Interrupt or event for the current IO */
      if((GPIO_Init->Mode & EXTI_MODE) != 0x00U)
 8001174:	683b      	ldr	r3, [r7, #0]
 8001176:	685b      	ldr	r3, [r3, #4]
 8001178:	f403 3340 	and.w	r3, r3, #196608	; 0x30000
 800117c:	2b00      	cmp	r3, #0
 800117e:	f000 80b4 	beq.w	80012ea <HAL_GPIO_Init+0x2ee>
      {
        /* Enable SYSCFG Clock */
        __HAL_RCC_SYSCFG_CLK_ENABLE();
 8001182:	2300      	movs	r3, #0
 8001184:	60fb      	str	r3, [r7, #12]
 8001186:	4b60      	ldr	r3, [pc, #384]	; (8001308 <HAL_GPIO_Init+0x30c>)
 8001188:	6c5b      	ldr	r3, [r3, #68]	; 0x44
 800118a:	4a5f      	ldr	r2, [pc, #380]	; (8001308 <HAL_GPIO_Init+0x30c>)
 800118c:	f443 4380 	orr.w	r3, r3, #16384	; 0x4000
 8001190:	6453      	str	r3, [r2, #68]	; 0x44
 8001192:	4b5d      	ldr	r3, [pc, #372]	; (8001308 <HAL_GPIO_Init+0x30c>)
 8001194:	6c5b      	ldr	r3, [r3, #68]	; 0x44
 8001196:	f403 4380 	and.w	r3, r3, #16384	; 0x4000
 800119a:	60fb      	str	r3, [r7, #12]
 800119c:	68fb      	ldr	r3, [r7, #12]

        temp = SYSCFG->EXTICR[position >> 2U];
 800119e:	4a5b      	ldr	r2, [pc, #364]	; (800130c <HAL_GPIO_Init+0x310>)
 80011a0:	69fb      	ldr	r3, [r7, #28]
 80011a2:	089b      	lsrs	r3, r3, #2
 80011a4:	3302      	adds	r3, #2
 80011a6:	f852 3023 	ldr.w	r3, [r2, r3, lsl #2]
 80011aa:	61bb      	str	r3, [r7, #24]
        temp &= ~(0x0FU << (4U * (position & 0x03U)));
 80011ac:	69fb      	ldr	r3, [r7, #28]
 80011ae:	f003 0303 	and.w	r3, r3, #3
 80011b2:	009b      	lsls	r3, r3, #2
 80011b4:	220f      	movs	r2, #15
 80011b6:	fa02 f303 	lsl.w	r3, r2, r3
 80011ba:	43db      	mvns	r3, r3
 80011bc:	69ba      	ldr	r2, [r7, #24]
 80011be:	4013      	ands	r3, r2
 80011c0:	61bb      	str	r3, [r7, #24]
        temp |= ((uint32_t)(GPIO_GET_INDEX(GPIOx)) << (4U * (position & 0x03U)));
 80011c2:	687b      	ldr	r3, [r7, #4]
 80011c4:	4a52      	ldr	r2, [pc, #328]	; (8001310 <HAL_GPIO_Init+0x314>)
 80011c6:	4293      	cmp	r3, r2
 80011c8:	d02b      	beq.n	8001222 <HAL_GPIO_Init+0x226>
 80011ca:	687b      	ldr	r3, [r7, #4]
 80011cc:	4a51      	ldr	r2, [pc, #324]	; (8001314 <HAL_GPIO_Init+0x318>)
 80011ce:	4293      	cmp	r3, r2
 80011d0:	d025      	beq.n	800121e <HAL_GPIO_Init+0x222>
 80011d2:	687b      	ldr	r3, [r7, #4]
 80011d4:	4a50      	ldr	r2, [pc, #320]	; (8001318 <HAL_GPIO_Init+0x31c>)
 80011d6:	4293      	cmp	r3, r2
 80011d8:	d01f      	beq.n	800121a <HAL_GPIO_Init+0x21e>
 80011da:	687b      	ldr	r3, [r7, #4]
 80011dc:	4a4f      	ldr	r2, [pc, #316]	; (800131c <HAL_GPIO_Init+0x320>)
 80011de:	4293      	cmp	r3, r2
 80011e0:	d019      	beq.n	8001216 <HAL_GPIO_Init+0x21a>
 80011e2:	687b      	ldr	r3, [r7, #4]
 80011e4:	4a4e      	ldr	r2, [pc, #312]	; (8001320 <HAL_GPIO_Init+0x324>)
 80011e6:	4293      	cmp	r3, r2
 80011e8:	d013      	beq.n	8001212 <HAL_GPIO_Init+0x216>
 80011ea:	687b      	ldr	r3, [r7, #4]
 80011ec:	4a4d      	ldr	r2, [pc, #308]	; (8001324 <HAL_GPIO_Init+0x328>)
 80011ee:	4293      	cmp	r3, r2
 80011f0:	d00d      	beq.n	800120e <HAL_GPIO_Init+0x212>
 80011f2:	687b      	ldr	r3, [r7, #4]
 80011f4:	4a4c      	ldr	r2, [pc, #304]	; (8001328 <HAL_GPIO_Init+0x32c>)
 80011f6:	4293      	cmp	r3, r2
 80011f8:	d007      	beq.n	800120a <HAL_GPIO_Init+0x20e>
 80011fa:	687b      	ldr	r3, [r7, #4]
 80011fc:	4a4b      	ldr	r2, [pc, #300]	; (800132c <HAL_GPIO_Init+0x330>)
 80011fe:	4293      	cmp	r3, r2
 8001200:	d101      	bne.n	8001206 <HAL_GPIO_Init+0x20a>
 8001202:	2307      	movs	r3, #7
 8001204:	e00e      	b.n	8001224 <HAL_GPIO_Init+0x228>
 8001206:	2308      	movs	r3, #8
 8001208:	e00c      	b.n	8001224 <HAL_GPIO_Init+0x228>
 800120a:	2306      	movs	r3, #6
 800120c:	e00a      	b.n	8001224 <HAL_GPIO_Init+0x228>
 800120e:	2305      	movs	r3, #5
 8001210:	e008      	b.n	8001224 <HAL_GPIO_Init+0x228>
 8001212:	2304      	movs	r3, #4
 8001214:	e006      	b.n	8001224 <HAL_GPIO_Init+0x228>
 8001216:	2303      	movs	r3, #3
 8001218:	e004      	b.n	8001224 <HAL_GPIO_Init+0x228>
 800121a:	2302      	movs	r3, #2
 800121c:	e002      	b.n	8001224 <HAL_GPIO_Init+0x228>
 800121e:	2301      	movs	r3, #1
 8001220:	e000      	b.n	8001224 <HAL_GPIO_Init+0x228>
 8001222:	2300      	movs	r3, #0
 8001224:	69fa      	ldr	r2, [r7, #28]
 8001226:	f002 0203 	and.w	r2, r2, #3
 800122a:	0092      	lsls	r2, r2, #2
 800122c:	4093      	lsls	r3, r2
 800122e:	69ba      	ldr	r2, [r7, #24]
 8001230:	4313      	orrs	r3, r2
 8001232:	61bb      	str	r3, [r7, #24]
        SYSCFG->EXTICR[position >> 2U] = temp;
 8001234:	4935      	ldr	r1, [pc, #212]	; (800130c <HAL_GPIO_Init+0x310>)
 8001236:	69fb      	ldr	r3, [r7, #28]
 8001238:	089b      	lsrs	r3, r3, #2
 800123a:	3302      	adds	r3, #2
 800123c:	69ba      	ldr	r2, [r7, #24]
 800123e:	f841 2023 	str.w	r2, [r1, r3, lsl #2]

        /* Clear Rising Falling edge configuration */
        temp = EXTI->RTSR;
 8001242:	4b3b      	ldr	r3, [pc, #236]	; (8001330 <HAL_GPIO_Init+0x334>)
 8001244:	689b      	ldr	r3, [r3, #8]
 8001246:	61bb      	str	r3, [r7, #24]
        temp &= ~((uint32_t)iocurrent);
 8001248:	693b      	ldr	r3, [r7, #16]
 800124a:	43db      	mvns	r3, r3
 800124c:	69ba      	ldr	r2, [r7, #24]
 800124e:	4013      	ands	r3, r2
 8001250:	61bb      	str	r3, [r7, #24]
        if((GPIO_Init->Mode & TRIGGER_RISING) != 0x00U)
 8001252:	683b      	ldr	r3, [r7, #0]
 8001254:	685b      	ldr	r3, [r3, #4]
 8001256:	f403 1380 	and.w	r3, r3, #1048576	; 0x100000
 800125a:	2b00      	cmp	r3, #0
 800125c:	d003      	beq.n	8001266 <HAL_GPIO_Init+0x26a>
        {
          temp |= iocurrent;
 800125e:	69ba      	ldr	r2, [r7, #24]
 8001260:	693b      	ldr	r3, [r7, #16]
 8001262:	4313      	orrs	r3, r2
 8001264:	61bb      	str	r3, [r7, #24]
        }
        EXTI->RTSR = temp;
 8001266:	4a32      	ldr	r2, [pc, #200]	; (8001330 <HAL_GPIO_Init+0x334>)
 8001268:	69bb      	ldr	r3, [r7, #24]
 800126a:	6093      	str	r3, [r2, #8]

        temp = EXTI->FTSR;
 800126c:	4b30      	ldr	r3, [pc, #192]	; (8001330 <HAL_GPIO_Init+0x334>)
 800126e:	68db      	ldr	r3, [r3, #12]
 8001270:	61bb      	str	r3, [r7, #24]
        temp &= ~((uint32_t)iocurrent);
 8001272:	693b      	ldr	r3, [r7, #16]
 8001274:	43db      	mvns	r3, r3
 8001276:	69ba      	ldr	r2, [r7, #24]
 8001278:	4013      	ands	r3, r2
 800127a:	61bb      	str	r3, [r7, #24]
        if((GPIO_Init->Mode & TRIGGER_FALLING) != 0x00U)
 800127c:	683b      	ldr	r3, [r7, #0]
 800127e:	685b      	ldr	r3, [r3, #4]
 8001280:	f403 1300 	and.w	r3, r3, #2097152	; 0x200000
 8001284:	2b00      	cmp	r3, #0
 8001286:	d003      	beq.n	8001290 <HAL_GPIO_Init+0x294>
        {
          temp |= iocurrent;
 8001288:	69ba      	ldr	r2, [r7, #24]
 800128a:	693b      	ldr	r3, [r7, #16]
 800128c:	4313      	orrs	r3, r2
 800128e:	61bb      	str	r3, [r7, #24]
        }
        EXTI->FTSR = temp;
 8001290:	4a27      	ldr	r2, [pc, #156]	; (8001330 <HAL_GPIO_Init+0x334>)
 8001292:	69bb      	ldr	r3, [r7, #24]
 8001294:	60d3      	str	r3, [r2, #12]

        temp = EXTI->EMR;
 8001296:	4b26      	ldr	r3, [pc, #152]	; (8001330 <HAL_GPIO_Init+0x334>)
 8001298:	685b      	ldr	r3, [r3, #4]
 800129a:	61bb      	str	r3, [r7, #24]
        temp &= ~((uint32_t)iocurrent);
 800129c:	693b      	ldr	r3, [r7, #16]
 800129e:	43db      	mvns	r3, r3
 80012a0:	69ba      	ldr	r2, [r7, #24]
 80012a2:	4013      	ands	r3, r2
 80012a4:	61bb      	str	r3, [r7, #24]
        if((GPIO_Init->Mode & EXTI_EVT) != 0x00U)
 80012a6:	683b      	ldr	r3, [r7, #0]
 80012a8:	685b      	ldr	r3, [r3, #4]
 80012aa:	f403 3300 	and.w	r3, r3, #131072	; 0x20000
 80012ae:	2b00      	cmp	r3, #0
 80012b0:	d003      	beq.n	80012ba <HAL_GPIO_Init+0x2be>
        {
          temp |= iocurrent;
 80012b2:	69ba      	ldr	r2, [r7, #24]
 80012b4:	693b      	ldr	r3, [r7, #16]
 80012b6:	4313      	orrs	r3, r2
 80012b8:	61bb      	str	r3, [r7, #24]
        }
        EXTI->EMR = temp;
 80012ba:	4a1d      	ldr	r2, [pc, #116]	; (8001330 <HAL_GPIO_Init+0x334>)
 80012bc:	69bb      	ldr	r3, [r7, #24]
 80012be:	6053      	str	r3, [r2, #4]

        /* Clear EXTI line configuration */
        temp = EXTI->IMR;
 80012c0:	4b1b      	ldr	r3, [pc, #108]	; (8001330 <HAL_GPIO_Init+0x334>)
 80012c2:	681b      	ldr	r3, [r3, #0]
 80012c4:	61bb      	str	r3, [r7, #24]
        temp &= ~((uint32_t)iocurrent);
 80012c6:	693b      	ldr	r3, [r7, #16]
 80012c8:	43db      	mvns	r3, r3
 80012ca:	69ba      	ldr	r2, [r7, #24]
 80012cc:	4013      	ands	r3, r2
 80012ce:	61bb      	str	r3, [r7, #24]
        if((GPIO_Init->Mode & EXTI_IT) != 0x00U)
 80012d0:	683b      	ldr	r3, [r7, #0]
 80012d2:	685b      	ldr	r3, [r3, #4]
 80012d4:	f403 3380 	and.w	r3, r3, #65536	; 0x10000
 80012d8:	2b00      	cmp	r3, #0
 80012da:	d003      	beq.n	80012e4 <HAL_GPIO_Init+0x2e8>
        {
          temp |= iocurrent;
 80012dc:	69ba      	ldr	r2, [r7, #24]
 80012de:	693b      	ldr	r3, [r7, #16]
 80012e0:	4313      	orrs	r3, r2
 80012e2:	61bb      	str	r3, [r7, #24]
        }
        EXTI->IMR = temp;
 80012e4:	4a12      	ldr	r2, [pc, #72]	; (8001330 <HAL_GPIO_Init+0x334>)
 80012e6:	69bb      	ldr	r3, [r7, #24]
 80012e8:	6013      	str	r3, [r2, #0]
  for(position = 0U; position < GPIO_NUMBER; position++)
 80012ea:	69fb      	ldr	r3, [r7, #28]
 80012ec:	3301      	adds	r3, #1
 80012ee:	61fb      	str	r3, [r7, #28]
 80012f0:	69fb      	ldr	r3, [r7, #28]
 80012f2:	2b0f      	cmp	r3, #15
 80012f4:	f67f ae90 	bls.w	8001018 <HAL_GPIO_Init+0x1c>
      }
    }
  }
}
 80012f8:	bf00      	nop
 80012fa:	bf00      	nop
 80012fc:	3724      	adds	r7, #36	; 0x24
 80012fe:	46bd      	mov	sp, r7
 8001300:	f85d 7b04 	ldr.w	r7, [sp], #4
 8001304:	4770      	bx	lr
 8001306:	bf00      	nop
 8001308:	40023800 	.word	0x40023800
 800130c:	40013800 	.word	0x40013800
 8001310:	40020000 	.word	0x40020000
 8001314:	40020400 	.word	0x40020400
 8001318:	40020800 	.word	0x40020800
 800131c:	40020c00 	.word	0x40020c00
 8001320:	40021000 	.word	0x40021000
 8001324:	40021400 	.word	0x40021400
 8001328:	40021800 	.word	0x40021800
 800132c:	40021c00 	.word	0x40021c00
 8001330:	40013c00 	.word	0x40013c00

08001334 <HAL_GPIO_WritePin>:
  *            @arg GPIO_PIN_RESET: to clear the port pin
  *            @arg GPIO_PIN_SET: to set the port pin
  * @retval None
  */
void HAL_GPIO_WritePin(GPIO_TypeDef* GPIOx, uint16_t GPIO_Pin, GPIO_PinState PinState)
{
 8001334:	b480      	push	{r7}
 8001336:	b083      	sub	sp, #12
 8001338:	af00      	add	r7, sp, #0
 800133a:	6078      	str	r0, [r7, #4]
 800133c:	460b      	mov	r3, r1
 800133e:	807b      	strh	r3, [r7, #2]
 8001340:	4613      	mov	r3, r2
 8001342:	707b      	strb	r3, [r7, #1]
  /* Check the parameters */
  assert_param(IS_GPIO_PIN(GPIO_Pin));
  assert_param(IS_GPIO_PIN_ACTION(PinState));

  if(PinState != GPIO_PIN_RESET)
 8001344:	787b      	ldrb	r3, [r7, #1]
 8001346:	2b00      	cmp	r3, #0
 8001348:	d003      	beq.n	8001352 <HAL_GPIO_WritePin+0x1e>
  {
    GPIOx->BSRR = GPIO_Pin;
 800134a:	887a      	ldrh	r2, [r7, #2]
 800134c:	687b      	ldr	r3, [r7, #4]
 800134e:	619a      	str	r2, [r3, #24]
  }
  else
  {
    GPIOx->BSRR = (uint32_t)GPIO_Pin << 16U;
  }
}
 8001350:	e003      	b.n	800135a <HAL_GPIO_WritePin+0x26>
    GPIOx->BSRR = (uint32_t)GPIO_Pin << 16U;
 8001352:	887b      	ldrh	r3, [r7, #2]
 8001354:	041a      	lsls	r2, r3, #16
 8001356:	687b      	ldr	r3, [r7, #4]
 8001358:	619a      	str	r2, [r3, #24]
}
 800135a:	bf00      	nop
 800135c:	370c      	adds	r7, #12
 800135e:	46bd      	mov	sp, r7
 8001360:	f85d 7b04 	ldr.w	r7, [sp], #4
 8001364:	4770      	bx	lr
	...

08001368 <HAL_RCC_OscConfig>:
  *         supported by this API. User should request a transition to HSE Off
  *         first and then HSE On or HSE Bypass.
  * @retval HAL status
  */
__weak HAL_StatusTypeDef HAL_RCC_OscConfig(RCC_OscInitTypeDef  *RCC_OscInitStruct)
{
 8001368:	b580      	push	{r7, lr}
 800136a:	b086      	sub	sp, #24
 800136c:	af00      	add	r7, sp, #0
 800136e:	6078      	str	r0, [r7, #4]
  uint32_t tickstart, pll_config;

  /* Check Null pointer */
  if(RCC_OscInitStruct == NULL)
 8001370:	687b      	ldr	r3, [r7, #4]
 8001372:	2b00      	cmp	r3, #0
 8001374:	d101      	bne.n	800137a <HAL_RCC_OscConfig+0x12>
  {
    return HAL_ERROR;
 8001376:	2301      	movs	r3, #1
 8001378:	e267      	b.n	800184a <HAL_RCC_OscConfig+0x4e2>
  }

  /* Check the parameters */
  assert_param(IS_RCC_OSCILLATORTYPE(RCC_OscInitStruct->OscillatorType));
  /*------------------------------- HSE Configuration ------------------------*/
  if(((RCC_OscInitStruct->OscillatorType) & RCC_OSCILLATORTYPE_HSE) == RCC_OSCILLATORTYPE_HSE)
 800137a:	687b      	ldr	r3, [r7, #4]
 800137c:	681b      	ldr	r3, [r3, #0]
 800137e:	f003 0301 	and.w	r3, r3, #1
 8001382:	2b00      	cmp	r3, #0
 8001384:	d075      	beq.n	8001472 <HAL_RCC_OscConfig+0x10a>
  {
    /* Check the parameters */
    assert_param(IS_RCC_HSE(RCC_OscInitStruct->HSEState));
    /* When the HSE is used as system clock or clock source for PLL in these cases HSE will not disabled */
    if((__HAL_RCC_GET_SYSCLK_SOURCE() == RCC_CFGR_SWS_HSE) ||\
 8001386:	4b88      	ldr	r3, [pc, #544]	; (80015a8 <HAL_RCC_OscConfig+0x240>)
 8001388:	689b      	ldr	r3, [r3, #8]
 800138a:	f003 030c 	and.w	r3, r3, #12
 800138e:	2b04      	cmp	r3, #4
 8001390:	d00c      	beq.n	80013ac <HAL_RCC_OscConfig+0x44>
      ((__HAL_RCC_GET_SYSCLK_SOURCE() == RCC_CFGR_SWS_PLL) && ((RCC->PLLCFGR & RCC_PLLCFGR_PLLSRC) == RCC_PLLCFGR_PLLSRC_HSE)))
 8001392:	4b85      	ldr	r3, [pc, #532]	; (80015a8 <HAL_RCC_OscConfig+0x240>)
 8001394:	689b      	ldr	r3, [r3, #8]
 8001396:	f003 030c 	and.w	r3, r3, #12
    if((__HAL_RCC_GET_SYSCLK_SOURCE() == RCC_CFGR_SWS_HSE) ||\
 800139a:	2b08      	cmp	r3, #8
 800139c:	d112      	bne.n	80013c4 <HAL_RCC_OscConfig+0x5c>
      ((__HAL_RCC_GET_SYSCLK_SOURCE() == RCC_CFGR_SWS_PLL) && ((RCC->PLLCFGR & RCC_PLLCFGR_PLLSRC) == RCC_PLLCFGR_PLLSRC_HSE)))
 800139e:	4b82      	ldr	r3, [pc, #520]	; (80015a8 <HAL_RCC_OscConfig+0x240>)
 80013a0:	685b      	ldr	r3, [r3, #4]
 80013a2:	f403 0380 	and.w	r3, r3, #4194304	; 0x400000
 80013a6:	f5b3 0f80 	cmp.w	r3, #4194304	; 0x400000
 80013aa:	d10b      	bne.n	80013c4 <HAL_RCC_OscConfig+0x5c>
    {
      if((__HAL_RCC_GET_FLAG(RCC_FLAG_HSERDY) != RESET) && (RCC_OscInitStruct->HSEState == RCC_HSE_OFF))
 80013ac:	4b7e      	ldr	r3, [pc, #504]	; (80015a8 <HAL_RCC_OscConfig+0x240>)
 80013ae:	681b      	ldr	r3, [r3, #0]
 80013b0:	f403 3300 	and.w	r3, r3, #131072	; 0x20000
 80013b4:	2b00      	cmp	r3, #0
 80013b6:	d05b      	beq.n	8001470 <HAL_RCC_OscConfig+0x108>
 80013b8:	687b      	ldr	r3, [r7, #4]
 80013ba:	685b      	ldr	r3, [r3, #4]
 80013bc:	2b00      	cmp	r3, #0
 80013be:	d157      	bne.n	8001470 <HAL_RCC_OscConfig+0x108>
      {
        return HAL_ERROR;
 80013c0:	2301      	movs	r3, #1
 80013c2:	e242      	b.n	800184a <HAL_RCC_OscConfig+0x4e2>
      }
    }
    else
    {
      /* Set the new HSE configuration ---------------------------------------*/
      __HAL_RCC_HSE_CONFIG(RCC_OscInitStruct->HSEState);
 80013c4:	687b      	ldr	r3, [r7, #4]
 80013c6:	685b      	ldr	r3, [r3, #4]
 80013c8:	f5b3 3f80 	cmp.w	r3, #65536	; 0x10000
 80013cc:	d106      	bne.n	80013dc <HAL_RCC_OscConfig+0x74>
 80013ce:	4b76      	ldr	r3, [pc, #472]	; (80015a8 <HAL_RCC_OscConfig+0x240>)
 80013d0:	681b      	ldr	r3, [r3, #0]
 80013d2:	4a75      	ldr	r2, [pc, #468]	; (80015a8 <HAL_RCC_OscConfig+0x240>)
 80013d4:	f443 3380 	orr.w	r3, r3, #65536	; 0x10000
 80013d8:	6013      	str	r3, [r2, #0]
 80013da:	e01d      	b.n	8001418 <HAL_RCC_OscConfig+0xb0>
 80013dc:	687b      	ldr	r3, [r7, #4]
 80013de:	685b      	ldr	r3, [r3, #4]
 80013e0:	f5b3 2fa0 	cmp.w	r3, #327680	; 0x50000
 80013e4:	d10c      	bne.n	8001400 <HAL_RCC_OscConfig+0x98>
 80013e6:	4b70      	ldr	r3, [pc, #448]	; (80015a8 <HAL_RCC_OscConfig+0x240>)
 80013e8:	681b      	ldr	r3, [r3, #0]
 80013ea:	4a6f      	ldr	r2, [pc, #444]	; (80015a8 <HAL_RCC_OscConfig+0x240>)
 80013ec:	f443 2380 	orr.w	r3, r3, #262144	; 0x40000
 80013f0:	6013      	str	r3, [r2, #0]
 80013f2:	4b6d      	ldr	r3, [pc, #436]	; (80015a8 <HAL_RCC_OscConfig+0x240>)
 80013f4:	681b      	ldr	r3, [r3, #0]
 80013f6:	4a6c      	ldr	r2, [pc, #432]	; (80015a8 <HAL_RCC_OscConfig+0x240>)
 80013f8:	f443 3380 	orr.w	r3, r3, #65536	; 0x10000
 80013fc:	6013      	str	r3, [r2, #0]
 80013fe:	e00b      	b.n	8001418 <HAL_RCC_OscConfig+0xb0>
 8001400:	4b69      	ldr	r3, [pc, #420]	; (80015a8 <HAL_RCC_OscConfig+0x240>)
 8001402:	681b      	ldr	r3, [r3, #0]
 8001404:	4a68      	ldr	r2, [pc, #416]	; (80015a8 <HAL_RCC_OscConfig+0x240>)
 8001406:	f423 3380 	bic.w	r3, r3, #65536	; 0x10000
 800140a:	6013      	str	r3, [r2, #0]
 800140c:	4b66      	ldr	r3, [pc, #408]	; (80015a8 <HAL_RCC_OscConfig+0x240>)
 800140e:	681b      	ldr	r3, [r3, #0]
 8001410:	4a65      	ldr	r2, [pc, #404]	; (80015a8 <HAL_RCC_OscConfig+0x240>)
 8001412:	f423 2380 	bic.w	r3, r3, #262144	; 0x40000
 8001416:	6013      	str	r3, [r2, #0]

      /* Check the HSE State */
      if((RCC_OscInitStruct->HSEState) != RCC_HSE_OFF)
 8001418:	687b      	ldr	r3, [r7, #4]
 800141a:	685b      	ldr	r3, [r3, #4]
 800141c:	2b00      	cmp	r3, #0
 800141e:	d013      	beq.n	8001448 <HAL_RCC_OscConfig+0xe0>
      {
        /* Get Start Tick */
        tickstart = HAL_GetTick();
 8001420:	f7ff fcac 	bl	8000d7c <HAL_GetTick>
 8001424:	6138      	str	r0, [r7, #16]

        /* Wait till HSE is ready */
        while(__HAL_RCC_GET_FLAG(RCC_FLAG_HSERDY) == RESET)
 8001426:	e008      	b.n	800143a <HAL_RCC_OscConfig+0xd2>
        {
          if((HAL_GetTick() - tickstart ) > HSE_TIMEOUT_VALUE)
 8001428:	f7ff fca8 	bl	8000d7c <HAL_GetTick>
 800142c:	4602      	mov	r2, r0
 800142e:	693b      	ldr	r3, [r7, #16]
 8001430:	1ad3      	subs	r3, r2, r3
 8001432:	2b64      	cmp	r3, #100	; 0x64
 8001434:	d901      	bls.n	800143a <HAL_RCC_OscConfig+0xd2>
          {
            return HAL_TIMEOUT;
 8001436:	2303      	movs	r3, #3
 8001438:	e207      	b.n	800184a <HAL_RCC_OscConfig+0x4e2>
        while(__HAL_RCC_GET_FLAG(RCC_FLAG_HSERDY) == RESET)
 800143a:	4b5b      	ldr	r3, [pc, #364]	; (80015a8 <HAL_RCC_OscConfig+0x240>)
 800143c:	681b      	ldr	r3, [r3, #0]
 800143e:	f403 3300 	and.w	r3, r3, #131072	; 0x20000
 8001442:	2b00      	cmp	r3, #0
 8001444:	d0f0      	beq.n	8001428 <HAL_RCC_OscConfig+0xc0>
 8001446:	e014      	b.n	8001472 <HAL_RCC_OscConfig+0x10a>
        }
      }
      else
      {
        /* Get Start Tick */
        tickstart = HAL_GetTick();
 8001448:	f7ff fc98 	bl	8000d7c <HAL_GetTick>
 800144c:	6138      	str	r0, [r7, #16]

        /* Wait till HSE is bypassed or disabled */
        while(__HAL_RCC_GET_FLAG(RCC_FLAG_HSERDY) != RESET)
 800144e:	e008      	b.n	8001462 <HAL_RCC_OscConfig+0xfa>
        {
          if((HAL_GetTick() - tickstart ) > HSE_TIMEOUT_VALUE)
 8001450:	f7ff fc94 	bl	8000d7c <HAL_GetTick>
 8001454:	4602      	mov	r2, r0
 8001456:	693b      	ldr	r3, [r7, #16]
 8001458:	1ad3      	subs	r3, r2, r3
 800145a:	2b64      	cmp	r3, #100	; 0x64
 800145c:	d901      	bls.n	8001462 <HAL_RCC_OscConfig+0xfa>
          {
            return HAL_TIMEOUT;
 800145e:	2303      	movs	r3, #3
 8001460:	e1f3      	b.n	800184a <HAL_RCC_OscConfig+0x4e2>
        while(__HAL_RCC_GET_FLAG(RCC_FLAG_HSERDY) != RESET)
 8001462:	4b51      	ldr	r3, [pc, #324]	; (80015a8 <HAL_RCC_OscConfig+0x240>)
 8001464:	681b      	ldr	r3, [r3, #0]
 8001466:	f403 3300 	and.w	r3, r3, #131072	; 0x20000
 800146a:	2b00      	cmp	r3, #0
 800146c:	d1f0      	bne.n	8001450 <HAL_RCC_OscConfig+0xe8>
 800146e:	e000      	b.n	8001472 <HAL_RCC_OscConfig+0x10a>
      if((__HAL_RCC_GET_FLAG(RCC_FLAG_HSERDY) != RESET) && (RCC_OscInitStruct->HSEState == RCC_HSE_OFF))
 8001470:	bf00      	nop
        }
      }
    }
  }
  /*----------------------------- HSI Configuration --------------------------*/
  if(((RCC_OscInitStruct->OscillatorType) & RCC_OSCILLATORTYPE_HSI) == RCC_OSCILLATORTYPE_HSI)
 8001472:	687b      	ldr	r3, [r7, #4]
 8001474:	681b      	ldr	r3, [r3, #0]
 8001476:	f003 0302 	and.w	r3, r3, #2
 800147a:	2b00      	cmp	r3, #0
 800147c:	d063      	beq.n	8001546 <HAL_RCC_OscConfig+0x1de>
    /* Check the parameters */
    assert_param(IS_RCC_HSI(RCC_OscInitStruct->HSIState));
    assert_param(IS_RCC_CALIBRATION_VALUE(RCC_OscInitStruct->HSICalibrationValue));

    /* Check if HSI is used as system clock or as PLL source when PLL is selected as system clock */
    if((__HAL_RCC_GET_SYSCLK_SOURCE() == RCC_CFGR_SWS_HSI) ||\
 800147e:	4b4a      	ldr	r3, [pc, #296]	; (80015a8 <HAL_RCC_OscConfig+0x240>)
 8001480:	689b      	ldr	r3, [r3, #8]
 8001482:	f003 030c 	and.w	r3, r3, #12
 8001486:	2b00      	cmp	r3, #0
 8001488:	d00b      	beq.n	80014a2 <HAL_RCC_OscConfig+0x13a>
      ((__HAL_RCC_GET_SYSCLK_SOURCE() == RCC_CFGR_SWS_PLL) && ((RCC->PLLCFGR & RCC_PLLCFGR_PLLSRC) == RCC_PLLCFGR_PLLSRC_HSI)))
 800148a:	4b47      	ldr	r3, [pc, #284]	; (80015a8 <HAL_RCC_OscConfig+0x240>)
 800148c:	689b      	ldr	r3, [r3, #8]
 800148e:	f003 030c 	and.w	r3, r3, #12
    if((__HAL_RCC_GET_SYSCLK_SOURCE() == RCC_CFGR_SWS_HSI) ||\
 8001492:	2b08      	cmp	r3, #8
 8001494:	d11c      	bne.n	80014d0 <HAL_RCC_OscConfig+0x168>
      ((__HAL_RCC_GET_SYSCLK_SOURCE() == RCC_CFGR_SWS_PLL) && ((RCC->PLLCFGR & RCC_PLLCFGR_PLLSRC) == RCC_PLLCFGR_PLLSRC_HSI)))
 8001496:	4b44      	ldr	r3, [pc, #272]	; (80015a8 <HAL_RCC_OscConfig+0x240>)
 8001498:	685b      	ldr	r3, [r3, #4]
 800149a:	f403 0380 	and.w	r3, r3, #4194304	; 0x400000
 800149e:	2b00      	cmp	r3, #0
 80014a0:	d116      	bne.n	80014d0 <HAL_RCC_OscConfig+0x168>
    {
      /* When HSI is used as system clock it will not disabled */
      if((__HAL_RCC_GET_FLAG(RCC_FLAG_HSIRDY) != RESET) && (RCC_OscInitStruct->HSIState != RCC_HSI_ON))
 80014a2:	4b41      	ldr	r3, [pc, #260]	; (80015a8 <HAL_RCC_OscConfig+0x240>)
 80014a4:	681b      	ldr	r3, [r3, #0]
 80014a6:	f003 0302 	and.w	r3, r3, #2
 80014aa:	2b00      	cmp	r3, #0
 80014ac:	d005      	beq.n	80014ba <HAL_RCC_OscConfig+0x152>
 80014ae:	687b      	ldr	r3, [r7, #4]
 80014b0:	68db      	ldr	r3, [r3, #12]
 80014b2:	2b01      	cmp	r3, #1
 80014b4:	d001      	beq.n	80014ba <HAL_RCC_OscConfig+0x152>
      {
        return HAL_ERROR;
 80014b6:	2301      	movs	r3, #1
 80014b8:	e1c7      	b.n	800184a <HAL_RCC_OscConfig+0x4e2>
      }
      /* Otherwise, just the calibration is allowed */
      else
      {
        /* Adjusts the Internal High Speed oscillator (HSI) calibration value.*/
        __HAL_RCC_HSI_CALIBRATIONVALUE_ADJUST(RCC_OscInitStruct->HSICalibrationValue);
 80014ba:	4b3b      	ldr	r3, [pc, #236]	; (80015a8 <HAL_RCC_OscConfig+0x240>)
 80014bc:	681b      	ldr	r3, [r3, #0]
 80014be:	f023 02f8 	bic.w	r2, r3, #248	; 0xf8
 80014c2:	687b      	ldr	r3, [r7, #4]
 80014c4:	691b      	ldr	r3, [r3, #16]
 80014c6:	00db      	lsls	r3, r3, #3
 80014c8:	4937      	ldr	r1, [pc, #220]	; (80015a8 <HAL_RCC_OscConfig+0x240>)
 80014ca:	4313      	orrs	r3, r2
 80014cc:	600b      	str	r3, [r1, #0]
      if((__HAL_RCC_GET_FLAG(RCC_FLAG_HSIRDY) != RESET) && (RCC_OscInitStruct->HSIState != RCC_HSI_ON))
 80014ce:	e03a      	b.n	8001546 <HAL_RCC_OscConfig+0x1de>
      }
    }
    else
    {
      /* Check the HSI State */
      if((RCC_OscInitStruct->HSIState)!= RCC_HSI_OFF)
 80014d0:	687b      	ldr	r3, [r7, #4]
 80014d2:	68db      	ldr	r3, [r3, #12]
 80014d4:	2b00      	cmp	r3, #0
 80014d6:	d020      	beq.n	800151a <HAL_RCC_OscConfig+0x1b2>
      {
        /* Enable the Internal High Speed oscillator (HSI). */
        __HAL_RCC_HSI_ENABLE();
 80014d8:	4b34      	ldr	r3, [pc, #208]	; (80015ac <HAL_RCC_OscConfig+0x244>)
 80014da:	2201      	movs	r2, #1
 80014dc:	601a      	str	r2, [r3, #0]

        /* Get Start Tick*/
        tickstart = HAL_GetTick();
 80014de:	f7ff fc4d 	bl	8000d7c <HAL_GetTick>
 80014e2:	6138      	str	r0, [r7, #16]

        /* Wait till HSI is ready */
        while(__HAL_RCC_GET_FLAG(RCC_FLAG_HSIRDY) == RESET)
 80014e4:	e008      	b.n	80014f8 <HAL_RCC_OscConfig+0x190>
        {
          if((HAL_GetTick() - tickstart ) > HSI_TIMEOUT_VALUE)
 80014e6:	f7ff fc49 	bl	8000d7c <HAL_GetTick>
 80014ea:	4602      	mov	r2, r0
 80014ec:	693b      	ldr	r3, [r7, #16]
 80014ee:	1ad3      	subs	r3, r2, r3
 80014f0:	2b02      	cmp	r3, #2
 80014f2:	d901      	bls.n	80014f8 <HAL_RCC_OscConfig+0x190>
          {
            return HAL_TIMEOUT;
 80014f4:	2303      	movs	r3, #3
 80014f6:	e1a8      	b.n	800184a <HAL_RCC_OscConfig+0x4e2>
        while(__HAL_RCC_GET_FLAG(RCC_FLAG_HSIRDY) == RESET)
 80014f8:	4b2b      	ldr	r3, [pc, #172]	; (80015a8 <HAL_RCC_OscConfig+0x240>)
 80014fa:	681b      	ldr	r3, [r3, #0]
 80014fc:	f003 0302 	and.w	r3, r3, #2
 8001500:	2b00      	cmp	r3, #0
 8001502:	d0f0      	beq.n	80014e6 <HAL_RCC_OscConfig+0x17e>
          }
        }

        /* Adjusts the Internal High Speed oscillator (HSI) calibration value. */
        __HAL_RCC_HSI_CALIBRATIONVALUE_ADJUST(RCC_OscInitStruct->HSICalibrationValue);
 8001504:	4b28      	ldr	r3, [pc, #160]	; (80015a8 <HAL_RCC_OscConfig+0x240>)
 8001506:	681b      	ldr	r3, [r3, #0]
 8001508:	f023 02f8 	bic.w	r2, r3, #248	; 0xf8
 800150c:	687b      	ldr	r3, [r7, #4]
 800150e:	691b      	ldr	r3, [r3, #16]
 8001510:	00db      	lsls	r3, r3, #3
 8001512:	4925      	ldr	r1, [pc, #148]	; (80015a8 <HAL_RCC_OscConfig+0x240>)
 8001514:	4313      	orrs	r3, r2
 8001516:	600b      	str	r3, [r1, #0]
 8001518:	e015      	b.n	8001546 <HAL_RCC_OscConfig+0x1de>
      }
      else
      {
        /* Disable the Internal High Speed oscillator (HSI). */
        __HAL_RCC_HSI_DISABLE();
 800151a:	4b24      	ldr	r3, [pc, #144]	; (80015ac <HAL_RCC_OscConfig+0x244>)
 800151c:	2200      	movs	r2, #0
 800151e:	601a      	str	r2, [r3, #0]

        /* Get Start Tick*/
        tickstart = HAL_GetTick();
 8001520:	f7ff fc2c 	bl	8000d7c <HAL_GetTick>
 8001524:	6138      	str	r0, [r7, #16]

        /* Wait till HSI is ready */
        while(__HAL_RCC_GET_FLAG(RCC_FLAG_HSIRDY) != RESET)
 8001526:	e008      	b.n	800153a <HAL_RCC_OscConfig+0x1d2>
        {
          if((HAL_GetTick() - tickstart ) > HSI_TIMEOUT_VALUE)
 8001528:	f7ff fc28 	bl	8000d7c <HAL_GetTick>
 800152c:	4602      	mov	r2, r0
 800152e:	693b      	ldr	r3, [r7, #16]
 8001530:	1ad3      	subs	r3, r2, r3
 8001532:	2b02      	cmp	r3, #2
 8001534:	d901      	bls.n	800153a <HAL_RCC_OscConfig+0x1d2>
          {
            return HAL_TIMEOUT;
 8001536:	2303      	movs	r3, #3
 8001538:	e187      	b.n	800184a <HAL_RCC_OscConfig+0x4e2>
        while(__HAL_RCC_GET_FLAG(RCC_FLAG_HSIRDY) != RESET)
 800153a:	4b1b      	ldr	r3, [pc, #108]	; (80015a8 <HAL_RCC_OscConfig+0x240>)
 800153c:	681b      	ldr	r3, [r3, #0]
 800153e:	f003 0302 	and.w	r3, r3, #2
 8001542:	2b00      	cmp	r3, #0
 8001544:	d1f0      	bne.n	8001528 <HAL_RCC_OscConfig+0x1c0>
        }
      }
    }
  }
  /*------------------------------ LSI Configuration -------------------------*/
  if(((RCC_OscInitStruct->OscillatorType) & RCC_OSCILLATORTYPE_LSI) == RCC_OSCILLATORTYPE_LSI)
 8001546:	687b      	ldr	r3, [r7, #4]
 8001548:	681b      	ldr	r3, [r3, #0]
 800154a:	f003 0308 	and.w	r3, r3, #8
 800154e:	2b00      	cmp	r3, #0
 8001550:	d036      	beq.n	80015c0 <HAL_RCC_OscConfig+0x258>
  {
    /* Check the parameters */
    assert_param(IS_RCC_LSI(RCC_OscInitStruct->LSIState));

    /* Check the LSI State */
    if((RCC_OscInitStruct->LSIState)!= RCC_LSI_OFF)
 8001552:	687b      	ldr	r3, [r7, #4]
 8001554:	695b      	ldr	r3, [r3, #20]
 8001556:	2b00      	cmp	r3, #0
 8001558:	d016      	beq.n	8001588 <HAL_RCC_OscConfig+0x220>
    {
      /* Enable the Internal Low Speed oscillator (LSI). */
      __HAL_RCC_LSI_ENABLE();
 800155a:	4b15      	ldr	r3, [pc, #84]	; (80015b0 <HAL_RCC_OscConfig+0x248>)
 800155c:	2201      	movs	r2, #1
 800155e:	601a      	str	r2, [r3, #0]

      /* Get Start Tick*/
      tickstart = HAL_GetTick();
 8001560:	f7ff fc0c 	bl	8000d7c <HAL_GetTick>
 8001564:	6138      	str	r0, [r7, #16]

      /* Wait till LSI is ready */
      while(__HAL_RCC_GET_FLAG(RCC_FLAG_LSIRDY) == RESET)
 8001566:	e008      	b.n	800157a <HAL_RCC_OscConfig+0x212>
      {
        if((HAL_GetTick() - tickstart ) > LSI_TIMEOUT_VALUE)
 8001568:	f7ff fc08 	bl	8000d7c <HAL_GetTick>
 800156c:	4602      	mov	r2, r0
 800156e:	693b      	ldr	r3, [r7, #16]
 8001570:	1ad3      	subs	r3, r2, r3
 8001572:	2b02      	cmp	r3, #2
 8001574:	d901      	bls.n	800157a <HAL_RCC_OscConfig+0x212>
        {
          return HAL_TIMEOUT;
 8001576:	2303      	movs	r3, #3
 8001578:	e167      	b.n	800184a <HAL_RCC_OscConfig+0x4e2>
      while(__HAL_RCC_GET_FLAG(RCC_FLAG_LSIRDY) == RESET)
 800157a:	4b0b      	ldr	r3, [pc, #44]	; (80015a8 <HAL_RCC_OscConfig+0x240>)
 800157c:	6f5b      	ldr	r3, [r3, #116]	; 0x74
 800157e:	f003 0302 	and.w	r3, r3, #2
 8001582:	2b00      	cmp	r3, #0
 8001584:	d0f0      	beq.n	8001568 <HAL_RCC_OscConfig+0x200>
 8001586:	e01b      	b.n	80015c0 <HAL_RCC_OscConfig+0x258>
      }
    }
    else
    {
      /* Disable the Internal Low Speed oscillator (LSI). */
      __HAL_RCC_LSI_DISABLE();
 8001588:	4b09      	ldr	r3, [pc, #36]	; (80015b0 <HAL_RCC_OscConfig+0x248>)
 800158a:	2200      	movs	r2, #0
 800158c:	601a      	str	r2, [r3, #0]

      /* Get Start Tick */
      tickstart = HAL_GetTick();
 800158e:	f7ff fbf5 	bl	8000d7c <HAL_GetTick>
 8001592:	6138      	str	r0, [r7, #16]

      /* Wait till LSI is ready */
      while(__HAL_RCC_GET_FLAG(RCC_FLAG_LSIRDY) != RESET)
 8001594:	e00e      	b.n	80015b4 <HAL_RCC_OscConfig+0x24c>
      {
        if((HAL_GetTick() - tickstart ) > LSI_TIMEOUT_VALUE)
 8001596:	f7ff fbf1 	bl	8000d7c <HAL_GetTick>
 800159a:	4602      	mov	r2, r0
 800159c:	693b      	ldr	r3, [r7, #16]
 800159e:	1ad3      	subs	r3, r2, r3
 80015a0:	2b02      	cmp	r3, #2
 80015a2:	d907      	bls.n	80015b4 <HAL_RCC_OscConfig+0x24c>
        {
          return HAL_TIMEOUT;
 80015a4:	2303      	movs	r3, #3
 80015a6:	e150      	b.n	800184a <HAL_RCC_OscConfig+0x4e2>
 80015a8:	40023800 	.word	0x40023800
 80015ac:	42470000 	.word	0x42470000
 80015b0:	42470e80 	.word	0x42470e80
      while(__HAL_RCC_GET_FLAG(RCC_FLAG_LSIRDY) != RESET)
 80015b4:	4b88      	ldr	r3, [pc, #544]	; (80017d8 <HAL_RCC_OscConfig+0x470>)
 80015b6:	6f5b      	ldr	r3, [r3, #116]	; 0x74
 80015b8:	f003 0302 	and.w	r3, r3, #2
 80015bc:	2b00      	cmp	r3, #0
 80015be:	d1ea      	bne.n	8001596 <HAL_RCC_OscConfig+0x22e>
        }
      }
    }
  }
  /*------------------------------ LSE Configuration -------------------------*/
  if(((RCC_OscInitStruct->OscillatorType) & RCC_OSCILLATORTYPE_LSE) == RCC_OSCILLATORTYPE_LSE)
 80015c0:	687b      	ldr	r3, [r7, #4]
 80015c2:	681b      	ldr	r3, [r3, #0]
 80015c4:	f003 0304 	and.w	r3, r3, #4
 80015c8:	2b00      	cmp	r3, #0
 80015ca:	f000 8097 	beq.w	80016fc <HAL_RCC_OscConfig+0x394>
  {
    FlagStatus       pwrclkchanged = RESET;
 80015ce:	2300      	movs	r3, #0
 80015d0:	75fb      	strb	r3, [r7, #23]
    /* Check the parameters */
    assert_param(IS_RCC_LSE(RCC_OscInitStruct->LSEState));

    /* Update LSE configuration in Backup Domain control register    */
    /* Requires to enable write access to Backup Domain of necessary */
    if(__HAL_RCC_PWR_IS_CLK_DISABLED())
 80015d2:	4b81      	ldr	r3, [pc, #516]	; (80017d8 <HAL_RCC_OscConfig+0x470>)
 80015d4:	6c1b      	ldr	r3, [r3, #64]	; 0x40
 80015d6:	f003 5380 	and.w	r3, r3, #268435456	; 0x10000000
 80015da:	2b00      	cmp	r3, #0
 80015dc:	d10f      	bne.n	80015fe <HAL_RCC_OscConfig+0x296>
    {
      __HAL_RCC_PWR_CLK_ENABLE();
 80015de:	2300      	movs	r3, #0
 80015e0:	60bb      	str	r3, [r7, #8]
 80015e2:	4b7d      	ldr	r3, [pc, #500]	; (80017d8 <HAL_RCC_OscConfig+0x470>)
 80015e4:	6c1b      	ldr	r3, [r3, #64]	; 0x40
 80015e6:	4a7c      	ldr	r2, [pc, #496]	; (80017d8 <HAL_RCC_OscConfig+0x470>)
 80015e8:	f043 5380 	orr.w	r3, r3, #268435456	; 0x10000000
 80015ec:	6413      	str	r3, [r2, #64]	; 0x40
 80015ee:	4b7a      	ldr	r3, [pc, #488]	; (80017d8 <HAL_RCC_OscConfig+0x470>)
 80015f0:	6c1b      	ldr	r3, [r3, #64]	; 0x40
 80015f2:	f003 5380 	and.w	r3, r3, #268435456	; 0x10000000
 80015f6:	60bb      	str	r3, [r7, #8]
 80015f8:	68bb      	ldr	r3, [r7, #8]
      pwrclkchanged = SET;
 80015fa:	2301      	movs	r3, #1
 80015fc:	75fb      	strb	r3, [r7, #23]
    }

    if(HAL_IS_BIT_CLR(PWR->CR, PWR_CR_DBP))
 80015fe:	4b77      	ldr	r3, [pc, #476]	; (80017dc <HAL_RCC_OscConfig+0x474>)
 8001600:	681b      	ldr	r3, [r3, #0]
 8001602:	f403 7380 	and.w	r3, r3, #256	; 0x100
 8001606:	2b00      	cmp	r3, #0
 8001608:	d118      	bne.n	800163c <HAL_RCC_OscConfig+0x2d4>
    {
      /* Enable write access to Backup domain */
      SET_BIT(PWR->CR, PWR_CR_DBP);
 800160a:	4b74      	ldr	r3, [pc, #464]	; (80017dc <HAL_RCC_OscConfig+0x474>)
 800160c:	681b      	ldr	r3, [r3, #0]
 800160e:	4a73      	ldr	r2, [pc, #460]	; (80017dc <HAL_RCC_OscConfig+0x474>)
 8001610:	f443 7380 	orr.w	r3, r3, #256	; 0x100
 8001614:	6013      	str	r3, [r2, #0]

      /* Wait for Backup domain Write protection disable */
      tickstart = HAL_GetTick();
 8001616:	f7ff fbb1 	bl	8000d7c <HAL_GetTick>
 800161a:	6138      	str	r0, [r7, #16]

      while(HAL_IS_BIT_CLR(PWR->CR, PWR_CR_DBP))
 800161c:	e008      	b.n	8001630 <HAL_RCC_OscConfig+0x2c8>
      {
        if((HAL_GetTick() - tickstart) > RCC_DBP_TIMEOUT_VALUE)
 800161e:	f7ff fbad 	bl	8000d7c <HAL_GetTick>
 8001622:	4602      	mov	r2, r0
 8001624:	693b      	ldr	r3, [r7, #16]
 8001626:	1ad3      	subs	r3, r2, r3
 8001628:	2b02      	cmp	r3, #2
 800162a:	d901      	bls.n	8001630 <HAL_RCC_OscConfig+0x2c8>
        {
          return HAL_TIMEOUT;
 800162c:	2303      	movs	r3, #3
 800162e:	e10c      	b.n	800184a <HAL_RCC_OscConfig+0x4e2>
      while(HAL_IS_BIT_CLR(PWR->CR, PWR_CR_DBP))
 8001630:	4b6a      	ldr	r3, [pc, #424]	; (80017dc <HAL_RCC_OscConfig+0x474>)
 8001632:	681b      	ldr	r3, [r3, #0]
 8001634:	f403 7380 	and.w	r3, r3, #256	; 0x100
 8001638:	2b00      	cmp	r3, #0
 800163a:	d0f0      	beq.n	800161e <HAL_RCC_OscConfig+0x2b6>
        }
      }
    }

    /* Set the new LSE configuration -----------------------------------------*/
    __HAL_RCC_LSE_CONFIG(RCC_OscInitStruct->LSEState);
 800163c:	687b      	ldr	r3, [r7, #4]
 800163e:	689b      	ldr	r3, [r3, #8]
 8001640:	2b01      	cmp	r3, #1
 8001642:	d106      	bne.n	8001652 <HAL_RCC_OscConfig+0x2ea>
 8001644:	4b64      	ldr	r3, [pc, #400]	; (80017d8 <HAL_RCC_OscConfig+0x470>)
 8001646:	6f1b      	ldr	r3, [r3, #112]	; 0x70
 8001648:	4a63      	ldr	r2, [pc, #396]	; (80017d8 <HAL_RCC_OscConfig+0x470>)
 800164a:	f043 0301 	orr.w	r3, r3, #1
 800164e:	6713      	str	r3, [r2, #112]	; 0x70
 8001650:	e01c      	b.n	800168c <HAL_RCC_OscConfig+0x324>
 8001652:	687b      	ldr	r3, [r7, #4]
 8001654:	689b      	ldr	r3, [r3, #8]
 8001656:	2b05      	cmp	r3, #5
 8001658:	d10c      	bne.n	8001674 <HAL_RCC_OscConfig+0x30c>
 800165a:	4b5f      	ldr	r3, [pc, #380]	; (80017d8 <HAL_RCC_OscConfig+0x470>)
 800165c:	6f1b      	ldr	r3, [r3, #112]	; 0x70
 800165e:	4a5e      	ldr	r2, [pc, #376]	; (80017d8 <HAL_RCC_OscConfig+0x470>)
 8001660:	f043 0304 	orr.w	r3, r3, #4
 8001664:	6713      	str	r3, [r2, #112]	; 0x70
 8001666:	4b5c      	ldr	r3, [pc, #368]	; (80017d8 <HAL_RCC_OscConfig+0x470>)
 8001668:	6f1b      	ldr	r3, [r3, #112]	; 0x70
 800166a:	4a5b      	ldr	r2, [pc, #364]	; (80017d8 <HAL_RCC_OscConfig+0x470>)
 800166c:	f043 0301 	orr.w	r3, r3, #1
 8001670:	6713      	str	r3, [r2, #112]	; 0x70
 8001672:	e00b      	b.n	800168c <HAL_RCC_OscConfig+0x324>
 8001674:	4b58      	ldr	r3, [pc, #352]	; (80017d8 <HAL_RCC_OscConfig+0x470>)
 8001676:	6f1b      	ldr	r3, [r3, #112]	; 0x70
 8001678:	4a57      	ldr	r2, [pc, #348]	; (80017d8 <HAL_RCC_OscConfig+0x470>)
 800167a:	f023 0301 	bic.w	r3, r3, #1
 800167e:	6713      	str	r3, [r2, #112]	; 0x70
 8001680:	4b55      	ldr	r3, [pc, #340]	; (80017d8 <HAL_RCC_OscConfig+0x470>)
 8001682:	6f1b      	ldr	r3, [r3, #112]	; 0x70
 8001684:	4a54      	ldr	r2, [pc, #336]	; (80017d8 <HAL_RCC_OscConfig+0x470>)
 8001686:	f023 0304 	bic.w	r3, r3, #4
 800168a:	6713      	str	r3, [r2, #112]	; 0x70
    /* Check the LSE State */
    if((RCC_OscInitStruct->LSEState) != RCC_LSE_OFF)
 800168c:	687b      	ldr	r3, [r7, #4]
 800168e:	689b      	ldr	r3, [r3, #8]
 8001690:	2b00      	cmp	r3, #0
 8001692:	d015      	beq.n	80016c0 <HAL_RCC_OscConfig+0x358>
    {
      /* Get Start Tick*/
      tickstart = HAL_GetTick();
 8001694:	f7ff fb72 	bl	8000d7c <HAL_GetTick>
 8001698:	6138      	str	r0, [r7, #16]

      /* Wait till LSE is ready */
      while(__HAL_RCC_GET_FLAG(RCC_FLAG_LSERDY) == RESET)
 800169a:	e00a      	b.n	80016b2 <HAL_RCC_OscConfig+0x34a>
      {
        if((HAL_GetTick() - tickstart ) > RCC_LSE_TIMEOUT_VALUE)
 800169c:	f7ff fb6e 	bl	8000d7c <HAL_GetTick>
 80016a0:	4602      	mov	r2, r0
 80016a2:	693b      	ldr	r3, [r7, #16]
 80016a4:	1ad3      	subs	r3, r2, r3
 80016a6:	f241 3288 	movw	r2, #5000	; 0x1388
 80016aa:	4293      	cmp	r3, r2
 80016ac:	d901      	bls.n	80016b2 <HAL_RCC_OscConfig+0x34a>
        {
          return HAL_TIMEOUT;
 80016ae:	2303      	movs	r3, #3
 80016b0:	e0cb      	b.n	800184a <HAL_RCC_OscConfig+0x4e2>
      while(__HAL_RCC_GET_FLAG(RCC_FLAG_LSERDY) == RESET)
 80016b2:	4b49      	ldr	r3, [pc, #292]	; (80017d8 <HAL_RCC_OscConfig+0x470>)
 80016b4:	6f1b      	ldr	r3, [r3, #112]	; 0x70
 80016b6:	f003 0302 	and.w	r3, r3, #2
 80016ba:	2b00      	cmp	r3, #0
 80016bc:	d0ee      	beq.n	800169c <HAL_RCC_OscConfig+0x334>
 80016be:	e014      	b.n	80016ea <HAL_RCC_OscConfig+0x382>
      }
    }
    else
    {
      /* Get Start Tick */
      tickstart = HAL_GetTick();
 80016c0:	f7ff fb5c 	bl	8000d7c <HAL_GetTick>
 80016c4:	6138      	str	r0, [r7, #16]

      /* Wait till LSE is ready */
      while(__HAL_RCC_GET_FLAG(RCC_FLAG_LSERDY) != RESET)
 80016c6:	e00a      	b.n	80016de <HAL_RCC_OscConfig+0x376>
      {
        if((HAL_GetTick() - tickstart ) > RCC_LSE_TIMEOUT_VALUE)
 80016c8:	f7ff fb58 	bl	8000d7c <HAL_GetTick>
 80016cc:	4602      	mov	r2, r0
 80016ce:	693b      	ldr	r3, [r7, #16]
 80016d0:	1ad3      	subs	r3, r2, r3
 80016d2:	f241 3288 	movw	r2, #5000	; 0x1388
 80016d6:	4293      	cmp	r3, r2
 80016d8:	d901      	bls.n	80016de <HAL_RCC_OscConfig+0x376>
        {
          return HAL_TIMEOUT;
 80016da:	2303      	movs	r3, #3
 80016dc:	e0b5      	b.n	800184a <HAL_RCC_OscConfig+0x4e2>
      while(__HAL_RCC_GET_FLAG(RCC_FLAG_LSERDY) != RESET)
 80016de:	4b3e      	ldr	r3, [pc, #248]	; (80017d8 <HAL_RCC_OscConfig+0x470>)
 80016e0:	6f1b      	ldr	r3, [r3, #112]	; 0x70
 80016e2:	f003 0302 	and.w	r3, r3, #2
 80016e6:	2b00      	cmp	r3, #0
 80016e8:	d1ee      	bne.n	80016c8 <HAL_RCC_OscConfig+0x360>
        }
      }
    }

    /* Restore clock configuration if changed */
    if(pwrclkchanged == SET)
 80016ea:	7dfb      	ldrb	r3, [r7, #23]
 80016ec:	2b01      	cmp	r3, #1
 80016ee:	d105      	bne.n	80016fc <HAL_RCC_OscConfig+0x394>
    {
      __HAL_RCC_PWR_CLK_DISABLE();
 80016f0:	4b39      	ldr	r3, [pc, #228]	; (80017d8 <HAL_RCC_OscConfig+0x470>)
 80016f2:	6c1b      	ldr	r3, [r3, #64]	; 0x40
 80016f4:	4a38      	ldr	r2, [pc, #224]	; (80017d8 <HAL_RCC_OscConfig+0x470>)
 80016f6:	f023 5380 	bic.w	r3, r3, #268435456	; 0x10000000
 80016fa:	6413      	str	r3, [r2, #64]	; 0x40
    }
  }
  /*-------------------------------- PLL Configuration -----------------------*/
  /* Check the parameters */
  assert_param(IS_RCC_PLL(RCC_OscInitStruct->PLL.PLLState));
  if ((RCC_OscInitStruct->PLL.PLLState) != RCC_PLL_NONE)
 80016fc:	687b      	ldr	r3, [r7, #4]
 80016fe:	699b      	ldr	r3, [r3, #24]
 8001700:	2b00      	cmp	r3, #0
 8001702:	f000 80a1 	beq.w	8001848 <HAL_RCC_OscConfig+0x4e0>
  {
    /* Check if the PLL is used as system clock or not */
    if(__HAL_RCC_GET_SYSCLK_SOURCE() != RCC_CFGR_SWS_PLL)
 8001706:	4b34      	ldr	r3, [pc, #208]	; (80017d8 <HAL_RCC_OscConfig+0x470>)
 8001708:	689b      	ldr	r3, [r3, #8]
 800170a:	f003 030c 	and.w	r3, r3, #12
 800170e:	2b08      	cmp	r3, #8
 8001710:	d05c      	beq.n	80017cc <HAL_RCC_OscConfig+0x464>
    {
      if((RCC_OscInitStruct->PLL.PLLState) == RCC_PLL_ON)
 8001712:	687b      	ldr	r3, [r7, #4]
 8001714:	699b      	ldr	r3, [r3, #24]
 8001716:	2b02      	cmp	r3, #2
 8001718:	d141      	bne.n	800179e <HAL_RCC_OscConfig+0x436>
        assert_param(IS_RCC_PLLN_VALUE(RCC_OscInitStruct->PLL.PLLN));
        assert_param(IS_RCC_PLLP_VALUE(RCC_OscInitStruct->PLL.PLLP));
        assert_param(IS_RCC_PLLQ_VALUE(RCC_OscInitStruct->PLL.PLLQ));

        /* Disable the main PLL. */
        __HAL_RCC_PLL_DISABLE();
 800171a:	4b31      	ldr	r3, [pc, #196]	; (80017e0 <HAL_RCC_OscConfig+0x478>)
 800171c:	2200      	movs	r2, #0
 800171e:	601a      	str	r2, [r3, #0]

        /* Get Start Tick */
        tickstart = HAL_GetTick();
 8001720:	f7ff fb2c 	bl	8000d7c <HAL_GetTick>
 8001724:	6138      	str	r0, [r7, #16]

        /* Wait till PLL is ready */
        while(__HAL_RCC_GET_FLAG(RCC_FLAG_PLLRDY) != RESET)
 8001726:	e008      	b.n	800173a <HAL_RCC_OscConfig+0x3d2>
        {
          if((HAL_GetTick() - tickstart ) > PLL_TIMEOUT_VALUE)
 8001728:	f7ff fb28 	bl	8000d7c <HAL_GetTick>
 800172c:	4602      	mov	r2, r0
 800172e:	693b      	ldr	r3, [r7, #16]
 8001730:	1ad3      	subs	r3, r2, r3
 8001732:	2b02      	cmp	r3, #2
 8001734:	d901      	bls.n	800173a <HAL_RCC_OscConfig+0x3d2>
          {
            return HAL_TIMEOUT;
 8001736:	2303      	movs	r3, #3
 8001738:	e087      	b.n	800184a <HAL_RCC_OscConfig+0x4e2>
        while(__HAL_RCC_GET_FLAG(RCC_FLAG_PLLRDY) != RESET)
 800173a:	4b27      	ldr	r3, [pc, #156]	; (80017d8 <HAL_RCC_OscConfig+0x470>)
 800173c:	681b      	ldr	r3, [r3, #0]
 800173e:	f003 7300 	and.w	r3, r3, #33554432	; 0x2000000
 8001742:	2b00      	cmp	r3, #0
 8001744:	d1f0      	bne.n	8001728 <HAL_RCC_OscConfig+0x3c0>
          }
        }

        /* Configure the main PLL clock source, multiplication and division factors. */
        WRITE_REG(RCC->PLLCFGR, (RCC_OscInitStruct->PLL.PLLSource                                            | \
 8001746:	687b      	ldr	r3, [r7, #4]
 8001748:	69da      	ldr	r2, [r3, #28]
 800174a:	687b      	ldr	r3, [r7, #4]
 800174c:	6a1b      	ldr	r3, [r3, #32]
 800174e:	431a      	orrs	r2, r3
 8001750:	687b      	ldr	r3, [r7, #4]
 8001752:	6a5b      	ldr	r3, [r3, #36]	; 0x24
 8001754:	019b      	lsls	r3, r3, #6
 8001756:	431a      	orrs	r2, r3
 8001758:	687b      	ldr	r3, [r7, #4]
 800175a:	6a9b      	ldr	r3, [r3, #40]	; 0x28
 800175c:	085b      	lsrs	r3, r3, #1
 800175e:	3b01      	subs	r3, #1
 8001760:	041b      	lsls	r3, r3, #16
 8001762:	431a      	orrs	r2, r3
 8001764:	687b      	ldr	r3, [r7, #4]
 8001766:	6adb      	ldr	r3, [r3, #44]	; 0x2c
 8001768:	061b      	lsls	r3, r3, #24
 800176a:	491b      	ldr	r1, [pc, #108]	; (80017d8 <HAL_RCC_OscConfig+0x470>)
 800176c:	4313      	orrs	r3, r2
 800176e:	604b      	str	r3, [r1, #4]
                                 RCC_OscInitStruct->PLL.PLLM                                                 | \
                                 (RCC_OscInitStruct->PLL.PLLN << RCC_PLLCFGR_PLLN_Pos)             | \
                                 (((RCC_OscInitStruct->PLL.PLLP >> 1U) - 1U) << RCC_PLLCFGR_PLLP_Pos) | \
                                 (RCC_OscInitStruct->PLL.PLLQ << RCC_PLLCFGR_PLLQ_Pos)));
        /* Enable the main PLL. */
        __HAL_RCC_PLL_ENABLE();
 8001770:	4b1b      	ldr	r3, [pc, #108]	; (80017e0 <HAL_RCC_OscConfig+0x478>)
 8001772:	2201      	movs	r2, #1
 8001774:	601a      	str	r2, [r3, #0]

        /* Get Start Tick */
        tickstart = HAL_GetTick();
 8001776:	f7ff fb01 	bl	8000d7c <HAL_GetTick>
 800177a:	6138      	str	r0, [r7, #16]

        /* Wait till PLL is ready */
        while(__HAL_RCC_GET_FLAG(RCC_FLAG_PLLRDY) == RESET)
 800177c:	e008      	b.n	8001790 <HAL_RCC_OscConfig+0x428>
        {
          if((HAL_GetTick() - tickstart ) > PLL_TIMEOUT_VALUE)
 800177e:	f7ff fafd 	bl	8000d7c <HAL_GetTick>
 8001782:	4602      	mov	r2, r0
 8001784:	693b      	ldr	r3, [r7, #16]
 8001786:	1ad3      	subs	r3, r2, r3
 8001788:	2b02      	cmp	r3, #2
 800178a:	d901      	bls.n	8001790 <HAL_RCC_OscConfig+0x428>
          {
            return HAL_TIMEOUT;
 800178c:	2303      	movs	r3, #3
 800178e:	e05c      	b.n	800184a <HAL_RCC_OscConfig+0x4e2>
        while(__HAL_RCC_GET_FLAG(RCC_FLAG_PLLRDY) == RESET)
 8001790:	4b11      	ldr	r3, [pc, #68]	; (80017d8 <HAL_RCC_OscConfig+0x470>)
 8001792:	681b      	ldr	r3, [r3, #0]
 8001794:	f003 7300 	and.w	r3, r3, #33554432	; 0x2000000
 8001798:	2b00      	cmp	r3, #0
 800179a:	d0f0      	beq.n	800177e <HAL_RCC_OscConfig+0x416>
 800179c:	e054      	b.n	8001848 <HAL_RCC_OscConfig+0x4e0>
        }
      }
      else
      {
        /* Disable the main PLL. */
        __HAL_RCC_PLL_DISABLE();
 800179e:	4b10      	ldr	r3, [pc, #64]	; (80017e0 <HAL_RCC_OscConfig+0x478>)
 80017a0:	2200      	movs	r2, #0
 80017a2:	601a      	str	r2, [r3, #0]

        /* Get Start Tick */
        tickstart = HAL_GetTick();
 80017a4:	f7ff faea 	bl	8000d7c <HAL_GetTick>
 80017a8:	6138      	str	r0, [r7, #16]

        /* Wait till PLL is ready */
        while(__HAL_RCC_GET_FLAG(RCC_FLAG_PLLRDY) != RESET)
 80017aa:	e008      	b.n	80017be <HAL_RCC_OscConfig+0x456>
        {
          if((HAL_GetTick() - tickstart ) > PLL_TIMEOUT_VALUE)
 80017ac:	f7ff fae6 	bl	8000d7c <HAL_GetTick>
 80017b0:	4602      	mov	r2, r0
 80017b2:	693b      	ldr	r3, [r7, #16]
 80017b4:	1ad3      	subs	r3, r2, r3
 80017b6:	2b02      	cmp	r3, #2
 80017b8:	d901      	bls.n	80017be <HAL_RCC_OscConfig+0x456>
          {
            return HAL_TIMEOUT;
 80017ba:	2303      	movs	r3, #3
 80017bc:	e045      	b.n	800184a <HAL_RCC_OscConfig+0x4e2>
        while(__HAL_RCC_GET_FLAG(RCC_FLAG_PLLRDY) != RESET)
 80017be:	4b06      	ldr	r3, [pc, #24]	; (80017d8 <HAL_RCC_OscConfig+0x470>)
 80017c0:	681b      	ldr	r3, [r3, #0]
 80017c2:	f003 7300 	and.w	r3, r3, #33554432	; 0x2000000
 80017c6:	2b00      	cmp	r3, #0
 80017c8:	d1f0      	bne.n	80017ac <HAL_RCC_OscConfig+0x444>
 80017ca:	e03d      	b.n	8001848 <HAL_RCC_OscConfig+0x4e0>
      }
    }
    else
    {
      /* Check if there is a request to disable the PLL used as System clock source */
      if((RCC_OscInitStruct->PLL.PLLState) == RCC_PLL_OFF)
 80017cc:	687b      	ldr	r3, [r7, #4]
 80017ce:	699b      	ldr	r3, [r3, #24]
 80017d0:	2b01      	cmp	r3, #1
 80017d2:	d107      	bne.n	80017e4 <HAL_RCC_OscConfig+0x47c>
      {
        return HAL_ERROR;
 80017d4:	2301      	movs	r3, #1
 80017d6:	e038      	b.n	800184a <HAL_RCC_OscConfig+0x4e2>
 80017d8:	40023800 	.word	0x40023800
 80017dc:	40007000 	.word	0x40007000
 80017e0:	42470060 	.word	0x42470060
      }
      else
      {
        /* Do not return HAL_ERROR if request repeats the current configuration */
        pll_config = RCC->PLLCFGR;
 80017e4:	4b1b      	ldr	r3, [pc, #108]	; (8001854 <HAL_RCC_OscConfig+0x4ec>)
 80017e6:	685b      	ldr	r3, [r3, #4]
 80017e8:	60fb      	str	r3, [r7, #12]
            (READ_BIT(pll_config, RCC_PLLCFGR_PLLN) != (RCC_OscInitStruct->PLL.PLLN) << RCC_PLLCFGR_PLLN_Pos) ||
            (READ_BIT(pll_config, RCC_PLLCFGR_PLLP) != (((RCC_OscInitStruct->PLL.PLLP >> 1U) - 1U)) << RCC_PLLCFGR_PLLP_Pos) ||
            (READ_BIT(pll_config, RCC_PLLCFGR_PLLQ) != (RCC_OscInitStruct->PLL.PLLQ << RCC_PLLCFGR_PLLQ_Pos)) ||
            (READ_BIT(pll_config, RCC_PLLCFGR_PLLR) != (RCC_OscInitStruct->PLL.PLLR << RCC_PLLCFGR_PLLR_Pos)))
#else
        if (((RCC_OscInitStruct->PLL.PLLState) == RCC_PLL_OFF) ||
 80017ea:	687b      	ldr	r3, [r7, #4]
 80017ec:	699b      	ldr	r3, [r3, #24]
 80017ee:	2b01      	cmp	r3, #1
 80017f0:	d028      	beq.n	8001844 <HAL_RCC_OscConfig+0x4dc>
            (READ_BIT(pll_config, RCC_PLLCFGR_PLLSRC) != RCC_OscInitStruct->PLL.PLLSource) ||
 80017f2:	68fb      	ldr	r3, [r7, #12]
 80017f4:	f403 0280 	and.w	r2, r3, #4194304	; 0x400000
 80017f8:	687b      	ldr	r3, [r7, #4]
 80017fa:	69db      	ldr	r3, [r3, #28]
        if (((RCC_OscInitStruct->PLL.PLLState) == RCC_PLL_OFF) ||
 80017fc:	429a      	cmp	r2, r3
 80017fe:	d121      	bne.n	8001844 <HAL_RCC_OscConfig+0x4dc>
            (READ_BIT(pll_config, RCC_PLLCFGR_PLLM) != (RCC_OscInitStruct->PLL.PLLM) << RCC_PLLCFGR_PLLM_Pos) ||
 8001800:	68fb      	ldr	r3, [r7, #12]
 8001802:	f003 023f 	and.w	r2, r3, #63	; 0x3f
 8001806:	687b      	ldr	r3, [r7, #4]
 8001808:	6a1b      	ldr	r3, [r3, #32]
            (READ_BIT(pll_config, RCC_PLLCFGR_PLLSRC) != RCC_OscInitStruct->PLL.PLLSource) ||
 800180a:	429a      	cmp	r2, r3
 800180c:	d11a      	bne.n	8001844 <HAL_RCC_OscConfig+0x4dc>
            (READ_BIT(pll_config, RCC_PLLCFGR_PLLN) != (RCC_OscInitStruct->PLL.PLLN) << RCC_PLLCFGR_PLLN_Pos) ||
 800180e:	68fa      	ldr	r2, [r7, #12]
 8001810:	f647 73c0 	movw	r3, #32704	; 0x7fc0
 8001814:	4013      	ands	r3, r2
 8001816:	687a      	ldr	r2, [r7, #4]
 8001818:	6a52      	ldr	r2, [r2, #36]	; 0x24
 800181a:	0192      	lsls	r2, r2, #6
            (READ_BIT(pll_config, RCC_PLLCFGR_PLLM) != (RCC_OscInitStruct->PLL.PLLM) << RCC_PLLCFGR_PLLM_Pos) ||
 800181c:	4293      	cmp	r3, r2
 800181e:	d111      	bne.n	8001844 <HAL_RCC_OscConfig+0x4dc>
            (READ_BIT(pll_config, RCC_PLLCFGR_PLLP) != (((RCC_OscInitStruct->PLL.PLLP >> 1U) - 1U)) << RCC_PLLCFGR_PLLP_Pos) ||
 8001820:	68fb      	ldr	r3, [r7, #12]
 8001822:	f403 3240 	and.w	r2, r3, #196608	; 0x30000
 8001826:	687b      	ldr	r3, [r7, #4]
 8001828:	6a9b      	ldr	r3, [r3, #40]	; 0x28
 800182a:	085b      	lsrs	r3, r3, #1
 800182c:	3b01      	subs	r3, #1
 800182e:	041b      	lsls	r3, r3, #16
            (READ_BIT(pll_config, RCC_PLLCFGR_PLLN) != (RCC_OscInitStruct->PLL.PLLN) << RCC_PLLCFGR_PLLN_Pos) ||
 8001830:	429a      	cmp	r2, r3
 8001832:	d107      	bne.n	8001844 <HAL_RCC_OscConfig+0x4dc>
            (READ_BIT(pll_config, RCC_PLLCFGR_PLLQ) != (RCC_OscInitStruct->PLL.PLLQ << RCC_PLLCFGR_PLLQ_Pos)))
 8001834:	68fb      	ldr	r3, [r7, #12]
 8001836:	f003 6270 	and.w	r2, r3, #251658240	; 0xf000000
 800183a:	687b      	ldr	r3, [r7, #4]
 800183c:	6adb      	ldr	r3, [r3, #44]	; 0x2c
 800183e:	061b      	lsls	r3, r3, #24
            (READ_BIT(pll_config, RCC_PLLCFGR_PLLP) != (((RCC_OscInitStruct->PLL.PLLP >> 1U) - 1U)) << RCC_PLLCFGR_PLLP_Pos) ||
 8001840:	429a      	cmp	r2, r3
 8001842:	d001      	beq.n	8001848 <HAL_RCC_OscConfig+0x4e0>
#endif
        {
          return HAL_ERROR;
 8001844:	2301      	movs	r3, #1
 8001846:	e000      	b.n	800184a <HAL_RCC_OscConfig+0x4e2>
        }
      }
    }
  }
  return HAL_OK;
 8001848:	2300      	movs	r3, #0
}
 800184a:	4618      	mov	r0, r3
 800184c:	3718      	adds	r7, #24
 800184e:	46bd      	mov	sp, r7
 8001850:	bd80      	pop	{r7, pc}
 8001852:	bf00      	nop
 8001854:	40023800 	.word	0x40023800

08001858 <HAL_RCC_ClockConfig>:
  *         HPRE[3:0] bits to ensure that HCLK not exceed the maximum allowed frequency
  *         (for more details refer to section above "Initialization/de-initialization functions")
  * @retval None
  */
HAL_StatusTypeDef HAL_RCC_ClockConfig(RCC_ClkInitTypeDef  *RCC_ClkInitStruct, uint32_t FLatency)
{
 8001858:	b580      	push	{r7, lr}
 800185a:	b084      	sub	sp, #16
 800185c:	af00      	add	r7, sp, #0
 800185e:	6078      	str	r0, [r7, #4]
 8001860:	6039      	str	r1, [r7, #0]
  uint32_t tickstart;

  /* Check Null pointer */
  if(RCC_ClkInitStruct == NULL)
 8001862:	687b      	ldr	r3, [r7, #4]
 8001864:	2b00      	cmp	r3, #0
 8001866:	d101      	bne.n	800186c <HAL_RCC_ClockConfig+0x14>
  {
    return HAL_ERROR;
 8001868:	2301      	movs	r3, #1
 800186a:	e0cc      	b.n	8001a06 <HAL_RCC_ClockConfig+0x1ae>
  /* To correctly read data from FLASH memory, the number of wait states (LATENCY)
    must be correctly programmed according to the frequency of the CPU clock
    (HCLK) and the supply voltage of the device. */

  /* Increasing the number of wait states because of higher CPU frequency */
  if(FLatency > __HAL_FLASH_GET_LATENCY())
 800186c:	4b68      	ldr	r3, [pc, #416]	; (8001a10 <HAL_RCC_ClockConfig+0x1b8>)
 800186e:	681b      	ldr	r3, [r3, #0]
 8001870:	f003 0307 	and.w	r3, r3, #7
 8001874:	683a      	ldr	r2, [r7, #0]
 8001876:	429a      	cmp	r2, r3
 8001878:	d90c      	bls.n	8001894 <HAL_RCC_ClockConfig+0x3c>
  {
    /* Program the new number of wait states to the LATENCY bits in the FLASH_ACR register */
    __HAL_FLASH_SET_LATENCY(FLatency);
 800187a:	4b65      	ldr	r3, [pc, #404]	; (8001a10 <HAL_RCC_ClockConfig+0x1b8>)
 800187c:	683a      	ldr	r2, [r7, #0]
 800187e:	b2d2      	uxtb	r2, r2
 8001880:	701a      	strb	r2, [r3, #0]

    /* Check that the new number of wait states is taken into account to access the Flash
    memory by reading the FLASH_ACR register */
    if(__HAL_FLASH_GET_LATENCY() != FLatency)
 8001882:	4b63      	ldr	r3, [pc, #396]	; (8001a10 <HAL_RCC_ClockConfig+0x1b8>)
 8001884:	681b      	ldr	r3, [r3, #0]
 8001886:	f003 0307 	and.w	r3, r3, #7
 800188a:	683a      	ldr	r2, [r7, #0]
 800188c:	429a      	cmp	r2, r3
 800188e:	d001      	beq.n	8001894 <HAL_RCC_ClockConfig+0x3c>
    {
      return HAL_ERROR;
 8001890:	2301      	movs	r3, #1
 8001892:	e0b8      	b.n	8001a06 <HAL_RCC_ClockConfig+0x1ae>
    }
  }

  /*-------------------------- HCLK Configuration --------------------------*/
  if(((RCC_ClkInitStruct->ClockType) & RCC_CLOCKTYPE_HCLK) == RCC_CLOCKTYPE_HCLK)
 8001894:	687b      	ldr	r3, [r7, #4]
 8001896:	681b      	ldr	r3, [r3, #0]
 8001898:	f003 0302 	and.w	r3, r3, #2
 800189c:	2b00      	cmp	r3, #0
 800189e:	d020      	beq.n	80018e2 <HAL_RCC_ClockConfig+0x8a>
  {
    /* Set the highest APBx dividers in order to ensure that we do not go through
       a non-spec phase whatever we decrease or increase HCLK. */
    if(((RCC_ClkInitStruct->ClockType) & RCC_CLOCKTYPE_PCLK1) == RCC_CLOCKTYPE_PCLK1)
 80018a0:	687b      	ldr	r3, [r7, #4]
 80018a2:	681b      	ldr	r3, [r3, #0]
 80018a4:	f003 0304 	and.w	r3, r3, #4
 80018a8:	2b00      	cmp	r3, #0
 80018aa:	d005      	beq.n	80018b8 <HAL_RCC_ClockConfig+0x60>
    {
      MODIFY_REG(RCC->CFGR, RCC_CFGR_PPRE1, RCC_HCLK_DIV16);
 80018ac:	4b59      	ldr	r3, [pc, #356]	; (8001a14 <HAL_RCC_ClockConfig+0x1bc>)
 80018ae:	689b      	ldr	r3, [r3, #8]
 80018b0:	4a58      	ldr	r2, [pc, #352]	; (8001a14 <HAL_RCC_ClockConfig+0x1bc>)
 80018b2:	f443 53e0 	orr.w	r3, r3, #7168	; 0x1c00
 80018b6:	6093      	str	r3, [r2, #8]
    }

    if(((RCC_ClkInitStruct->ClockType) & RCC_CLOCKTYPE_PCLK2) == RCC_CLOCKTYPE_PCLK2)
 80018b8:	687b      	ldr	r3, [r7, #4]
 80018ba:	681b      	ldr	r3, [r3, #0]
 80018bc:	f003 0308 	and.w	r3, r3, #8
 80018c0:	2b00      	cmp	r3, #0
 80018c2:	d005      	beq.n	80018d0 <HAL_RCC_ClockConfig+0x78>
    {
      MODIFY_REG(RCC->CFGR, RCC_CFGR_PPRE2, (RCC_HCLK_DIV16 << 3));
 80018c4:	4b53      	ldr	r3, [pc, #332]	; (8001a14 <HAL_RCC_ClockConfig+0x1bc>)
 80018c6:	689b      	ldr	r3, [r3, #8]
 80018c8:	4a52      	ldr	r2, [pc, #328]	; (8001a14 <HAL_RCC_ClockConfig+0x1bc>)
 80018ca:	f443 4360 	orr.w	r3, r3, #57344	; 0xe000
 80018ce:	6093      	str	r3, [r2, #8]
    }

    assert_param(IS_RCC_HCLK(RCC_ClkInitStruct->AHBCLKDivider));
    MODIFY_REG(RCC->CFGR, RCC_CFGR_HPRE, RCC_ClkInitStruct->AHBCLKDivider);
 80018d0:	4b50      	ldr	r3, [pc, #320]	; (8001a14 <HAL_RCC_ClockConfig+0x1bc>)
 80018d2:	689b      	ldr	r3, [r3, #8]
 80018d4:	f023 02f0 	bic.w	r2, r3, #240	; 0xf0
 80018d8:	687b      	ldr	r3, [r7, #4]
 80018da:	689b      	ldr	r3, [r3, #8]
 80018dc:	494d      	ldr	r1, [pc, #308]	; (8001a14 <HAL_RCC_ClockConfig+0x1bc>)
 80018de:	4313      	orrs	r3, r2
 80018e0:	608b      	str	r3, [r1, #8]
  }

  /*------------------------- SYSCLK Configuration ---------------------------*/
  if(((RCC_ClkInitStruct->ClockType) & RCC_CLOCKTYPE_SYSCLK) == RCC_CLOCKTYPE_SYSCLK)
 80018e2:	687b      	ldr	r3, [r7, #4]
 80018e4:	681b      	ldr	r3, [r3, #0]
 80018e6:	f003 0301 	and.w	r3, r3, #1
 80018ea:	2b00      	cmp	r3, #0
 80018ec:	d044      	beq.n	8001978 <HAL_RCC_ClockConfig+0x120>
  {
    assert_param(IS_RCC_SYSCLKSOURCE(RCC_ClkInitStruct->SYSCLKSource));

    /* HSE is selected as System Clock Source */
    if(RCC_ClkInitStruct->SYSCLKSource == RCC_SYSCLKSOURCE_HSE)
 80018ee:	687b      	ldr	r3, [r7, #4]
 80018f0:	685b      	ldr	r3, [r3, #4]
 80018f2:	2b01      	cmp	r3, #1
 80018f4:	d107      	bne.n	8001906 <HAL_RCC_ClockConfig+0xae>
    {
      /* Check the HSE ready flag */
      if(__HAL_RCC_GET_FLAG(RCC_FLAG_HSERDY) == RESET)
 80018f6:	4b47      	ldr	r3, [pc, #284]	; (8001a14 <HAL_RCC_ClockConfig+0x1bc>)
 80018f8:	681b      	ldr	r3, [r3, #0]
 80018fa:	f403 3300 	and.w	r3, r3, #131072	; 0x20000
 80018fe:	2b00      	cmp	r3, #0
 8001900:	d119      	bne.n	8001936 <HAL_RCC_ClockConfig+0xde>
      {
        return HAL_ERROR;
 8001902:	2301      	movs	r3, #1
 8001904:	e07f      	b.n	8001a06 <HAL_RCC_ClockConfig+0x1ae>
      }
    }
    /* PLL is selected as System Clock Source */
    else if((RCC_ClkInitStruct->SYSCLKSource == RCC_SYSCLKSOURCE_PLLCLK)   ||
 8001906:	687b      	ldr	r3, [r7, #4]
 8001908:	685b      	ldr	r3, [r3, #4]
 800190a:	2b02      	cmp	r3, #2
 800190c:	d003      	beq.n	8001916 <HAL_RCC_ClockConfig+0xbe>
            (RCC_ClkInitStruct->SYSCLKSource == RCC_SYSCLKSOURCE_PLLRCLK))
 800190e:	687b      	ldr	r3, [r7, #4]
 8001910:	685b      	ldr	r3, [r3, #4]
    else if((RCC_ClkInitStruct->SYSCLKSource == RCC_SYSCLKSOURCE_PLLCLK)   ||
 8001912:	2b03      	cmp	r3, #3
 8001914:	d107      	bne.n	8001926 <HAL_RCC_ClockConfig+0xce>
    {
      /* Check the PLL ready flag */
      if(__HAL_RCC_GET_FLAG(RCC_FLAG_PLLRDY) == RESET)
 8001916:	4b3f      	ldr	r3, [pc, #252]	; (8001a14 <HAL_RCC_ClockConfig+0x1bc>)
 8001918:	681b      	ldr	r3, [r3, #0]
 800191a:	f003 7300 	and.w	r3, r3, #33554432	; 0x2000000
 800191e:	2b00      	cmp	r3, #0
 8001920:	d109      	bne.n	8001936 <HAL_RCC_ClockConfig+0xde>
      {
        return HAL_ERROR;
 8001922:	2301      	movs	r3, #1
 8001924:	e06f      	b.n	8001a06 <HAL_RCC_ClockConfig+0x1ae>
    }
    /* HSI is selected as System Clock Source */
    else
    {
      /* Check the HSI ready flag */
      if(__HAL_RCC_GET_FLAG(RCC_FLAG_HSIRDY) == RESET)
 8001926:	4b3b      	ldr	r3, [pc, #236]	; (8001a14 <HAL_RCC_ClockConfig+0x1bc>)
 8001928:	681b      	ldr	r3, [r3, #0]
 800192a:	f003 0302 	and.w	r3, r3, #2
 800192e:	2b00      	cmp	r3, #0
 8001930:	d101      	bne.n	8001936 <HAL_RCC_ClockConfig+0xde>
      {
        return HAL_ERROR;
 8001932:	2301      	movs	r3, #1
 8001934:	e067      	b.n	8001a06 <HAL_RCC_ClockConfig+0x1ae>
      }
    }

    __HAL_RCC_SYSCLK_CONFIG(RCC_ClkInitStruct->SYSCLKSource);
 8001936:	4b37      	ldr	r3, [pc, #220]	; (8001a14 <HAL_RCC_ClockConfig+0x1bc>)
 8001938:	689b      	ldr	r3, [r3, #8]
 800193a:	f023 0203 	bic.w	r2, r3, #3
 800193e:	687b      	ldr	r3, [r7, #4]
 8001940:	685b      	ldr	r3, [r3, #4]
 8001942:	4934      	ldr	r1, [pc, #208]	; (8001a14 <HAL_RCC_ClockConfig+0x1bc>)
 8001944:	4313      	orrs	r3, r2
 8001946:	608b      	str	r3, [r1, #8]

    /* Get Start Tick */
    tickstart = HAL_GetTick();
 8001948:	f7ff fa18 	bl	8000d7c <HAL_GetTick>
 800194c:	60f8      	str	r0, [r7, #12]

    while (__HAL_RCC_GET_SYSCLK_SOURCE() != (RCC_ClkInitStruct->SYSCLKSource << RCC_CFGR_SWS_Pos))
 800194e:	e00a      	b.n	8001966 <HAL_RCC_ClockConfig+0x10e>
    {
      if ((HAL_GetTick() - tickstart) > CLOCKSWITCH_TIMEOUT_VALUE)
 8001950:	f7ff fa14 	bl	8000d7c <HAL_GetTick>
 8001954:	4602      	mov	r2, r0
 8001956:	68fb      	ldr	r3, [r7, #12]
 8001958:	1ad3      	subs	r3, r2, r3
 800195a:	f241 3288 	movw	r2, #5000	; 0x1388
 800195e:	4293      	cmp	r3, r2
 8001960:	d901      	bls.n	8001966 <HAL_RCC_ClockConfig+0x10e>
      {
        return HAL_TIMEOUT;
 8001962:	2303      	movs	r3, #3
 8001964:	e04f      	b.n	8001a06 <HAL_RCC_ClockConfig+0x1ae>
    while (__HAL_RCC_GET_SYSCLK_SOURCE() != (RCC_ClkInitStruct->SYSCLKSource << RCC_CFGR_SWS_Pos))
 8001966:	4b2b      	ldr	r3, [pc, #172]	; (8001a14 <HAL_RCC_ClockConfig+0x1bc>)
 8001968:	689b      	ldr	r3, [r3, #8]
 800196a:	f003 020c 	and.w	r2, r3, #12
 800196e:	687b      	ldr	r3, [r7, #4]
 8001970:	685b      	ldr	r3, [r3, #4]
 8001972:	009b      	lsls	r3, r3, #2
 8001974:	429a      	cmp	r2, r3
 8001976:	d1eb      	bne.n	8001950 <HAL_RCC_ClockConfig+0xf8>
      }
    }
  }

  /* Decreasing the number of wait states because of lower CPU frequency */
  if(FLatency < __HAL_FLASH_GET_LATENCY())
 8001978:	4b25      	ldr	r3, [pc, #148]	; (8001a10 <HAL_RCC_ClockConfig+0x1b8>)
 800197a:	681b      	ldr	r3, [r3, #0]
 800197c:	f003 0307 	and.w	r3, r3, #7
 8001980:	683a      	ldr	r2, [r7, #0]
 8001982:	429a      	cmp	r2, r3
 8001984:	d20c      	bcs.n	80019a0 <HAL_RCC_ClockConfig+0x148>
  {
     /* Program the new number of wait states to the LATENCY bits in the FLASH_ACR register */
    __HAL_FLASH_SET_LATENCY(FLatency);
 8001986:	4b22      	ldr	r3, [pc, #136]	; (8001a10 <HAL_RCC_ClockConfig+0x1b8>)
 8001988:	683a      	ldr	r2, [r7, #0]
 800198a:	b2d2      	uxtb	r2, r2
 800198c:	701a      	strb	r2, [r3, #0]

    /* Check that the new number of wait states is taken into account to access the Flash
    memory by reading the FLASH_ACR register */
    if(__HAL_FLASH_GET_LATENCY() != FLatency)
 800198e:	4b20      	ldr	r3, [pc, #128]	; (8001a10 <HAL_RCC_ClockConfig+0x1b8>)
 8001990:	681b      	ldr	r3, [r3, #0]
 8001992:	f003 0307 	and.w	r3, r3, #7
 8001996:	683a      	ldr	r2, [r7, #0]
 8001998:	429a      	cmp	r2, r3
 800199a:	d001      	beq.n	80019a0 <HAL_RCC_ClockConfig+0x148>
    {
      return HAL_ERROR;
 800199c:	2301      	movs	r3, #1
 800199e:	e032      	b.n	8001a06 <HAL_RCC_ClockConfig+0x1ae>
    }
  }

  /*-------------------------- PCLK1 Configuration ---------------------------*/
  if(((RCC_ClkInitStruct->ClockType) & RCC_CLOCKTYPE_PCLK1) == RCC_CLOCKTYPE_PCLK1)
 80019a0:	687b      	ldr	r3, [r7, #4]
 80019a2:	681b      	ldr	r3, [r3, #0]
 80019a4:	f003 0304 	and.w	r3, r3, #4
 80019a8:	2b00      	cmp	r3, #0
 80019aa:	d008      	beq.n	80019be <HAL_RCC_ClockConfig+0x166>
  {
    assert_param(IS_RCC_PCLK(RCC_ClkInitStruct->APB1CLKDivider));
    MODIFY_REG(RCC->CFGR, RCC_CFGR_PPRE1, RCC_ClkInitStruct->APB1CLKDivider);
 80019ac:	4b19      	ldr	r3, [pc, #100]	; (8001a14 <HAL_RCC_ClockConfig+0x1bc>)
 80019ae:	689b      	ldr	r3, [r3, #8]
 80019b0:	f423 52e0 	bic.w	r2, r3, #7168	; 0x1c00
 80019b4:	687b      	ldr	r3, [r7, #4]
 80019b6:	68db      	ldr	r3, [r3, #12]
 80019b8:	4916      	ldr	r1, [pc, #88]	; (8001a14 <HAL_RCC_ClockConfig+0x1bc>)
 80019ba:	4313      	orrs	r3, r2
 80019bc:	608b      	str	r3, [r1, #8]
  }

  /*-------------------------- PCLK2 Configuration ---------------------------*/
  if(((RCC_ClkInitStruct->ClockType) & RCC_CLOCKTYPE_PCLK2) == RCC_CLOCKTYPE_PCLK2)
 80019be:	687b      	ldr	r3, [r7, #4]
 80019c0:	681b      	ldr	r3, [r3, #0]
 80019c2:	f003 0308 	and.w	r3, r3, #8
 80019c6:	2b00      	cmp	r3, #0
 80019c8:	d009      	beq.n	80019de <HAL_RCC_ClockConfig+0x186>
  {
    assert_param(IS_RCC_PCLK(RCC_ClkInitStruct->APB2CLKDivider));
    MODIFY_REG(RCC->CFGR, RCC_CFGR_PPRE2, ((RCC_ClkInitStruct->APB2CLKDivider) << 3U));
 80019ca:	4b12      	ldr	r3, [pc, #72]	; (8001a14 <HAL_RCC_ClockConfig+0x1bc>)
 80019cc:	689b      	ldr	r3, [r3, #8]
 80019ce:	f423 4260 	bic.w	r2, r3, #57344	; 0xe000
 80019d2:	687b      	ldr	r3, [r7, #4]
 80019d4:	691b      	ldr	r3, [r3, #16]
 80019d6:	00db      	lsls	r3, r3, #3
 80019d8:	490e      	ldr	r1, [pc, #56]	; (8001a14 <HAL_RCC_ClockConfig+0x1bc>)
 80019da:	4313      	orrs	r3, r2
 80019dc:	608b      	str	r3, [r1, #8]
  }

  /* Update the SystemCoreClock global variable */
  SystemCoreClock = HAL_RCC_GetSysClockFreq() >> AHBPrescTable[(RCC->CFGR & RCC_CFGR_HPRE)>> RCC_CFGR_HPRE_Pos];
 80019de:	f000 f821 	bl	8001a24 <HAL_RCC_GetSysClockFreq>
 80019e2:	4602      	mov	r2, r0
 80019e4:	4b0b      	ldr	r3, [pc, #44]	; (8001a14 <HAL_RCC_ClockConfig+0x1bc>)
 80019e6:	689b      	ldr	r3, [r3, #8]
 80019e8:	091b      	lsrs	r3, r3, #4
 80019ea:	f003 030f 	and.w	r3, r3, #15
 80019ee:	490a      	ldr	r1, [pc, #40]	; (8001a18 <HAL_RCC_ClockConfig+0x1c0>)
 80019f0:	5ccb      	ldrb	r3, [r1, r3]
 80019f2:	fa22 f303 	lsr.w	r3, r2, r3
 80019f6:	4a09      	ldr	r2, [pc, #36]	; (8001a1c <HAL_RCC_ClockConfig+0x1c4>)
 80019f8:	6013      	str	r3, [r2, #0]

  /* Configure the source of time base considering new system clocks settings */
  HAL_InitTick (uwTickPrio);
 80019fa:	4b09      	ldr	r3, [pc, #36]	; (8001a20 <HAL_RCC_ClockConfig+0x1c8>)
 80019fc:	681b      	ldr	r3, [r3, #0]
 80019fe:	4618      	mov	r0, r3
 8001a00:	f7ff f978 	bl	8000cf4 <HAL_InitTick>

  return HAL_OK;
 8001a04:	2300      	movs	r3, #0
}
 8001a06:	4618      	mov	r0, r3
 8001a08:	3710      	adds	r7, #16
 8001a0a:	46bd      	mov	sp, r7
 8001a0c:	bd80      	pop	{r7, pc}
 8001a0e:	bf00      	nop
 8001a10:	40023c00 	.word	0x40023c00
 8001a14:	40023800 	.word	0x40023800
 8001a18:	080033d0 	.word	0x080033d0
 8001a1c:	20000004 	.word	0x20000004
 8001a20:	20000008 	.word	0x20000008

08001a24 <HAL_RCC_GetSysClockFreq>:
  *
  *
  * @retval SYSCLK frequency
  */
__weak uint32_t HAL_RCC_GetSysClockFreq(void)
{
 8001a24:	e92d 4fb0 	stmdb	sp!, {r4, r5, r7, r8, r9, sl, fp, lr}
 8001a28:	b094      	sub	sp, #80	; 0x50
 8001a2a:	af00      	add	r7, sp, #0
  uint32_t pllm = 0U, pllvco = 0U, pllp = 0U;
 8001a2c:	2300      	movs	r3, #0
 8001a2e:	647b      	str	r3, [r7, #68]	; 0x44
 8001a30:	2300      	movs	r3, #0
 8001a32:	64fb      	str	r3, [r7, #76]	; 0x4c
 8001a34:	2300      	movs	r3, #0
 8001a36:	643b      	str	r3, [r7, #64]	; 0x40
  uint32_t sysclockfreq = 0U;
 8001a38:	2300      	movs	r3, #0
 8001a3a:	64bb      	str	r3, [r7, #72]	; 0x48

  /* Get SYSCLK source -------------------------------------------------------*/
  switch (RCC->CFGR & RCC_CFGR_SWS)
 8001a3c:	4b79      	ldr	r3, [pc, #484]	; (8001c24 <HAL_RCC_GetSysClockFreq+0x200>)
 8001a3e:	689b      	ldr	r3, [r3, #8]
 8001a40:	f003 030c 	and.w	r3, r3, #12
 8001a44:	2b08      	cmp	r3, #8
 8001a46:	d00d      	beq.n	8001a64 <HAL_RCC_GetSysClockFreq+0x40>
 8001a48:	2b08      	cmp	r3, #8
 8001a4a:	f200 80e1 	bhi.w	8001c10 <HAL_RCC_GetSysClockFreq+0x1ec>
 8001a4e:	2b00      	cmp	r3, #0
 8001a50:	d002      	beq.n	8001a58 <HAL_RCC_GetSysClockFreq+0x34>
 8001a52:	2b04      	cmp	r3, #4
 8001a54:	d003      	beq.n	8001a5e <HAL_RCC_GetSysClockFreq+0x3a>
 8001a56:	e0db      	b.n	8001c10 <HAL_RCC_GetSysClockFreq+0x1ec>
  {
    case RCC_CFGR_SWS_HSI:  /* HSI used as system clock source */
    {
      sysclockfreq = HSI_VALUE;
 8001a58:	4b73      	ldr	r3, [pc, #460]	; (8001c28 <HAL_RCC_GetSysClockFreq+0x204>)
 8001a5a:	64bb      	str	r3, [r7, #72]	; 0x48
       break;
 8001a5c:	e0db      	b.n	8001c16 <HAL_RCC_GetSysClockFreq+0x1f2>
    }
    case RCC_CFGR_SWS_HSE:  /* HSE used as system clock  source */
    {
      sysclockfreq = HSE_VALUE;
 8001a5e:	4b73      	ldr	r3, [pc, #460]	; (8001c2c <HAL_RCC_GetSysClockFreq+0x208>)
 8001a60:	64bb      	str	r3, [r7, #72]	; 0x48
      break;
 8001a62:	e0d8      	b.n	8001c16 <HAL_RCC_GetSysClockFreq+0x1f2>
    }
    case RCC_CFGR_SWS_PLL:  /* PLL used as system clock  source */
    {
      /* PLL_VCO = (HSE_VALUE or HSI_VALUE / PLLM) * PLLN
      SYSCLK = PLL_VCO / PLLP */
      pllm = RCC->PLLCFGR & RCC_PLLCFGR_PLLM;
 8001a64:	4b6f      	ldr	r3, [pc, #444]	; (8001c24 <HAL_RCC_GetSysClockFreq+0x200>)
 8001a66:	685b      	ldr	r3, [r3, #4]
 8001a68:	f003 033f 	and.w	r3, r3, #63	; 0x3f
 8001a6c:	647b      	str	r3, [r7, #68]	; 0x44
      if(__HAL_RCC_GET_PLL_OSCSOURCE() != RCC_PLLSOURCE_HSI)
 8001a6e:	4b6d      	ldr	r3, [pc, #436]	; (8001c24 <HAL_RCC_GetSysClockFreq+0x200>)
 8001a70:	685b      	ldr	r3, [r3, #4]
 8001a72:	f403 0380 	and.w	r3, r3, #4194304	; 0x400000
 8001a76:	2b00      	cmp	r3, #0
 8001a78:	d063      	beq.n	8001b42 <HAL_RCC_GetSysClockFreq+0x11e>
      {
        /* HSE used as PLL clock source */
        pllvco = (uint32_t) ((((uint64_t) HSE_VALUE * ((uint64_t) ((RCC->PLLCFGR & RCC_PLLCFGR_PLLN) >> RCC_PLLCFGR_PLLN_Pos)))) / (uint64_t)pllm);
 8001a7a:	4b6a      	ldr	r3, [pc, #424]	; (8001c24 <HAL_RCC_GetSysClockFreq+0x200>)
 8001a7c:	685b      	ldr	r3, [r3, #4]
 8001a7e:	099b      	lsrs	r3, r3, #6
 8001a80:	2200      	movs	r2, #0
 8001a82:	63bb      	str	r3, [r7, #56]	; 0x38
 8001a84:	63fa      	str	r2, [r7, #60]	; 0x3c
 8001a86:	6bbb      	ldr	r3, [r7, #56]	; 0x38
 8001a88:	f3c3 0308 	ubfx	r3, r3, #0, #9
 8001a8c:	633b      	str	r3, [r7, #48]	; 0x30
 8001a8e:	2300      	movs	r3, #0
 8001a90:	637b      	str	r3, [r7, #52]	; 0x34
 8001a92:	e9d7 450c 	ldrd	r4, r5, [r7, #48]	; 0x30
 8001a96:	4622      	mov	r2, r4
 8001a98:	462b      	mov	r3, r5
 8001a9a:	f04f 0000 	mov.w	r0, #0
 8001a9e:	f04f 0100 	mov.w	r1, #0
 8001aa2:	0159      	lsls	r1, r3, #5
 8001aa4:	ea41 61d2 	orr.w	r1, r1, r2, lsr #27
 8001aa8:	0150      	lsls	r0, r2, #5
 8001aaa:	4602      	mov	r2, r0
 8001aac:	460b      	mov	r3, r1
 8001aae:	4621      	mov	r1, r4
 8001ab0:	1a51      	subs	r1, r2, r1
 8001ab2:	6139      	str	r1, [r7, #16]
 8001ab4:	4629      	mov	r1, r5
 8001ab6:	eb63 0301 	sbc.w	r3, r3, r1
 8001aba:	617b      	str	r3, [r7, #20]
 8001abc:	f04f 0200 	mov.w	r2, #0
 8001ac0:	f04f 0300 	mov.w	r3, #0
 8001ac4:	e9d7 ab04 	ldrd	sl, fp, [r7, #16]
 8001ac8:	4659      	mov	r1, fp
 8001aca:	018b      	lsls	r3, r1, #6
 8001acc:	4651      	mov	r1, sl
 8001ace:	ea43 6391 	orr.w	r3, r3, r1, lsr #26
 8001ad2:	4651      	mov	r1, sl
 8001ad4:	018a      	lsls	r2, r1, #6
 8001ad6:	4651      	mov	r1, sl
 8001ad8:	ebb2 0801 	subs.w	r8, r2, r1
 8001adc:	4659      	mov	r1, fp
 8001ade:	eb63 0901 	sbc.w	r9, r3, r1
 8001ae2:	f04f 0200 	mov.w	r2, #0
 8001ae6:	f04f 0300 	mov.w	r3, #0
 8001aea:	ea4f 03c9 	mov.w	r3, r9, lsl #3
 8001aee:	ea43 7358 	orr.w	r3, r3, r8, lsr #29
 8001af2:	ea4f 02c8 	mov.w	r2, r8, lsl #3
 8001af6:	4690      	mov	r8, r2
 8001af8:	4699      	mov	r9, r3
 8001afa:	4623      	mov	r3, r4
 8001afc:	eb18 0303 	adds.w	r3, r8, r3
 8001b00:	60bb      	str	r3, [r7, #8]
 8001b02:	462b      	mov	r3, r5
 8001b04:	eb49 0303 	adc.w	r3, r9, r3
 8001b08:	60fb      	str	r3, [r7, #12]
 8001b0a:	f04f 0200 	mov.w	r2, #0
 8001b0e:	f04f 0300 	mov.w	r3, #0
 8001b12:	e9d7 4502 	ldrd	r4, r5, [r7, #8]
 8001b16:	4629      	mov	r1, r5
 8001b18:	024b      	lsls	r3, r1, #9
 8001b1a:	4621      	mov	r1, r4
 8001b1c:	ea43 53d1 	orr.w	r3, r3, r1, lsr #23
 8001b20:	4621      	mov	r1, r4
 8001b22:	024a      	lsls	r2, r1, #9
 8001b24:	4610      	mov	r0, r2
 8001b26:	4619      	mov	r1, r3
 8001b28:	6c7b      	ldr	r3, [r7, #68]	; 0x44
 8001b2a:	2200      	movs	r2, #0
 8001b2c:	62bb      	str	r3, [r7, #40]	; 0x28
 8001b2e:	62fa      	str	r2, [r7, #44]	; 0x2c
 8001b30:	e9d7 230a 	ldrd	r2, r3, [r7, #40]	; 0x28
 8001b34:	f7fe fb48 	bl	80001c8 <__aeabi_uldivmod>
 8001b38:	4602      	mov	r2, r0
 8001b3a:	460b      	mov	r3, r1
 8001b3c:	4613      	mov	r3, r2
 8001b3e:	64fb      	str	r3, [r7, #76]	; 0x4c
 8001b40:	e058      	b.n	8001bf4 <HAL_RCC_GetSysClockFreq+0x1d0>
      }
      else
      {
        /* HSI used as PLL clock source */
        pllvco = (uint32_t) ((((uint64_t) HSI_VALUE * ((uint64_t) ((RCC->PLLCFGR & RCC_PLLCFGR_PLLN) >> RCC_PLLCFGR_PLLN_Pos)))) / (uint64_t)pllm);
 8001b42:	4b38      	ldr	r3, [pc, #224]	; (8001c24 <HAL_RCC_GetSysClockFreq+0x200>)
 8001b44:	685b      	ldr	r3, [r3, #4]
 8001b46:	099b      	lsrs	r3, r3, #6
 8001b48:	2200      	movs	r2, #0
 8001b4a:	4618      	mov	r0, r3
 8001b4c:	4611      	mov	r1, r2
 8001b4e:	f3c0 0308 	ubfx	r3, r0, #0, #9
 8001b52:	623b      	str	r3, [r7, #32]
 8001b54:	2300      	movs	r3, #0
 8001b56:	627b      	str	r3, [r7, #36]	; 0x24
 8001b58:	e9d7 8908 	ldrd	r8, r9, [r7, #32]
 8001b5c:	4642      	mov	r2, r8
 8001b5e:	464b      	mov	r3, r9
 8001b60:	f04f 0000 	mov.w	r0, #0
 8001b64:	f04f 0100 	mov.w	r1, #0
 8001b68:	0159      	lsls	r1, r3, #5
 8001b6a:	ea41 61d2 	orr.w	r1, r1, r2, lsr #27
 8001b6e:	0150      	lsls	r0, r2, #5
 8001b70:	4602      	mov	r2, r0
 8001b72:	460b      	mov	r3, r1
 8001b74:	4641      	mov	r1, r8
 8001b76:	ebb2 0a01 	subs.w	sl, r2, r1
 8001b7a:	4649      	mov	r1, r9
 8001b7c:	eb63 0b01 	sbc.w	fp, r3, r1
 8001b80:	f04f 0200 	mov.w	r2, #0
 8001b84:	f04f 0300 	mov.w	r3, #0
 8001b88:	ea4f 138b 	mov.w	r3, fp, lsl #6
 8001b8c:	ea43 639a 	orr.w	r3, r3, sl, lsr #26
 8001b90:	ea4f 128a 	mov.w	r2, sl, lsl #6
 8001b94:	ebb2 040a 	subs.w	r4, r2, sl
 8001b98:	eb63 050b 	sbc.w	r5, r3, fp
 8001b9c:	f04f 0200 	mov.w	r2, #0
 8001ba0:	f04f 0300 	mov.w	r3, #0
 8001ba4:	00eb      	lsls	r3, r5, #3
 8001ba6:	ea43 7354 	orr.w	r3, r3, r4, lsr #29
 8001baa:	00e2      	lsls	r2, r4, #3
 8001bac:	4614      	mov	r4, r2
 8001bae:	461d      	mov	r5, r3
 8001bb0:	4643      	mov	r3, r8
 8001bb2:	18e3      	adds	r3, r4, r3
 8001bb4:	603b      	str	r3, [r7, #0]
 8001bb6:	464b      	mov	r3, r9
 8001bb8:	eb45 0303 	adc.w	r3, r5, r3
 8001bbc:	607b      	str	r3, [r7, #4]
 8001bbe:	f04f 0200 	mov.w	r2, #0
 8001bc2:	f04f 0300 	mov.w	r3, #0
 8001bc6:	e9d7 4500 	ldrd	r4, r5, [r7]
 8001bca:	4629      	mov	r1, r5
 8001bcc:	028b      	lsls	r3, r1, #10
 8001bce:	4621      	mov	r1, r4
 8001bd0:	ea43 5391 	orr.w	r3, r3, r1, lsr #22
 8001bd4:	4621      	mov	r1, r4
 8001bd6:	028a      	lsls	r2, r1, #10
 8001bd8:	4610      	mov	r0, r2
 8001bda:	4619      	mov	r1, r3
 8001bdc:	6c7b      	ldr	r3, [r7, #68]	; 0x44
 8001bde:	2200      	movs	r2, #0
 8001be0:	61bb      	str	r3, [r7, #24]
 8001be2:	61fa      	str	r2, [r7, #28]
 8001be4:	e9d7 2306 	ldrd	r2, r3, [r7, #24]
 8001be8:	f7fe faee 	bl	80001c8 <__aeabi_uldivmod>
 8001bec:	4602      	mov	r2, r0
 8001bee:	460b      	mov	r3, r1
 8001bf0:	4613      	mov	r3, r2
 8001bf2:	64fb      	str	r3, [r7, #76]	; 0x4c
      }
      pllp = ((((RCC->PLLCFGR & RCC_PLLCFGR_PLLP) >> RCC_PLLCFGR_PLLP_Pos) + 1U) *2U);
 8001bf4:	4b0b      	ldr	r3, [pc, #44]	; (8001c24 <HAL_RCC_GetSysClockFreq+0x200>)
 8001bf6:	685b      	ldr	r3, [r3, #4]
 8001bf8:	0c1b      	lsrs	r3, r3, #16
 8001bfa:	f003 0303 	and.w	r3, r3, #3
 8001bfe:	3301      	adds	r3, #1
 8001c00:	005b      	lsls	r3, r3, #1
 8001c02:	643b      	str	r3, [r7, #64]	; 0x40

      sysclockfreq = pllvco/pllp;
 8001c04:	6cfa      	ldr	r2, [r7, #76]	; 0x4c
 8001c06:	6c3b      	ldr	r3, [r7, #64]	; 0x40
 8001c08:	fbb2 f3f3 	udiv	r3, r2, r3
 8001c0c:	64bb      	str	r3, [r7, #72]	; 0x48
      break;
 8001c0e:	e002      	b.n	8001c16 <HAL_RCC_GetSysClockFreq+0x1f2>
    }
    default:
    {
      sysclockfreq = HSI_VALUE;
 8001c10:	4b05      	ldr	r3, [pc, #20]	; (8001c28 <HAL_RCC_GetSysClockFreq+0x204>)
 8001c12:	64bb      	str	r3, [r7, #72]	; 0x48
      break;
 8001c14:	bf00      	nop
    }
  }
  return sysclockfreq;
 8001c16:	6cbb      	ldr	r3, [r7, #72]	; 0x48
}
 8001c18:	4618      	mov	r0, r3
 8001c1a:	3750      	adds	r7, #80	; 0x50
 8001c1c:	46bd      	mov	sp, r7
 8001c1e:	e8bd 8fb0 	ldmia.w	sp!, {r4, r5, r7, r8, r9, sl, fp, pc}
 8001c22:	bf00      	nop
 8001c24:	40023800 	.word	0x40023800
 8001c28:	00f42400 	.word	0x00f42400
 8001c2c:	007a1200 	.word	0x007a1200

08001c30 <HAL_SPI_Init>:
  * @param  hspi pointer to a SPI_HandleTypeDef structure that contains
  *               the configuration information for SPI module.
  * @retval HAL status
  */
HAL_StatusTypeDef HAL_SPI_Init(SPI_HandleTypeDef *hspi)
{
 8001c30:	b580      	push	{r7, lr}
 8001c32:	b082      	sub	sp, #8
 8001c34:	af00      	add	r7, sp, #0
 8001c36:	6078      	str	r0, [r7, #4]
  /* Check the SPI handle allocation */
  if (hspi == NULL)
 8001c38:	687b      	ldr	r3, [r7, #4]
 8001c3a:	2b00      	cmp	r3, #0
 8001c3c:	d101      	bne.n	8001c42 <HAL_SPI_Init+0x12>
  {
    return HAL_ERROR;
 8001c3e:	2301      	movs	r3, #1
 8001c40:	e07b      	b.n	8001d3a <HAL_SPI_Init+0x10a>
  assert_param(IS_SPI_DATASIZE(hspi->Init.DataSize));
  assert_param(IS_SPI_NSS(hspi->Init.NSS));
  assert_param(IS_SPI_BAUDRATE_PRESCALER(hspi->Init.BaudRatePrescaler));
  assert_param(IS_SPI_FIRST_BIT(hspi->Init.FirstBit));
  assert_param(IS_SPI_TIMODE(hspi->Init.TIMode));
  if (hspi->Init.TIMode == SPI_TIMODE_DISABLE)
 8001c42:	687b      	ldr	r3, [r7, #4]
 8001c44:	6a5b      	ldr	r3, [r3, #36]	; 0x24
 8001c46:	2b00      	cmp	r3, #0
 8001c48:	d108      	bne.n	8001c5c <HAL_SPI_Init+0x2c>
  {
    assert_param(IS_SPI_CPOL(hspi->Init.CLKPolarity));
    assert_param(IS_SPI_CPHA(hspi->Init.CLKPhase));

    if (hspi->Init.Mode == SPI_MODE_MASTER)
 8001c4a:	687b      	ldr	r3, [r7, #4]
 8001c4c:	685b      	ldr	r3, [r3, #4]
 8001c4e:	f5b3 7f82 	cmp.w	r3, #260	; 0x104
 8001c52:	d009      	beq.n	8001c68 <HAL_SPI_Init+0x38>
      assert_param(IS_SPI_BAUDRATE_PRESCALER(hspi->Init.BaudRatePrescaler));
    }
    else
    {
      /* Baudrate prescaler not use in Motoraola Slave mode. force to default value */
      hspi->Init.BaudRatePrescaler = SPI_BAUDRATEPRESCALER_2;
 8001c54:	687b      	ldr	r3, [r7, #4]
 8001c56:	2200      	movs	r2, #0
 8001c58:	61da      	str	r2, [r3, #28]
 8001c5a:	e005      	b.n	8001c68 <HAL_SPI_Init+0x38>
  else
  {
    assert_param(IS_SPI_BAUDRATE_PRESCALER(hspi->Init.BaudRatePrescaler));

    /* Force polarity and phase to TI protocaol requirements */
    hspi->Init.CLKPolarity = SPI_POLARITY_LOW;
 8001c5c:	687b      	ldr	r3, [r7, #4]
 8001c5e:	2200      	movs	r2, #0
 8001c60:	611a      	str	r2, [r3, #16]
    hspi->Init.CLKPhase    = SPI_PHASE_1EDGE;
 8001c62:	687b      	ldr	r3, [r7, #4]
 8001c64:	2200      	movs	r2, #0
 8001c66:	615a      	str	r2, [r3, #20]
  if (hspi->Init.CRCCalculation == SPI_CRCCALCULATION_ENABLE)
  {
    assert_param(IS_SPI_CRC_POLYNOMIAL(hspi->Init.CRCPolynomial));
  }
#else
  hspi->Init.CRCCalculation = SPI_CRCCALCULATION_DISABLE;
 8001c68:	687b      	ldr	r3, [r7, #4]
 8001c6a:	2200      	movs	r2, #0
 8001c6c:	629a      	str	r2, [r3, #40]	; 0x28
#endif /* USE_SPI_CRC */

  if (hspi->State == HAL_SPI_STATE_RESET)
 8001c6e:	687b      	ldr	r3, [r7, #4]
 8001c70:	f893 3051 	ldrb.w	r3, [r3, #81]	; 0x51
 8001c74:	b2db      	uxtb	r3, r3
 8001c76:	2b00      	cmp	r3, #0
 8001c78:	d106      	bne.n	8001c88 <HAL_SPI_Init+0x58>
  {
    /* Allocate lock resource and initialize it */
    hspi->Lock = HAL_UNLOCKED;
 8001c7a:	687b      	ldr	r3, [r7, #4]
 8001c7c:	2200      	movs	r2, #0
 8001c7e:	f883 2050 	strb.w	r2, [r3, #80]	; 0x50

    /* Init the low level hardware : GPIO, CLOCK, NVIC... */
    hspi->MspInitCallback(hspi);
#else
    /* Init the low level hardware : GPIO, CLOCK, NVIC... */
    HAL_SPI_MspInit(hspi);
 8001c82:	6878      	ldr	r0, [r7, #4]
 8001c84:	f7fe fe14 	bl	80008b0 <HAL_SPI_MspInit>
#endif /* USE_HAL_SPI_REGISTER_CALLBACKS */
  }

  hspi->State = HAL_SPI_STATE_BUSY;
 8001c88:	687b      	ldr	r3, [r7, #4]
 8001c8a:	2202      	movs	r2, #2
 8001c8c:	f883 2051 	strb.w	r2, [r3, #81]	; 0x51

  /* Disable the selected SPI peripheral */
  __HAL_SPI_DISABLE(hspi);
 8001c90:	687b      	ldr	r3, [r7, #4]
 8001c92:	681b      	ldr	r3, [r3, #0]
 8001c94:	681a      	ldr	r2, [r3, #0]
 8001c96:	687b      	ldr	r3, [r7, #4]
 8001c98:	681b      	ldr	r3, [r3, #0]
 8001c9a:	f022 0240 	bic.w	r2, r2, #64	; 0x40
 8001c9e:	601a      	str	r2, [r3, #0]

  /*----------------------- SPIx CR1 & CR2 Configuration ---------------------*/
  /* Configure : SPI Mode, Communication Mode, Data size, Clock polarity and phase, NSS management,
  Communication speed, First bit and CRC calculation state */
  WRITE_REG(hspi->Instance->CR1, ((hspi->Init.Mode & (SPI_CR1_MSTR | SPI_CR1_SSI)) |
 8001ca0:	687b      	ldr	r3, [r7, #4]
 8001ca2:	685b      	ldr	r3, [r3, #4]
 8001ca4:	f403 7282 	and.w	r2, r3, #260	; 0x104
 8001ca8:	687b      	ldr	r3, [r7, #4]
 8001caa:	689b      	ldr	r3, [r3, #8]
 8001cac:	f403 4304 	and.w	r3, r3, #33792	; 0x8400
 8001cb0:	431a      	orrs	r2, r3
 8001cb2:	687b      	ldr	r3, [r7, #4]
 8001cb4:	68db      	ldr	r3, [r3, #12]
 8001cb6:	f403 6300 	and.w	r3, r3, #2048	; 0x800
 8001cba:	431a      	orrs	r2, r3
 8001cbc:	687b      	ldr	r3, [r7, #4]
 8001cbe:	691b      	ldr	r3, [r3, #16]
 8001cc0:	f003 0302 	and.w	r3, r3, #2
 8001cc4:	431a      	orrs	r2, r3
 8001cc6:	687b      	ldr	r3, [r7, #4]
 8001cc8:	695b      	ldr	r3, [r3, #20]
 8001cca:	f003 0301 	and.w	r3, r3, #1
 8001cce:	431a      	orrs	r2, r3
 8001cd0:	687b      	ldr	r3, [r7, #4]
 8001cd2:	699b      	ldr	r3, [r3, #24]
 8001cd4:	f403 7300 	and.w	r3, r3, #512	; 0x200
 8001cd8:	431a      	orrs	r2, r3
 8001cda:	687b      	ldr	r3, [r7, #4]
 8001cdc:	69db      	ldr	r3, [r3, #28]
 8001cde:	f003 0338 	and.w	r3, r3, #56	; 0x38
 8001ce2:	431a      	orrs	r2, r3
 8001ce4:	687b      	ldr	r3, [r7, #4]
 8001ce6:	6a1b      	ldr	r3, [r3, #32]
 8001ce8:	f003 0380 	and.w	r3, r3, #128	; 0x80
 8001cec:	ea42 0103 	orr.w	r1, r2, r3
 8001cf0:	687b      	ldr	r3, [r7, #4]
 8001cf2:	6a9b      	ldr	r3, [r3, #40]	; 0x28
 8001cf4:	f403 5200 	and.w	r2, r3, #8192	; 0x2000
 8001cf8:	687b      	ldr	r3, [r7, #4]
 8001cfa:	681b      	ldr	r3, [r3, #0]
 8001cfc:	430a      	orrs	r2, r1
 8001cfe:	601a      	str	r2, [r3, #0]
                                  (hspi->Init.BaudRatePrescaler & SPI_CR1_BR_Msk) |
                                  (hspi->Init.FirstBit  & SPI_CR1_LSBFIRST) |
                                  (hspi->Init.CRCCalculation & SPI_CR1_CRCEN)));

  /* Configure : NSS management, TI Mode */
  WRITE_REG(hspi->Instance->CR2, (((hspi->Init.NSS >> 16U) & SPI_CR2_SSOE) | (hspi->Init.TIMode & SPI_CR2_FRF)));
 8001d00:	687b      	ldr	r3, [r7, #4]
 8001d02:	699b      	ldr	r3, [r3, #24]
 8001d04:	0c1b      	lsrs	r3, r3, #16
 8001d06:	f003 0104 	and.w	r1, r3, #4
 8001d0a:	687b      	ldr	r3, [r7, #4]
 8001d0c:	6a5b      	ldr	r3, [r3, #36]	; 0x24
 8001d0e:	f003 0210 	and.w	r2, r3, #16
 8001d12:	687b      	ldr	r3, [r7, #4]
 8001d14:	681b      	ldr	r3, [r3, #0]
 8001d16:	430a      	orrs	r2, r1
 8001d18:	605a      	str	r2, [r3, #4]
  }
#endif /* USE_SPI_CRC */

#if defined(SPI_I2SCFGR_I2SMOD)
  /* Activate the SPI mode (Make sure that I2SMOD bit in I2SCFGR register is reset) */
  CLEAR_BIT(hspi->Instance->I2SCFGR, SPI_I2SCFGR_I2SMOD);
 8001d1a:	687b      	ldr	r3, [r7, #4]
 8001d1c:	681b      	ldr	r3, [r3, #0]
 8001d1e:	69da      	ldr	r2, [r3, #28]
 8001d20:	687b      	ldr	r3, [r7, #4]
 8001d22:	681b      	ldr	r3, [r3, #0]
 8001d24:	f422 6200 	bic.w	r2, r2, #2048	; 0x800
 8001d28:	61da      	str	r2, [r3, #28]
#endif /* SPI_I2SCFGR_I2SMOD */

  hspi->ErrorCode = HAL_SPI_ERROR_NONE;
 8001d2a:	687b      	ldr	r3, [r7, #4]
 8001d2c:	2200      	movs	r2, #0
 8001d2e:	655a      	str	r2, [r3, #84]	; 0x54
  hspi->State     = HAL_SPI_STATE_READY;
 8001d30:	687b      	ldr	r3, [r7, #4]
 8001d32:	2201      	movs	r2, #1
 8001d34:	f883 2051 	strb.w	r2, [r3, #81]	; 0x51

  return HAL_OK;
 8001d38:	2300      	movs	r3, #0
}
 8001d3a:	4618      	mov	r0, r3
 8001d3c:	3708      	adds	r7, #8
 8001d3e:	46bd      	mov	sp, r7
 8001d40:	bd80      	pop	{r7, pc}
	...

08001d44 <HAL_SPI_Transmit_IT>:
  * @param  pData pointer to data buffer
  * @param  Size amount of data to be sent
  * @retval HAL status
  */
HAL_StatusTypeDef HAL_SPI_Transmit_IT(SPI_HandleTypeDef *hspi, uint8_t *pData, uint16_t Size)
{
 8001d44:	b480      	push	{r7}
 8001d46:	b087      	sub	sp, #28
 8001d48:	af00      	add	r7, sp, #0
 8001d4a:	60f8      	str	r0, [r7, #12]
 8001d4c:	60b9      	str	r1, [r7, #8]
 8001d4e:	4613      	mov	r3, r2
 8001d50:	80fb      	strh	r3, [r7, #6]
  HAL_StatusTypeDef errorcode = HAL_OK;
 8001d52:	2300      	movs	r3, #0
 8001d54:	75fb      	strb	r3, [r7, #23]

  /* Check Direction parameter */
  assert_param(IS_SPI_DIRECTION_2LINES_OR_1LINE(hspi->Init.Direction));

  /* Process Locked */
  __HAL_LOCK(hspi);
 8001d56:	68fb      	ldr	r3, [r7, #12]
 8001d58:	f893 3050 	ldrb.w	r3, [r3, #80]	; 0x50
 8001d5c:	2b01      	cmp	r3, #1
 8001d5e:	d101      	bne.n	8001d64 <HAL_SPI_Transmit_IT+0x20>
 8001d60:	2302      	movs	r3, #2
 8001d62:	e06f      	b.n	8001e44 <HAL_SPI_Transmit_IT+0x100>
 8001d64:	68fb      	ldr	r3, [r7, #12]
 8001d66:	2201      	movs	r2, #1
 8001d68:	f883 2050 	strb.w	r2, [r3, #80]	; 0x50

  if ((pData == NULL) || (Size == 0U))
 8001d6c:	68bb      	ldr	r3, [r7, #8]
 8001d6e:	2b00      	cmp	r3, #0
 8001d70:	d002      	beq.n	8001d78 <HAL_SPI_Transmit_IT+0x34>
 8001d72:	88fb      	ldrh	r3, [r7, #6]
 8001d74:	2b00      	cmp	r3, #0
 8001d76:	d102      	bne.n	8001d7e <HAL_SPI_Transmit_IT+0x3a>
  {
    errorcode = HAL_ERROR;
 8001d78:	2301      	movs	r3, #1
 8001d7a:	75fb      	strb	r3, [r7, #23]
    goto error;
 8001d7c:	e05d      	b.n	8001e3a <HAL_SPI_Transmit_IT+0xf6>
  }

  if (hspi->State != HAL_SPI_STATE_READY)
 8001d7e:	68fb      	ldr	r3, [r7, #12]
 8001d80:	f893 3051 	ldrb.w	r3, [r3, #81]	; 0x51
 8001d84:	b2db      	uxtb	r3, r3
 8001d86:	2b01      	cmp	r3, #1
 8001d88:	d002      	beq.n	8001d90 <HAL_SPI_Transmit_IT+0x4c>
  {
    errorcode = HAL_BUSY;
 8001d8a:	2302      	movs	r3, #2
 8001d8c:	75fb      	strb	r3, [r7, #23]
    goto error;
 8001d8e:	e054      	b.n	8001e3a <HAL_SPI_Transmit_IT+0xf6>
  }

  /* Set the transaction information */
  hspi->State       = HAL_SPI_STATE_BUSY_TX;
 8001d90:	68fb      	ldr	r3, [r7, #12]
 8001d92:	2203      	movs	r2, #3
 8001d94:	f883 2051 	strb.w	r2, [r3, #81]	; 0x51
  hspi->ErrorCode   = HAL_SPI_ERROR_NONE;
 8001d98:	68fb      	ldr	r3, [r7, #12]
 8001d9a:	2200      	movs	r2, #0
 8001d9c:	655a      	str	r2, [r3, #84]	; 0x54
  hspi->pTxBuffPtr  = (uint8_t *)pData;
 8001d9e:	68fb      	ldr	r3, [r7, #12]
 8001da0:	68ba      	ldr	r2, [r7, #8]
 8001da2:	631a      	str	r2, [r3, #48]	; 0x30
  hspi->TxXferSize  = Size;
 8001da4:	68fb      	ldr	r3, [r7, #12]
 8001da6:	88fa      	ldrh	r2, [r7, #6]
 8001da8:	869a      	strh	r2, [r3, #52]	; 0x34
  hspi->TxXferCount = Size;
 8001daa:	68fb      	ldr	r3, [r7, #12]
 8001dac:	88fa      	ldrh	r2, [r7, #6]
 8001dae:	86da      	strh	r2, [r3, #54]	; 0x36

  /* Init field not used in handle to zero */
  hspi->pRxBuffPtr  = (uint8_t *)NULL;
 8001db0:	68fb      	ldr	r3, [r7, #12]
 8001db2:	2200      	movs	r2, #0
 8001db4:	639a      	str	r2, [r3, #56]	; 0x38
  hspi->RxXferSize  = 0U;
 8001db6:	68fb      	ldr	r3, [r7, #12]
 8001db8:	2200      	movs	r2, #0
 8001dba:	879a      	strh	r2, [r3, #60]	; 0x3c
  hspi->RxXferCount = 0U;
 8001dbc:	68fb      	ldr	r3, [r7, #12]
 8001dbe:	2200      	movs	r2, #0
 8001dc0:	87da      	strh	r2, [r3, #62]	; 0x3e
  hspi->RxISR       = NULL;
 8001dc2:	68fb      	ldr	r3, [r7, #12]
 8001dc4:	2200      	movs	r2, #0
 8001dc6:	641a      	str	r2, [r3, #64]	; 0x40

  /* Set the function for IT treatment */
  if (hspi->Init.DataSize > SPI_DATASIZE_8BIT)
 8001dc8:	68fb      	ldr	r3, [r7, #12]
 8001dca:	68db      	ldr	r3, [r3, #12]
 8001dcc:	2b00      	cmp	r3, #0
 8001dce:	d003      	beq.n	8001dd8 <HAL_SPI_Transmit_IT+0x94>
  {
    hspi->TxISR = SPI_TxISR_16BIT;
 8001dd0:	68fb      	ldr	r3, [r7, #12]
 8001dd2:	4a1f      	ldr	r2, [pc, #124]	; (8001e50 <HAL_SPI_Transmit_IT+0x10c>)
 8001dd4:	645a      	str	r2, [r3, #68]	; 0x44
 8001dd6:	e002      	b.n	8001dde <HAL_SPI_Transmit_IT+0x9a>
  }
  else
  {
    hspi->TxISR = SPI_TxISR_8BIT;
 8001dd8:	68fb      	ldr	r3, [r7, #12]
 8001dda:	4a1e      	ldr	r2, [pc, #120]	; (8001e54 <HAL_SPI_Transmit_IT+0x110>)
 8001ddc:	645a      	str	r2, [r3, #68]	; 0x44
  }

  /* Configure communication direction : 1Line */
  if (hspi->Init.Direction == SPI_DIRECTION_1LINE)
 8001dde:	68fb      	ldr	r3, [r7, #12]
 8001de0:	689b      	ldr	r3, [r3, #8]
 8001de2:	f5b3 4f00 	cmp.w	r3, #32768	; 0x8000
 8001de6:	d10f      	bne.n	8001e08 <HAL_SPI_Transmit_IT+0xc4>
  {
    /* Disable SPI Peripheral before set 1Line direction (BIDIOE bit) */
    __HAL_SPI_DISABLE(hspi);
 8001de8:	68fb      	ldr	r3, [r7, #12]
 8001dea:	681b      	ldr	r3, [r3, #0]
 8001dec:	681a      	ldr	r2, [r3, #0]
 8001dee:	68fb      	ldr	r3, [r7, #12]
 8001df0:	681b      	ldr	r3, [r3, #0]
 8001df2:	f022 0240 	bic.w	r2, r2, #64	; 0x40
 8001df6:	601a      	str	r2, [r3, #0]
    SPI_1LINE_TX(hspi);
 8001df8:	68fb      	ldr	r3, [r7, #12]
 8001dfa:	681b      	ldr	r3, [r3, #0]
 8001dfc:	681a      	ldr	r2, [r3, #0]
 8001dfe:	68fb      	ldr	r3, [r7, #12]
 8001e00:	681b      	ldr	r3, [r3, #0]
 8001e02:	f442 4280 	orr.w	r2, r2, #16384	; 0x4000
 8001e06:	601a      	str	r2, [r3, #0]
    SPI_RESET_CRC(hspi);
  }
#endif /* USE_SPI_CRC */

  /* Enable TXE and ERR interrupt */
  __HAL_SPI_ENABLE_IT(hspi, (SPI_IT_TXE | SPI_IT_ERR));
 8001e08:	68fb      	ldr	r3, [r7, #12]
 8001e0a:	681b      	ldr	r3, [r3, #0]
 8001e0c:	685a      	ldr	r2, [r3, #4]
 8001e0e:	68fb      	ldr	r3, [r7, #12]
 8001e10:	681b      	ldr	r3, [r3, #0]
 8001e12:	f042 02a0 	orr.w	r2, r2, #160	; 0xa0
 8001e16:	605a      	str	r2, [r3, #4]


  /* Check if the SPI is already enabled */
  if ((hspi->Instance->CR1 & SPI_CR1_SPE) != SPI_CR1_SPE)
 8001e18:	68fb      	ldr	r3, [r7, #12]
 8001e1a:	681b      	ldr	r3, [r3, #0]
 8001e1c:	681b      	ldr	r3, [r3, #0]
 8001e1e:	f003 0340 	and.w	r3, r3, #64	; 0x40
 8001e22:	2b40      	cmp	r3, #64	; 0x40
 8001e24:	d008      	beq.n	8001e38 <HAL_SPI_Transmit_IT+0xf4>
  {
    /* Enable SPI peripheral */
    __HAL_SPI_ENABLE(hspi);
 8001e26:	68fb      	ldr	r3, [r7, #12]
 8001e28:	681b      	ldr	r3, [r3, #0]
 8001e2a:	681a      	ldr	r2, [r3, #0]
 8001e2c:	68fb      	ldr	r3, [r7, #12]
 8001e2e:	681b      	ldr	r3, [r3, #0]
 8001e30:	f042 0240 	orr.w	r2, r2, #64	; 0x40
 8001e34:	601a      	str	r2, [r3, #0]
 8001e36:	e000      	b.n	8001e3a <HAL_SPI_Transmit_IT+0xf6>
  }

error :
 8001e38:	bf00      	nop
  __HAL_UNLOCK(hspi);
 8001e3a:	68fb      	ldr	r3, [r7, #12]
 8001e3c:	2200      	movs	r2, #0
 8001e3e:	f883 2050 	strb.w	r2, [r3, #80]	; 0x50
  return errorcode;
 8001e42:	7dfb      	ldrb	r3, [r7, #23]
}
 8001e44:	4618      	mov	r0, r3
 8001e46:	371c      	adds	r7, #28
 8001e48:	46bd      	mov	sp, r7
 8001e4a:	f85d 7b04 	ldr.w	r7, [sp], #4
 8001e4e:	4770      	bx	lr
 8001e50:	0800258d 	.word	0x0800258d
 8001e54:	08002547 	.word	0x08002547

08001e58 <HAL_SPI_Receive_IT>:
  * @param  pData pointer to data buffer
  * @param  Size amount of data to be sent
  * @retval HAL status
  */
HAL_StatusTypeDef HAL_SPI_Receive_IT(SPI_HandleTypeDef *hspi, uint8_t *pData, uint16_t Size)
{
 8001e58:	b580      	push	{r7, lr}
 8001e5a:	b086      	sub	sp, #24
 8001e5c:	af00      	add	r7, sp, #0
 8001e5e:	60f8      	str	r0, [r7, #12]
 8001e60:	60b9      	str	r1, [r7, #8]
 8001e62:	4613      	mov	r3, r2
 8001e64:	80fb      	strh	r3, [r7, #6]
  HAL_StatusTypeDef errorcode = HAL_OK;
 8001e66:	2300      	movs	r3, #0
 8001e68:	75fb      	strb	r3, [r7, #23]

  if ((hspi->Init.Direction == SPI_DIRECTION_2LINES) && (hspi->Init.Mode == SPI_MODE_MASTER))
 8001e6a:	68fb      	ldr	r3, [r7, #12]
 8001e6c:	689b      	ldr	r3, [r3, #8]
 8001e6e:	2b00      	cmp	r3, #0
 8001e70:	d110      	bne.n	8001e94 <HAL_SPI_Receive_IT+0x3c>
 8001e72:	68fb      	ldr	r3, [r7, #12]
 8001e74:	685b      	ldr	r3, [r3, #4]
 8001e76:	f5b3 7f82 	cmp.w	r3, #260	; 0x104
 8001e7a:	d10b      	bne.n	8001e94 <HAL_SPI_Receive_IT+0x3c>
  {
    hspi->State = HAL_SPI_STATE_BUSY_RX;
 8001e7c:	68fb      	ldr	r3, [r7, #12]
 8001e7e:	2204      	movs	r2, #4
 8001e80:	f883 2051 	strb.w	r2, [r3, #81]	; 0x51
    /* Call transmit-receive function to send Dummy data on Tx line and generate clock on CLK line */
    return HAL_SPI_TransmitReceive_IT(hspi, pData, pData, Size);
 8001e84:	88fb      	ldrh	r3, [r7, #6]
 8001e86:	68ba      	ldr	r2, [r7, #8]
 8001e88:	68b9      	ldr	r1, [r7, #8]
 8001e8a:	68f8      	ldr	r0, [r7, #12]
 8001e8c:	f000 f882 	bl	8001f94 <HAL_SPI_TransmitReceive_IT>
 8001e90:	4603      	mov	r3, r0
 8001e92:	e076      	b.n	8001f82 <HAL_SPI_Receive_IT+0x12a>
  }

  /* Process Locked */
  __HAL_LOCK(hspi);
 8001e94:	68fb      	ldr	r3, [r7, #12]
 8001e96:	f893 3050 	ldrb.w	r3, [r3, #80]	; 0x50
 8001e9a:	2b01      	cmp	r3, #1
 8001e9c:	d101      	bne.n	8001ea2 <HAL_SPI_Receive_IT+0x4a>
 8001e9e:	2302      	movs	r3, #2
 8001ea0:	e06f      	b.n	8001f82 <HAL_SPI_Receive_IT+0x12a>
 8001ea2:	68fb      	ldr	r3, [r7, #12]
 8001ea4:	2201      	movs	r2, #1
 8001ea6:	f883 2050 	strb.w	r2, [r3, #80]	; 0x50

  if (hspi->State != HAL_SPI_STATE_READY)
 8001eaa:	68fb      	ldr	r3, [r7, #12]
 8001eac:	f893 3051 	ldrb.w	r3, [r3, #81]	; 0x51
 8001eb0:	b2db      	uxtb	r3, r3
 8001eb2:	2b01      	cmp	r3, #1
 8001eb4:	d002      	beq.n	8001ebc <HAL_SPI_Receive_IT+0x64>
  {
    errorcode = HAL_BUSY;
 8001eb6:	2302      	movs	r3, #2
 8001eb8:	75fb      	strb	r3, [r7, #23]
    goto error;
 8001eba:	e05d      	b.n	8001f78 <HAL_SPI_Receive_IT+0x120>
  }

  if ((pData == NULL) || (Size == 0U))
 8001ebc:	68bb      	ldr	r3, [r7, #8]
 8001ebe:	2b00      	cmp	r3, #0
 8001ec0:	d002      	beq.n	8001ec8 <HAL_SPI_Receive_IT+0x70>
 8001ec2:	88fb      	ldrh	r3, [r7, #6]
 8001ec4:	2b00      	cmp	r3, #0
 8001ec6:	d102      	bne.n	8001ece <HAL_SPI_Receive_IT+0x76>
  {
    errorcode = HAL_ERROR;
 8001ec8:	2301      	movs	r3, #1
 8001eca:	75fb      	strb	r3, [r7, #23]
    goto error;
 8001ecc:	e054      	b.n	8001f78 <HAL_SPI_Receive_IT+0x120>
  }

  /* Set the transaction information */
  hspi->State       = HAL_SPI_STATE_BUSY_RX;
 8001ece:	68fb      	ldr	r3, [r7, #12]
 8001ed0:	2204      	movs	r2, #4
 8001ed2:	f883 2051 	strb.w	r2, [r3, #81]	; 0x51
  hspi->ErrorCode   = HAL_SPI_ERROR_NONE;
 8001ed6:	68fb      	ldr	r3, [r7, #12]
 8001ed8:	2200      	movs	r2, #0
 8001eda:	655a      	str	r2, [r3, #84]	; 0x54
  hspi->pRxBuffPtr  = (uint8_t *)pData;
 8001edc:	68fb      	ldr	r3, [r7, #12]
 8001ede:	68ba      	ldr	r2, [r7, #8]
 8001ee0:	639a      	str	r2, [r3, #56]	; 0x38
  hspi->RxXferSize  = Size;
 8001ee2:	68fb      	ldr	r3, [r7, #12]
 8001ee4:	88fa      	ldrh	r2, [r7, #6]
 8001ee6:	879a      	strh	r2, [r3, #60]	; 0x3c
  hspi->RxXferCount = Size;
 8001ee8:	68fb      	ldr	r3, [r7, #12]
 8001eea:	88fa      	ldrh	r2, [r7, #6]
 8001eec:	87da      	strh	r2, [r3, #62]	; 0x3e

  /* Init field not used in handle to zero */
  hspi->pTxBuffPtr  = (uint8_t *)NULL;
 8001eee:	68fb      	ldr	r3, [r7, #12]
 8001ef0:	2200      	movs	r2, #0
 8001ef2:	631a      	str	r2, [r3, #48]	; 0x30
  hspi->TxXferSize  = 0U;
 8001ef4:	68fb      	ldr	r3, [r7, #12]
 8001ef6:	2200      	movs	r2, #0
 8001ef8:	869a      	strh	r2, [r3, #52]	; 0x34
  hspi->TxXferCount = 0U;
 8001efa:	68fb      	ldr	r3, [r7, #12]
 8001efc:	2200      	movs	r2, #0
 8001efe:	86da      	strh	r2, [r3, #54]	; 0x36
  hspi->TxISR       = NULL;
 8001f00:	68fb      	ldr	r3, [r7, #12]
 8001f02:	2200      	movs	r2, #0
 8001f04:	645a      	str	r2, [r3, #68]	; 0x44

  /* Set the function for IT treatment */
  if (hspi->Init.DataSize > SPI_DATASIZE_8BIT)
 8001f06:	68fb      	ldr	r3, [r7, #12]
 8001f08:	68db      	ldr	r3, [r3, #12]
 8001f0a:	2b00      	cmp	r3, #0
 8001f0c:	d003      	beq.n	8001f16 <HAL_SPI_Receive_IT+0xbe>
  {
    hspi->RxISR = SPI_RxISR_16BIT;
 8001f0e:	68fb      	ldr	r3, [r7, #12]
 8001f10:	4a1e      	ldr	r2, [pc, #120]	; (8001f8c <HAL_SPI_Receive_IT+0x134>)
 8001f12:	641a      	str	r2, [r3, #64]	; 0x40
 8001f14:	e002      	b.n	8001f1c <HAL_SPI_Receive_IT+0xc4>
  }
  else
  {
    hspi->RxISR = SPI_RxISR_8BIT;
 8001f16:	68fb      	ldr	r3, [r7, #12]
 8001f18:	4a1d      	ldr	r2, [pc, #116]	; (8001f90 <HAL_SPI_Receive_IT+0x138>)
 8001f1a:	641a      	str	r2, [r3, #64]	; 0x40
  }

  /* Configure communication direction : 1Line */
  if (hspi->Init.Direction == SPI_DIRECTION_1LINE)
 8001f1c:	68fb      	ldr	r3, [r7, #12]
 8001f1e:	689b      	ldr	r3, [r3, #8]
 8001f20:	f5b3 4f00 	cmp.w	r3, #32768	; 0x8000
 8001f24:	d10f      	bne.n	8001f46 <HAL_SPI_Receive_IT+0xee>
  {
    /* Disable SPI Peripheral before set 1Line direction (BIDIOE bit) */
    __HAL_SPI_DISABLE(hspi);
 8001f26:	68fb      	ldr	r3, [r7, #12]
 8001f28:	681b      	ldr	r3, [r3, #0]
 8001f2a:	681a      	ldr	r2, [r3, #0]
 8001f2c:	68fb      	ldr	r3, [r7, #12]
 8001f2e:	681b      	ldr	r3, [r3, #0]
 8001f30:	f022 0240 	bic.w	r2, r2, #64	; 0x40
 8001f34:	601a      	str	r2, [r3, #0]
    SPI_1LINE_RX(hspi);
 8001f36:	68fb      	ldr	r3, [r7, #12]
 8001f38:	681b      	ldr	r3, [r3, #0]
 8001f3a:	681a      	ldr	r2, [r3, #0]
 8001f3c:	68fb      	ldr	r3, [r7, #12]
 8001f3e:	681b      	ldr	r3, [r3, #0]
 8001f40:	f422 4280 	bic.w	r2, r2, #16384	; 0x4000
 8001f44:	601a      	str	r2, [r3, #0]
    SPI_RESET_CRC(hspi);
  }
#endif /* USE_SPI_CRC */

  /* Enable TXE and ERR interrupt */
  __HAL_SPI_ENABLE_IT(hspi, (SPI_IT_RXNE | SPI_IT_ERR));
 8001f46:	68fb      	ldr	r3, [r7, #12]
 8001f48:	681b      	ldr	r3, [r3, #0]
 8001f4a:	685a      	ldr	r2, [r3, #4]
 8001f4c:	68fb      	ldr	r3, [r7, #12]
 8001f4e:	681b      	ldr	r3, [r3, #0]
 8001f50:	f042 0260 	orr.w	r2, r2, #96	; 0x60
 8001f54:	605a      	str	r2, [r3, #4]
  /* Note : The SPI must be enabled after unlocking current process
            to avoid the risk of SPI interrupt handle execution before current
            process unlock */

  /* Check if the SPI is already enabled */
  if ((hspi->Instance->CR1 & SPI_CR1_SPE) != SPI_CR1_SPE)
 8001f56:	68fb      	ldr	r3, [r7, #12]
 8001f58:	681b      	ldr	r3, [r3, #0]
 8001f5a:	681b      	ldr	r3, [r3, #0]
 8001f5c:	f003 0340 	and.w	r3, r3, #64	; 0x40
 8001f60:	2b40      	cmp	r3, #64	; 0x40
 8001f62:	d008      	beq.n	8001f76 <HAL_SPI_Receive_IT+0x11e>
  {
    /* Enable SPI peripheral */
    __HAL_SPI_ENABLE(hspi);
 8001f64:	68fb      	ldr	r3, [r7, #12]
 8001f66:	681b      	ldr	r3, [r3, #0]
 8001f68:	681a      	ldr	r2, [r3, #0]
 8001f6a:	68fb      	ldr	r3, [r7, #12]
 8001f6c:	681b      	ldr	r3, [r3, #0]
 8001f6e:	f042 0240 	orr.w	r2, r2, #64	; 0x40
 8001f72:	601a      	str	r2, [r3, #0]
 8001f74:	e000      	b.n	8001f78 <HAL_SPI_Receive_IT+0x120>
  }

error :
 8001f76:	bf00      	nop
  /* Process Unlocked */
  __HAL_UNLOCK(hspi);
 8001f78:	68fb      	ldr	r3, [r7, #12]
 8001f7a:	2200      	movs	r2, #0
 8001f7c:	f883 2050 	strb.w	r2, [r3, #80]	; 0x50
  return errorcode;
 8001f80:	7dfb      	ldrb	r3, [r7, #23]
}
 8001f82:	4618      	mov	r0, r3
 8001f84:	3718      	adds	r7, #24
 8001f86:	46bd      	mov	sp, r7
 8001f88:	bd80      	pop	{r7, pc}
 8001f8a:	bf00      	nop
 8001f8c:	08002501 	.word	0x08002501
 8001f90:	080024b7 	.word	0x080024b7

08001f94 <HAL_SPI_TransmitReceive_IT>:
  * @param  pRxData pointer to reception data buffer
  * @param  Size amount of data to be sent and received
  * @retval HAL status
  */
HAL_StatusTypeDef HAL_SPI_TransmitReceive_IT(SPI_HandleTypeDef *hspi, uint8_t *pTxData, uint8_t *pRxData, uint16_t Size)
{
 8001f94:	b480      	push	{r7}
 8001f96:	b087      	sub	sp, #28
 8001f98:	af00      	add	r7, sp, #0
 8001f9a:	60f8      	str	r0, [r7, #12]
 8001f9c:	60b9      	str	r1, [r7, #8]
 8001f9e:	607a      	str	r2, [r7, #4]
 8001fa0:	807b      	strh	r3, [r7, #2]
  uint32_t             tmp_mode;
  HAL_SPI_StateTypeDef tmp_state;
  HAL_StatusTypeDef    errorcode = HAL_OK;
 8001fa2:	2300      	movs	r3, #0
 8001fa4:	75fb      	strb	r3, [r7, #23]

  /* Check Direction parameter */
  assert_param(IS_SPI_DIRECTION_2LINES(hspi->Init.Direction));

  /* Process locked */
  __HAL_LOCK(hspi);
 8001fa6:	68fb      	ldr	r3, [r7, #12]
 8001fa8:	f893 3050 	ldrb.w	r3, [r3, #80]	; 0x50
 8001fac:	2b01      	cmp	r3, #1
 8001fae:	d101      	bne.n	8001fb4 <HAL_SPI_TransmitReceive_IT+0x20>
 8001fb0:	2302      	movs	r3, #2
 8001fb2:	e075      	b.n	80020a0 <HAL_SPI_TransmitReceive_IT+0x10c>
 8001fb4:	68fb      	ldr	r3, [r7, #12]
 8001fb6:	2201      	movs	r2, #1
 8001fb8:	f883 2050 	strb.w	r2, [r3, #80]	; 0x50

  /* Init temporary variables */
  tmp_state           = hspi->State;
 8001fbc:	68fb      	ldr	r3, [r7, #12]
 8001fbe:	f893 3051 	ldrb.w	r3, [r3, #81]	; 0x51
 8001fc2:	75bb      	strb	r3, [r7, #22]
  tmp_mode            = hspi->Init.Mode;
 8001fc4:	68fb      	ldr	r3, [r7, #12]
 8001fc6:	685b      	ldr	r3, [r3, #4]
 8001fc8:	613b      	str	r3, [r7, #16]

  if (!((tmp_state == HAL_SPI_STATE_READY) || \
 8001fca:	7dbb      	ldrb	r3, [r7, #22]
 8001fcc:	2b01      	cmp	r3, #1
 8001fce:	d00d      	beq.n	8001fec <HAL_SPI_TransmitReceive_IT+0x58>
 8001fd0:	693b      	ldr	r3, [r7, #16]
 8001fd2:	f5b3 7f82 	cmp.w	r3, #260	; 0x104
 8001fd6:	d106      	bne.n	8001fe6 <HAL_SPI_TransmitReceive_IT+0x52>
        ((tmp_mode == SPI_MODE_MASTER) && (hspi->Init.Direction == SPI_DIRECTION_2LINES) && (tmp_state == HAL_SPI_STATE_BUSY_RX))))
 8001fd8:	68fb      	ldr	r3, [r7, #12]
 8001fda:	689b      	ldr	r3, [r3, #8]
 8001fdc:	2b00      	cmp	r3, #0
 8001fde:	d102      	bne.n	8001fe6 <HAL_SPI_TransmitReceive_IT+0x52>
 8001fe0:	7dbb      	ldrb	r3, [r7, #22]
 8001fe2:	2b04      	cmp	r3, #4
 8001fe4:	d002      	beq.n	8001fec <HAL_SPI_TransmitReceive_IT+0x58>
  {
    errorcode = HAL_BUSY;
 8001fe6:	2302      	movs	r3, #2
 8001fe8:	75fb      	strb	r3, [r7, #23]
    goto error;
 8001fea:	e054      	b.n	8002096 <HAL_SPI_TransmitReceive_IT+0x102>
  }

  if ((pTxData == NULL) || (pRxData == NULL) || (Size == 0U))
 8001fec:	68bb      	ldr	r3, [r7, #8]
 8001fee:	2b00      	cmp	r3, #0
 8001ff0:	d005      	beq.n	8001ffe <HAL_SPI_TransmitReceive_IT+0x6a>
 8001ff2:	687b      	ldr	r3, [r7, #4]
 8001ff4:	2b00      	cmp	r3, #0
 8001ff6:	d002      	beq.n	8001ffe <HAL_SPI_TransmitReceive_IT+0x6a>
 8001ff8:	887b      	ldrh	r3, [r7, #2]
 8001ffa:	2b00      	cmp	r3, #0
 8001ffc:	d102      	bne.n	8002004 <HAL_SPI_TransmitReceive_IT+0x70>
  {
    errorcode = HAL_ERROR;
 8001ffe:	2301      	movs	r3, #1
