
MS_LW_7_Additional.elf:     file format elf32-littlearm

Sections:
Idx Name          Size      VMA       LMA       File off  Algn
  0 .isr_vector   00000188  08000000  08000000  00010000  2**0
                  CONTENTS, ALLOC, LOAD, READONLY, DATA
  1 .text         0000336c  08000188  08000188  00010188  2**2
                  CONTENTS, ALLOC, LOAD, READONLY, CODE
  2 .rodata       00000018  080034f4  080034f4  000134f4  2**2
                  CONTENTS, ALLOC, LOAD, READONLY, DATA
  3 .ARM.extab    00000000  0800350c  0800350c  00020010  2**0
                  CONTENTS
  4 .ARM          00000008  0800350c  0800350c  0001350c  2**2
                  CONTENTS, ALLOC, LOAD, READONLY, DATA
  5 .preinit_array 00000000  08003514  08003514  00020010  2**0
                  CONTENTS, ALLOC, LOAD, DATA
  6 .init_array   00000004  08003514  08003514  00013514  2**2
                  CONTENTS, ALLOC, LOAD, DATA
  7 .fini_array   00000004  08003518  08003518  00013518  2**2
                  CONTENTS, ALLOC, LOAD, DATA
  8 .data         00000010  20000000  0800351c  00020000  2**2
                  CONTENTS, ALLOC, LOAD, DATA
  9 .ccmram       00000000  10000000  10000000  00020010  2**0
                  CONTENTS
 10 .bss          000000f4  20000010  20000010  00020010  2**2
                  ALLOC
 11 ._user_heap_stack 00000604  20000104  20000104  00020010  2**0
                  ALLOC
 12 .ARM.attributes 00000030  00000000  00000000  00020010  2**0
                  CONTENTS, READONLY
 13 .debug_info   0000d5ce  00000000  00000000  00020040  2**0
                  CONTENTS, READONLY, DEBUGGING, OCTETS
 14 .debug_abbrev 00001ac7  00000000  00000000  0002d60e  2**0
                  CONTENTS, READONLY, DEBUGGING, OCTETS
 15 .debug_aranges 00000c18  00000000  00000000  0002f0d8  2**3
                  CONTENTS, READONLY, DEBUGGING, OCTETS
 16 .debug_ranges 00000b80  00000000  00000000  0002fcf0  2**3
                  CONTENTS, READONLY, DEBUGGING, OCTETS
 17 .debug_macro  00020138  00000000  00000000  00030870  2**0
                  CONTENTS, READONLY, DEBUGGING, OCTETS
 18 .debug_line   0000d783  00000000  00000000  000509a8  2**0
                  CONTENTS, READONLY, DEBUGGING, OCTETS
 19 .debug_str    000c6f2d  00000000  00000000  0005e12b  2**0
                  CONTENTS, READONLY, DEBUGGING, OCTETS
 20 .comment      00000050  00000000  00000000  00125058  2**0
                  CONTENTS, READONLY
 21 .debug_frame  00003318  00000000  00000000  001250a8  2**2
                  CONTENTS, READONLY, DEBUGGING, OCTETS

Disassembly of section .text:

08000188 <__do_global_dtors_aux>:
 8000188:	b510      	push	{r4, lr}
 800018a:	4c05      	ldr	r4, [pc, #20]	; (80001a0 <__do_global_dtors_aux+0x18>)
 800018c:	7823      	ldrb	r3, [r4, #0]
 800018e:	b933      	cbnz	r3, 800019e <__do_global_dtors_aux+0x16>
 8000190:	4b04      	ldr	r3, [pc, #16]	; (80001a4 <__do_global_dtors_aux+0x1c>)
 8000192:	b113      	cbz	r3, 800019a <__do_global_dtors_aux+0x12>
 8000194:	4804      	ldr	r0, [pc, #16]	; (80001a8 <__do_global_dtors_aux+0x20>)
 8000196:	f3af 8000 	nop.w
 800019a:	2301      	movs	r3, #1
 800019c:	7023      	strb	r3, [r4, #0]
 800019e:	bd10      	pop	{r4, pc}
 80001a0:	20000010 	.word	0x20000010
 80001a4:	00000000 	.word	0x00000000
 80001a8:	080034dc 	.word	0x080034dc

080001ac <frame_dummy>:
 80001ac:	b508      	push	{r3, lr}
 80001ae:	4b03      	ldr	r3, [pc, #12]	; (80001bc <frame_dummy+0x10>)
 80001b0:	b11b      	cbz	r3, 80001ba <frame_dummy+0xe>
 80001b2:	4903      	ldr	r1, [pc, #12]	; (80001c0 <frame_dummy+0x14>)
 80001b4:	4803      	ldr	r0, [pc, #12]	; (80001c4 <frame_dummy+0x18>)
 80001b6:	f3af 8000 	nop.w
 80001ba:	bd08      	pop	{r3, pc}
 80001bc:	00000000 	.word	0x00000000
 80001c0:	20000014 	.word	0x20000014
 80001c4:	080034dc 	.word	0x080034dc

080001c8 <__aeabi_uldivmod>:
 80001c8:	b953      	cbnz	r3, 80001e0 <__aeabi_uldivmod+0x18>
 80001ca:	b94a      	cbnz	r2, 80001e0 <__aeabi_uldivmod+0x18>
 80001cc:	2900      	cmp	r1, #0
 80001ce:	bf08      	it	eq
 80001d0:	2800      	cmpeq	r0, #0
 80001d2:	bf1c      	itt	ne
 80001d4:	f04f 31ff 	movne.w	r1, #4294967295
 80001d8:	f04f 30ff 	movne.w	r0, #4294967295
 80001dc:	f000 b974 	b.w	80004c8 <__aeabi_idiv0>
 80001e0:	f1ad 0c08 	sub.w	ip, sp, #8
 80001e4:	e96d ce04 	strd	ip, lr, [sp, #-16]!
 80001e8:	f000 f806 	bl	80001f8 <__udivmoddi4>
 80001ec:	f8dd e004 	ldr.w	lr, [sp, #4]
 80001f0:	e9dd 2302 	ldrd	r2, r3, [sp, #8]
 80001f4:	b004      	add	sp, #16
 80001f6:	4770      	bx	lr

080001f8 <__udivmoddi4>:
 80001f8:	e92d 47f0 	stmdb	sp!, {r4, r5, r6, r7, r8, r9, sl, lr}
 80001fc:	9d08      	ldr	r5, [sp, #32]
 80001fe:	4604      	mov	r4, r0
 8000200:	468e      	mov	lr, r1
 8000202:	2b00      	cmp	r3, #0
 8000204:	d14d      	bne.n	80002a2 <__udivmoddi4+0xaa>
 8000206:	428a      	cmp	r2, r1
 8000208:	4694      	mov	ip, r2
 800020a:	d969      	bls.n	80002e0 <__udivmoddi4+0xe8>
 800020c:	fab2 f282 	clz	r2, r2
 8000210:	b152      	cbz	r2, 8000228 <__udivmoddi4+0x30>
 8000212:	fa01 f302 	lsl.w	r3, r1, r2
 8000216:	f1c2 0120 	rsb	r1, r2, #32
 800021a:	fa20 f101 	lsr.w	r1, r0, r1
 800021e:	fa0c fc02 	lsl.w	ip, ip, r2
 8000222:	ea41 0e03 	orr.w	lr, r1, r3
 8000226:	4094      	lsls	r4, r2
 8000228:	ea4f 481c 	mov.w	r8, ip, lsr #16
 800022c:	0c21      	lsrs	r1, r4, #16
 800022e:	fbbe f6f8 	udiv	r6, lr, r8
 8000232:	fa1f f78c 	uxth.w	r7, ip
 8000236:	fb08 e316 	mls	r3, r8, r6, lr
 800023a:	ea41 4303 	orr.w	r3, r1, r3, lsl #16
 800023e:	fb06 f107 	mul.w	r1, r6, r7
 8000242:	4299      	cmp	r1, r3
 8000244:	d90a      	bls.n	800025c <__udivmoddi4+0x64>
 8000246:	eb1c 0303 	adds.w	r3, ip, r3
 800024a:	f106 30ff 	add.w	r0, r6, #4294967295
 800024e:	f080 811f 	bcs.w	8000490 <__udivmoddi4+0x298>
 8000252:	4299      	cmp	r1, r3
 8000254:	f240 811c 	bls.w	8000490 <__udivmoddi4+0x298>
 8000258:	3e02      	subs	r6, #2
 800025a:	4463      	add	r3, ip
 800025c:	1a5b      	subs	r3, r3, r1
 800025e:	b2a4      	uxth	r4, r4
 8000260:	fbb3 f0f8 	udiv	r0, r3, r8
 8000264:	fb08 3310 	mls	r3, r8, r0, r3
 8000268:	ea44 4403 	orr.w	r4, r4, r3, lsl #16
 800026c:	fb00 f707 	mul.w	r7, r0, r7
 8000270:	42a7      	cmp	r7, r4
 8000272:	d90a      	bls.n	800028a <__udivmoddi4+0x92>
 8000274:	eb1c 0404 	adds.w	r4, ip, r4
 8000278:	f100 33ff 	add.w	r3, r0, #4294967295
 800027c:	f080 810a 	bcs.w	8000494 <__udivmoddi4+0x29c>
 8000280:	42a7      	cmp	r7, r4
 8000282:	f240 8107 	bls.w	8000494 <__udivmoddi4+0x29c>
 8000286:	4464      	add	r4, ip
 8000288:	3802      	subs	r0, #2
 800028a:	ea40 4006 	orr.w	r0, r0, r6, lsl #16
 800028e:	1be4      	subs	r4, r4, r7
 8000290:	2600      	movs	r6, #0
 8000292:	b11d      	cbz	r5, 800029c <__udivmoddi4+0xa4>
 8000294:	40d4      	lsrs	r4, r2
 8000296:	2300      	movs	r3, #0
 8000298:	e9c5 4300 	strd	r4, r3, [r5]
 800029c:	4631      	mov	r1, r6
 800029e:	e8bd 87f0 	ldmia.w	sp!, {r4, r5, r6, r7, r8, r9, sl, pc}
 80002a2:	428b      	cmp	r3, r1
 80002a4:	d909      	bls.n	80002ba <__udivmoddi4+0xc2>
 80002a6:	2d00      	cmp	r5, #0
 80002a8:	f000 80ef 	beq.w	800048a <__udivmoddi4+0x292>
 80002ac:	2600      	movs	r6, #0
 80002ae:	e9c5 0100 	strd	r0, r1, [r5]
 80002b2:	4630      	mov	r0, r6
 80002b4:	4631      	mov	r1, r6
 80002b6:	e8bd 87f0 	ldmia.w	sp!, {r4, r5, r6, r7, r8, r9, sl, pc}
 80002ba:	fab3 f683 	clz	r6, r3
 80002be:	2e00      	cmp	r6, #0
 80002c0:	d14a      	bne.n	8000358 <__udivmoddi4+0x160>
 80002c2:	428b      	cmp	r3, r1
 80002c4:	d302      	bcc.n	80002cc <__udivmoddi4+0xd4>
 80002c6:	4282      	cmp	r2, r0
 80002c8:	f200 80f9 	bhi.w	80004be <__udivmoddi4+0x2c6>
 80002cc:	1a84      	subs	r4, r0, r2
 80002ce:	eb61 0303 	sbc.w	r3, r1, r3
 80002d2:	2001      	movs	r0, #1
 80002d4:	469e      	mov	lr, r3
 80002d6:	2d00      	cmp	r5, #0
 80002d8:	d0e0      	beq.n	800029c <__udivmoddi4+0xa4>
 80002da:	e9c5 4e00 	strd	r4, lr, [r5]
 80002de:	e7dd      	b.n	800029c <__udivmoddi4+0xa4>
 80002e0:	b902      	cbnz	r2, 80002e4 <__udivmoddi4+0xec>
 80002e2:	deff      	udf	#255	; 0xff
 80002e4:	fab2 f282 	clz	r2, r2
 80002e8:	2a00      	cmp	r2, #0
 80002ea:	f040 8092 	bne.w	8000412 <__udivmoddi4+0x21a>
 80002ee:	eba1 010c 	sub.w	r1, r1, ip
 80002f2:	ea4f 471c 	mov.w	r7, ip, lsr #16
 80002f6:	fa1f fe8c 	uxth.w	lr, ip
 80002fa:	2601      	movs	r6, #1
 80002fc:	0c20      	lsrs	r0, r4, #16
 80002fe:	fbb1 f3f7 	udiv	r3, r1, r7
 8000302:	fb07 1113 	mls	r1, r7, r3, r1
 8000306:	ea40 4101 	orr.w	r1, r0, r1, lsl #16
 800030a:	fb0e f003 	mul.w	r0, lr, r3
 800030e:	4288      	cmp	r0, r1
 8000310:	d908      	bls.n	8000324 <__udivmoddi4+0x12c>
 8000312:	eb1c 0101 	adds.w	r1, ip, r1
 8000316:	f103 38ff 	add.w	r8, r3, #4294967295
 800031a:	d202      	bcs.n	8000322 <__udivmoddi4+0x12a>
 800031c:	4288      	cmp	r0, r1
 800031e:	f200 80cb 	bhi.w	80004b8 <__udivmoddi4+0x2c0>
 8000322:	4643      	mov	r3, r8
 8000324:	1a09      	subs	r1, r1, r0
 8000326:	b2a4      	uxth	r4, r4
 8000328:	fbb1 f0f7 	udiv	r0, r1, r7
 800032c:	fb07 1110 	mls	r1, r7, r0, r1
 8000330:	ea44 4401 	orr.w	r4, r4, r1, lsl #16
 8000334:	fb0e fe00 	mul.w	lr, lr, r0
 8000338:	45a6      	cmp	lr, r4
 800033a:	d908      	bls.n	800034e <__udivmoddi4+0x156>
 800033c:	eb1c 0404 	adds.w	r4, ip, r4
 8000340:	f100 31ff 	add.w	r1, r0, #4294967295
 8000344:	d202      	bcs.n	800034c <__udivmoddi4+0x154>
 8000346:	45a6      	cmp	lr, r4
 8000348:	f200 80bb 	bhi.w	80004c2 <__udivmoddi4+0x2ca>
 800034c:	4608      	mov	r0, r1
 800034e:	eba4 040e 	sub.w	r4, r4, lr
 8000352:	ea40 4003 	orr.w	r0, r0, r3, lsl #16
 8000356:	e79c      	b.n	8000292 <__udivmoddi4+0x9a>
 8000358:	f1c6 0720 	rsb	r7, r6, #32
 800035c:	40b3      	lsls	r3, r6
 800035e:	fa22 fc07 	lsr.w	ip, r2, r7
 8000362:	ea4c 0c03 	orr.w	ip, ip, r3
 8000366:	fa20 f407 	lsr.w	r4, r0, r7
 800036a:	fa01 f306 	lsl.w	r3, r1, r6
 800036e:	431c      	orrs	r4, r3
 8000370:	40f9      	lsrs	r1, r7
 8000372:	ea4f 491c 	mov.w	r9, ip, lsr #16
 8000376:	fa00 f306 	lsl.w	r3, r0, r6
 800037a:	fbb1 f8f9 	udiv	r8, r1, r9
 800037e:	0c20      	lsrs	r0, r4, #16
 8000380:	fa1f fe8c 	uxth.w	lr, ip
 8000384:	fb09 1118 	mls	r1, r9, r8, r1
 8000388:	ea40 4101 	orr.w	r1, r0, r1, lsl #16
 800038c:	fb08 f00e 	mul.w	r0, r8, lr
 8000390:	4288      	cmp	r0, r1
 8000392:	fa02 f206 	lsl.w	r2, r2, r6
 8000396:	d90b      	bls.n	80003b0 <__udivmoddi4+0x1b8>
 8000398:	eb1c 0101 	adds.w	r1, ip, r1
 800039c:	f108 3aff 	add.w	sl, r8, #4294967295
 80003a0:	f080 8088 	bcs.w	80004b4 <__udivmoddi4+0x2bc>
 80003a4:	4288      	cmp	r0, r1
 80003a6:	f240 8085 	bls.w	80004b4 <__udivmoddi4+0x2bc>
 80003aa:	f1a8 0802 	sub.w	r8, r8, #2
 80003ae:	4461      	add	r1, ip
 80003b0:	1a09      	subs	r1, r1, r0
 80003b2:	b2a4      	uxth	r4, r4
 80003b4:	fbb1 f0f9 	udiv	r0, r1, r9
 80003b8:	fb09 1110 	mls	r1, r9, r0, r1
 80003bc:	ea44 4101 	orr.w	r1, r4, r1, lsl #16
 80003c0:	fb00 fe0e 	mul.w	lr, r0, lr
 80003c4:	458e      	cmp	lr, r1
 80003c6:	d908      	bls.n	80003da <__udivmoddi4+0x1e2>
 80003c8:	eb1c 0101 	adds.w	r1, ip, r1
 80003cc:	f100 34ff 	add.w	r4, r0, #4294967295
 80003d0:	d26c      	bcs.n	80004ac <__udivmoddi4+0x2b4>
 80003d2:	458e      	cmp	lr, r1
 80003d4:	d96a      	bls.n	80004ac <__udivmoddi4+0x2b4>
 80003d6:	3802      	subs	r0, #2
 80003d8:	4461      	add	r1, ip
 80003da:	ea40 4008 	orr.w	r0, r0, r8, lsl #16
 80003de:	fba0 9402 	umull	r9, r4, r0, r2
 80003e2:	eba1 010e 	sub.w	r1, r1, lr
 80003e6:	42a1      	cmp	r1, r4
 80003e8:	46c8      	mov	r8, r9
 80003ea:	46a6      	mov	lr, r4
 80003ec:	d356      	bcc.n	800049c <__udivmoddi4+0x2a4>
 80003ee:	d053      	beq.n	8000498 <__udivmoddi4+0x2a0>
 80003f0:	b15d      	cbz	r5, 800040a <__udivmoddi4+0x212>
 80003f2:	ebb3 0208 	subs.w	r2, r3, r8
 80003f6:	eb61 010e 	sbc.w	r1, r1, lr
 80003fa:	fa01 f707 	lsl.w	r7, r1, r7
 80003fe:	fa22 f306 	lsr.w	r3, r2, r6
 8000402:	40f1      	lsrs	r1, r6
 8000404:	431f      	orrs	r7, r3
 8000406:	e9c5 7100 	strd	r7, r1, [r5]
 800040a:	2600      	movs	r6, #0
 800040c:	4631      	mov	r1, r6
 800040e:	e8bd 87f0 	ldmia.w	sp!, {r4, r5, r6, r7, r8, r9, sl, pc}
 8000412:	f1c2 0320 	rsb	r3, r2, #32
 8000416:	40d8      	lsrs	r0, r3
 8000418:	fa0c fc02 	lsl.w	ip, ip, r2
 800041c:	fa21 f303 	lsr.w	r3, r1, r3
 8000420:	4091      	lsls	r1, r2
 8000422:	4301      	orrs	r1, r0
 8000424:	ea4f 471c 	mov.w	r7, ip, lsr #16
 8000428:	fa1f fe8c 	uxth.w	lr, ip
 800042c:	fbb3 f0f7 	udiv	r0, r3, r7
 8000430:	fb07 3610 	mls	r6, r7, r0, r3
 8000434:	0c0b      	lsrs	r3, r1, #16
 8000436:	ea43 4306 	orr.w	r3, r3, r6, lsl #16
 800043a:	fb00 f60e 	mul.w	r6, r0, lr
 800043e:	429e      	cmp	r6, r3
 8000440:	fa04 f402 	lsl.w	r4, r4, r2
 8000444:	d908      	bls.n	8000458 <__udivmoddi4+0x260>
 8000446:	eb1c 0303 	adds.w	r3, ip, r3
 800044a:	f100 38ff 	add.w	r8, r0, #4294967295
 800044e:	d22f      	bcs.n	80004b0 <__udivmoddi4+0x2b8>
 8000450:	429e      	cmp	r6, r3
 8000452:	d92d      	bls.n	80004b0 <__udivmoddi4+0x2b8>
 8000454:	3802      	subs	r0, #2
 8000456:	4463      	add	r3, ip
 8000458:	1b9b      	subs	r3, r3, r6
 800045a:	b289      	uxth	r1, r1
 800045c:	fbb3 f6f7 	udiv	r6, r3, r7
 8000460:	fb07 3316 	mls	r3, r7, r6, r3
 8000464:	ea41 4103 	orr.w	r1, r1, r3, lsl #16
 8000468:	fb06 f30e 	mul.w	r3, r6, lr
 800046c:	428b      	cmp	r3, r1
 800046e:	d908      	bls.n	8000482 <__udivmoddi4+0x28a>
 8000470:	eb1c 0101 	adds.w	r1, ip, r1
 8000474:	f106 38ff 	add.w	r8, r6, #4294967295
 8000478:	d216      	bcs.n	80004a8 <__udivmoddi4+0x2b0>
 800047a:	428b      	cmp	r3, r1
 800047c:	d914      	bls.n	80004a8 <__udivmoddi4+0x2b0>
 800047e:	3e02      	subs	r6, #2
 8000480:	4461      	add	r1, ip
 8000482:	1ac9      	subs	r1, r1, r3
 8000484:	ea46 4600 	orr.w	r6, r6, r0, lsl #16
 8000488:	e738      	b.n	80002fc <__udivmoddi4+0x104>
 800048a:	462e      	mov	r6, r5
 800048c:	4628      	mov	r0, r5
 800048e:	e705      	b.n	800029c <__udivmoddi4+0xa4>
 8000490:	4606      	mov	r6, r0
 8000492:	e6e3      	b.n	800025c <__udivmoddi4+0x64>
 8000494:	4618      	mov	r0, r3
 8000496:	e6f8      	b.n	800028a <__udivmoddi4+0x92>
 8000498:	454b      	cmp	r3, r9
 800049a:	d2a9      	bcs.n	80003f0 <__udivmoddi4+0x1f8>
 800049c:	ebb9 0802 	subs.w	r8, r9, r2
 80004a0:	eb64 0e0c 	sbc.w	lr, r4, ip
 80004a4:	3801      	subs	r0, #1
 80004a6:	e7a3      	b.n	80003f0 <__udivmoddi4+0x1f8>
 80004a8:	4646      	mov	r6, r8
 80004aa:	e7ea      	b.n	8000482 <__udivmoddi4+0x28a>
 80004ac:	4620      	mov	r0, r4
 80004ae:	e794      	b.n	80003da <__udivmoddi4+0x1e2>
 80004b0:	4640      	mov	r0, r8
 80004b2:	e7d1      	b.n	8000458 <__udivmoddi4+0x260>
 80004b4:	46d0      	mov	r8, sl
 80004b6:	e77b      	b.n	80003b0 <__udivmoddi4+0x1b8>
 80004b8:	3b02      	subs	r3, #2
 80004ba:	4461      	add	r1, ip
 80004bc:	e732      	b.n	8000324 <__udivmoddi4+0x12c>
 80004be:	4630      	mov	r0, r6
 80004c0:	e709      	b.n	80002d6 <__udivmoddi4+0xde>
 80004c2:	4464      	add	r4, ip
 80004c4:	3802      	subs	r0, #2
 80004c6:	e742      	b.n	800034e <__udivmoddi4+0x156>

080004c8 <__aeabi_idiv0>:
 80004c8:	4770      	bx	lr
 80004ca:	bf00      	nop

080004cc <main>:
/**
  * @brief  The application entry point.
  * @retval int
  */
int main(void)
{
 80004cc:	b580      	push	{r7, lr}
 80004ce:	af00      	add	r7, sp, #0
  /* USER CODE END 1 */

  /* MCU Configuration--------------------------------------------------------*/

  /* Reset of all peripherals, Initializes the Flash interface and the Systick. */
  HAL_Init();
 80004d0:	f000 fb36 	bl	8000b40 <HAL_Init>
  /* USER CODE BEGIN Init */

  /* USER CODE END Init */

  /* Configure the system clock */
  SystemClock_Config();
 80004d4:	f000 f80e 	bl	80004f4 <SystemClock_Config>
  /* USER CODE BEGIN SysInit */

  /* USER CODE END SysInit */

  /* Initialize all configured peripherals */
  MX_GPIO_Init();
 80004d8:	f000 f918 	bl	800070c <MX_GPIO_Init>
  MX_USART3_UART_Init();
 80004dc:	f000 f8c2 	bl	8000664 <MX_USART3_UART_Init>
  MX_USART6_UART_Init();
 80004e0:	f000 f8ea 	bl	80006b8 <MX_USART6_UART_Init>
  MX_TIM3_Init();
 80004e4:	f000 f870 	bl	80005c8 <MX_TIM3_Init>
  /* USER CODE BEGIN 2 */
  HAL_TIM_Base_Start_IT(&htim3);
 80004e8:	4801      	ldr	r0, [pc, #4]	; (80004f0 <main+0x24>)
 80004ea:	f001 fbdd 	bl	8001ca8 <HAL_TIM_Base_Start_IT>
  /* USER CODE END 2 */

  /* Infinite loop */
  /* USER CODE BEGIN WHILE */
  while (1)
 80004ee:	e7fe      	b.n	80004ee <main+0x22>
 80004f0:	2000002c 	.word	0x2000002c

080004f4 <SystemClock_Config>:
/**
  * @brief System Clock Configuration
  * @retval None
  */
void SystemClock_Config(void)
{
 80004f4:	b580      	push	{r7, lr}
 80004f6:	b094      	sub	sp, #80	; 0x50
 80004f8:	af00      	add	r7, sp, #0
  RCC_OscInitTypeDef RCC_OscInitStruct = {0};
 80004fa:	f107 0320 	add.w	r3, r7, #32
 80004fe:	2230      	movs	r2, #48	; 0x30
 8000500:	2100      	movs	r1, #0
 8000502:	4618      	mov	r0, r3
 8000504:	f002 ffe2 	bl	80034cc <memset>
  RCC_ClkInitTypeDef RCC_ClkInitStruct = {0};
 8000508:	f107 030c 	add.w	r3, r7, #12
 800050c:	2200      	movs	r2, #0
 800050e:	601a      	str	r2, [r3, #0]
 8000510:	605a      	str	r2, [r3, #4]
 8000512:	609a      	str	r2, [r3, #8]
 8000514:	60da      	str	r2, [r3, #12]
 8000516:	611a      	str	r2, [r3, #16]

  /** Configure the main internal regulator output voltage
  */
  __HAL_RCC_PWR_CLK_ENABLE();
 8000518:	2300      	movs	r3, #0
 800051a:	60bb      	str	r3, [r7, #8]
 800051c:	4b28      	ldr	r3, [pc, #160]	; (80005c0 <SystemClock_Config+0xcc>)
 800051e:	6c1b      	ldr	r3, [r3, #64]	; 0x40
 8000520:	4a27      	ldr	r2, [pc, #156]	; (80005c0 <SystemClock_Config+0xcc>)
 8000522:	f043 5380 	orr.w	r3, r3, #268435456	; 0x10000000
 8000526:	6413      	str	r3, [r2, #64]	; 0x40
 8000528:	4b25      	ldr	r3, [pc, #148]	; (80005c0 <SystemClock_Config+0xcc>)
 800052a:	6c1b      	ldr	r3, [r3, #64]	; 0x40
 800052c:	f003 5380 	and.w	r3, r3, #268435456	; 0x10000000
 8000530:	60bb      	str	r3, [r7, #8]
 8000532:	68bb      	ldr	r3, [r7, #8]
  __HAL_PWR_VOLTAGESCALING_CONFIG(PWR_REGULATOR_VOLTAGE_SCALE1);
 8000534:	2300      	movs	r3, #0
 8000536:	607b      	str	r3, [r7, #4]
 8000538:	4b22      	ldr	r3, [pc, #136]	; (80005c4 <SystemClock_Config+0xd0>)
 800053a:	681b      	ldr	r3, [r3, #0]
 800053c:	4a21      	ldr	r2, [pc, #132]	; (80005c4 <SystemClock_Config+0xd0>)
 800053e:	f443 4380 	orr.w	r3, r3, #16384	; 0x4000
 8000542:	6013      	str	r3, [r2, #0]
 8000544:	4b1f      	ldr	r3, [pc, #124]	; (80005c4 <SystemClock_Config+0xd0>)
 8000546:	681b      	ldr	r3, [r3, #0]
 8000548:	f403 4380 	and.w	r3, r3, #16384	; 0x4000
 800054c:	607b      	str	r3, [r7, #4]
 800054e:	687b      	ldr	r3, [r7, #4]

  /** Initializes the RCC Oscillators according to the specified parameters
  * in the RCC_OscInitTypeDef structure.
  */
  RCC_OscInitStruct.OscillatorType = RCC_OSCILLATORTYPE_HSE;
 8000550:	2301      	movs	r3, #1
 8000552:	623b      	str	r3, [r7, #32]
  RCC_OscInitStruct.HSEState = RCC_HSE_ON;
 8000554:	f44f 3380 	mov.w	r3, #65536	; 0x10000
 8000558:	627b      	str	r3, [r7, #36]	; 0x24
  RCC_OscInitStruct.PLL.PLLState = RCC_PLL_ON;
 800055a:	2302      	movs	r3, #2
 800055c:	63bb      	str	r3, [r7, #56]	; 0x38
  RCC_OscInitStruct.PLL.PLLSource = RCC_PLLSOURCE_HSE;
 800055e:	f44f 0380 	mov.w	r3, #4194304	; 0x400000
 8000562:	63fb      	str	r3, [r7, #60]	; 0x3c
  RCC_OscInitStruct.PLL.PLLM = 4;
 8000564:	2304      	movs	r3, #4
 8000566:	643b      	str	r3, [r7, #64]	; 0x40
  RCC_OscInitStruct.PLL.PLLN = 64;
 8000568:	2340      	movs	r3, #64	; 0x40
 800056a:	647b      	str	r3, [r7, #68]	; 0x44
  RCC_OscInitStruct.PLL.PLLP = RCC_PLLP_DIV2;
 800056c:	2302      	movs	r3, #2
 800056e:	64bb      	str	r3, [r7, #72]	; 0x48
  RCC_OscInitStruct.PLL.PLLQ = 7;
 8000570:	2307      	movs	r3, #7
 8000572:	64fb      	str	r3, [r7, #76]	; 0x4c
  if (HAL_RCC_OscConfig(&RCC_OscInitStruct) != HAL_OK)
 8000574:	f107 0320 	add.w	r3, r7, #32
 8000578:	4618      	mov	r0, r3
 800057a:	f000 fead 	bl	80012d8 <HAL_RCC_OscConfig>
 800057e:	4603      	mov	r3, r0
 8000580:	2b00      	cmp	r3, #0
 8000582:	d001      	beq.n	8000588 <SystemClock_Config+0x94>
  {
    Error_Handler();
 8000584:	f000 f974 	bl	8000870 <Error_Handler>
  }

  /** Initializes the CPU, AHB and APB buses clocks
  */
  RCC_ClkInitStruct.ClockType = RCC_CLOCKTYPE_HCLK|RCC_CLOCKTYPE_SYSCLK
 8000588:	230f      	movs	r3, #15
 800058a:	60fb      	str	r3, [r7, #12]
                              |RCC_CLOCKTYPE_PCLK1|RCC_CLOCKTYPE_PCLK2;
  RCC_ClkInitStruct.SYSCLKSource = RCC_SYSCLKSOURCE_PLLCLK;
 800058c:	2302      	movs	r3, #2
 800058e:	613b      	str	r3, [r7, #16]
  RCC_ClkInitStruct.AHBCLKDivider = RCC_SYSCLK_DIV1;
 8000590:	2300      	movs	r3, #0
 8000592:	617b      	str	r3, [r7, #20]
  RCC_ClkInitStruct.APB1CLKDivider = RCC_HCLK_DIV2;
 8000594:	f44f 5380 	mov.w	r3, #4096	; 0x1000
 8000598:	61bb      	str	r3, [r7, #24]
  RCC_ClkInitStruct.APB2CLKDivider = RCC_HCLK_DIV2;
 800059a:	f44f 5380 	mov.w	r3, #4096	; 0x1000
 800059e:	61fb      	str	r3, [r7, #28]

  if (HAL_RCC_ClockConfig(&RCC_ClkInitStruct, FLASH_LATENCY_2) != HAL_OK)
 80005a0:	f107 030c 	add.w	r3, r7, #12
 80005a4:	2102      	movs	r1, #2
 80005a6:	4618      	mov	r0, r3
 80005a8:	f001 f90e 	bl	80017c8 <HAL_RCC_ClockConfig>
 80005ac:	4603      	mov	r3, r0
 80005ae:	2b00      	cmp	r3, #0
 80005b0:	d001      	beq.n	80005b6 <SystemClock_Config+0xc2>
  {
    Error_Handler();
 80005b2:	f000 f95d 	bl	8000870 <Error_Handler>
  }
}
 80005b6:	bf00      	nop
 80005b8:	3750      	adds	r7, #80	; 0x50
 80005ba:	46bd      	mov	sp, r7
 80005bc:	bd80      	pop	{r7, pc}
 80005be:	bf00      	nop
 80005c0:	40023800 	.word	0x40023800
 80005c4:	40007000 	.word	0x40007000

080005c8 <MX_TIM3_Init>:
  * @brief TIM3 Initialization Function
  * @param None
  * @retval None
  */
static void MX_TIM3_Init(void)
{
 80005c8:	b580      	push	{r7, lr}
 80005ca:	b086      	sub	sp, #24
 80005cc:	af00      	add	r7, sp, #0

  /* USER CODE BEGIN TIM3_Init 0 */

  /* USER CODE END TIM3_Init 0 */

  TIM_ClockConfigTypeDef sClockSourceConfig = {0};
 80005ce:	f107 0308 	add.w	r3, r7, #8
 80005d2:	2200      	movs	r2, #0
 80005d4:	601a      	str	r2, [r3, #0]
 80005d6:	605a      	str	r2, [r3, #4]
 80005d8:	609a      	str	r2, [r3, #8]
 80005da:	60da      	str	r2, [r3, #12]
  TIM_MasterConfigTypeDef sMasterConfig = {0};
 80005dc:	463b      	mov	r3, r7
 80005de:	2200      	movs	r2, #0
 80005e0:	601a      	str	r2, [r3, #0]
 80005e2:	605a      	str	r2, [r3, #4]

  /* USER CODE BEGIN TIM3_Init 1 */

  /* USER CODE END TIM3_Init 1 */
  htim3.Instance = TIM3;
 80005e4:	4b1d      	ldr	r3, [pc, #116]	; (800065c <MX_TIM3_Init+0x94>)
 80005e6:	4a1e      	ldr	r2, [pc, #120]	; (8000660 <MX_TIM3_Init+0x98>)
 80005e8:	601a      	str	r2, [r3, #0]
  htim3.Init.Prescaler = 16000-1;
 80005ea:	4b1c      	ldr	r3, [pc, #112]	; (800065c <MX_TIM3_Init+0x94>)
 80005ec:	f643 627f 	movw	r2, #15999	; 0x3e7f
 80005f0:	605a      	str	r2, [r3, #4]
  htim3.Init.CounterMode = TIM_COUNTERMODE_UP;
 80005f2:	4b1a      	ldr	r3, [pc, #104]	; (800065c <MX_TIM3_Init+0x94>)
 80005f4:	2200      	movs	r2, #0
 80005f6:	609a      	str	r2, [r3, #8]
  htim3.Init.Period = 4000;
 80005f8:	4b18      	ldr	r3, [pc, #96]	; (800065c <MX_TIM3_Init+0x94>)
 80005fa:	f44f 627a 	mov.w	r2, #4000	; 0xfa0
 80005fe:	60da      	str	r2, [r3, #12]
  htim3.Init.ClockDivision = TIM_CLOCKDIVISION_DIV1;
 8000600:	4b16      	ldr	r3, [pc, #88]	; (800065c <MX_TIM3_Init+0x94>)
 8000602:	2200      	movs	r2, #0
 8000604:	611a      	str	r2, [r3, #16]
  htim3.Init.AutoReloadPreload = TIM_AUTORELOAD_PRELOAD_DISABLE;
 8000606:	4b15      	ldr	r3, [pc, #84]	; (800065c <MX_TIM3_Init+0x94>)
 8000608:	2200      	movs	r2, #0
 800060a:	619a      	str	r2, [r3, #24]
  if (HAL_TIM_Base_Init(&htim3) != HAL_OK)
 800060c:	4813      	ldr	r0, [pc, #76]	; (800065c <MX_TIM3_Init+0x94>)
 800060e:	f001 fafb 	bl	8001c08 <HAL_TIM_Base_Init>
 8000612:	4603      	mov	r3, r0
 8000614:	2b00      	cmp	r3, #0
 8000616:	d001      	beq.n	800061c <MX_TIM3_Init+0x54>
  {
    Error_Handler();
 8000618:	f000 f92a 	bl	8000870 <Error_Handler>
  }
  sClockSourceConfig.ClockSource = TIM_CLOCKSOURCE_INTERNAL;
 800061c:	f44f 5380 	mov.w	r3, #4096	; 0x1000
 8000620:	60bb      	str	r3, [r7, #8]
  if (HAL_TIM_ConfigClockSource(&htim3, &sClockSourceConfig) != HAL_OK)
 8000622:	f107 0308 	add.w	r3, r7, #8
 8000626:	4619      	mov	r1, r3
 8000628:	480c      	ldr	r0, [pc, #48]	; (800065c <MX_TIM3_Init+0x94>)
 800062a:	f001 fcb5 	bl	8001f98 <HAL_TIM_ConfigClockSource>
 800062e:	4603      	mov	r3, r0
 8000630:	2b00      	cmp	r3, #0
 8000632:	d001      	beq.n	8000638 <MX_TIM3_Init+0x70>
  {
    Error_Handler();
 8000634:	f000 f91c 	bl	8000870 <Error_Handler>
  }
  sMasterConfig.MasterOutputTrigger = TIM_TRGO_RESET;
 8000638:	2300      	movs	r3, #0
 800063a:	603b      	str	r3, [r7, #0]
  sMasterConfig.MasterSlaveMode = TIM_MASTERSLAVEMODE_DISABLE;
 800063c:	2300      	movs	r3, #0
 800063e:	607b      	str	r3, [r7, #4]
  if (HAL_TIMEx_MasterConfigSynchronization(&htim3, &sMasterConfig) != HAL_OK)
 8000640:	463b      	mov	r3, r7
 8000642:	4619      	mov	r1, r3
 8000644:	4805      	ldr	r0, [pc, #20]	; (800065c <MX_TIM3_Init+0x94>)
 8000646:	f001 fed1 	bl	80023ec <HAL_TIMEx_MasterConfigSynchronization>
 800064a:	4603      	mov	r3, r0
 800064c:	2b00      	cmp	r3, #0
 800064e:	d001      	beq.n	8000654 <MX_TIM3_Init+0x8c>
  {
    Error_Handler();
 8000650:	f000 f90e 	bl	8000870 <Error_Handler>
  }
  /* USER CODE BEGIN TIM3_Init 2 */

  /* USER CODE END TIM3_Init 2 */

}
 8000654:	bf00      	nop
 8000656:	3718      	adds	r7, #24
 8000658:	46bd      	mov	sp, r7
 800065a:	bd80      	pop	{r7, pc}
 800065c:	2000002c 	.word	0x2000002c
 8000660:	40000400 	.word	0x40000400

08000664 <MX_USART3_UART_Init>:
  * @brief USART3 Initialization Function
  * @param None
  * @retval None
  */
static void MX_USART3_UART_Init(void)
{
 8000664:	b580      	push	{r7, lr}
 8000666:	af00      	add	r7, sp, #0
  /* USER CODE END USART3_Init 0 */

  /* USER CODE BEGIN USART3_Init 1 */

  /* USER CODE END USART3_Init 1 */
  huart3.Instance = USART3;
 8000668:	4b11      	ldr	r3, [pc, #68]	; (80006b0 <MX_USART3_UART_Init+0x4c>)
 800066a:	4a12      	ldr	r2, [pc, #72]	; (80006b4 <MX_USART3_UART_Init+0x50>)
 800066c:	601a      	str	r2, [r3, #0]
  huart3.Init.BaudRate = 9600;
 800066e:	4b10      	ldr	r3, [pc, #64]	; (80006b0 <MX_USART3_UART_Init+0x4c>)
 8000670:	f44f 5216 	mov.w	r2, #9600	; 0x2580
 8000674:	605a      	str	r2, [r3, #4]
  huart3.Init.WordLength = UART_WORDLENGTH_8B;
 8000676:	4b0e      	ldr	r3, [pc, #56]	; (80006b0 <MX_USART3_UART_Init+0x4c>)
 8000678:	2200      	movs	r2, #0
 800067a:	609a      	str	r2, [r3, #8]
  huart3.Init.StopBits = UART_STOPBITS_1;
 800067c:	4b0c      	ldr	r3, [pc, #48]	; (80006b0 <MX_USART3_UART_Init+0x4c>)
 800067e:	2200      	movs	r2, #0
 8000680:	60da      	str	r2, [r3, #12]
  huart3.Init.Parity = UART_PARITY_NONE;
 8000682:	4b0b      	ldr	r3, [pc, #44]	; (80006b0 <MX_USART3_UART_Init+0x4c>)
 8000684:	2200      	movs	r2, #0
 8000686:	611a      	str	r2, [r3, #16]
  huart3.Init.Mode = UART_MODE_TX_RX;
 8000688:	4b09      	ldr	r3, [pc, #36]	; (80006b0 <MX_USART3_UART_Init+0x4c>)
 800068a:	220c      	movs	r2, #12
 800068c:	615a      	str	r2, [r3, #20]
  huart3.Init.HwFlowCtl = UART_HWCONTROL_NONE;
 800068e:	4b08      	ldr	r3, [pc, #32]	; (80006b0 <MX_USART3_UART_Init+0x4c>)
 8000690:	2200      	movs	r2, #0
 8000692:	619a      	str	r2, [r3, #24]
  huart3.Init.OverSampling = UART_OVERSAMPLING_16;
 8000694:	4b06      	ldr	r3, [pc, #24]	; (80006b0 <MX_USART3_UART_Init+0x4c>)
 8000696:	2200      	movs	r2, #0
 8000698:	61da      	str	r2, [r3, #28]
  if (HAL_UART_Init(&huart3) != HAL_OK)
 800069a:	4805      	ldr	r0, [pc, #20]	; (80006b0 <MX_USART3_UART_Init+0x4c>)
 800069c:	f001 ff36 	bl	800250c <HAL_UART_Init>
 80006a0:	4603      	mov	r3, r0
 80006a2:	2b00      	cmp	r3, #0
 80006a4:	d001      	beq.n	80006aa <MX_USART3_UART_Init+0x46>
  {
    Error_Handler();
 80006a6:	f000 f8e3 	bl	8000870 <Error_Handler>
  }
  /* USER CODE BEGIN USART3_Init 2 */

  /* USER CODE END USART3_Init 2 */

}
 80006aa:	bf00      	nop
 80006ac:	bd80      	pop	{r7, pc}
 80006ae:	bf00      	nop
 80006b0:	20000074 	.word	0x20000074
 80006b4:	40004800 	.word	0x40004800

080006b8 <MX_USART6_UART_Init>:
  * @brief USART6 Initialization Function
  * @param None
  * @retval None
  */
static void MX_USART6_UART_Init(void)
{
 80006b8:	b580      	push	{r7, lr}
 80006ba:	af00      	add	r7, sp, #0
  /* USER CODE END USART6_Init 0 */

  /* USER CODE BEGIN USART6_Init 1 */

  /* USER CODE END USART6_Init 1 */
  huart6.Instance = USART6;
 80006bc:	4b11      	ldr	r3, [pc, #68]	; (8000704 <MX_USART6_UART_Init+0x4c>)
 80006be:	4a12      	ldr	r2, [pc, #72]	; (8000708 <MX_USART6_UART_Init+0x50>)
 80006c0:	601a      	str	r2, [r3, #0]
  huart6.Init.BaudRate = 9600;
 80006c2:	4b10      	ldr	r3, [pc, #64]	; (8000704 <MX_USART6_UART_Init+0x4c>)
 80006c4:	f44f 5216 	mov.w	r2, #9600	; 0x2580
 80006c8:	605a      	str	r2, [r3, #4]
  huart6.Init.WordLength = UART_WORDLENGTH_8B;
 80006ca:	4b0e      	ldr	r3, [pc, #56]	; (8000704 <MX_USART6_UART_Init+0x4c>)
 80006cc:	2200      	movs	r2, #0
 80006ce:	609a      	str	r2, [r3, #8]
  huart6.Init.StopBits = UART_STOPBITS_1;
 80006d0:	4b0c      	ldr	r3, [pc, #48]	; (8000704 <MX_USART6_UART_Init+0x4c>)
 80006d2:	2200      	movs	r2, #0
 80006d4:	60da      	str	r2, [r3, #12]
  huart6.Init.Parity = UART_PARITY_NONE;
 80006d6:	4b0b      	ldr	r3, [pc, #44]	; (8000704 <MX_USART6_UART_Init+0x4c>)
 80006d8:	2200      	movs	r2, #0
 80006da:	611a      	str	r2, [r3, #16]
  huart6.Init.Mode = UART_MODE_TX_RX;
 80006dc:	4b09      	ldr	r3, [pc, #36]	; (8000704 <MX_USART6_UART_Init+0x4c>)
 80006de:	220c      	movs	r2, #12
 80006e0:	615a      	str	r2, [r3, #20]
  huart6.Init.HwFlowCtl = UART_HWCONTROL_NONE;
 80006e2:	4b08      	ldr	r3, [pc, #32]	; (8000704 <MX_USART6_UART_Init+0x4c>)
 80006e4:	2200      	movs	r2, #0
 80006e6:	619a      	str	r2, [r3, #24]
  huart6.Init.OverSampling = UART_OVERSAMPLING_16;
 80006e8:	4b06      	ldr	r3, [pc, #24]	; (8000704 <MX_USART6_UART_Init+0x4c>)
 80006ea:	2200      	movs	r2, #0
 80006ec:	61da      	str	r2, [r3, #28]
  if (HAL_UART_Init(&huart6) != HAL_OK)
 80006ee:	4805      	ldr	r0, [pc, #20]	; (8000704 <MX_USART6_UART_Init+0x4c>)
 80006f0:	f001 ff0c 	bl	800250c <HAL_UART_Init>
 80006f4:	4603      	mov	r3, r0
 80006f6:	2b00      	cmp	r3, #0
 80006f8:	d001      	beq.n	80006fe <MX_USART6_UART_Init+0x46>
  {
    Error_Handler();
 80006fa:	f000 f8b9 	bl	8000870 <Error_Handler>
  }
  /* USER CODE BEGIN USART6_Init 2 */

  /* USER CODE END USART6_Init 2 */

}
 80006fe:	bf00      	nop
 8000700:	bd80      	pop	{r7, pc}
 8000702:	bf00      	nop
 8000704:	200000b8 	.word	0x200000b8
 8000708:	40011400 	.word	0x40011400

0800070c <MX_GPIO_Init>:
  * @brief GPIO Initialization Function
  * @param None
  * @retval None
  */
static void MX_GPIO_Init(void)
{
 800070c:	b580      	push	{r7, lr}
 800070e:	b08a      	sub	sp, #40	; 0x28
 8000710:	af00      	add	r7, sp, #0
  GPIO_InitTypeDef GPIO_InitStruct = {0};
 8000712:	f107 0314 	add.w	r3, r7, #20
 8000716:	2200      	movs	r2, #0
 8000718:	601a      	str	r2, [r3, #0]
 800071a:	605a      	str	r2, [r3, #4]
 800071c:	609a      	str	r2, [r3, #8]
 800071e:	60da      	str	r2, [r3, #12]
 8000720:	611a      	str	r2, [r3, #16]
/* USER CODE BEGIN MX_GPIO_Init_1 */
/* USER CODE END MX_GPIO_Init_1 */

  /* GPIO Ports Clock Enable */
  __HAL_RCC_GPIOH_CLK_ENABLE();
 8000722:	2300      	movs	r3, #0
 8000724:	613b      	str	r3, [r7, #16]
 8000726:	4b27      	ldr	r3, [pc, #156]	; (80007c4 <MX_GPIO_Init+0xb8>)
 8000728:	6b1b      	ldr	r3, [r3, #48]	; 0x30
 800072a:	4a26      	ldr	r2, [pc, #152]	; (80007c4 <MX_GPIO_Init+0xb8>)
 800072c:	f043 0380 	orr.w	r3, r3, #128	; 0x80
 8000730:	6313      	str	r3, [r2, #48]	; 0x30
 8000732:	4b24      	ldr	r3, [pc, #144]	; (80007c4 <MX_GPIO_Init+0xb8>)
 8000734:	6b1b      	ldr	r3, [r3, #48]	; 0x30
 8000736:	f003 0380 	and.w	r3, r3, #128	; 0x80
 800073a:	613b      	str	r3, [r7, #16]
 800073c:	693b      	ldr	r3, [r7, #16]
  __HAL_RCC_GPIOB_CLK_ENABLE();
 800073e:	2300      	movs	r3, #0
 8000740:	60fb      	str	r3, [r7, #12]
 8000742:	4b20      	ldr	r3, [pc, #128]	; (80007c4 <MX_GPIO_Init+0xb8>)
 8000744:	6b1b      	ldr	r3, [r3, #48]	; 0x30
 8000746:	4a1f      	ldr	r2, [pc, #124]	; (80007c4 <MX_GPIO_Init+0xb8>)
 8000748:	f043 0302 	orr.w	r3, r3, #2
 800074c:	6313      	str	r3, [r2, #48]	; 0x30
 800074e:	4b1d      	ldr	r3, [pc, #116]	; (80007c4 <MX_GPIO_Init+0xb8>)
 8000750:	6b1b      	ldr	r3, [r3, #48]	; 0x30
 8000752:	f003 0302 	and.w	r3, r3, #2
 8000756:	60fb      	str	r3, [r7, #12]
 8000758:	68fb      	ldr	r3, [r7, #12]
  __HAL_RCC_GPIOD_CLK_ENABLE();
 800075a:	2300      	movs	r3, #0
 800075c:	60bb      	str	r3, [r7, #8]
 800075e:	4b19      	ldr	r3, [pc, #100]	; (80007c4 <MX_GPIO_Init+0xb8>)
 8000760:	6b1b      	ldr	r3, [r3, #48]	; 0x30
 8000762:	4a18      	ldr	r2, [pc, #96]	; (80007c4 <MX_GPIO_Init+0xb8>)
 8000764:	f043 0308 	orr.w	r3, r3, #8
 8000768:	6313      	str	r3, [r2, #48]	; 0x30
 800076a:	4b16      	ldr	r3, [pc, #88]	; (80007c4 <MX_GPIO_Init+0xb8>)
 800076c:	6b1b      	ldr	r3, [r3, #48]	; 0x30
 800076e:	f003 0308 	and.w	r3, r3, #8
 8000772:	60bb      	str	r3, [r7, #8]
 8000774:	68bb      	ldr	r3, [r7, #8]
  __HAL_RCC_GPIOC_CLK_ENABLE();
 8000776:	2300      	movs	r3, #0
 8000778:	607b      	str	r3, [r7, #4]
 800077a:	4b12      	ldr	r3, [pc, #72]	; (80007c4 <MX_GPIO_Init+0xb8>)
 800077c:	6b1b      	ldr	r3, [r3, #48]	; 0x30
 800077e:	4a11      	ldr	r2, [pc, #68]	; (80007c4 <MX_GPIO_Init+0xb8>)
 8000780:	f043 0304 	orr.w	r3, r3, #4
 8000784:	6313      	str	r3, [r2, #48]	; 0x30
 8000786:	4b0f      	ldr	r3, [pc, #60]	; (80007c4 <MX_GPIO_Init+0xb8>)
 8000788:	6b1b      	ldr	r3, [r3, #48]	; 0x30
 800078a:	f003 0304 	and.w	r3, r3, #4
 800078e:	607b      	str	r3, [r7, #4]
 8000790:	687b      	ldr	r3, [r7, #4]

  /*Configure GPIO pin Output Level */
  HAL_GPIO_WritePin(GPIOD, GPIO_PIN_12|GPIO_PIN_13|GPIO_PIN_14|GPIO_PIN_15, GPIO_PIN_RESET);
 8000792:	2200      	movs	r2, #0
 8000794:	f44f 4170 	mov.w	r1, #61440	; 0xf000
 8000798:	480b      	ldr	r0, [pc, #44]	; (80007c8 <MX_GPIO_Init+0xbc>)
 800079a:	f000 fd83 	bl	80012a4 <HAL_GPIO_WritePin>

  /*Configure GPIO pins : PD12 PD13 PD14 PD15 */
  GPIO_InitStruct.Pin = GPIO_PIN_12|GPIO_PIN_13|GPIO_PIN_14|GPIO_PIN_15;
 800079e:	f44f 4370 	mov.w	r3, #61440	; 0xf000
 80007a2:	617b      	str	r3, [r7, #20]
  GPIO_InitStruct.Mode = GPIO_MODE_OUTPUT_PP;
 80007a4:	2301      	movs	r3, #1
 80007a6:	61bb      	str	r3, [r7, #24]
  GPIO_InitStruct.Pull = GPIO_NOPULL;
 80007a8:	2300      	movs	r3, #0
 80007aa:	61fb      	str	r3, [r7, #28]
  GPIO_InitStruct.Speed = GPIO_SPEED_FREQ_LOW;
 80007ac:	2300      	movs	r3, #0
 80007ae:	623b      	str	r3, [r7, #32]
  HAL_GPIO_Init(GPIOD, &GPIO_InitStruct);
 80007b0:	f107 0314 	add.w	r3, r7, #20
 80007b4:	4619      	mov	r1, r3
 80007b6:	4804      	ldr	r0, [pc, #16]	; (80007c8 <MX_GPIO_Init+0xbc>)
 80007b8:	f000 fbd8 	bl	8000f6c <HAL_GPIO_Init>

/* USER CODE BEGIN MX_GPIO_Init_2 */
/* USER CODE END MX_GPIO_Init_2 */
}
 80007bc:	bf00      	nop
 80007be:	3728      	adds	r7, #40	; 0x28
 80007c0:	46bd      	mov	sp, r7
 80007c2:	bd80      	pop	{r7, pc}
 80007c4:	40023800 	.word	0x40023800
 80007c8:	40020c00 	.word	0x40020c00

080007cc <HAL_TIM_PeriodElapsedCallback>:

/* USER CODE BEGIN 4 */

void HAL_TIM_PeriodElapsedCallback(TIM_HandleTypeDef *htim)
{
 80007cc:	b580      	push	{r7, lr}
 80007ce:	b082      	sub	sp, #8
 80007d0:	af00      	add	r7, sp, #0
 80007d2:	6078      	str	r0, [r7, #4]
  /* USER CODE BEGIN Callback 0 */

  /* USER CODE END Callback 0 */
  if (htim->Instance == TIM3) {
 80007d4:	687b      	ldr	r3, [r7, #4]
 80007d6:	681b      	ldr	r3, [r3, #0]
 80007d8:	4a11      	ldr	r2, [pc, #68]	; (8000820 <HAL_TIM_PeriodElapsedCallback+0x54>)
 80007da:	4293      	cmp	r3, r2
 80007dc:	d11b      	bne.n	8000816 <HAL_TIM_PeriodElapsedCallback+0x4a>
	HAL_UART_Transmit_IT(&huart3, &UTx_Buffer[temp], 1);
 80007de:	4b11      	ldr	r3, [pc, #68]	; (8000824 <HAL_TIM_PeriodElapsedCallback+0x58>)
 80007e0:	781b      	ldrb	r3, [r3, #0]
 80007e2:	461a      	mov	r2, r3
 80007e4:	4b10      	ldr	r3, [pc, #64]	; (8000828 <HAL_TIM_PeriodElapsedCallback+0x5c>)
 80007e6:	4413      	add	r3, r2
 80007e8:	2201      	movs	r2, #1
 80007ea:	4619      	mov	r1, r3
 80007ec:	480f      	ldr	r0, [pc, #60]	; (800082c <HAL_TIM_PeriodElapsedCallback+0x60>)
 80007ee:	f001 feda 	bl	80025a6 <HAL_UART_Transmit_IT>
	HAL_UART_Receive_IT(&huart6, &URx_Buffer, 1);
 80007f2:	2201      	movs	r2, #1
 80007f4:	490e      	ldr	r1, [pc, #56]	; (8000830 <HAL_TIM_PeriodElapsedCallback+0x64>)
 80007f6:	480f      	ldr	r0, [pc, #60]	; (8000834 <HAL_TIM_PeriodElapsedCallback+0x68>)
 80007f8:	f001 ff1a 	bl	8002630 <HAL_UART_Receive_IT>
	temp += 1;
 80007fc:	4b09      	ldr	r3, [pc, #36]	; (8000824 <HAL_TIM_PeriodElapsedCallback+0x58>)
 80007fe:	781b      	ldrb	r3, [r3, #0]
 8000800:	3301      	adds	r3, #1
 8000802:	b2da      	uxtb	r2, r3
 8000804:	4b07      	ldr	r3, [pc, #28]	; (8000824 <HAL_TIM_PeriodElapsedCallback+0x58>)
 8000806:	701a      	strb	r2, [r3, #0]
	if(temp == 4){
 8000808:	4b06      	ldr	r3, [pc, #24]	; (8000824 <HAL_TIM_PeriodElapsedCallback+0x58>)
 800080a:	781b      	ldrb	r3, [r3, #0]
 800080c:	2b04      	cmp	r3, #4
 800080e:	d102      	bne.n	8000816 <HAL_TIM_PeriodElapsedCallback+0x4a>
		temp = 0;
 8000810:	4b04      	ldr	r3, [pc, #16]	; (8000824 <HAL_TIM_PeriodElapsedCallback+0x58>)
 8000812:	2200      	movs	r2, #0
 8000814:	701a      	strb	r2, [r3, #0]
	}
  }
  /* USER CODE BEGIN Callback 1 */

  /* USER CODE END Callback 1 */
}
 8000816:	bf00      	nop
 8000818:	3708      	adds	r7, #8
 800081a:	46bd      	mov	sp, r7
 800081c:	bd80      	pop	{r7, pc}
 800081e:	bf00      	nop
 8000820:	40000400 	.word	0x40000400
 8000824:	200000fd 	.word	0x200000fd
 8000828:	20000000 	.word	0x20000000
 800082c:	20000074 	.word	0x20000074
 8000830:	200000fc 	.word	0x200000fc
 8000834:	200000b8 	.word	0x200000b8

08000838 <HAL_UART_RxCpltCallback>:

void HAL_UART_RxCpltCallback(UART_HandleTypeDef *huart)
{
 8000838:	b480      	push	{r7}
 800083a:	b083      	sub	sp, #12
 800083c:	af00      	add	r7, sp, #0
 800083e:	6078      	str	r0, [r7, #4]
  /* Prevent unused argument(s) compilation warning */
  UNUSED(huart);

  GPIOD->ODR &= 0x00000000;
 8000840:	4b09      	ldr	r3, [pc, #36]	; (8000868 <HAL_UART_RxCpltCallback+0x30>)
 8000842:	695b      	ldr	r3, [r3, #20]
 8000844:	4b08      	ldr	r3, [pc, #32]	; (8000868 <HAL_UART_RxCpltCallback+0x30>)
 8000846:	2200      	movs	r2, #0
 8000848:	615a      	str	r2, [r3, #20]
  GPIOD->ODR |= (URx_Buffer << 12);
 800084a:	4b07      	ldr	r3, [pc, #28]	; (8000868 <HAL_UART_RxCpltCallback+0x30>)
 800084c:	695b      	ldr	r3, [r3, #20]
 800084e:	4a07      	ldr	r2, [pc, #28]	; (800086c <HAL_UART_RxCpltCallback+0x34>)
 8000850:	7812      	ldrb	r2, [r2, #0]
 8000852:	0312      	lsls	r2, r2, #12
 8000854:	4611      	mov	r1, r2
 8000856:	4a04      	ldr	r2, [pc, #16]	; (8000868 <HAL_UART_RxCpltCallback+0x30>)
 8000858:	430b      	orrs	r3, r1
 800085a:	6153      	str	r3, [r2, #20]

  /* NOTE: This function should not be modified, when the callback is needed,
           the HAL_UART_RxCpltCallback could be implemented in the user file
   */
}
 800085c:	bf00      	nop
 800085e:	370c      	adds	r7, #12
 8000860:	46bd      	mov	sp, r7
 8000862:	f85d 7b04 	ldr.w	r7, [sp], #4
 8000866:	4770      	bx	lr
 8000868:	40020c00 	.word	0x40020c00
 800086c:	200000fc 	.word	0x200000fc

08000870 <Error_Handler>:
/**
  * @brief  This function is executed in case of error occurrence.
  * @retval None
  */
void Error_Handler(void)
{
 8000870:	b480      	push	{r7}
 8000872:	af00      	add	r7, sp, #0
  \details Disables IRQ interrupts by setting the I-bit in the CPSR.
           Can only be executed in Privileged modes.
 */
__STATIC_FORCEINLINE void __disable_irq(void)
{
  __ASM volatile ("cpsid i" : : : "memory");
 8000874:	b672      	cpsid	i
}
 8000876:	bf00      	nop
  /* USER CODE BEGIN Error_Handler_Debug */
  /* User can add his own implementation to report the HAL error return state */
  __disable_irq();
  while (1)
 8000878:	e7fe      	b.n	8000878 <Error_Handler+0x8>
	...

0800087c <HAL_MspInit>:
/* USER CODE END 0 */
/**
  * Initializes the Global MSP.
  */
void HAL_MspInit(void)
{
 800087c:	b580      	push	{r7, lr}
 800087e:	b082      	sub	sp, #8
 8000880:	af00      	add	r7, sp, #0
  /* USER CODE BEGIN MspInit 0 */

  /* USER CODE END MspInit 0 */

  __HAL_RCC_SYSCFG_CLK_ENABLE();
 8000882:	2300      	movs	r3, #0
 8000884:	607b      	str	r3, [r7, #4]
 8000886:	4b10      	ldr	r3, [pc, #64]	; (80008c8 <HAL_MspInit+0x4c>)
 8000888:	6c5b      	ldr	r3, [r3, #68]	; 0x44
 800088a:	4a0f      	ldr	r2, [pc, #60]	; (80008c8 <HAL_MspInit+0x4c>)
 800088c:	f443 4380 	orr.w	r3, r3, #16384	; 0x4000
 8000890:	6453      	str	r3, [r2, #68]	; 0x44
 8000892:	4b0d      	ldr	r3, [pc, #52]	; (80008c8 <HAL_MspInit+0x4c>)
 8000894:	6c5b      	ldr	r3, [r3, #68]	; 0x44
 8000896:	f403 4380 	and.w	r3, r3, #16384	; 0x4000
 800089a:	607b      	str	r3, [r7, #4]
 800089c:	687b      	ldr	r3, [r7, #4]
  __HAL_RCC_PWR_CLK_ENABLE();
 800089e:	2300      	movs	r3, #0
 80008a0:	603b      	str	r3, [r7, #0]
 80008a2:	4b09      	ldr	r3, [pc, #36]	; (80008c8 <HAL_MspInit+0x4c>)
 80008a4:	6c1b      	ldr	r3, [r3, #64]	; 0x40
 80008a6:	4a08      	ldr	r2, [pc, #32]	; (80008c8 <HAL_MspInit+0x4c>)
 80008a8:	f043 5380 	orr.w	r3, r3, #268435456	; 0x10000000
 80008ac:	6413      	str	r3, [r2, #64]	; 0x40
 80008ae:	4b06      	ldr	r3, [pc, #24]	; (80008c8 <HAL_MspInit+0x4c>)
 80008b0:	6c1b      	ldr	r3, [r3, #64]	; 0x40
 80008b2:	f003 5380 	and.w	r3, r3, #268435456	; 0x10000000
 80008b6:	603b      	str	r3, [r7, #0]
 80008b8:	683b      	ldr	r3, [r7, #0]

  HAL_NVIC_SetPriorityGrouping(NVIC_PRIORITYGROUP_0);
 80008ba:	2007      	movs	r0, #7
 80008bc:	f000 fa82 	bl	8000dc4 <HAL_NVIC_SetPriorityGrouping>
  /* System interrupt init*/

  /* USER CODE BEGIN MspInit 1 */

  /* USER CODE END MspInit 1 */
}
 80008c0:	bf00      	nop
 80008c2:	3708      	adds	r7, #8
 80008c4:	46bd      	mov	sp, r7
 80008c6:	bd80      	pop	{r7, pc}
 80008c8:	40023800 	.word	0x40023800

080008cc <HAL_TIM_Base_MspInit>:
* This function configures the hardware resources used in this example
* @param htim_base: TIM_Base handle pointer
* @retval None
*/
void HAL_TIM_Base_MspInit(TIM_HandleTypeDef* htim_base)
{
 80008cc:	b580      	push	{r7, lr}
 80008ce:	b084      	sub	sp, #16
 80008d0:	af00      	add	r7, sp, #0
 80008d2:	6078      	str	r0, [r7, #4]
  if(htim_base->Instance==TIM3)
 80008d4:	687b      	ldr	r3, [r7, #4]
 80008d6:	681b      	ldr	r3, [r3, #0]
 80008d8:	4a0e      	ldr	r2, [pc, #56]	; (8000914 <HAL_TIM_Base_MspInit+0x48>)
 80008da:	4293      	cmp	r3, r2
 80008dc:	d115      	bne.n	800090a <HAL_TIM_Base_MspInit+0x3e>
  {
  /* USER CODE BEGIN TIM3_MspInit 0 */

  /* USER CODE END TIM3_MspInit 0 */
    /* Peripheral clock enable */
    __HAL_RCC_TIM3_CLK_ENABLE();
 80008de:	2300      	movs	r3, #0
 80008e0:	60fb      	str	r3, [r7, #12]
 80008e2:	4b0d      	ldr	r3, [pc, #52]	; (8000918 <HAL_TIM_Base_MspInit+0x4c>)
 80008e4:	6c1b      	ldr	r3, [r3, #64]	; 0x40
 80008e6:	4a0c      	ldr	r2, [pc, #48]	; (8000918 <HAL_TIM_Base_MspInit+0x4c>)
 80008e8:	f043 0302 	orr.w	r3, r3, #2
 80008ec:	6413      	str	r3, [r2, #64]	; 0x40
 80008ee:	4b0a      	ldr	r3, [pc, #40]	; (8000918 <HAL_TIM_Base_MspInit+0x4c>)
 80008f0:	6c1b      	ldr	r3, [r3, #64]	; 0x40
 80008f2:	f003 0302 	and.w	r3, r3, #2
 80008f6:	60fb      	str	r3, [r7, #12]
 80008f8:	68fb      	ldr	r3, [r7, #12]
    /* TIM3 interrupt Init */
    HAL_NVIC_SetPriority(TIM3_IRQn, 0, 0);
 80008fa:	2200      	movs	r2, #0
 80008fc:	2100      	movs	r1, #0
 80008fe:	201d      	movs	r0, #29
 8000900:	f000 fa6b 	bl	8000dda <HAL_NVIC_SetPriority>
    HAL_NVIC_EnableIRQ(TIM3_IRQn);
 8000904:	201d      	movs	r0, #29
 8000906:	f000 fa84 	bl	8000e12 <HAL_NVIC_EnableIRQ>
  /* USER CODE BEGIN TIM3_MspInit 1 */

  /* USER CODE END TIM3_MspInit 1 */
  }

}
 800090a:	bf00      	nop
 800090c:	3710      	adds	r7, #16
 800090e:	46bd      	mov	sp, r7
 8000910:	bd80      	pop	{r7, pc}
 8000912:	bf00      	nop
 8000914:	40000400 	.word	0x40000400
 8000918:	40023800 	.word	0x40023800

0800091c <HAL_UART_MspInit>:
* This function configures the hardware resources used in this example
* @param huart: UART handle pointer
* @retval None
*/
void HAL_UART_MspInit(UART_HandleTypeDef* huart)
{
 800091c:	b580      	push	{r7, lr}
 800091e:	b08c      	sub	sp, #48	; 0x30
 8000920:	af00      	add	r7, sp, #0
 8000922:	6078      	str	r0, [r7, #4]
  GPIO_InitTypeDef GPIO_InitStruct = {0};
 8000924:	f107 031c 	add.w	r3, r7, #28
 8000928:	2200      	movs	r2, #0
 800092a:	601a      	str	r2, [r3, #0]
 800092c:	605a      	str	r2, [r3, #4]
 800092e:	609a      	str	r2, [r3, #8]
 8000930:	60da      	str	r2, [r3, #12]
 8000932:	611a      	str	r2, [r3, #16]
  if(huart->Instance==USART3)
 8000934:	687b      	ldr	r3, [r7, #4]
 8000936:	681b      	ldr	r3, [r3, #0]
 8000938:	4a3a      	ldr	r2, [pc, #232]	; (8000a24 <HAL_UART_MspInit+0x108>)
 800093a:	4293      	cmp	r3, r2
 800093c:	d135      	bne.n	80009aa <HAL_UART_MspInit+0x8e>
  {
  /* USER CODE BEGIN USART3_MspInit 0 */

  /* USER CODE END USART3_MspInit 0 */
    /* Peripheral clock enable */
    __HAL_RCC_USART3_CLK_ENABLE();
 800093e:	2300      	movs	r3, #0
 8000940:	61bb      	str	r3, [r7, #24]
 8000942:	4b39      	ldr	r3, [pc, #228]	; (8000a28 <HAL_UART_MspInit+0x10c>)
 8000944:	6c1b      	ldr	r3, [r3, #64]	; 0x40
 8000946:	4a38      	ldr	r2, [pc, #224]	; (8000a28 <HAL_UART_MspInit+0x10c>)
 8000948:	f443 2380 	orr.w	r3, r3, #262144	; 0x40000
 800094c:	6413      	str	r3, [r2, #64]	; 0x40
 800094e:	4b36      	ldr	r3, [pc, #216]	; (8000a28 <HAL_UART_MspInit+0x10c>)
 8000950:	6c1b      	ldr	r3, [r3, #64]	; 0x40
 8000952:	f403 2380 	and.w	r3, r3, #262144	; 0x40000
 8000956:	61bb      	str	r3, [r7, #24]
 8000958:	69bb      	ldr	r3, [r7, #24]

    __HAL_RCC_GPIOB_CLK_ENABLE();
 800095a:	2300      	movs	r3, #0
 800095c:	617b      	str	r3, [r7, #20]
 800095e:	4b32      	ldr	r3, [pc, #200]	; (8000a28 <HAL_UART_MspInit+0x10c>)
 8000960:	6b1b      	ldr	r3, [r3, #48]	; 0x30
 8000962:	4a31      	ldr	r2, [pc, #196]	; (8000a28 <HAL_UART_MspInit+0x10c>)
 8000964:	f043 0302 	orr.w	r3, r3, #2
 8000968:	6313      	str	r3, [r2, #48]	; 0x30
 800096a:	4b2f      	ldr	r3, [pc, #188]	; (8000a28 <HAL_UART_MspInit+0x10c>)
 800096c:	6b1b      	ldr	r3, [r3, #48]	; 0x30
 800096e:	f003 0302 	and.w	r3, r3, #2
 8000972:	617b      	str	r3, [r7, #20]
 8000974:	697b      	ldr	r3, [r7, #20]
    /**USART3 GPIO Configuration
    PB10     ------> USART3_TX
    PB11     ------> USART3_RX
    */
    GPIO_InitStruct.Pin = GPIO_PIN_10|GPIO_PIN_11;
 8000976:	f44f 6340 	mov.w	r3, #3072	; 0xc00
 800097a:	61fb      	str	r3, [r7, #28]
    GPIO_InitStruct.Mode = GPIO_MODE_AF_PP;
 800097c:	2302      	movs	r3, #2
 800097e:	623b      	str	r3, [r7, #32]
    GPIO_InitStruct.Pull = GPIO_NOPULL;
 8000980:	2300      	movs	r3, #0
 8000982:	627b      	str	r3, [r7, #36]	; 0x24
    GPIO_InitStruct.Speed = GPIO_SPEED_FREQ_VERY_HIGH;
 8000984:	2303      	movs	r3, #3
 8000986:	62bb      	str	r3, [r7, #40]	; 0x28
    GPIO_InitStruct.Alternate = GPIO_AF7_USART3;
 8000988:	2307      	movs	r3, #7
 800098a:	62fb      	str	r3, [r7, #44]	; 0x2c
    HAL_GPIO_Init(GPIOB, &GPIO_InitStruct);
 800098c:	f107 031c 	add.w	r3, r7, #28
 8000990:	4619      	mov	r1, r3
 8000992:	4826      	ldr	r0, [pc, #152]	; (8000a2c <HAL_UART_MspInit+0x110>)
 8000994:	f000 faea 	bl	8000f6c <HAL_GPIO_Init>

    /* USART3 interrupt Init */
    HAL_NVIC_SetPriority(USART3_IRQn, 0, 0);
 8000998:	2200      	movs	r2, #0
 800099a:	2100      	movs	r1, #0
 800099c:	2027      	movs	r0, #39	; 0x27
 800099e:	f000 fa1c 	bl	8000dda <HAL_NVIC_SetPriority>
    HAL_NVIC_EnableIRQ(USART3_IRQn);
 80009a2:	2027      	movs	r0, #39	; 0x27
 80009a4:	f000 fa35 	bl	8000e12 <HAL_NVIC_EnableIRQ>
  /* USER CODE BEGIN USART6_MspInit 1 */

  /* USER CODE END USART6_MspInit 1 */
  }

}
 80009a8:	e038      	b.n	8000a1c <HAL_UART_MspInit+0x100>
  else if(huart->Instance==USART6)
 80009aa:	687b      	ldr	r3, [r7, #4]
 80009ac:	681b      	ldr	r3, [r3, #0]
 80009ae:	4a20      	ldr	r2, [pc, #128]	; (8000a30 <HAL_UART_MspInit+0x114>)
 80009b0:	4293      	cmp	r3, r2
 80009b2:	d133      	bne.n	8000a1c <HAL_UART_MspInit+0x100>
    __HAL_RCC_USART6_CLK_ENABLE();
 80009b4:	2300      	movs	r3, #0
 80009b6:	613b      	str	r3, [r7, #16]
 80009b8:	4b1b      	ldr	r3, [pc, #108]	; (8000a28 <HAL_UART_MspInit+0x10c>)
 80009ba:	6c5b      	ldr	r3, [r3, #68]	; 0x44
 80009bc:	4a1a      	ldr	r2, [pc, #104]	; (8000a28 <HAL_UART_MspInit+0x10c>)
 80009be:	f043 0320 	orr.w	r3, r3, #32
 80009c2:	6453      	str	r3, [r2, #68]	; 0x44
 80009c4:	4b18      	ldr	r3, [pc, #96]	; (8000a28 <HAL_UART_MspInit+0x10c>)
 80009c6:	6c5b      	ldr	r3, [r3, #68]	; 0x44
 80009c8:	f003 0320 	and.w	r3, r3, #32
 80009cc:	613b      	str	r3, [r7, #16]
 80009ce:	693b      	ldr	r3, [r7, #16]
    __HAL_RCC_GPIOC_CLK_ENABLE();
 80009d0:	2300      	movs	r3, #0
 80009d2:	60fb      	str	r3, [r7, #12]
 80009d4:	4b14      	ldr	r3, [pc, #80]	; (8000a28 <HAL_UART_MspInit+0x10c>)
 80009d6:	6b1b      	ldr	r3, [r3, #48]	; 0x30
 80009d8:	4a13      	ldr	r2, [pc, #76]	; (8000a28 <HAL_UART_MspInit+0x10c>)
 80009da:	f043 0304 	orr.w	r3, r3, #4
 80009de:	6313      	str	r3, [r2, #48]	; 0x30
 80009e0:	4b11      	ldr	r3, [pc, #68]	; (8000a28 <HAL_UART_MspInit+0x10c>)
 80009e2:	6b1b      	ldr	r3, [r3, #48]	; 0x30
 80009e4:	f003 0304 	and.w	r3, r3, #4
 80009e8:	60fb      	str	r3, [r7, #12]
 80009ea:	68fb      	ldr	r3, [r7, #12]
    GPIO_InitStruct.Pin = GPIO_PIN_6|GPIO_PIN_7;
 80009ec:	23c0      	movs	r3, #192	; 0xc0
 80009ee:	61fb      	str	r3, [r7, #28]
    GPIO_InitStruct.Mode = GPIO_MODE_AF_PP;
 80009f0:	2302      	movs	r3, #2
 80009f2:	623b      	str	r3, [r7, #32]
    GPIO_InitStruct.Pull = GPIO_NOPULL;
 80009f4:	2300      	movs	r3, #0
 80009f6:	627b      	str	r3, [r7, #36]	; 0x24
    GPIO_InitStruct.Speed = GPIO_SPEED_FREQ_VERY_HIGH;
 80009f8:	2303      	movs	r3, #3
 80009fa:	62bb      	str	r3, [r7, #40]	; 0x28
    GPIO_InitStruct.Alternate = GPIO_AF8_USART6;
 80009fc:	2308      	movs	r3, #8
 80009fe:	62fb      	str	r3, [r7, #44]	; 0x2c
    HAL_GPIO_Init(GPIOC, &GPIO_InitStruct);
 8000a00:	f107 031c 	add.w	r3, r7, #28
 8000a04:	4619      	mov	r1, r3
 8000a06:	480b      	ldr	r0, [pc, #44]	; (8000a34 <HAL_UART_MspInit+0x118>)
 8000a08:	f000 fab0 	bl	8000f6c <HAL_GPIO_Init>
    HAL_NVIC_SetPriority(USART6_IRQn, 0, 0);
 8000a0c:	2200      	movs	r2, #0
 8000a0e:	2100      	movs	r1, #0
 8000a10:	2047      	movs	r0, #71	; 0x47
 8000a12:	f000 f9e2 	bl	8000dda <HAL_NVIC_SetPriority>
    HAL_NVIC_EnableIRQ(USART6_IRQn);
 8000a16:	2047      	movs	r0, #71	; 0x47
 8000a18:	f000 f9fb 	bl	8000e12 <HAL_NVIC_EnableIRQ>
}
 8000a1c:	bf00      	nop
 8000a1e:	3730      	adds	r7, #48	; 0x30
 8000a20:	46bd      	mov	sp, r7
 8000a22:	bd80      	pop	{r7, pc}
 8000a24:	40004800 	.word	0x40004800
 8000a28:	40023800 	.word	0x40023800
 8000a2c:	40020400 	.word	0x40020400
 8000a30:	40011400 	.word	0x40011400
 8000a34:	40020800 	.word	0x40020800

08000a38 <NMI_Handler>:
/******************************************************************************/
/**
  * @brief This function handles Non maskable interrupt.
  */
void NMI_Handler(void)
{
 8000a38:	b480      	push	{r7}
 8000a3a:	af00      	add	r7, sp, #0
  /* USER CODE BEGIN NonMaskableInt_IRQn 0 */

  /* USER CODE END NonMaskableInt_IRQn 0 */
  /* USER CODE BEGIN NonMaskableInt_IRQn 1 */
  while (1)
 8000a3c:	e7fe      	b.n	8000a3c <NMI_Handler+0x4>

08000a3e <HardFault_Handler>:

/**
  * @brief This function handles Hard fault interrupt.
  */
void HardFault_Handler(void)
{
 8000a3e:	b480      	push	{r7}
 8000a40:	af00      	add	r7, sp, #0
  /* USER CODE BEGIN HardFault_IRQn 0 */

  /* USER CODE END HardFault_IRQn 0 */
  while (1)
 8000a42:	e7fe      	b.n	8000a42 <HardFault_Handler+0x4>

08000a44 <MemManage_Handler>:

/**
  * @brief This function handles Memory management fault.
  */
void MemManage_Handler(void)
{
 8000a44:	b480      	push	{r7}
 8000a46:	af00      	add	r7, sp, #0
  /* USER CODE BEGIN MemoryManagement_IRQn 0 */

  /* USER CODE END MemoryManagement_IRQn 0 */
  while (1)
 8000a48:	e7fe      	b.n	8000a48 <MemManage_Handler+0x4>

08000a4a <BusFault_Handler>:

/**
  * @brief This function handles Pre-fetch fault, memory access fault.
  */
void BusFault_Handler(void)
{
 8000a4a:	b480      	push	{r7}
 8000a4c:	af00      	add	r7, sp, #0
  /* USER CODE BEGIN BusFault_IRQn 0 */

  /* USER CODE END BusFault_IRQn 0 */
  while (1)
 8000a4e:	e7fe      	b.n	8000a4e <BusFault_Handler+0x4>

08000a50 <UsageFault_Handler>:

/**
  * @brief This function handles Undefined instruction or illegal state.
  */
void UsageFault_Handler(void)
{
 8000a50:	b480      	push	{r7}
 8000a52:	af00      	add	r7, sp, #0
  /* USER CODE BEGIN UsageFault_IRQn 0 */

  /* USER CODE END UsageFault_IRQn 0 */
  while (1)
 8000a54:	e7fe      	b.n	8000a54 <UsageFault_Handler+0x4>

08000a56 <SVC_Handler>:

/**
  * @brief This function handles System service call via SWI instruction.
  */
void SVC_Handler(void)
{
 8000a56:	b480      	push	{r7}
 8000a58:	af00      	add	r7, sp, #0

  /* USER CODE END SVCall_IRQn 0 */
  /* USER CODE BEGIN SVCall_IRQn 1 */

  /* USER CODE END SVCall_IRQn 1 */
}
 8000a5a:	bf00      	nop
 8000a5c:	46bd      	mov	sp, r7
 8000a5e:	f85d 7b04 	ldr.w	r7, [sp], #4
 8000a62:	4770      	bx	lr

08000a64 <DebugMon_Handler>:

/**
  * @brief This function handles Debug monitor.
  */
void DebugMon_Handler(void)
{
 8000a64:	b480      	push	{r7}
 8000a66:	af00      	add	r7, sp, #0

  /* USER CODE END DebugMonitor_IRQn 0 */
  /* USER CODE BEGIN DebugMonitor_IRQn 1 */

  /* USER CODE END DebugMonitor_IRQn 1 */
}
 8000a68:	bf00      	nop
 8000a6a:	46bd      	mov	sp, r7
 8000a6c:	f85d 7b04 	ldr.w	r7, [sp], #4
 8000a70:	4770      	bx	lr

08000a72 <PendSV_Handler>:

/**
  * @brief This function handles Pendable request for system service.
  */
void PendSV_Handler(void)
{
 8000a72:	b480      	push	{r7}
 8000a74:	af00      	add	r7, sp, #0

  /* USER CODE END PendSV_IRQn 0 */
  /* USER CODE BEGIN PendSV_IRQn 1 */

  /* USER CODE END PendSV_IRQn 1 */
}
 8000a76:	bf00      	nop
 8000a78:	46bd      	mov	sp, r7
 8000a7a:	f85d 7b04 	ldr.w	r7, [sp], #4
 8000a7e:	4770      	bx	lr

08000a80 <SysTick_Handler>:

/**
  * @brief This function handles System tick timer.
  */
void SysTick_Handler(void)
{
 8000a80:	b580      	push	{r7, lr}
 8000a82:	af00      	add	r7, sp, #0
  /* USER CODE BEGIN SysTick_IRQn 0 */

  /* USER CODE END SysTick_IRQn 0 */
  HAL_IncTick();
 8000a84:	f000 f8ae 	bl	8000be4 <HAL_IncTick>
  /* USER CODE BEGIN SysTick_IRQn 1 */

  /* USER CODE END SysTick_IRQn 1 */
}
 8000a88:	bf00      	nop
 8000a8a:	bd80      	pop	{r7, pc}

08000a8c <TIM3_IRQHandler>:

/**
  * @brief This function handles TIM3 global interrupt.
  */
void TIM3_IRQHandler(void)
{
 8000a8c:	b580      	push	{r7, lr}
 8000a8e:	af00      	add	r7, sp, #0
  /* USER CODE BEGIN TIM3_IRQn 0 */

  /* USER CODE END TIM3_IRQn 0 */
  HAL_TIM_IRQHandler(&htim3);
 8000a90:	4802      	ldr	r0, [pc, #8]	; (8000a9c <TIM3_IRQHandler+0x10>)
 8000a92:	f001 f979 	bl	8001d88 <HAL_TIM_IRQHandler>
  /* USER CODE BEGIN TIM3_IRQn 1 */

  /* USER CODE END TIM3_IRQn 1 */
}
 8000a96:	bf00      	nop
 8000a98:	bd80      	pop	{r7, pc}
 8000a9a:	bf00      	nop
 8000a9c:	2000002c 	.word	0x2000002c

08000aa0 <USART3_IRQHandler>:

/**
  * @brief This function handles USART3 global interrupt.
  */
void USART3_IRQHandler(void)
{
 8000aa0:	b580      	push	{r7, lr}
 8000aa2:	af00      	add	r7, sp, #0
  /* USER CODE BEGIN USART3_IRQn 0 */

  /* USER CODE END USART3_IRQn 0 */
  HAL_UART_IRQHandler(&huart3);
 8000aa4:	4802      	ldr	r0, [pc, #8]	; (8000ab0 <USART3_IRQHandler+0x10>)
 8000aa6:	f001 fdf3 	bl	8002690 <HAL_UART_IRQHandler>
  /* USER CODE BEGIN USART3_IRQn 1 */

  /* USER CODE END USART3_IRQn 1 */
}
 8000aaa:	bf00      	nop
 8000aac:	bd80      	pop	{r7, pc}
 8000aae:	bf00      	nop
 8000ab0:	20000074 	.word	0x20000074

08000ab4 <USART6_IRQHandler>:

/**
  * @brief This function handles USART6 global interrupt.
  */
void USART6_IRQHandler(void)
{
 8000ab4:	b580      	push	{r7, lr}
 8000ab6:	af00      	add	r7, sp, #0
  /* USER CODE BEGIN USART6_IRQn 0 */

  /* USER CODE END USART6_IRQn 0 */
  HAL_UART_IRQHandler(&huart6);
 8000ab8:	4802      	ldr	r0, [pc, #8]	; (8000ac4 <USART6_IRQHandler+0x10>)
 8000aba:	f001 fde9 	bl	8002690 <HAL_UART_IRQHandler>
  /* USER CODE BEGIN USART6_IRQn 1 */

  /* USER CODE END USART6_IRQn 1 */
}
 8000abe:	bf00      	nop
 8000ac0:	bd80      	pop	{r7, pc}
 8000ac2:	bf00      	nop
 8000ac4:	200000b8 	.word	0x200000b8

08000ac8 <SystemInit>:
  *         configuration.
  * @param  None
  * @retval None
  */
void SystemInit(void)
{
 8000ac8:	b480      	push	{r7}
 8000aca:	af00      	add	r7, sp, #0
  /* FPU settings ------------------------------------------------------------*/
  #if (__FPU_PRESENT == 1) && (__FPU_USED == 1)
    SCB->CPACR |= ((3UL << 10*2)|(3UL << 11*2));  /* set CP10 and CP11 Full Access */
 8000acc:	4b06      	ldr	r3, [pc, #24]	; (8000ae8 <SystemInit+0x20>)
 8000ace:	f8d3 3088 	ldr.w	r3, [r3, #136]	; 0x88
 8000ad2:	4a05      	ldr	r2, [pc, #20]	; (8000ae8 <SystemInit+0x20>)
 8000ad4:	f443 0370 	orr.w	r3, r3, #15728640	; 0xf00000
 8000ad8:	f8c2 3088 	str.w	r3, [r2, #136]	; 0x88

  /* Configure the Vector Table location -------------------------------------*/
#if defined(USER_VECT_TAB_ADDRESS)
  SCB->VTOR = VECT_TAB_BASE_ADDRESS | VECT_TAB_OFFSET; /* Vector Table Relocation in Internal SRAM */
#endif /* USER_VECT_TAB_ADDRESS */
}
 8000adc:	bf00      	nop
 8000ade:	46bd      	mov	sp, r7
 8000ae0:	f85d 7b04 	ldr.w	r7, [sp], #4
 8000ae4:	4770      	bx	lr
 8000ae6:	bf00      	nop
 8000ae8:	e000ed00 	.word	0xe000ed00

08000aec <Reset_Handler>:

    .section  .text.Reset_Handler
  .weak  Reset_Handler
  .type  Reset_Handler, %function
Reset_Handler:  
  ldr   sp, =_estack     /* set stack pointer */
 8000aec:	f8df d034 	ldr.w	sp, [pc, #52]	; 8000b24 <LoopFillZerobss+0x12>

/* Copy the data segment initializers from flash to SRAM */  
  ldr r0, =_sdata
 8000af0:	480d      	ldr	r0, [pc, #52]	; (8000b28 <LoopFillZerobss+0x16>)
  ldr r1, =_edata
 8000af2:	490e      	ldr	r1, [pc, #56]	; (8000b2c <LoopFillZerobss+0x1a>)
  ldr r2, =_sidata
 8000af4:	4a0e      	ldr	r2, [pc, #56]	; (8000b30 <LoopFillZerobss+0x1e>)
  movs r3, #0
 8000af6:	2300      	movs	r3, #0
  b LoopCopyDataInit
 8000af8:	e002      	b.n	8000b00 <LoopCopyDataInit>

08000afa <CopyDataInit>:

CopyDataInit:
  ldr r4, [r2, r3]
 8000afa:	58d4      	ldr	r4, [r2, r3]
  str r4, [r0, r3]
 8000afc:	50c4      	str	r4, [r0, r3]
  adds r3, r3, #4
 8000afe:	3304      	adds	r3, #4

08000b00 <LoopCopyDataInit>:

LoopCopyDataInit:
  adds r4, r0, r3
 8000b00:	18c4      	adds	r4, r0, r3
  cmp r4, r1
 8000b02:	428c      	cmp	r4, r1
  bcc CopyDataInit
 8000b04:	d3f9      	bcc.n	8000afa <CopyDataInit>
  
/* Zero fill the bss segment. */
  ldr r2, =_sbss
 8000b06:	4a0b      	ldr	r2, [pc, #44]	; (8000b34 <LoopFillZerobss+0x22>)
  ldr r4, =_ebss
 8000b08:	4c0b      	ldr	r4, [pc, #44]	; (8000b38 <LoopFillZerobss+0x26>)
  movs r3, #0
 8000b0a:	2300      	movs	r3, #0
  b LoopFillZerobss
 8000b0c:	e001      	b.n	8000b12 <LoopFillZerobss>

08000b0e <FillZerobss>:

FillZerobss:
  str  r3, [r2]
 8000b0e:	6013      	str	r3, [r2, #0]
  adds r2, r2, #4
 8000b10:	3204      	adds	r2, #4

08000b12 <LoopFillZerobss>:

LoopFillZerobss:
  cmp r2, r4
 8000b12:	42a2      	cmp	r2, r4
  bcc FillZerobss
 8000b14:	d3fb      	bcc.n	8000b0e <FillZerobss>

/* Call the clock system initialization function.*/
  bl  SystemInit   
 8000b16:	f7ff ffd7 	bl	8000ac8 <SystemInit>
/* Call static constructors */
    bl __libc_init_array
 8000b1a:	f002 fcb3 	bl	8003484 <__libc_init_array>
/* Call the application's entry point.*/
  bl  main
 8000b1e:	f7ff fcd5 	bl	80004cc <main>
  bx  lr    
 8000b22:	4770      	bx	lr
  ldr   sp, =_estack     /* set stack pointer */
 8000b24:	20020000 	.word	0x20020000
  ldr r0, =_sdata
 8000b28:	20000000 	.word	0x20000000
  ldr r1, =_edata
 8000b2c:	20000010 	.word	0x20000010
  ldr r2, =_sidata
 8000b30:	0800351c 	.word	0x0800351c
  ldr r2, =_sbss
 8000b34:	20000010 	.word	0x20000010
  ldr r4, =_ebss
 8000b38:	20000104 	.word	0x20000104

08000b3c <ADC_IRQHandler>:
 * @retval None       
*/
    .section  .text.Default_Handler,"ax",%progbits
Default_Handler:
Infinite_Loop:
  b  Infinite_Loop
 8000b3c:	e7fe      	b.n	8000b3c <ADC_IRQHandler>
	...

08000b40 <HAL_Init>:
  *         need to ensure that the SysTick time base is always set to 1 millisecond
  *         to have correct HAL operation.
  * @retval HAL status
  */
HAL_StatusTypeDef HAL_Init(void)
{
 8000b40:	b580      	push	{r7, lr}
 8000b42:	af00      	add	r7, sp, #0
  /* Configure Flash prefetch, Instruction cache, Data cache */ 
#if (INSTRUCTION_CACHE_ENABLE != 0U)
  __HAL_FLASH_INSTRUCTION_CACHE_ENABLE();
 8000b44:	4b0e      	ldr	r3, [pc, #56]	; (8000b80 <HAL_Init+0x40>)
 8000b46:	681b      	ldr	r3, [r3, #0]
 8000b48:	4a0d      	ldr	r2, [pc, #52]	; (8000b80 <HAL_Init+0x40>)
 8000b4a:	f443 7300 	orr.w	r3, r3, #512	; 0x200
 8000b4e:	6013      	str	r3, [r2, #0]
#endif /* INSTRUCTION_CACHE_ENABLE */

#if (DATA_CACHE_ENABLE != 0U)
  __HAL_FLASH_DATA_CACHE_ENABLE();
 8000b50:	4b0b      	ldr	r3, [pc, #44]	; (8000b80 <HAL_Init+0x40>)
 8000b52:	681b      	ldr	r3, [r3, #0]
 8000b54:	4a0a      	ldr	r2, [pc, #40]	; (8000b80 <HAL_Init+0x40>)
 8000b56:	f443 6380 	orr.w	r3, r3, #1024	; 0x400
 8000b5a:	6013      	str	r3, [r2, #0]
#endif /* DATA_CACHE_ENABLE */

#if (PREFETCH_ENABLE != 0U)
  __HAL_FLASH_PREFETCH_BUFFER_ENABLE();
 8000b5c:	4b08      	ldr	r3, [pc, #32]	; (8000b80 <HAL_Init+0x40>)
 8000b5e:	681b      	ldr	r3, [r3, #0]
 8000b60:	4a07      	ldr	r2, [pc, #28]	; (8000b80 <HAL_Init+0x40>)
 8000b62:	f443 7380 	orr.w	r3, r3, #256	; 0x100
 8000b66:	6013      	str	r3, [r2, #0]
#endif /* PREFETCH_ENABLE */

  /* Set Interrupt Group Priority */
  HAL_NVIC_SetPriorityGrouping(NVIC_PRIORITYGROUP_4);
 8000b68:	2003      	movs	r0, #3
 8000b6a:	f000 f92b 	bl	8000dc4 <HAL_NVIC_SetPriorityGrouping>

  /* Use systick as time base source and configure 1ms tick (default clock after Reset is HSI) */
  HAL_InitTick(TICK_INT_PRIORITY);
 8000b6e:	2000      	movs	r0, #0
 8000b70:	f000 f808 	bl	8000b84 <HAL_InitTick>

  /* Init the low level hardware */
  HAL_MspInit();
 8000b74:	f7ff fe82 	bl	800087c <HAL_MspInit>

  /* Return function status */
  return HAL_OK;
 8000b78:	2300      	movs	r3, #0
}
 8000b7a:	4618      	mov	r0, r3
 8000b7c:	bd80      	pop	{r7, pc}
 8000b7e:	bf00      	nop
 8000b80:	40023c00 	.word	0x40023c00

08000b84 <HAL_InitTick>:
  *       implementation  in user file.
  * @param TickPriority Tick interrupt priority.
  * @retval HAL status
  */
__weak HAL_StatusTypeDef HAL_InitTick(uint32_t TickPriority)
{
 8000b84:	b580      	push	{r7, lr}
 8000b86:	b082      	sub	sp, #8
 8000b88:	af00      	add	r7, sp, #0
 8000b8a:	6078      	str	r0, [r7, #4]
  /* Configure the SysTick to have interrupt in 1ms time basis*/
  if (HAL_SYSTICK_Config(SystemCoreClock / (1000U / uwTickFreq)) > 0U)
 8000b8c:	4b12      	ldr	r3, [pc, #72]	; (8000bd8 <HAL_InitTick+0x54>)
 8000b8e:	681a      	ldr	r2, [r3, #0]
 8000b90:	4b12      	ldr	r3, [pc, #72]	; (8000bdc <HAL_InitTick+0x58>)
 8000b92:	781b      	ldrb	r3, [r3, #0]
 8000b94:	4619      	mov	r1, r3
 8000b96:	f44f 737a 	mov.w	r3, #1000	; 0x3e8
 8000b9a:	fbb3 f3f1 	udiv	r3, r3, r1
 8000b9e:	fbb2 f3f3 	udiv	r3, r2, r3
 8000ba2:	4618      	mov	r0, r3
 8000ba4:	f000 f943 	bl	8000e2e <HAL_SYSTICK_Config>
 8000ba8:	4603      	mov	r3, r0
 8000baa:	2b00      	cmp	r3, #0
 8000bac:	d001      	beq.n	8000bb2 <HAL_InitTick+0x2e>
  {
    return HAL_ERROR;
 8000bae:	2301      	movs	r3, #1
 8000bb0:	e00e      	b.n	8000bd0 <HAL_InitTick+0x4c>
  }

  /* Configure the SysTick IRQ priority */
  if (TickPriority < (1UL << __NVIC_PRIO_BITS))
 8000bb2:	687b      	ldr	r3, [r7, #4]
 8000bb4:	2b0f      	cmp	r3, #15
 8000bb6:	d80a      	bhi.n	8000bce <HAL_InitTick+0x4a>
  {
    HAL_NVIC_SetPriority(SysTick_IRQn, TickPriority, 0U);
 8000bb8:	2200      	movs	r2, #0
 8000bba:	6879      	ldr	r1, [r7, #4]
 8000bbc:	f04f 30ff 	mov.w	r0, #4294967295
 8000bc0:	f000 f90b 	bl	8000dda <HAL_NVIC_SetPriority>
    uwTickPrio = TickPriority;
 8000bc4:	4a06      	ldr	r2, [pc, #24]	; (8000be0 <HAL_InitTick+0x5c>)
 8000bc6:	687b      	ldr	r3, [r7, #4]
 8000bc8:	6013      	str	r3, [r2, #0]
  {
    return HAL_ERROR;
  }

  /* Return function status */
  return HAL_OK;
 8000bca:	2300      	movs	r3, #0
 8000bcc:	e000      	b.n	8000bd0 <HAL_InitTick+0x4c>
    return HAL_ERROR;
 8000bce:	2301      	movs	r3, #1
}
 8000bd0:	4618      	mov	r0, r3
 8000bd2:	3708      	adds	r7, #8
 8000bd4:	46bd      	mov	sp, r7
 8000bd6:	bd80      	pop	{r7, pc}
 8000bd8:	20000004 	.word	0x20000004
 8000bdc:	2000000c 	.word	0x2000000c
 8000be0:	20000008 	.word	0x20000008

08000be4 <HAL_IncTick>:
 * @note This function is declared as __weak to be overwritten in case of other 
  *      implementations in user file.
  * @retval None
  */
__weak void HAL_IncTick(void)
{
 8000be4:	b480      	push	{r7}
 8000be6:	af00      	add	r7, sp, #0
  uwTick += uwTickFreq;
 8000be8:	4b06      	ldr	r3, [pc, #24]	; (8000c04 <HAL_IncTick+0x20>)
 8000bea:	781b      	ldrb	r3, [r3, #0]
 8000bec:	461a      	mov	r2, r3
 8000bee:	4b06      	ldr	r3, [pc, #24]	; (8000c08 <HAL_IncTick+0x24>)
 8000bf0:	681b      	ldr	r3, [r3, #0]
 8000bf2:	4413      	add	r3, r2
 8000bf4:	4a04      	ldr	r2, [pc, #16]	; (8000c08 <HAL_IncTick+0x24>)
 8000bf6:	6013      	str	r3, [r2, #0]
}
 8000bf8:	bf00      	nop
 8000bfa:	46bd      	mov	sp, r7
 8000bfc:	f85d 7b04 	ldr.w	r7, [sp], #4
 8000c00:	4770      	bx	lr
 8000c02:	bf00      	nop
 8000c04:	2000000c 	.word	0x2000000c
 8000c08:	20000100 	.word	0x20000100

08000c0c <HAL_GetTick>:
  * @note This function is declared as __weak to be overwritten in case of other 
  *       implementations in user file.
  * @retval tick value
  */
__weak uint32_t HAL_GetTick(void)
{
 8000c0c:	b480      	push	{r7}
 8000c0e:	af00      	add	r7, sp, #0
  return uwTick;
 8000c10:	4b03      	ldr	r3, [pc, #12]	; (8000c20 <HAL_GetTick+0x14>)
 8000c12:	681b      	ldr	r3, [r3, #0]
}
 8000c14:	4618      	mov	r0, r3
 8000c16:	46bd      	mov	sp, r7
 8000c18:	f85d 7b04 	ldr.w	r7, [sp], #4
 8000c1c:	4770      	bx	lr
 8000c1e:	bf00      	nop
 8000c20:	20000100 	.word	0x20000100

08000c24 <__NVIC_SetPriorityGrouping>:
           In case of a conflict between priority grouping and available
           priority bits (__NVIC_PRIO_BITS), the smallest possible priority group is set.
  \param [in]      PriorityGroup  Priority grouping field.
 */
__STATIC_INLINE void __NVIC_SetPriorityGrouping(uint32_t PriorityGroup)
{
 8000c24:	b480      	push	{r7}
 8000c26:	b085      	sub	sp, #20
 8000c28:	af00      	add	r7, sp, #0
 8000c2a:	6078      	str	r0, [r7, #4]
  uint32_t reg_value;
  uint32_t PriorityGroupTmp = (PriorityGroup & (uint32_t)0x07UL);             /* only values 0..7 are used          */
 8000c2c:	687b      	ldr	r3, [r7, #4]
 8000c2e:	f003 0307 	and.w	r3, r3, #7
 8000c32:	60fb      	str	r3, [r7, #12]

  reg_value  =  SCB->AIRCR;                                                   /* read old register configuration    */
 8000c34:	4b0c      	ldr	r3, [pc, #48]	; (8000c68 <__NVIC_SetPriorityGrouping+0x44>)
 8000c36:	68db      	ldr	r3, [r3, #12]
 8000c38:	60bb      	str	r3, [r7, #8]
  reg_value &= ~((uint32_t)(SCB_AIRCR_VECTKEY_Msk | SCB_AIRCR_PRIGROUP_Msk)); /* clear bits to change               */
 8000c3a:	68ba      	ldr	r2, [r7, #8]
 8000c3c:	f64f 03ff 	movw	r3, #63743	; 0xf8ff
 8000c40:	4013      	ands	r3, r2
 8000c42:	60bb      	str	r3, [r7, #8]
  reg_value  =  (reg_value                                   |
                ((uint32_t)0x5FAUL << SCB_AIRCR_VECTKEY_Pos) |
                (PriorityGroupTmp << SCB_AIRCR_PRIGROUP_Pos)  );              /* Insert write key and priority group */
 8000c44:	68fb      	ldr	r3, [r7, #12]
 8000c46:	021a      	lsls	r2, r3, #8
                ((uint32_t)0x5FAUL << SCB_AIRCR_VECTKEY_Pos) |
 8000c48:	68bb      	ldr	r3, [r7, #8]
 8000c4a:	4313      	orrs	r3, r2
  reg_value  =  (reg_value                                   |
 8000c4c:	f043 63bf 	orr.w	r3, r3, #100139008	; 0x5f80000
 8000c50:	f443 3300 	orr.w	r3, r3, #131072	; 0x20000
 8000c54:	60bb      	str	r3, [r7, #8]
  SCB->AIRCR =  reg_value;
 8000c56:	4a04      	ldr	r2, [pc, #16]	; (8000c68 <__NVIC_SetPriorityGrouping+0x44>)
 8000c58:	68bb      	ldr	r3, [r7, #8]
 8000c5a:	60d3      	str	r3, [r2, #12]
}
 8000c5c:	bf00      	nop
 8000c5e:	3714      	adds	r7, #20
 8000c60:	46bd      	mov	sp, r7
 8000c62:	f85d 7b04 	ldr.w	r7, [sp], #4
 8000c66:	4770      	bx	lr
 8000c68:	e000ed00 	.word	0xe000ed00

08000c6c <__NVIC_GetPriorityGrouping>:
  \brief   Get Priority Grouping
  \details Reads the priority grouping field from the NVIC Interrupt Controller.
  \return                Priority grouping field (SCB->AIRCR [10:8] PRIGROUP field).
 */
__STATIC_INLINE uint32_t __NVIC_GetPriorityGrouping(void)
{
 8000c6c:	b480      	push	{r7}
 8000c6e:	af00      	add	r7, sp, #0
  return ((uint32_t)((SCB->AIRCR & SCB_AIRCR_PRIGROUP_Msk) >> SCB_AIRCR_PRIGROUP_Pos));
 8000c70:	4b04      	ldr	r3, [pc, #16]	; (8000c84 <__NVIC_GetPriorityGrouping+0x18>)
 8000c72:	68db      	ldr	r3, [r3, #12]
 8000c74:	0a1b      	lsrs	r3, r3, #8
 8000c76:	f003 0307 	and.w	r3, r3, #7
}
 8000c7a:	4618      	mov	r0, r3
 8000c7c:	46bd      	mov	sp, r7
 8000c7e:	f85d 7b04 	ldr.w	r7, [sp], #4
 8000c82:	4770      	bx	lr
 8000c84:	e000ed00 	.word	0xe000ed00

08000c88 <__NVIC_EnableIRQ>:
  \details Enables a device specific interrupt in the NVIC interrupt controller.
  \param [in]      IRQn  Device specific interrupt number.
  \note    IRQn must not be negative.
 */
__STATIC_INLINE void __NVIC_EnableIRQ(IRQn_Type IRQn)
{
 8000c88:	b480      	push	{r7}
 8000c8a:	b083      	sub	sp, #12
 8000c8c:	af00      	add	r7, sp, #0
 8000c8e:	4603      	mov	r3, r0
 8000c90:	71fb      	strb	r3, [r7, #7]
  if ((int32_t)(IRQn) >= 0)
 8000c92:	f997 3007 	ldrsb.w	r3, [r7, #7]
 8000c96:	2b00      	cmp	r3, #0
 8000c98:	db0b      	blt.n	8000cb2 <__NVIC_EnableIRQ+0x2a>
  {
    NVIC->ISER[(((uint32_t)IRQn) >> 5UL)] = (uint32_t)(1UL << (((uint32_t)IRQn) & 0x1FUL));
 8000c9a:	79fb      	ldrb	r3, [r7, #7]
 8000c9c:	f003 021f 	and.w	r2, r3, #31
 8000ca0:	4907      	ldr	r1, [pc, #28]	; (8000cc0 <__NVIC_EnableIRQ+0x38>)
 8000ca2:	f997 3007 	ldrsb.w	r3, [r7, #7]
 8000ca6:	095b      	lsrs	r3, r3, #5
 8000ca8:	2001      	movs	r0, #1
 8000caa:	fa00 f202 	lsl.w	r2, r0, r2
 8000cae:	f841 2023 	str.w	r2, [r1, r3, lsl #2]
  }
}
 8000cb2:	bf00      	nop
 8000cb4:	370c      	adds	r7, #12
 8000cb6:	46bd      	mov	sp, r7
 8000cb8:	f85d 7b04 	ldr.w	r7, [sp], #4
 8000cbc:	4770      	bx	lr
 8000cbe:	bf00      	nop
 8000cc0:	e000e100 	.word	0xe000e100

08000cc4 <__NVIC_SetPriority>:
  \param [in]      IRQn  Interrupt number.
  \param [in]  priority  Priority to set.
  \note    The priority cannot be set for every processor exception.
 */
__STATIC_INLINE void __NVIC_SetPriority(IRQn_Type IRQn, uint32_t priority)
{
 8000cc4:	b480      	push	{r7}
 8000cc6:	b083      	sub	sp, #12
 8000cc8:	af00      	add	r7, sp, #0
 8000cca:	4603      	mov	r3, r0
 8000ccc:	6039      	str	r1, [r7, #0]
 8000cce:	71fb      	strb	r3, [r7, #7]
  if ((int32_t)(IRQn) >= 0)
 8000cd0:	f997 3007 	ldrsb.w	r3, [r7, #7]
 8000cd4:	2b00      	cmp	r3, #0
 8000cd6:	db0a      	blt.n	8000cee <__NVIC_SetPriority+0x2a>
  {
    NVIC->IP[((uint32_t)IRQn)]               = (uint8_t)((priority << (8U - __NVIC_PRIO_BITS)) & (uint32_t)0xFFUL);
 8000cd8:	683b      	ldr	r3, [r7, #0]
 8000cda:	b2da      	uxtb	r2, r3
 8000cdc:	490c      	ldr	r1, [pc, #48]	; (8000d10 <__NVIC_SetPriority+0x4c>)
 8000cde:	f997 3007 	ldrsb.w	r3, [r7, #7]
 8000ce2:	0112      	lsls	r2, r2, #4
 8000ce4:	b2d2      	uxtb	r2, r2
 8000ce6:	440b      	add	r3, r1
 8000ce8:	f883 2300 	strb.w	r2, [r3, #768]	; 0x300
  }
  else
  {
    SCB->SHP[(((uint32_t)IRQn) & 0xFUL)-4UL] = (uint8_t)((priority << (8U - __NVIC_PRIO_BITS)) & (uint32_t)0xFFUL);
  }
}
 8000cec:	e00a      	b.n	8000d04 <__NVIC_SetPriority+0x40>
    SCB->SHP[(((uint32_t)IRQn) & 0xFUL)-4UL] = (uint8_t)((priority << (8U - __NVIC_PRIO_BITS)) & (uint32_t)0xFFUL);
 8000cee:	683b      	ldr	r3, [r7, #0]
 8000cf0:	b2da      	uxtb	r2, r3
 8000cf2:	4908      	ldr	r1, [pc, #32]	; (8000d14 <__NVIC_SetPriority+0x50>)
 8000cf4:	79fb      	ldrb	r3, [r7, #7]
 8000cf6:	f003 030f 	and.w	r3, r3, #15
 8000cfa:	3b04      	subs	r3, #4
 8000cfc:	0112      	lsls	r2, r2, #4
 8000cfe:	b2d2      	uxtb	r2, r2
 8000d00:	440b      	add	r3, r1
 8000d02:	761a      	strb	r2, [r3, #24]
}
 8000d04:	bf00      	nop
 8000d06:	370c      	adds	r7, #12
 8000d08:	46bd      	mov	sp, r7
 8000d0a:	f85d 7b04 	ldr.w	r7, [sp], #4
 8000d0e:	4770      	bx	lr
 8000d10:	e000e100 	.word	0xe000e100
 8000d14:	e000ed00 	.word	0xe000ed00

08000d18 <NVIC_EncodePriority>:
  \param [in]   PreemptPriority  Preemptive priority value (starting from 0).
  \param [in]       SubPriority  Subpriority value (starting from 0).
  \return                        Encoded priority. Value can be used in the function \ref NVIC_SetPriority().
 */
__STATIC_INLINE uint32_t NVIC_EncodePriority (uint32_t PriorityGroup, uint32_t PreemptPriority, uint32_t SubPriority)
{
 8000d18:	b480      	push	{r7}
 8000d1a:	b089      	sub	sp, #36	; 0x24
 8000d1c:	af00      	add	r7, sp, #0
 8000d1e:	60f8      	str	r0, [r7, #12]
 8000d20:	60b9      	str	r1, [r7, #8]
 8000d22:	607a      	str	r2, [r7, #4]
  uint32_t PriorityGroupTmp = (PriorityGroup & (uint32_t)0x07UL);   /* only values 0..7 are used          */
 8000d24:	68fb      	ldr	r3, [r7, #12]
 8000d26:	f003 0307 	and.w	r3, r3, #7
 8000d2a:	61fb      	str	r3, [r7, #28]
  uint32_t PreemptPriorityBits;
  uint32_t SubPriorityBits;

  PreemptPriorityBits = ((7UL - PriorityGroupTmp) > (uint32_t)(__NVIC_PRIO_BITS)) ? (uint32_t)(__NVIC_PRIO_BITS) : (uint32_t)(7UL - PriorityGroupTmp);
 8000d2c:	69fb      	ldr	r3, [r7, #28]
 8000d2e:	f1c3 0307 	rsb	r3, r3, #7
 8000d32:	2b04      	cmp	r3, #4
 8000d34:	bf28      	it	cs
 8000d36:	2304      	movcs	r3, #4
 8000d38:	61bb      	str	r3, [r7, #24]
  SubPriorityBits     = ((PriorityGroupTmp + (uint32_t)(__NVIC_PRIO_BITS)) < (uint32_t)7UL) ? (uint32_t)0UL : (uint32_t)((PriorityGroupTmp - 7UL) + (uint32_t)(__NVIC_PRIO_BITS));
 8000d3a:	69fb      	ldr	r3, [r7, #28]
 8000d3c:	3304      	adds	r3, #4
 8000d3e:	2b06      	cmp	r3, #6
 8000d40:	d902      	bls.n	8000d48 <NVIC_EncodePriority+0x30>
 8000d42:	69fb      	ldr	r3, [r7, #28]
 8000d44:	3b03      	subs	r3, #3
 8000d46:	e000      	b.n	8000d4a <NVIC_EncodePriority+0x32>
 8000d48:	2300      	movs	r3, #0
 8000d4a:	617b      	str	r3, [r7, #20]

  return (
           ((PreemptPriority & (uint32_t)((1UL << (PreemptPriorityBits)) - 1UL)) << SubPriorityBits) |
 8000d4c:	f04f 32ff 	mov.w	r2, #4294967295
 8000d50:	69bb      	ldr	r3, [r7, #24]
 8000d52:	fa02 f303 	lsl.w	r3, r2, r3
 8000d56:	43da      	mvns	r2, r3
 8000d58:	68bb      	ldr	r3, [r7, #8]
 8000d5a:	401a      	ands	r2, r3
 8000d5c:	697b      	ldr	r3, [r7, #20]
 8000d5e:	409a      	lsls	r2, r3
           ((SubPriority     & (uint32_t)((1UL << (SubPriorityBits    )) - 1UL)))
 8000d60:	f04f 31ff 	mov.w	r1, #4294967295
 8000d64:	697b      	ldr	r3, [r7, #20]
 8000d66:	fa01 f303 	lsl.w	r3, r1, r3
 8000d6a:	43d9      	mvns	r1, r3
 8000d6c:	687b      	ldr	r3, [r7, #4]
 8000d6e:	400b      	ands	r3, r1
           ((PreemptPriority & (uint32_t)((1UL << (PreemptPriorityBits)) - 1UL)) << SubPriorityBits) |
 8000d70:	4313      	orrs	r3, r2
         );
}
 8000d72:	4618      	mov	r0, r3
 8000d74:	3724      	adds	r7, #36	; 0x24
 8000d76:	46bd      	mov	sp, r7
 8000d78:	f85d 7b04 	ldr.w	r7, [sp], #4
 8000d7c:	4770      	bx	lr
	...

08000d80 <SysTick_Config>:
  \note    When the variable <b>__Vendor_SysTickConfig</b> is set to 1, then the
           function <b>SysTick_Config</b> is not included. In this case, the file <b><i>device</i>.h</b>
           must contain a vendor-specific implementation of this function.
 */
__STATIC_INLINE uint32_t SysTick_Config(uint32_t ticks)
{
 8000d80:	b580      	push	{r7, lr}
 8000d82:	b082      	sub	sp, #8
 8000d84:	af00      	add	r7, sp, #0
 8000d86:	6078      	str	r0, [r7, #4]
  if ((ticks - 1UL) > SysTick_LOAD_RELOAD_Msk)
 8000d88:	687b      	ldr	r3, [r7, #4]
 8000d8a:	3b01      	subs	r3, #1
 8000d8c:	f1b3 7f80 	cmp.w	r3, #16777216	; 0x1000000
 8000d90:	d301      	bcc.n	8000d96 <SysTick_Config+0x16>
  {
    return (1UL);                                                   /* Reload value impossible */
 8000d92:	2301      	movs	r3, #1
 8000d94:	e00f      	b.n	8000db6 <SysTick_Config+0x36>
  }

  SysTick->LOAD  = (uint32_t)(ticks - 1UL);                         /* set reload register */
 8000d96:	4a0a      	ldr	r2, [pc, #40]	; (8000dc0 <SysTick_Config+0x40>)
 8000d98:	687b      	ldr	r3, [r7, #4]
 8000d9a:	3b01      	subs	r3, #1
 8000d9c:	6053      	str	r3, [r2, #4]
  NVIC_SetPriority (SysTick_IRQn, (1UL << __NVIC_PRIO_BITS) - 1UL); /* set Priority for Systick Interrupt */
 8000d9e:	210f      	movs	r1, #15
 8000da0:	f04f 30ff 	mov.w	r0, #4294967295
 8000da4:	f7ff ff8e 	bl	8000cc4 <__NVIC_SetPriority>
  SysTick->VAL   = 0UL;                                             /* Load the SysTick Counter Value */
 8000da8:	4b05      	ldr	r3, [pc, #20]	; (8000dc0 <SysTick_Config+0x40>)
 8000daa:	2200      	movs	r2, #0
 8000dac:	609a      	str	r2, [r3, #8]
  SysTick->CTRL  = SysTick_CTRL_CLKSOURCE_Msk |
 8000dae:	4b04      	ldr	r3, [pc, #16]	; (8000dc0 <SysTick_Config+0x40>)
 8000db0:	2207      	movs	r2, #7
 8000db2:	601a      	str	r2, [r3, #0]
                   SysTick_CTRL_TICKINT_Msk   |
                   SysTick_CTRL_ENABLE_Msk;                         /* Enable SysTick IRQ and SysTick Timer */
  return (0UL);                                                     /* Function successful */
 8000db4:	2300      	movs	r3, #0
}
 8000db6:	4618      	mov	r0, r3
 8000db8:	3708      	adds	r7, #8
 8000dba:	46bd      	mov	sp, r7
 8000dbc:	bd80      	pop	{r7, pc}
 8000dbe:	bf00      	nop
 8000dc0:	e000e010 	.word	0xe000e010

08000dc4 <HAL_NVIC_SetPriorityGrouping>:
  * @note   When the NVIC_PriorityGroup_0 is selected, IRQ preemption is no more possible. 
  *         The pending IRQ priority will be managed only by the subpriority. 
  * @retval None
  */
void HAL_NVIC_SetPriorityGrouping(uint32_t PriorityGroup)
{
 8000dc4:	b580      	push	{r7, lr}
 8000dc6:	b082      	sub	sp, #8
 8000dc8:	af00      	add	r7, sp, #0
 8000dca:	6078      	str	r0, [r7, #4]
  /* Check the parameters */
  assert_param(IS_NVIC_PRIORITY_GROUP(PriorityGroup));
  
  /* Set the PRIGROUP[10:8] bits according to the PriorityGroup parameter value */
  NVIC_SetPriorityGrouping(PriorityGroup);
 8000dcc:	6878      	ldr	r0, [r7, #4]
 8000dce:	f7ff ff29 	bl	8000c24 <__NVIC_SetPriorityGrouping>
}
 8000dd2:	bf00      	nop
 8000dd4:	3708      	adds	r7, #8
 8000dd6:	46bd      	mov	sp, r7
 8000dd8:	bd80      	pop	{r7, pc}

08000dda <HAL_NVIC_SetPriority>:
  *         This parameter can be a value between 0 and 15
  *         A lower priority value indicates a higher priority.          
  * @retval None
  */
void HAL_NVIC_SetPriority(IRQn_Type IRQn, uint32_t PreemptPriority, uint32_t SubPriority)
{ 
 8000dda:	b580      	push	{r7, lr}
 8000ddc:	b086      	sub	sp, #24
 8000dde:	af00      	add	r7, sp, #0
 8000de0:	4603      	mov	r3, r0
 8000de2:	60b9      	str	r1, [r7, #8]
 8000de4:	607a      	str	r2, [r7, #4]
 8000de6:	73fb      	strb	r3, [r7, #15]
  uint32_t prioritygroup = 0x00U;
 8000de8:	2300      	movs	r3, #0
 8000dea:	617b      	str	r3, [r7, #20]
  
  /* Check the parameters */
  assert_param(IS_NVIC_SUB_PRIORITY(SubPriority));
  assert_param(IS_NVIC_PREEMPTION_PRIORITY(PreemptPriority));
  
  prioritygroup = NVIC_GetPriorityGrouping();
 8000dec:	f7ff ff3e 	bl	8000c6c <__NVIC_GetPriorityGrouping>
 8000df0:	6178      	str	r0, [r7, #20]
  
  NVIC_SetPriority(IRQn, NVIC_EncodePriority(prioritygroup, PreemptPriority, SubPriority));
 8000df2:	687a      	ldr	r2, [r7, #4]
 8000df4:	68b9      	ldr	r1, [r7, #8]
 8000df6:	6978      	ldr	r0, [r7, #20]
 8000df8:	f7ff ff8e 	bl	8000d18 <NVIC_EncodePriority>
 8000dfc:	4602      	mov	r2, r0
 8000dfe:	f997 300f 	ldrsb.w	r3, [r7, #15]
 8000e02:	4611      	mov	r1, r2
 8000e04:	4618      	mov	r0, r3
 8000e06:	f7ff ff5d 	bl	8000cc4 <__NVIC_SetPriority>
}
 8000e0a:	bf00      	nop
 8000e0c:	3718      	adds	r7, #24
 8000e0e:	46bd      	mov	sp, r7
 8000e10:	bd80      	pop	{r7, pc}

08000e12 <HAL_NVIC_EnableIRQ>:
  *         This parameter can be an enumerator of IRQn_Type enumeration
  *         (For the complete STM32 Devices IRQ Channels list, please refer to the appropriate CMSIS device file (stm32f4xxxx.h))
  * @retval None
  */
void HAL_NVIC_EnableIRQ(IRQn_Type IRQn)
{
 8000e12:	b580      	push	{r7, lr}
 8000e14:	b082      	sub	sp, #8
 8000e16:	af00      	add	r7, sp, #0
 8000e18:	4603      	mov	r3, r0
 8000e1a:	71fb      	strb	r3, [r7, #7]
  /* Check the parameters */
  assert_param(IS_NVIC_DEVICE_IRQ(IRQn));
  
  /* Enable interrupt */
  NVIC_EnableIRQ(IRQn);
 8000e1c:	f997 3007 	ldrsb.w	r3, [r7, #7]
 8000e20:	4618      	mov	r0, r3
 8000e22:	f7ff ff31 	bl	8000c88 <__NVIC_EnableIRQ>
}
 8000e26:	bf00      	nop
 8000e28:	3708      	adds	r7, #8
 8000e2a:	46bd      	mov	sp, r7
 8000e2c:	bd80      	pop	{r7, pc}

08000e2e <HAL_SYSTICK_Config>:
  * @param  TicksNumb Specifies the ticks Number of ticks between two interrupts.
  * @retval status:  - 0  Function succeeded.
  *                  - 1  Function failed.
  */
uint32_t HAL_SYSTICK_Config(uint32_t TicksNumb)
{
 8000e2e:	b580      	push	{r7, lr}
 8000e30:	b082      	sub	sp, #8
 8000e32:	af00      	add	r7, sp, #0
 8000e34:	6078      	str	r0, [r7, #4]
   return SysTick_Config(TicksNumb);
 8000e36:	6878      	ldr	r0, [r7, #4]
 8000e38:	f7ff ffa2 	bl	8000d80 <SysTick_Config>
 8000e3c:	4603      	mov	r3, r0
}
 8000e3e:	4618      	mov	r0, r3
 8000e40:	3708      	adds	r7, #8
 8000e42:	46bd      	mov	sp, r7
 8000e44:	bd80      	pop	{r7, pc}

08000e46 <HAL_DMA_Abort>:
  *        and the Stream will be effectively disabled only after the transfer of
  *        this single data is finished.  
  * @retval HAL status
  */
HAL_StatusTypeDef HAL_DMA_Abort(DMA_HandleTypeDef *hdma)
{
 8000e46:	b580      	push	{r7, lr}
 8000e48:	b084      	sub	sp, #16
 8000e4a:	af00      	add	r7, sp, #0
 8000e4c:	6078      	str	r0, [r7, #4]
  /* calculate DMA base and stream number */
  DMA_Base_Registers *regs = (DMA_Base_Registers *)hdma->StreamBaseAddress;
 8000e4e:	687b      	ldr	r3, [r7, #4]
 8000e50:	6d9b      	ldr	r3, [r3, #88]	; 0x58
 8000e52:	60fb      	str	r3, [r7, #12]
  
  uint32_t tickstart = HAL_GetTick();
 8000e54:	f7ff feda 	bl	8000c0c <HAL_GetTick>
 8000e58:	60b8      	str	r0, [r7, #8]
  
  if(hdma->State != HAL_DMA_STATE_BUSY)
 8000e5a:	687b      	ldr	r3, [r7, #4]
 8000e5c:	f893 3035 	ldrb.w	r3, [r3, #53]	; 0x35
 8000e60:	b2db      	uxtb	r3, r3
 8000e62:	2b02      	cmp	r3, #2
 8000e64:	d008      	beq.n	8000e78 <HAL_DMA_Abort+0x32>
  {
    hdma->ErrorCode = HAL_DMA_ERROR_NO_XFER;
 8000e66:	687b      	ldr	r3, [r7, #4]
 8000e68:	2280      	movs	r2, #128	; 0x80
 8000e6a:	655a      	str	r2, [r3, #84]	; 0x54
    
    /* Process Unlocked */
    __HAL_UNLOCK(hdma);
 8000e6c:	687b      	ldr	r3, [r7, #4]
 8000e6e:	2200      	movs	r2, #0
 8000e70:	f883 2034 	strb.w	r2, [r3, #52]	; 0x34
    
    return HAL_ERROR;
 8000e74:	2301      	movs	r3, #1
 8000e76:	e052      	b.n	8000f1e <HAL_DMA_Abort+0xd8>
  }
  else
  {
    /* Disable all the transfer interrupts */
    hdma->Instance->CR  &= ~(DMA_IT_TC | DMA_IT_TE | DMA_IT_DME);
 8000e78:	687b      	ldr	r3, [r7, #4]
 8000e7a:	681b      	ldr	r3, [r3, #0]
 8000e7c:	681a      	ldr	r2, [r3, #0]
 8000e7e:	687b      	ldr	r3, [r7, #4]
 8000e80:	681b      	ldr	r3, [r3, #0]
 8000e82:	f022 0216 	bic.w	r2, r2, #22
 8000e86:	601a      	str	r2, [r3, #0]
    hdma->Instance->FCR &= ~(DMA_IT_FE);
 8000e88:	687b      	ldr	r3, [r7, #4]
 8000e8a:	681b      	ldr	r3, [r3, #0]
 8000e8c:	695a      	ldr	r2, [r3, #20]
 8000e8e:	687b      	ldr	r3, [r7, #4]
 8000e90:	681b      	ldr	r3, [r3, #0]
 8000e92:	f022 0280 	bic.w	r2, r2, #128	; 0x80
 8000e96:	615a      	str	r2, [r3, #20]
    
    if((hdma->XferHalfCpltCallback != NULL) || (hdma->XferM1HalfCpltCallback != NULL))
 8000e98:	687b      	ldr	r3, [r7, #4]
 8000e9a:	6c1b      	ldr	r3, [r3, #64]	; 0x40
 8000e9c:	2b00      	cmp	r3, #0
 8000e9e:	d103      	bne.n	8000ea8 <HAL_DMA_Abort+0x62>
 8000ea0:	687b      	ldr	r3, [r7, #4]
 8000ea2:	6c9b      	ldr	r3, [r3, #72]	; 0x48
 8000ea4:	2b00      	cmp	r3, #0
 8000ea6:	d007      	beq.n	8000eb8 <HAL_DMA_Abort+0x72>
    {
      hdma->Instance->CR  &= ~(DMA_IT_HT);
 8000ea8:	687b      	ldr	r3, [r7, #4]
 8000eaa:	681b      	ldr	r3, [r3, #0]
 8000eac:	681a      	ldr	r2, [r3, #0]
 8000eae:	687b      	ldr	r3, [r7, #4]
 8000eb0:	681b      	ldr	r3, [r3, #0]
 8000eb2:	f022 0208 	bic.w	r2, r2, #8
 8000eb6:	601a      	str	r2, [r3, #0]
    }
    
    /* Disable the stream */
    __HAL_DMA_DISABLE(hdma);
 8000eb8:	687b      	ldr	r3, [r7, #4]
 8000eba:	681b      	ldr	r3, [r3, #0]
 8000ebc:	681a      	ldr	r2, [r3, #0]
 8000ebe:	687b      	ldr	r3, [r7, #4]
 8000ec0:	681b      	ldr	r3, [r3, #0]
 8000ec2:	f022 0201 	bic.w	r2, r2, #1
 8000ec6:	601a      	str	r2, [r3, #0]
    
    /* Check if the DMA Stream is effectively disabled */
    while((hdma->Instance->CR & DMA_SxCR_EN) != RESET)
 8000ec8:	e013      	b.n	8000ef2 <HAL_DMA_Abort+0xac>
    {
      /* Check for the Timeout */
      if((HAL_GetTick() - tickstart ) > HAL_TIMEOUT_DMA_ABORT)
 8000eca:	f7ff fe9f 	bl	8000c0c <HAL_GetTick>
 8000ece:	4602      	mov	r2, r0
 8000ed0:	68bb      	ldr	r3, [r7, #8]
 8000ed2:	1ad3      	subs	r3, r2, r3
 8000ed4:	2b05      	cmp	r3, #5
 8000ed6:	d90c      	bls.n	8000ef2 <HAL_DMA_Abort+0xac>
      {
        /* Update error code */
        hdma->ErrorCode = HAL_DMA_ERROR_TIMEOUT;
 8000ed8:	687b      	ldr	r3, [r7, #4]
 8000eda:	2220      	movs	r2, #32
 8000edc:	655a      	str	r2, [r3, #84]	; 0x54
        
        /* Change the DMA state */
        hdma->State = HAL_DMA_STATE_TIMEOUT;
 8000ede:	687b      	ldr	r3, [r7, #4]
 8000ee0:	2203      	movs	r2, #3
 8000ee2:	f883 2035 	strb.w	r2, [r3, #53]	; 0x35
        
        /* Process Unlocked */
        __HAL_UNLOCK(hdma);
 8000ee6:	687b      	ldr	r3, [r7, #4]
 8000ee8:	2200      	movs	r2, #0
 8000eea:	f883 2034 	strb.w	r2, [r3, #52]	; 0x34
        
        return HAL_TIMEOUT;
 8000eee:	2303      	movs	r3, #3
 8000ef0:	e015      	b.n	8000f1e <HAL_DMA_Abort+0xd8>
    while((hdma->Instance->CR & DMA_SxCR_EN) != RESET)
 8000ef2:	687b      	ldr	r3, [r7, #4]
 8000ef4:	681b      	ldr	r3, [r3, #0]
 8000ef6:	681b      	ldr	r3, [r3, #0]
 8000ef8:	f003 0301 	and.w	r3, r3, #1
 8000efc:	2b00      	cmp	r3, #0
 8000efe:	d1e4      	bne.n	8000eca <HAL_DMA_Abort+0x84>
      }
    }
    
    /* Clear all interrupt flags at correct offset within the register */
    regs->IFCR = 0x3FU << hdma->StreamIndex;
 8000f00:	687b      	ldr	r3, [r7, #4]
 8000f02:	6ddb      	ldr	r3, [r3, #92]	; 0x5c
 8000f04:	223f      	movs	r2, #63	; 0x3f
 8000f06:	409a      	lsls	r2, r3
 8000f08:	68fb      	ldr	r3, [r7, #12]
 8000f0a:	609a      	str	r2, [r3, #8]
    
    /* Change the DMA state*/
    hdma->State = HAL_DMA_STATE_READY;
 8000f0c:	687b      	ldr	r3, [r7, #4]
 8000f0e:	2201      	movs	r2, #1
 8000f10:	f883 2035 	strb.w	r2, [r3, #53]	; 0x35
    
    /* Process Unlocked */
    __HAL_UNLOCK(hdma);
 8000f14:	687b      	ldr	r3, [r7, #4]
 8000f16:	2200      	movs	r2, #0
 8000f18:	f883 2034 	strb.w	r2, [r3, #52]	; 0x34
  }
  return HAL_OK;
 8000f1c:	2300      	movs	r3, #0
}
 8000f1e:	4618      	mov	r0, r3
 8000f20:	3710      	adds	r7, #16
 8000f22:	46bd      	mov	sp, r7
 8000f24:	bd80      	pop	{r7, pc}

08000f26 <HAL_DMA_Abort_IT>:
  * @param  hdma   pointer to a DMA_HandleTypeDef structure that contains
  *                 the configuration information for the specified DMA Stream.
  * @retval HAL status
  */
HAL_StatusTypeDef HAL_DMA_Abort_IT(DMA_HandleTypeDef *hdma)
{
 8000f26:	b480      	push	{r7}
 8000f28:	b083      	sub	sp, #12
 8000f2a:	af00      	add	r7, sp, #0
 8000f2c:	6078      	str	r0, [r7, #4]
  if(hdma->State != HAL_DMA_STATE_BUSY)
 8000f2e:	687b      	ldr	r3, [r7, #4]
 8000f30:	f893 3035 	ldrb.w	r3, [r3, #53]	; 0x35
 8000f34:	b2db      	uxtb	r3, r3
 8000f36:	2b02      	cmp	r3, #2
 8000f38:	d004      	beq.n	8000f44 <HAL_DMA_Abort_IT+0x1e>
  {
    hdma->ErrorCode = HAL_DMA_ERROR_NO_XFER;
 8000f3a:	687b      	ldr	r3, [r7, #4]
 8000f3c:	2280      	movs	r2, #128	; 0x80
 8000f3e:	655a      	str	r2, [r3, #84]	; 0x54
    return HAL_ERROR;
 8000f40:	2301      	movs	r3, #1
 8000f42:	e00c      	b.n	8000f5e <HAL_DMA_Abort_IT+0x38>
  }
  else
  {
    /* Set Abort State  */
    hdma->State = HAL_DMA_STATE_ABORT;
 8000f44:	687b      	ldr	r3, [r7, #4]
 8000f46:	2205      	movs	r2, #5
 8000f48:	f883 2035 	strb.w	r2, [r3, #53]	; 0x35
    
    /* Disable the stream */
    __HAL_DMA_DISABLE(hdma);
 8000f4c:	687b      	ldr	r3, [r7, #4]
 8000f4e:	681b      	ldr	r3, [r3, #0]
 8000f50:	681a      	ldr	r2, [r3, #0]
 8000f52:	687b      	ldr	r3, [r7, #4]
 8000f54:	681b      	ldr	r3, [r3, #0]
 8000f56:	f022 0201 	bic.w	r2, r2, #1
 8000f5a:	601a      	str	r2, [r3, #0]
  }

  return HAL_OK;
 8000f5c:	2300      	movs	r3, #0
}
 8000f5e:	4618      	mov	r0, r3
 8000f60:	370c      	adds	r7, #12
 8000f62:	46bd      	mov	sp, r7
 8000f64:	f85d 7b04 	ldr.w	r7, [sp], #4
 8000f68:	4770      	bx	lr
	...

08000f6c <HAL_GPIO_Init>:
  * @param  GPIO_Init pointer to a GPIO_InitTypeDef structure that contains
  *         the configuration information for the specified GPIO peripheral.
  * @retval None
  */
void HAL_GPIO_Init(GPIO_TypeDef  *GPIOx, GPIO_InitTypeDef *GPIO_Init)
{
 8000f6c:	b480      	push	{r7}
 8000f6e:	b089      	sub	sp, #36	; 0x24
 8000f70:	af00      	add	r7, sp, #0
 8000f72:	6078      	str	r0, [r7, #4]
 8000f74:	6039      	str	r1, [r7, #0]
  uint32_t position;
  uint32_t ioposition = 0x00U;
 8000f76:	2300      	movs	r3, #0
 8000f78:	617b      	str	r3, [r7, #20]
  uint32_t iocurrent = 0x00U;
 8000f7a:	2300      	movs	r3, #0
 8000f7c:	613b      	str	r3, [r7, #16]
  uint32_t temp = 0x00U;
 8000f7e:	2300      	movs	r3, #0
 8000f80:	61bb      	str	r3, [r7, #24]
  assert_param(IS_GPIO_ALL_INSTANCE(GPIOx));
  assert_param(IS_GPIO_PIN(GPIO_Init->Pin));
  assert_param(IS_GPIO_MODE(GPIO_Init->Mode));

  /* Configure the port pins */
  for(position = 0U; position < GPIO_NUMBER; position++)
 8000f82:	2300      	movs	r3, #0
 8000f84:	61fb      	str	r3, [r7, #28]
 8000f86:	e16b      	b.n	8001260 <HAL_GPIO_Init+0x2f4>
  {
    /* Get the IO position */
    ioposition = 0x01U << position;
 8000f88:	2201      	movs	r2, #1
 8000f8a:	69fb      	ldr	r3, [r7, #28]
 8000f8c:	fa02 f303 	lsl.w	r3, r2, r3
 8000f90:	617b      	str	r3, [r7, #20]
    /* Get the current IO position */
    iocurrent = (uint32_t)(GPIO_Init->Pin) & ioposition;
 8000f92:	683b      	ldr	r3, [r7, #0]
 8000f94:	681b      	ldr	r3, [r3, #0]
 8000f96:	697a      	ldr	r2, [r7, #20]
 8000f98:	4013      	ands	r3, r2
 8000f9a:	613b      	str	r3, [r7, #16]

    if(iocurrent == ioposition)
 8000f9c:	693a      	ldr	r2, [r7, #16]
 8000f9e:	697b      	ldr	r3, [r7, #20]
 8000fa0:	429a      	cmp	r2, r3
 8000fa2:	f040 815a 	bne.w	800125a <HAL_GPIO_Init+0x2ee>
    {
      /*--------------------- GPIO Mode Configuration ------------------------*/
      /* In case of Output or Alternate function mode selection */
      if(((GPIO_Init->Mode & GPIO_MODE) == MODE_OUTPUT) || \
 8000fa6:	683b      	ldr	r3, [r7, #0]
 8000fa8:	685b      	ldr	r3, [r3, #4]
 8000faa:	f003 0303 	and.w	r3, r3, #3
 8000fae:	2b01      	cmp	r3, #1
 8000fb0:	d005      	beq.n	8000fbe <HAL_GPIO_Init+0x52>
          (GPIO_Init->Mode & GPIO_MODE) == MODE_AF)
 8000fb2:	683b      	ldr	r3, [r7, #0]
 8000fb4:	685b      	ldr	r3, [r3, #4]
 8000fb6:	f003 0303 	and.w	r3, r3, #3
      if(((GPIO_Init->Mode & GPIO_MODE) == MODE_OUTPUT) || \
 8000fba:	2b02      	cmp	r3, #2
 8000fbc:	d130      	bne.n	8001020 <HAL_GPIO_Init+0xb4>
      {
        /* Check the Speed parameter */
        assert_param(IS_GPIO_SPEED(GPIO_Init->Speed));
        /* Configure the IO Speed */
        temp = GPIOx->OSPEEDR; 
 8000fbe:	687b      	ldr	r3, [r7, #4]
 8000fc0:	689b      	ldr	r3, [r3, #8]
 8000fc2:	61bb      	str	r3, [r7, #24]
        temp &= ~(GPIO_OSPEEDER_OSPEEDR0 << (position * 2U));
 8000fc4:	69fb      	ldr	r3, [r7, #28]
 8000fc6:	005b      	lsls	r3, r3, #1
 8000fc8:	2203      	movs	r2, #3
 8000fca:	fa02 f303 	lsl.w	r3, r2, r3
 8000fce:	43db      	mvns	r3, r3
 8000fd0:	69ba      	ldr	r2, [r7, #24]
 8000fd2:	4013      	ands	r3, r2
 8000fd4:	61bb      	str	r3, [r7, #24]
        temp |= (GPIO_Init->Speed << (position * 2U));
 8000fd6:	683b      	ldr	r3, [r7, #0]
 8000fd8:	68da      	ldr	r2, [r3, #12]
 8000fda:	69fb      	ldr	r3, [r7, #28]
 8000fdc:	005b      	lsls	r3, r3, #1
 8000fde:	fa02 f303 	lsl.w	r3, r2, r3
 8000fe2:	69ba      	ldr	r2, [r7, #24]
 8000fe4:	4313      	orrs	r3, r2
 8000fe6:	61bb      	str	r3, [r7, #24]
        GPIOx->OSPEEDR = temp;
 8000fe8:	687b      	ldr	r3, [r7, #4]
 8000fea:	69ba      	ldr	r2, [r7, #24]
 8000fec:	609a      	str	r2, [r3, #8]

        /* Configure the IO Output Type */
        temp = GPIOx->OTYPER;
 8000fee:	687b      	ldr	r3, [r7, #4]
 8000ff0:	685b      	ldr	r3, [r3, #4]
 8000ff2:	61bb      	str	r3, [r7, #24]
        temp &= ~(GPIO_OTYPER_OT_0 << position) ;
 8000ff4:	2201      	movs	r2, #1
 8000ff6:	69fb      	ldr	r3, [r7, #28]
 8000ff8:	fa02 f303 	lsl.w	r3, r2, r3
 8000ffc:	43db      	mvns	r3, r3
 8000ffe:	69ba      	ldr	r2, [r7, #24]
 8001000:	4013      	ands	r3, r2
 8001002:	61bb      	str	r3, [r7, #24]
        temp |= (((GPIO_Init->Mode & OUTPUT_TYPE) >> OUTPUT_TYPE_Pos) << position);
 8001004:	683b      	ldr	r3, [r7, #0]
 8001006:	685b      	ldr	r3, [r3, #4]
 8001008:	091b      	lsrs	r3, r3, #4
 800100a:	f003 0201 	and.w	r2, r3, #1
 800100e:	69fb      	ldr	r3, [r7, #28]
 8001010:	fa02 f303 	lsl.w	r3, r2, r3
 8001014:	69ba      	ldr	r2, [r7, #24]
 8001016:	4313      	orrs	r3, r2
 8001018:	61bb      	str	r3, [r7, #24]
        GPIOx->OTYPER = temp;
 800101a:	687b      	ldr	r3, [r7, #4]
 800101c:	69ba      	ldr	r2, [r7, #24]
 800101e:	605a      	str	r2, [r3, #4]
       }

      if((GPIO_Init->Mode & GPIO_MODE) != MODE_ANALOG)
 8001020:	683b      	ldr	r3, [r7, #0]
 8001022:	685b      	ldr	r3, [r3, #4]
 8001024:	f003 0303 	and.w	r3, r3, #3
 8001028:	2b03      	cmp	r3, #3
 800102a:	d017      	beq.n	800105c <HAL_GPIO_Init+0xf0>
      {
        /* Check the parameters */
        assert_param(IS_GPIO_PULL(GPIO_Init->Pull));
        
        /* Activate the Pull-up or Pull down resistor for the current IO */
        temp = GPIOx->PUPDR;
 800102c:	687b      	ldr	r3, [r7, #4]
 800102e:	68db      	ldr	r3, [r3, #12]
 8001030:	61bb      	str	r3, [r7, #24]
        temp &= ~(GPIO_PUPDR_PUPDR0 << (position * 2U));
 8001032:	69fb      	ldr	r3, [r7, #28]
 8001034:	005b      	lsls	r3, r3, #1
 8001036:	2203      	movs	r2, #3
 8001038:	fa02 f303 	lsl.w	r3, r2, r3
 800103c:	43db      	mvns	r3, r3
 800103e:	69ba      	ldr	r2, [r7, #24]
 8001040:	4013      	ands	r3, r2
 8001042:	61bb      	str	r3, [r7, #24]
        temp |= ((GPIO_Init->Pull) << (position * 2U));
 8001044:	683b      	ldr	r3, [r7, #0]
 8001046:	689a      	ldr	r2, [r3, #8]
 8001048:	69fb      	ldr	r3, [r7, #28]
 800104a:	005b      	lsls	r3, r3, #1
 800104c:	fa02 f303 	lsl.w	r3, r2, r3
 8001050:	69ba      	ldr	r2, [r7, #24]
 8001052:	4313      	orrs	r3, r2
 8001054:	61bb      	str	r3, [r7, #24]
        GPIOx->PUPDR = temp;
 8001056:	687b      	ldr	r3, [r7, #4]
 8001058:	69ba      	ldr	r2, [r7, #24]
 800105a:	60da      	str	r2, [r3, #12]
      }

      /* In case of Alternate function mode selection */
      if((GPIO_Init->Mode & GPIO_MODE) == MODE_AF)
 800105c:	683b      	ldr	r3, [r7, #0]
 800105e:	685b      	ldr	r3, [r3, #4]
 8001060:	f003 0303 	and.w	r3, r3, #3
 8001064:	2b02      	cmp	r3, #2
 8001066:	d123      	bne.n	80010b0 <HAL_GPIO_Init+0x144>
      {
        /* Check the Alternate function parameter */
        assert_param(IS_GPIO_AF(GPIO_Init->Alternate));
        /* Configure Alternate function mapped with the current IO */
        temp = GPIOx->AFR[position >> 3U];
 8001068:	69fb      	ldr	r3, [r7, #28]
 800106a:	08da      	lsrs	r2, r3, #3
 800106c:	687b      	ldr	r3, [r7, #4]
 800106e:	3208      	adds	r2, #8
 8001070:	f853 3022 	ldr.w	r3, [r3, r2, lsl #2]
 8001074:	61bb      	str	r3, [r7, #24]
        temp &= ~(0xFU << ((uint32_t)(position & 0x07U) * 4U)) ;
 8001076:	69fb      	ldr	r3, [r7, #28]
 8001078:	f003 0307 	and.w	r3, r3, #7
 800107c:	009b      	lsls	r3, r3, #2
 800107e:	220f      	movs	r2, #15
 8001080:	fa02 f303 	lsl.w	r3, r2, r3
 8001084:	43db      	mvns	r3, r3
 8001086:	69ba      	ldr	r2, [r7, #24]
 8001088:	4013      	ands	r3, r2
 800108a:	61bb      	str	r3, [r7, #24]
        temp |= ((uint32_t)(GPIO_Init->Alternate) << (((uint32_t)position & 0x07U) * 4U));
 800108c:	683b      	ldr	r3, [r7, #0]
 800108e:	691a      	ldr	r2, [r3, #16]
 8001090:	69fb      	ldr	r3, [r7, #28]
 8001092:	f003 0307 	and.w	r3, r3, #7
 8001096:	009b      	lsls	r3, r3, #2
 8001098:	fa02 f303 	lsl.w	r3, r2, r3
 800109c:	69ba      	ldr	r2, [r7, #24]
 800109e:	4313      	orrs	r3, r2
 80010a0:	61bb      	str	r3, [r7, #24]
        GPIOx->AFR[position >> 3U] = temp;
 80010a2:	69fb      	ldr	r3, [r7, #28]
 80010a4:	08da      	lsrs	r2, r3, #3
 80010a6:	687b      	ldr	r3, [r7, #4]
 80010a8:	3208      	adds	r2, #8
 80010aa:	69b9      	ldr	r1, [r7, #24]
 80010ac:	f843 1022 	str.w	r1, [r3, r2, lsl #2]
      }

      /* Configure IO Direction mode (Input, Output, Alternate or Analog) */
      temp = GPIOx->MODER;
 80010b0:	687b      	ldr	r3, [r7, #4]
 80010b2:	681b      	ldr	r3, [r3, #0]
 80010b4:	61bb      	str	r3, [r7, #24]
      temp &= ~(GPIO_MODER_MODER0 << (position * 2U));
 80010b6:	69fb      	ldr	r3, [r7, #28]
 80010b8:	005b      	lsls	r3, r3, #1
 80010ba:	2203      	movs	r2, #3
 80010bc:	fa02 f303 	lsl.w	r3, r2, r3
 80010c0:	43db      	mvns	r3, r3
 80010c2:	69ba      	ldr	r2, [r7, #24]
 80010c4:	4013      	ands	r3, r2
 80010c6:	61bb      	str	r3, [r7, #24]
      temp |= ((GPIO_Init->Mode & GPIO_MODE) << (position * 2U));
 80010c8:	683b      	ldr	r3, [r7, #0]
 80010ca:	685b      	ldr	r3, [r3, #4]
 80010cc:	f003 0203 	and.w	r2, r3, #3
 80010d0:	69fb      	ldr	r3, [r7, #28]
 80010d2:	005b      	lsls	r3, r3, #1
 80010d4:	fa02 f303 	lsl.w	r3, r2, r3
 80010d8:	69ba      	ldr	r2, [r7, #24]
 80010da:	4313      	orrs	r3, r2
 80010dc:	61bb      	str	r3, [r7, #24]
      GPIOx->MODER = temp;
 80010de:	687b      	ldr	r3, [r7, #4]
 80010e0:	69ba      	ldr	r2, [r7, #24]
 80010e2:	601a      	str	r2, [r3, #0]

      /*--------------------- EXTI Mode Configuration ------------------------*/
      /* Configure the External Interrupt or event for the current IO */
      if((GPIO_Init->Mode & EXTI_MODE) != 0x00U)
 80010e4:	683b      	ldr	r3, [r7, #0]
 80010e6:	685b      	ldr	r3, [r3, #4]
 80010e8:	f403 3340 	and.w	r3, r3, #196608	; 0x30000
 80010ec:	2b00      	cmp	r3, #0
 80010ee:	f000 80b4 	beq.w	800125a <HAL_GPIO_Init+0x2ee>
      {
        /* Enable SYSCFG Clock */
        __HAL_RCC_SYSCFG_CLK_ENABLE();
 80010f2:	2300      	movs	r3, #0
 80010f4:	60fb      	str	r3, [r7, #12]
 80010f6:	4b60      	ldr	r3, [pc, #384]	; (8001278 <HAL_GPIO_Init+0x30c>)
 80010f8:	6c5b      	ldr	r3, [r3, #68]	; 0x44
 80010fa:	4a5f      	ldr	r2, [pc, #380]	; (8001278 <HAL_GPIO_Init+0x30c>)
 80010fc:	f443 4380 	orr.w	r3, r3, #16384	; 0x4000
 8001100:	6453      	str	r3, [r2, #68]	; 0x44
 8001102:	4b5d      	ldr	r3, [pc, #372]	; (8001278 <HAL_GPIO_Init+0x30c>)
 8001104:	6c5b      	ldr	r3, [r3, #68]	; 0x44
 8001106:	f403 4380 	and.w	r3, r3, #16384	; 0x4000
 800110a:	60fb      	str	r3, [r7, #12]
 800110c:	68fb      	ldr	r3, [r7, #12]

        temp = SYSCFG->EXTICR[position >> 2U];
 800110e:	4a5b      	ldr	r2, [pc, #364]	; (800127c <HAL_GPIO_Init+0x310>)
 8001110:	69fb      	ldr	r3, [r7, #28]
 8001112:	089b      	lsrs	r3, r3, #2
 8001114:	3302      	adds	r3, #2
 8001116:	f852 3023 	ldr.w	r3, [r2, r3, lsl #2]
 800111a:	61bb      	str	r3, [r7, #24]
        temp &= ~(0x0FU << (4U * (position & 0x03U)));
 800111c:	69fb      	ldr	r3, [r7, #28]
 800111e:	f003 0303 	and.w	r3, r3, #3
 8001122:	009b      	lsls	r3, r3, #2
 8001124:	220f      	movs	r2, #15
 8001126:	fa02 f303 	lsl.w	r3, r2, r3
 800112a:	43db      	mvns	r3, r3
 800112c:	69ba      	ldr	r2, [r7, #24]
 800112e:	4013      	ands	r3, r2
 8001130:	61bb      	str	r3, [r7, #24]
        temp |= ((uint32_t)(GPIO_GET_INDEX(GPIOx)) << (4U * (position & 0x03U)));
 8001132:	687b      	ldr	r3, [r7, #4]
 8001134:	4a52      	ldr	r2, [pc, #328]	; (8001280 <HAL_GPIO_Init+0x314>)
 8001136:	4293      	cmp	r3, r2
 8001138:	d02b      	beq.n	8001192 <HAL_GPIO_Init+0x226>
 800113a:	687b      	ldr	r3, [r7, #4]
 800113c:	4a51      	ldr	r2, [pc, #324]	; (8001284 <HAL_GPIO_Init+0x318>)
 800113e:	4293      	cmp	r3, r2
 8001140:	d025      	beq.n	800118e <HAL_GPIO_Init+0x222>
 8001142:	687b      	ldr	r3, [r7, #4]
 8001144:	4a50      	ldr	r2, [pc, #320]	; (8001288 <HAL_GPIO_Init+0x31c>)
 8001146:	4293      	cmp	r3, r2
 8001148:	d01f      	beq.n	800118a <HAL_GPIO_Init+0x21e>
 800114a:	687b      	ldr	r3, [r7, #4]
 800114c:	4a4f      	ldr	r2, [pc, #316]	; (800128c <HAL_GPIO_Init+0x320>)
 800114e:	4293      	cmp	r3, r2
 8001150:	d019      	beq.n	8001186 <HAL_GPIO_Init+0x21a>
 8001152:	687b      	ldr	r3, [r7, #4]
 8001154:	4a4e      	ldr	r2, [pc, #312]	; (8001290 <HAL_GPIO_Init+0x324>)
 8001156:	4293      	cmp	r3, r2
 8001158:	d013      	beq.n	8001182 <HAL_GPIO_Init+0x216>
 800115a:	687b      	ldr	r3, [r7, #4]
 800115c:	4a4d      	ldr	r2, [pc, #308]	; (8001294 <HAL_GPIO_Init+0x328>)
 800115e:	4293      	cmp	r3, r2
 8001160:	d00d      	beq.n	800117e <HAL_GPIO_Init+0x212>
 8001162:	687b      	ldr	r3, [r7, #4]
 8001164:	4a4c      	ldr	r2, [pc, #304]	; (8001298 <HAL_GPIO_Init+0x32c>)
 8001166:	4293      	cmp	r3, r2
 8001168:	d007      	beq.n	800117a <HAL_GPIO_Init+0x20e>
 800116a:	687b      	ldr	r3, [r7, #4]
 800116c:	4a4b      	ldr	r2, [pc, #300]	; (800129c <HAL_GPIO_Init+0x330>)
 800116e:	4293      	cmp	r3, r2
 8001170:	d101      	bne.n	8001176 <HAL_GPIO_Init+0x20a>
 8001172:	2307      	movs	r3, #7
 8001174:	e00e      	b.n	8001194 <HAL_GPIO_Init+0x228>
 8001176:	2308      	movs	r3, #8
 8001178:	e00c      	b.n	8001194 <HAL_GPIO_Init+0x228>
 800117a:	2306      	movs	r3, #6
 800117c:	e00a      	b.n	8001194 <HAL_GPIO_Init+0x228>
 800117e:	2305      	movs	r3, #5
 8001180:	e008      	b.n	8001194 <HAL_GPIO_Init+0x228>
 8001182:	2304      	movs	r3, #4
 8001184:	e006      	b.n	8001194 <HAL_GPIO_Init+0x228>
 8001186:	2303      	movs	r3, #3
 8001188:	e004      	b.n	8001194 <HAL_GPIO_Init+0x228>
 800118a:	2302      	movs	r3, #2
 800118c:	e002      	b.n	8001194 <HAL_GPIO_Init+0x228>
 800118e:	2301      	movs	r3, #1
 8001190:	e000      	b.n	8001194 <HAL_GPIO_Init+0x228>
 8001192:	2300      	movs	r3, #0
 8001194:	69fa      	ldr	r2, [r7, #28]
 8001196:	f002 0203 	and.w	r2, r2, #3
 800119a:	0092      	lsls	r2, r2, #2
 800119c:	4093      	lsls	r3, r2
 800119e:	69ba      	ldr	r2, [r7, #24]
 80011a0:	4313      	orrs	r3, r2
 80011a2:	61bb      	str	r3, [r7, #24]
        SYSCFG->EXTICR[position >> 2U] = temp;
 80011a4:	4935      	ldr	r1, [pc, #212]	; (800127c <HAL_GPIO_Init+0x310>)
 80011a6:	69fb      	ldr	r3, [r7, #28]
 80011a8:	089b      	lsrs	r3, r3, #2
 80011aa:	3302      	adds	r3, #2
 80011ac:	69ba      	ldr	r2, [r7, #24]
 80011ae:	f841 2023 	str.w	r2, [r1, r3, lsl #2]

        /* Clear Rising Falling edge configuration */
        temp = EXTI->RTSR;
 80011b2:	4b3b      	ldr	r3, [pc, #236]	; (80012a0 <HAL_GPIO_Init+0x334>)
 80011b4:	689b      	ldr	r3, [r3, #8]
 80011b6:	61bb      	str	r3, [r7, #24]
        temp &= ~((uint32_t)iocurrent);
 80011b8:	693b      	ldr	r3, [r7, #16]
 80011ba:	43db      	mvns	r3, r3
 80011bc:	69ba      	ldr	r2, [r7, #24]
 80011be:	4013      	ands	r3, r2
 80011c0:	61bb      	str	r3, [r7, #24]
        if((GPIO_Init->Mode & TRIGGER_RISING) != 0x00U)
 80011c2:	683b      	ldr	r3, [r7, #0]
 80011c4:	685b      	ldr	r3, [r3, #4]
 80011c6:	f403 1380 	and.w	r3, r3, #1048576	; 0x100000
 80011ca:	2b00      	cmp	r3, #0
 80011cc:	d003      	beq.n	80011d6 <HAL_GPIO_Init+0x26a>
        {
          temp |= iocurrent;
 80011ce:	69ba      	ldr	r2, [r7, #24]
 80011d0:	693b      	ldr	r3, [r7, #16]
 80011d2:	4313      	orrs	r3, r2
 80011d4:	61bb      	str	r3, [r7, #24]
        }
        EXTI->RTSR = temp;
 80011d6:	4a32      	ldr	r2, [pc, #200]	; (80012a0 <HAL_GPIO_Init+0x334>)
 80011d8:	69bb      	ldr	r3, [r7, #24]
 80011da:	6093      	str	r3, [r2, #8]

        temp = EXTI->FTSR;
 80011dc:	4b30      	ldr	r3, [pc, #192]	; (80012a0 <HAL_GPIO_Init+0x334>)
 80011de:	68db      	ldr	r3, [r3, #12]
 80011e0:	61bb      	str	r3, [r7, #24]
        temp &= ~((uint32_t)iocurrent);
 80011e2:	693b      	ldr	r3, [r7, #16]
 80011e4:	43db      	mvns	r3, r3
 80011e6:	69ba      	ldr	r2, [r7, #24]
 80011e8:	4013      	ands	r3, r2
 80011ea:	61bb      	str	r3, [r7, #24]
        if((GPIO_Init->Mode & TRIGGER_FALLING) != 0x00U)
 80011ec:	683b      	ldr	r3, [r7, #0]
 80011ee:	685b      	ldr	r3, [r3, #4]
 80011f0:	f403 1300 	and.w	r3, r3, #2097152	; 0x200000
 80011f4:	2b00      	cmp	r3, #0
 80011f6:	d003      	beq.n	8001200 <HAL_GPIO_Init+0x294>
        {
          temp |= iocurrent;
 80011f8:	69ba      	ldr	r2, [r7, #24]
 80011fa:	693b      	ldr	r3, [r7, #16]
 80011fc:	4313      	orrs	r3, r2
 80011fe:	61bb      	str	r3, [r7, #24]
        }
        EXTI->FTSR = temp;
 8001200:	4a27      	ldr	r2, [pc, #156]	; (80012a0 <HAL_GPIO_Init+0x334>)
 8001202:	69bb      	ldr	r3, [r7, #24]
 8001204:	60d3      	str	r3, [r2, #12]

        temp = EXTI->EMR;
 8001206:	4b26      	ldr	r3, [pc, #152]	; (80012a0 <HAL_GPIO_Init+0x334>)
 8001208:	685b      	ldr	r3, [r3, #4]
 800120a:	61bb      	str	r3, [r7, #24]
        temp &= ~((uint32_t)iocurrent);
 800120c:	693b      	ldr	r3, [r7, #16]
 800120e:	43db      	mvns	r3, r3
 8001210:	69ba      	ldr	r2, [r7, #24]
 8001212:	4013      	ands	r3, r2
 8001214:	61bb      	str	r3, [r7, #24]
        if((GPIO_Init->Mode & EXTI_EVT) != 0x00U)
 8001216:	683b      	ldr	r3, [r7, #0]
 8001218:	685b      	ldr	r3, [r3, #4]
 800121a:	f403 3300 	and.w	r3, r3, #131072	; 0x20000
 800121e:	2b00      	cmp	r3, #0
 8001220:	d003      	beq.n	800122a <HAL_GPIO_Init+0x2be>
        {
          temp |= iocurrent;
 8001222:	69ba      	ldr	r2, [r7, #24]
 8001224:	693b      	ldr	r3, [r7, #16]
 8001226:	4313      	orrs	r3, r2
 8001228:	61bb      	str	r3, [r7, #24]
        }
        EXTI->EMR = temp;
 800122a:	4a1d      	ldr	r2, [pc, #116]	; (80012a0 <HAL_GPIO_Init+0x334>)
 800122c:	69bb      	ldr	r3, [r7, #24]
 800122e:	6053      	str	r3, [r2, #4]

        /* Clear EXTI line configuration */
        temp = EXTI->IMR;
 8001230:	4b1b      	ldr	r3, [pc, #108]	; (80012a0 <HAL_GPIO_Init+0x334>)
 8001232:	681b      	ldr	r3, [r3, #0]
 8001234:	61bb      	str	r3, [r7, #24]
        temp &= ~((uint32_t)iocurrent);
 8001236:	693b      	ldr	r3, [r7, #16]
 8001238:	43db      	mvns	r3, r3
 800123a:	69ba      	ldr	r2, [r7, #24]
 800123c:	4013      	ands	r3, r2
 800123e:	61bb      	str	r3, [r7, #24]
        if((GPIO_Init->Mode & EXTI_IT) != 0x00U)
 8001240:	683b      	ldr	r3, [r7, #0]
 8001242:	685b      	ldr	r3, [r3, #4]
 8001244:	f403 3380 	and.w	r3, r3, #65536	; 0x10000
 8001248:	2b00      	cmp	r3, #0
 800124a:	d003      	beq.n	8001254 <HAL_GPIO_Init+0x2e8>
        {
          temp |= iocurrent;
 800124c:	69ba      	ldr	r2, [r7, #24]
 800124e:	693b      	ldr	r3, [r7, #16]
 8001250:	4313      	orrs	r3, r2
 8001252:	61bb      	str	r3, [r7, #24]
        }
        EXTI->IMR = temp;
 8001254:	4a12      	ldr	r2, [pc, #72]	; (80012a0 <HAL_GPIO_Init+0x334>)
 8001256:	69bb      	ldr	r3, [r7, #24]
 8001258:	6013      	str	r3, [r2, #0]
  for(position = 0U; position < GPIO_NUMBER; position++)
 800125a:	69fb      	ldr	r3, [r7, #28]
 800125c:	3301      	adds	r3, #1
 800125e:	61fb      	str	r3, [r7, #28]
 8001260:	69fb      	ldr	r3, [r7, #28]
 8001262:	2b0f      	cmp	r3, #15
 8001264:	f67f ae90 	bls.w	8000f88 <HAL_GPIO_Init+0x1c>
      }
    }
  }
}
 8001268:	bf00      	nop
 800126a:	bf00      	nop
 800126c:	3724      	adds	r7, #36	; 0x24
 800126e:	46bd      	mov	sp, r7
 8001270:	f85d 7b04 	ldr.w	r7, [sp], #4
 8001274:	4770      	bx	lr
 8001276:	bf00      	nop
 8001278:	40023800 	.word	0x40023800
 800127c:	40013800 	.word	0x40013800
 8001280:	40020000 	.word	0x40020000
 8001284:	40020400 	.word	0x40020400
 8001288:	40020800 	.word	0x40020800
 800128c:	40020c00 	.word	0x40020c00
 8001290:	40021000 	.word	0x40021000
 8001294:	40021400 	.word	0x40021400
 8001298:	40021800 	.word	0x40021800
 800129c:	40021c00 	.word	0x40021c00
 80012a0:	40013c00 	.word	0x40013c00

080012a4 <HAL_GPIO_WritePin>:
  *            @arg GPIO_PIN_RESET: to clear the port pin
  *            @arg GPIO_PIN_SET: to set the port pin
  * @retval None
  */
void HAL_GPIO_WritePin(GPIO_TypeDef* GPIOx, uint16_t GPIO_Pin, GPIO_PinState PinState)
{
 80012a4:	b480      	push	{r7}
 80012a6:	b083      	sub	sp, #12
 80012a8:	af00      	add	r7, sp, #0
 80012aa:	6078      	str	r0, [r7, #4]
 80012ac:	460b      	mov	r3, r1
 80012ae:	807b      	strh	r3, [r7, #2]
 80012b0:	4613      	mov	r3, r2
 80012b2:	707b      	strb	r3, [r7, #1]
  /* Check the parameters */
  assert_param(IS_GPIO_PIN(GPIO_Pin));
  assert_param(IS_GPIO_PIN_ACTION(PinState));

  if(PinState != GPIO_PIN_RESET)
 80012b4:	787b      	ldrb	r3, [r7, #1]
 80012b6:	2b00      	cmp	r3, #0
 80012b8:	d003      	beq.n	80012c2 <HAL_GPIO_WritePin+0x1e>
  {
    GPIOx->BSRR = GPIO_Pin;
 80012ba:	887a      	ldrh	r2, [r7, #2]
 80012bc:	687b      	ldr	r3, [r7, #4]
 80012be:	619a      	str	r2, [r3, #24]
  }
  else
  {
    GPIOx->BSRR = (uint32_t)GPIO_Pin << 16U;
  }
}
 80012c0:	e003      	b.n	80012ca <HAL_GPIO_WritePin+0x26>
    GPIOx->BSRR = (uint32_t)GPIO_Pin << 16U;
 80012c2:	887b      	ldrh	r3, [r7, #2]
 80012c4:	041a      	lsls	r2, r3, #16
 80012c6:	687b      	ldr	r3, [r7, #4]
 80012c8:	619a      	str	r2, [r3, #24]
}
 80012ca:	bf00      	nop
 80012cc:	370c      	adds	r7, #12
 80012ce:	46bd      	mov	sp, r7
 80012d0:	f85d 7b04 	ldr.w	r7, [sp], #4
 80012d4:	4770      	bx	lr
	...

080012d8 <HAL_RCC_OscConfig>:
  *         supported by this API. User should request a transition to HSE Off
  *         first and then HSE On or HSE Bypass.
  * @retval HAL status
  */
__weak HAL_StatusTypeDef HAL_RCC_OscConfig(RCC_OscInitTypeDef  *RCC_OscInitStruct)
{
 80012d8:	b580      	push	{r7, lr}
 80012da:	b086      	sub	sp, #24
 80012dc:	af00      	add	r7, sp, #0
 80012de:	6078      	str	r0, [r7, #4]
  uint32_t tickstart, pll_config;

  /* Check Null pointer */
  if(RCC_OscInitStruct == NULL)
 80012e0:	687b      	ldr	r3, [r7, #4]
 80012e2:	2b00      	cmp	r3, #0
 80012e4:	d101      	bne.n	80012ea <HAL_RCC_OscConfig+0x12>
  {
    return HAL_ERROR;
 80012e6:	2301      	movs	r3, #1
 80012e8:	e267      	b.n	80017ba <HAL_RCC_OscConfig+0x4e2>
  }

  /* Check the parameters */
  assert_param(IS_RCC_OSCILLATORTYPE(RCC_OscInitStruct->OscillatorType));
  /*------------------------------- HSE Configuration ------------------------*/
  if(((RCC_OscInitStruct->OscillatorType) & RCC_OSCILLATORTYPE_HSE) == RCC_OSCILLATORTYPE_HSE)
 80012ea:	687b      	ldr	r3, [r7, #4]
 80012ec:	681b      	ldr	r3, [r3, #0]
 80012ee:	f003 0301 	and.w	r3, r3, #1
 80012f2:	2b00      	cmp	r3, #0
 80012f4:	d075      	beq.n	80013e2 <HAL_RCC_OscConfig+0x10a>
  {
    /* Check the parameters */
    assert_param(IS_RCC_HSE(RCC_OscInitStruct->HSEState));
    /* When the HSE is used as system clock or clock source for PLL in these cases HSE will not disabled */
    if((__HAL_RCC_GET_SYSCLK_SOURCE() == RCC_CFGR_SWS_HSE) ||\
 80012f6:	4b88      	ldr	r3, [pc, #544]	; (8001518 <HAL_RCC_OscConfig+0x240>)
 80012f8:	689b      	ldr	r3, [r3, #8]
 80012fa:	f003 030c 	and.w	r3, r3, #12
 80012fe:	2b04      	cmp	r3, #4
 8001300:	d00c      	beq.n	800131c <HAL_RCC_OscConfig+0x44>
      ((__HAL_RCC_GET_SYSCLK_SOURCE() == RCC_CFGR_SWS_PLL) && ((RCC->PLLCFGR & RCC_PLLCFGR_PLLSRC) == RCC_PLLCFGR_PLLSRC_HSE)))
 8001302:	4b85      	ldr	r3, [pc, #532]	; (8001518 <HAL_RCC_OscConfig+0x240>)
 8001304:	689b      	ldr	r3, [r3, #8]
 8001306:	f003 030c 	and.w	r3, r3, #12
    if((__HAL_RCC_GET_SYSCLK_SOURCE() == RCC_CFGR_SWS_HSE) ||\
 800130a:	2b08      	cmp	r3, #8
 800130c:	d112      	bne.n	8001334 <HAL_RCC_OscConfig+0x5c>
      ((__HAL_RCC_GET_SYSCLK_SOURCE() == RCC_CFGR_SWS_PLL) && ((RCC->PLLCFGR & RCC_PLLCFGR_PLLSRC) == RCC_PLLCFGR_PLLSRC_HSE)))
 800130e:	4b82      	ldr	r3, [pc, #520]	; (8001518 <HAL_RCC_OscConfig+0x240>)
 8001310:	685b      	ldr	r3, [r3, #4]
 8001312:	f403 0380 	and.w	r3, r3, #4194304	; 0x400000
 8001316:	f5b3 0f80 	cmp.w	r3, #4194304	; 0x400000
 800131a:	d10b      	bne.n	8001334 <HAL_RCC_OscConfig+0x5c>
    {
      if((__HAL_RCC_GET_FLAG(RCC_FLAG_HSERDY) != RESET) && (RCC_OscInitStruct->HSEState == RCC_HSE_OFF))
 800131c:	4b7e      	ldr	r3, [pc, #504]	; (8001518 <HAL_RCC_OscConfig+0x240>)
 800131e:	681b      	ldr	r3, [r3, #0]
 8001320:	f403 3300 	and.w	r3, r3, #131072	; 0x20000
 8001324:	2b00      	cmp	r3, #0
 8001326:	d05b      	beq.n	80013e0 <HAL_RCC_OscConfig+0x108>
 8001328:	687b      	ldr	r3, [r7, #4]
 800132a:	685b      	ldr	r3, [r3, #4]
 800132c:	2b00      	cmp	r3, #0
 800132e:	d157      	bne.n	80013e0 <HAL_RCC_OscConfig+0x108>
      {
        return HAL_ERROR;
 8001330:	2301      	movs	r3, #1
 8001332:	e242      	b.n	80017ba <HAL_RCC_OscConfig+0x4e2>
      }
    }
    else
    {
      /* Set the new HSE configuration ---------------------------------------*/
      __HAL_RCC_HSE_CONFIG(RCC_OscInitStruct->HSEState);
 8001334:	687b      	ldr	r3, [r7, #4]
 8001336:	685b      	ldr	r3, [r3, #4]
 8001338:	f5b3 3f80 	cmp.w	r3, #65536	; 0x10000
 800133c:	d106      	bne.n	800134c <HAL_RCC_OscConfig+0x74>
 800133e:	4b76      	ldr	r3, [pc, #472]	; (8001518 <HAL_RCC_OscConfig+0x240>)
 8001340:	681b      	ldr	r3, [r3, #0]
 8001342:	4a75      	ldr	r2, [pc, #468]	; (8001518 <HAL_RCC_OscConfig+0x240>)
 8001344:	f443 3380 	orr.w	r3, r3, #65536	; 0x10000
 8001348:	6013      	str	r3, [r2, #0]
 800134a:	e01d      	b.n	8001388 <HAL_RCC_OscConfig+0xb0>
 800134c:	687b      	ldr	r3, [r7, #4]
 800134e:	685b      	ldr	r3, [r3, #4]
 8001350:	f5b3 2fa0 	cmp.w	r3, #327680	; 0x50000
 8001354:	d10c      	bne.n	8001370 <HAL_RCC_OscConfig+0x98>
 8001356:	4b70      	ldr	r3, [pc, #448]	; (8001518 <HAL_RCC_OscConfig+0x240>)
 8001358:	681b      	ldr	r3, [r3, #0]
 800135a:	4a6f      	ldr	r2, [pc, #444]	; (8001518 <HAL_RCC_OscConfig+0x240>)
 800135c:	f443 2380 	orr.w	r3, r3, #262144	; 0x40000
 8001360:	6013      	str	r3, [r2, #0]
 8001362:	4b6d      	ldr	r3, [pc, #436]	; (8001518 <HAL_RCC_OscConfig+0x240>)
 8001364:	681b      	ldr	r3, [r3, #0]
 8001366:	4a6c      	ldr	r2, [pc, #432]	; (8001518 <HAL_RCC_OscConfig+0x240>)
 8001368:	f443 3380 	orr.w	r3, r3, #65536	; 0x10000
 800136c:	6013      	str	r3, [r2, #0]
 800136e:	e00b      	b.n	8001388 <HAL_RCC_OscConfig+0xb0>
 8001370:	4b69      	ldr	r3, [pc, #420]	; (8001518 <HAL_RCC_OscConfig+0x240>)
 8001372:	681b      	ldr	r3, [r3, #0]
 8001374:	4a68      	ldr	r2, [pc, #416]	; (8001518 <HAL_RCC_OscConfig+0x240>)
 8001376:	f423 3380 	bic.w	r3, r3, #65536	; 0x10000
 800137a:	6013      	str	r3, [r2, #0]
 800137c:	4b66      	ldr	r3, [pc, #408]	; (8001518 <HAL_RCC_OscConfig+0x240>)
 800137e:	681b      	ldr	r3, [r3, #0]
 8001380:	4a65      	ldr	r2, [pc, #404]	; (8001518 <HAL_RCC_OscConfig+0x240>)
 8001382:	f423 2380 	bic.w	r3, r3, #262144	; 0x40000
 8001386:	6013      	str	r3, [r2, #0]

      /* Check the HSE State */
      if((RCC_OscInitStruct->HSEState) != RCC_HSE_OFF)
 8001388:	687b      	ldr	r3, [r7, #4]
 800138a:	685b      	ldr	r3, [r3, #4]
 800138c:	2b00      	cmp	r3, #0
 800138e:	d013      	beq.n	80013b8 <HAL_RCC_OscConfig+0xe0>
      {
        /* Get Start Tick */
        tickstart = HAL_GetTick();
 8001390:	f7ff fc3c 	bl	8000c0c <HAL_GetTick>
 8001394:	6138      	str	r0, [r7, #16]

        /* Wait till HSE is ready */
        while(__HAL_RCC_GET_FLAG(RCC_FLAG_HSERDY) == RESET)
 8001396:	e008      	b.n	80013aa <HAL_RCC_OscConfig+0xd2>
        {
          if((HAL_GetTick() - tickstart ) > HSE_TIMEOUT_VALUE)
 8001398:	f7ff fc38 	bl	8000c0c <HAL_GetTick>
 800139c:	4602      	mov	r2, r0
 800139e:	693b      	ldr	r3, [r7, #16]
 80013a0:	1ad3      	subs	r3, r2, r3
 80013a2:	2b64      	cmp	r3, #100	; 0x64
 80013a4:	d901      	bls.n	80013aa <HAL_RCC_OscConfig+0xd2>
          {
            return HAL_TIMEOUT;
 80013a6:	2303      	movs	r3, #3
 80013a8:	e207      	b.n	80017ba <HAL_RCC_OscConfig+0x4e2>
        while(__HAL_RCC_GET_FLAG(RCC_FLAG_HSERDY) == RESET)
 80013aa:	4b5b      	ldr	r3, [pc, #364]	; (8001518 <HAL_RCC_OscConfig+0x240>)
 80013ac:	681b      	ldr	r3, [r3, #0]
 80013ae:	f403 3300 	and.w	r3, r3, #131072	; 0x20000
 80013b2:	2b00      	cmp	r3, #0
 80013b4:	d0f0      	beq.n	8001398 <HAL_RCC_OscConfig+0xc0>
 80013b6:	e014      	b.n	80013e2 <HAL_RCC_OscConfig+0x10a>
        }
      }
      else
      {
        /* Get Start Tick */
        tickstart = HAL_GetTick();
 80013b8:	f7ff fc28 	bl	8000c0c <HAL_GetTick>
 80013bc:	6138      	str	r0, [r7, #16]

        /* Wait till HSE is bypassed or disabled */
        while(__HAL_RCC_GET_FLAG(RCC_FLAG_HSERDY) != RESET)
 80013be:	e008      	b.n	80013d2 <HAL_RCC_OscConfig+0xfa>
        {
          if((HAL_GetTick() - tickstart ) > HSE_TIMEOUT_VALUE)
 80013c0:	f7ff fc24 	bl	8000c0c <HAL_GetTick>
 80013c4:	4602      	mov	r2, r0
 80013c6:	693b      	ldr	r3, [r7, #16]
 80013c8:	1ad3      	subs	r3, r2, r3
 80013ca:	2b64      	cmp	r3, #100	; 0x64
 80013cc:	d901      	bls.n	80013d2 <HAL_RCC_OscConfig+0xfa>
          {
            return HAL_TIMEOUT;
 80013ce:	2303      	movs	r3, #3
 80013d0:	e1f3      	b.n	80017ba <HAL_RCC_OscConfig+0x4e2>
        while(__HAL_RCC_GET_FLAG(RCC_FLAG_HSERDY) != RESET)
 80013d2:	4b51      	ldr	r3, [pc, #324]	; (8001518 <HAL_RCC_OscConfig+0x240>)
 80013d4:	681b      	ldr	r3, [r3, #0]
 80013d6:	f403 3300 	and.w	r3, r3, #131072	; 0x20000
 80013da:	2b00      	cmp	r3, #0
 80013dc:	d1f0      	bne.n	80013c0 <HAL_RCC_OscConfig+0xe8>
 80013de:	e000      	b.n	80013e2 <HAL_RCC_OscConfig+0x10a>
      if((__HAL_RCC_GET_FLAG(RCC_FLAG_HSERDY) != RESET) && (RCC_OscInitStruct->HSEState == RCC_HSE_OFF))
 80013e0:	bf00      	nop
        }
      }
    }
  }
  /*----------------------------- HSI Configuration --------------------------*/
  if(((RCC_OscInitStruct->OscillatorType) & RCC_OSCILLATORTYPE_HSI) == RCC_OSCILLATORTYPE_HSI)
 80013e2:	687b      	ldr	r3, [r7, #4]
 80013e4:	681b      	ldr	r3, [r3, #0]
 80013e6:	f003 0302 	and.w	r3, r3, #2
 80013ea:	2b00      	cmp	r3, #0
 80013ec:	d063      	beq.n	80014b6 <HAL_RCC_OscConfig+0x1de>
    /* Check the parameters */
    assert_param(IS_RCC_HSI(RCC_OscInitStruct->HSIState));
    assert_param(IS_RCC_CALIBRATION_VALUE(RCC_OscInitStruct->HSICalibrationValue));

    /* Check if HSI is used as system clock or as PLL source when PLL is selected as system clock */
    if((__HAL_RCC_GET_SYSCLK_SOURCE() == RCC_CFGR_SWS_HSI) ||\
 80013ee:	4b4a      	ldr	r3, [pc, #296]	; (8001518 <HAL_RCC_OscConfig+0x240>)
 80013f0:	689b      	ldr	r3, [r3, #8]
 80013f2:	f003 030c 	and.w	r3, r3, #12
 80013f6:	2b00      	cmp	r3, #0
 80013f8:	d00b      	beq.n	8001412 <HAL_RCC_OscConfig+0x13a>
      ((__HAL_RCC_GET_SYSCLK_SOURCE() == RCC_CFGR_SWS_PLL) && ((RCC->PLLCFGR & RCC_PLLCFGR_PLLSRC) == RCC_PLLCFGR_PLLSRC_HSI)))
 80013fa:	4b47      	ldr	r3, [pc, #284]	; (8001518 <HAL_RCC_OscConfig+0x240>)
 80013fc:	689b      	ldr	r3, [r3, #8]
 80013fe:	f003 030c 	and.w	r3, r3, #12
    if((__HAL_RCC_GET_SYSCLK_SOURCE() == RCC_CFGR_SWS_HSI) ||\
 8001402:	2b08      	cmp	r3, #8
 8001404:	d11c      	bne.n	8001440 <HAL_RCC_OscConfig+0x168>
      ((__HAL_RCC_GET_SYSCLK_SOURCE() == RCC_CFGR_SWS_PLL) && ((RCC->PLLCFGR & RCC_PLLCFGR_PLLSRC) == RCC_PLLCFGR_PLLSRC_HSI)))
 8001406:	4b44      	ldr	r3, [pc, #272]	; (8001518 <HAL_RCC_OscConfig+0x240>)
 8001408:	685b      	ldr	r3, [r3, #4]
 800140a:	f403 0380 	and.w	r3, r3, #4194304	; 0x400000
 800140e:	2b00      	cmp	r3, #0
 8001410:	d116      	bne.n	8001440 <HAL_RCC_OscConfig+0x168>
    {
      /* When HSI is used as system clock it will not disabled */
      if((__HAL_RCC_GET_FLAG(RCC_FLAG_HSIRDY) != RESET) && (RCC_OscInitStruct->HSIState != RCC_HSI_ON))
 8001412:	4b41      	ldr	r3, [pc, #260]	; (8001518 <HAL_RCC_OscConfig+0x240>)
 8001414:	681b      	ldr	r3, [r3, #0]
 8001416:	f003 0302 	and.w	r3, r3, #2
 800141a:	2b00      	cmp	r3, #0
 800141c:	d005      	beq.n	800142a <HAL_RCC_OscConfig+0x152>
 800141e:	687b      	ldr	r3, [r7, #4]
 8001420:	68db      	ldr	r3, [r3, #12]
 8001422:	2b01      	cmp	r3, #1
 8001424:	d001      	beq.n	800142a <HAL_RCC_OscConfig+0x152>
      {
        return HAL_ERROR;
 8001426:	2301      	movs	r3, #1
 8001428:	e1c7      	b.n	80017ba <HAL_RCC_OscConfig+0x4e2>
      }
      /* Otherwise, just the calibration is allowed */
      else
      {
        /* Adjusts the Internal High Speed oscillator (HSI) calibration value.*/
        __HAL_RCC_HSI_CALIBRATIONVALUE_ADJUST(RCC_OscInitStruct->HSICalibrationValue);
 800142a:	4b3b      	ldr	r3, [pc, #236]	; (8001518 <HAL_RCC_OscConfig+0x240>)
 800142c:	681b      	ldr	r3, [r3, #0]
 800142e:	f023 02f8 	bic.w	r2, r3, #248	; 0xf8
 8001432:	687b      	ldr	r3, [r7, #4]
 8001434:	691b      	ldr	r3, [r3, #16]
 8001436:	00db      	lsls	r3, r3, #3
 8001438:	4937      	ldr	r1, [pc, #220]	; (8001518 <HAL_RCC_OscConfig+0x240>)
 800143a:	4313      	orrs	r3, r2
 800143c:	600b      	str	r3, [r1, #0]
      if((__HAL_RCC_GET_FLAG(RCC_FLAG_HSIRDY) != RESET) && (RCC_OscInitStruct->HSIState != RCC_HSI_ON))
 800143e:	e03a      	b.n	80014b6 <HAL_RCC_OscConfig+0x1de>
      }
    }
    else
    {
      /* Check the HSI State */
      if((RCC_OscInitStruct->HSIState)!= RCC_HSI_OFF)
 8001440:	687b      	ldr	r3, [r7, #4]
 8001442:	68db      	ldr	r3, [r3, #12]
 8001444:	2b00      	cmp	r3, #0
 8001446:	d020      	beq.n	800148a <HAL_RCC_OscConfig+0x1b2>
      {
        /* Enable the Internal High Speed oscillator (HSI). */
        __HAL_RCC_HSI_ENABLE();
 8001448:	4b34      	ldr	r3, [pc, #208]	; (800151c <HAL_RCC_OscConfig+0x244>)
 800144a:	2201      	movs	r2, #1
 800144c:	601a      	str	r2, [r3, #0]

        /* Get Start Tick*/
        tickstart = HAL_GetTick();
 800144e:	f7ff fbdd 	bl	8000c0c <HAL_GetTick>
 8001452:	6138      	str	r0, [r7, #16]

        /* Wait till HSI is ready */
        while(__HAL_RCC_GET_FLAG(RCC_FLAG_HSIRDY) == RESET)
 8001454:	e008      	b.n	8001468 <HAL_RCC_OscConfig+0x190>
        {
          if((HAL_GetTick() - tickstart ) > HSI_TIMEOUT_VALUE)
 8001456:	f7ff fbd9 	bl	8000c0c <HAL_GetTick>
 800145a:	4602      	mov	r2, r0
 800145c:	693b      	ldr	r3, [r7, #16]
 800145e:	1ad3      	subs	r3, r2, r3
 8001460:	2b02      	cmp	r3, #2
 8001462:	d901      	bls.n	8001468 <HAL_RCC_OscConfig+0x190>
          {
            return HAL_TIMEOUT;
 8001464:	2303      	movs	r3, #3
 8001466:	e1a8      	b.n	80017ba <HAL_RCC_OscConfig+0x4e2>
        while(__HAL_RCC_GET_FLAG(RCC_FLAG_HSIRDY) == RESET)
 8001468:	4b2b      	ldr	r3, [pc, #172]	; (8001518 <HAL_RCC_OscConfig+0x240>)
 800146a:	681b      	ldr	r3, [r3, #0]
 800146c:	f003 0302 	and.w	r3, r3, #2
 8001470:	2b00      	cmp	r3, #0
 8001472:	d0f0      	beq.n	8001456 <HAL_RCC_OscConfig+0x17e>
          }
        }

        /* Adjusts the Internal High Speed oscillator (HSI) calibration value. */
        __HAL_RCC_HSI_CALIBRATIONVALUE_ADJUST(RCC_OscInitStruct->HSICalibrationValue);
 8001474:	4b28      	ldr	r3, [pc, #160]	; (8001518 <HAL_RCC_OscConfig+0x240>)
 8001476:	681b      	ldr	r3, [r3, #0]
 8001478:	f023 02f8 	bic.w	r2, r3, #248	; 0xf8
 800147c:	687b      	ldr	r3, [r7, #4]
 800147e:	691b      	ldr	r3, [r3, #16]
 8001480:	00db      	lsls	r3, r3, #3
 8001482:	4925      	ldr	r1, [pc, #148]	; (8001518 <HAL_RCC_OscConfig+0x240>)
 8001484:	4313      	orrs	r3, r2
 8001486:	600b      	str	r3, [r1, #0]
 8001488:	e015      	b.n	80014b6 <HAL_RCC_OscConfig+0x1de>
      }
      else
      {
        /* Disable the Internal High Speed oscillator (HSI). */
        __HAL_RCC_HSI_DISABLE();
 800148a:	4b24      	ldr	r3, [pc, #144]	; (800151c <HAL_RCC_OscConfig+0x244>)
 800148c:	2200      	movs	r2, #0
 800148e:	601a      	str	r2, [r3, #0]

        /* Get Start Tick*/
        tickstart = HAL_GetTick();
 8001490:	f7ff fbbc 	bl	8000c0c <HAL_GetTick>
 8001494:	6138      	str	r0, [r7, #16]

        /* Wait till HSI is ready */
        while(__HAL_RCC_GET_FLAG(RCC_FLAG_HSIRDY) != RESET)
 8001496:	e008      	b.n	80014aa <HAL_RCC_OscConfig+0x1d2>
        {
          if((HAL_GetTick() - tickstart ) > HSI_TIMEOUT_VALUE)
 8001498:	f7ff fbb8 	bl	8000c0c <HAL_GetTick>
 800149c:	4602      	mov	r2, r0
 800149e:	693b      	ldr	r3, [r7, #16]
 80014a0:	1ad3      	subs	r3, r2, r3
 80014a2:	2b02      	cmp	r3, #2
 80014a4:	d901      	bls.n	80014aa <HAL_RCC_OscConfig+0x1d2>
          {
            return HAL_TIMEOUT;
 80014a6:	2303      	movs	r3, #3
 80014a8:	e187      	b.n	80017ba <HAL_RCC_OscConfig+0x4e2>
        while(__HAL_RCC_GET_FLAG(RCC_FLAG_HSIRDY) != RESET)
 80014aa:	4b1b      	ldr	r3, [pc, #108]	; (8001518 <HAL_RCC_OscConfig+0x240>)
 80014ac:	681b      	ldr	r3, [r3, #0]
 80014ae:	f003 0302 	and.w	r3, r3, #2
 80014b2:	2b00      	cmp	r3, #0
 80014b4:	d1f0      	bne.n	8001498 <HAL_RCC_OscConfig+0x1c0>
        }
      }
    }
  }
  /*------------------------------ LSI Configuration -------------------------*/
  if(((RCC_OscInitStruct->OscillatorType) & RCC_OSCILLATORTYPE_LSI) == RCC_OSCILLATORTYPE_LSI)
 80014b6:	687b      	ldr	r3, [r7, #4]
 80014b8:	681b      	ldr	r3, [r3, #0]
 80014ba:	f003 0308 	and.w	r3, r3, #8
 80014be:	2b00      	cmp	r3, #0
 80014c0:	d036      	beq.n	8001530 <HAL_RCC_OscConfig+0x258>
  {
    /* Check the parameters */
    assert_param(IS_RCC_LSI(RCC_OscInitStruct->LSIState));

    /* Check the LSI State */
    if((RCC_OscInitStruct->LSIState)!= RCC_LSI_OFF)
 80014c2:	687b      	ldr	r3, [r7, #4]
 80014c4:	695b      	ldr	r3, [r3, #20]
 80014c6:	2b00      	cmp	r3, #0
 80014c8:	d016      	beq.n	80014f8 <HAL_RCC_OscConfig+0x220>
    {
      /* Enable the Internal Low Speed oscillator (LSI). */
      __HAL_RCC_LSI_ENABLE();
 80014ca:	4b15      	ldr	r3, [pc, #84]	; (8001520 <HAL_RCC_OscConfig+0x248>)
 80014cc:	2201      	movs	r2, #1
 80014ce:	601a      	str	r2, [r3, #0]

      /* Get Start Tick*/
      tickstart = HAL_GetTick();
 80014d0:	f7ff fb9c 	bl	8000c0c <HAL_GetTick>
 80014d4:	6138      	str	r0, [r7, #16]

      /* Wait till LSI is ready */
      while(__HAL_RCC_GET_FLAG(RCC_FLAG_LSIRDY) == RESET)
 80014d6:	e008      	b.n	80014ea <HAL_RCC_OscConfig+0x212>
      {
        if((HAL_GetTick() - tickstart ) > LSI_TIMEOUT_VALUE)
 80014d8:	f7ff fb98 	bl	8000c0c <HAL_GetTick>
 80014dc:	4602      	mov	r2, r0
 80014de:	693b      	ldr	r3, [r7, #16]
 80014e0:	1ad3      	subs	r3, r2, r3
 80014e2:	2b02      	cmp	r3, #2
 80014e4:	d901      	bls.n	80014ea <HAL_RCC_OscConfig+0x212>
        {
          return HAL_TIMEOUT;
 80014e6:	2303      	movs	r3, #3
 80014e8:	e167      	b.n	80017ba <HAL_RCC_OscConfig+0x4e2>
      while(__HAL_RCC_GET_FLAG(RCC_FLAG_LSIRDY) == RESET)
 80014ea:	4b0b      	ldr	r3, [pc, #44]	; (8001518 <HAL_RCC_OscConfig+0x240>)
 80014ec:	6f5b      	ldr	r3, [r3, #116]	; 0x74
 80014ee:	f003 0302 	and.w	r3, r3, #2
 80014f2:	2b00      	cmp	r3, #0
 80014f4:	d0f0      	beq.n	80014d8 <HAL_RCC_OscConfig+0x200>
 80014f6:	e01b      	b.n	8001530 <HAL_RCC_OscConfig+0x258>
      }
    }
    else
    {
      /* Disable the Internal Low Speed oscillator (LSI). */
      __HAL_RCC_LSI_DISABLE();
 80014f8:	4b09      	ldr	r3, [pc, #36]	; (8001520 <HAL_RCC_OscConfig+0x248>)
 80014fa:	2200      	movs	r2, #0
 80014fc:	601a      	str	r2, [r3, #0]

      /* Get Start Tick */
      tickstart = HAL_GetTick();
 80014fe:	f7ff fb85 	bl	8000c0c <HAL_GetTick>
 8001502:	6138      	str	r0, [r7, #16]

      /* Wait till LSI is ready */
      while(__HAL_RCC_GET_FLAG(RCC_FLAG_LSIRDY) != RESET)
 8001504:	e00e      	b.n	8001524 <HAL_RCC_OscConfig+0x24c>
      {
        if((HAL_GetTick() - tickstart ) > LSI_TIMEOUT_VALUE)
 8001506:	f7ff fb81 	bl	8000c0c <HAL_GetTick>
 800150a:	4602      	mov	r2, r0
 800150c:	693b      	ldr	r3, [r7, #16]
 800150e:	1ad3      	subs	r3, r2, r3
 8001510:	2b02      	cmp	r3, #2
 8001512:	d907      	bls.n	8001524 <HAL_RCC_OscConfig+0x24c>
        {
          return HAL_TIMEOUT;
 8001514:	2303      	movs	r3, #3
 8001516:	e150      	b.n	80017ba <HAL_RCC_OscConfig+0x4e2>
 8001518:	40023800 	.word	0x40023800
 800151c:	42470000 	.word	0x42470000
 8001520:	42470e80 	.word	0x42470e80
      while(__HAL_RCC_GET_FLAG(RCC_FLAG_LSIRDY) != RESET)
 8001524:	4b88      	ldr	r3, [pc, #544]	; (8001748 <HAL_RCC_OscConfig+0x470>)
 8001526:	6f5b      	ldr	r3, [r3, #116]	; 0x74
 8001528:	f003 0302 	and.w	r3, r3, #2
 800152c:	2b00      	cmp	r3, #0
 800152e:	d1ea      	bne.n	8001506 <HAL_RCC_OscConfig+0x22e>
        }
      }
    }
  }
  /*------------------------------ LSE Configuration -------------------------*/
  if(((RCC_OscInitStruct->OscillatorType) & RCC_OSCILLATORTYPE_LSE) == RCC_OSCILLATORTYPE_LSE)
 8001530:	687b      	ldr	r3, [r7, #4]
 8001532:	681b      	ldr	r3, [r3, #0]
 8001534:	f003 0304 	and.w	r3, r3, #4
 8001538:	2b00      	cmp	r3, #0
 800153a:	f000 8097 	beq.w	800166c <HAL_RCC_OscConfig+0x394>
  {
    FlagStatus       pwrclkchanged = RESET;
 800153e:	2300      	movs	r3, #0
 8001540:	75fb      	strb	r3, [r7, #23]
    /* Check the parameters */
    assert_param(IS_RCC_LSE(RCC_OscInitStruct->LSEState));

    /* Update LSE configuration in Backup Domain control register    */
    /* Requires to enable write access to Backup Domain of necessary */
    if(__HAL_RCC_PWR_IS_CLK_DISABLED())
 8001542:	4b81      	ldr	r3, [pc, #516]	; (8001748 <HAL_RCC_OscConfig+0x470>)
 8001544:	6c1b      	ldr	r3, [r3, #64]	; 0x40
 8001546:	f003 5380 	and.w	r3, r3, #268435456	; 0x10000000
 800154a:	2b00      	cmp	r3, #0
 800154c:	d10f      	bne.n	800156e <HAL_RCC_OscConfig+0x296>
    {
      __HAL_RCC_PWR_CLK_ENABLE();
 800154e:	2300      	movs	r3, #0
 8001550:	60bb      	str	r3, [r7, #8]
 8001552:	4b7d      	ldr	r3, [pc, #500]	; (8001748 <HAL_RCC_OscConfig+0x470>)
 8001554:	6c1b      	ldr	r3, [r3, #64]	; 0x40
 8001556:	4a7c      	ldr	r2, [pc, #496]	; (8001748 <HAL_RCC_OscConfig+0x470>)
 8001558:	f043 5380 	orr.w	r3, r3, #268435456	; 0x10000000
 800155c:	6413      	str	r3, [r2, #64]	; 0x40
 800155e:	4b7a      	ldr	r3, [pc, #488]	; (8001748 <HAL_RCC_OscConfig+0x470>)
 8001560:	6c1b      	ldr	r3, [r3, #64]	; 0x40
 8001562:	f003 5380 	and.w	r3, r3, #268435456	; 0x10000000
 8001566:	60bb      	str	r3, [r7, #8]
 8001568:	68bb      	ldr	r3, [r7, #8]
      pwrclkchanged = SET;
 800156a:	2301      	movs	r3, #1
 800156c:	75fb      	strb	r3, [r7, #23]
    }

    if(HAL_IS_BIT_CLR(PWR->CR, PWR_CR_DBP))
 800156e:	4b77      	ldr	r3, [pc, #476]	; (800174c <HAL_RCC_OscConfig+0x474>)
 8001570:	681b      	ldr	r3, [r3, #0]
 8001572:	f403 7380 	and.w	r3, r3, #256	; 0x100
 8001576:	2b00      	cmp	r3, #0
 8001578:	d118      	bne.n	80015ac <HAL_RCC_OscConfig+0x2d4>
    {
      /* Enable write access to Backup domain */
      SET_BIT(PWR->CR, PWR_CR_DBP);
 800157a:	4b74      	ldr	r3, [pc, #464]	; (800174c <HAL_RCC_OscConfig+0x474>)
 800157c:	681b      	ldr	r3, [r3, #0]
 800157e:	4a73      	ldr	r2, [pc, #460]	; (800174c <HAL_RCC_OscConfig+0x474>)
 8001580:	f443 7380 	orr.w	r3, r3, #256	; 0x100
 8001584:	6013      	str	r3, [r2, #0]

      /* Wait for Backup domain Write protection disable */
      tickstart = HAL_GetTick();
 8001586:	f7ff fb41 	bl	8000c0c <HAL_GetTick>
 800158a:	6138      	str	r0, [r7, #16]

      while(HAL_IS_BIT_CLR(PWR->CR, PWR_CR_DBP))
 800158c:	e008      	b.n	80015a0 <HAL_RCC_OscConfig+0x2c8>
      {
        if((HAL_GetTick() - tickstart) > RCC_DBP_TIMEOUT_VALUE)
 800158e:	f7ff fb3d 	bl	8000c0c <HAL_GetTick>
 8001592:	4602      	mov	r2, r0
 8001594:	693b      	ldr	r3, [r7, #16]
 8001596:	1ad3      	subs	r3, r2, r3
 8001598:	2b02      	cmp	r3, #2
 800159a:	d901      	bls.n	80015a0 <HAL_RCC_OscConfig+0x2c8>
        {
          return HAL_TIMEOUT;
 800159c:	2303      	movs	r3, #3
 800159e:	e10c      	b.n	80017ba <HAL_RCC_OscConfig+0x4e2>
      while(HAL_IS_BIT_CLR(PWR->CR, PWR_CR_DBP))
 80015a0:	4b6a      	ldr	r3, [pc, #424]	; (800174c <HAL_RCC_OscConfig+0x474>)
 80015a2:	681b      	ldr	r3, [r3, #0]
 80015a4:	f403 7380 	and.w	r3, r3, #256	; 0x100
 80015a8:	2b00      	cmp	r3, #0
 80015aa:	d0f0      	beq.n	800158e <HAL_RCC_OscConfig+0x2b6>
        }
      }
    }

    /* Set the new LSE configuration -----------------------------------------*/
    __HAL_RCC_LSE_CONFIG(RCC_OscInitStruct->LSEState);
 80015ac:	687b      	ldr	r3, [r7, #4]
 80015ae:	689b      	ldr	r3, [r3, #8]
 80015b0:	2b01      	cmp	r3, #1
 80015b2:	d106      	bne.n	80015c2 <HAL_RCC_OscConfig+0x2ea>
 80015b4:	4b64      	ldr	r3, [pc, #400]	; (8001748 <HAL_RCC_OscConfig+0x470>)
 80015b6:	6f1b      	ldr	r3, [r3, #112]	; 0x70
 80015b8:	4a63      	ldr	r2, [pc, #396]	; (8001748 <HAL_RCC_OscConfig+0x470>)
 80015ba:	f043 0301 	orr.w	r3, r3, #1
 80015be:	6713      	str	r3, [r2, #112]	; 0x70
 80015c0:	e01c      	b.n	80015fc <HAL_RCC_OscConfig+0x324>
 80015c2:	687b      	ldr	r3, [r7, #4]
 80015c4:	689b      	ldr	r3, [r3, #8]
 80015c6:	2b05      	cmp	r3, #5
 80015c8:	d10c      	bne.n	80015e4 <HAL_RCC_OscConfig+0x30c>
 80015ca:	4b5f      	ldr	r3, [pc, #380]	; (8001748 <HAL_RCC_OscConfig+0x470>)
 80015cc:	6f1b      	ldr	r3, [r3, #112]	; 0x70
 80015ce:	4a5e      	ldr	r2, [pc, #376]	; (8001748 <HAL_RCC_OscConfig+0x470>)
 80015d0:	f043 0304 	orr.w	r3, r3, #4
 80015d4:	6713      	str	r3, [r2, #112]	; 0x70
 80015d6:	4b5c      	ldr	r3, [pc, #368]	; (8001748 <HAL_RCC_OscConfig+0x470>)
 80015d8:	6f1b      	ldr	r3, [r3, #112]	; 0x70
 80015da:	4a5b      	ldr	r2, [pc, #364]	; (8001748 <HAL_RCC_OscConfig+0x470>)
 80015dc:	f043 0301 	orr.w	r3, r3, #1
 80015e0:	6713      	str	r3, [r2, #112]	; 0x70
 80015e2:	e00b      	b.n	80015fc <HAL_RCC_OscConfig+0x324>
 80015e4:	4b58      	ldr	r3, [pc, #352]	; (8001748 <HAL_RCC_OscConfig+0x470>)
 80015e6:	6f1b      	ldr	r3, [r3, #112]	; 0x70
 80015e8:	4a57      	ldr	r2, [pc, #348]	; (8001748 <HAL_RCC_OscConfig+0x470>)
 80015ea:	f023 0301 	bic.w	r3, r3, #1
 80015ee:	6713      	str	r3, [r2, #112]	; 0x70
 80015f0:	4b55      	ldr	r3, [pc, #340]	; (8001748 <HAL_RCC_OscConfig+0x470>)
 80015f2:	6f1b      	ldr	r3, [r3, #112]	; 0x70
 80015f4:	4a54      	ldr	r2, [pc, #336]	; (8001748 <HAL_RCC_OscConfig+0x470>)
 80015f6:	f023 0304 	bic.w	r3, r3, #4
 80015fa:	6713      	str	r3, [r2, #112]	; 0x70
    /* Check the LSE State */
    if((RCC_OscInitStruct->LSEState) != RCC_LSE_OFF)
 80015fc:	687b      	ldr	r3, [r7, #4]
 80015fe:	689b      	ldr	r3, [r3, #8]
 8001600:	2b00      	cmp	r3, #0
 8001602:	d015      	beq.n	8001630 <HAL_RCC_OscConfig+0x358>
    {
      /* Get Start Tick*/
      tickstart = HAL_GetTick();
 8001604:	f7ff fb02 	bl	8000c0c <HAL_GetTick>
 8001608:	6138      	str	r0, [r7, #16]

      /* Wait till LSE is ready */
      while(__HAL_RCC_GET_FLAG(RCC_FLAG_LSERDY) == RESET)
 800160a:	e00a      	b.n	8001622 <HAL_RCC_OscConfig+0x34a>
      {
        if((HAL_GetTick() - tickstart ) > RCC_LSE_TIMEOUT_VALUE)
 800160c:	f7ff fafe 	bl	8000c0c <HAL_GetTick>
 8001610:	4602      	mov	r2, r0
 8001612:	693b      	ldr	r3, [r7, #16]
 8001614:	1ad3      	subs	r3, r2, r3
 8001616:	f241 3288 	movw	r2, #5000	; 0x1388
 800161a:	4293      	cmp	r3, r2
 800161c:	d901      	bls.n	8001622 <HAL_RCC_OscConfig+0x34a>
        {
          return HAL_TIMEOUT;
 800161e:	2303      	movs	r3, #3
 8001620:	e0cb      	b.n	80017ba <HAL_RCC_OscConfig+0x4e2>
      while(__HAL_RCC_GET_FLAG(RCC_FLAG_LSERDY) == RESET)
 8001622:	4b49      	ldr	r3, [pc, #292]	; (8001748 <HAL_RCC_OscConfig+0x470>)
 8001624:	6f1b      	ldr	r3, [r3, #112]	; 0x70
 8001626:	f003 0302 	and.w	r3, r3, #2
 800162a:	2b00      	cmp	r3, #0
 800162c:	d0ee      	beq.n	800160c <HAL_RCC_OscConfig+0x334>
 800162e:	e014      	b.n	800165a <HAL_RCC_OscConfig+0x382>
      }
    }
    else
    {
      /* Get Start Tick */
      tickstart = HAL_GetTick();
 8001630:	f7ff faec 	bl	8000c0c <HAL_GetTick>
 8001634:	6138      	str	r0, [r7, #16]

      /* Wait till LSE is ready */
      while(__HAL_RCC_GET_FLAG(RCC_FLAG_LSERDY) != RESET)
 8001636:	e00a      	b.n	800164e <HAL_RCC_OscConfig+0x376>
      {
        if((HAL_GetTick() - tickstart ) > RCC_LSE_TIMEOUT_VALUE)
 8001638:	f7ff fae8 	bl	8000c0c <HAL_GetTick>
 800163c:	4602      	mov	r2, r0
 800163e:	693b      	ldr	r3, [r7, #16]
 8001640:	1ad3      	subs	r3, r2, r3
 8001642:	f241 3288 	movw	r2, #5000	; 0x1388
 8001646:	4293      	cmp	r3, r2
 8001648:	d901      	bls.n	800164e <HAL_RCC_OscConfig+0x376>
        {
          return HAL_TIMEOUT;
 800164a:	2303      	movs	r3, #3
 800164c:	e0b5      	b.n	80017ba <HAL_RCC_OscConfig+0x4e2>
      while(__HAL_RCC_GET_FLAG(RCC_FLAG_LSERDY) != RESET)
 800164e:	4b3e      	ldr	r3, [pc, #248]	; (8001748 <HAL_RCC_OscConfig+0x470>)
 8001650:	6f1b      	ldr	r3, [r3, #112]	; 0x70
 8001652:	f003 0302 	and.w	r3, r3, #2
 8001656:	2b00      	cmp	r3, #0
 8001658:	d1ee      	bne.n	8001638 <HAL_RCC_OscConfig+0x360>
        }
      }
    }

    /* Restore clock configuration if changed */
    if(pwrclkchanged == SET)
 800165a:	7dfb      	ldrb	r3, [r7, #23]
 800165c:	2b01      	cmp	r3, #1
 800165e:	d105      	bne.n	800166c <HAL_RCC_OscConfig+0x394>
    {
      __HAL_RCC_PWR_CLK_DISABLE();
 8001660:	4b39      	ldr	r3, [pc, #228]	; (8001748 <HAL_RCC_OscConfig+0x470>)
 8001662:	6c1b      	ldr	r3, [r3, #64]	; 0x40
 8001664:	4a38      	ldr	r2, [pc, #224]	; (8001748 <HAL_RCC_OscConfig+0x470>)
 8001666:	f023 5380 	bic.w	r3, r3, #268435456	; 0x10000000
 800166a:	6413      	str	r3, [r2, #64]	; 0x40
    }
  }
  /*-------------------------------- PLL Configuration -----------------------*/
  /* Check the parameters */
  assert_param(IS_RCC_PLL(RCC_OscInitStruct->PLL.PLLState));
  if ((RCC_OscInitStruct->PLL.PLLState) != RCC_PLL_NONE)
 800166c:	687b      	ldr	r3, [r7, #4]
 800166e:	699b      	ldr	r3, [r3, #24]
 8001670:	2b00      	cmp	r3, #0
 8001672:	f000 80a1 	beq.w	80017b8 <HAL_RCC_OscConfig+0x4e0>
  {
    /* Check if the PLL is used as system clock or not */
    if(__HAL_RCC_GET_SYSCLK_SOURCE() != RCC_CFGR_SWS_PLL)
 8001676:	4b34      	ldr	r3, [pc, #208]	; (8001748 <HAL_RCC_OscConfig+0x470>)
 8001678:	689b      	ldr	r3, [r3, #8]
 800167a:	f003 030c 	and.w	r3, r3, #12
 800167e:	2b08      	cmp	r3, #8
 8001680:	d05c      	beq.n	800173c <HAL_RCC_OscConfig+0x464>
    {
      if((RCC_OscInitStruct->PLL.PLLState) == RCC_PLL_ON)
 8001682:	687b      	ldr	r3, [r7, #4]
 8001684:	699b      	ldr	r3, [r3, #24]
 8001686:	2b02      	cmp	r3, #2
 8001688:	d141      	bne.n	800170e <HAL_RCC_OscConfig+0x436>
        assert_param(IS_RCC_PLLN_VALUE(RCC_OscInitStruct->PLL.PLLN));
        assert_param(IS_RCC_PLLP_VALUE(RCC_OscInitStruct->PLL.PLLP));
        assert_param(IS_RCC_PLLQ_VALUE(RCC_OscInitStruct->PLL.PLLQ));

        /* Disable the main PLL. */
        __HAL_RCC_PLL_DISABLE();
 800168a:	4b31      	ldr	r3, [pc, #196]	; (8001750 <HAL_RCC_OscConfig+0x478>)
 800168c:	2200      	movs	r2, #0
 800168e:	601a      	str	r2, [r3, #0]

        /* Get Start Tick */
        tickstart = HAL_GetTick();
 8001690:	f7ff fabc 	bl	8000c0c <HAL_GetTick>
 8001694:	6138      	str	r0, [r7, #16]

        /* Wait till PLL is ready */
        while(__HAL_RCC_GET_FLAG(RCC_FLAG_PLLRDY) != RESET)
 8001696:	e008      	b.n	80016aa <HAL_RCC_OscConfig+0x3d2>
        {
          if((HAL_GetTick() - tickstart ) > PLL_TIMEOUT_VALUE)
 8001698:	f7ff fab8 	bl	8000c0c <HAL_GetTick>
 800169c:	4602      	mov	r2, r0
 800169e:	693b      	ldr	r3, [r7, #16]
 80016a0:	1ad3      	subs	r3, r2, r3
 80016a2:	2b02      	cmp	r3, #2
 80016a4:	d901      	bls.n	80016aa <HAL_RCC_OscConfig+0x3d2>
          {
            return HAL_TIMEOUT;
 80016a6:	2303      	movs	r3, #3
 80016a8:	e087      	b.n	80017ba <HAL_RCC_OscConfig+0x4e2>
        while(__HAL_RCC_GET_FLAG(RCC_FLAG_PLLRDY) != RESET)
 80016aa:	4b27      	ldr	r3, [pc, #156]	; (8001748 <HAL_RCC_OscConfig+0x470>)
 80016ac:	681b      	ldr	r3, [r3, #0]
 80016ae:	f003 7300 	and.w	r3, r3, #33554432	; 0x2000000
 80016b2:	2b00      	cmp	r3, #0
 80016b4:	d1f0      	bne.n	8001698 <HAL_RCC_OscConfig+0x3c0>
          }
        }

        /* Configure the main PLL clock source, multiplication and division factors. */
        WRITE_REG(RCC->PLLCFGR, (RCC_OscInitStruct->PLL.PLLSource                                            | \
 80016b6:	687b      	ldr	r3, [r7, #4]
 80016b8:	69da      	ldr	r2, [r3, #28]
 80016ba:	687b      	ldr	r3, [r7, #4]
 80016bc:	6a1b      	ldr	r3, [r3, #32]
 80016be:	431a      	orrs	r2, r3
 80016c0:	687b      	ldr	r3, [r7, #4]
 80016c2:	6a5b      	ldr	r3, [r3, #36]	; 0x24
 80016c4:	019b      	lsls	r3, r3, #6
 80016c6:	431a      	orrs	r2, r3
 80016c8:	687b      	ldr	r3, [r7, #4]
 80016ca:	6a9b      	ldr	r3, [r3, #40]	; 0x28
 80016cc:	085b      	lsrs	r3, r3, #1
 80016ce:	3b01      	subs	r3, #1
 80016d0:	041b      	lsls	r3, r3, #16
 80016d2:	431a      	orrs	r2, r3
 80016d4:	687b      	ldr	r3, [r7, #4]
 80016d6:	6adb      	ldr	r3, [r3, #44]	; 0x2c
 80016d8:	061b      	lsls	r3, r3, #24
 80016da:	491b      	ldr	r1, [pc, #108]	; (8001748 <HAL_RCC_OscConfig+0x470>)
 80016dc:	4313      	orrs	r3, r2
 80016de:	604b      	str	r3, [r1, #4]
                                 RCC_OscInitStruct->PLL.PLLM                                                 | \
                                 (RCC_OscInitStruct->PLL.PLLN << RCC_PLLCFGR_PLLN_Pos)             | \
                                 (((RCC_OscInitStruct->PLL.PLLP >> 1U) - 1U) << RCC_PLLCFGR_PLLP_Pos) | \
                                 (RCC_OscInitStruct->PLL.PLLQ << RCC_PLLCFGR_PLLQ_Pos)));
        /* Enable the main PLL. */
        __HAL_RCC_PLL_ENABLE();
 80016e0:	4b1b      	ldr	r3, [pc, #108]	; (8001750 <HAL_RCC_OscConfig+0x478>)
 80016e2:	2201      	movs	r2, #1
 80016e4:	601a      	str	r2, [r3, #0]

        /* Get Start Tick */
        tickstart = HAL_GetTick();
 80016e6:	f7ff fa91 	bl	8000c0c <HAL_GetTick>
 80016ea:	6138      	str	r0, [r7, #16]

        /* Wait till PLL is ready */
        while(__HAL_RCC_GET_FLAG(RCC_FLAG_PLLRDY) == RESET)
 80016ec:	e008      	b.n	8001700 <HAL_RCC_OscConfig+0x428>
        {
          if((HAL_GetTick() - tickstart ) > PLL_TIMEOUT_VALUE)
 80016ee:	f7ff fa8d 	bl	8000c0c <HAL_GetTick>
 80016f2:	4602      	mov	r2, r0
 80016f4:	693b      	ldr	r3, [r7, #16]
 80016f6:	1ad3      	subs	r3, r2, r3
 80016f8:	2b02      	cmp	r3, #2
 80016fa:	d901      	bls.n	8001700 <HAL_RCC_OscConfig+0x428>
          {
            return HAL_TIMEOUT;
 80016fc:	2303      	movs	r3, #3
 80016fe:	e05c      	b.n	80017ba <HAL_RCC_OscConfig+0x4e2>
        while(__HAL_RCC_GET_FLAG(RCC_FLAG_PLLRDY) == RESET)
 8001700:	4b11      	ldr	r3, [pc, #68]	; (8001748 <HAL_RCC_OscConfig+0x470>)
 8001702:	681b      	ldr	r3, [r3, #0]
 8001704:	f003 7300 	and.w	r3, r3, #33554432	; 0x2000000
 8001708:	2b00      	cmp	r3, #0
 800170a:	d0f0      	beq.n	80016ee <HAL_RCC_OscConfig+0x416>
 800170c:	e054      	b.n	80017b8 <HAL_RCC_OscConfig+0x4e0>
        }
      }
      else
      {
        /* Disable the main PLL. */
        __HAL_RCC_PLL_DISABLE();
 800170e:	4b10      	ldr	r3, [pc, #64]	; (8001750 <HAL_RCC_OscConfig+0x478>)
 8001710:	2200      	movs	r2, #0
 8001712:	601a      	str	r2, [r3, #0]

        /* Get Start Tick */
        tickstart = HAL_GetTick();
 8001714:	f7ff fa7a 	bl	8000c0c <HAL_GetTick>
 8001718:	6138      	str	r0, [r7, #16]

        /* Wait till PLL is ready */
        while(__HAL_RCC_GET_FLAG(RCC_FLAG_PLLRDY) != RESET)
 800171a:	e008      	b.n	800172e <HAL_RCC_OscConfig+0x456>
        {
          if((HAL_GetTick() - tickstart ) > PLL_TIMEOUT_VALUE)
 800171c:	f7ff fa76 	bl	8000c0c <HAL_GetTick>
 8001720:	4602      	mov	r2, r0
 8001722:	693b      	ldr	r3, [r7, #16]
 8001724:	1ad3      	subs	r3, r2, r3
 8001726:	2b02      	cmp	r3, #2
 8001728:	d901      	bls.n	800172e <HAL_RCC_OscConfig+0x456>
          {
            return HAL_TIMEOUT;
 800172a:	2303      	movs	r3, #3
 800172c:	e045      	b.n	80017ba <HAL_RCC_OscConfig+0x4e2>
        while(__HAL_RCC_GET_FLAG(RCC_FLAG_PLLRDY) != RESET)
 800172e:	4b06      	ldr	r3, [pc, #24]	; (8001748 <HAL_RCC_OscConfig+0x470>)
 8001730:	681b      	ldr	r3, [r3, #0]
 8001732:	f003 7300 	and.w	r3, r3, #33554432	; 0x2000000
 8001736:	2b00      	cmp	r3, #0
 8001738:	d1f0      	bne.n	800171c <HAL_RCC_OscConfig+0x444>
 800173a:	e03d      	b.n	80017b8 <HAL_RCC_OscConfig+0x4e0>
      }
    }
    else
    {
      /* Check if there is a request to disable the PLL used as System clock source */
      if((RCC_OscInitStruct->PLL.PLLState) == RCC_PLL_OFF)
 800173c:	687b      	ldr	r3, [r7, #4]
 800173e:	699b      	ldr	r3, [r3, #24]
 8001740:	2b01      	cmp	r3, #1
 8001742:	d107      	bne.n	8001754 <HAL_RCC_OscConfig+0x47c>
      {
        return HAL_ERROR;
 8001744:	2301      	movs	r3, #1
 8001746:	e038      	b.n	80017ba <HAL_RCC_OscConfig+0x4e2>
 8001748:	40023800 	.word	0x40023800
 800174c:	40007000 	.word	0x40007000
 8001750:	42470060 	.word	0x42470060
      }
      else
      {
        /* Do not return HAL_ERROR if request repeats the current configuration */
        pll_config = RCC->PLLCFGR;
 8001754:	4b1b      	ldr	r3, [pc, #108]	; (80017c4 <HAL_RCC_OscConfig+0x4ec>)
 8001756:	685b      	ldr	r3, [r3, #4]
 8001758:	60fb      	str	r3, [r7, #12]
            (READ_BIT(pll_config, RCC_PLLCFGR_PLLN) != (RCC_OscInitStruct->PLL.PLLN) << RCC_PLLCFGR_PLLN_Pos) ||
            (READ_BIT(pll_config, RCC_PLLCFGR_PLLP) != (((RCC_OscInitStruct->PLL.PLLP >> 1U) - 1U)) << RCC_PLLCFGR_PLLP_Pos) ||
            (READ_BIT(pll_config, RCC_PLLCFGR_PLLQ) != (RCC_OscInitStruct->PLL.PLLQ << RCC_PLLCFGR_PLLQ_Pos)) ||
            (READ_BIT(pll_config, RCC_PLLCFGR_PLLR) != (RCC_OscInitStruct->PLL.PLLR << RCC_PLLCFGR_PLLR_Pos)))
#else
        if (((RCC_OscInitStruct->PLL.PLLState) == RCC_PLL_OFF) ||
 800175a:	687b      	ldr	r3, [r7, #4]
 800175c:	699b      	ldr	r3, [r3, #24]
 800175e:	2b01      	cmp	r3, #1
 8001760:	d028      	beq.n	80017b4 <HAL_RCC_OscConfig+0x4dc>
            (READ_BIT(pll_config, RCC_PLLCFGR_PLLSRC) != RCC_OscInitStruct->PLL.PLLSource) ||
 8001762:	68fb      	ldr	r3, [r7, #12]
 8001764:	f403 0280 	and.w	r2, r3, #4194304	; 0x400000
 8001768:	687b      	ldr	r3, [r7, #4]
 800176a:	69db      	ldr	r3, [r3, #28]
        if (((RCC_OscInitStruct->PLL.PLLState) == RCC_PLL_OFF) ||
 800176c:	429a      	cmp	r2, r3
 800176e:	d121      	bne.n	80017b4 <HAL_RCC_OscConfig+0x4dc>
            (READ_BIT(pll_config, RCC_PLLCFGR_PLLM) != (RCC_OscInitStruct->PLL.PLLM) << RCC_PLLCFGR_PLLM_Pos) ||
 8001770:	68fb      	ldr	r3, [r7, #12]
 8001772:	f003 023f 	and.w	r2, r3, #63	; 0x3f
 8001776:	687b      	ldr	r3, [r7, #4]
 8001778:	6a1b      	ldr	r3, [r3, #32]
            (READ_BIT(pll_config, RCC_PLLCFGR_PLLSRC) != RCC_OscInitStruct->PLL.PLLSource) ||
 800177a:	429a      	cmp	r2, r3
 800177c:	d11a      	bne.n	80017b4 <HAL_RCC_OscConfig+0x4dc>
            (READ_BIT(pll_config, RCC_PLLCFGR_PLLN) != (RCC_OscInitStruct->PLL.PLLN) << RCC_PLLCFGR_PLLN_Pos) ||
 800177e:	68fa      	ldr	r2, [r7, #12]
 8001780:	f647 73c0 	movw	r3, #32704	; 0x7fc0
 8001784:	4013      	ands	r3, r2
 8001786:	687a      	ldr	r2, [r7, #4]
 8001788:	6a52      	ldr	r2, [r2, #36]	; 0x24
 800178a:	0192      	lsls	r2, r2, #6
            (READ_BIT(pll_config, RCC_PLLCFGR_PLLM) != (RCC_OscInitStruct->PLL.PLLM) << RCC_PLLCFGR_PLLM_Pos) ||
 800178c:	4293      	cmp	r3, r2
 800178e:	d111      	bne.n	80017b4 <HAL_RCC_OscConfig+0x4dc>
            (READ_BIT(pll_config, RCC_PLLCFGR_PLLP) != (((RCC_OscInitStruct->PLL.PLLP >> 1U) - 1U)) << RCC_PLLCFGR_PLLP_Pos) ||
 8001790:	68fb      	ldr	r3, [r7, #12]
 8001792:	f403 3240 	and.w	r2, r3, #196608	; 0x30000
 8001796:	687b      	ldr	r3, [r7, #4]
 8001798:	6a9b      	ldr	r3, [r3, #40]	; 0x28
 800179a:	085b      	lsrs	r3, r3, #1
 800179c:	3b01      	subs	r3, #1
 800179e:	041b      	lsls	r3, r3, #16
            (READ_BIT(pll_config, RCC_PLLCFGR_PLLN) != (RCC_OscInitStruct->PLL.PLLN) << RCC_PLLCFGR_PLLN_Pos) ||
 80017a0:	429a      	cmp	r2, r3
 80017a2:	d107      	bne.n	80017b4 <HAL_RCC_OscConfig+0x4dc>
            (READ_BIT(pll_config, RCC_PLLCFGR_PLLQ) != (RCC_OscInitStruct->PLL.PLLQ << RCC_PLLCFGR_PLLQ_Pos)))
 80017a4:	68fb      	ldr	r3, [r7, #12]
 80017a6:	f003 6270 	and.w	r2, r3, #251658240	; 0xf000000
 80017aa:	687b      	ldr	r3, [r7, #4]
 80017ac:	6adb      	ldr	r3, [r3, #44]	; 0x2c
 80017ae:	061b      	lsls	r3, r3, #24
            (READ_BIT(pll_config, RCC_PLLCFGR_PLLP) != (((RCC_OscInitStruct->PLL.PLLP >> 1U) - 1U)) << RCC_PLLCFGR_PLLP_Pos) ||
 80017b0:	429a      	cmp	r2, r3
 80017b2:	d001      	beq.n	80017b8 <HAL_RCC_OscConfig+0x4e0>
#endif
        {
          return HAL_ERROR;
 80017b4:	2301      	movs	r3, #1
 80017b6:	e000      	b.n	80017ba <HAL_RCC_OscConfig+0x4e2>
        }
      }
    }
  }
  return HAL_OK;
 80017b8:	2300      	movs	r3, #0
}
 80017ba:	4618      	mov	r0, r3
 80017bc:	3718      	adds	r7, #24
 80017be:	46bd      	mov	sp, r7
 80017c0:	bd80      	pop	{r7, pc}
 80017c2:	bf00      	nop
 80017c4:	40023800 	.word	0x40023800

080017c8 <HAL_RCC_ClockConfig>:
  *         HPRE[3:0] bits to ensure that HCLK not exceed the maximum allowed frequency
  *         (for more details refer to section above "Initialization/de-initialization functions")
  * @retval None
  */
HAL_StatusTypeDef HAL_RCC_ClockConfig(RCC_ClkInitTypeDef  *RCC_ClkInitStruct, uint32_t FLatency)
{
 80017c8:	b580      	push	{r7, lr}
 80017ca:	b084      	sub	sp, #16
 80017cc:	af00      	add	r7, sp, #0
 80017ce:	6078      	str	r0, [r7, #4]
 80017d0:	6039      	str	r1, [r7, #0]
  uint32_t tickstart;

  /* Check Null pointer */
  if(RCC_ClkInitStruct == NULL)
 80017d2:	687b      	ldr	r3, [r7, #4]
 80017d4:	2b00      	cmp	r3, #0
 80017d6:	d101      	bne.n	80017dc <HAL_RCC_ClockConfig+0x14>
  {
    return HAL_ERROR;
 80017d8:	2301      	movs	r3, #1
 80017da:	e0cc      	b.n	8001976 <HAL_RCC_ClockConfig+0x1ae>
  /* To correctly read data from FLASH memory, the number of wait states (LATENCY)
    must be correctly programmed according to the frequency of the CPU clock
    (HCLK) and the supply voltage of the device. */

  /* Increasing the number of wait states because of higher CPU frequency */
  if(FLatency > __HAL_FLASH_GET_LATENCY())
 80017dc:	4b68      	ldr	r3, [pc, #416]	; (8001980 <HAL_RCC_ClockConfig+0x1b8>)
 80017de:	681b      	ldr	r3, [r3, #0]
 80017e0:	f003 0307 	and.w	r3, r3, #7
 80017e4:	683a      	ldr	r2, [r7, #0]
 80017e6:	429a      	cmp	r2, r3
 80017e8:	d90c      	bls.n	8001804 <HAL_RCC_ClockConfig+0x3c>
  {
    /* Program the new number of wait states to the LATENCY bits in the FLASH_ACR register */
    __HAL_FLASH_SET_LATENCY(FLatency);
 80017ea:	4b65      	ldr	r3, [pc, #404]	; (8001980 <HAL_RCC_ClockConfig+0x1b8>)
 80017ec:	683a      	ldr	r2, [r7, #0]
 80017ee:	b2d2      	uxtb	r2, r2
 80017f0:	701a      	strb	r2, [r3, #0]

    /* Check that the new number of wait states is taken into account to access the Flash
    memory by reading the FLASH_ACR register */
    if(__HAL_FLASH_GET_LATENCY() != FLatency)
 80017f2:	4b63      	ldr	r3, [pc, #396]	; (8001980 <HAL_RCC_ClockConfig+0x1b8>)
 80017f4:	681b      	ldr	r3, [r3, #0]
 80017f6:	f003 0307 	and.w	r3, r3, #7
 80017fa:	683a      	ldr	r2, [r7, #0]
 80017fc:	429a      	cmp	r2, r3
 80017fe:	d001      	beq.n	8001804 <HAL_RCC_ClockConfig+0x3c>
    {
      return HAL_ERROR;
 8001800:	2301      	movs	r3, #1
 8001802:	e0b8      	b.n	8001976 <HAL_RCC_ClockConfig+0x1ae>
    }
  }

  /*-------------------------- HCLK Configuration --------------------------*/
  if(((RCC_ClkInitStruct->ClockType) & RCC_CLOCKTYPE_HCLK) == RCC_CLOCKTYPE_HCLK)
 8001804:	687b      	ldr	r3, [r7, #4]
 8001806:	681b      	ldr	r3, [r3, #0]
 8001808:	f003 0302 	and.w	r3, r3, #2
 800180c:	2b00      	cmp	r3, #0
 800180e:	d020      	beq.n	8001852 <HAL_RCC_ClockConfig+0x8a>
  {
    /* Set the highest APBx dividers in order to ensure that we do not go through
       a non-spec phase whatever we decrease or increase HCLK. */
    if(((RCC_ClkInitStruct->ClockType) & RCC_CLOCKTYPE_PCLK1) == RCC_CLOCKTYPE_PCLK1)
 8001810:	687b      	ldr	r3, [r7, #4]
 8001812:	681b      	ldr	r3, [r3, #0]
 8001814:	f003 0304 	and.w	r3, r3, #4
 8001818:	2b00      	cmp	r3, #0
 800181a:	d005      	beq.n	8001828 <HAL_RCC_ClockConfig+0x60>
    {
      MODIFY_REG(RCC->CFGR, RCC_CFGR_PPRE1, RCC_HCLK_DIV16);
 800181c:	4b59      	ldr	r3, [pc, #356]	; (8001984 <HAL_RCC_ClockConfig+0x1bc>)
 800181e:	689b      	ldr	r3, [r3, #8]
 8001820:	4a58      	ldr	r2, [pc, #352]	; (8001984 <HAL_RCC_ClockConfig+0x1bc>)
 8001822:	f443 53e0 	orr.w	r3, r3, #7168	; 0x1c00
 8001826:	6093      	str	r3, [r2, #8]
    }

    if(((RCC_ClkInitStruct->ClockType) & RCC_CLOCKTYPE_PCLK2) == RCC_CLOCKTYPE_PCLK2)
 8001828:	687b      	ldr	r3, [r7, #4]
 800182a:	681b      	ldr	r3, [r3, #0]
 800182c:	f003 0308 	and.w	r3, r3, #8
 8001830:	2b00      	cmp	r3, #0
 8001832:	d005      	beq.n	8001840 <HAL_RCC_ClockConfig+0x78>
    {
      MODIFY_REG(RCC->CFGR, RCC_CFGR_PPRE2, (RCC_HCLK_DIV16 << 3));
 8001834:	4b53      	ldr	r3, [pc, #332]	; (8001984 <HAL_RCC_ClockConfig+0x1bc>)
 8001836:	689b      	ldr	r3, [r3, #8]
 8001838:	4a52      	ldr	r2, [pc, #328]	; (8001984 <HAL_RCC_ClockConfig+0x1bc>)
 800183a:	f443 4360 	orr.w	r3, r3, #57344	; 0xe000
 800183e:	6093      	str	r3, [r2, #8]
    }

    assert_param(IS_RCC_HCLK(RCC_ClkInitStruct->AHBCLKDivider));
    MODIFY_REG(RCC->CFGR, RCC_CFGR_HPRE, RCC_ClkInitStruct->AHBCLKDivider);
 8001840:	4b50      	ldr	r3, [pc, #320]	; (8001984 <HAL_RCC_ClockConfig+0x1bc>)
 8001842:	689b      	ldr	r3, [r3, #8]
 8001844:	f023 02f0 	bic.w	r2, r3, #240	; 0xf0
 8001848:	687b      	ldr	r3, [r7, #4]
 800184a:	689b      	ldr	r3, [r3, #8]
 800184c:	494d      	ldr	r1, [pc, #308]	; (8001984 <HAL_RCC_ClockConfig+0x1bc>)
 800184e:	4313      	orrs	r3, r2
 8001850:	608b      	str	r3, [r1, #8]
  }

  /*------------------------- SYSCLK Configuration ---------------------------*/
  if(((RCC_ClkInitStruct->ClockType) & RCC_CLOCKTYPE_SYSCLK) == RCC_CLOCKTYPE_SYSCLK)
 8001852:	687b      	ldr	r3, [r7, #4]
 8001854:	681b      	ldr	r3, [r3, #0]
 8001856:	f003 0301 	and.w	r3, r3, #1
 800185a:	2b00      	cmp	r3, #0
 800185c:	d044      	beq.n	80018e8 <HAL_RCC_ClockConfig+0x120>
  {
    assert_param(IS_RCC_SYSCLKSOURCE(RCC_ClkInitStruct->SYSCLKSource));

    /* HSE is selected as System Clock Source */
    if(RCC_ClkInitStruct->SYSCLKSource == RCC_SYSCLKSOURCE_HSE)
 800185e:	687b      	ldr	r3, [r7, #4]
 8001860:	685b      	ldr	r3, [r3, #4]
 8001862:	2b01      	cmp	r3, #1
 8001864:	d107      	bne.n	8001876 <HAL_RCC_ClockConfig+0xae>
    {
      /* Check the HSE ready flag */
      if(__HAL_RCC_GET_FLAG(RCC_FLAG_HSERDY) == RESET)
 8001866:	4b47      	ldr	r3, [pc, #284]	; (8001984 <HAL_RCC_ClockConfig+0x1bc>)
 8001868:	681b      	ldr	r3, [r3, #0]
 800186a:	f403 3300 	and.w	r3, r3, #131072	; 0x20000
 800186e:	2b00      	cmp	r3, #0
 8001870:	d119      	bne.n	80018a6 <HAL_RCC_ClockConfig+0xde>
      {
        return HAL_ERROR;
 8001872:	2301      	movs	r3, #1
 8001874:	e07f      	b.n	8001976 <HAL_RCC_ClockConfig+0x1ae>
      }
    }
    /* PLL is selected as System Clock Source */
    else if((RCC_ClkInitStruct->SYSCLKSource == RCC_SYSCLKSOURCE_PLLCLK)   ||
 8001876:	687b      	ldr	r3, [r7, #4]
 8001878:	685b      	ldr	r3, [r3, #4]
 800187a:	2b02      	cmp	r3, #2
 800187c:	d003      	beq.n	8001886 <HAL_RCC_ClockConfig+0xbe>
            (RCC_ClkInitStruct->SYSCLKSource == RCC_SYSCLKSOURCE_PLLRCLK))
 800187e:	687b      	ldr	r3, [r7, #4]
 8001880:	685b      	ldr	r3, [r3, #4]
    else if((RCC_ClkInitStruct->SYSCLKSource == RCC_SYSCLKSOURCE_PLLCLK)   ||
 8001882:	2b03      	cmp	r3, #3
 8001884:	d107      	bne.n	8001896 <HAL_RCC_ClockConfig+0xce>
    {
      /* Check the PLL ready flag */
      if(__HAL_RCC_GET_FLAG(RCC_FLAG_PLLRDY) == RESET)
 8001886:	4b3f      	ldr	r3, [pc, #252]	; (8001984 <HAL_RCC_ClockConfig+0x1bc>)
 8001888:	681b      	ldr	r3, [r3, #0]
 800188a:	f003 7300 	and.w	r3, r3, #33554432	; 0x2000000
 800188e:	2b00      	cmp	r3, #0
 8001890:	d109      	bne.n	80018a6 <HAL_RCC_ClockConfig+0xde>
      {
        return HAL_ERROR;
 8001892:	2301      	movs	r3, #1
 8001894:	e06f      	b.n	8001976 <HAL_RCC_ClockConfig+0x1ae>
    }
    /* HSI is selected as System Clock Source */
    else
    {
      /* Check the HSI ready flag */
      if(__HAL_RCC_GET_FLAG(RCC_FLAG_HSIRDY) == RESET)
 8001896:	4b3b      	ldr	r3, [pc, #236]	; (8001984 <HAL_RCC_ClockConfig+0x1bc>)
 8001898:	681b      	ldr	r3, [r3, #0]
 800189a:	f003 0302 	and.w	r3, r3, #2
 800189e:	2b00      	cmp	r3, #0
 80018a0:	d101      	bne.n	80018a6 <HAL_RCC_ClockConfig+0xde>
      {
        return HAL_ERROR;
 80018a2:	2301      	movs	r3, #1
 80018a4:	e067      	b.n	8001976 <HAL_RCC_ClockConfig+0x1ae>
      }
    }

    __HAL_RCC_SYSCLK_CONFIG(RCC_ClkInitStruct->SYSCLKSource);
 80018a6:	4b37      	ldr	r3, [pc, #220]	; (8001984 <HAL_RCC_ClockConfig+0x1bc>)
 80018a8:	689b      	ldr	r3, [r3, #8]
 80018aa:	f023 0203 	bic.w	r2, r3, #3
 80018ae:	687b      	ldr	r3, [r7, #4]
 80018b0:	685b      	ldr	r3, [r3, #4]
 80018b2:	4934      	ldr	r1, [pc, #208]	; (8001984 <HAL_RCC_ClockConfig+0x1bc>)
 80018b4:	4313      	orrs	r3, r2
 80018b6:	608b      	str	r3, [r1, #8]

    /* Get Start Tick */
    tickstart = HAL_GetTick();
 80018b8:	f7ff f9a8 	bl	8000c0c <HAL_GetTick>
 80018bc:	60f8      	str	r0, [r7, #12]

    while (__HAL_RCC_GET_SYSCLK_SOURCE() != (RCC_ClkInitStruct->SYSCLKSource << RCC_CFGR_SWS_Pos))
 80018be:	e00a      	b.n	80018d6 <HAL_RCC_ClockConfig+0x10e>
    {
      if ((HAL_GetTick() - tickstart) > CLOCKSWITCH_TIMEOUT_VALUE)
 80018c0:	f7ff f9a4 	bl	8000c0c <HAL_GetTick>
 80018c4:	4602      	mov	r2, r0
 80018c6:	68fb      	ldr	r3, [r7, #12]
 80018c8:	1ad3      	subs	r3, r2, r3
 80018ca:	f241 3288 	movw	r2, #5000	; 0x1388
 80018ce:	4293      	cmp	r3, r2
 80018d0:	d901      	bls.n	80018d6 <HAL_RCC_ClockConfig+0x10e>
      {
        return HAL_TIMEOUT;
 80018d2:	2303      	movs	r3, #3
 80018d4:	e04f      	b.n	8001976 <HAL_RCC_ClockConfig+0x1ae>
    while (__HAL_RCC_GET_SYSCLK_SOURCE() != (RCC_ClkInitStruct->SYSCLKSource << RCC_CFGR_SWS_Pos))
 80018d6:	4b2b      	ldr	r3, [pc, #172]	; (8001984 <HAL_RCC_ClockConfig+0x1bc>)
 80018d8:	689b      	ldr	r3, [r3, #8]
 80018da:	f003 020c 	and.w	r2, r3, #12
 80018de:	687b      	ldr	r3, [r7, #4]
 80018e0:	685b      	ldr	r3, [r3, #4]
 80018e2:	009b      	lsls	r3, r3, #2
 80018e4:	429a      	cmp	r2, r3
 80018e6:	d1eb      	bne.n	80018c0 <HAL_RCC_ClockConfig+0xf8>
      }
    }
  }

  /* Decreasing the number of wait states because of lower CPU frequency */
  if(FLatency < __HAL_FLASH_GET_LATENCY())
 80018e8:	4b25      	ldr	r3, [pc, #148]	; (8001980 <HAL_RCC_ClockConfig+0x1b8>)
 80018ea:	681b      	ldr	r3, [r3, #0]
 80018ec:	f003 0307 	and.w	r3, r3, #7
 80018f0:	683a      	ldr	r2, [r7, #0]
 80018f2:	429a      	cmp	r2, r3
 80018f4:	d20c      	bcs.n	8001910 <HAL_RCC_ClockConfig+0x148>
  {
     /* Program the new number of wait states to the LATENCY bits in the FLASH_ACR register */
    __HAL_FLASH_SET_LATENCY(FLatency);
 80018f6:	4b22      	ldr	r3, [pc, #136]	; (8001980 <HAL_RCC_ClockConfig+0x1b8>)
 80018f8:	683a      	ldr	r2, [r7, #0]
 80018fa:	b2d2      	uxtb	r2, r2
 80018fc:	701a      	strb	r2, [r3, #0]

    /* Check that the new number of wait states is taken into account to access the Flash
    memory by reading the FLASH_ACR register */
    if(__HAL_FLASH_GET_LATENCY() != FLatency)
 80018fe:	4b20      	ldr	r3, [pc, #128]	; (8001980 <HAL_RCC_ClockConfig+0x1b8>)
 8001900:	681b      	ldr	r3, [r3, #0]
 8001902:	f003 0307 	and.w	r3, r3, #7
 8001906:	683a      	ldr	r2, [r7, #0]
 8001908:	429a      	cmp	r2, r3
 800190a:	d001      	beq.n	8001910 <HAL_RCC_ClockConfig+0x148>
    {
      return HAL_ERROR;
 800190c:	2301      	movs	r3, #1
 800190e:	e032      	b.n	8001976 <HAL_RCC_ClockConfig+0x1ae>
    }
  }

  /*-------------------------- PCLK1 Configuration ---------------------------*/
  if(((RCC_ClkInitStruct->ClockType) & RCC_CLOCKTYPE_PCLK1) == RCC_CLOCKTYPE_PCLK1)
 8001910:	687b      	ldr	r3, [r7, #4]
 8001912:	681b      	ldr	r3, [r3, #0]
 8001914:	f003 0304 	and.w	r3, r3, #4
 8001918:	2b00      	cmp	r3, #0
 800191a:	d008      	beq.n	800192e <HAL_RCC_ClockConfig+0x166>
  {
    assert_param(IS_RCC_PCLK(RCC_ClkInitStruct->APB1CLKDivider));
    MODIFY_REG(RCC->CFGR, RCC_CFGR_PPRE1, RCC_ClkInitStruct->APB1CLKDivider);
 800191c:	4b19      	ldr	r3, [pc, #100]	; (8001984 <HAL_RCC_ClockConfig+0x1bc>)
 800191e:	689b      	ldr	r3, [r3, #8]
 8001920:	f423 52e0 	bic.w	r2, r3, #7168	; 0x1c00
 8001924:	687b      	ldr	r3, [r7, #4]
 8001926:	68db      	ldr	r3, [r3, #12]
 8001928:	4916      	ldr	r1, [pc, #88]	; (8001984 <HAL_RCC_ClockConfig+0x1bc>)
 800192a:	4313      	orrs	r3, r2
 800192c:	608b      	str	r3, [r1, #8]
  }

  /*-------------------------- PCLK2 Configuration ---------------------------*/
  if(((RCC_ClkInitStruct->ClockType) & RCC_CLOCKTYPE_PCLK2) == RCC_CLOCKTYPE_PCLK2)
 800192e:	687b      	ldr	r3, [r7, #4]
 8001930:	681b      	ldr	r3, [r3, #0]
 8001932:	f003 0308 	and.w	r3, r3, #8
 8001936:	2b00      	cmp	r3, #0
 8001938:	d009      	beq.n	800194e <HAL_RCC_ClockConfig+0x186>
  {
    assert_param(IS_RCC_PCLK(RCC_ClkInitStruct->APB2CLKDivider));
    MODIFY_REG(RCC->CFGR, RCC_CFGR_PPRE2, ((RCC_ClkInitStruct->APB2CLKDivider) << 3U));
 800193a:	4b12      	ldr	r3, [pc, #72]	; (8001984 <HAL_RCC_ClockConfig+0x1bc>)
 800193c:	689b      	ldr	r3, [r3, #8]
 800193e:	f423 4260 	bic.w	r2, r3, #57344	; 0xe000
 8001942:	687b      	ldr	r3, [r7, #4]
 8001944:	691b      	ldr	r3, [r3, #16]
 8001946:	00db      	lsls	r3, r3, #3
 8001948:	490e      	ldr	r1, [pc, #56]	; (8001984 <HAL_RCC_ClockConfig+0x1bc>)
 800194a:	4313      	orrs	r3, r2
 800194c:	608b      	str	r3, [r1, #8]
  }

  /* Update the SystemCoreClock global variable */
  SystemCoreClock = HAL_RCC_GetSysClockFreq() >> AHBPrescTable[(RCC->CFGR & RCC_CFGR_HPRE)>> RCC_CFGR_HPRE_Pos];
 800194e:	f000 f821 	bl	8001994 <HAL_RCC_GetSysClockFreq>
 8001952:	4602      	mov	r2, r0
 8001954:	4b0b      	ldr	r3, [pc, #44]	; (8001984 <HAL_RCC_ClockConfig+0x1bc>)
 8001956:	689b      	ldr	r3, [r3, #8]
 8001958:	091b      	lsrs	r3, r3, #4
 800195a:	f003 030f 	and.w	r3, r3, #15
 800195e:	490a      	ldr	r1, [pc, #40]	; (8001988 <HAL_RCC_ClockConfig+0x1c0>)
 8001960:	5ccb      	ldrb	r3, [r1, r3]
 8001962:	fa22 f303 	lsr.w	r3, r2, r3
 8001966:	4a09      	ldr	r2, [pc, #36]	; (800198c <HAL_RCC_ClockConfig+0x1c4>)
 8001968:	6013      	str	r3, [r2, #0]

  /* Configure the source of time base considering new system clocks settings */
  HAL_InitTick (uwTickPrio);
 800196a:	4b09      	ldr	r3, [pc, #36]	; (8001990 <HAL_RCC_ClockConfig+0x1c8>)
 800196c:	681b      	ldr	r3, [r3, #0]
 800196e:	4618      	mov	r0, r3
 8001970:	f7ff f908 	bl	8000b84 <HAL_InitTick>

  return HAL_OK;
 8001974:	2300      	movs	r3, #0
}
 8001976:	4618      	mov	r0, r3
 8001978:	3710      	adds	r7, #16
 800197a:	46bd      	mov	sp, r7
 800197c:	bd80      	pop	{r7, pc}
 800197e:	bf00      	nop
 8001980:	40023c00 	.word	0x40023c00
 8001984:	40023800 	.word	0x40023800
 8001988:	080034f4 	.word	0x080034f4
 800198c:	20000004 	.word	0x20000004
 8001990:	20000008 	.word	0x20000008

08001994 <HAL_RCC_GetSysClockFreq>:
  *
  *
  * @retval SYSCLK frequency
  */
__weak uint32_t HAL_RCC_GetSysClockFreq(void)
{
 8001994:	e92d 4fb0 	stmdb	sp!, {r4, r5, r7, r8, r9, sl, fp, lr}
 8001998:	b094      	sub	sp, #80	; 0x50
 800199a:	af00      	add	r7, sp, #0
  uint32_t pllm = 0U, pllvco = 0U, pllp = 0U;
 800199c:	2300      	movs	r3, #0
 800199e:	647b      	str	r3, [r7, #68]	; 0x44
 80019a0:	2300      	movs	r3, #0
 80019a2:	64fb      	str	r3, [r7, #76]	; 0x4c
 80019a4:	2300      	movs	r3, #0
 80019a6:	643b      	str	r3, [r7, #64]	; 0x40
  uint32_t sysclockfreq = 0U;
 80019a8:	2300      	movs	r3, #0
 80019aa:	64bb      	str	r3, [r7, #72]	; 0x48

  /* Get SYSCLK source -------------------------------------------------------*/
  switch (RCC->CFGR & RCC_CFGR_SWS)
 80019ac:	4b79      	ldr	r3, [pc, #484]	; (8001b94 <HAL_RCC_GetSysClockFreq+0x200>)
 80019ae:	689b      	ldr	r3, [r3, #8]
 80019b0:	f003 030c 	and.w	r3, r3, #12
 80019b4:	2b08      	cmp	r3, #8
 80019b6:	d00d      	beq.n	80019d4 <HAL_RCC_GetSysClockFreq+0x40>
 80019b8:	2b08      	cmp	r3, #8
 80019ba:	f200 80e1 	bhi.w	8001b80 <HAL_RCC_GetSysClockFreq+0x1ec>
 80019be:	2b00      	cmp	r3, #0
 80019c0:	d002      	beq.n	80019c8 <HAL_RCC_GetSysClockFreq+0x34>
 80019c2:	2b04      	cmp	r3, #4
 80019c4:	d003      	beq.n	80019ce <HAL_RCC_GetSysClockFreq+0x3a>
 80019c6:	e0db      	b.n	8001b80 <HAL_RCC_GetSysClockFreq+0x1ec>
  {
    case RCC_CFGR_SWS_HSI:  /* HSI used as system clock source */
    {
      sysclockfreq = HSI_VALUE;
 80019c8:	4b73      	ldr	r3, [pc, #460]	; (8001b98 <HAL_RCC_GetSysClockFreq+0x204>)
 80019ca:	64bb      	str	r3, [r7, #72]	; 0x48
       break;
 80019cc:	e0db      	b.n	8001b86 <HAL_RCC_GetSysClockFreq+0x1f2>
    }
    case RCC_CFGR_SWS_HSE:  /* HSE used as system clock  source */
    {
      sysclockfreq = HSE_VALUE;
 80019ce:	4b73      	ldr	r3, [pc, #460]	; (8001b9c <HAL_RCC_GetSysClockFreq+0x208>)
 80019d0:	64bb      	str	r3, [r7, #72]	; 0x48
      break;
 80019d2:	e0d8      	b.n	8001b86 <HAL_RCC_GetSysClockFreq+0x1f2>
    }
    case RCC_CFGR_SWS_PLL:  /* PLL used as system clock  source */
    {
      /* PLL_VCO = (HSE_VALUE or HSI_VALUE / PLLM) * PLLN
      SYSCLK = PLL_VCO / PLLP */
      pllm = RCC->PLLCFGR & RCC_PLLCFGR_PLLM;
 80019d4:	4b6f      	ldr	r3, [pc, #444]	; (8001b94 <HAL_RCC_GetSysClockFreq+0x200>)
 80019d6:	685b      	ldr	r3, [r3, #4]
 80019d8:	f003 033f 	and.w	r3, r3, #63	; 0x3f
 80019dc:	647b      	str	r3, [r7, #68]	; 0x44
      if(__HAL_RCC_GET_PLL_OSCSOURCE() != RCC_PLLSOURCE_HSI)
 80019de:	4b6d      	ldr	r3, [pc, #436]	; (8001b94 <HAL_RCC_GetSysClockFreq+0x200>)
 80019e0:	685b      	ldr	r3, [r3, #4]
 80019e2:	f403 0380 	and.w	r3, r3, #4194304	; 0x400000
 80019e6:	2b00      	cmp	r3, #0
 80019e8:	d063      	beq.n	8001ab2 <HAL_RCC_GetSysClockFreq+0x11e>
      {
        /* HSE used as PLL clock source */
        pllvco = (uint32_t) ((((uint64_t) HSE_VALUE * ((uint64_t) ((RCC->PLLCFGR & RCC_PLLCFGR_PLLN) >> RCC_PLLCFGR_PLLN_Pos)))) / (uint64_t)pllm);
 80019ea:	4b6a      	ldr	r3, [pc, #424]	; (8001b94 <HAL_RCC_GetSysClockFreq+0x200>)
 80019ec:	685b      	ldr	r3, [r3, #4]
 80019ee:	099b      	lsrs	r3, r3, #6
 80019f0:	2200      	movs	r2, #0
 80019f2:	63bb      	str	r3, [r7, #56]	; 0x38
 80019f4:	63fa      	str	r2, [r7, #60]	; 0x3c
 80019f6:	6bbb      	ldr	r3, [r7, #56]	; 0x38
 80019f8:	f3c3 0308 	ubfx	r3, r3, #0, #9
 80019fc:	633b      	str	r3, [r7, #48]	; 0x30
 80019fe:	2300      	movs	r3, #0
 8001a00:	637b      	str	r3, [r7, #52]	; 0x34
 8001a02:	e9d7 450c 	ldrd	r4, r5, [r7, #48]	; 0x30
 8001a06:	4622      	mov	r2, r4
 8001a08:	462b      	mov	r3, r5
 8001a0a:	f04f 0000 	mov.w	r0, #0
 8001a0e:	f04f 0100 	mov.w	r1, #0
 8001a12:	0159      	lsls	r1, r3, #5
 8001a14:	ea41 61d2 	orr.w	r1, r1, r2, lsr #27
 8001a18:	0150      	lsls	r0, r2, #5
 8001a1a:	4602      	mov	r2, r0
 8001a1c:	460b      	mov	r3, r1
 8001a1e:	4621      	mov	r1, r4
 8001a20:	1a51      	subs	r1, r2, r1
 8001a22:	6139      	str	r1, [r7, #16]
 8001a24:	4629      	mov	r1, r5
 8001a26:	eb63 0301 	sbc.w	r3, r3, r1
 8001a2a:	617b      	str	r3, [r7, #20]
 8001a2c:	f04f 0200 	mov.w	r2, #0
 8001a30:	f04f 0300 	mov.w	r3, #0
 8001a34:	e9d7 ab04 	ldrd	sl, fp, [r7, #16]
 8001a38:	4659      	mov	r1, fp
 8001a3a:	018b      	lsls	r3, r1, #6
 8001a3c:	4651      	mov	r1, sl
 8001a3e:	ea43 6391 	orr.w	r3, r3, r1, lsr #26
 8001a42:	4651      	mov	r1, sl
 8001a44:	018a      	lsls	r2, r1, #6
 8001a46:	4651      	mov	r1, sl
 8001a48:	ebb2 0801 	subs.w	r8, r2, r1
 8001a4c:	4659      	mov	r1, fp
 8001a4e:	eb63 0901 	sbc.w	r9, r3, r1
 8001a52:	f04f 0200 	mov.w	r2, #0
 8001a56:	f04f 0300 	mov.w	r3, #0
 8001a5a:	ea4f 03c9 	mov.w	r3, r9, lsl #3
 8001a5e:	ea43 7358 	orr.w	r3, r3, r8, lsr #29
 8001a62:	ea4f 02c8 	mov.w	r2, r8, lsl #3
 8001a66:	4690      	mov	r8, r2
 8001a68:	4699      	mov	r9, r3
 8001a6a:	4623      	mov	r3, r4
 8001a6c:	eb18 0303 	adds.w	r3, r8, r3
 8001a70:	60bb      	str	r3, [r7, #8]
 8001a72:	462b      	mov	r3, r5
 8001a74:	eb49 0303 	adc.w	r3, r9, r3
 8001a78:	60fb      	str	r3, [r7, #12]
 8001a7a:	f04f 0200 	mov.w	r2, #0
 8001a7e:	f04f 0300 	mov.w	r3, #0
 8001a82:	e9d7 4502 	ldrd	r4, r5, [r7, #8]
 8001a86:	4629      	mov	r1, r5
 8001a88:	024b      	lsls	r3, r1, #9
 8001a8a:	4621      	mov	r1, r4
 8001a8c:	ea43 53d1 	orr.w	r3, r3, r1, lsr #23
 8001a90:	4621      	mov	r1, r4
 8001a92:	024a      	lsls	r2, r1, #9
 8001a94:	4610      	mov	r0, r2
 8001a96:	4619      	mov	r1, r3
 8001a98:	6c7b      	ldr	r3, [r7, #68]	; 0x44
 8001a9a:	2200      	movs	r2, #0
 8001a9c:	62bb      	str	r3, [r7, #40]	; 0x28
 8001a9e:	62fa      	str	r2, [r7, #44]	; 0x2c
 8001aa0:	e9d7 230a 	ldrd	r2, r3, [r7, #40]	; 0x28
 8001aa4:	f7fe fb90 	bl	80001c8 <__aeabi_uldivmod>
 8001aa8:	4602      	mov	r2, r0
 8001aaa:	460b      	mov	r3, r1
 8001aac:	4613      	mov	r3, r2
 8001aae:	64fb      	str	r3, [r7, #76]	; 0x4c
 8001ab0:	e058      	b.n	8001b64 <HAL_RCC_GetSysClockFreq+0x1d0>
      }
      else
      {
        /* HSI used as PLL clock source */
        pllvco = (uint32_t) ((((uint64_t) HSI_VALUE * ((uint64_t) ((RCC->PLLCFGR & RCC_PLLCFGR_PLLN) >> RCC_PLLCFGR_PLLN_Pos)))) / (uint64_t)pllm);
 8001ab2:	4b38      	ldr	r3, [pc, #224]	; (8001b94 <HAL_RCC_GetSysClockFreq+0x200>)
 8001ab4:	685b      	ldr	r3, [r3, #4]
 8001ab6:	099b      	lsrs	r3, r3, #6
 8001ab8:	2200      	movs	r2, #0
 8001aba:	4618      	mov	r0, r3
 8001abc:	4611      	mov	r1, r2
 8001abe:	f3c0 0308 	ubfx	r3, r0, #0, #9
 8001ac2:	623b      	str	r3, [r7, #32]
 8001ac4:	2300      	movs	r3, #0
 8001ac6:	627b      	str	r3, [r7, #36]	; 0x24
 8001ac8:	e9d7 8908 	ldrd	r8, r9, [r7, #32]
 8001acc:	4642      	mov	r2, r8
 8001ace:	464b      	mov	r3, r9
 8001ad0:	f04f 0000 	mov.w	r0, #0
 8001ad4:	f04f 0100 	mov.w	r1, #0
 8001ad8:	0159      	lsls	r1, r3, #5
 8001ada:	ea41 61d2 	orr.w	r1, r1, r2, lsr #27
 8001ade:	0150      	lsls	r0, r2, #5
 8001ae0:	4602      	mov	r2, r0
 8001ae2:	460b      	mov	r3, r1
 8001ae4:	4641      	mov	r1, r8
 8001ae6:	ebb2 0a01 	subs.w	sl, r2, r1
 8001aea:	4649      	mov	r1, r9
 8001aec:	eb63 0b01 	sbc.w	fp, r3, r1
 8001af0:	f04f 0200 	mov.w	r2, #0
 8001af4:	f04f 0300 	mov.w	r3, #0
 8001af8:	ea4f 138b 	mov.w	r3, fp, lsl #6
 8001afc:	ea43 639a 	orr.w	r3, r3, sl, lsr #26
 8001b00:	ea4f 128a 	mov.w	r2, sl, lsl #6
 8001b04:	ebb2 040a 	subs.w	r4, r2, sl
 8001b08:	eb63 050b 	sbc.w	r5, r3, fp
 8001b0c:	f04f 0200 	mov.w	r2, #0
 8001b10:	f04f 0300 	mov.w	r3, #0
 8001b14:	00eb      	lsls	r3, r5, #3
 8001b16:	ea43 7354 	orr.w	r3, r3, r4, lsr #29
 8001b1a:	00e2      	lsls	r2, r4, #3
 8001b1c:	4614      	mov	r4, r2
 8001b1e:	461d      	mov	r5, r3
 8001b20:	4643      	mov	r3, r8
 8001b22:	18e3      	adds	r3, r4, r3
 8001b24:	603b      	str	r3, [r7, #0]
 8001b26:	464b      	mov	r3, r9
 8001b28:	eb45 0303 	adc.w	r3, r5, r3
 8001b2c:	607b      	str	r3, [r7, #4]
 8001b2e:	f04f 0200 	mov.w	r2, #0
 8001b32:	f04f 0300 	mov.w	r3, #0
 8001b36:	e9d7 4500 	ldrd	r4, r5, [r7]
 8001b3a:	4629      	mov	r1, r5
 8001b3c:	028b      	lsls	r3, r1, #10
 8001b3e:	4621      	mov	r1, r4
 8001b40:	ea43 5391 	orr.w	r3, r3, r1, lsr #22
 8001b44:	4621      	mov	r1, r4
 8001b46:	028a      	lsls	r2, r1, #10
 8001b48:	4610      	mov	r0, r2
 8001b4a:	4619      	mov	r1, r3
 8001b4c:	6c7b      	ldr	r3, [r7, #68]	; 0x44
 8001b4e:	2200      	movs	r2, #0
 8001b50:	61bb      	str	r3, [r7, #24]
 8001b52:	61fa      	str	r2, [r7, #28]
 8001b54:	e9d7 2306 	ldrd	r2, r3, [r7, #24]
 8001b58:	f7fe fb36 	bl	80001c8 <__aeabi_uldivmod>
 8001b5c:	4602      	mov	r2, r0
 8001b5e:	460b      	mov	r3, r1
 8001b60:	4613      	mov	r3, r2
 8001b62:	64fb      	str	r3, [r7, #76]	; 0x4c
      }
      pllp = ((((RCC->PLLCFGR & RCC_PLLCFGR_PLLP) >> RCC_PLLCFGR_PLLP_Pos) + 1U) *2U);
 8001b64:	4b0b      	ldr	r3, [pc, #44]	; (8001b94 <HAL_RCC_GetSysClockFreq+0x200>)
 8001b66:	685b      	ldr	r3, [r3, #4]
 8001b68:	0c1b      	lsrs	r3, r3, #16
 8001b6a:	f003 0303 	and.w	r3, r3, #3
 8001b6e:	3301      	adds	r3, #1
 8001b70:	005b      	lsls	r3, r3, #1
 8001b72:	643b      	str	r3, [r7, #64]	; 0x40

      sysclockfreq = pllvco/pllp;
 8001b74:	6cfa      	ldr	r2, [r7, #76]	; 0x4c
 8001b76:	6c3b      	ldr	r3, [r7, #64]	; 0x40
 8001b78:	fbb2 f3f3 	udiv	r3, r2, r3
 8001b7c:	64bb      	str	r3, [r7, #72]	; 0x48
      break;
 8001b7e:	e002      	b.n	8001b86 <HAL_RCC_GetSysClockFreq+0x1f2>
    }
    default:
    {
      sysclockfreq = HSI_VALUE;
 8001b80:	4b05      	ldr	r3, [pc, #20]	; (8001b98 <HAL_RCC_GetSysClockFreq+0x204>)
 8001b82:	64bb      	str	r3, [r7, #72]	; 0x48
      break;
 8001b84:	bf00      	nop
    }
  }
  return sysclockfreq;
 8001b86:	6cbb      	ldr	r3, [r7, #72]	; 0x48
}
 8001b88:	4618      	mov	r0, r3
 8001b8a:	3750      	adds	r7, #80	; 0x50
 8001b8c:	46bd      	mov	sp, r7
 8001b8e:	e8bd 8fb0 	ldmia.w	sp!, {r4, r5, r7, r8, r9, sl, fp, pc}
 8001b92:	bf00      	nop
 8001b94:	40023800 	.word	0x40023800
 8001b98:	00f42400 	.word	0x00f42400
 8001b9c:	007a1200 	.word	0x007a1200

08001ba0 <HAL_RCC_GetHCLKFreq>:
  * @note   The SystemCoreClock CMSIS variable is used to store System Clock Frequency
  *         and updated within this function
  * @retval HCLK frequency
  */
uint32_t HAL_RCC_GetHCLKFreq(void)
{
 8001ba0:	b480      	push	{r7}
 8001ba2:	af00      	add	r7, sp, #0
  return SystemCoreClock;
 8001ba4:	4b03      	ldr	r3, [pc, #12]	; (8001bb4 <HAL_RCC_GetHCLKFreq+0x14>)
 8001ba6:	681b      	ldr	r3, [r3, #0]
}
 8001ba8:	4618      	mov	r0, r3
 8001baa:	46bd      	mov	sp, r7
 8001bac:	f85d 7b04 	ldr.w	r7, [sp], #4
 8001bb0:	4770      	bx	lr
 8001bb2:	bf00      	nop
 8001bb4:	20000004 	.word	0x20000004

08001bb8 <HAL_RCC_GetPCLK1Freq>:
  * @note   Each time PCLK1 changes, this function must be called to update the
  *         right PCLK1 value. Otherwise, any configuration based on this function will be incorrect.
  * @retval PCLK1 frequency
  */
uint32_t HAL_RCC_GetPCLK1Freq(void)
{
 8001bb8:	b580      	push	{r7, lr}
 8001bba:	af00      	add	r7, sp, #0
  /* Get HCLK source and Compute PCLK1 frequency ---------------------------*/
  return (HAL_RCC_GetHCLKFreq() >> APBPrescTable[(RCC->CFGR & RCC_CFGR_PPRE1)>> RCC_CFGR_PPRE1_Pos]);
 8001bbc:	f7ff fff0 	bl	8001ba0 <HAL_RCC_GetHCLKFreq>
 8001bc0:	4602      	mov	r2, r0
 8001bc2:	4b05      	ldr	r3, [pc, #20]	; (8001bd8 <HAL_RCC_GetPCLK1Freq+0x20>)
 8001bc4:	689b      	ldr	r3, [r3, #8]
 8001bc6:	0a9b      	lsrs	r3, r3, #10
 8001bc8:	f003 0307 	and.w	r3, r3, #7
 8001bcc:	4903      	ldr	r1, [pc, #12]	; (8001bdc <HAL_RCC_GetPCLK1Freq+0x24>)
 8001bce:	5ccb      	ldrb	r3, [r1, r3]
 8001bd0:	fa22 f303 	lsr.w	r3, r2, r3
}
 8001bd4:	4618      	mov	r0, r3
 8001bd6:	bd80      	pop	{r7, pc}
 8001bd8:	40023800 	.word	0x40023800
 8001bdc:	08003504 	.word	0x08003504

08001be0 <HAL_RCC_GetPCLK2Freq>:
  * @note   Each time PCLK2 changes, this function must be called to update the
  *         right PCLK2 value. Otherwise, any configuration based on this function will be incorrect.
  * @retval PCLK2 frequency
  */
uint32_t HAL_RCC_GetPCLK2Freq(void)
{
 8001be0:	b580      	push	{r7, lr}
 8001be2:	af00      	add	r7, sp, #0
  /* Get HCLK source and Compute PCLK2 frequency ---------------------------*/
  return (HAL_RCC_GetHCLKFreq()>> APBPrescTable[(RCC->CFGR & RCC_CFGR_PPRE2)>> RCC_CFGR_PPRE2_Pos]);
 8001be4:	f7ff ffdc 	bl	8001ba0 <HAL_RCC_GetHCLKFreq>
 8001be8:	4602      	mov	r2, r0
 8001bea:	4b05      	ldr	r3, [pc, #20]	; (8001c00 <HAL_RCC_GetPCLK2Freq+0x20>)
 8001bec:	689b      	ldr	r3, [r3, #8]
 8001bee:	0b5b      	lsrs	r3, r3, #13
 8001bf0:	f003 0307 	and.w	r3, r3, #7
 8001bf4:	4903      	ldr	r1, [pc, #12]	; (8001c04 <HAL_RCC_GetPCLK2Freq+0x24>)
 8001bf6:	5ccb      	ldrb	r3, [r1, r3]
 8001bf8:	fa22 f303 	lsr.w	r3, r2, r3
}
 8001bfc:	4618      	mov	r0, r3
 8001bfe:	bd80      	pop	{r7, pc}
 8001c00:	40023800 	.word	0x40023800
 8001c04:	08003504 	.word	0x08003504

08001c08 <HAL_TIM_Base_Init>:
  *         Ex: call @ref HAL_TIM_Base_DeInit() before HAL_TIM_Base_Init()
  * @param  htim TIM Base handle
  * @retval HAL status
  */
HAL_StatusTypeDef HAL_TIM_Base_Init(TIM_HandleTypeDef *htim)
{
 8001c08:	b580      	push	{r7, lr}
 8001c0a:	b082      	sub	sp, #8
 8001c0c:	af00      	add	r7, sp, #0
 8001c0e:	6078      	str	r0, [r7, #4]
  /* Check the TIM handle allocation */
  if (htim == NULL)
 8001c10:	687b      	ldr	r3, [r7, #4]
 8001c12:	2b00      	cmp	r3, #0
 8001c14:	d101      	bne.n	8001c1a <HAL_TIM_Base_Init+0x12>
  {
    return HAL_ERROR;
 8001c16:	2301      	movs	r3, #1
 8001c18:	e041      	b.n	8001c9e <HAL_TIM_Base_Init+0x96>
  assert_param(IS_TIM_INSTANCE(htim->Instance));
  assert_param(IS_TIM_COUNTER_MODE(htim->Init.CounterMode));
  assert_param(IS_TIM_CLOCKDIVISION_DIV(htim->Init.ClockDivision));
  assert_param(IS_TIM_AUTORELOAD_PRELOAD(htim->Init.AutoReloadPreload));

  if (htim->State == HAL_TIM_STATE_RESET)
 8001c1a:	687b      	ldr	r3, [r7, #4]
 8001c1c:	f893 303d 	ldrb.w	r3, [r3, #61]	; 0x3d
 8001c20:	b2db      	uxtb	r3, r3
 8001c22:	2b00      	cmp	r3, #0
 8001c24:	d106      	bne.n	8001c34 <HAL_TIM_Base_Init+0x2c>
  {
    /* Allocate lock resource and initialize it */
    htim->Lock = HAL_UNLOCKED;
 8001c26:	687b      	ldr	r3, [r7, #4]
 8001c28:	2200      	movs	r2, #0
 8001c2a:	f883 203c 	strb.w	r2, [r3, #60]	; 0x3c
    }
    /* Init the low level hardware : GPIO, CLOCK, NVIC */
    htim->Base_MspInitCallback(htim);
#else
    /* Init the low level hardware : GPIO, CLOCK, NVIC */
    HAL_TIM_Base_MspInit(htim);
 8001c2e:	6878      	ldr	r0, [r7, #4]
 8001c30:	f7fe fe4c 	bl	80008cc <HAL_TIM_Base_MspInit>
#endif /* USE_HAL_TIM_REGISTER_CALLBACKS */
  }

  /* Set the TIM state */
  htim->State = HAL_TIM_STATE_BUSY;
 8001c34:	687b      	ldr	r3, [r7, #4]
 8001c36:	2202      	movs	r2, #2
 8001c38:	f883 203d 	strb.w	r2, [r3, #61]	; 0x3d

  /* Set the Time Base configuration */
  TIM_Base_SetConfig(htim->Instance, &htim->Init);
 8001c3c:	687b      	ldr	r3, [r7, #4]
 8001c3e:	681a      	ldr	r2, [r3, #0]
 8001c40:	687b      	ldr	r3, [r7, #4]
 8001c42:	3304      	adds	r3, #4
 8001c44:	4619      	mov	r1, r3
 8001c46:	4610      	mov	r0, r2
 8001c48:	f000 fa96 	bl	8002178 <TIM_Base_SetConfig>

  /* Initialize the DMA burst operation state */
  htim->DMABurstState = HAL_DMA_BURST_STATE_READY;
 8001c4c:	687b      	ldr	r3, [r7, #4]
 8001c4e:	2201      	movs	r2, #1
 8001c50:	f883 2046 	strb.w	r2, [r3, #70]	; 0x46

  /* Initialize the TIM channels state */
  TIM_CHANNEL_STATE_SET_ALL(htim, HAL_TIM_CHANNEL_STATE_READY);
 8001c54:	687b      	ldr	r3, [r7, #4]
 8001c56:	2201      	movs	r2, #1
 8001c58:	f883 203e 	strb.w	r2, [r3, #62]	; 0x3e
 8001c5c:	687b      	ldr	r3, [r7, #4]
 8001c5e:	2201      	movs	r2, #1
 8001c60:	f883 203f 	strb.w	r2, [r3, #63]	; 0x3f
 8001c64:	687b      	ldr	r3, [r7, #4]
 8001c66:	2201      	movs	r2, #1
 8001c68:	f883 2040 	strb.w	r2, [r3, #64]	; 0x40
 8001c6c:	687b      	ldr	r3, [r7, #4]
 8001c6e:	2201      	movs	r2, #1
 8001c70:	f883 2041 	strb.w	r2, [r3, #65]	; 0x41
  TIM_CHANNEL_N_STATE_SET_ALL(htim, HAL_TIM_CHANNEL_STATE_READY);
 8001c74:	687b      	ldr	r3, [r7, #4]
 8001c76:	2201      	movs	r2, #1
 8001c78:	f883 2042 	strb.w	r2, [r3, #66]	; 0x42
 8001c7c:	687b      	ldr	r3, [r7, #4]
 8001c7e:	2201      	movs	r2, #1
 8001c80:	f883 2043 	strb.w	r2, [r3, #67]	; 0x43
 8001c84:	687b      	ldr	r3, [r7, #4]
 8001c86:	2201      	movs	r2, #1
 8001c88:	f883 2044 	strb.w	r2, [r3, #68]	; 0x44
 8001c8c:	687b      	ldr	r3, [r7, #4]
 8001c8e:	2201      	movs	r2, #1
 8001c90:	f883 2045 	strb.w	r2, [r3, #69]	; 0x45

  /* Initialize the TIM state*/
  htim->State = HAL_TIM_STATE_READY;
 8001c94:	687b      	ldr	r3, [r7, #4]
 8001c96:	2201      	movs	r2, #1
 8001c98:	f883 203d 	strb.w	r2, [r3, #61]	; 0x3d

  return HAL_OK;
 8001c9c:	2300      	movs	r3, #0
}
 8001c9e:	4618      	mov	r0, r3
 8001ca0:	3708      	adds	r7, #8
 8001ca2:	46bd      	mov	sp, r7
 8001ca4:	bd80      	pop	{r7, pc}
	...

08001ca8 <HAL_TIM_Base_Start_IT>:
  * @brief  Starts the TIM Base generation in interrupt mode.
  * @param  htim TIM Base handle
  * @retval HAL status
  */
HAL_StatusTypeDef HAL_TIM_Base_Start_IT(TIM_HandleTypeDef *htim)
{
 8001ca8:	b480      	push	{r7}
 8001caa:	b085      	sub	sp, #20
 8001cac:	af00      	add	r7, sp, #0
 8001cae:	6078      	str	r0, [r7, #4]

  /* Check the parameters */
  assert_param(IS_TIM_INSTANCE(htim->Instance));

  /* Check the TIM state */
  if (htim->State != HAL_TIM_STATE_READY)
 8001cb0:	687b      	ldr	r3, [r7, #4]
 8001cb2:	f893 303d 	ldrb.w	r3, [r3, #61]	; 0x3d
 8001cb6:	b2db      	uxtb	r3, r3
 8001cb8:	2b01      	cmp	r3, #1
 8001cba:	d001      	beq.n	8001cc0 <HAL_TIM_Base_Start_IT+0x18>
  {
    return HAL_ERROR;
 8001cbc:	2301      	movs	r3, #1
 8001cbe:	e04e      	b.n	8001d5e <HAL_TIM_Base_Start_IT+0xb6>
  }

  /* Set the TIM state */
  htim->State = HAL_TIM_STATE_BUSY;
 8001cc0:	687b      	ldr	r3, [r7, #4]
 8001cc2:	2202      	movs	r2, #2
 8001cc4:	f883 203d 	strb.w	r2, [r3, #61]	; 0x3d

  /* Enable the TIM Update interrupt */
  __HAL_TIM_ENABLE_IT(htim, TIM_IT_UPDATE);
 8001cc8:	687b      	ldr	r3, [r7, #4]
 8001cca:	681b      	ldr	r3, [r3, #0]
 8001ccc:	68da      	ldr	r2, [r3, #12]
 8001cce:	687b      	ldr	r3, [r7, #4]
 8001cd0:	681b      	ldr	r3, [r3, #0]
 8001cd2:	f042 0201 	orr.w	r2, r2, #1
 8001cd6:	60da      	str	r2, [r3, #12]

  /* Enable the Peripheral, except in trigger mode where enable is automatically done with trigger */
  if (IS_TIM_SLAVE_INSTANCE(htim->Instance))
 8001cd8:	687b      	ldr	r3, [r7, #4]
 8001cda:	681b      	ldr	r3, [r3, #0]
 8001cdc:	4a23      	ldr	r2, [pc, #140]	; (8001d6c <HAL_TIM_Base_Start_IT+0xc4>)
 8001cde:	4293      	cmp	r3, r2
 8001ce0:	d022      	beq.n	8001d28 <HAL_TIM_Base_Start_IT+0x80>
 8001ce2:	687b      	ldr	r3, [r7, #4]
 8001ce4:	681b      	ldr	r3, [r3, #0]
 8001ce6:	f1b3 4f80 	cmp.w	r3, #1073741824	; 0x40000000
 8001cea:	d01d      	beq.n	8001d28 <HAL_TIM_Base_Start_IT+0x80>
 8001cec:	687b      	ldr	r3, [r7, #4]
 8001cee:	681b      	ldr	r3, [r3, #0]
 8001cf0:	4a1f      	ldr	r2, [pc, #124]	; (8001d70 <HAL_TIM_Base_Start_IT+0xc8>)
 8001cf2:	4293      	cmp	r3, r2
 8001cf4:	d018      	beq.n	8001d28 <HAL_TIM_Base_Start_IT+0x80>
 8001cf6:	687b      	ldr	r3, [r7, #4]
 8001cf8:	681b      	ldr	r3, [r3, #0]
 8001cfa:	4a1e      	ldr	r2, [pc, #120]	; (8001d74 <HAL_TIM_Base_Start_IT+0xcc>)
 8001cfc:	4293      	cmp	r3, r2
 8001cfe:	d013      	beq.n	8001d28 <HAL_TIM_Base_Start_IT+0x80>
 8001d00:	687b      	ldr	r3, [r7, #4]
 8001d02:	681b      	ldr	r3, [r3, #0]
 8001d04:	4a1c      	ldr	r2, [pc, #112]	; (8001d78 <HAL_TIM_Base_Start_IT+0xd0>)
 8001d06:	4293      	cmp	r3, r2
 8001d08:	d00e      	beq.n	8001d28 <HAL_TIM_Base_Start_IT+0x80>
 8001d0a:	687b      	ldr	r3, [r7, #4]
 8001d0c:	681b      	ldr	r3, [r3, #0]
 8001d0e:	4a1b      	ldr	r2, [pc, #108]	; (8001d7c <HAL_TIM_Base_Start_IT+0xd4>)
 8001d10:	4293      	cmp	r3, r2
 8001d12:	d009      	beq.n	8001d28 <HAL_TIM_Base_Start_IT+0x80>
 8001d14:	687b      	ldr	r3, [r7, #4]
 8001d16:	681b      	ldr	r3, [r3, #0]
 8001d18:	4a19      	ldr	r2, [pc, #100]	; (8001d80 <HAL_TIM_Base_Start_IT+0xd8>)
 8001d1a:	4293      	cmp	r3, r2
 8001d1c:	d004      	beq.n	8001d28 <HAL_TIM_Base_Start_IT+0x80>
 8001d1e:	687b      	ldr	r3, [r7, #4]
 8001d20:	681b      	ldr	r3, [r3, #0]
 8001d22:	4a18      	ldr	r2, [pc, #96]	; (8001d84 <HAL_TIM_Base_Start_IT+0xdc>)
 8001d24:	4293      	cmp	r3, r2
 8001d26:	d111      	bne.n	8001d4c <HAL_TIM_Base_Start_IT+0xa4>
  {
    tmpsmcr = htim->Instance->SMCR & TIM_SMCR_SMS;
 8001d28:	687b      	ldr	r3, [r7, #4]
 8001d2a:	681b      	ldr	r3, [r3, #0]
 8001d2c:	689b      	ldr	r3, [r3, #8]
 8001d2e:	f003 0307 	and.w	r3, r3, #7
 8001d32:	60fb      	str	r3, [r7, #12]
    if (!IS_TIM_SLAVEMODE_TRIGGER_ENABLED(tmpsmcr))
 8001d34:	68fb      	ldr	r3, [r7, #12]
 8001d36:	2b06      	cmp	r3, #6
 8001d38:	d010      	beq.n	8001d5c <HAL_TIM_Base_Start_IT+0xb4>
    {
      __HAL_TIM_ENABLE(htim);
 8001d3a:	687b      	ldr	r3, [r7, #4]
 8001d3c:	681b      	ldr	r3, [r3, #0]
 8001d3e:	681a      	ldr	r2, [r3, #0]
 8001d40:	687b      	ldr	r3, [r7, #4]
 8001d42:	681b      	ldr	r3, [r3, #0]
 8001d44:	f042 0201 	orr.w	r2, r2, #1
 8001d48:	601a      	str	r2, [r3, #0]
    if (!IS_TIM_SLAVEMODE_TRIGGER_ENABLED(tmpsmcr))
 8001d4a:	e007      	b.n	8001d5c <HAL_TIM_Base_Start_IT+0xb4>
    }
  }
  else
  {
    __HAL_TIM_ENABLE(htim);
 8001d4c:	687b      	ldr	r3, [r7, #4]
 8001d4e:	681b      	ldr	r3, [r3, #0]
 8001d50:	681a      	ldr	r2, [r3, #0]
 8001d52:	687b      	ldr	r3, [r7, #4]
 8001d54:	681b      	ldr	r3, [r3, #0]
 8001d56:	f042 0201 	orr.w	r2, r2, #1
 8001d5a:	601a      	str	r2, [r3, #0]
  }

  /* Return function status */
  return HAL_OK;
 8001d5c:	2300      	movs	r3, #0
}
 8001d5e:	4618      	mov	r0, r3
 8001d60:	3714      	adds	r7, #20
 8001d62:	46bd      	mov	sp, r7
 8001d64:	f85d 7b04 	ldr.w	r7, [sp], #4
 8001d68:	4770      	bx	lr
 8001d6a:	bf00      	nop
 8001d6c:	40010000 	.word	0x40010000
 8001d70:	40000400 	.word	0x40000400
 8001d74:	40000800 	.word	0x40000800
 8001d78:	40000c00 	.word	0x40000c00
 8001d7c:	40010400 	.word	0x40010400
 8001d80:	40014000 	.word	0x40014000
 8001d84:	40001800 	.word	0x40001800

08001d88 <HAL_TIM_IRQHandler>:
  * @brief  This function handles TIM interrupts requests.
  * @param  htim TIM  handle
  * @retval None
  */
void HAL_TIM_IRQHandler(TIM_HandleTypeDef *htim)
{
 8001d88:	b580      	push	{r7, lr}
 8001d8a:	b082      	sub	sp, #8
 8001d8c:	af00      	add	r7, sp, #0
 8001d8e:	6078      	str	r0, [r7, #4]
  /* Capture compare 1 event */
  if (__HAL_TIM_GET_FLAG(htim, TIM_FLAG_CC1) != RESET)
 8001d90:	687b      	ldr	r3, [r7, #4]
 8001d92:	681b      	ldr	r3, [r3, #0]
 8001d94:	691b      	ldr	r3, [r3, #16]
 8001d96:	f003 0302 	and.w	r3, r3, #2
 8001d9a:	2b02      	cmp	r3, #2
 8001d9c:	d122      	bne.n	8001de4 <HAL_TIM_IRQHandler+0x5c>
  {
    if (__HAL_TIM_GET_IT_SOURCE(htim, TIM_IT_CC1) != RESET)
 8001d9e:	687b      	ldr	r3, [r7, #4]
 8001da0:	681b      	ldr	r3, [r3, #0]
 8001da2:	68db      	ldr	r3, [r3, #12]
 8001da4:	f003 0302 	and.w	r3, r3, #2
 8001da8:	2b02      	cmp	r3, #2
 8001daa:	d11b      	bne.n	8001de4 <HAL_TIM_IRQHandler+0x5c>
    {
      {
        __HAL_TIM_CLEAR_IT(htim, TIM_IT_CC1);
 8001dac:	687b      	ldr	r3, [r7, #4]
 8001dae:	681b      	ldr	r3, [r3, #0]
 8001db0:	f06f 0202 	mvn.w	r2, #2
 8001db4:	611a      	str	r2, [r3, #16]
        htim->Channel = HAL_TIM_ACTIVE_CHANNEL_1;
 8001db6:	687b      	ldr	r3, [r7, #4]
 8001db8:	2201      	movs	r2, #1
 8001dba:	771a      	strb	r2, [r3, #28]

        /* Input capture event */
        if ((htim->Instance->CCMR1 & TIM_CCMR1_CC1S) != 0x00U)
 8001dbc:	687b      	ldr	r3, [r7, #4]
 8001dbe:	681b      	ldr	r3, [r3, #0]
 8001dc0:	699b      	ldr	r3, [r3, #24]
 8001dc2:	f003 0303 	and.w	r3, r3, #3
 8001dc6:	2b00      	cmp	r3, #0
 8001dc8:	d003      	beq.n	8001dd2 <HAL_TIM_IRQHandler+0x4a>
        {
#if (USE_HAL_TIM_REGISTER_CALLBACKS == 1)
          htim->IC_CaptureCallback(htim);
#else
          HAL_TIM_IC_CaptureCallback(htim);
 8001dca:	6878      	ldr	r0, [r7, #4]
 8001dcc:	f000 f9b5 	bl	800213a <HAL_TIM_IC_CaptureCallback>
 8001dd0:	e005      	b.n	8001dde <HAL_TIM_IRQHandler+0x56>
        {
#if (USE_HAL_TIM_REGISTER_CALLBACKS == 1)
          htim->OC_DelayElapsedCallback(htim);
          htim->PWM_PulseFinishedCallback(htim);
#else
          HAL_TIM_OC_DelayElapsedCallback(htim);
 8001dd2:	6878      	ldr	r0, [r7, #4]
 8001dd4:	f000 f9a7 	bl	8002126 <HAL_TIM_OC_DelayElapsedCallback>
          HAL_TIM_PWM_PulseFinishedCallback(htim);
 8001dd8:	6878      	ldr	r0, [r7, #4]
 8001dda:	f000 f9b8 	bl	800214e <HAL_TIM_PWM_PulseFinishedCallback>
#endif /* USE_HAL_TIM_REGISTER_CALLBACKS */
        }
        htim->Channel = HAL_TIM_ACTIVE_CHANNEL_CLEARED;
 8001dde:	687b      	ldr	r3, [r7, #4]
 8001de0:	2200      	movs	r2, #0
 8001de2:	771a      	strb	r2, [r3, #28]
      }
    }
  }
  /* Capture compare 2 event */
  if (__HAL_TIM_GET_FLAG(htim, TIM_FLAG_CC2) != RESET)
 8001de4:	687b      	ldr	r3, [r7, #4]
 8001de6:	681b      	ldr	r3, [r3, #0]
 8001de8:	691b      	ldr	r3, [r3, #16]
 8001dea:	f003 0304 	and.w	r3, r3, #4
 8001dee:	2b04      	cmp	r3, #4
 8001df0:	d122      	bne.n	8001e38 <HAL_TIM_IRQHandler+0xb0>
  {
    if (__HAL_TIM_GET_IT_SOURCE(htim, TIM_IT_CC2) != RESET)
 8001df2:	687b      	ldr	r3, [r7, #4]
 8001df4:	681b      	ldr	r3, [r3, #0]
 8001df6:	68db      	ldr	r3, [r3, #12]
 8001df8:	f003 0304 	and.w	r3, r3, #4
 8001dfc:	2b04      	cmp	r3, #4
 8001dfe:	d11b      	bne.n	8001e38 <HAL_TIM_IRQHandler+0xb0>
    {
      __HAL_TIM_CLEAR_IT(htim, TIM_IT_CC2);
 8001e00:	687b      	ldr	r3, [r7, #4]
 8001e02:	681b      	ldr	r3, [r3, #0]
 8001e04:	f06f 0204 	mvn.w	r2, #4
 8001e08:	611a      	str	r2, [r3, #16]
      htim->Channel = HAL_TIM_ACTIVE_CHANNEL_2;
 8001e0a:	687b      	ldr	r3, [r7, #4]
 8001e0c:	2202      	movs	r2, #2
 8001e0e:	771a      	strb	r2, [r3, #28]
      /* Input capture event */
      if ((htim->Instance->CCMR1 & TIM_CCMR1_CC2S) != 0x00U)
 8001e10:	687b      	ldr	r3, [r7, #4]
 8001e12:	681b      	ldr	r3, [r3, #0]
 8001e14:	699b      	ldr	r3, [r3, #24]
 8001e16:	f403 7340 	and.w	r3, r3, #768	; 0x300
 8001e1a:	2b00      	cmp	r3, #0
 8001e1c:	d003      	beq.n	8001e26 <HAL_TIM_IRQHandler+0x9e>
      {
#if (USE_HAL_TIM_REGISTER_CALLBACKS == 1)
        htim->IC_CaptureCallback(htim);
#else
        HAL_TIM_IC_CaptureCallback(htim);
 8001e1e:	6878      	ldr	r0, [r7, #4]
 8001e20:	f000 f98b 	bl	800213a <HAL_TIM_IC_CaptureCallback>
 8001e24:	e005      	b.n	8001e32 <HAL_TIM_IRQHandler+0xaa>
      {
#if (USE_HAL_TIM_REGISTER_CALLBACKS == 1)
        htim->OC_DelayElapsedCallback(htim);
        htim->PWM_PulseFinishedCallback(htim);
#else
        HAL_TIM_OC_DelayElapsedCallback(htim);
 8001e26:	6878      	ldr	r0, [r7, #4]
 8001e28:	f000 f97d 	bl	8002126 <HAL_TIM_OC_DelayElapsedCallback>
        HAL_TIM_PWM_PulseFinishedCallback(htim);
 8001e2c:	6878      	ldr	r0, [r7, #4]
 8001e2e:	f000 f98e 	bl	800214e <HAL_TIM_PWM_PulseFinishedCallback>
#endif /* USE_HAL_TIM_REGISTER_CALLBACKS */
      }
      htim->Channel = HAL_TIM_ACTIVE_CHANNEL_CLEARED;
 8001e32:	687b      	ldr	r3, [r7, #4]
 8001e34:	2200      	movs	r2, #0
 8001e36:	771a      	strb	r2, [r3, #28]
    }
  }
  /* Capture compare 3 event */
  if (__HAL_TIM_GET_FLAG(htim, TIM_FLAG_CC3) != RESET)
 8001e38:	687b      	ldr	r3, [r7, #4]
 8001e3a:	681b      	ldr	r3, [r3, #0]
 8001e3c:	691b      	ldr	r3, [r3, #16]
 8001e3e:	f003 0308 	and.w	r3, r3, #8
 8001e42:	2b08      	cmp	r3, #8
 8001e44:	d122      	bne.n	8001e8c <HAL_TIM_IRQHandler+0x104>
  {
    if (__HAL_TIM_GET_IT_SOURCE(htim, TIM_IT_CC3) != RESET)
 8001e46:	687b      	ldr	r3, [r7, #4]
 8001e48:	681b      	ldr	r3, [r3, #0]
 8001e4a:	68db      	ldr	r3, [r3, #12]
 8001e4c:	f003 0308 	and.w	r3, r3, #8
 8001e50:	2b08      	cmp	r3, #8
 8001e52:	d11b      	bne.n	8001e8c <HAL_TIM_IRQHandler+0x104>
    {
      __HAL_TIM_CLEAR_IT(htim, TIM_IT_CC3);
 8001e54:	687b      	ldr	r3, [r7, #4]
 8001e56:	681b      	ldr	r3, [r3, #0]
 8001e58:	f06f 0208 	mvn.w	r2, #8
 8001e5c:	611a      	str	r2, [r3, #16]
      htim->Channel = HAL_TIM_ACTIVE_CHANNEL_3;
 8001e5e:	687b      	ldr	r3, [r7, #4]
 8001e60:	2204      	movs	r2, #4
 8001e62:	771a      	strb	r2, [r3, #28]
      /* Input capture event */
      if ((htim->Instance->CCMR2 & TIM_CCMR2_CC3S) != 0x00U)
 8001e64:	687b      	ldr	r3, [r7, #4]
 8001e66:	681b      	ldr	r3, [r3, #0]
 8001e68:	69db      	ldr	r3, [r3, #28]
 8001e6a:	f003 0303 	and.w	r3, r3, #3
 8001e6e:	2b00      	cmp	r3, #0
 8001e70:	d003      	beq.n	8001e7a <HAL_TIM_IRQHandler+0xf2>
      {
#if (USE_HAL_TIM_REGISTER_CALLBACKS == 1)
        htim->IC_CaptureCallback(htim);
#else
        HAL_TIM_IC_CaptureCallback(htim);
 8001e72:	6878      	ldr	r0, [r7, #4]
 8001e74:	f000 f961 	bl	800213a <HAL_TIM_IC_CaptureCallback>
 8001e78:	e005      	b.n	8001e86 <HAL_TIM_IRQHandler+0xfe>
      {
#if (USE_HAL_TIM_REGISTER_CALLBACKS == 1)
        htim->OC_DelayElapsedCallback(htim);
        htim->PWM_PulseFinishedCallback(htim);
#else
        HAL_TIM_OC_DelayElapsedCallback(htim);
 8001e7a:	6878      	ldr	r0, [r7, #4]
 8001e7c:	f000 f953 	bl	8002126 <HAL_TIM_OC_DelayElapsedCallback>
        HAL_TIM_PWM_PulseFinishedCallback(htim);
 8001e80:	6878      	ldr	r0, [r7, #4]
 8001e82:	f000 f964 	bl	800214e <HAL_TIM_PWM_PulseFinishedCallback>
#endif /* USE_HAL_TIM_REGISTER_CALLBACKS */
      }
      htim->Channel = HAL_TIM_ACTIVE_CHANNEL_CLEARED;
 8001e86:	687b      	ldr	r3, [r7, #4]
 8001e88:	2200      	movs	r2, #0
 8001e8a:	771a      	strb	r2, [r3, #28]
    }
  }
  /* Capture compare 4 event */
  if (__HAL_TIM_GET_FLAG(htim, TIM_FLAG_CC4) != RESET)
 8001e8c:	687b      	ldr	r3, [r7, #4]
 8001e8e:	681b      	ldr	r3, [r3, #0]
 8001e90:	691b      	ldr	r3, [r3, #16]
 8001e92:	f003 0310 	and.w	r3, r3, #16
 8001e96:	2b10      	cmp	r3, #16
 8001e98:	d122      	bne.n	8001ee0 <HAL_TIM_IRQHandler+0x158>
  {
    if (__HAL_TIM_GET_IT_SOURCE(htim, TIM_IT_CC4) != RESET)
 8001e9a:	687b      	ldr	r3, [r7, #4]
 8001e9c:	681b      	ldr	r3, [r3, #0]
 8001e9e:	68db      	ldr	r3, [r3, #12]
 8001ea0:	f003 0310 	and.w	r3, r3, #16
 8001ea4:	2b10      	cmp	r3, #16
 8001ea6:	d11b      	bne.n	8001ee0 <HAL_TIM_IRQHandler+0x158>
    {
      __HAL_TIM_CLEAR_IT(htim, TIM_IT_CC4);
 8001ea8:	687b      	ldr	r3, [r7, #4]
 8001eaa:	681b      	ldr	r3, [r3, #0]
 8001eac:	f06f 0210 	mvn.w	r2, #16
 8001eb0:	611a      	str	r2, [r3, #16]
      htim->Channel = HAL_TIM_ACTIVE_CHANNEL_4;
 8001eb2:	687b      	ldr	r3, [r7, #4]
 8001eb4:	2208      	movs	r2, #8
 8001eb6:	771a      	strb	r2, [r3, #28]
      /* Input capture event */
      if ((htim->Instance->CCMR2 & TIM_CCMR2_CC4S) != 0x00U)
 8001eb8:	687b      	ldr	r3, [r7, #4]
 8001eba:	681b      	ldr	r3, [r3, #0]
 8001ebc:	69db      	ldr	r3, [r3, #28]
 8001ebe:	f403 7340 	and.w	r3, r3, #768	; 0x300
 8001ec2:	2b00      	cmp	r3, #0
 8001ec4:	d003      	beq.n	8001ece <HAL_TIM_IRQHandler+0x146>
      {
#if (USE_HAL_TIM_REGISTER_CALLBACKS == 1)
        htim->IC_CaptureCallback(htim);
#else
        HAL_TIM_IC_CaptureCallback(htim);
 8001ec6:	6878      	ldr	r0, [r7, #4]
 8001ec8:	f000 f937 	bl	800213a <HAL_TIM_IC_CaptureCallback>
 8001ecc:	e005      	b.n	8001eda <HAL_TIM_IRQHandler+0x152>
      {
#if (USE_HAL_TIM_REGISTER_CALLBACKS == 1)
        htim->OC_DelayElapsedCallback(htim);
        htim->PWM_PulseFinishedCallback(htim);
#else
        HAL_TIM_OC_DelayElapsedCallback(htim);
 8001ece:	6878      	ldr	r0, [r7, #4]
 8001ed0:	f000 f929 	bl	8002126 <HAL_TIM_OC_DelayElapsedCallback>
        HAL_TIM_PWM_PulseFinishedCallback(htim);
 8001ed4:	6878      	ldr	r0, [r7, #4]
 8001ed6:	f000 f93a 	bl	800214e <HAL_TIM_PWM_PulseFinishedCallback>
#endif /* USE_HAL_TIM_REGISTER_CALLBACKS */
      }
      htim->Channel = HAL_TIM_ACTIVE_CHANNEL_CLEARED;
 8001eda:	687b      	ldr	r3, [r7, #4]
 8001edc:	2200      	movs	r2, #0
 8001ede:	771a      	strb	r2, [r3, #28]
    }
  }
  /* TIM Update event */
  if (__HAL_TIM_GET_FLAG(htim, TIM_FLAG_UPDATE) != RESET)
 8001ee0:	687b      	ldr	r3, [r7, #4]
 8001ee2:	681b      	ldr	r3, [r3, #0]
 8001ee4:	691b      	ldr	r3, [r3, #16]
 8001ee6:	f003 0301 	and.w	r3, r3, #1
 8001eea:	2b01      	cmp	r3, #1
 8001eec:	d10e      	bne.n	8001f0c <HAL_TIM_IRQHandler+0x184>
  {
    if (__HAL_TIM_GET_IT_SOURCE(htim, TIM_IT_UPDATE) != RESET)
 8001eee:	687b      	ldr	r3, [r7, #4]
 8001ef0:	681b      	ldr	r3, [r3, #0]
 8001ef2:	68db      	ldr	r3, [r3, #12]
 8001ef4:	f003 0301 	and.w	r3, r3, #1
 8001ef8:	2b01      	cmp	r3, #1
 8001efa:	d107      	bne.n	8001f0c <HAL_TIM_IRQHandler+0x184>
    {
      __HAL_TIM_CLEAR_IT(htim, TIM_IT_UPDATE);
 8001efc:	687b      	ldr	r3, [r7, #4]
 8001efe:	681b      	ldr	r3, [r3, #0]
 8001f00:	f06f 0201 	mvn.w	r2, #1
 8001f04:	611a      	str	r2, [r3, #16]
#if (USE_HAL_TIM_REGISTER_CALLBACKS == 1)
      htim->PeriodElapsedCallback(htim);
#else
      HAL_TIM_PeriodElapsedCallback(htim);
 8001f06:	6878      	ldr	r0, [r7, #4]
 8001f08:	f7fe fc60 	bl	80007cc <HAL_TIM_PeriodElapsedCallback>
#endif /* USE_HAL_TIM_REGISTER_CALLBACKS */
    }
  }
  /* TIM Break input event */
  if (__HAL_TIM_GET_FLAG(htim, TIM_FLAG_BREAK) != RESET)
 8001f0c:	687b      	ldr	r3, [r7, #4]
 8001f0e:	681b      	ldr	r3, [r3, #0]
 8001f10:	691b      	ldr	r3, [r3, #16]
 8001f12:	f003 0380 	and.w	r3, r3, #128	; 0x80
 8001f16:	2b80      	cmp	r3, #128	; 0x80
 8001f18:	d10e      	bne.n	8001f38 <HAL_TIM_IRQHandler+0x1b0>
  {
    if (__HAL_TIM_GET_IT_SOURCE(htim, TIM_IT_BREAK) != RESET)
 8001f1a:	687b      	ldr	r3, [r7, #4]
 8001f1c:	681b      	ldr	r3, [r3, #0]
 8001f1e:	68db      	ldr	r3, [r3, #12]
 8001f20:	f003 0380 	and.w	r3, r3, #128	; 0x80
 8001f24:	2b80      	cmp	r3, #128	; 0x80
 8001f26:	d107      	bne.n	8001f38 <HAL_TIM_IRQHandler+0x1b0>
    {
      __HAL_TIM_CLEAR_IT(htim, TIM_IT_BREAK);
 8001f28:	687b      	ldr	r3, [r7, #4]
 8001f2a:	681b      	ldr	r3, [r3, #0]
 8001f2c:	f06f 0280 	mvn.w	r2, #128	; 0x80
 8001f30:	611a      	str	r2, [r3, #16]
#if (USE_HAL_TIM_REGISTER_CALLBACKS == 1)
      htim->BreakCallback(htim);
#else
      HAL_TIMEx_BreakCallback(htim);
 8001f32:	6878      	ldr	r0, [r7, #4]
 8001f34:	f000 fae0 	bl	80024f8 <HAL_TIMEx_BreakCallback>
#endif /* USE_HAL_TIM_REGISTER_CALLBACKS */
    }
  }
  /* TIM Trigger detection event */
  if (__HAL_TIM_GET_FLAG(htim, TIM_FLAG_TRIGGER) != RESET)
 8001f38:	687b      	ldr	r3, [r7, #4]
 8001f3a:	681b      	ldr	r3, [r3, #0]
 8001f3c:	691b      	ldr	r3, [r3, #16]
 8001f3e:	f003 0340 	and.w	r3, r3, #64	; 0x40
 8001f42:	2b40      	cmp	r3, #64	; 0x40
 8001f44:	d10e      	bne.n	8001f64 <HAL_TIM_IRQHandler+0x1dc>
  {
    if (__HAL_TIM_GET_IT_SOURCE(htim, TIM_IT_TRIGGER) != RESET)
 8001f46:	687b      	ldr	r3, [r7, #4]
 8001f48:	681b      	ldr	r3, [r3, #0]
 8001f4a:	68db      	ldr	r3, [r3, #12]
 8001f4c:	f003 0340 	and.w	r3, r3, #64	; 0x40
 8001f50:	2b40      	cmp	r3, #64	; 0x40
 8001f52:	d107      	bne.n	8001f64 <HAL_TIM_IRQHandler+0x1dc>
    {
      __HAL_TIM_CLEAR_IT(htim, TIM_IT_TRIGGER);
 8001f54:	687b      	ldr	r3, [r7, #4]
 8001f56:	681b      	ldr	r3, [r3, #0]
 8001f58:	f06f 0240 	mvn.w	r2, #64	; 0x40
 8001f5c:	611a      	str	r2, [r3, #16]
#if (USE_HAL_TIM_REGISTER_CALLBACKS == 1)
      htim->TriggerCallback(htim);
#else
      HAL_TIM_TriggerCallback(htim);
 8001f5e:	6878      	ldr	r0, [r7, #4]
 8001f60:	f000 f8ff 	bl	8002162 <HAL_TIM_TriggerCallback>
#endif /* USE_HAL_TIM_REGISTER_CALLBACKS */
    }
  }
  /* TIM commutation event */
  if (__HAL_TIM_GET_FLAG(htim, TIM_FLAG_COM) != RESET)
 8001f64:	687b      	ldr	r3, [r7, #4]
 8001f66:	681b      	ldr	r3, [r3, #0]
 8001f68:	691b      	ldr	r3, [r3, #16]
 8001f6a:	f003 0320 	and.w	r3, r3, #32
 8001f6e:	2b20      	cmp	r3, #32
 8001f70:	d10e      	bne.n	8001f90 <HAL_TIM_IRQHandler+0x208>
  {
    if (__HAL_TIM_GET_IT_SOURCE(htim, TIM_IT_COM) != RESET)
 8001f72:	687b      	ldr	r3, [r7, #4]
 8001f74:	681b      	ldr	r3, [r3, #0]
 8001f76:	68db      	ldr	r3, [r3, #12]
 8001f78:	f003 0320 	and.w	r3, r3, #32
 8001f7c:	2b20      	cmp	r3, #32
 8001f7e:	d107      	bne.n	8001f90 <HAL_TIM_IRQHandler+0x208>
    {
      __HAL_TIM_CLEAR_IT(htim, TIM_FLAG_COM);
 8001f80:	687b      	ldr	r3, [r7, #4]
 8001f82:	681b      	ldr	r3, [r3, #0]
 8001f84:	f06f 0220 	mvn.w	r2, #32
 8001f88:	611a      	str	r2, [r3, #16]
#if (USE_HAL_TIM_REGISTER_CALLBACKS == 1)
      htim->CommutationCallback(htim);
#else
      HAL_TIMEx_CommutCallback(htim);
 8001f8a:	6878      	ldr	r0, [r7, #4]
 8001f8c:	f000 faaa 	bl	80024e4 <HAL_TIMEx_CommutCallback>
#endif /* USE_HAL_TIM_REGISTER_CALLBACKS */
    }
  }
}
 8001f90:	bf00      	nop
 8001f92:	3708      	adds	r7, #8
 8001f94:	46bd      	mov	sp, r7
 8001f96:	bd80      	pop	{r7, pc}

08001f98 <HAL_TIM_ConfigClockSource>:
  * @param  sClockSourceConfig pointer to a TIM_ClockConfigTypeDef structure that
  *         contains the clock source information for the TIM peripheral.
  * @retval HAL status
  */
HAL_StatusTypeDef HAL_TIM_ConfigClockSource(TIM_HandleTypeDef *htim, TIM_ClockConfigTypeDef *sClockSourceConfig)
{
 8001f98:	b580      	push	{r7, lr}
 8001f9a:	b084      	sub	sp, #16
 8001f9c:	af00      	add	r7, sp, #0
 8001f9e:	6078      	str	r0, [r7, #4]
 8001fa0:	6039      	str	r1, [r7, #0]
  HAL_StatusTypeDef status = HAL_OK;
 8001fa2:	2300      	movs	r3, #0
 8001fa4:	73fb      	strb	r3, [r7, #15]
  uint32_t tmpsmcr;

  /* Process Locked */
  __HAL_LOCK(htim);
 8001fa6:	687b      	ldr	r3, [r7, #4]
 8001fa8:	f893 303c 	ldrb.w	r3, [r3, #60]	; 0x3c
 8001fac:	2b01      	cmp	r3, #1
