
MS_LW_5.1.elf:     file format elf32-littlearm

Sections:
Idx Name          Size      VMA       LMA       File off  Algn
  0 .isr_vector   00000188  08000000  08000000  00010000  2**0
                  CONTENTS, ALLOC, LOAD, READONLY, DATA
  1 .text         00001c28  08000188  08000188  00010188  2**2
                  CONTENTS, ALLOC, LOAD, READONLY, CODE
  2 .rodata       00000010  08001db0  08001db0  00011db0  2**2
                  CONTENTS, ALLOC, LOAD, READONLY, DATA
  3 .ARM.extab    00000000  08001dc0  08001dc0  00020010  2**0
                  CONTENTS
  4 .ARM          00000008  08001dc0  08001dc0  00011dc0  2**2
                  CONTENTS, ALLOC, LOAD, READONLY, DATA
  5 .preinit_array 00000000  08001dc8  08001dc8  00020010  2**0
                  CONTENTS, ALLOC, LOAD, DATA
  6 .init_array   00000004  08001dc8  08001dc8  00011dc8  2**2
                  CONTENTS, ALLOC, LOAD, DATA
  7 .fini_array   00000004  08001dcc  08001dcc  00011dcc  2**2
                  CONTENTS, ALLOC, LOAD, DATA
  8 .data         00000010  20000000  08001dd0  00020000  2**2
                  CONTENTS, ALLOC, LOAD, DATA
  9 .ccmram       00000000  10000000  10000000  00020010  2**0
                  CONTENTS
 10 .bss          0000007c  20000010  20000010  00020010  2**2
                  ALLOC
 11 ._user_heap_stack 00000604  2000008c  2000008c  00020010  2**0
                  ALLOC
 12 .ARM.attributes 00000030  00000000  00000000  00020010  2**0
                  CONTENTS, READONLY
 13 .debug_info   00005b40  00000000  00000000  00020040  2**0
                  CONTENTS, READONLY, DEBUGGING, OCTETS
 14 .debug_abbrev 00001163  00000000  00000000  00025b80  2**0
                  CONTENTS, READONLY, DEBUGGING, OCTETS
 15 .debug_aranges 000005d8  00000000  00000000  00026ce8  2**3
                  CONTENTS, READONLY, DEBUGGING, OCTETS
 16 .debug_ranges 00000540  00000000  00000000  000272c0  2**3
                  CONTENTS, READONLY, DEBUGGING, OCTETS
 17 .debug_macro  0001f17e  00000000  00000000  00027800  2**0
                  CONTENTS, READONLY, DEBUGGING, OCTETS
 18 .debug_line   000066c9  00000000  00000000  0004697e  2**0
                  CONTENTS, READONLY, DEBUGGING, OCTETS
 19 .debug_str    000bdc8f  00000000  00000000  0004d047  2**0
                  CONTENTS, READONLY, DEBUGGING, OCTETS
 20 .comment      00000050  00000000  00000000  0010acd6  2**0
                  CONTENTS, READONLY
 21 .debug_frame  000016a4  00000000  00000000  0010ad28  2**2
                  CONTENTS, READONLY, DEBUGGING, OCTETS

Disassembly of section .text:

08000188 <__do_global_dtors_aux>:
 8000188:	b510      	push	{r4, lr}
 800018a:	4c05      	ldr	r4, [pc, #20]	; (80001a0 <__do_global_dtors_aux+0x18>)
 800018c:	7823      	ldrb	r3, [r4, #0]
 800018e:	b933      	cbnz	r3, 800019e <__do_global_dtors_aux+0x16>
 8000190:	4b04      	ldr	r3, [pc, #16]	; (80001a4 <__do_global_dtors_aux+0x1c>)
 8000192:	b113      	cbz	r3, 800019a <__do_global_dtors_aux+0x12>
 8000194:	4804      	ldr	r0, [pc, #16]	; (80001a8 <__do_global_dtors_aux+0x20>)
 8000196:	f3af 8000 	nop.w
 800019a:	2301      	movs	r3, #1
 800019c:	7023      	strb	r3, [r4, #0]
 800019e:	bd10      	pop	{r4, pc}
 80001a0:	20000010 	.word	0x20000010
 80001a4:	00000000 	.word	0x00000000
 80001a8:	08001d98 	.word	0x08001d98

080001ac <frame_dummy>:
 80001ac:	b508      	push	{r3, lr}
 80001ae:	4b03      	ldr	r3, [pc, #12]	; (80001bc <frame_dummy+0x10>)
 80001b0:	b11b      	cbz	r3, 80001ba <frame_dummy+0xe>
 80001b2:	4903      	ldr	r1, [pc, #12]	; (80001c0 <frame_dummy+0x14>)
 80001b4:	4803      	ldr	r0, [pc, #12]	; (80001c4 <frame_dummy+0x18>)
 80001b6:	f3af 8000 	nop.w
 80001ba:	bd08      	pop	{r3, pc}
 80001bc:	00000000 	.word	0x00000000
 80001c0:	20000014 	.word	0x20000014
 80001c4:	08001d98 	.word	0x08001d98

080001c8 <__aeabi_uldivmod>:
 80001c8:	b953      	cbnz	r3, 80001e0 <__aeabi_uldivmod+0x18>
 80001ca:	b94a      	cbnz	r2, 80001e0 <__aeabi_uldivmod+0x18>
 80001cc:	2900      	cmp	r1, #0
 80001ce:	bf08      	it	eq
 80001d0:	2800      	cmpeq	r0, #0
 80001d2:	bf1c      	itt	ne
 80001d4:	f04f 31ff 	movne.w	r1, #4294967295
 80001d8:	f04f 30ff 	movne.w	r0, #4294967295
 80001dc:	f000 b974 	b.w	80004c8 <__aeabi_idiv0>
 80001e0:	f1ad 0c08 	sub.w	ip, sp, #8
 80001e4:	e96d ce04 	strd	ip, lr, [sp, #-16]!
 80001e8:	f000 f806 	bl	80001f8 <__udivmoddi4>
 80001ec:	f8dd e004 	ldr.w	lr, [sp, #4]
 80001f0:	e9dd 2302 	ldrd	r2, r3, [sp, #8]
 80001f4:	b004      	add	sp, #16
 80001f6:	4770      	bx	lr

080001f8 <__udivmoddi4>:
 80001f8:	e92d 47f0 	stmdb	sp!, {r4, r5, r6, r7, r8, r9, sl, lr}
 80001fc:	9d08      	ldr	r5, [sp, #32]
 80001fe:	4604      	mov	r4, r0
 8000200:	468e      	mov	lr, r1
 8000202:	2b00      	cmp	r3, #0
 8000204:	d14d      	bne.n	80002a2 <__udivmoddi4+0xaa>
 8000206:	428a      	cmp	r2, r1
 8000208:	4694      	mov	ip, r2
 800020a:	d969      	bls.n	80002e0 <__udivmoddi4+0xe8>
 800020c:	fab2 f282 	clz	r2, r2
 8000210:	b152      	cbz	r2, 8000228 <__udivmoddi4+0x30>
 8000212:	fa01 f302 	lsl.w	r3, r1, r2
 8000216:	f1c2 0120 	rsb	r1, r2, #32
 800021a:	fa20 f101 	lsr.w	r1, r0, r1
 800021e:	fa0c fc02 	lsl.w	ip, ip, r2
 8000222:	ea41 0e03 	orr.w	lr, r1, r3
 8000226:	4094      	lsls	r4, r2
 8000228:	ea4f 481c 	mov.w	r8, ip, lsr #16
 800022c:	0c21      	lsrs	r1, r4, #16
 800022e:	fbbe f6f8 	udiv	r6, lr, r8
 8000232:	fa1f f78c 	uxth.w	r7, ip
 8000236:	fb08 e316 	mls	r3, r8, r6, lr
 800023a:	ea41 4303 	orr.w	r3, r1, r3, lsl #16
 800023e:	fb06 f107 	mul.w	r1, r6, r7
 8000242:	4299      	cmp	r1, r3
 8000244:	d90a      	bls.n	800025c <__udivmoddi4+0x64>
 8000246:	eb1c 0303 	adds.w	r3, ip, r3
 800024a:	f106 30ff 	add.w	r0, r6, #4294967295
 800024e:	f080 811f 	bcs.w	8000490 <__udivmoddi4+0x298>
 8000252:	4299      	cmp	r1, r3
 8000254:	f240 811c 	bls.w	8000490 <__udivmoddi4+0x298>
 8000258:	3e02      	subs	r6, #2
 800025a:	4463      	add	r3, ip
 800025c:	1a5b      	subs	r3, r3, r1
 800025e:	b2a4      	uxth	r4, r4
 8000260:	fbb3 f0f8 	udiv	r0, r3, r8
 8000264:	fb08 3310 	mls	r3, r8, r0, r3
 8000268:	ea44 4403 	orr.w	r4, r4, r3, lsl #16
 800026c:	fb00 f707 	mul.w	r7, r0, r7
 8000270:	42a7      	cmp	r7, r4
 8000272:	d90a      	bls.n	800028a <__udivmoddi4+0x92>
 8000274:	eb1c 0404 	adds.w	r4, ip, r4
 8000278:	f100 33ff 	add.w	r3, r0, #4294967295
 800027c:	f080 810a 	bcs.w	8000494 <__udivmoddi4+0x29c>
 8000280:	42a7      	cmp	r7, r4
 8000282:	f240 8107 	bls.w	8000494 <__udivmoddi4+0x29c>
 8000286:	4464      	add	r4, ip
 8000288:	3802      	subs	r0, #2
 800028a:	ea40 4006 	orr.w	r0, r0, r6, lsl #16
 800028e:	1be4      	subs	r4, r4, r7
 8000290:	2600      	movs	r6, #0
 8000292:	b11d      	cbz	r5, 800029c <__udivmoddi4+0xa4>
 8000294:	40d4      	lsrs	r4, r2
 8000296:	2300      	movs	r3, #0
 8000298:	e9c5 4300 	strd	r4, r3, [r5]
 800029c:	4631      	mov	r1, r6
 800029e:	e8bd 87f0 	ldmia.w	sp!, {r4, r5, r6, r7, r8, r9, sl, pc}
 80002a2:	428b      	cmp	r3, r1
 80002a4:	d909      	bls.n	80002ba <__udivmoddi4+0xc2>
 80002a6:	2d00      	cmp	r5, #0
 80002a8:	f000 80ef 	beq.w	800048a <__udivmoddi4+0x292>
 80002ac:	2600      	movs	r6, #0
 80002ae:	e9c5 0100 	strd	r0, r1, [r5]
 80002b2:	4630      	mov	r0, r6
 80002b4:	4631      	mov	r1, r6
 80002b6:	e8bd 87f0 	ldmia.w	sp!, {r4, r5, r6, r7, r8, r9, sl, pc}
 80002ba:	fab3 f683 	clz	r6, r3
 80002be:	2e00      	cmp	r6, #0
 80002c0:	d14a      	bne.n	8000358 <__udivmoddi4+0x160>
 80002c2:	428b      	cmp	r3, r1
 80002c4:	d302      	bcc.n	80002cc <__udivmoddi4+0xd4>
 80002c6:	4282      	cmp	r2, r0
 80002c8:	f200 80f9 	bhi.w	80004be <__udivmoddi4+0x2c6>
 80002cc:	1a84      	subs	r4, r0, r2
 80002ce:	eb61 0303 	sbc.w	r3, r1, r3
 80002d2:	2001      	movs	r0, #1
 80002d4:	469e      	mov	lr, r3
 80002d6:	2d00      	cmp	r5, #0
 80002d8:	d0e0      	beq.n	800029c <__udivmoddi4+0xa4>
 80002da:	e9c5 4e00 	strd	r4, lr, [r5]
 80002de:	e7dd      	b.n	800029c <__udivmoddi4+0xa4>
 80002e0:	b902      	cbnz	r2, 80002e4 <__udivmoddi4+0xec>
 80002e2:	deff      	udf	#255	; 0xff
 80002e4:	fab2 f282 	clz	r2, r2
 80002e8:	2a00      	cmp	r2, #0
 80002ea:	f040 8092 	bne.w	8000412 <__udivmoddi4+0x21a>
 80002ee:	eba1 010c 	sub.w	r1, r1, ip
 80002f2:	ea4f 471c 	mov.w	r7, ip, lsr #16
 80002f6:	fa1f fe8c 	uxth.w	lr, ip
 80002fa:	2601      	movs	r6, #1
 80002fc:	0c20      	lsrs	r0, r4, #16
 80002fe:	fbb1 f3f7 	udiv	r3, r1, r7
 8000302:	fb07 1113 	mls	r1, r7, r3, r1
 8000306:	ea40 4101 	orr.w	r1, r0, r1, lsl #16
 800030a:	fb0e f003 	mul.w	r0, lr, r3
 800030e:	4288      	cmp	r0, r1
 8000310:	d908      	bls.n	8000324 <__udivmoddi4+0x12c>
 8000312:	eb1c 0101 	adds.w	r1, ip, r1
 8000316:	f103 38ff 	add.w	r8, r3, #4294967295
 800031a:	d202      	bcs.n	8000322 <__udivmoddi4+0x12a>
 800031c:	4288      	cmp	r0, r1
 800031e:	f200 80cb 	bhi.w	80004b8 <__udivmoddi4+0x2c0>
 8000322:	4643      	mov	r3, r8
 8000324:	1a09      	subs	r1, r1, r0
 8000326:	b2a4      	uxth	r4, r4
 8000328:	fbb1 f0f7 	udiv	r0, r1, r7
 800032c:	fb07 1110 	mls	r1, r7, r0, r1
 8000330:	ea44 4401 	orr.w	r4, r4, r1, lsl #16
 8000334:	fb0e fe00 	mul.w	lr, lr, r0
 8000338:	45a6      	cmp	lr, r4
 800033a:	d908      	bls.n	800034e <__udivmoddi4+0x156>
 800033c:	eb1c 0404 	adds.w	r4, ip, r4
 8000340:	f100 31ff 	add.w	r1, r0, #4294967295
 8000344:	d202      	bcs.n	800034c <__udivmoddi4+0x154>
 8000346:	45a6      	cmp	lr, r4
 8000348:	f200 80bb 	bhi.w	80004c2 <__udivmoddi4+0x2ca>
 800034c:	4608      	mov	r0, r1
 800034e:	eba4 040e 	sub.w	r4, r4, lr
 8000352:	ea40 4003 	orr.w	r0, r0, r3, lsl #16
 8000356:	e79c      	b.n	8000292 <__udivmoddi4+0x9a>
 8000358:	f1c6 0720 	rsb	r7, r6, #32
 800035c:	40b3      	lsls	r3, r6
 800035e:	fa22 fc07 	lsr.w	ip, r2, r7
 8000362:	ea4c 0c03 	orr.w	ip, ip, r3
 8000366:	fa20 f407 	lsr.w	r4, r0, r7
 800036a:	fa01 f306 	lsl.w	r3, r1, r6
 800036e:	431c      	orrs	r4, r3
 8000370:	40f9      	lsrs	r1, r7
 8000372:	ea4f 491c 	mov.w	r9, ip, lsr #16
 8000376:	fa00 f306 	lsl.w	r3, r0, r6
 800037a:	fbb1 f8f9 	udiv	r8, r1, r9
 800037e:	0c20      	lsrs	r0, r4, #16
 8000380:	fa1f fe8c 	uxth.w	lr, ip
 8000384:	fb09 1118 	mls	r1, r9, r8, r1
 8000388:	ea40 4101 	orr.w	r1, r0, r1, lsl #16
 800038c:	fb08 f00e 	mul.w	r0, r8, lr
 8000390:	4288      	cmp	r0, r1
 8000392:	fa02 f206 	lsl.w	r2, r2, r6
 8000396:	d90b      	bls.n	80003b0 <__udivmoddi4+0x1b8>
 8000398:	eb1c 0101 	adds.w	r1, ip, r1
 800039c:	f108 3aff 	add.w	sl, r8, #4294967295
 80003a0:	f080 8088 	bcs.w	80004b4 <__udivmoddi4+0x2bc>
 80003a4:	4288      	cmp	r0, r1
 80003a6:	f240 8085 	bls.w	80004b4 <__udivmoddi4+0x2bc>
 80003aa:	f1a8 0802 	sub.w	r8, r8, #2
 80003ae:	4461      	add	r1, ip
 80003b0:	1a09      	subs	r1, r1, r0
 80003b2:	b2a4      	uxth	r4, r4
 80003b4:	fbb1 f0f9 	udiv	r0, r1, r9
 80003b8:	fb09 1110 	mls	r1, r9, r0, r1
 80003bc:	ea44 4101 	orr.w	r1, r4, r1, lsl #16
 80003c0:	fb00 fe0e 	mul.w	lr, r0, lr
 80003c4:	458e      	cmp	lr, r1
 80003c6:	d908      	bls.n	80003da <__udivmoddi4+0x1e2>
 80003c8:	eb1c 0101 	adds.w	r1, ip, r1
 80003cc:	f100 34ff 	add.w	r4, r0, #4294967295
 80003d0:	d26c      	bcs.n	80004ac <__udivmoddi4+0x2b4>
 80003d2:	458e      	cmp	lr, r1
 80003d4:	d96a      	bls.n	80004ac <__udivmoddi4+0x2b4>
 80003d6:	3802      	subs	r0, #2
 80003d8:	4461      	add	r1, ip
 80003da:	ea40 4008 	orr.w	r0, r0, r8, lsl #16
 80003de:	fba0 9402 	umull	r9, r4, r0, r2
 80003e2:	eba1 010e 	sub.w	r1, r1, lr
 80003e6:	42a1      	cmp	r1, r4
 80003e8:	46c8      	mov	r8, r9
 80003ea:	46a6      	mov	lr, r4
 80003ec:	d356      	bcc.n	800049c <__udivmoddi4+0x2a4>
 80003ee:	d053      	beq.n	8000498 <__udivmoddi4+0x2a0>
 80003f0:	b15d      	cbz	r5, 800040a <__udivmoddi4+0x212>
 80003f2:	ebb3 0208 	subs.w	r2, r3, r8
 80003f6:	eb61 010e 	sbc.w	r1, r1, lr
 80003fa:	fa01 f707 	lsl.w	r7, r1, r7
 80003fe:	fa22 f306 	lsr.w	r3, r2, r6
 8000402:	40f1      	lsrs	r1, r6
 8000404:	431f      	orrs	r7, r3
 8000406:	e9c5 7100 	strd	r7, r1, [r5]
 800040a:	2600      	movs	r6, #0
 800040c:	4631      	mov	r1, r6
 800040e:	e8bd 87f0 	ldmia.w	sp!, {r4, r5, r6, r7, r8, r9, sl, pc}
 8000412:	f1c2 0320 	rsb	r3, r2, #32
 8000416:	40d8      	lsrs	r0, r3
 8000418:	fa0c fc02 	lsl.w	ip, ip, r2
 800041c:	fa21 f303 	lsr.w	r3, r1, r3
 8000420:	4091      	lsls	r1, r2
 8000422:	4301      	orrs	r1, r0
 8000424:	ea4f 471c 	mov.w	r7, ip, lsr #16
 8000428:	fa1f fe8c 	uxth.w	lr, ip
 800042c:	fbb3 f0f7 	udiv	r0, r3, r7
 8000430:	fb07 3610 	mls	r6, r7, r0, r3
 8000434:	0c0b      	lsrs	r3, r1, #16
 8000436:	ea43 4306 	orr.w	r3, r3, r6, lsl #16
 800043a:	fb00 f60e 	mul.w	r6, r0, lr
 800043e:	429e      	cmp	r6, r3
 8000440:	fa04 f402 	lsl.w	r4, r4, r2
 8000444:	d908      	bls.n	8000458 <__udivmoddi4+0x260>
 8000446:	eb1c 0303 	adds.w	r3, ip, r3
 800044a:	f100 38ff 	add.w	r8, r0, #4294967295
 800044e:	d22f      	bcs.n	80004b0 <__udivmoddi4+0x2b8>
 8000450:	429e      	cmp	r6, r3
 8000452:	d92d      	bls.n	80004b0 <__udivmoddi4+0x2b8>
 8000454:	3802      	subs	r0, #2
 8000456:	4463      	add	r3, ip
 8000458:	1b9b      	subs	r3, r3, r6
 800045a:	b289      	uxth	r1, r1
 800045c:	fbb3 f6f7 	udiv	r6, r3, r7
 8000460:	fb07 3316 	mls	r3, r7, r6, r3
 8000464:	ea41 4103 	orr.w	r1, r1, r3, lsl #16
 8000468:	fb06 f30e 	mul.w	r3, r6, lr
 800046c:	428b      	cmp	r3, r1
 800046e:	d908      	bls.n	8000482 <__udivmoddi4+0x28a>
 8000470:	eb1c 0101 	adds.w	r1, ip, r1
 8000474:	f106 38ff 	add.w	r8, r6, #4294967295
 8000478:	d216      	bcs.n	80004a8 <__udivmoddi4+0x2b0>
 800047a:	428b      	cmp	r3, r1
 800047c:	d914      	bls.n	80004a8 <__udivmoddi4+0x2b0>
 800047e:	3e02      	subs	r6, #2
 8000480:	4461      	add	r1, ip
 8000482:	1ac9      	subs	r1, r1, r3
 8000484:	ea46 4600 	orr.w	r6, r6, r0, lsl #16
 8000488:	e738      	b.n	80002fc <__udivmoddi4+0x104>
 800048a:	462e      	mov	r6, r5
 800048c:	4628      	mov	r0, r5
 800048e:	e705      	b.n	800029c <__udivmoddi4+0xa4>
 8000490:	4606      	mov	r6, r0
 8000492:	e6e3      	b.n	800025c <__udivmoddi4+0x64>
 8000494:	4618      	mov	r0, r3
 8000496:	e6f8      	b.n	800028a <__udivmoddi4+0x92>
 8000498:	454b      	cmp	r3, r9
 800049a:	d2a9      	bcs.n	80003f0 <__udivmoddi4+0x1f8>
 800049c:	ebb9 0802 	subs.w	r8, r9, r2
 80004a0:	eb64 0e0c 	sbc.w	lr, r4, ip
 80004a4:	3801      	subs	r0, #1
 80004a6:	e7a3      	b.n	80003f0 <__udivmoddi4+0x1f8>
 80004a8:	4646      	mov	r6, r8
 80004aa:	e7ea      	b.n	8000482 <__udivmoddi4+0x28a>
 80004ac:	4620      	mov	r0, r4
 80004ae:	e794      	b.n	80003da <__udivmoddi4+0x1e2>
 80004b0:	4640      	mov	r0, r8
 80004b2:	e7d1      	b.n	8000458 <__udivmoddi4+0x260>
 80004b4:	46d0      	mov	r8, sl
 80004b6:	e77b      	b.n	80003b0 <__udivmoddi4+0x1b8>
 80004b8:	3b02      	subs	r3, #2
 80004ba:	4461      	add	r1, ip
 80004bc:	e732      	b.n	8000324 <__udivmoddi4+0x12c>
 80004be:	4630      	mov	r0, r6
 80004c0:	e709      	b.n	80002d6 <__udivmoddi4+0xde>
 80004c2:	4464      	add	r4, ip
 80004c4:	3802      	subs	r0, #2
 80004c6:	e742      	b.n	800034e <__udivmoddi4+0x156>

080004c8 <__aeabi_idiv0>:
 80004c8:	4770      	bx	lr
 80004ca:	bf00      	nop

080004cc <main>:
/**
  * @brief  The application entry point.
  * @retval int
  */
int main(void)
{
 80004cc:	b580      	push	{r7, lr}
 80004ce:	b082      	sub	sp, #8
 80004d0:	af02      	add	r7, sp, #8
  /* USER CODE END 1 */

  /* MCU Configuration--------------------------------------------------------*/

  /* Reset of all peripherals, Initializes the Flash interface and the Systick. */
  HAL_Init();
 80004d2:	f000 f9e7 	bl	80008a4 <HAL_Init>
  /* USER CODE BEGIN Init */

  /* USER CODE END Init */

  /* Configure the system clock */
  SystemClock_Config();
 80004d6:	f000 f813 	bl	8000500 <SystemClock_Config>
  /* USER CODE BEGIN SysInit */

  /* USER CODE END SysInit */

  /* Initialize all configured peripherals */
  MX_GPIO_Init();
 80004da:	f000 f8b1 	bl	8000640 <MX_GPIO_Init>
  MX_SPI2_Init();
 80004de:	f000 f879 	bl	80005d4 <MX_SPI2_Init>
  /* USER CODE BEGIN 2 */
HAL_SPI_TransmitReceive(&hspi2, buffer_tx, buffer_rx, 4, 100);
 80004e2:	2364      	movs	r3, #100	; 0x64
 80004e4:	9300      	str	r3, [sp, #0]
 80004e6:	2304      	movs	r3, #4
 80004e8:	4a02      	ldr	r2, [pc, #8]	; (80004f4 <main+0x28>)
 80004ea:	4903      	ldr	r1, [pc, #12]	; (80004f8 <main+0x2c>)
 80004ec:	4803      	ldr	r0, [pc, #12]	; (80004fc <main+0x30>)
 80004ee:	f001 f9ba 	bl	8001866 <HAL_SPI_TransmitReceive>
  /* USER CODE END 2 */

  /* Infinite loop */
  /* USER CODE BEGIN WHILE */
  while (1)
 80004f2:	e7fe      	b.n	80004f2 <main+0x26>
 80004f4:	20000084 	.word	0x20000084
 80004f8:	20000000 	.word	0x20000000
 80004fc:	2000002c 	.word	0x2000002c

08000500 <SystemClock_Config>:
/**
  * @brief System Clock Configuration
  * @retval None
  */
void SystemClock_Config(void)
{
 8000500:	b580      	push	{r7, lr}
 8000502:	b094      	sub	sp, #80	; 0x50
 8000504:	af00      	add	r7, sp, #0
  RCC_OscInitTypeDef RCC_OscInitStruct = {0};
 8000506:	f107 0320 	add.w	r3, r7, #32
 800050a:	2230      	movs	r2, #48	; 0x30
 800050c:	2100      	movs	r1, #0
 800050e:	4618      	mov	r0, r3
 8000510:	f001 fc3a 	bl	8001d88 <memset>
  RCC_ClkInitTypeDef RCC_ClkInitStruct = {0};
 8000514:	f107 030c 	add.w	r3, r7, #12
 8000518:	2200      	movs	r2, #0
 800051a:	601a      	str	r2, [r3, #0]
 800051c:	605a      	str	r2, [r3, #4]
 800051e:	609a      	str	r2, [r3, #8]
 8000520:	60da      	str	r2, [r3, #12]
 8000522:	611a      	str	r2, [r3, #16]

  /** Configure the main internal regulator output voltage
  */
  __HAL_RCC_PWR_CLK_ENABLE();
 8000524:	2300      	movs	r3, #0
 8000526:	60bb      	str	r3, [r7, #8]
 8000528:	4b28      	ldr	r3, [pc, #160]	; (80005cc <SystemClock_Config+0xcc>)
 800052a:	6c1b      	ldr	r3, [r3, #64]	; 0x40
 800052c:	4a27      	ldr	r2, [pc, #156]	; (80005cc <SystemClock_Config+0xcc>)
 800052e:	f043 5380 	orr.w	r3, r3, #268435456	; 0x10000000
 8000532:	6413      	str	r3, [r2, #64]	; 0x40
 8000534:	4b25      	ldr	r3, [pc, #148]	; (80005cc <SystemClock_Config+0xcc>)
 8000536:	6c1b      	ldr	r3, [r3, #64]	; 0x40
 8000538:	f003 5380 	and.w	r3, r3, #268435456	; 0x10000000
 800053c:	60bb      	str	r3, [r7, #8]
 800053e:	68bb      	ldr	r3, [r7, #8]
  __HAL_PWR_VOLTAGESCALING_CONFIG(PWR_REGULATOR_VOLTAGE_SCALE1);
 8000540:	2300      	movs	r3, #0
 8000542:	607b      	str	r3, [r7, #4]
 8000544:	4b22      	ldr	r3, [pc, #136]	; (80005d0 <SystemClock_Config+0xd0>)
 8000546:	681b      	ldr	r3, [r3, #0]
 8000548:	4a21      	ldr	r2, [pc, #132]	; (80005d0 <SystemClock_Config+0xd0>)
 800054a:	f443 4380 	orr.w	r3, r3, #16384	; 0x4000
 800054e:	6013      	str	r3, [r2, #0]
 8000550:	4b1f      	ldr	r3, [pc, #124]	; (80005d0 <SystemClock_Config+0xd0>)
 8000552:	681b      	ldr	r3, [r3, #0]
 8000554:	f403 4380 	and.w	r3, r3, #16384	; 0x4000
 8000558:	607b      	str	r3, [r7, #4]
 800055a:	687b      	ldr	r3, [r7, #4]

  /** Initializes the RCC Oscillators according to the specified parameters
  * in the RCC_OscInitTypeDef structure.
  */
  RCC_OscInitStruct.OscillatorType = RCC_OSCILLATORTYPE_HSE;
 800055c:	2301      	movs	r3, #1
 800055e:	623b      	str	r3, [r7, #32]
  RCC_OscInitStruct.HSEState = RCC_HSE_ON;
 8000560:	f44f 3380 	mov.w	r3, #65536	; 0x10000
 8000564:	627b      	str	r3, [r7, #36]	; 0x24
  RCC_OscInitStruct.PLL.PLLState = RCC_PLL_ON;
 8000566:	2302      	movs	r3, #2
 8000568:	63bb      	str	r3, [r7, #56]	; 0x38
  RCC_OscInitStruct.PLL.PLLSource = RCC_PLLSOURCE_HSE;
 800056a:	f44f 0380 	mov.w	r3, #4194304	; 0x400000
 800056e:	63fb      	str	r3, [r7, #60]	; 0x3c
  RCC_OscInitStruct.PLL.PLLM = 4;
 8000570:	2304      	movs	r3, #4
 8000572:	643b      	str	r3, [r7, #64]	; 0x40
  RCC_OscInitStruct.PLL.PLLN = 64;
 8000574:	2340      	movs	r3, #64	; 0x40
 8000576:	647b      	str	r3, [r7, #68]	; 0x44
  RCC_OscInitStruct.PLL.PLLP = RCC_PLLP_DIV2;
 8000578:	2302      	movs	r3, #2
 800057a:	64bb      	str	r3, [r7, #72]	; 0x48
  RCC_OscInitStruct.PLL.PLLQ = 7;
 800057c:	2307      	movs	r3, #7
 800057e:	64fb      	str	r3, [r7, #76]	; 0x4c
  if (HAL_RCC_OscConfig(&RCC_OscInitStruct) != HAL_OK)
 8000580:	f107 0320 	add.w	r3, r7, #32
 8000584:	4618      	mov	r0, r3
 8000586:	f000 fc81 	bl	8000e8c <HAL_RCC_OscConfig>
 800058a:	4603      	mov	r3, r0
 800058c:	2b00      	cmp	r3, #0
 800058e:	d001      	beq.n	8000594 <SystemClock_Config+0x94>
  {
    Error_Handler();
 8000590:	f000 f88c 	bl	80006ac <Error_Handler>
  }

  /** Initializes the CPU, AHB and APB buses clocks
  */
  RCC_ClkInitStruct.ClockType = RCC_CLOCKTYPE_HCLK|RCC_CLOCKTYPE_SYSCLK
 8000594:	230f      	movs	r3, #15
 8000596:	60fb      	str	r3, [r7, #12]
                              |RCC_CLOCKTYPE_PCLK1|RCC_CLOCKTYPE_PCLK2;
  RCC_ClkInitStruct.SYSCLKSource = RCC_SYSCLKSOURCE_PLLCLK;
 8000598:	2302      	movs	r3, #2
 800059a:	613b      	str	r3, [r7, #16]
  RCC_ClkInitStruct.AHBCLKDivider = RCC_SYSCLK_DIV1;
 800059c:	2300      	movs	r3, #0
 800059e:	617b      	str	r3, [r7, #20]
  RCC_ClkInitStruct.APB1CLKDivider = RCC_HCLK_DIV8;
 80005a0:	f44f 53c0 	mov.w	r3, #6144	; 0x1800
 80005a4:	61bb      	str	r3, [r7, #24]
  RCC_ClkInitStruct.APB2CLKDivider = RCC_HCLK_DIV2;
 80005a6:	f44f 5380 	mov.w	r3, #4096	; 0x1000
 80005aa:	61fb      	str	r3, [r7, #28]

  if (HAL_RCC_ClockConfig(&RCC_ClkInitStruct, FLASH_LATENCY_2) != HAL_OK)
 80005ac:	f107 030c 	add.w	r3, r7, #12
 80005b0:	2102      	movs	r1, #2
 80005b2:	4618      	mov	r0, r3
 80005b4:	f000 fee2 	bl	800137c <HAL_RCC_ClockConfig>
 80005b8:	4603      	mov	r3, r0
 80005ba:	2b00      	cmp	r3, #0
 80005bc:	d001      	beq.n	80005c2 <SystemClock_Config+0xc2>
  {
    Error_Handler();
 80005be:	f000 f875 	bl	80006ac <Error_Handler>
  }
}
 80005c2:	bf00      	nop
 80005c4:	3750      	adds	r7, #80	; 0x50
 80005c6:	46bd      	mov	sp, r7
 80005c8:	bd80      	pop	{r7, pc}
 80005ca:	bf00      	nop
 80005cc:	40023800 	.word	0x40023800
 80005d0:	40007000 	.word	0x40007000

080005d4 <MX_SPI2_Init>:
  * @brief SPI2 Initialization Function
  * @param None
  * @retval None
  */
static void MX_SPI2_Init(void)
{
 80005d4:	b580      	push	{r7, lr}
 80005d6:	af00      	add	r7, sp, #0

  /* USER CODE BEGIN SPI2_Init 1 */

  /* USER CODE END SPI2_Init 1 */
  /* SPI2 parameter configuration*/
  hspi2.Instance = SPI2;
 80005d8:	4b17      	ldr	r3, [pc, #92]	; (8000638 <MX_SPI2_Init+0x64>)
 80005da:	4a18      	ldr	r2, [pc, #96]	; (800063c <MX_SPI2_Init+0x68>)
 80005dc:	601a      	str	r2, [r3, #0]
  hspi2.Init.Mode = SPI_MODE_MASTER;
 80005de:	4b16      	ldr	r3, [pc, #88]	; (8000638 <MX_SPI2_Init+0x64>)
 80005e0:	f44f 7282 	mov.w	r2, #260	; 0x104
 80005e4:	605a      	str	r2, [r3, #4]
  hspi2.Init.Direction = SPI_DIRECTION_2LINES;
 80005e6:	4b14      	ldr	r3, [pc, #80]	; (8000638 <MX_SPI2_Init+0x64>)
 80005e8:	2200      	movs	r2, #0
 80005ea:	609a      	str	r2, [r3, #8]
  hspi2.Init.DataSize = SPI_DATASIZE_8BIT;
 80005ec:	4b12      	ldr	r3, [pc, #72]	; (8000638 <MX_SPI2_Init+0x64>)
 80005ee:	2200      	movs	r2, #0
 80005f0:	60da      	str	r2, [r3, #12]
  hspi2.Init.CLKPolarity = SPI_POLARITY_LOW;
 80005f2:	4b11      	ldr	r3, [pc, #68]	; (8000638 <MX_SPI2_Init+0x64>)
 80005f4:	2200      	movs	r2, #0
 80005f6:	611a      	str	r2, [r3, #16]
  hspi2.Init.CLKPhase = SPI_PHASE_1EDGE;
 80005f8:	4b0f      	ldr	r3, [pc, #60]	; (8000638 <MX_SPI2_Init+0x64>)
 80005fa:	2200      	movs	r2, #0
 80005fc:	615a      	str	r2, [r3, #20]
  hspi2.Init.NSS = SPI_NSS_SOFT;
 80005fe:	4b0e      	ldr	r3, [pc, #56]	; (8000638 <MX_SPI2_Init+0x64>)
 8000600:	f44f 7200 	mov.w	r2, #512	; 0x200
 8000604:	619a      	str	r2, [r3, #24]
  hspi2.Init.BaudRatePrescaler = SPI_BAUDRATEPRESCALER_8;
 8000606:	4b0c      	ldr	r3, [pc, #48]	; (8000638 <MX_SPI2_Init+0x64>)
 8000608:	2210      	movs	r2, #16
 800060a:	61da      	str	r2, [r3, #28]
  hspi2.Init.FirstBit = SPI_FIRSTBIT_MSB;
 800060c:	4b0a      	ldr	r3, [pc, #40]	; (8000638 <MX_SPI2_Init+0x64>)
 800060e:	2200      	movs	r2, #0
 8000610:	621a      	str	r2, [r3, #32]
  hspi2.Init.TIMode = SPI_TIMODE_DISABLE;
 8000612:	4b09      	ldr	r3, [pc, #36]	; (8000638 <MX_SPI2_Init+0x64>)
 8000614:	2200      	movs	r2, #0
 8000616:	625a      	str	r2, [r3, #36]	; 0x24
  hspi2.Init.CRCCalculation = SPI_CRCCALCULATION_DISABLE;
 8000618:	4b07      	ldr	r3, [pc, #28]	; (8000638 <MX_SPI2_Init+0x64>)
 800061a:	2200      	movs	r2, #0
 800061c:	629a      	str	r2, [r3, #40]	; 0x28
  hspi2.Init.CRCPolynomial = 10;
 800061e:	4b06      	ldr	r3, [pc, #24]	; (8000638 <MX_SPI2_Init+0x64>)
 8000620:	220a      	movs	r2, #10
 8000622:	62da      	str	r2, [r3, #44]	; 0x2c
  if (HAL_SPI_Init(&hspi2) != HAL_OK)
 8000624:	4804      	ldr	r0, [pc, #16]	; (8000638 <MX_SPI2_Init+0x64>)
 8000626:	f001 f895 	bl	8001754 <HAL_SPI_Init>
 800062a:	4603      	mov	r3, r0
 800062c:	2b00      	cmp	r3, #0
 800062e:	d001      	beq.n	8000634 <MX_SPI2_Init+0x60>
  {
    Error_Handler();
 8000630:	f000 f83c 	bl	80006ac <Error_Handler>
  }
  /* USER CODE BEGIN SPI2_Init 2 */

  /* USER CODE END SPI2_Init 2 */

}
 8000634:	bf00      	nop
 8000636:	bd80      	pop	{r7, pc}
 8000638:	2000002c 	.word	0x2000002c
 800063c:	40003800 	.word	0x40003800

08000640 <MX_GPIO_Init>:
  * @brief GPIO Initialization Function
  * @param None
  * @retval None
  */
static void MX_GPIO_Init(void)
{
 8000640:	b480      	push	{r7}
 8000642:	b085      	sub	sp, #20
 8000644:	af00      	add	r7, sp, #0
/* USER CODE BEGIN MX_GPIO_Init_1 */
/* USER CODE END MX_GPIO_Init_1 */

  /* GPIO Ports Clock Enable */
  __HAL_RCC_GPIOH_CLK_ENABLE();
 8000646:	2300      	movs	r3, #0
 8000648:	60fb      	str	r3, [r7, #12]
 800064a:	4b17      	ldr	r3, [pc, #92]	; (80006a8 <MX_GPIO_Init+0x68>)
 800064c:	6b1b      	ldr	r3, [r3, #48]	; 0x30
 800064e:	4a16      	ldr	r2, [pc, #88]	; (80006a8 <MX_GPIO_Init+0x68>)
 8000650:	f043 0380 	orr.w	r3, r3, #128	; 0x80
 8000654:	6313      	str	r3, [r2, #48]	; 0x30
 8000656:	4b14      	ldr	r3, [pc, #80]	; (80006a8 <MX_GPIO_Init+0x68>)
 8000658:	6b1b      	ldr	r3, [r3, #48]	; 0x30
 800065a:	f003 0380 	and.w	r3, r3, #128	; 0x80
 800065e:	60fb      	str	r3, [r7, #12]
 8000660:	68fb      	ldr	r3, [r7, #12]
  __HAL_RCC_GPIOC_CLK_ENABLE();
 8000662:	2300      	movs	r3, #0
 8000664:	60bb      	str	r3, [r7, #8]
 8000666:	4b10      	ldr	r3, [pc, #64]	; (80006a8 <MX_GPIO_Init+0x68>)
 8000668:	6b1b      	ldr	r3, [r3, #48]	; 0x30
 800066a:	4a0f      	ldr	r2, [pc, #60]	; (80006a8 <MX_GPIO_Init+0x68>)
 800066c:	f043 0304 	orr.w	r3, r3, #4
 8000670:	6313      	str	r3, [r2, #48]	; 0x30
 8000672:	4b0d      	ldr	r3, [pc, #52]	; (80006a8 <MX_GPIO_Init+0x68>)
 8000674:	6b1b      	ldr	r3, [r3, #48]	; 0x30
 8000676:	f003 0304 	and.w	r3, r3, #4
 800067a:	60bb      	str	r3, [r7, #8]
 800067c:	68bb      	ldr	r3, [r7, #8]
  __HAL_RCC_GPIOB_CLK_ENABLE();
 800067e:	2300      	movs	r3, #0
 8000680:	607b      	str	r3, [r7, #4]
 8000682:	4b09      	ldr	r3, [pc, #36]	; (80006a8 <MX_GPIO_Init+0x68>)
 8000684:	6b1b      	ldr	r3, [r3, #48]	; 0x30
 8000686:	4a08      	ldr	r2, [pc, #32]	; (80006a8 <MX_GPIO_Init+0x68>)
 8000688:	f043 0302 	orr.w	r3, r3, #2
 800068c:	6313      	str	r3, [r2, #48]	; 0x30
 800068e:	4b06      	ldr	r3, [pc, #24]	; (80006a8 <MX_GPIO_Init+0x68>)
 8000690:	6b1b      	ldr	r3, [r3, #48]	; 0x30
 8000692:	f003 0302 	and.w	r3, r3, #2
 8000696:	607b      	str	r3, [r7, #4]
 8000698:	687b      	ldr	r3, [r7, #4]

/* USER CODE BEGIN MX_GPIO_Init_2 */
/* USER CODE END MX_GPIO_Init_2 */
}
 800069a:	bf00      	nop
 800069c:	3714      	adds	r7, #20
 800069e:	46bd      	mov	sp, r7
 80006a0:	f85d 7b04 	ldr.w	r7, [sp], #4
 80006a4:	4770      	bx	lr
 80006a6:	bf00      	nop
 80006a8:	40023800 	.word	0x40023800

080006ac <Error_Handler>:
/**
  * @brief  This function is executed in case of error occurrence.
  * @retval None
  */
void Error_Handler(void)
{
 80006ac:	b480      	push	{r7}
 80006ae:	af00      	add	r7, sp, #0
  \details Disables IRQ interrupts by setting the I-bit in the CPSR.
           Can only be executed in Privileged modes.
 */
__STATIC_FORCEINLINE void __disable_irq(void)
{
  __ASM volatile ("cpsid i" : : : "memory");
 80006b0:	b672      	cpsid	i
}
 80006b2:	bf00      	nop
  /* USER CODE BEGIN Error_Handler_Debug */
  /* User can add his own implementation to report the HAL error return state */
  __disable_irq();
  while (1)
 80006b4:	e7fe      	b.n	80006b4 <Error_Handler+0x8>
	...

080006b8 <HAL_MspInit>:
/* USER CODE END 0 */
/**
  * Initializes the Global MSP.
  */
void HAL_MspInit(void)
{
 80006b8:	b580      	push	{r7, lr}
 80006ba:	b082      	sub	sp, #8
 80006bc:	af00      	add	r7, sp, #0
  /* USER CODE BEGIN MspInit 0 */

  /* USER CODE END MspInit 0 */

  __HAL_RCC_SYSCFG_CLK_ENABLE();
 80006be:	2300      	movs	r3, #0
 80006c0:	607b      	str	r3, [r7, #4]
 80006c2:	4b10      	ldr	r3, [pc, #64]	; (8000704 <HAL_MspInit+0x4c>)
 80006c4:	6c5b      	ldr	r3, [r3, #68]	; 0x44
 80006c6:	4a0f      	ldr	r2, [pc, #60]	; (8000704 <HAL_MspInit+0x4c>)
 80006c8:	f443 4380 	orr.w	r3, r3, #16384	; 0x4000
 80006cc:	6453      	str	r3, [r2, #68]	; 0x44
 80006ce:	4b0d      	ldr	r3, [pc, #52]	; (8000704 <HAL_MspInit+0x4c>)
 80006d0:	6c5b      	ldr	r3, [r3, #68]	; 0x44
 80006d2:	f403 4380 	and.w	r3, r3, #16384	; 0x4000
 80006d6:	607b      	str	r3, [r7, #4]
 80006d8:	687b      	ldr	r3, [r7, #4]
  __HAL_RCC_PWR_CLK_ENABLE();
 80006da:	2300      	movs	r3, #0
 80006dc:	603b      	str	r3, [r7, #0]
 80006de:	4b09      	ldr	r3, [pc, #36]	; (8000704 <HAL_MspInit+0x4c>)
 80006e0:	6c1b      	ldr	r3, [r3, #64]	; 0x40
 80006e2:	4a08      	ldr	r2, [pc, #32]	; (8000704 <HAL_MspInit+0x4c>)
 80006e4:	f043 5380 	orr.w	r3, r3, #268435456	; 0x10000000
 80006e8:	6413      	str	r3, [r2, #64]	; 0x40
 80006ea:	4b06      	ldr	r3, [pc, #24]	; (8000704 <HAL_MspInit+0x4c>)
 80006ec:	6c1b      	ldr	r3, [r3, #64]	; 0x40
 80006ee:	f003 5380 	and.w	r3, r3, #268435456	; 0x10000000
 80006f2:	603b      	str	r3, [r7, #0]
 80006f4:	683b      	ldr	r3, [r7, #0]

  HAL_NVIC_SetPriorityGrouping(NVIC_PRIORITYGROUP_0);
 80006f6:	2007      	movs	r0, #7
 80006f8:	f000 f9f8 	bl	8000aec <HAL_NVIC_SetPriorityGrouping>
  /* System interrupt init*/

  /* USER CODE BEGIN MspInit 1 */

  /* USER CODE END MspInit 1 */
}
 80006fc:	bf00      	nop
 80006fe:	3708      	adds	r7, #8
 8000700:	46bd      	mov	sp, r7
 8000702:	bd80      	pop	{r7, pc}
 8000704:	40023800 	.word	0x40023800

08000708 <HAL_SPI_MspInit>:
* This function configures the hardware resources used in this example
* @param hspi: SPI handle pointer
* @retval None
*/
void HAL_SPI_MspInit(SPI_HandleTypeDef* hspi)
{
 8000708:	b580      	push	{r7, lr}
 800070a:	b08a      	sub	sp, #40	; 0x28
 800070c:	af00      	add	r7, sp, #0
 800070e:	6078      	str	r0, [r7, #4]
  GPIO_InitTypeDef GPIO_InitStruct = {0};
 8000710:	f107 0314 	add.w	r3, r7, #20
 8000714:	2200      	movs	r2, #0
 8000716:	601a      	str	r2, [r3, #0]
 8000718:	605a      	str	r2, [r3, #4]
 800071a:	609a      	str	r2, [r3, #8]
 800071c:	60da      	str	r2, [r3, #12]
 800071e:	611a      	str	r2, [r3, #16]
  if(hspi->Instance==SPI2)
 8000720:	687b      	ldr	r3, [r7, #4]
 8000722:	681b      	ldr	r3, [r3, #0]
 8000724:	4a28      	ldr	r2, [pc, #160]	; (80007c8 <HAL_SPI_MspInit+0xc0>)
 8000726:	4293      	cmp	r3, r2
 8000728:	d14a      	bne.n	80007c0 <HAL_SPI_MspInit+0xb8>
  {
  /* USER CODE BEGIN SPI2_MspInit 0 */

  /* USER CODE END SPI2_MspInit 0 */
    /* Peripheral clock enable */
    __HAL_RCC_SPI2_CLK_ENABLE();
 800072a:	2300      	movs	r3, #0
 800072c:	613b      	str	r3, [r7, #16]
 800072e:	4b27      	ldr	r3, [pc, #156]	; (80007cc <HAL_SPI_MspInit+0xc4>)
 8000730:	6c1b      	ldr	r3, [r3, #64]	; 0x40
 8000732:	4a26      	ldr	r2, [pc, #152]	; (80007cc <HAL_SPI_MspInit+0xc4>)
 8000734:	f443 4380 	orr.w	r3, r3, #16384	; 0x4000
 8000738:	6413      	str	r3, [r2, #64]	; 0x40
 800073a:	4b24      	ldr	r3, [pc, #144]	; (80007cc <HAL_SPI_MspInit+0xc4>)
 800073c:	6c1b      	ldr	r3, [r3, #64]	; 0x40
 800073e:	f403 4380 	and.w	r3, r3, #16384	; 0x4000
 8000742:	613b      	str	r3, [r7, #16]
 8000744:	693b      	ldr	r3, [r7, #16]

    __HAL_RCC_GPIOC_CLK_ENABLE();
 8000746:	2300      	movs	r3, #0
 8000748:	60fb      	str	r3, [r7, #12]
 800074a:	4b20      	ldr	r3, [pc, #128]	; (80007cc <HAL_SPI_MspInit+0xc4>)
 800074c:	6b1b      	ldr	r3, [r3, #48]	; 0x30
 800074e:	4a1f      	ldr	r2, [pc, #124]	; (80007cc <HAL_SPI_MspInit+0xc4>)
 8000750:	f043 0304 	orr.w	r3, r3, #4
 8000754:	6313      	str	r3, [r2, #48]	; 0x30
 8000756:	4b1d      	ldr	r3, [pc, #116]	; (80007cc <HAL_SPI_MspInit+0xc4>)
 8000758:	6b1b      	ldr	r3, [r3, #48]	; 0x30
 800075a:	f003 0304 	and.w	r3, r3, #4
 800075e:	60fb      	str	r3, [r7, #12]
 8000760:	68fb      	ldr	r3, [r7, #12]
    __HAL_RCC_GPIOB_CLK_ENABLE();
 8000762:	2300      	movs	r3, #0
 8000764:	60bb      	str	r3, [r7, #8]
 8000766:	4b19      	ldr	r3, [pc, #100]	; (80007cc <HAL_SPI_MspInit+0xc4>)
 8000768:	6b1b      	ldr	r3, [r3, #48]	; 0x30
 800076a:	4a18      	ldr	r2, [pc, #96]	; (80007cc <HAL_SPI_MspInit+0xc4>)
 800076c:	f043 0302 	orr.w	r3, r3, #2
 8000770:	6313      	str	r3, [r2, #48]	; 0x30
 8000772:	4b16      	ldr	r3, [pc, #88]	; (80007cc <HAL_SPI_MspInit+0xc4>)
 8000774:	6b1b      	ldr	r3, [r3, #48]	; 0x30
 8000776:	f003 0302 	and.w	r3, r3, #2
 800077a:	60bb      	str	r3, [r7, #8]
 800077c:	68bb      	ldr	r3, [r7, #8]
    /**SPI2 GPIO Configuration
    PC2     ------> SPI2_MISO
    PC3     ------> SPI2_MOSI
    PB10     ------> SPI2_SCK
    */
    GPIO_InitStruct.Pin = GPIO_PIN_2|GPIO_PIN_3;
 800077e:	230c      	movs	r3, #12
 8000780:	617b      	str	r3, [r7, #20]
    GPIO_InitStruct.Mode = GPIO_MODE_AF_PP;
 8000782:	2302      	movs	r3, #2
 8000784:	61bb      	str	r3, [r7, #24]
    GPIO_InitStruct.Pull = GPIO_NOPULL;
 8000786:	2300      	movs	r3, #0
 8000788:	61fb      	str	r3, [r7, #28]
    GPIO_InitStruct.Speed = GPIO_SPEED_FREQ_VERY_HIGH;
 800078a:	2303      	movs	r3, #3
 800078c:	623b      	str	r3, [r7, #32]
    GPIO_InitStruct.Alternate = GPIO_AF5_SPI2;
 800078e:	2305      	movs	r3, #5
 8000790:	627b      	str	r3, [r7, #36]	; 0x24
    HAL_GPIO_Init(GPIOC, &GPIO_InitStruct);
 8000792:	f107 0314 	add.w	r3, r7, #20
 8000796:	4619      	mov	r1, r3
 8000798:	480d      	ldr	r0, [pc, #52]	; (80007d0 <HAL_SPI_MspInit+0xc8>)
 800079a:	f000 f9db 	bl	8000b54 <HAL_GPIO_Init>

    GPIO_InitStruct.Pin = GPIO_PIN_10;
 800079e:	f44f 6380 	mov.w	r3, #1024	; 0x400
 80007a2:	617b      	str	r3, [r7, #20]
    GPIO_InitStruct.Mode = GPIO_MODE_AF_PP;
 80007a4:	2302      	movs	r3, #2
 80007a6:	61bb      	str	r3, [r7, #24]
    GPIO_InitStruct.Pull = GPIO_NOPULL;
 80007a8:	2300      	movs	r3, #0
 80007aa:	61fb      	str	r3, [r7, #28]
    GPIO_InitStruct.Speed = GPIO_SPEED_FREQ_VERY_HIGH;
 80007ac:	2303      	movs	r3, #3
 80007ae:	623b      	str	r3, [r7, #32]
    GPIO_InitStruct.Alternate = GPIO_AF5_SPI2;
 80007b0:	2305      	movs	r3, #5
 80007b2:	627b      	str	r3, [r7, #36]	; 0x24
    HAL_GPIO_Init(GPIOB, &GPIO_InitStruct);
 80007b4:	f107 0314 	add.w	r3, r7, #20
 80007b8:	4619      	mov	r1, r3
 80007ba:	4806      	ldr	r0, [pc, #24]	; (80007d4 <HAL_SPI_MspInit+0xcc>)
 80007bc:	f000 f9ca 	bl	8000b54 <HAL_GPIO_Init>
  /* USER CODE BEGIN SPI2_MspInit 1 */

  /* USER CODE END SPI2_MspInit 1 */
  }

}
 80007c0:	bf00      	nop
 80007c2:	3728      	adds	r7, #40	; 0x28
 80007c4:	46bd      	mov	sp, r7
 80007c6:	bd80      	pop	{r7, pc}
 80007c8:	40003800 	.word	0x40003800
 80007cc:	40023800 	.word	0x40023800
 80007d0:	40020800 	.word	0x40020800
 80007d4:	40020400 	.word	0x40020400

080007d8 <NMI_Handler>:
/******************************************************************************/
/**
  * @brief This function handles Non maskable interrupt.
  */
void NMI_Handler(void)
{
 80007d8:	b480      	push	{r7}
 80007da:	af00      	add	r7, sp, #0
  /* USER CODE BEGIN NonMaskableInt_IRQn 0 */

  /* USER CODE END NonMaskableInt_IRQn 0 */
  /* USER CODE BEGIN NonMaskableInt_IRQn 1 */
  while (1)
 80007dc:	e7fe      	b.n	80007dc <NMI_Handler+0x4>

080007de <HardFault_Handler>:

/**
  * @brief This function handles Hard fault interrupt.
  */
void HardFault_Handler(void)
{
 80007de:	b480      	push	{r7}
 80007e0:	af00      	add	r7, sp, #0
  /* USER CODE BEGIN HardFault_IRQn 0 */

  /* USER CODE END HardFault_IRQn 0 */
  while (1)
 80007e2:	e7fe      	b.n	80007e2 <HardFault_Handler+0x4>

080007e4 <MemManage_Handler>:

/**
  * @brief This function handles Memory management fault.
  */
void MemManage_Handler(void)
{
 80007e4:	b480      	push	{r7}
 80007e6:	af00      	add	r7, sp, #0
  /* USER CODE BEGIN MemoryManagement_IRQn 0 */

  /* USER CODE END MemoryManagement_IRQn 0 */
  while (1)
 80007e8:	e7fe      	b.n	80007e8 <MemManage_Handler+0x4>

080007ea <BusFault_Handler>:

/**
  * @brief This function handles Pre-fetch fault, memory access fault.
  */
void BusFault_Handler(void)
{
 80007ea:	b480      	push	{r7}
 80007ec:	af00      	add	r7, sp, #0
  /* USER CODE BEGIN BusFault_IRQn 0 */

  /* USER CODE END BusFault_IRQn 0 */
  while (1)
 80007ee:	e7fe      	b.n	80007ee <BusFault_Handler+0x4>

080007f0 <UsageFault_Handler>:

/**
  * @brief This function handles Undefined instruction or illegal state.
  */
void UsageFault_Handler(void)
{
 80007f0:	b480      	push	{r7}
 80007f2:	af00      	add	r7, sp, #0
  /* USER CODE BEGIN UsageFault_IRQn 0 */

  /* USER CODE END UsageFault_IRQn 0 */
  while (1)
 80007f4:	e7fe      	b.n	80007f4 <UsageFault_Handler+0x4>

080007f6 <SVC_Handler>:

/**
  * @brief This function handles System service call via SWI instruction.
  */
void SVC_Handler(void)
{
 80007f6:	b480      	push	{r7}
 80007f8:	af00      	add	r7, sp, #0

  /* USER CODE END SVCall_IRQn 0 */
  /* USER CODE BEGIN SVCall_IRQn 1 */

  /* USER CODE END SVCall_IRQn 1 */
}
 80007fa:	bf00      	nop
 80007fc:	46bd      	mov	sp, r7
 80007fe:	f85d 7b04 	ldr.w	r7, [sp], #4
 8000802:	4770      	bx	lr

08000804 <DebugMon_Handler>:

/**
  * @brief This function handles Debug monitor.
  */
void DebugMon_Handler(void)
{
 8000804:	b480      	push	{r7}
 8000806:	af00      	add	r7, sp, #0

  /* USER CODE END DebugMonitor_IRQn 0 */
  /* USER CODE BEGIN DebugMonitor_IRQn 1 */

  /* USER CODE END DebugMonitor_IRQn 1 */
}
 8000808:	bf00      	nop
 800080a:	46bd      	mov	sp, r7
 800080c:	f85d 7b04 	ldr.w	r7, [sp], #4
 8000810:	4770      	bx	lr

08000812 <PendSV_Handler>:

/**
  * @brief This function handles Pendable request for system service.
  */
void PendSV_Handler(void)
{
 8000812:	b480      	push	{r7}
 8000814:	af00      	add	r7, sp, #0

  /* USER CODE END PendSV_IRQn 0 */
  /* USER CODE BEGIN PendSV_IRQn 1 */

  /* USER CODE END PendSV_IRQn 1 */
}
 8000816:	bf00      	nop
 8000818:	46bd      	mov	sp, r7
 800081a:	f85d 7b04 	ldr.w	r7, [sp], #4
 800081e:	4770      	bx	lr

08000820 <SysTick_Handler>:

/**
  * @brief This function handles System tick timer.
  */
void SysTick_Handler(void)
{
 8000820:	b580      	push	{r7, lr}
 8000822:	af00      	add	r7, sp, #0
  /* USER CODE BEGIN SysTick_IRQn 0 */

  /* USER CODE END SysTick_IRQn 0 */
  HAL_IncTick();
 8000824:	f000 f890 	bl	8000948 <HAL_IncTick>
  /* USER CODE BEGIN SysTick_IRQn 1 */

  /* USER CODE END SysTick_IRQn 1 */
}
 8000828:	bf00      	nop
 800082a:	bd80      	pop	{r7, pc}

0800082c <SystemInit>:
  *         configuration.
  * @param  None
  * @retval None
  */
void SystemInit(void)
{
 800082c:	b480      	push	{r7}
 800082e:	af00      	add	r7, sp, #0
  /* FPU settings ------------------------------------------------------------*/
  #if (__FPU_PRESENT == 1) && (__FPU_USED == 1)
    SCB->CPACR |= ((3UL << 10*2)|(3UL << 11*2));  /* set CP10 and CP11 Full Access */
 8000830:	4b06      	ldr	r3, [pc, #24]	; (800084c <SystemInit+0x20>)
 8000832:	f8d3 3088 	ldr.w	r3, [r3, #136]	; 0x88
 8000836:	4a05      	ldr	r2, [pc, #20]	; (800084c <SystemInit+0x20>)
 8000838:	f443 0370 	orr.w	r3, r3, #15728640	; 0xf00000
 800083c:	f8c2 3088 	str.w	r3, [r2, #136]	; 0x88

  /* Configure the Vector Table location -------------------------------------*/
#if defined(USER_VECT_TAB_ADDRESS)
  SCB->VTOR = VECT_TAB_BASE_ADDRESS | VECT_TAB_OFFSET; /* Vector Table Relocation in Internal SRAM */
#endif /* USER_VECT_TAB_ADDRESS */
}
 8000840:	bf00      	nop
 8000842:	46bd      	mov	sp, r7
 8000844:	f85d 7b04 	ldr.w	r7, [sp], #4
 8000848:	4770      	bx	lr
 800084a:	bf00      	nop
 800084c:	e000ed00 	.word	0xe000ed00

08000850 <Reset_Handler>:

    .section  .text.Reset_Handler
  .weak  Reset_Handler
  .type  Reset_Handler, %function
Reset_Handler:  
  ldr   sp, =_estack     /* set stack pointer */
 8000850:	f8df d034 	ldr.w	sp, [pc, #52]	; 8000888 <LoopFillZerobss+0x12>

/* Copy the data segment initializers from flash to SRAM */  
  ldr r0, =_sdata
 8000854:	480d      	ldr	r0, [pc, #52]	; (800088c <LoopFillZerobss+0x16>)
  ldr r1, =_edata
 8000856:	490e      	ldr	r1, [pc, #56]	; (8000890 <LoopFillZerobss+0x1a>)
  ldr r2, =_sidata
 8000858:	4a0e      	ldr	r2, [pc, #56]	; (8000894 <LoopFillZerobss+0x1e>)
  movs r3, #0
 800085a:	2300      	movs	r3, #0
  b LoopCopyDataInit
 800085c:	e002      	b.n	8000864 <LoopCopyDataInit>

0800085e <CopyDataInit>:

CopyDataInit:
  ldr r4, [r2, r3]
 800085e:	58d4      	ldr	r4, [r2, r3]
  str r4, [r0, r3]
 8000860:	50c4      	str	r4, [r0, r3]
  adds r3, r3, #4
 8000862:	3304      	adds	r3, #4

08000864 <LoopCopyDataInit>:

LoopCopyDataInit:
  adds r4, r0, r3
 8000864:	18c4      	adds	r4, r0, r3
  cmp r4, r1
 8000866:	428c      	cmp	r4, r1
  bcc CopyDataInit
 8000868:	d3f9      	bcc.n	800085e <CopyDataInit>
  
/* Zero fill the bss segment. */
  ldr r2, =_sbss
 800086a:	4a0b      	ldr	r2, [pc, #44]	; (8000898 <LoopFillZerobss+0x22>)
  ldr r4, =_ebss
 800086c:	4c0b      	ldr	r4, [pc, #44]	; (800089c <LoopFillZerobss+0x26>)
  movs r3, #0
 800086e:	2300      	movs	r3, #0
  b LoopFillZerobss
 8000870:	e001      	b.n	8000876 <LoopFillZerobss>

08000872 <FillZerobss>:

FillZerobss:
  str  r3, [r2]
 8000872:	6013      	str	r3, [r2, #0]
  adds r2, r2, #4
 8000874:	3204      	adds	r2, #4

08000876 <LoopFillZerobss>:

LoopFillZerobss:
  cmp r2, r4
 8000876:	42a2      	cmp	r2, r4
  bcc FillZerobss
 8000878:	d3fb      	bcc.n	8000872 <FillZerobss>

/* Call the clock system initialization function.*/
  bl  SystemInit   
 800087a:	f7ff ffd7 	bl	800082c <SystemInit>
/* Call static constructors */
    bl __libc_init_array
 800087e:	f001 fa5f 	bl	8001d40 <__libc_init_array>
/* Call the application's entry point.*/
  bl  main
 8000882:	f7ff fe23 	bl	80004cc <main>
  bx  lr    
 8000886:	4770      	bx	lr
  ldr   sp, =_estack     /* set stack pointer */
 8000888:	20020000 	.word	0x20020000
  ldr r0, =_sdata
 800088c:	20000000 	.word	0x20000000
  ldr r1, =_edata
 8000890:	20000010 	.word	0x20000010
  ldr r2, =_sidata
 8000894:	08001dd0 	.word	0x08001dd0
  ldr r2, =_sbss
 8000898:	20000010 	.word	0x20000010
  ldr r4, =_ebss
 800089c:	2000008c 	.word	0x2000008c

080008a0 <ADC_IRQHandler>:
 * @retval None       
*/
    .section  .text.Default_Handler,"ax",%progbits
Default_Handler:
Infinite_Loop:
  b  Infinite_Loop
 80008a0:	e7fe      	b.n	80008a0 <ADC_IRQHandler>
	...

080008a4 <HAL_Init>:
  *         need to ensure that the SysTick time base is always set to 1 millisecond
  *         to have correct HAL operation.
  * @retval HAL status
  */
HAL_StatusTypeDef HAL_Init(void)
{
 80008a4:	b580      	push	{r7, lr}
 80008a6:	af00      	add	r7, sp, #0
  /* Configure Flash prefetch, Instruction cache, Data cache */ 
#if (INSTRUCTION_CACHE_ENABLE != 0U)
  __HAL_FLASH_INSTRUCTION_CACHE_ENABLE();
 80008a8:	4b0e      	ldr	r3, [pc, #56]	; (80008e4 <HAL_Init+0x40>)
 80008aa:	681b      	ldr	r3, [r3, #0]
 80008ac:	4a0d      	ldr	r2, [pc, #52]	; (80008e4 <HAL_Init+0x40>)
 80008ae:	f443 7300 	orr.w	r3, r3, #512	; 0x200
 80008b2:	6013      	str	r3, [r2, #0]
#endif /* INSTRUCTION_CACHE_ENABLE */

#if (DATA_CACHE_ENABLE != 0U)
  __HAL_FLASH_DATA_CACHE_ENABLE();
 80008b4:	4b0b      	ldr	r3, [pc, #44]	; (80008e4 <HAL_Init+0x40>)
 80008b6:	681b      	ldr	r3, [r3, #0]
 80008b8:	4a0a      	ldr	r2, [pc, #40]	; (80008e4 <HAL_Init+0x40>)
 80008ba:	f443 6380 	orr.w	r3, r3, #1024	; 0x400
 80008be:	6013      	str	r3, [r2, #0]
#endif /* DATA_CACHE_ENABLE */

#if (PREFETCH_ENABLE != 0U)
  __HAL_FLASH_PREFETCH_BUFFER_ENABLE();
 80008c0:	4b08      	ldr	r3, [pc, #32]	; (80008e4 <HAL_Init+0x40>)
 80008c2:	681b      	ldr	r3, [r3, #0]
 80008c4:	4a07      	ldr	r2, [pc, #28]	; (80008e4 <HAL_Init+0x40>)
 80008c6:	f443 7380 	orr.w	r3, r3, #256	; 0x100
 80008ca:	6013      	str	r3, [r2, #0]
#endif /* PREFETCH_ENABLE */

  /* Set Interrupt Group Priority */
  HAL_NVIC_SetPriorityGrouping(NVIC_PRIORITYGROUP_4);
 80008cc:	2003      	movs	r0, #3
 80008ce:	f000 f90d 	bl	8000aec <HAL_NVIC_SetPriorityGrouping>

  /* Use systick as time base source and configure 1ms tick (default clock after Reset is HSI) */
  HAL_InitTick(TICK_INT_PRIORITY);
 80008d2:	2000      	movs	r0, #0
 80008d4:	f000 f808 	bl	80008e8 <HAL_InitTick>

  /* Init the low level hardware */
  HAL_MspInit();
 80008d8:	f7ff feee 	bl	80006b8 <HAL_MspInit>

  /* Return function status */
  return HAL_OK;
 80008dc:	2300      	movs	r3, #0
}
 80008de:	4618      	mov	r0, r3
 80008e0:	bd80      	pop	{r7, pc}
 80008e2:	bf00      	nop
 80008e4:	40023c00 	.word	0x40023c00

080008e8 <HAL_InitTick>:
  *       implementation  in user file.
  * @param TickPriority Tick interrupt priority.
  * @retval HAL status
  */
__weak HAL_StatusTypeDef HAL_InitTick(uint32_t TickPriority)
{
 80008e8:	b580      	push	{r7, lr}
 80008ea:	b082      	sub	sp, #8
 80008ec:	af00      	add	r7, sp, #0
 80008ee:	6078      	str	r0, [r7, #4]
  /* Configure the SysTick to have interrupt in 1ms time basis*/
  if (HAL_SYSTICK_Config(SystemCoreClock / (1000U / uwTickFreq)) > 0U)
 80008f0:	4b12      	ldr	r3, [pc, #72]	; (800093c <HAL_InitTick+0x54>)
 80008f2:	681a      	ldr	r2, [r3, #0]
 80008f4:	4b12      	ldr	r3, [pc, #72]	; (8000940 <HAL_InitTick+0x58>)
 80008f6:	781b      	ldrb	r3, [r3, #0]
 80008f8:	4619      	mov	r1, r3
 80008fa:	f44f 737a 	mov.w	r3, #1000	; 0x3e8
 80008fe:	fbb3 f3f1 	udiv	r3, r3, r1
 8000902:	fbb2 f3f3 	udiv	r3, r2, r3
 8000906:	4618      	mov	r0, r3
 8000908:	f000 f917 	bl	8000b3a <HAL_SYSTICK_Config>
 800090c:	4603      	mov	r3, r0
 800090e:	2b00      	cmp	r3, #0
 8000910:	d001      	beq.n	8000916 <HAL_InitTick+0x2e>
  {
    return HAL_ERROR;
 8000912:	2301      	movs	r3, #1
 8000914:	e00e      	b.n	8000934 <HAL_InitTick+0x4c>
  }

  /* Configure the SysTick IRQ priority */
  if (TickPriority < (1UL << __NVIC_PRIO_BITS))
 8000916:	687b      	ldr	r3, [r7, #4]
 8000918:	2b0f      	cmp	r3, #15
 800091a:	d80a      	bhi.n	8000932 <HAL_InitTick+0x4a>
  {
    HAL_NVIC_SetPriority(SysTick_IRQn, TickPriority, 0U);
 800091c:	2200      	movs	r2, #0
 800091e:	6879      	ldr	r1, [r7, #4]
 8000920:	f04f 30ff 	mov.w	r0, #4294967295
 8000924:	f000 f8ed 	bl	8000b02 <HAL_NVIC_SetPriority>
    uwTickPrio = TickPriority;
 8000928:	4a06      	ldr	r2, [pc, #24]	; (8000944 <HAL_InitTick+0x5c>)
 800092a:	687b      	ldr	r3, [r7, #4]
 800092c:	6013      	str	r3, [r2, #0]
  {
    return HAL_ERROR;
  }

  /* Return function status */
  return HAL_OK;
 800092e:	2300      	movs	r3, #0
 8000930:	e000      	b.n	8000934 <HAL_InitTick+0x4c>
    return HAL_ERROR;
 8000932:	2301      	movs	r3, #1
}
 8000934:	4618      	mov	r0, r3
 8000936:	3708      	adds	r7, #8
 8000938:	46bd      	mov	sp, r7
 800093a:	bd80      	pop	{r7, pc}
 800093c:	20000004 	.word	0x20000004
 8000940:	2000000c 	.word	0x2000000c
 8000944:	20000008 	.word	0x20000008

08000948 <HAL_IncTick>:
 * @note This function is declared as __weak to be overwritten in case of other 
  *      implementations in user file.
  * @retval None
  */
__weak void HAL_IncTick(void)
{
 8000948:	b480      	push	{r7}
 800094a:	af00      	add	r7, sp, #0
  uwTick += uwTickFreq;
 800094c:	4b06      	ldr	r3, [pc, #24]	; (8000968 <HAL_IncTick+0x20>)
 800094e:	781b      	ldrb	r3, [r3, #0]
 8000950:	461a      	mov	r2, r3
 8000952:	4b06      	ldr	r3, [pc, #24]	; (800096c <HAL_IncTick+0x24>)
 8000954:	681b      	ldr	r3, [r3, #0]
 8000956:	4413      	add	r3, r2
 8000958:	4a04      	ldr	r2, [pc, #16]	; (800096c <HAL_IncTick+0x24>)
 800095a:	6013      	str	r3, [r2, #0]
}
 800095c:	bf00      	nop
 800095e:	46bd      	mov	sp, r7
 8000960:	f85d 7b04 	ldr.w	r7, [sp], #4
 8000964:	4770      	bx	lr
 8000966:	bf00      	nop
 8000968:	2000000c 	.word	0x2000000c
 800096c:	20000088 	.word	0x20000088

08000970 <HAL_GetTick>:
  * @note This function is declared as __weak to be overwritten in case of other 
  *       implementations in user file.
  * @retval tick value
  */
__weak uint32_t HAL_GetTick(void)
{
 8000970:	b480      	push	{r7}
 8000972:	af00      	add	r7, sp, #0
  return uwTick;
 8000974:	4b03      	ldr	r3, [pc, #12]	; (8000984 <HAL_GetTick+0x14>)
 8000976:	681b      	ldr	r3, [r3, #0]
}
 8000978:	4618      	mov	r0, r3
 800097a:	46bd      	mov	sp, r7
 800097c:	f85d 7b04 	ldr.w	r7, [sp], #4
 8000980:	4770      	bx	lr
 8000982:	bf00      	nop
 8000984:	20000088 	.word	0x20000088

08000988 <__NVIC_SetPriorityGrouping>:
           In case of a conflict between priority grouping and available
           priority bits (__NVIC_PRIO_BITS), the smallest possible priority group is set.
  \param [in]      PriorityGroup  Priority grouping field.
 */
__STATIC_INLINE void __NVIC_SetPriorityGrouping(uint32_t PriorityGroup)
{
 8000988:	b480      	push	{r7}
 800098a:	b085      	sub	sp, #20
 800098c:	af00      	add	r7, sp, #0
 800098e:	6078      	str	r0, [r7, #4]
  uint32_t reg_value;
  uint32_t PriorityGroupTmp = (PriorityGroup & (uint32_t)0x07UL);             /* only values 0..7 are used          */
 8000990:	687b      	ldr	r3, [r7, #4]
 8000992:	f003 0307 	and.w	r3, r3, #7
 8000996:	60fb      	str	r3, [r7, #12]

  reg_value  =  SCB->AIRCR;                                                   /* read old register configuration    */
 8000998:	4b0c      	ldr	r3, [pc, #48]	; (80009cc <__NVIC_SetPriorityGrouping+0x44>)
 800099a:	68db      	ldr	r3, [r3, #12]
 800099c:	60bb      	str	r3, [r7, #8]
  reg_value &= ~((uint32_t)(SCB_AIRCR_VECTKEY_Msk | SCB_AIRCR_PRIGROUP_Msk)); /* clear bits to change               */
 800099e:	68ba      	ldr	r2, [r7, #8]
 80009a0:	f64f 03ff 	movw	r3, #63743	; 0xf8ff
 80009a4:	4013      	ands	r3, r2
 80009a6:	60bb      	str	r3, [r7, #8]
  reg_value  =  (reg_value                                   |
                ((uint32_t)0x5FAUL << SCB_AIRCR_VECTKEY_Pos) |
                (PriorityGroupTmp << SCB_AIRCR_PRIGROUP_Pos)  );              /* Insert write key and priority group */
 80009a8:	68fb      	ldr	r3, [r7, #12]
 80009aa:	021a      	lsls	r2, r3, #8
                ((uint32_t)0x5FAUL << SCB_AIRCR_VECTKEY_Pos) |
 80009ac:	68bb      	ldr	r3, [r7, #8]
 80009ae:	4313      	orrs	r3, r2
  reg_value  =  (reg_value                                   |
 80009b0:	f043 63bf 	orr.w	r3, r3, #100139008	; 0x5f80000
 80009b4:	f443 3300 	orr.w	r3, r3, #131072	; 0x20000
 80009b8:	60bb      	str	r3, [r7, #8]
  SCB->AIRCR =  reg_value;
 80009ba:	4a04      	ldr	r2, [pc, #16]	; (80009cc <__NVIC_SetPriorityGrouping+0x44>)
 80009bc:	68bb      	ldr	r3, [r7, #8]
 80009be:	60d3      	str	r3, [r2, #12]
}
 80009c0:	bf00      	nop
 80009c2:	3714      	adds	r7, #20
 80009c4:	46bd      	mov	sp, r7
 80009c6:	f85d 7b04 	ldr.w	r7, [sp], #4
 80009ca:	4770      	bx	lr
 80009cc:	e000ed00 	.word	0xe000ed00

080009d0 <__NVIC_GetPriorityGrouping>:
  \brief   Get Priority Grouping
  \details Reads the priority grouping field from the NVIC Interrupt Controller.
  \return                Priority grouping field (SCB->AIRCR [10:8] PRIGROUP field).
 */
__STATIC_INLINE uint32_t __NVIC_GetPriorityGrouping(void)
{
 80009d0:	b480      	push	{r7}
 80009d2:	af00      	add	r7, sp, #0
  return ((uint32_t)((SCB->AIRCR & SCB_AIRCR_PRIGROUP_Msk) >> SCB_AIRCR_PRIGROUP_Pos));
 80009d4:	4b04      	ldr	r3, [pc, #16]	; (80009e8 <__NVIC_GetPriorityGrouping+0x18>)
 80009d6:	68db      	ldr	r3, [r3, #12]
 80009d8:	0a1b      	lsrs	r3, r3, #8
 80009da:	f003 0307 	and.w	r3, r3, #7
}
 80009de:	4618      	mov	r0, r3
 80009e0:	46bd      	mov	sp, r7
 80009e2:	f85d 7b04 	ldr.w	r7, [sp], #4
 80009e6:	4770      	bx	lr
 80009e8:	e000ed00 	.word	0xe000ed00

080009ec <__NVIC_SetPriority>:
  \param [in]      IRQn  Interrupt number.
  \param [in]  priority  Priority to set.
  \note    The priority cannot be set for every processor exception.
 */
__STATIC_INLINE void __NVIC_SetPriority(IRQn_Type IRQn, uint32_t priority)
{
 80009ec:	b480      	push	{r7}
 80009ee:	b083      	sub	sp, #12
 80009f0:	af00      	add	r7, sp, #0
 80009f2:	4603      	mov	r3, r0
 80009f4:	6039      	str	r1, [r7, #0]
 80009f6:	71fb      	strb	r3, [r7, #7]
  if ((int32_t)(IRQn) >= 0)
 80009f8:	f997 3007 	ldrsb.w	r3, [r7, #7]
 80009fc:	2b00      	cmp	r3, #0
 80009fe:	db0a      	blt.n	8000a16 <__NVIC_SetPriority+0x2a>
  {
    NVIC->IP[((uint32_t)IRQn)]               = (uint8_t)((priority << (8U - __NVIC_PRIO_BITS)) & (uint32_t)0xFFUL);
 8000a00:	683b      	ldr	r3, [r7, #0]
 8000a02:	b2da      	uxtb	r2, r3
 8000a04:	490c      	ldr	r1, [pc, #48]	; (8000a38 <__NVIC_SetPriority+0x4c>)
 8000a06:	f997 3007 	ldrsb.w	r3, [r7, #7]
 8000a0a:	0112      	lsls	r2, r2, #4
 8000a0c:	b2d2      	uxtb	r2, r2
 8000a0e:	440b      	add	r3, r1
 8000a10:	f883 2300 	strb.w	r2, [r3, #768]	; 0x300
  }
  else
  {
    SCB->SHP[(((uint32_t)IRQn) & 0xFUL)-4UL] = (uint8_t)((priority << (8U - __NVIC_PRIO_BITS)) & (uint32_t)0xFFUL);
  }
}
 8000a14:	e00a      	b.n	8000a2c <__NVIC_SetPriority+0x40>
    SCB->SHP[(((uint32_t)IRQn) & 0xFUL)-4UL] = (uint8_t)((priority << (8U - __NVIC_PRIO_BITS)) & (uint32_t)0xFFUL);
 8000a16:	683b      	ldr	r3, [r7, #0]
 8000a18:	b2da      	uxtb	r2, r3
 8000a1a:	4908      	ldr	r1, [pc, #32]	; (8000a3c <__NVIC_SetPriority+0x50>)
 8000a1c:	79fb      	ldrb	r3, [r7, #7]
 8000a1e:	f003 030f 	and.w	r3, r3, #15
 8000a22:	3b04      	subs	r3, #4
 8000a24:	0112      	lsls	r2, r2, #4
 8000a26:	b2d2      	uxtb	r2, r2
 8000a28:	440b      	add	r3, r1
 8000a2a:	761a      	strb	r2, [r3, #24]
}
 8000a2c:	bf00      	nop
 8000a2e:	370c      	adds	r7, #12
 8000a30:	46bd      	mov	sp, r7
 8000a32:	f85d 7b04 	ldr.w	r7, [sp], #4
 8000a36:	4770      	bx	lr
 8000a38:	e000e100 	.word	0xe000e100
 8000a3c:	e000ed00 	.word	0xe000ed00

08000a40 <NVIC_EncodePriority>:
  \param [in]   PreemptPriority  Preemptive priority value (starting from 0).
  \param [in]       SubPriority  Subpriority value (starting from 0).
  \return                        Encoded priority. Value can be used in the function \ref NVIC_SetPriority().
 */
__STATIC_INLINE uint32_t NVIC_EncodePriority (uint32_t PriorityGroup, uint32_t PreemptPriority, uint32_t SubPriority)
{
 8000a40:	b480      	push	{r7}
 8000a42:	b089      	sub	sp, #36	; 0x24
 8000a44:	af00      	add	r7, sp, #0
 8000a46:	60f8      	str	r0, [r7, #12]
 8000a48:	60b9      	str	r1, [r7, #8]
 8000a4a:	607a      	str	r2, [r7, #4]
  uint32_t PriorityGroupTmp = (PriorityGroup & (uint32_t)0x07UL);   /* only values 0..7 are used          */
 8000a4c:	68fb      	ldr	r3, [r7, #12]
 8000a4e:	f003 0307 	and.w	r3, r3, #7
 8000a52:	61fb      	str	r3, [r7, #28]
  uint32_t PreemptPriorityBits;
  uint32_t SubPriorityBits;

  PreemptPriorityBits = ((7UL - PriorityGroupTmp) > (uint32_t)(__NVIC_PRIO_BITS)) ? (uint32_t)(__NVIC_PRIO_BITS) : (uint32_t)(7UL - PriorityGroupTmp);
 8000a54:	69fb      	ldr	r3, [r7, #28]
 8000a56:	f1c3 0307 	rsb	r3, r3, #7
 8000a5a:	2b04      	cmp	r3, #4
 8000a5c:	bf28      	it	cs
 8000a5e:	2304      	movcs	r3, #4
 8000a60:	61bb      	str	r3, [r7, #24]
  SubPriorityBits     = ((PriorityGroupTmp + (uint32_t)(__NVIC_PRIO_BITS)) < (uint32_t)7UL) ? (uint32_t)0UL : (uint32_t)((PriorityGroupTmp - 7UL) + (uint32_t)(__NVIC_PRIO_BITS));
 8000a62:	69fb      	ldr	r3, [r7, #28]
 8000a64:	3304      	adds	r3, #4
 8000a66:	2b06      	cmp	r3, #6
 8000a68:	d902      	bls.n	8000a70 <NVIC_EncodePriority+0x30>
 8000a6a:	69fb      	ldr	r3, [r7, #28]
 8000a6c:	3b03      	subs	r3, #3
 8000a6e:	e000      	b.n	8000a72 <NVIC_EncodePriority+0x32>
 8000a70:	2300      	movs	r3, #0
 8000a72:	617b      	str	r3, [r7, #20]

  return (
           ((PreemptPriority & (uint32_t)((1UL << (PreemptPriorityBits)) - 1UL)) << SubPriorityBits) |
 8000a74:	f04f 32ff 	mov.w	r2, #4294967295
 8000a78:	69bb      	ldr	r3, [r7, #24]
 8000a7a:	fa02 f303 	lsl.w	r3, r2, r3
 8000a7e:	43da      	mvns	r2, r3
 8000a80:	68bb      	ldr	r3, [r7, #8]
 8000a82:	401a      	ands	r2, r3
 8000a84:	697b      	ldr	r3, [r7, #20]
 8000a86:	409a      	lsls	r2, r3
           ((SubPriority     & (uint32_t)((1UL << (SubPriorityBits    )) - 1UL)))
 8000a88:	f04f 31ff 	mov.w	r1, #4294967295
 8000a8c:	697b      	ldr	r3, [r7, #20]
 8000a8e:	fa01 f303 	lsl.w	r3, r1, r3
 8000a92:	43d9      	mvns	r1, r3
 8000a94:	687b      	ldr	r3, [r7, #4]
 8000a96:	400b      	ands	r3, r1
           ((PreemptPriority & (uint32_t)((1UL << (PreemptPriorityBits)) - 1UL)) << SubPriorityBits) |
 8000a98:	4313      	orrs	r3, r2
         );
}
 8000a9a:	4618      	mov	r0, r3
 8000a9c:	3724      	adds	r7, #36	; 0x24
 8000a9e:	46bd      	mov	sp, r7
 8000aa0:	f85d 7b04 	ldr.w	r7, [sp], #4
 8000aa4:	4770      	bx	lr
	...

08000aa8 <SysTick_Config>:
  \note    When the variable <b>__Vendor_SysTickConfig</b> is set to 1, then the
           function <b>SysTick_Config</b> is not included. In this case, the file <b><i>device</i>.h</b>
           must contain a vendor-specific implementation of this function.
 */
__STATIC_INLINE uint32_t SysTick_Config(uint32_t ticks)
{
 8000aa8:	b580      	push	{r7, lr}
 8000aaa:	b082      	sub	sp, #8
 8000aac:	af00      	add	r7, sp, #0
 8000aae:	6078      	str	r0, [r7, #4]
  if ((ticks - 1UL) > SysTick_LOAD_RELOAD_Msk)
 8000ab0:	687b      	ldr	r3, [r7, #4]
 8000ab2:	3b01      	subs	r3, #1
 8000ab4:	f1b3 7f80 	cmp.w	r3, #16777216	; 0x1000000
 8000ab8:	d301      	bcc.n	8000abe <SysTick_Config+0x16>
  {
    return (1UL);                                                   /* Reload value impossible */
 8000aba:	2301      	movs	r3, #1
 8000abc:	e00f      	b.n	8000ade <SysTick_Config+0x36>
  }

  SysTick->LOAD  = (uint32_t)(ticks - 1UL);                         /* set reload register */
 8000abe:	4a0a      	ldr	r2, [pc, #40]	; (8000ae8 <SysTick_Config+0x40>)
 8000ac0:	687b      	ldr	r3, [r7, #4]
 8000ac2:	3b01      	subs	r3, #1
 8000ac4:	6053      	str	r3, [r2, #4]
  NVIC_SetPriority (SysTick_IRQn, (1UL << __NVIC_PRIO_BITS) - 1UL); /* set Priority for Systick Interrupt */
 8000ac6:	210f      	movs	r1, #15
 8000ac8:	f04f 30ff 	mov.w	r0, #4294967295
 8000acc:	f7ff ff8e 	bl	80009ec <__NVIC_SetPriority>
  SysTick->VAL   = 0UL;                                             /* Load the SysTick Counter Value */
 8000ad0:	4b05      	ldr	r3, [pc, #20]	; (8000ae8 <SysTick_Config+0x40>)
 8000ad2:	2200      	movs	r2, #0
 8000ad4:	609a      	str	r2, [r3, #8]
  SysTick->CTRL  = SysTick_CTRL_CLKSOURCE_Msk |
 8000ad6:	4b04      	ldr	r3, [pc, #16]	; (8000ae8 <SysTick_Config+0x40>)
 8000ad8:	2207      	movs	r2, #7
 8000ada:	601a      	str	r2, [r3, #0]
                   SysTick_CTRL_TICKINT_Msk   |
                   SysTick_CTRL_ENABLE_Msk;                         /* Enable SysTick IRQ and SysTick Timer */
  return (0UL);                                                     /* Function successful */
 8000adc:	2300      	movs	r3, #0
}
 8000ade:	4618      	mov	r0, r3
 8000ae0:	3708      	adds	r7, #8
 8000ae2:	46bd      	mov	sp, r7
 8000ae4:	bd80      	pop	{r7, pc}
 8000ae6:	bf00      	nop
 8000ae8:	e000e010 	.word	0xe000e010

08000aec <HAL_NVIC_SetPriorityGrouping>:
  * @note   When the NVIC_PriorityGroup_0 is selected, IRQ preemption is no more possible. 
  *         The pending IRQ priority will be managed only by the subpriority. 
  * @retval None
  */
void HAL_NVIC_SetPriorityGrouping(uint32_t PriorityGroup)
{
 8000aec:	b580      	push	{r7, lr}
 8000aee:	b082      	sub	sp, #8
 8000af0:	af00      	add	r7, sp, #0
 8000af2:	6078      	str	r0, [r7, #4]
  /* Check the parameters */
  assert_param(IS_NVIC_PRIORITY_GROUP(PriorityGroup));
  
  /* Set the PRIGROUP[10:8] bits according to the PriorityGroup parameter value */
  NVIC_SetPriorityGrouping(PriorityGroup);
 8000af4:	6878      	ldr	r0, [r7, #4]
 8000af6:	f7ff ff47 	bl	8000988 <__NVIC_SetPriorityGrouping>
}
 8000afa:	bf00      	nop
 8000afc:	3708      	adds	r7, #8
 8000afe:	46bd      	mov	sp, r7
 8000b00:	bd80      	pop	{r7, pc}

08000b02 <HAL_NVIC_SetPriority>:
  *         This parameter can be a value between 0 and 15
  *         A lower priority value indicates a higher priority.          
  * @retval None
  */
void HAL_NVIC_SetPriority(IRQn_Type IRQn, uint32_t PreemptPriority, uint32_t SubPriority)
{ 
 8000b02:	b580      	push	{r7, lr}
 8000b04:	b086      	sub	sp, #24
 8000b06:	af00      	add	r7, sp, #0
 8000b08:	4603      	mov	r3, r0
 8000b0a:	60b9      	str	r1, [r7, #8]
 8000b0c:	607a      	str	r2, [r7, #4]
 8000b0e:	73fb      	strb	r3, [r7, #15]
  uint32_t prioritygroup = 0x00U;
 8000b10:	2300      	movs	r3, #0
 8000b12:	617b      	str	r3, [r7, #20]
  
  /* Check the parameters */
  assert_param(IS_NVIC_SUB_PRIORITY(SubPriority));
  assert_param(IS_NVIC_PREEMPTION_PRIORITY(PreemptPriority));
  
  prioritygroup = NVIC_GetPriorityGrouping();
 8000b14:	f7ff ff5c 	bl	80009d0 <__NVIC_GetPriorityGrouping>
 8000b18:	6178      	str	r0, [r7, #20]
  
  NVIC_SetPriority(IRQn, NVIC_EncodePriority(prioritygroup, PreemptPriority, SubPriority));
 8000b1a:	687a      	ldr	r2, [r7, #4]
 8000b1c:	68b9      	ldr	r1, [r7, #8]
 8000b1e:	6978      	ldr	r0, [r7, #20]
 8000b20:	f7ff ff8e 	bl	8000a40 <NVIC_EncodePriority>
 8000b24:	4602      	mov	r2, r0
 8000b26:	f997 300f 	ldrsb.w	r3, [r7, #15]
 8000b2a:	4611      	mov	r1, r2
 8000b2c:	4618      	mov	r0, r3
 8000b2e:	f7ff ff5d 	bl	80009ec <__NVIC_SetPriority>
}
 8000b32:	bf00      	nop
 8000b34:	3718      	adds	r7, #24
 8000b36:	46bd      	mov	sp, r7
 8000b38:	bd80      	pop	{r7, pc}

08000b3a <HAL_SYSTICK_Config>:
  * @param  TicksNumb Specifies the ticks Number of ticks between two interrupts.
  * @retval status:  - 0  Function succeeded.
  *                  - 1  Function failed.
  */
uint32_t HAL_SYSTICK_Config(uint32_t TicksNumb)
{
 8000b3a:	b580      	push	{r7, lr}
 8000b3c:	b082      	sub	sp, #8
 8000b3e:	af00      	add	r7, sp, #0
 8000b40:	6078      	str	r0, [r7, #4]
   return SysTick_Config(TicksNumb);
 8000b42:	6878      	ldr	r0, [r7, #4]
 8000b44:	f7ff ffb0 	bl	8000aa8 <SysTick_Config>
 8000b48:	4603      	mov	r3, r0
}
 8000b4a:	4618      	mov	r0, r3
 8000b4c:	3708      	adds	r7, #8
 8000b4e:	46bd      	mov	sp, r7
 8000b50:	bd80      	pop	{r7, pc}
	...

08000b54 <HAL_GPIO_Init>:
  * @param  GPIO_Init pointer to a GPIO_InitTypeDef structure that contains
  *         the configuration information for the specified GPIO peripheral.
  * @retval None
  */
void HAL_GPIO_Init(GPIO_TypeDef  *GPIOx, GPIO_InitTypeDef *GPIO_Init)
{
 8000b54:	b480      	push	{r7}
 8000b56:	b089      	sub	sp, #36	; 0x24
 8000b58:	af00      	add	r7, sp, #0
 8000b5a:	6078      	str	r0, [r7, #4]
 8000b5c:	6039      	str	r1, [r7, #0]
  uint32_t position;
  uint32_t ioposition = 0x00U;
 8000b5e:	2300      	movs	r3, #0
 8000b60:	617b      	str	r3, [r7, #20]
  uint32_t iocurrent = 0x00U;
 8000b62:	2300      	movs	r3, #0
 8000b64:	613b      	str	r3, [r7, #16]
  uint32_t temp = 0x00U;
 8000b66:	2300      	movs	r3, #0
 8000b68:	61bb      	str	r3, [r7, #24]
  assert_param(IS_GPIO_ALL_INSTANCE(GPIOx));
  assert_param(IS_GPIO_PIN(GPIO_Init->Pin));
  assert_param(IS_GPIO_MODE(GPIO_Init->Mode));

  /* Configure the port pins */
  for(position = 0U; position < GPIO_NUMBER; position++)
 8000b6a:	2300      	movs	r3, #0
 8000b6c:	61fb      	str	r3, [r7, #28]
 8000b6e:	e16b      	b.n	8000e48 <HAL_GPIO_Init+0x2f4>
  {
    /* Get the IO position */
    ioposition = 0x01U << position;
 8000b70:	2201      	movs	r2, #1
 8000b72:	69fb      	ldr	r3, [r7, #28]
 8000b74:	fa02 f303 	lsl.w	r3, r2, r3
 8000b78:	617b      	str	r3, [r7, #20]
    /* Get the current IO position */
    iocurrent = (uint32_t)(GPIO_Init->Pin) & ioposition;
 8000b7a:	683b      	ldr	r3, [r7, #0]
 8000b7c:	681b      	ldr	r3, [r3, #0]
 8000b7e:	697a      	ldr	r2, [r7, #20]
 8000b80:	4013      	ands	r3, r2
 8000b82:	613b      	str	r3, [r7, #16]

    if(iocurrent == ioposition)
 8000b84:	693a      	ldr	r2, [r7, #16]
 8000b86:	697b      	ldr	r3, [r7, #20]
 8000b88:	429a      	cmp	r2, r3
 8000b8a:	f040 815a 	bne.w	8000e42 <HAL_GPIO_Init+0x2ee>
    {
      /*--------------------- GPIO Mode Configuration ------------------------*/
      /* In case of Output or Alternate function mode selection */
      if(((GPIO_Init->Mode & GPIO_MODE) == MODE_OUTPUT) || \
 8000b8e:	683b      	ldr	r3, [r7, #0]
 8000b90:	685b      	ldr	r3, [r3, #4]
 8000b92:	f003 0303 	and.w	r3, r3, #3
 8000b96:	2b01      	cmp	r3, #1
 8000b98:	d005      	beq.n	8000ba6 <HAL_GPIO_Init+0x52>
          (GPIO_Init->Mode & GPIO_MODE) == MODE_AF)
 8000b9a:	683b      	ldr	r3, [r7, #0]
 8000b9c:	685b      	ldr	r3, [r3, #4]
 8000b9e:	f003 0303 	and.w	r3, r3, #3
      if(((GPIO_Init->Mode & GPIO_MODE) == MODE_OUTPUT) || \
 8000ba2:	2b02      	cmp	r3, #2
 8000ba4:	d130      	bne.n	8000c08 <HAL_GPIO_Init+0xb4>
      {
        /* Check the Speed parameter */
        assert_param(IS_GPIO_SPEED(GPIO_Init->Speed));
        /* Configure the IO Speed */
        temp = GPIOx->OSPEEDR; 
 8000ba6:	687b      	ldr	r3, [r7, #4]
 8000ba8:	689b      	ldr	r3, [r3, #8]
 8000baa:	61bb      	str	r3, [r7, #24]
        temp &= ~(GPIO_OSPEEDER_OSPEEDR0 << (position * 2U));
 8000bac:	69fb      	ldr	r3, [r7, #28]
 8000bae:	005b      	lsls	r3, r3, #1
 8000bb0:	2203      	movs	r2, #3
 8000bb2:	fa02 f303 	lsl.w	r3, r2, r3
 8000bb6:	43db      	mvns	r3, r3
 8000bb8:	69ba      	ldr	r2, [r7, #24]
 8000bba:	4013      	ands	r3, r2
 8000bbc:	61bb      	str	r3, [r7, #24]
        temp |= (GPIO_Init->Speed << (position * 2U));
 8000bbe:	683b      	ldr	r3, [r7, #0]
 8000bc0:	68da      	ldr	r2, [r3, #12]
 8000bc2:	69fb      	ldr	r3, [r7, #28]
 8000bc4:	005b      	lsls	r3, r3, #1
 8000bc6:	fa02 f303 	lsl.w	r3, r2, r3
 8000bca:	69ba      	ldr	r2, [r7, #24]
 8000bcc:	4313      	orrs	r3, r2
 8000bce:	61bb      	str	r3, [r7, #24]
        GPIOx->OSPEEDR = temp;
 8000bd0:	687b      	ldr	r3, [r7, #4]
 8000bd2:	69ba      	ldr	r2, [r7, #24]
 8000bd4:	609a      	str	r2, [r3, #8]

        /* Configure the IO Output Type */
        temp = GPIOx->OTYPER;
 8000bd6:	687b      	ldr	r3, [r7, #4]
 8000bd8:	685b      	ldr	r3, [r3, #4]
 8000bda:	61bb      	str	r3, [r7, #24]
        temp &= ~(GPIO_OTYPER_OT_0 << position) ;
 8000bdc:	2201      	movs	r2, #1
 8000bde:	69fb      	ldr	r3, [r7, #28]
 8000be0:	fa02 f303 	lsl.w	r3, r2, r3
 8000be4:	43db      	mvns	r3, r3
 8000be6:	69ba      	ldr	r2, [r7, #24]
 8000be8:	4013      	ands	r3, r2
 8000bea:	61bb      	str	r3, [r7, #24]
        temp |= (((GPIO_Init->Mode & OUTPUT_TYPE) >> OUTPUT_TYPE_Pos) << position);
 8000bec:	683b      	ldr	r3, [r7, #0]
 8000bee:	685b      	ldr	r3, [r3, #4]
 8000bf0:	091b      	lsrs	r3, r3, #4
 8000bf2:	f003 0201 	and.w	r2, r3, #1
 8000bf6:	69fb      	ldr	r3, [r7, #28]
 8000bf8:	fa02 f303 	lsl.w	r3, r2, r3
 8000bfc:	69ba      	ldr	r2, [r7, #24]
 8000bfe:	4313      	orrs	r3, r2
 8000c00:	61bb      	str	r3, [r7, #24]
        GPIOx->OTYPER = temp;
 8000c02:	687b      	ldr	r3, [r7, #4]
 8000c04:	69ba      	ldr	r2, [r7, #24]
 8000c06:	605a      	str	r2, [r3, #4]
       }

      if((GPIO_Init->Mode & GPIO_MODE) != MODE_ANALOG)
 8000c08:	683b      	ldr	r3, [r7, #0]
 8000c0a:	685b      	ldr	r3, [r3, #4]
 8000c0c:	f003 0303 	and.w	r3, r3, #3
 8000c10:	2b03      	cmp	r3, #3
 8000c12:	d017      	beq.n	8000c44 <HAL_GPIO_Init+0xf0>
      {
        /* Check the parameters */
        assert_param(IS_GPIO_PULL(GPIO_Init->Pull));
        
        /* Activate the Pull-up or Pull down resistor for the current IO */
        temp = GPIOx->PUPDR;
 8000c14:	687b      	ldr	r3, [r7, #4]
 8000c16:	68db      	ldr	r3, [r3, #12]
 8000c18:	61bb      	str	r3, [r7, #24]
        temp &= ~(GPIO_PUPDR_PUPDR0 << (position * 2U));
 8000c1a:	69fb      	ldr	r3, [r7, #28]
 8000c1c:	005b      	lsls	r3, r3, #1
 8000c1e:	2203      	movs	r2, #3
 8000c20:	fa02 f303 	lsl.w	r3, r2, r3
 8000c24:	43db      	mvns	r3, r3
 8000c26:	69ba      	ldr	r2, [r7, #24]
 8000c28:	4013      	ands	r3, r2
 8000c2a:	61bb      	str	r3, [r7, #24]
        temp |= ((GPIO_Init->Pull) << (position * 2U));
 8000c2c:	683b      	ldr	r3, [r7, #0]
 8000c2e:	689a      	ldr	r2, [r3, #8]
 8000c30:	69fb      	ldr	r3, [r7, #28]
 8000c32:	005b      	lsls	r3, r3, #1
 8000c34:	fa02 f303 	lsl.w	r3, r2, r3
 8000c38:	69ba      	ldr	r2, [r7, #24]
 8000c3a:	4313      	orrs	r3, r2
 8000c3c:	61bb      	str	r3, [r7, #24]
        GPIOx->PUPDR = temp;
 8000c3e:	687b      	ldr	r3, [r7, #4]
 8000c40:	69ba      	ldr	r2, [r7, #24]
 8000c42:	60da      	str	r2, [r3, #12]
      }

      /* In case of Alternate function mode selection */
      if((GPIO_Init->Mode & GPIO_MODE) == MODE_AF)
 8000c44:	683b      	ldr	r3, [r7, #0]
 8000c46:	685b      	ldr	r3, [r3, #4]
 8000c48:	f003 0303 	and.w	r3, r3, #3
 8000c4c:	2b02      	cmp	r3, #2
 8000c4e:	d123      	bne.n	8000c98 <HAL_GPIO_Init+0x144>
      {
        /* Check the Alternate function parameter */
        assert_param(IS_GPIO_AF(GPIO_Init->Alternate));
        /* Configure Alternate function mapped with the current IO */
        temp = GPIOx->AFR[position >> 3U];
 8000c50:	69fb      	ldr	r3, [r7, #28]
 8000c52:	08da      	lsrs	r2, r3, #3
 8000c54:	687b      	ldr	r3, [r7, #4]
 8000c56:	3208      	adds	r2, #8
 8000c58:	f853 3022 	ldr.w	r3, [r3, r2, lsl #2]
 8000c5c:	61bb      	str	r3, [r7, #24]
        temp &= ~(0xFU << ((uint32_t)(position & 0x07U) * 4U)) ;
 8000c5e:	69fb      	ldr	r3, [r7, #28]
 8000c60:	f003 0307 	and.w	r3, r3, #7
 8000c64:	009b      	lsls	r3, r3, #2
 8000c66:	220f      	movs	r2, #15
 8000c68:	fa02 f303 	lsl.w	r3, r2, r3
 8000c6c:	43db      	mvns	r3, r3
 8000c6e:	69ba      	ldr	r2, [r7, #24]
 8000c70:	4013      	ands	r3, r2
 8000c72:	61bb      	str	r3, [r7, #24]
        temp |= ((uint32_t)(GPIO_Init->Alternate) << (((uint32_t)position & 0x07U) * 4U));
 8000c74:	683b      	ldr	r3, [r7, #0]
 8000c76:	691a      	ldr	r2, [r3, #16]
 8000c78:	69fb      	ldr	r3, [r7, #28]
 8000c7a:	f003 0307 	and.w	r3, r3, #7
 8000c7e:	009b      	lsls	r3, r3, #2
 8000c80:	fa02 f303 	lsl.w	r3, r2, r3
 8000c84:	69ba      	ldr	r2, [r7, #24]
 8000c86:	4313      	orrs	r3, r2
 8000c88:	61bb      	str	r3, [r7, #24]
        GPIOx->AFR[position >> 3U] = temp;
 8000c8a:	69fb      	ldr	r3, [r7, #28]
 8000c8c:	08da      	lsrs	r2, r3, #3
 8000c8e:	687b      	ldr	r3, [r7, #4]
 8000c90:	3208      	adds	r2, #8
 8000c92:	69b9      	ldr	r1, [r7, #24]
 8000c94:	f843 1022 	str.w	r1, [r3, r2, lsl #2]
      }

      /* Configure IO Direction mode (Input, Output, Alternate or Analog) */
      temp = GPIOx->MODER;
 8000c98:	687b      	ldr	r3, [r7, #4]
 8000c9a:	681b      	ldr	r3, [r3, #0]
 8000c9c:	61bb      	str	r3, [r7, #24]
      temp &= ~(GPIO_MODER_MODER0 << (position * 2U));
 8000c9e:	69fb      	ldr	r3, [r7, #28]
 8000ca0:	005b      	lsls	r3, r3, #1
 8000ca2:	2203      	movs	r2, #3
 8000ca4:	fa02 f303 	lsl.w	r3, r2, r3
 8000ca8:	43db      	mvns	r3, r3
 8000caa:	69ba      	ldr	r2, [r7, #24]
 8000cac:	4013      	ands	r3, r2
 8000cae:	61bb      	str	r3, [r7, #24]
      temp |= ((GPIO_Init->Mode & GPIO_MODE) << (position * 2U));
 8000cb0:	683b      	ldr	r3, [r7, #0]
 8000cb2:	685b      	ldr	r3, [r3, #4]
 8000cb4:	f003 0203 	and.w	r2, r3, #3
 8000cb8:	69fb      	ldr	r3, [r7, #28]
 8000cba:	005b      	lsls	r3, r3, #1
 8000cbc:	fa02 f303 	lsl.w	r3, r2, r3
 8000cc0:	69ba      	ldr	r2, [r7, #24]
 8000cc2:	4313      	orrs	r3, r2
 8000cc4:	61bb      	str	r3, [r7, #24]
      GPIOx->MODER = temp;
 8000cc6:	687b      	ldr	r3, [r7, #4]
 8000cc8:	69ba      	ldr	r2, [r7, #24]
 8000cca:	601a      	str	r2, [r3, #0]

      /*--------------------- EXTI Mode Configuration ------------------------*/
      /* Configure the External Interrupt or event for the current IO */
      if((GPIO_Init->Mode & EXTI_MODE) != 0x00U)
 8000ccc:	683b      	ldr	r3, [r7, #0]
 8000cce:	685b      	ldr	r3, [r3, #4]
 8000cd0:	f403 3340 	and.w	r3, r3, #196608	; 0x30000
 8000cd4:	2b00      	cmp	r3, #0
 8000cd6:	f000 80b4 	beq.w	8000e42 <HAL_GPIO_Init+0x2ee>
      {
        /* Enable SYSCFG Clock */
        __HAL_RCC_SYSCFG_CLK_ENABLE();
 8000cda:	2300      	movs	r3, #0
 8000cdc:	60fb      	str	r3, [r7, #12]
 8000cde:	4b60      	ldr	r3, [pc, #384]	; (8000e60 <HAL_GPIO_Init+0x30c>)
 8000ce0:	6c5b      	ldr	r3, [r3, #68]	; 0x44
 8000ce2:	4a5f      	ldr	r2, [pc, #380]	; (8000e60 <HAL_GPIO_Init+0x30c>)
 8000ce4:	f443 4380 	orr.w	r3, r3, #16384	; 0x4000
 8000ce8:	6453      	str	r3, [r2, #68]	; 0x44
 8000cea:	4b5d      	ldr	r3, [pc, #372]	; (8000e60 <HAL_GPIO_Init+0x30c>)
 8000cec:	6c5b      	ldr	r3, [r3, #68]	; 0x44
 8000cee:	f403 4380 	and.w	r3, r3, #16384	; 0x4000
 8000cf2:	60fb      	str	r3, [r7, #12]
 8000cf4:	68fb      	ldr	r3, [r7, #12]

        temp = SYSCFG->EXTICR[position >> 2U];
 8000cf6:	4a5b      	ldr	r2, [pc, #364]	; (8000e64 <HAL_GPIO_Init+0x310>)
 8000cf8:	69fb      	ldr	r3, [r7, #28]
 8000cfa:	089b      	lsrs	r3, r3, #2
 8000cfc:	3302      	adds	r3, #2
 8000cfe:	f852 3023 	ldr.w	r3, [r2, r3, lsl #2]
 8000d02:	61bb      	str	r3, [r7, #24]
        temp &= ~(0x0FU << (4U * (position & 0x03U)));
 8000d04:	69fb      	ldr	r3, [r7, #28]
 8000d06:	f003 0303 	and.w	r3, r3, #3
 8000d0a:	009b      	lsls	r3, r3, #2
 8000d0c:	220f      	movs	r2, #15
 8000d0e:	fa02 f303 	lsl.w	r3, r2, r3
 8000d12:	43db      	mvns	r3, r3
 8000d14:	69ba      	ldr	r2, [r7, #24]
 8000d16:	4013      	ands	r3, r2
 8000d18:	61bb      	str	r3, [r7, #24]
        temp |= ((uint32_t)(GPIO_GET_INDEX(GPIOx)) << (4U * (position & 0x03U)));
 8000d1a:	687b      	ldr	r3, [r7, #4]
 8000d1c:	4a52      	ldr	r2, [pc, #328]	; (8000e68 <HAL_GPIO_Init+0x314>)
 8000d1e:	4293      	cmp	r3, r2
 8000d20:	d02b      	beq.n	8000d7a <HAL_GPIO_Init+0x226>
 8000d22:	687b      	ldr	r3, [r7, #4]
 8000d24:	4a51      	ldr	r2, [pc, #324]	; (8000e6c <HAL_GPIO_Init+0x318>)
 8000d26:	4293      	cmp	r3, r2
 8000d28:	d025      	beq.n	8000d76 <HAL_GPIO_Init+0x222>
 8000d2a:	687b      	ldr	r3, [r7, #4]
 8000d2c:	4a50      	ldr	r2, [pc, #320]	; (8000e70 <HAL_GPIO_Init+0x31c>)
 8000d2e:	4293      	cmp	r3, r2
 8000d30:	d01f      	beq.n	8000d72 <HAL_GPIO_Init+0x21e>
 8000d32:	687b      	ldr	r3, [r7, #4]
 8000d34:	4a4f      	ldr	r2, [pc, #316]	; (8000e74 <HAL_GPIO_Init+0x320>)
 8000d36:	4293      	cmp	r3, r2
 8000d38:	d019      	beq.n	8000d6e <HAL_GPIO_Init+0x21a>
 8000d3a:	687b      	ldr	r3, [r7, #4]
 8000d3c:	4a4e      	ldr	r2, [pc, #312]	; (8000e78 <HAL_GPIO_Init+0x324>)
 8000d3e:	4293      	cmp	r3, r2
 8000d40:	d013      	beq.n	8000d6a <HAL_GPIO_Init+0x216>
 8000d42:	687b      	ldr	r3, [r7, #4]
 8000d44:	4a4d      	ldr	r2, [pc, #308]	; (8000e7c <HAL_GPIO_Init+0x328>)
 8000d46:	4293      	cmp	r3, r2
 8000d48:	d00d      	beq.n	8000d66 <HAL_GPIO_Init+0x212>
 8000d4a:	687b      	ldr	r3, [r7, #4]
 8000d4c:	4a4c      	ldr	r2, [pc, #304]	; (8000e80 <HAL_GPIO_Init+0x32c>)
 8000d4e:	4293      	cmp	r3, r2
 8000d50:	d007      	beq.n	8000d62 <HAL_GPIO_Init+0x20e>
 8000d52:	687b      	ldr	r3, [r7, #4]
 8000d54:	4a4b      	ldr	r2, [pc, #300]	; (8000e84 <HAL_GPIO_Init+0x330>)
 8000d56:	4293      	cmp	r3, r2
 8000d58:	d101      	bne.n	8000d5e <HAL_GPIO_Init+0x20a>
 8000d5a:	2307      	movs	r3, #7
 8000d5c:	e00e      	b.n	8000d7c <HAL_GPIO_Init+0x228>
 8000d5e:	2308      	movs	r3, #8
 8000d60:	e00c      	b.n	8000d7c <HAL_GPIO_Init+0x228>
 8000d62:	2306      	movs	r3, #6
 8000d64:	e00a      	b.n	8000d7c <HAL_GPIO_Init+0x228>
 8000d66:	2305      	movs	r3, #5
 8000d68:	e008      	b.n	8000d7c <HAL_GPIO_Init+0x228>
 8000d6a:	2304      	movs	r3, #4
 8000d6c:	e006      	b.n	8000d7c <HAL_GPIO_Init+0x228>
 8000d6e:	2303      	movs	r3, #3
 8000d70:	e004      	b.n	8000d7c <HAL_GPIO_Init+0x228>
 8000d72:	2302      	movs	r3, #2
 8000d74:	e002      	b.n	8000d7c <HAL_GPIO_Init+0x228>
 8000d76:	2301      	movs	r3, #1
 8000d78:	e000      	b.n	8000d7c <HAL_GPIO_Init+0x228>
 8000d7a:	2300      	movs	r3, #0
 8000d7c:	69fa      	ldr	r2, [r7, #28]
 8000d7e:	f002 0203 	and.w	r2, r2, #3
 8000d82:	0092      	lsls	r2, r2, #2
 8000d84:	4093      	lsls	r3, r2
 8000d86:	69ba      	ldr	r2, [r7, #24]
 8000d88:	4313      	orrs	r3, r2
 8000d8a:	61bb      	str	r3, [r7, #24]
        SYSCFG->EXTICR[position >> 2U] = temp;
 8000d8c:	4935      	ldr	r1, [pc, #212]	; (8000e64 <HAL_GPIO_Init+0x310>)
 8000d8e:	69fb      	ldr	r3, [r7, #28]
 8000d90:	089b      	lsrs	r3, r3, #2
 8000d92:	3302      	adds	r3, #2
 8000d94:	69ba      	ldr	r2, [r7, #24]
 8000d96:	f841 2023 	str.w	r2, [r1, r3, lsl #2]

        /* Clear Rising Falling edge configuration */
        temp = EXTI->RTSR;
 8000d9a:	4b3b      	ldr	r3, [pc, #236]	; (8000e88 <HAL_GPIO_Init+0x334>)
 8000d9c:	689b      	ldr	r3, [r3, #8]
 8000d9e:	61bb      	str	r3, [r7, #24]
        temp &= ~((uint32_t)iocurrent);
 8000da0:	693b      	ldr	r3, [r7, #16]
 8000da2:	43db      	mvns	r3, r3
 8000da4:	69ba      	ldr	r2, [r7, #24]
 8000da6:	4013      	ands	r3, r2
 8000da8:	61bb      	str	r3, [r7, #24]
        if((GPIO_Init->Mode & TRIGGER_RISING) != 0x00U)
 8000daa:	683b      	ldr	r3, [r7, #0]
 8000dac:	685b      	ldr	r3, [r3, #4]
 8000dae:	f403 1380 	and.w	r3, r3, #1048576	; 0x100000
 8000db2:	2b00      	cmp	r3, #0
 8000db4:	d003      	beq.n	8000dbe <HAL_GPIO_Init+0x26a>
        {
          temp |= iocurrent;
 8000db6:	69ba      	ldr	r2, [r7, #24]
 8000db8:	693b      	ldr	r3, [r7, #16]
 8000dba:	4313      	orrs	r3, r2
 8000dbc:	61bb      	str	r3, [r7, #24]
        }
        EXTI->RTSR = temp;
 8000dbe:	4a32      	ldr	r2, [pc, #200]	; (8000e88 <HAL_GPIO_Init+0x334>)
 8000dc0:	69bb      	ldr	r3, [r7, #24]
 8000dc2:	6093      	str	r3, [r2, #8]

        temp = EXTI->FTSR;
 8000dc4:	4b30      	ldr	r3, [pc, #192]	; (8000e88 <HAL_GPIO_Init+0x334>)
 8000dc6:	68db      	ldr	r3, [r3, #12]
 8000dc8:	61bb      	str	r3, [r7, #24]
        temp &= ~((uint32_t)iocurrent);
 8000dca:	693b      	ldr	r3, [r7, #16]
 8000dcc:	43db      	mvns	r3, r3
 8000dce:	69ba      	ldr	r2, [r7, #24]
 8000dd0:	4013      	ands	r3, r2
 8000dd2:	61bb      	str	r3, [r7, #24]
        if((GPIO_Init->Mode & TRIGGER_FALLING) != 0x00U)
 8000dd4:	683b      	ldr	r3, [r7, #0]
 8000dd6:	685b      	ldr	r3, [r3, #4]
 8000dd8:	f403 1300 	and.w	r3, r3, #2097152	; 0x200000
 8000ddc:	2b00      	cmp	r3, #0
 8000dde:	d003      	beq.n	8000de8 <HAL_GPIO_Init+0x294>
        {
          temp |= iocurrent;
 8000de0:	69ba      	ldr	r2, [r7, #24]
 8000de2:	693b      	ldr	r3, [r7, #16]
 8000de4:	4313      	orrs	r3, r2
 8000de6:	61bb      	str	r3, [r7, #24]
        }
        EXTI->FTSR = temp;
 8000de8:	4a27      	ldr	r2, [pc, #156]	; (8000e88 <HAL_GPIO_Init+0x334>)
 8000dea:	69bb      	ldr	r3, [r7, #24]
 8000dec:	60d3      	str	r3, [r2, #12]

        temp = EXTI->EMR;
 8000dee:	4b26      	ldr	r3, [pc, #152]	; (8000e88 <HAL_GPIO_Init+0x334>)
 8000df0:	685b      	ldr	r3, [r3, #4]
 8000df2:	61bb      	str	r3, [r7, #24]
        temp &= ~((uint32_t)iocurrent);
 8000df4:	693b      	ldr	r3, [r7, #16]
 8000df6:	43db      	mvns	r3, r3
 8000df8:	69ba      	ldr	r2, [r7, #24]
 8000dfa:	4013      	ands	r3, r2
 8000dfc:	61bb      	str	r3, [r7, #24]
        if((GPIO_Init->Mode & EXTI_EVT) != 0x00U)
 8000dfe:	683b      	ldr	r3, [r7, #0]
 8000e00:	685b      	ldr	r3, [r3, #4]
 8000e02:	f403 3300 	and.w	r3, r3, #131072	; 0x20000
 8000e06:	2b00      	cmp	r3, #0
 8000e08:	d003      	beq.n	8000e12 <HAL_GPIO_Init+0x2be>
        {
          temp |= iocurrent;
 8000e0a:	69ba      	ldr	r2, [r7, #24]
 8000e0c:	693b      	ldr	r3, [r7, #16]
 8000e0e:	4313      	orrs	r3, r2
 8000e10:	61bb      	str	r3, [r7, #24]
        }
        EXTI->EMR = temp;
 8000e12:	4a1d      	ldr	r2, [pc, #116]	; (8000e88 <HAL_GPIO_Init+0x334>)
 8000e14:	69bb      	ldr	r3, [r7, #24]
 8000e16:	6053      	str	r3, [r2, #4]

        /* Clear EXTI line configuration */
        temp = EXTI->IMR;
 8000e18:	4b1b      	ldr	r3, [pc, #108]	; (8000e88 <HAL_GPIO_Init+0x334>)
 8000e1a:	681b      	ldr	r3, [r3, #0]
 8000e1c:	61bb      	str	r3, [r7, #24]
        temp &= ~((uint32_t)iocurrent);
 8000e1e:	693b      	ldr	r3, [r7, #16]
 8000e20:	43db      	mvns	r3, r3
 8000e22:	69ba      	ldr	r2, [r7, #24]
 8000e24:	4013      	ands	r3, r2
 8000e26:	61bb      	str	r3, [r7, #24]
        if((GPIO_Init->Mode & EXTI_IT) != 0x00U)
 8000e28:	683b      	ldr	r3, [r7, #0]
 8000e2a:	685b      	ldr	r3, [r3, #4]
 8000e2c:	f403 3380 	and.w	r3, r3, #65536	; 0x10000
 8000e30:	2b00      	cmp	r3, #0
 8000e32:	d003      	beq.n	8000e3c <HAL_GPIO_Init+0x2e8>
        {
          temp |= iocurrent;
 8000e34:	69ba      	ldr	r2, [r7, #24]
 8000e36:	693b      	ldr	r3, [r7, #16]
 8000e38:	4313      	orrs	r3, r2
 8000e3a:	61bb      	str	r3, [r7, #24]
        }
        EXTI->IMR = temp;
 8000e3c:	4a12      	ldr	r2, [pc, #72]	; (8000e88 <HAL_GPIO_Init+0x334>)
 8000e3e:	69bb      	ldr	r3, [r7, #24]
 8000e40:	6013      	str	r3, [r2, #0]
  for(position = 0U; position < GPIO_NUMBER; position++)
 8000e42:	69fb      	ldr	r3, [r7, #28]
 8000e44:	3301      	adds	r3, #1
 8000e46:	61fb      	str	r3, [r7, #28]
 8000e48:	69fb      	ldr	r3, [r7, #28]
 8000e4a:	2b0f      	cmp	r3, #15
 8000e4c:	f67f ae90 	bls.w	8000b70 <HAL_GPIO_Init+0x1c>
      }
    }
  }
}
 8000e50:	bf00      	nop
 8000e52:	bf00      	nop
 8000e54:	3724      	adds	r7, #36	; 0x24
 8000e56:	46bd      	mov	sp, r7
 8000e58:	f85d 7b04 	ldr.w	r7, [sp], #4
 8000e5c:	4770      	bx	lr
 8000e5e:	bf00      	nop
 8000e60:	40023800 	.word	0x40023800
 8000e64:	40013800 	.word	0x40013800
 8000e68:	40020000 	.word	0x40020000
 8000e6c:	40020400 	.word	0x40020400
 8000e70:	40020800 	.word	0x40020800
 8000e74:	40020c00 	.word	0x40020c00
 8000e78:	40021000 	.word	0x40021000
 8000e7c:	40021400 	.word	0x40021400
 8000e80:	40021800 	.word	0x40021800
 8000e84:	40021c00 	.word	0x40021c00
 8000e88:	40013c00 	.word	0x40013c00

08000e8c <HAL_RCC_OscConfig>:
  *         supported by this API. User should request a transition to HSE Off
  *         first and then HSE On or HSE Bypass.
  * @retval HAL status
  */
__weak HAL_StatusTypeDef HAL_RCC_OscConfig(RCC_OscInitTypeDef  *RCC_OscInitStruct)
{
 8000e8c:	b580      	push	{r7, lr}
 8000e8e:	b086      	sub	sp, #24
 8000e90:	af00      	add	r7, sp, #0
 8000e92:	6078      	str	r0, [r7, #4]
  uint32_t tickstart, pll_config;

  /* Check Null pointer */
  if(RCC_OscInitStruct == NULL)
 8000e94:	687b      	ldr	r3, [r7, #4]
 8000e96:	2b00      	cmp	r3, #0
 8000e98:	d101      	bne.n	8000e9e <HAL_RCC_OscConfig+0x12>
  {
    return HAL_ERROR;
 8000e9a:	2301      	movs	r3, #1
 8000e9c:	e267      	b.n	800136e <HAL_RCC_OscConfig+0x4e2>
  }

  /* Check the parameters */
  assert_param(IS_RCC_OSCILLATORTYPE(RCC_OscInitStruct->OscillatorType));
  /*------------------------------- HSE Configuration ------------------------*/
  if(((RCC_OscInitStruct->OscillatorType) & RCC_OSCILLATORTYPE_HSE) == RCC_OSCILLATORTYPE_HSE)
 8000e9e:	687b      	ldr	r3, [r7, #4]
 8000ea0:	681b      	ldr	r3, [r3, #0]
 8000ea2:	f003 0301 	and.w	r3, r3, #1
 8000ea6:	2b00      	cmp	r3, #0
 8000ea8:	d075      	beq.n	8000f96 <HAL_RCC_OscConfig+0x10a>
  {
    /* Check the parameters */
    assert_param(IS_RCC_HSE(RCC_OscInitStruct->HSEState));
    /* When the HSE is used as system clock or clock source for PLL in these cases HSE will not disabled */
    if((__HAL_RCC_GET_SYSCLK_SOURCE() == RCC_CFGR_SWS_HSE) ||\
 8000eaa:	4b88      	ldr	r3, [pc, #544]	; (80010cc <HAL_RCC_OscConfig+0x240>)
 8000eac:	689b      	ldr	r3, [r3, #8]
 8000eae:	f003 030c 	and.w	r3, r3, #12
 8000eb2:	2b04      	cmp	r3, #4
 8000eb4:	d00c      	beq.n	8000ed0 <HAL_RCC_OscConfig+0x44>
      ((__HAL_RCC_GET_SYSCLK_SOURCE() == RCC_CFGR_SWS_PLL) && ((RCC->PLLCFGR & RCC_PLLCFGR_PLLSRC) == RCC_PLLCFGR_PLLSRC_HSE)))
 8000eb6:	4b85      	ldr	r3, [pc, #532]	; (80010cc <HAL_RCC_OscConfig+0x240>)
 8000eb8:	689b      	ldr	r3, [r3, #8]
 8000eba:	f003 030c 	and.w	r3, r3, #12
    if((__HAL_RCC_GET_SYSCLK_SOURCE() == RCC_CFGR_SWS_HSE) ||\
 8000ebe:	2b08      	cmp	r3, #8
 8000ec0:	d112      	bne.n	8000ee8 <HAL_RCC_OscConfig+0x5c>
      ((__HAL_RCC_GET_SYSCLK_SOURCE() == RCC_CFGR_SWS_PLL) && ((RCC->PLLCFGR & RCC_PLLCFGR_PLLSRC) == RCC_PLLCFGR_PLLSRC_HSE)))
 8000ec2:	4b82      	ldr	r3, [pc, #520]	; (80010cc <HAL_RCC_OscConfig+0x240>)
 8000ec4:	685b      	ldr	r3, [r3, #4]
 8000ec6:	f403 0380 	and.w	r3, r3, #4194304	; 0x400000
 8000eca:	f5b3 0f80 	cmp.w	r3, #4194304	; 0x400000
 8000ece:	d10b      	bne.n	8000ee8 <HAL_RCC_OscConfig+0x5c>
    {
      if((__HAL_RCC_GET_FLAG(RCC_FLAG_HSERDY) != RESET) && (RCC_OscInitStruct->HSEState == RCC_HSE_OFF))
 8000ed0:	4b7e      	ldr	r3, [pc, #504]	; (80010cc <HAL_RCC_OscConfig+0x240>)
 8000ed2:	681b      	ldr	r3, [r3, #0]
 8000ed4:	f403 3300 	and.w	r3, r3, #131072	; 0x20000
 8000ed8:	2b00      	cmp	r3, #0
 8000eda:	d05b      	beq.n	8000f94 <HAL_RCC_OscConfig+0x108>
 8000edc:	687b      	ldr	r3, [r7, #4]
 8000ede:	685b      	ldr	r3, [r3, #4]
 8000ee0:	2b00      	cmp	r3, #0
 8000ee2:	d157      	bne.n	8000f94 <HAL_RCC_OscConfig+0x108>
      {
        return HAL_ERROR;
 8000ee4:	2301      	movs	r3, #1
 8000ee6:	e242      	b.n	800136e <HAL_RCC_OscConfig+0x4e2>
      }
    }
    else
    {
      /* Set the new HSE configuration ---------------------------------------*/
      __HAL_RCC_HSE_CONFIG(RCC_OscInitStruct->HSEState);
 8000ee8:	687b      	ldr	r3, [r7, #4]
 8000eea:	685b      	ldr	r3, [r3, #4]
 8000eec:	f5b3 3f80 	cmp.w	r3, #65536	; 0x10000
 8000ef0:	d106      	bne.n	8000f00 <HAL_RCC_OscConfig+0x74>
 8000ef2:	4b76      	ldr	r3, [pc, #472]	; (80010cc <HAL_RCC_OscConfig+0x240>)
 8000ef4:	681b      	ldr	r3, [r3, #0]
 8000ef6:	4a75      	ldr	r2, [pc, #468]	; (80010cc <HAL_RCC_OscConfig+0x240>)
 8000ef8:	f443 3380 	orr.w	r3, r3, #65536	; 0x10000
 8000efc:	6013      	str	r3, [r2, #0]
 8000efe:	e01d      	b.n	8000f3c <HAL_RCC_OscConfig+0xb0>
 8000f00:	687b      	ldr	r3, [r7, #4]
 8000f02:	685b      	ldr	r3, [r3, #4]
 8000f04:	f5b3 2fa0 	cmp.w	r3, #327680	; 0x50000
 8000f08:	d10c      	bne.n	8000f24 <HAL_RCC_OscConfig+0x98>
 8000f0a:	4b70      	ldr	r3, [pc, #448]	; (80010cc <HAL_RCC_OscConfig+0x240>)
 8000f0c:	681b      	ldr	r3, [r3, #0]
 8000f0e:	4a6f      	ldr	r2, [pc, #444]	; (80010cc <HAL_RCC_OscConfig+0x240>)
 8000f10:	f443 2380 	orr.w	r3, r3, #262144	; 0x40000
 8000f14:	6013      	str	r3, [r2, #0]
 8000f16:	4b6d      	ldr	r3, [pc, #436]	; (80010cc <HAL_RCC_OscConfig+0x240>)
 8000f18:	681b      	ldr	r3, [r3, #0]
 8000f1a:	4a6c      	ldr	r2, [pc, #432]	; (80010cc <HAL_RCC_OscConfig+0x240>)
 8000f1c:	f443 3380 	orr.w	r3, r3, #65536	; 0x10000
 8000f20:	6013      	str	r3, [r2, #0]
 8000f22:	e00b      	b.n	8000f3c <HAL_RCC_OscConfig+0xb0>
 8000f24:	4b69      	ldr	r3, [pc, #420]	; (80010cc <HAL_RCC_OscConfig+0x240>)
 8000f26:	681b      	ldr	r3, [r3, #0]
 8000f28:	4a68      	ldr	r2, [pc, #416]	; (80010cc <HAL_RCC_OscConfig+0x240>)
 8000f2a:	f423 3380 	bic.w	r3, r3, #65536	; 0x10000
 8000f2e:	6013      	str	r3, [r2, #0]
 8000f30:	4b66      	ldr	r3, [pc, #408]	; (80010cc <HAL_RCC_OscConfig+0x240>)
 8000f32:	681b      	ldr	r3, [r3, #0]
 8000f34:	4a65      	ldr	r2, [pc, #404]	; (80010cc <HAL_RCC_OscConfig+0x240>)
 8000f36:	f423 2380 	bic.w	r3, r3, #262144	; 0x40000
 8000f3a:	6013      	str	r3, [r2, #0]

      /* Check the HSE State */
      if((RCC_OscInitStruct->HSEState) != RCC_HSE_OFF)
 8000f3c:	687b      	ldr	r3, [r7, #4]
 8000f3e:	685b      	ldr	r3, [r3, #4]
 8000f40:	2b00      	cmp	r3, #0
 8000f42:	d013      	beq.n	8000f6c <HAL_RCC_OscConfig+0xe0>
      {
        /* Get Start Tick */
        tickstart = HAL_GetTick();
 8000f44:	f7ff fd14 	bl	8000970 <HAL_GetTick>
 8000f48:	6138      	str	r0, [r7, #16]

        /* Wait till HSE is ready */
        while(__HAL_RCC_GET_FLAG(RCC_FLAG_HSERDY) == RESET)
 8000f4a:	e008      	b.n	8000f5e <HAL_RCC_OscConfig+0xd2>
        {
          if((HAL_GetTick() - tickstart ) > HSE_TIMEOUT_VALUE)
 8000f4c:	f7ff fd10 	bl	8000970 <HAL_GetTick>
 8000f50:	4602      	mov	r2, r0
 8000f52:	693b      	ldr	r3, [r7, #16]
 8000f54:	1ad3      	subs	r3, r2, r3
 8000f56:	2b64      	cmp	r3, #100	; 0x64
 8000f58:	d901      	bls.n	8000f5e <HAL_RCC_OscConfig+0xd2>
          {
            return HAL_TIMEOUT;
 8000f5a:	2303      	movs	r3, #3
 8000f5c:	e207      	b.n	800136e <HAL_RCC_OscConfig+0x4e2>
        while(__HAL_RCC_GET_FLAG(RCC_FLAG_HSERDY) == RESET)
 8000f5e:	4b5b      	ldr	r3, [pc, #364]	; (80010cc <HAL_RCC_OscConfig+0x240>)
 8000f60:	681b      	ldr	r3, [r3, #0]
 8000f62:	f403 3300 	and.w	r3, r3, #131072	; 0x20000
 8000f66:	2b00      	cmp	r3, #0
 8000f68:	d0f0      	beq.n	8000f4c <HAL_RCC_OscConfig+0xc0>
 8000f6a:	e014      	b.n	8000f96 <HAL_RCC_OscConfig+0x10a>
        }
      }
      else
      {
        /* Get Start Tick */
        tickstart = HAL_GetTick();
 8000f6c:	f7ff fd00 	bl	8000970 <HAL_GetTick>
 8000f70:	6138      	str	r0, [r7, #16]

        /* Wait till HSE is bypassed or disabled */
        while(__HAL_RCC_GET_FLAG(RCC_FLAG_HSERDY) != RESET)
 8000f72:	e008      	b.n	8000f86 <HAL_RCC_OscConfig+0xfa>
        {
          if((HAL_GetTick() - tickstart ) > HSE_TIMEOUT_VALUE)
 8000f74:	f7ff fcfc 	bl	8000970 <HAL_GetTick>
 8000f78:	4602      	mov	r2, r0
 8000f7a:	693b      	ldr	r3, [r7, #16]
 8000f7c:	1ad3      	subs	r3, r2, r3
 8000f7e:	2b64      	cmp	r3, #100	; 0x64
 8000f80:	d901      	bls.n	8000f86 <HAL_RCC_OscConfig+0xfa>
          {
            return HAL_TIMEOUT;
 8000f82:	2303      	movs	r3, #3
 8000f84:	e1f3      	b.n	800136e <HAL_RCC_OscConfig+0x4e2>
        while(__HAL_RCC_GET_FLAG(RCC_FLAG_HSERDY) != RESET)
 8000f86:	4b51      	ldr	r3, [pc, #324]	; (80010cc <HAL_RCC_OscConfig+0x240>)
 8000f88:	681b      	ldr	r3, [r3, #0]
 8000f8a:	f403 3300 	and.w	r3, r3, #131072	; 0x20000
 8000f8e:	2b00      	cmp	r3, #0
 8000f90:	d1f0      	bne.n	8000f74 <HAL_RCC_OscConfig+0xe8>
 8000f92:	e000      	b.n	8000f96 <HAL_RCC_OscConfig+0x10a>
      if((__HAL_RCC_GET_FLAG(RCC_FLAG_HSERDY) != RESET) && (RCC_OscInitStruct->HSEState == RCC_HSE_OFF))
 8000f94:	bf00      	nop
        }
      }
    }
  }
  /*----------------------------- HSI Configuration --------------------------*/
  if(((RCC_OscInitStruct->OscillatorType) & RCC_OSCILLATORTYPE_HSI) == RCC_OSCILLATORTYPE_HSI)
 8000f96:	687b      	ldr	r3, [r7, #4]
 8000f98:	681b      	ldr	r3, [r3, #0]
 8000f9a:	f003 0302 	and.w	r3, r3, #2
 8000f9e:	2b00      	cmp	r3, #0
 8000fa0:	d063      	beq.n	800106a <HAL_RCC_OscConfig+0x1de>
    /* Check the parameters */
    assert_param(IS_RCC_HSI(RCC_OscInitStruct->HSIState));
    assert_param(IS_RCC_CALIBRATION_VALUE(RCC_OscInitStruct->HSICalibrationValue));

    /* Check if HSI is used as system clock or as PLL source when PLL is selected as system clock */
    if((__HAL_RCC_GET_SYSCLK_SOURCE() == RCC_CFGR_SWS_HSI) ||\
 8000fa2:	4b4a      	ldr	r3, [pc, #296]	; (80010cc <HAL_RCC_OscConfig+0x240>)
 8000fa4:	689b      	ldr	r3, [r3, #8]
 8000fa6:	f003 030c 	and.w	r3, r3, #12
 8000faa:	2b00      	cmp	r3, #0
 8000fac:	d00b      	beq.n	8000fc6 <HAL_RCC_OscConfig+0x13a>
      ((__HAL_RCC_GET_SYSCLK_SOURCE() == RCC_CFGR_SWS_PLL) && ((RCC->PLLCFGR & RCC_PLLCFGR_PLLSRC) == RCC_PLLCFGR_PLLSRC_HSI)))
 8000fae:	4b47      	ldr	r3, [pc, #284]	; (80010cc <HAL_RCC_OscConfig+0x240>)
 8000fb0:	689b      	ldr	r3, [r3, #8]
 8000fb2:	f003 030c 	and.w	r3, r3, #12
    if((__HAL_RCC_GET_SYSCLK_SOURCE() == RCC_CFGR_SWS_HSI) ||\
 8000fb6:	2b08      	cmp	r3, #8
 8000fb8:	d11c      	bne.n	8000ff4 <HAL_RCC_OscConfig+0x168>
      ((__HAL_RCC_GET_SYSCLK_SOURCE() == RCC_CFGR_SWS_PLL) && ((RCC->PLLCFGR & RCC_PLLCFGR_PLLSRC) == RCC_PLLCFGR_PLLSRC_HSI)))
 8000fba:	4b44      	ldr	r3, [pc, #272]	; (80010cc <HAL_RCC_OscConfig+0x240>)
 8000fbc:	685b      	ldr	r3, [r3, #4]
 8000fbe:	f403 0380 	and.w	r3, r3, #4194304	; 0x400000
 8000fc2:	2b00      	cmp	r3, #0
 8000fc4:	d116      	bne.n	8000ff4 <HAL_RCC_OscConfig+0x168>
    {
      /* When HSI is used as system clock it will not disabled */
      if((__HAL_RCC_GET_FLAG(RCC_FLAG_HSIRDY) != RESET) && (RCC_OscInitStruct->HSIState != RCC_HSI_ON))
 8000fc6:	4b41      	ldr	r3, [pc, #260]	; (80010cc <HAL_RCC_OscConfig+0x240>)
 8000fc8:	681b      	ldr	r3, [r3, #0]
 8000fca:	f003 0302 	and.w	r3, r3, #2
 8000fce:	2b00      	cmp	r3, #0
 8000fd0:	d005      	beq.n	8000fde <HAL_RCC_OscConfig+0x152>
 8000fd2:	687b      	ldr	r3, [r7, #4]
 8000fd4:	68db      	ldr	r3, [r3, #12]
 8000fd6:	2b01      	cmp	r3, #1
 8000fd8:	d001      	beq.n	8000fde <HAL_RCC_OscConfig+0x152>
      {
        return HAL_ERROR;
 8000fda:	2301      	movs	r3, #1
 8000fdc:	e1c7      	b.n	800136e <HAL_RCC_OscConfig+0x4e2>
      }
      /* Otherwise, just the calibration is allowed */
      else
      {
        /* Adjusts the Internal High Speed oscillator (HSI) calibration value.*/
        __HAL_RCC_HSI_CALIBRATIONVALUE_ADJUST(RCC_OscInitStruct->HSICalibrationValue);
 8000fde:	4b3b      	ldr	r3, [pc, #236]	; (80010cc <HAL_RCC_OscConfig+0x240>)
 8000fe0:	681b      	ldr	r3, [r3, #0]
 8000fe2:	f023 02f8 	bic.w	r2, r3, #248	; 0xf8
 8000fe6:	687b      	ldr	r3, [r7, #4]
 8000fe8:	691b      	ldr	r3, [r3, #16]
 8000fea:	00db      	lsls	r3, r3, #3
 8000fec:	4937      	ldr	r1, [pc, #220]	; (80010cc <HAL_RCC_OscConfig+0x240>)
 8000fee:	4313      	orrs	r3, r2
 8000ff0:	600b      	str	r3, [r1, #0]
      if((__HAL_RCC_GET_FLAG(RCC_FLAG_HSIRDY) != RESET) && (RCC_OscInitStruct->HSIState != RCC_HSI_ON))
 8000ff2:	e03a      	b.n	800106a <HAL_RCC_OscConfig+0x1de>
      }
    }
    else
    {
      /* Check the HSI State */
      if((RCC_OscInitStruct->HSIState)!= RCC_HSI_OFF)
 8000ff4:	687b      	ldr	r3, [r7, #4]
 8000ff6:	68db      	ldr	r3, [r3, #12]
 8000ff8:	2b00      	cmp	r3, #0
 8000ffa:	d020      	beq.n	800103e <HAL_RCC_OscConfig+0x1b2>
      {
        /* Enable the Internal High Speed oscillator (HSI). */
        __HAL_RCC_HSI_ENABLE();
 8000ffc:	4b34      	ldr	r3, [pc, #208]	; (80010d0 <HAL_RCC_OscConfig+0x244>)
 8000ffe:	2201      	movs	r2, #1
 8001000:	601a      	str	r2, [r3, #0]

        /* Get Start Tick*/
        tickstart = HAL_GetTick();
 8001002:	f7ff fcb5 	bl	8000970 <HAL_GetTick>
 8001006:	6138      	str	r0, [r7, #16]

        /* Wait till HSI is ready */
        while(__HAL_RCC_GET_FLAG(RCC_FLAG_HSIRDY) == RESET)
 8001008:	e008      	b.n	800101c <HAL_RCC_OscConfig+0x190>
        {
          if((HAL_GetTick() - tickstart ) > HSI_TIMEOUT_VALUE)
 800100a:	f7ff fcb1 	bl	8000970 <HAL_GetTick>
 800100e:	4602      	mov	r2, r0
 8001010:	693b      	ldr	r3, [r7, #16]
 8001012:	1ad3      	subs	r3, r2, r3
 8001014:	2b02      	cmp	r3, #2
 8001016:	d901      	bls.n	800101c <HAL_RCC_OscConfig+0x190>
          {
            return HAL_TIMEOUT;
 8001018:	2303      	movs	r3, #3
 800101a:	e1a8      	b.n	800136e <HAL_RCC_OscConfig+0x4e2>
        while(__HAL_RCC_GET_FLAG(RCC_FLAG_HSIRDY) == RESET)
 800101c:	4b2b      	ldr	r3, [pc, #172]	; (80010cc <HAL_RCC_OscConfig+0x240>)
 800101e:	681b      	ldr	r3, [r3, #0]
 8001020:	f003 0302 	and.w	r3, r3, #2
 8001024:	2b00      	cmp	r3, #0
 8001026:	d0f0      	beq.n	800100a <HAL_RCC_OscConfig+0x17e>
          }
        }

        /* Adjusts the Internal High Speed oscillator (HSI) calibration value. */
        __HAL_RCC_HSI_CALIBRATIONVALUE_ADJUST(RCC_OscInitStruct->HSICalibrationValue);
 8001028:	4b28      	ldr	r3, [pc, #160]	; (80010cc <HAL_RCC_OscConfig+0x240>)
 800102a:	681b      	ldr	r3, [r3, #0]
 800102c:	f023 02f8 	bic.w	r2, r3, #248	; 0xf8
 8001030:	687b      	ldr	r3, [r7, #4]
 8001032:	691b      	ldr	r3, [r3, #16]
 8001034:	00db      	lsls	r3, r3, #3
 8001036:	4925      	ldr	r1, [pc, #148]	; (80010cc <HAL_RCC_OscConfig+0x240>)
 8001038:	4313      	orrs	r3, r2
 800103a:	600b      	str	r3, [r1, #0]
 800103c:	e015      	b.n	800106a <HAL_RCC_OscConfig+0x1de>
      }
      else
      {
        /* Disable the Internal High Speed oscillator (HSI). */
        __HAL_RCC_HSI_DISABLE();
 800103e:	4b24      	ldr	r3, [pc, #144]	; (80010d0 <HAL_RCC_OscConfig+0x244>)
 8001040:	2200      	movs	r2, #0
 8001042:	601a      	str	r2, [r3, #0]

        /* Get Start Tick*/
        tickstart = HAL_GetTick();
 8001044:	f7ff fc94 	bl	8000970 <HAL_GetTick>
 8001048:	6138      	str	r0, [r7, #16]

        /* Wait till HSI is ready */
        while(__HAL_RCC_GET_FLAG(RCC_FLAG_HSIRDY) != RESET)
 800104a:	e008      	b.n	800105e <HAL_RCC_OscConfig+0x1d2>
        {
          if((HAL_GetTick() - tickstart ) > HSI_TIMEOUT_VALUE)
 800104c:	f7ff fc90 	bl	8000970 <HAL_GetTick>
 8001050:	4602      	mov	r2, r0
 8001052:	693b      	ldr	r3, [r7, #16]
 8001054:	1ad3      	subs	r3, r2, r3
 8001056:	2b02      	cmp	r3, #2
 8001058:	d901      	bls.n	800105e <HAL_RCC_OscConfig+0x1d2>
          {
            return HAL_TIMEOUT;
 800105a:	2303      	movs	r3, #3
 800105c:	e187      	b.n	800136e <HAL_RCC_OscConfig+0x4e2>
        while(__HAL_RCC_GET_FLAG(RCC_FLAG_HSIRDY) != RESET)
 800105e:	4b1b      	ldr	r3, [pc, #108]	; (80010cc <HAL_RCC_OscConfig+0x240>)
 8001060:	681b      	ldr	r3, [r3, #0]
 8001062:	f003 0302 	and.w	r3, r3, #2
 8001066:	2b00      	cmp	r3, #0
 8001068:	d1f0      	bne.n	800104c <HAL_RCC_OscConfig+0x1c0>
        }
      }
    }
  }
  /*------------------------------ LSI Configuration -------------------------*/
  if(((RCC_OscInitStruct->OscillatorType) & RCC_OSCILLATORTYPE_LSI) == RCC_OSCILLATORTYPE_LSI)
 800106a:	687b      	ldr	r3, [r7, #4]
 800106c:	681b      	ldr	r3, [r3, #0]
 800106e:	f003 0308 	and.w	r3, r3, #8
 8001072:	2b00      	cmp	r3, #0
 8001074:	d036      	beq.n	80010e4 <HAL_RCC_OscConfig+0x258>
  {
    /* Check the parameters */
    assert_param(IS_RCC_LSI(RCC_OscInitStruct->LSIState));

    /* Check the LSI State */
    if((RCC_OscInitStruct->LSIState)!= RCC_LSI_OFF)
 8001076:	687b      	ldr	r3, [r7, #4]
 8001078:	695b      	ldr	r3, [r3, #20]
 800107a:	2b00      	cmp	r3, #0
 800107c:	d016      	beq.n	80010ac <HAL_RCC_OscConfig+0x220>
    {
      /* Enable the Internal Low Speed oscillator (LSI). */
      __HAL_RCC_LSI_ENABLE();
 800107e:	4b15      	ldr	r3, [pc, #84]	; (80010d4 <HAL_RCC_OscConfig+0x248>)
 8001080:	2201      	movs	r2, #1
 8001082:	601a      	str	r2, [r3, #0]

      /* Get Start Tick*/
      tickstart = HAL_GetTick();
 8001084:	f7ff fc74 	bl	8000970 <HAL_GetTick>
 8001088:	6138      	str	r0, [r7, #16]

      /* Wait till LSI is ready */
      while(__HAL_RCC_GET_FLAG(RCC_FLAG_LSIRDY) == RESET)
 800108a:	e008      	b.n	800109e <HAL_RCC_OscConfig+0x212>
      {
        if((HAL_GetTick() - tickstart ) > LSI_TIMEOUT_VALUE)
 800108c:	f7ff fc70 	bl	8000970 <HAL_GetTick>
 8001090:	4602      	mov	r2, r0
 8001092:	693b      	ldr	r3, [r7, #16]
 8001094:	1ad3      	subs	r3, r2, r3
 8001096:	2b02      	cmp	r3, #2
 8001098:	d901      	bls.n	800109e <HAL_RCC_OscConfig+0x212>
        {
          return HAL_TIMEOUT;
 800109a:	2303      	movs	r3, #3
 800109c:	e167      	b.n	800136e <HAL_RCC_OscConfig+0x4e2>
      while(__HAL_RCC_GET_FLAG(RCC_FLAG_LSIRDY) == RESET)
 800109e:	4b0b      	ldr	r3, [pc, #44]	; (80010cc <HAL_RCC_OscConfig+0x240>)
 80010a0:	6f5b      	ldr	r3, [r3, #116]	; 0x74
 80010a2:	f003 0302 	and.w	r3, r3, #2
 80010a6:	2b00      	cmp	r3, #0
 80010a8:	d0f0      	beq.n	800108c <HAL_RCC_OscConfig+0x200>
 80010aa:	e01b      	b.n	80010e4 <HAL_RCC_OscConfig+0x258>
      }
    }
    else
    {
      /* Disable the Internal Low Speed oscillator (LSI). */
      __HAL_RCC_LSI_DISABLE();
 80010ac:	4b09      	ldr	r3, [pc, #36]	; (80010d4 <HAL_RCC_OscConfig+0x248>)
 80010ae:	2200      	movs	r2, #0
 80010b0:	601a      	str	r2, [r3, #0]

      /* Get Start Tick */
      tickstart = HAL_GetTick();
 80010b2:	f7ff fc5d 	bl	8000970 <HAL_GetTick>
 80010b6:	6138      	str	r0, [r7, #16]

      /* Wait till LSI is ready */
      while(__HAL_RCC_GET_FLAG(RCC_FLAG_LSIRDY) != RESET)
 80010b8:	e00e      	b.n	80010d8 <HAL_RCC_OscConfig+0x24c>
      {
        if((HAL_GetTick() - tickstart ) > LSI_TIMEOUT_VALUE)
 80010ba:	f7ff fc59 	bl	8000970 <HAL_GetTick>
 80010be:	4602      	mov	r2, r0
 80010c0:	693b      	ldr	r3, [r7, #16]
 80010c2:	1ad3      	subs	r3, r2, r3
 80010c4:	2b02      	cmp	r3, #2
 80010c6:	d907      	bls.n	80010d8 <HAL_RCC_OscConfig+0x24c>
        {
          return HAL_TIMEOUT;
 80010c8:	2303      	movs	r3, #3
 80010ca:	e150      	b.n	800136e <HAL_RCC_OscConfig+0x4e2>
 80010cc:	40023800 	.word	0x40023800
 80010d0:	42470000 	.word	0x42470000
 80010d4:	42470e80 	.word	0x42470e80
      while(__HAL_RCC_GET_FLAG(RCC_FLAG_LSIRDY) != RESET)
 80010d8:	4b88      	ldr	r3, [pc, #544]	; (80012fc <HAL_RCC_OscConfig+0x470>)
 80010da:	6f5b      	ldr	r3, [r3, #116]	; 0x74
 80010dc:	f003 0302 	and.w	r3, r3, #2
 80010e0:	2b00      	cmp	r3, #0
 80010e2:	d1ea      	bne.n	80010ba <HAL_RCC_OscConfig+0x22e>
        }
      }
    }
  }
  /*------------------------------ LSE Configuration -------------------------*/
  if(((RCC_OscInitStruct->OscillatorType) & RCC_OSCILLATORTYPE_LSE) == RCC_OSCILLATORTYPE_LSE)
 80010e4:	687b      	ldr	r3, [r7, #4]
 80010e6:	681b      	ldr	r3, [r3, #0]
 80010e8:	f003 0304 	and.w	r3, r3, #4
 80010ec:	2b00      	cmp	r3, #0
 80010ee:	f000 8097 	beq.w	8001220 <HAL_RCC_OscConfig+0x394>
  {
    FlagStatus       pwrclkchanged = RESET;
 80010f2:	2300      	movs	r3, #0
 80010f4:	75fb      	strb	r3, [r7, #23]
    /* Check the parameters */
    assert_param(IS_RCC_LSE(RCC_OscInitStruct->LSEState));

    /* Update LSE configuration in Backup Domain control register    */
    /* Requires to enable write access to Backup Domain of necessary */
    if(__HAL_RCC_PWR_IS_CLK_DISABLED())
 80010f6:	4b81      	ldr	r3, [pc, #516]	; (80012fc <HAL_RCC_OscConfig+0x470>)
 80010f8:	6c1b      	ldr	r3, [r3, #64]	; 0x40
 80010fa:	f003 5380 	and.w	r3, r3, #268435456	; 0x10000000
 80010fe:	2b00      	cmp	r3, #0
 8001100:	d10f      	bne.n	8001122 <HAL_RCC_OscConfig+0x296>
    {
      __HAL_RCC_PWR_CLK_ENABLE();
 8001102:	2300      	movs	r3, #0
 8001104:	60bb      	str	r3, [r7, #8]
 8001106:	4b7d      	ldr	r3, [pc, #500]	; (80012fc <HAL_RCC_OscConfig+0x470>)
 8001108:	6c1b      	ldr	r3, [r3, #64]	; 0x40
 800110a:	4a7c      	ldr	r2, [pc, #496]	; (80012fc <HAL_RCC_OscConfig+0x470>)
 800110c:	f043 5380 	orr.w	r3, r3, #268435456	; 0x10000000
 8001110:	6413      	str	r3, [r2, #64]	; 0x40
 8001112:	4b7a      	ldr	r3, [pc, #488]	; (80012fc <HAL_RCC_OscConfig+0x470>)
 8001114:	6c1b      	ldr	r3, [r3, #64]	; 0x40
 8001116:	f003 5380 	and.w	r3, r3, #268435456	; 0x10000000
 800111a:	60bb      	str	r3, [r7, #8]
 800111c:	68bb      	ldr	r3, [r7, #8]
      pwrclkchanged = SET;
 800111e:	2301      	movs	r3, #1
 8001120:	75fb      	strb	r3, [r7, #23]
    }

    if(HAL_IS_BIT_CLR(PWR->CR, PWR_CR_DBP))
 8001122:	4b77      	ldr	r3, [pc, #476]	; (8001300 <HAL_RCC_OscConfig+0x474>)
 8001124:	681b      	ldr	r3, [r3, #0]
 8001126:	f403 7380 	and.w	r3, r3, #256	; 0x100
 800112a:	2b00      	cmp	r3, #0
 800112c:	d118      	bne.n	8001160 <HAL_RCC_OscConfig+0x2d4>
    {
      /* Enable write access to Backup domain */
      SET_BIT(PWR->CR, PWR_CR_DBP);
 800112e:	4b74      	ldr	r3, [pc, #464]	; (8001300 <HAL_RCC_OscConfig+0x474>)
 8001130:	681b      	ldr	r3, [r3, #0]
 8001132:	4a73      	ldr	r2, [pc, #460]	; (8001300 <HAL_RCC_OscConfig+0x474>)
 8001134:	f443 7380 	orr.w	r3, r3, #256	; 0x100
 8001138:	6013      	str	r3, [r2, #0]

      /* Wait for Backup domain Write protection disable */
      tickstart = HAL_GetTick();
 800113a:	f7ff fc19 	bl	8000970 <HAL_GetTick>
 800113e:	6138      	str	r0, [r7, #16]

      while(HAL_IS_BIT_CLR(PWR->CR, PWR_CR_DBP))
 8001140:	e008      	b.n	8001154 <HAL_RCC_OscConfig+0x2c8>
      {
        if((HAL_GetTick() - tickstart) > RCC_DBP_TIMEOUT_VALUE)
 8001142:	f7ff fc15 	bl	8000970 <HAL_GetTick>
 8001146:	4602      	mov	r2, r0
 8001148:	693b      	ldr	r3, [r7, #16]
 800114a:	1ad3      	subs	r3, r2, r3
 800114c:	2b02      	cmp	r3, #2
 800114e:	d901      	bls.n	8001154 <HAL_RCC_OscConfig+0x2c8>
        {
          return HAL_TIMEOUT;
 8001150:	2303      	movs	r3, #3
 8001152:	e10c      	b.n	800136e <HAL_RCC_OscConfig+0x4e2>
      while(HAL_IS_BIT_CLR(PWR->CR, PWR_CR_DBP))
 8001154:	4b6a      	ldr	r3, [pc, #424]	; (8001300 <HAL_RCC_OscConfig+0x474>)
 8001156:	681b      	ldr	r3, [r3, #0]
 8001158:	f403 7380 	and.w	r3, r3, #256	; 0x100
 800115c:	2b00      	cmp	r3, #0
 800115e:	d0f0      	beq.n	8001142 <HAL_RCC_OscConfig+0x2b6>
        }
      }
    }

    /* Set the new LSE configuration -----------------------------------------*/
    __HAL_RCC_LSE_CONFIG(RCC_OscInitStruct->LSEState);
 8001160:	687b      	ldr	r3, [r7, #4]
 8001162:	689b      	ldr	r3, [r3, #8]
 8001164:	2b01      	cmp	r3, #1
 8001166:	d106      	bne.n	8001176 <HAL_RCC_OscConfig+0x2ea>
 8001168:	4b64      	ldr	r3, [pc, #400]	; (80012fc <HAL_RCC_OscConfig+0x470>)
 800116a:	6f1b      	ldr	r3, [r3, #112]	; 0x70
 800116c:	4a63      	ldr	r2, [pc, #396]	; (80012fc <HAL_RCC_OscConfig+0x470>)
 800116e:	f043 0301 	orr.w	r3, r3, #1
 8001172:	6713      	str	r3, [r2, #112]	; 0x70
 8001174:	e01c      	b.n	80011b0 <HAL_RCC_OscConfig+0x324>
 8001176:	687b      	ldr	r3, [r7, #4]
 8001178:	689b      	ldr	r3, [r3, #8]
 800117a:	2b05      	cmp	r3, #5
 800117c:	d10c      	bne.n	8001198 <HAL_RCC_OscConfig+0x30c>
 800117e:	4b5f      	ldr	r3, [pc, #380]	; (80012fc <HAL_RCC_OscConfig+0x470>)
 8001180:	6f1b      	ldr	r3, [r3, #112]	; 0x70
 8001182:	4a5e      	ldr	r2, [pc, #376]	; (80012fc <HAL_RCC_OscConfig+0x470>)
 8001184:	f043 0304 	orr.w	r3, r3, #4
 8001188:	6713      	str	r3, [r2, #112]	; 0x70
 800118a:	4b5c      	ldr	r3, [pc, #368]	; (80012fc <HAL_RCC_OscConfig+0x470>)
 800118c:	6f1b      	ldr	r3, [r3, #112]	; 0x70
 800118e:	4a5b      	ldr	r2, [pc, #364]	; (80012fc <HAL_RCC_OscConfig+0x470>)
 8001190:	f043 0301 	orr.w	r3, r3, #1
 8001194:	6713      	str	r3, [r2, #112]	; 0x70
 8001196:	e00b      	b.n	80011b0 <HAL_RCC_OscConfig+0x324>
 8001198:	4b58      	ldr	r3, [pc, #352]	; (80012fc <HAL_RCC_OscConfig+0x470>)
 800119a:	6f1b      	ldr	r3, [r3, #112]	; 0x70
 800119c:	4a57      	ldr	r2, [pc, #348]	; (80012fc <HAL_RCC_OscConfig+0x470>)
 800119e:	f023 0301 	bic.w	r3, r3, #1
 80011a2:	6713      	str	r3, [r2, #112]	; 0x70
 80011a4:	4b55      	ldr	r3, [pc, #340]	; (80012fc <HAL_RCC_OscConfig+0x470>)
 80011a6:	6f1b      	ldr	r3, [r3, #112]	; 0x70
 80011a8:	4a54      	ldr	r2, [pc, #336]	; (80012fc <HAL_RCC_OscConfig+0x470>)
 80011aa:	f023 0304 	bic.w	r3, r3, #4
 80011ae:	6713      	str	r3, [r2, #112]	; 0x70
    /* Check the LSE State */
    if((RCC_OscInitStruct->LSEState) != RCC_LSE_OFF)
 80011b0:	687b      	ldr	r3, [r7, #4]
 80011b2:	689b      	ldr	r3, [r3, #8]
 80011b4:	2b00      	cmp	r3, #0
 80011b6:	d015      	beq.n	80011e4 <HAL_RCC_OscConfig+0x358>
    {
      /* Get Start Tick*/
      tickstart = HAL_GetTick();
 80011b8:	f7ff fbda 	bl	8000970 <HAL_GetTick>
 80011bc:	6138      	str	r0, [r7, #16]

      /* Wait till LSE is ready */
      while(__HAL_RCC_GET_FLAG(RCC_FLAG_LSERDY) == RESET)
 80011be:	e00a      	b.n	80011d6 <HAL_RCC_OscConfig+0x34a>
      {
        if((HAL_GetTick() - tickstart ) > RCC_LSE_TIMEOUT_VALUE)
 80011c0:	f7ff fbd6 	bl	8000970 <HAL_GetTick>
 80011c4:	4602      	mov	r2, r0
 80011c6:	693b      	ldr	r3, [r7, #16]
 80011c8:	1ad3      	subs	r3, r2, r3
 80011ca:	f241 3288 	movw	r2, #5000	; 0x1388
 80011ce:	4293      	cmp	r3, r2
 80011d0:	d901      	bls.n	80011d6 <HAL_RCC_OscConfig+0x34a>
        {
          return HAL_TIMEOUT;
 80011d2:	2303      	movs	r3, #3
 80011d4:	e0cb      	b.n	800136e <HAL_RCC_OscConfig+0x4e2>
      while(__HAL_RCC_GET_FLAG(RCC_FLAG_LSERDY) == RESET)
 80011d6:	4b49      	ldr	r3, [pc, #292]	; (80012fc <HAL_RCC_OscConfig+0x470>)
 80011d8:	6f1b      	ldr	r3, [r3, #112]	; 0x70
 80011da:	f003 0302 	and.w	r3, r3, #2
 80011de:	2b00      	cmp	r3, #0
 80011e0:	d0ee      	beq.n	80011c0 <HAL_RCC_OscConfig+0x334>
 80011e2:	e014      	b.n	800120e <HAL_RCC_OscConfig+0x382>
      }
    }
    else
    {
      /* Get Start Tick */
      tickstart = HAL_GetTick();
 80011e4:	f7ff fbc4 	bl	8000970 <HAL_GetTick>
 80011e8:	6138      	str	r0, [r7, #16]

      /* Wait till LSE is ready */
      while(__HAL_RCC_GET_FLAG(RCC_FLAG_LSERDY) != RESET)
 80011ea:	e00a      	b.n	8001202 <HAL_RCC_OscConfig+0x376>
      {
        if((HAL_GetTick() - tickstart ) > RCC_LSE_TIMEOUT_VALUE)
 80011ec:	f7ff fbc0 	bl	8000970 <HAL_GetTick>
 80011f0:	4602      	mov	r2, r0
 80011f2:	693b      	ldr	r3, [r7, #16]
 80011f4:	1ad3      	subs	r3, r2, r3
 80011f6:	f241 3288 	movw	r2, #5000	; 0x1388
 80011fa:	4293      	cmp	r3, r2
 80011fc:	d901      	bls.n	8001202 <HAL_RCC_OscConfig+0x376>
        {
          return HAL_TIMEOUT;
 80011fe:	2303      	movs	r3, #3
 8001200:	e0b5      	b.n	800136e <HAL_RCC_OscConfig+0x4e2>
      while(__HAL_RCC_GET_FLAG(RCC_FLAG_LSERDY) != RESET)
 8001202:	4b3e      	ldr	r3, [pc, #248]	; (80012fc <HAL_RCC_OscConfig+0x470>)
 8001204:	6f1b      	ldr	r3, [r3, #112]	; 0x70
 8001206:	f003 0302 	and.w	r3, r3, #2
 800120a:	2b00      	cmp	r3, #0
 800120c:	d1ee      	bne.n	80011ec <HAL_RCC_OscConfig+0x360>
        }
      }
    }

    /* Restore clock configuration if changed */
    if(pwrclkchanged == SET)
 800120e:	7dfb      	ldrb	r3, [r7, #23]
 8001210:	2b01      	cmp	r3, #1
 8001212:	d105      	bne.n	8001220 <HAL_RCC_OscConfig+0x394>
    {
      __HAL_RCC_PWR_CLK_DISABLE();
 8001214:	4b39      	ldr	r3, [pc, #228]	; (80012fc <HAL_RCC_OscConfig+0x470>)
 8001216:	6c1b      	ldr	r3, [r3, #64]	; 0x40
 8001218:	4a38      	ldr	r2, [pc, #224]	; (80012fc <HAL_RCC_OscConfig+0x470>)
 800121a:	f023 5380 	bic.w	r3, r3, #268435456	; 0x10000000
 800121e:	6413      	str	r3, [r2, #64]	; 0x40
    }
  }
  /*-------------------------------- PLL Configuration -----------------------*/
  /* Check the parameters */
  assert_param(IS_RCC_PLL(RCC_OscInitStruct->PLL.PLLState));
  if ((RCC_OscInitStruct->PLL.PLLState) != RCC_PLL_NONE)
 8001220:	687b      	ldr	r3, [r7, #4]
 8001222:	699b      	ldr	r3, [r3, #24]
 8001224:	2b00      	cmp	r3, #0
 8001226:	f000 80a1 	beq.w	800136c <HAL_RCC_OscConfig+0x4e0>
  {
    /* Check if the PLL is used as system clock or not */
    if(__HAL_RCC_GET_SYSCLK_SOURCE() != RCC_CFGR_SWS_PLL)
 800122a:	4b34      	ldr	r3, [pc, #208]	; (80012fc <HAL_RCC_OscConfig+0x470>)
 800122c:	689b      	ldr	r3, [r3, #8]
 800122e:	f003 030c 	and.w	r3, r3, #12
 8001232:	2b08      	cmp	r3, #8
 8001234:	d05c      	beq.n	80012f0 <HAL_RCC_OscConfig+0x464>
    {
      if((RCC_OscInitStruct->PLL.PLLState) == RCC_PLL_ON)
 8001236:	687b      	ldr	r3, [r7, #4]
 8001238:	699b      	ldr	r3, [r3, #24]
 800123a:	2b02      	cmp	r3, #2
 800123c:	d141      	bne.n	80012c2 <HAL_RCC_OscConfig+0x436>
        assert_param(IS_RCC_PLLN_VALUE(RCC_OscInitStruct->PLL.PLLN));
        assert_param(IS_RCC_PLLP_VALUE(RCC_OscInitStruct->PLL.PLLP));
        assert_param(IS_RCC_PLLQ_VALUE(RCC_OscInitStruct->PLL.PLLQ));

        /* Disable the main PLL. */
        __HAL_RCC_PLL_DISABLE();
 800123e:	4b31      	ldr	r3, [pc, #196]	; (8001304 <HAL_RCC_OscConfig+0x478>)
 8001240:	2200      	movs	r2, #0
 8001242:	601a      	str	r2, [r3, #0]

        /* Get Start Tick */
        tickstart = HAL_GetTick();
 8001244:	f7ff fb94 	bl	8000970 <HAL_GetTick>
 8001248:	6138      	str	r0, [r7, #16]

        /* Wait till PLL is ready */
        while(__HAL_RCC_GET_FLAG(RCC_FLAG_PLLRDY) != RESET)
 800124a:	e008      	b.n	800125e <HAL_RCC_OscConfig+0x3d2>
        {
          if((HAL_GetTick() - tickstart ) > PLL_TIMEOUT_VALUE)
 800124c:	f7ff fb90 	bl	8000970 <HAL_GetTick>
 8001250:	4602      	mov	r2, r0
 8001252:	693b      	ldr	r3, [r7, #16]
 8001254:	1ad3      	subs	r3, r2, r3
 8001256:	2b02      	cmp	r3, #2
 8001258:	d901      	bls.n	800125e <HAL_RCC_OscConfig+0x3d2>
          {
            return HAL_TIMEOUT;
 800125a:	2303      	movs	r3, #3
 800125c:	e087      	b.n	800136e <HAL_RCC_OscConfig+0x4e2>
        while(__HAL_RCC_GET_FLAG(RCC_FLAG_PLLRDY) != RESET)
 800125e:	4b27      	ldr	r3, [pc, #156]	; (80012fc <HAL_RCC_OscConfig+0x470>)
 8001260:	681b      	ldr	r3, [r3, #0]
 8001262:	f003 7300 	and.w	r3, r3, #33554432	; 0x2000000
 8001266:	2b00      	cmp	r3, #0
 8001268:	d1f0      	bne.n	800124c <HAL_RCC_OscConfig+0x3c0>
          }
        }

        /* Configure the main PLL clock source, multiplication and division factors. */
        WRITE_REG(RCC->PLLCFGR, (RCC_OscInitStruct->PLL.PLLSource                                            | \
 800126a:	687b      	ldr	r3, [r7, #4]
 800126c:	69da      	ldr	r2, [r3, #28]
 800126e:	687b      	ldr	r3, [r7, #4]
 8001270:	6a1b      	ldr	r3, [r3, #32]
 8001272:	431a      	orrs	r2, r3
 8001274:	687b      	ldr	r3, [r7, #4]
 8001276:	6a5b      	ldr	r3, [r3, #36]	; 0x24
 8001278:	019b      	lsls	r3, r3, #6
 800127a:	431a      	orrs	r2, r3
 800127c:	687b      	ldr	r3, [r7, #4]
 800127e:	6a9b      	ldr	r3, [r3, #40]	; 0x28
 8001280:	085b      	lsrs	r3, r3, #1
 8001282:	3b01      	subs	r3, #1
 8001284:	041b      	lsls	r3, r3, #16
 8001286:	431a      	orrs	r2, r3
 8001288:	687b      	ldr	r3, [r7, #4]
 800128a:	6adb      	ldr	r3, [r3, #44]	; 0x2c
 800128c:	061b      	lsls	r3, r3, #24
 800128e:	491b      	ldr	r1, [pc, #108]	; (80012fc <HAL_RCC_OscConfig+0x470>)
 8001290:	4313      	orrs	r3, r2
 8001292:	604b      	str	r3, [r1, #4]
                                 RCC_OscInitStruct->PLL.PLLM                                                 | \
                                 (RCC_OscInitStruct->PLL.PLLN << RCC_PLLCFGR_PLLN_Pos)             | \
                                 (((RCC_OscInitStruct->PLL.PLLP >> 1U) - 1U) << RCC_PLLCFGR_PLLP_Pos) | \
                                 (RCC_OscInitStruct->PLL.PLLQ << RCC_PLLCFGR_PLLQ_Pos)));
        /* Enable the main PLL. */
        __HAL_RCC_PLL_ENABLE();
 8001294:	4b1b      	ldr	r3, [pc, #108]	; (8001304 <HAL_RCC_OscConfig+0x478>)
 8001296:	2201      	movs	r2, #1
 8001298:	601a      	str	r2, [r3, #0]

        /* Get Start Tick */
        tickstart = HAL_GetTick();
 800129a:	f7ff fb69 	bl	8000970 <HAL_GetTick>
 800129e:	6138      	str	r0, [r7, #16]

        /* Wait till PLL is ready */
        while(__HAL_RCC_GET_FLAG(RCC_FLAG_PLLRDY) == RESET)
 80012a0:	e008      	b.n	80012b4 <HAL_RCC_OscConfig+0x428>
        {
          if((HAL_GetTick() - tickstart ) > PLL_TIMEOUT_VALUE)
 80012a2:	f7ff fb65 	bl	8000970 <HAL_GetTick>
 80012a6:	4602      	mov	r2, r0
 80012a8:	693b      	ldr	r3, [r7, #16]
 80012aa:	1ad3      	subs	r3, r2, r3
 80012ac:	2b02      	cmp	r3, #2
 80012ae:	d901      	bls.n	80012b4 <HAL_RCC_OscConfig+0x428>
          {
            return HAL_TIMEOUT;
 80012b0:	2303      	movs	r3, #3
 80012b2:	e05c      	b.n	800136e <HAL_RCC_OscConfig+0x4e2>
        while(__HAL_RCC_GET_FLAG(RCC_FLAG_PLLRDY) == RESET)
 80012b4:	4b11      	ldr	r3, [pc, #68]	; (80012fc <HAL_RCC_OscConfig+0x470>)
 80012b6:	681b      	ldr	r3, [r3, #0]
 80012b8:	f003 7300 	and.w	r3, r3, #33554432	; 0x2000000
 80012bc:	2b00      	cmp	r3, #0
 80012be:	d0f0      	beq.n	80012a2 <HAL_RCC_OscConfig+0x416>
 80012c0:	e054      	b.n	800136c <HAL_RCC_OscConfig+0x4e0>
        }
      }
      else
      {
        /* Disable the main PLL. */
        __HAL_RCC_PLL_DISABLE();
 80012c2:	4b10      	ldr	r3, [pc, #64]	; (8001304 <HAL_RCC_OscConfig+0x478>)
 80012c4:	2200      	movs	r2, #0
 80012c6:	601a      	str	r2, [r3, #0]

        /* Get Start Tick */
        tickstart = HAL_GetTick();
 80012c8:	f7ff fb52 	bl	8000970 <HAL_GetTick>
 80012cc:	6138      	str	r0, [r7, #16]

        /* Wait till PLL is ready */
        while(__HAL_RCC_GET_FLAG(RCC_FLAG_PLLRDY) != RESET)
 80012ce:	e008      	b.n	80012e2 <HAL_RCC_OscConfig+0x456>
        {
          if((HAL_GetTick() - tickstart ) > PLL_TIMEOUT_VALUE)
 80012d0:	f7ff fb4e 	bl	8000970 <HAL_GetTick>
 80012d4:	4602      	mov	r2, r0
 80012d6:	693b      	ldr	r3, [r7, #16]
 80012d8:	1ad3      	subs	r3, r2, r3
 80012da:	2b02      	cmp	r3, #2
 80012dc:	d901      	bls.n	80012e2 <HAL_RCC_OscConfig+0x456>
          {
            return HAL_TIMEOUT;
 80012de:	2303      	movs	r3, #3
 80012e0:	e045      	b.n	800136e <HAL_RCC_OscConfig+0x4e2>
        while(__HAL_RCC_GET_FLAG(RCC_FLAG_PLLRDY) != RESET)
 80012e2:	4b06      	ldr	r3, [pc, #24]	; (80012fc <HAL_RCC_OscConfig+0x470>)
 80012e4:	681b      	ldr	r3, [r3, #0]
 80012e6:	f003 7300 	and.w	r3, r3, #33554432	; 0x2000000
 80012ea:	2b00      	cmp	r3, #0
 80012ec:	d1f0      	bne.n	80012d0 <HAL_RCC_OscConfig+0x444>
 80012ee:	e03d      	b.n	800136c <HAL_RCC_OscConfig+0x4e0>
      }
    }
    else
    {
      /* Check if there is a request to disable the PLL used as System clock source */
      if((RCC_OscInitStruct->PLL.PLLState) == RCC_PLL_OFF)
 80012f0:	687b      	ldr	r3, [r7, #4]
 80012f2:	699b      	ldr	r3, [r3, #24]
 80012f4:	2b01      	cmp	r3, #1
 80012f6:	d107      	bne.n	8001308 <HAL_RCC_OscConfig+0x47c>
      {
        return HAL_ERROR;
 80012f8:	2301      	movs	r3, #1
 80012fa:	e038      	b.n	800136e <HAL_RCC_OscConfig+0x4e2>
 80012fc:	40023800 	.word	0x40023800
 8001300:	40007000 	.word	0x40007000
 8001304:	42470060 	.word	0x42470060
      }
      else
      {
        /* Do not return HAL_ERROR if request repeats the current configuration */
        pll_config = RCC->PLLCFGR;
 8001308:	4b1b      	ldr	r3, [pc, #108]	; (8001378 <HAL_RCC_OscConfig+0x4ec>)
 800130a:	685b      	ldr	r3, [r3, #4]
 800130c:	60fb      	str	r3, [r7, #12]
            (READ_BIT(pll_config, RCC_PLLCFGR_PLLN) != (RCC_OscInitStruct->PLL.PLLN) << RCC_PLLCFGR_PLLN_Pos) ||
            (READ_BIT(pll_config, RCC_PLLCFGR_PLLP) != (((RCC_OscInitStruct->PLL.PLLP >> 1U) - 1U)) << RCC_PLLCFGR_PLLP_Pos) ||
            (READ_BIT(pll_config, RCC_PLLCFGR_PLLQ) != (RCC_OscInitStruct->PLL.PLLQ << RCC_PLLCFGR_PLLQ_Pos)) ||
            (READ_BIT(pll_config, RCC_PLLCFGR_PLLR) != (RCC_OscInitStruct->PLL.PLLR << RCC_PLLCFGR_PLLR_Pos)))
#else
        if (((RCC_OscInitStruct->PLL.PLLState) == RCC_PLL_OFF) ||
 800130e:	687b      	ldr	r3, [r7, #4]
 8001310:	699b      	ldr	r3, [r3, #24]
 8001312:	2b01      	cmp	r3, #1
 8001314:	d028      	beq.n	8001368 <HAL_RCC_OscConfig+0x4dc>
            (READ_BIT(pll_config, RCC_PLLCFGR_PLLSRC) != RCC_OscInitStruct->PLL.PLLSource) ||
 8001316:	68fb      	ldr	r3, [r7, #12]
 8001318:	f403 0280 	and.w	r2, r3, #4194304	; 0x400000
 800131c:	687b      	ldr	r3, [r7, #4]
 800131e:	69db      	ldr	r3, [r3, #28]
        if (((RCC_OscInitStruct->PLL.PLLState) == RCC_PLL_OFF) ||
 8001320:	429a      	cmp	r2, r3
 8001322:	d121      	bne.n	8001368 <HAL_RCC_OscConfig+0x4dc>
            (READ_BIT(pll_config, RCC_PLLCFGR_PLLM) != (RCC_OscInitStruct->PLL.PLLM) << RCC_PLLCFGR_PLLM_Pos) ||
 8001324:	68fb      	ldr	r3, [r7, #12]
 8001326:	f003 023f 	and.w	r2, r3, #63	; 0x3f
 800132a:	687b      	ldr	r3, [r7, #4]
 800132c:	6a1b      	ldr	r3, [r3, #32]
            (READ_BIT(pll_config, RCC_PLLCFGR_PLLSRC) != RCC_OscInitStruct->PLL.PLLSource) ||
 800132e:	429a      	cmp	r2, r3
 8001330:	d11a      	bne.n	8001368 <HAL_RCC_OscConfig+0x4dc>
            (READ_BIT(pll_config, RCC_PLLCFGR_PLLN) != (RCC_OscInitStruct->PLL.PLLN) << RCC_PLLCFGR_PLLN_Pos) ||
 8001332:	68fa      	ldr	r2, [r7, #12]
 8001334:	f647 73c0 	movw	r3, #32704	; 0x7fc0
 8001338:	4013      	ands	r3, r2
 800133a:	687a      	ldr	r2, [r7, #4]
 800133c:	6a52      	ldr	r2, [r2, #36]	; 0x24
 800133e:	0192      	lsls	r2, r2, #6
            (READ_BIT(pll_config, RCC_PLLCFGR_PLLM) != (RCC_OscInitStruct->PLL.PLLM) << RCC_PLLCFGR_PLLM_Pos) ||
 8001340:	4293      	cmp	r3, r2
 8001342:	d111      	bne.n	8001368 <HAL_RCC_OscConfig+0x4dc>
            (READ_BIT(pll_config, RCC_PLLCFGR_PLLP) != (((RCC_OscInitStruct->PLL.PLLP >> 1U) - 1U)) << RCC_PLLCFGR_PLLP_Pos) ||
 8001344:	68fb      	ldr	r3, [r7, #12]
 8001346:	f403 3240 	and.w	r2, r3, #196608	; 0x30000
 800134a:	687b      	ldr	r3, [r7, #4]
 800134c:	6a9b      	ldr	r3, [r3, #40]	; 0x28
 800134e:	085b      	lsrs	r3, r3, #1
 8001350:	3b01      	subs	r3, #1
 8001352:	041b      	lsls	r3, r3, #16
            (READ_BIT(pll_config, RCC_PLLCFGR_PLLN) != (RCC_OscInitStruct->PLL.PLLN) << RCC_PLLCFGR_PLLN_Pos) ||
 8001354:	429a      	cmp	r2, r3
 8001356:	d107      	bne.n	8001368 <HAL_RCC_OscConfig+0x4dc>
            (READ_BIT(pll_config, RCC_PLLCFGR_PLLQ) != (RCC_OscInitStruct->PLL.PLLQ << RCC_PLLCFGR_PLLQ_Pos)))
 8001358:	68fb      	ldr	r3, [r7, #12]
 800135a:	f003 6270 	and.w	r2, r3, #251658240	; 0xf000000
 800135e:	687b      	ldr	r3, [r7, #4]
 8001360:	6adb      	ldr	r3, [r3, #44]	; 0x2c
 8001362:	061b      	lsls	r3, r3, #24
            (READ_BIT(pll_config, RCC_PLLCFGR_PLLP) != (((RCC_OscInitStruct->PLL.PLLP >> 1U) - 1U)) << RCC_PLLCFGR_PLLP_Pos) ||
 8001364:	429a      	cmp	r2, r3
 8001366:	d001      	beq.n	800136c <HAL_RCC_OscConfig+0x4e0>
#endif
        {
          return HAL_ERROR;
 8001368:	2301      	movs	r3, #1
 800136a:	e000      	b.n	800136e <HAL_RCC_OscConfig+0x4e2>
        }
      }
    }
  }
  return HAL_OK;
 800136c:	2300      	movs	r3, #0
}
 800136e:	4618      	mov	r0, r3
 8001370:	3718      	adds	r7, #24
 8001372:	46bd      	mov	sp, r7
 8001374:	bd80      	pop	{r7, pc}
 8001376:	bf00      	nop
 8001378:	40023800 	.word	0x40023800

0800137c <HAL_RCC_ClockConfig>:
  *         HPRE[3:0] bits to ensure that HCLK not exceed the maximum allowed frequency
  *         (for more details refer to section above "Initialization/de-initialization functions")
  * @retval None
  */
HAL_StatusTypeDef HAL_RCC_ClockConfig(RCC_ClkInitTypeDef  *RCC_ClkInitStruct, uint32_t FLatency)
{
 800137c:	b580      	push	{r7, lr}
 800137e:	b084      	sub	sp, #16
 8001380:	af00      	add	r7, sp, #0
 8001382:	6078      	str	r0, [r7, #4]
 8001384:	6039      	str	r1, [r7, #0]
  uint32_t tickstart;

  /* Check Null pointer */
  if(RCC_ClkInitStruct == NULL)
 8001386:	687b      	ldr	r3, [r7, #4]
 8001388:	2b00      	cmp	r3, #0
 800138a:	d101      	bne.n	8001390 <HAL_RCC_ClockConfig+0x14>
  {
    return HAL_ERROR;
 800138c:	2301      	movs	r3, #1
 800138e:	e0cc      	b.n	800152a <HAL_RCC_ClockConfig+0x1ae>
  /* To correctly read data from FLASH memory, the number of wait states (LATENCY)
    must be correctly programmed according to the frequency of the CPU clock
    (HCLK) and the supply voltage of the device. */

  /* Increasing the number of wait states because of higher CPU frequency */
  if(FLatency > __HAL_FLASH_GET_LATENCY())
 8001390:	4b68      	ldr	r3, [pc, #416]	; (8001534 <HAL_RCC_ClockConfig+0x1b8>)
 8001392:	681b      	ldr	r3, [r3, #0]
 8001394:	f003 0307 	and.w	r3, r3, #7
 8001398:	683a      	ldr	r2, [r7, #0]
 800139a:	429a      	cmp	r2, r3
 800139c:	d90c      	bls.n	80013b8 <HAL_RCC_ClockConfig+0x3c>
  {
    /* Program the new number of wait states to the LATENCY bits in the FLASH_ACR register */
    __HAL_FLASH_SET_LATENCY(FLatency);
 800139e:	4b65      	ldr	r3, [pc, #404]	; (8001534 <HAL_RCC_ClockConfig+0x1b8>)
 80013a0:	683a      	ldr	r2, [r7, #0]
 80013a2:	b2d2      	uxtb	r2, r2
 80013a4:	701a      	strb	r2, [r3, #0]

    /* Check that the new number of wait states is taken into account to access the Flash
    memory by reading the FLASH_ACR register */
    if(__HAL_FLASH_GET_LATENCY() != FLatency)
 80013a6:	4b63      	ldr	r3, [pc, #396]	; (8001534 <HAL_RCC_ClockConfig+0x1b8>)
 80013a8:	681b      	ldr	r3, [r3, #0]
 80013aa:	f003 0307 	and.w	r3, r3, #7
 80013ae:	683a      	ldr	r2, [r7, #0]
 80013b0:	429a      	cmp	r2, r3
 80013b2:	d001      	beq.n	80013b8 <HAL_RCC_ClockConfig+0x3c>
    {
      return HAL_ERROR;
 80013b4:	2301      	movs	r3, #1
 80013b6:	e0b8      	b.n	800152a <HAL_RCC_ClockConfig+0x1ae>
    }
  }

  /*-------------------------- HCLK Configuration --------------------------*/
  if(((RCC_ClkInitStruct->ClockType) & RCC_CLOCKTYPE_HCLK) == RCC_CLOCKTYPE_HCLK)
 80013b8:	687b      	ldr	r3, [r7, #4]
 80013ba:	681b      	ldr	r3, [r3, #0]
 80013bc:	f003 0302 	and.w	r3, r3, #2
 80013c0:	2b00      	cmp	r3, #0
 80013c2:	d020      	beq.n	8001406 <HAL_RCC_ClockConfig+0x8a>
  {
    /* Set the highest APBx dividers in order to ensure that we do not go through
       a non-spec phase whatever we decrease or increase HCLK. */
    if(((RCC_ClkInitStruct->ClockType) & RCC_CLOCKTYPE_PCLK1) == RCC_CLOCKTYPE_PCLK1)
 80013c4:	687b      	ldr	r3, [r7, #4]
 80013c6:	681b      	ldr	r3, [r3, #0]
 80013c8:	f003 0304 	and.w	r3, r3, #4
 80013cc:	2b00      	cmp	r3, #0
 80013ce:	d005      	beq.n	80013dc <HAL_RCC_ClockConfig+0x60>
    {
      MODIFY_REG(RCC->CFGR, RCC_CFGR_PPRE1, RCC_HCLK_DIV16);
 80013d0:	4b59      	ldr	r3, [pc, #356]	; (8001538 <HAL_RCC_ClockConfig+0x1bc>)
 80013d2:	689b      	ldr	r3, [r3, #8]
 80013d4:	4a58      	ldr	r2, [pc, #352]	; (8001538 <HAL_RCC_ClockConfig+0x1bc>)
 80013d6:	f443 53e0 	orr.w	r3, r3, #7168	; 0x1c00
 80013da:	6093      	str	r3, [r2, #8]
    }

    if(((RCC_ClkInitStruct->ClockType) & RCC_CLOCKTYPE_PCLK2) == RCC_CLOCKTYPE_PCLK2)
 80013dc:	687b      	ldr	r3, [r7, #4]
 80013de:	681b      	ldr	r3, [r3, #0]
 80013e0:	f003 0308 	and.w	r3, r3, #8
 80013e4:	2b00      	cmp	r3, #0
 80013e6:	d005      	beq.n	80013f4 <HAL_RCC_ClockConfig+0x78>
    {
      MODIFY_REG(RCC->CFGR, RCC_CFGR_PPRE2, (RCC_HCLK_DIV16 << 3));
 80013e8:	4b53      	ldr	r3, [pc, #332]	; (8001538 <HAL_RCC_ClockConfig+0x1bc>)
 80013ea:	689b      	ldr	r3, [r3, #8]
 80013ec:	4a52      	ldr	r2, [pc, #328]	; (8001538 <HAL_RCC_ClockConfig+0x1bc>)
 80013ee:	f443 4360 	orr.w	r3, r3, #57344	; 0xe000
 80013f2:	6093      	str	r3, [r2, #8]
    }

    assert_param(IS_RCC_HCLK(RCC_ClkInitStruct->AHBCLKDivider));
    MODIFY_REG(RCC->CFGR, RCC_CFGR_HPRE, RCC_ClkInitStruct->AHBCLKDivider);
 80013f4:	4b50      	ldr	r3, [pc, #320]	; (8001538 <HAL_RCC_ClockConfig+0x1bc>)
 80013f6:	689b      	ldr	r3, [r3, #8]
 80013f8:	f023 02f0 	bic.w	r2, r3, #240	; 0xf0
 80013fc:	687b      	ldr	r3, [r7, #4]
 80013fe:	689b      	ldr	r3, [r3, #8]
 8001400:	494d      	ldr	r1, [pc, #308]	; (8001538 <HAL_RCC_ClockConfig+0x1bc>)
 8001402:	4313      	orrs	r3, r2
 8001404:	608b      	str	r3, [r1, #8]
  }

  /*------------------------- SYSCLK Configuration ---------------------------*/
  if(((RCC_ClkInitStruct->ClockType) & RCC_CLOCKTYPE_SYSCLK) == RCC_CLOCKTYPE_SYSCLK)
 8001406:	687b      	ldr	r3, [r7, #4]
 8001408:	681b      	ldr	r3, [r3, #0]
 800140a:	f003 0301 	and.w	r3, r3, #1
 800140e:	2b00      	cmp	r3, #0
 8001410:	d044      	beq.n	800149c <HAL_RCC_ClockConfig+0x120>
  {
    assert_param(IS_RCC_SYSCLKSOURCE(RCC_ClkInitStruct->SYSCLKSource));

    /* HSE is selected as System Clock Source */
    if(RCC_ClkInitStruct->SYSCLKSource == RCC_SYSCLKSOURCE_HSE)
 8001412:	687b      	ldr	r3, [r7, #4]
 8001414:	685b      	ldr	r3, [r3, #4]
 8001416:	2b01      	cmp	r3, #1
 8001418:	d107      	bne.n	800142a <HAL_RCC_ClockConfig+0xae>
    {
      /* Check the HSE ready flag */
      if(__HAL_RCC_GET_FLAG(RCC_FLAG_HSERDY) == RESET)
 800141a:	4b47      	ldr	r3, [pc, #284]	; (8001538 <HAL_RCC_ClockConfig+0x1bc>)
 800141c:	681b      	ldr	r3, [r3, #0]
 800141e:	f403 3300 	and.w	r3, r3, #131072	; 0x20000
 8001422:	2b00      	cmp	r3, #0
 8001424:	d119      	bne.n	800145a <HAL_RCC_ClockConfig+0xde>
      {
        return HAL_ERROR;
 8001426:	2301      	movs	r3, #1
 8001428:	e07f      	b.n	800152a <HAL_RCC_ClockConfig+0x1ae>
      }
    }
    /* PLL is selected as System Clock Source */
    else if((RCC_ClkInitStruct->SYSCLKSource == RCC_SYSCLKSOURCE_PLLCLK)   ||
 800142a:	687b      	ldr	r3, [r7, #4]
 800142c:	685b      	ldr	r3, [r3, #4]
 800142e:	2b02      	cmp	r3, #2
 8001430:	d003      	beq.n	800143a <HAL_RCC_ClockConfig+0xbe>
            (RCC_ClkInitStruct->SYSCLKSource == RCC_SYSCLKSOURCE_PLLRCLK))
 8001432:	687b      	ldr	r3, [r7, #4]
 8001434:	685b      	ldr	r3, [r3, #4]
    else if((RCC_ClkInitStruct->SYSCLKSource == RCC_SYSCLKSOURCE_PLLCLK)   ||
 8001436:	2b03      	cmp	r3, #3
 8001438:	d107      	bne.n	800144a <HAL_RCC_ClockConfig+0xce>
    {
      /* Check the PLL ready flag */
      if(__HAL_RCC_GET_FLAG(RCC_FLAG_PLLRDY) == RESET)
 800143a:	4b3f      	ldr	r3, [pc, #252]	; (8001538 <HAL_RCC_ClockConfig+0x1bc>)
 800143c:	681b      	ldr	r3, [r3, #0]
 800143e:	f003 7300 	and.w	r3, r3, #33554432	; 0x2000000
 8001442:	2b00      	cmp	r3, #0
 8001444:	d109      	bne.n	800145a <HAL_RCC_ClockConfig+0xde>
      {
        return HAL_ERROR;
 8001446:	2301      	movs	r3, #1
 8001448:	e06f      	b.n	800152a <HAL_RCC_ClockConfig+0x1ae>
    }
    /* HSI is selected as System Clock Source */
    else
    {
      /* Check the HSI ready flag */
      if(__HAL_RCC_GET_FLAG(RCC_FLAG_HSIRDY) == RESET)
 800144a:	4b3b      	ldr	r3, [pc, #236]	; (8001538 <HAL_RCC_ClockConfig+0x1bc>)
 800144c:	681b      	ldr	r3, [r3, #0]
 800144e:	f003 0302 	and.w	r3, r3, #2
 8001452:	2b00      	cmp	r3, #0
 8001454:	d101      	bne.n	800145a <HAL_RCC_ClockConfig+0xde>
      {
        return HAL_ERROR;
 8001456:	2301      	movs	r3, #1
 8001458:	e067      	b.n	800152a <HAL_RCC_ClockConfig+0x1ae>
      }
    }

    __HAL_RCC_SYSCLK_CONFIG(RCC_ClkInitStruct->SYSCLKSource);
 800145a:	4b37      	ldr	r3, [pc, #220]	; (8001538 <HAL_RCC_ClockConfig+0x1bc>)
 800145c:	689b      	ldr	r3, [r3, #8]
 800145e:	f023 0203 	bic.w	r2, r3, #3
 8001462:	687b      	ldr	r3, [r7, #4]
 8001464:	685b      	ldr	r3, [r3, #4]
 8001466:	4934      	ldr	r1, [pc, #208]	; (8001538 <HAL_RCC_ClockConfig+0x1bc>)
 8001468:	4313      	orrs	r3, r2
 800146a:	608b      	str	r3, [r1, #8]

    /* Get Start Tick */
    tickstart = HAL_GetTick();
 800146c:	f7ff fa80 	bl	8000970 <HAL_GetTick>
 8001470:	60f8      	str	r0, [r7, #12]

    while (__HAL_RCC_GET_SYSCLK_SOURCE() != (RCC_ClkInitStruct->SYSCLKSource << RCC_CFGR_SWS_Pos))
 8001472:	e00a      	b.n	800148a <HAL_RCC_ClockConfig+0x10e>
    {
      if ((HAL_GetTick() - tickstart) > CLOCKSWITCH_TIMEOUT_VALUE)
 8001474:	f7ff fa7c 	bl	8000970 <HAL_GetTick>
 8001478:	4602      	mov	r2, r0
 800147a:	68fb      	ldr	r3, [r7, #12]
 800147c:	1ad3      	subs	r3, r2, r3
 800147e:	f241 3288 	movw	r2, #5000	; 0x1388
 8001482:	4293      	cmp	r3, r2
 8001484:	d901      	bls.n	800148a <HAL_RCC_ClockConfig+0x10e>
      {
        return HAL_TIMEOUT;
 8001486:	2303      	movs	r3, #3
 8001488:	e04f      	b.n	800152a <HAL_RCC_ClockConfig+0x1ae>
    while (__HAL_RCC_GET_SYSCLK_SOURCE() != (RCC_ClkInitStruct->SYSCLKSource << RCC_CFGR_SWS_Pos))
 800148a:	4b2b      	ldr	r3, [pc, #172]	; (8001538 <HAL_RCC_ClockConfig+0x1bc>)
 800148c:	689b      	ldr	r3, [r3, #8]
 800148e:	f003 020c 	and.w	r2, r3, #12
 8001492:	687b      	ldr	r3, [r7, #4]
 8001494:	685b      	ldr	r3, [r3, #4]
 8001496:	009b      	lsls	r3, r3, #2
 8001498:	429a      	cmp	r2, r3
 800149a:	d1eb      	bne.n	8001474 <HAL_RCC_ClockConfig+0xf8>
      }
    }
  }

  /* Decreasing the number of wait states because of lower CPU frequency */
  if(FLatency < __HAL_FLASH_GET_LATENCY())
 800149c:	4b25      	ldr	r3, [pc, #148]	; (8001534 <HAL_RCC_ClockConfig+0x1b8>)
 800149e:	681b      	ldr	r3, [r3, #0]
 80014a0:	f003 0307 	and.w	r3, r3, #7
 80014a4:	683a      	ldr	r2, [r7, #0]
 80014a6:	429a      	cmp	r2, r3
 80014a8:	d20c      	bcs.n	80014c4 <HAL_RCC_ClockConfig+0x148>
  {
     /* Program the new number of wait states to the LATENCY bits in the FLASH_ACR register */
    __HAL_FLASH_SET_LATENCY(FLatency);
 80014aa:	4b22      	ldr	r3, [pc, #136]	; (8001534 <HAL_RCC_ClockConfig+0x1b8>)
 80014ac:	683a      	ldr	r2, [r7, #0]
 80014ae:	b2d2      	uxtb	r2, r2
 80014b0:	701a      	strb	r2, [r3, #0]

    /* Check that the new number of wait states is taken into account to access the Flash
    memory by reading the FLASH_ACR register */
    if(__HAL_FLASH_GET_LATENCY() != FLatency)
 80014b2:	4b20      	ldr	r3, [pc, #128]	; (8001534 <HAL_RCC_ClockConfig+0x1b8>)
 80014b4:	681b      	ldr	r3, [r3, #0]
 80014b6:	f003 0307 	and.w	r3, r3, #7
 80014ba:	683a      	ldr	r2, [r7, #0]
 80014bc:	429a      	cmp	r2, r3
 80014be:	d001      	beq.n	80014c4 <HAL_RCC_ClockConfig+0x148>
    {
      return HAL_ERROR;
 80014c0:	2301      	movs	r3, #1
 80014c2:	e032      	b.n	800152a <HAL_RCC_ClockConfig+0x1ae>
    }
  }

  /*-------------------------- PCLK1 Configuration ---------------------------*/
  if(((RCC_ClkInitStruct->ClockType) & RCC_CLOCKTYPE_PCLK1) == RCC_CLOCKTYPE_PCLK1)
 80014c4:	687b      	ldr	r3, [r7, #4]
 80014c6:	681b      	ldr	r3, [r3, #0]
 80014c8:	f003 0304 	and.w	r3, r3, #4
 80014cc:	2b00      	cmp	r3, #0
 80014ce:	d008      	beq.n	80014e2 <HAL_RCC_ClockConfig+0x166>
  {
    assert_param(IS_RCC_PCLK(RCC_ClkInitStruct->APB1CLKDivider));
    MODIFY_REG(RCC->CFGR, RCC_CFGR_PPRE1, RCC_ClkInitStruct->APB1CLKDivider);
 80014d0:	4b19      	ldr	r3, [pc, #100]	; (8001538 <HAL_RCC_ClockConfig+0x1bc>)
 80014d2:	689b      	ldr	r3, [r3, #8]
 80014d4:	f423 52e0 	bic.w	r2, r3, #7168	; 0x1c00
 80014d8:	687b      	ldr	r3, [r7, #4]
 80014da:	68db      	ldr	r3, [r3, #12]
 80014dc:	4916      	ldr	r1, [pc, #88]	; (8001538 <HAL_RCC_ClockConfig+0x1bc>)
 80014de:	4313      	orrs	r3, r2
 80014e0:	608b      	str	r3, [r1, #8]
  }

  /*-------------------------- PCLK2 Configuration ---------------------------*/
  if(((RCC_ClkInitStruct->ClockType) & RCC_CLOCKTYPE_PCLK2) == RCC_CLOCKTYPE_PCLK2)
 80014e2:	687b      	ldr	r3, [r7, #4]
 80014e4:	681b      	ldr	r3, [r3, #0]
 80014e6:	f003 0308 	and.w	r3, r3, #8
 80014ea:	2b00      	cmp	r3, #0
 80014ec:	d009      	beq.n	8001502 <HAL_RCC_ClockConfig+0x186>
  {
    assert_param(IS_RCC_PCLK(RCC_ClkInitStruct->APB2CLKDivider));
    MODIFY_REG(RCC->CFGR, RCC_CFGR_PPRE2, ((RCC_ClkInitStruct->APB2CLKDivider) << 3U));
 80014ee:	4b12      	ldr	r3, [pc, #72]	; (8001538 <HAL_RCC_ClockConfig+0x1bc>)
 80014f0:	689b      	ldr	r3, [r3, #8]
 80014f2:	f423 4260 	bic.w	r2, r3, #57344	; 0xe000
 80014f6:	687b      	ldr	r3, [r7, #4]
 80014f8:	691b      	ldr	r3, [r3, #16]
 80014fa:	00db      	lsls	r3, r3, #3
 80014fc:	490e      	ldr	r1, [pc, #56]	; (8001538 <HAL_RCC_ClockConfig+0x1bc>)
 80014fe:	4313      	orrs	r3, r2
 8001500:	608b      	str	r3, [r1, #8]
  }

  /* Update the SystemCoreClock global variable */
  SystemCoreClock = HAL_RCC_GetSysClockFreq() >> AHBPrescTable[(RCC->CFGR & RCC_CFGR_HPRE)>> RCC_CFGR_HPRE_Pos];
 8001502:	f000 f821 	bl	8001548 <HAL_RCC_GetSysClockFreq>
 8001506:	4602      	mov	r2, r0
 8001508:	4b0b      	ldr	r3, [pc, #44]	; (8001538 <HAL_RCC_ClockConfig+0x1bc>)
 800150a:	689b      	ldr	r3, [r3, #8]
 800150c:	091b      	lsrs	r3, r3, #4
 800150e:	f003 030f 	and.w	r3, r3, #15
 8001512:	490a      	ldr	r1, [pc, #40]	; (800153c <HAL_RCC_ClockConfig+0x1c0>)
 8001514:	5ccb      	ldrb	r3, [r1, r3]
 8001516:	fa22 f303 	lsr.w	r3, r2, r3
 800151a:	4a09      	ldr	r2, [pc, #36]	; (8001540 <HAL_RCC_ClockConfig+0x1c4>)
 800151c:	6013      	str	r3, [r2, #0]

  /* Configure the source of time base considering new system clocks settings */
  HAL_InitTick (uwTickPrio);
 800151e:	4b09      	ldr	r3, [pc, #36]	; (8001544 <HAL_RCC_ClockConfig+0x1c8>)
 8001520:	681b      	ldr	r3, [r3, #0]
 8001522:	4618      	mov	r0, r3
 8001524:	f7ff f9e0 	bl	80008e8 <HAL_InitTick>

  return HAL_OK;
 8001528:	2300      	movs	r3, #0
}
 800152a:	4618      	mov	r0, r3
 800152c:	3710      	adds	r7, #16
 800152e:	46bd      	mov	sp, r7
 8001530:	bd80      	pop	{r7, pc}
 8001532:	bf00      	nop
 8001534:	40023c00 	.word	0x40023c00
 8001538:	40023800 	.word	0x40023800
 800153c:	08001db0 	.word	0x08001db0
 8001540:	20000004 	.word	0x20000004
 8001544:	20000008 	.word	0x20000008

08001548 <HAL_RCC_GetSysClockFreq>:
  *
  *
  * @retval SYSCLK frequency
  */
__weak uint32_t HAL_RCC_GetSysClockFreq(void)
{
 8001548:	e92d 4fb0 	stmdb	sp!, {r4, r5, r7, r8, r9, sl, fp, lr}
 800154c:	b094      	sub	sp, #80	; 0x50
 800154e:	af00      	add	r7, sp, #0
  uint32_t pllm = 0U, pllvco = 0U, pllp = 0U;
 8001550:	2300      	movs	r3, #0
 8001552:	647b      	str	r3, [r7, #68]	; 0x44
 8001554:	2300      	movs	r3, #0
 8001556:	64fb      	str	r3, [r7, #76]	; 0x4c
 8001558:	2300      	movs	r3, #0
 800155a:	643b      	str	r3, [r7, #64]	; 0x40
  uint32_t sysclockfreq = 0U;
 800155c:	2300      	movs	r3, #0
 800155e:	64bb      	str	r3, [r7, #72]	; 0x48

  /* Get SYSCLK source -------------------------------------------------------*/
  switch (RCC->CFGR & RCC_CFGR_SWS)
 8001560:	4b79      	ldr	r3, [pc, #484]	; (8001748 <HAL_RCC_GetSysClockFreq+0x200>)
 8001562:	689b      	ldr	r3, [r3, #8]
 8001564:	f003 030c 	and.w	r3, r3, #12
 8001568:	2b08      	cmp	r3, #8
 800156a:	d00d      	beq.n	8001588 <HAL_RCC_GetSysClockFreq+0x40>
 800156c:	2b08      	cmp	r3, #8
 800156e:	f200 80e1 	bhi.w	8001734 <HAL_RCC_GetSysClockFreq+0x1ec>
 8001572:	2b00      	cmp	r3, #0
 8001574:	d002      	beq.n	800157c <HAL_RCC_GetSysClockFreq+0x34>
 8001576:	2b04      	cmp	r3, #4
 8001578:	d003      	beq.n	8001582 <HAL_RCC_GetSysClockFreq+0x3a>
 800157a:	e0db      	b.n	8001734 <HAL_RCC_GetSysClockFreq+0x1ec>
  {
    case RCC_CFGR_SWS_HSI:  /* HSI used as system clock source */
    {
      sysclockfreq = HSI_VALUE;
 800157c:	4b73      	ldr	r3, [pc, #460]	; (800174c <HAL_RCC_GetSysClockFreq+0x204>)
 800157e:	64bb      	str	r3, [r7, #72]	; 0x48
       break;
 8001580:	e0db      	b.n	800173a <HAL_RCC_GetSysClockFreq+0x1f2>
    }
    case RCC_CFGR_SWS_HSE:  /* HSE used as system clock  source */
    {
      sysclockfreq = HSE_VALUE;
 8001582:	4b73      	ldr	r3, [pc, #460]	; (8001750 <HAL_RCC_GetSysClockFreq+0x208>)
 8001584:	64bb      	str	r3, [r7, #72]	; 0x48
      break;
 8001586:	e0d8      	b.n	800173a <HAL_RCC_GetSysClockFreq+0x1f2>
    }
    case RCC_CFGR_SWS_PLL:  /* PLL used as system clock  source */
    {
      /* PLL_VCO = (HSE_VALUE or HSI_VALUE / PLLM) * PLLN
      SYSCLK = PLL_VCO / PLLP */
      pllm = RCC->PLLCFGR & RCC_PLLCFGR_PLLM;
 8001588:	4b6f      	ldr	r3, [pc, #444]	; (8001748 <HAL_RCC_GetSysClockFreq+0x200>)
 800158a:	685b      	ldr	r3, [r3, #4]
 800158c:	f003 033f 	and.w	r3, r3, #63	; 0x3f
 8001590:	647b      	str	r3, [r7, #68]	; 0x44
      if(__HAL_RCC_GET_PLL_OSCSOURCE() != RCC_PLLSOURCE_HSI)
 8001592:	4b6d      	ldr	r3, [pc, #436]	; (8001748 <HAL_RCC_GetSysClockFreq+0x200>)
 8001594:	685b      	ldr	r3, [r3, #4]
 8001596:	f403 0380 	and.w	r3, r3, #4194304	; 0x400000
 800159a:	2b00      	cmp	r3, #0
 800159c:	d063      	beq.n	8001666 <HAL_RCC_GetSysClockFreq+0x11e>
      {
        /* HSE used as PLL clock source */
        pllvco = (uint32_t) ((((uint64_t) HSE_VALUE * ((uint64_t) ((RCC->PLLCFGR & RCC_PLLCFGR_PLLN) >> RCC_PLLCFGR_PLLN_Pos)))) / (uint64_t)pllm);
 800159e:	4b6a      	ldr	r3, [pc, #424]	; (8001748 <HAL_RCC_GetSysClockFreq+0x200>)
 80015a0:	685b      	ldr	r3, [r3, #4]
 80015a2:	099b      	lsrs	r3, r3, #6
 80015a4:	2200      	movs	r2, #0
 80015a6:	63bb      	str	r3, [r7, #56]	; 0x38
 80015a8:	63fa      	str	r2, [r7, #60]	; 0x3c
 80015aa:	6bbb      	ldr	r3, [r7, #56]	; 0x38
 80015ac:	f3c3 0308 	ubfx	r3, r3, #0, #9
 80015b0:	633b      	str	r3, [r7, #48]	; 0x30
 80015b2:	2300      	movs	r3, #0
 80015b4:	637b      	str	r3, [r7, #52]	; 0x34
 80015b6:	e9d7 450c 	ldrd	r4, r5, [r7, #48]	; 0x30
 80015ba:	4622      	mov	r2, r4
 80015bc:	462b      	mov	r3, r5
 80015be:	f04f 0000 	mov.w	r0, #0
 80015c2:	f04f 0100 	mov.w	r1, #0
 80015c6:	0159      	lsls	r1, r3, #5
 80015c8:	ea41 61d2 	orr.w	r1, r1, r2, lsr #27
 80015cc:	0150      	lsls	r0, r2, #5
 80015ce:	4602      	mov	r2, r0
 80015d0:	460b      	mov	r3, r1
 80015d2:	4621      	mov	r1, r4
 80015d4:	1a51      	subs	r1, r2, r1
 80015d6:	6139      	str	r1, [r7, #16]
 80015d8:	4629      	mov	r1, r5
 80015da:	eb63 0301 	sbc.w	r3, r3, r1
 80015de:	617b      	str	r3, [r7, #20]
 80015e0:	f04f 0200 	mov.w	r2, #0
 80015e4:	f04f 0300 	mov.w	r3, #0
 80015e8:	e9d7 ab04 	ldrd	sl, fp, [r7, #16]
 80015ec:	4659      	mov	r1, fp
 80015ee:	018b      	lsls	r3, r1, #6
 80015f0:	4651      	mov	r1, sl
 80015f2:	ea43 6391 	orr.w	r3, r3, r1, lsr #26
 80015f6:	4651      	mov	r1, sl
 80015f8:	018a      	lsls	r2, r1, #6
 80015fa:	4651      	mov	r1, sl
 80015fc:	ebb2 0801 	subs.w	r8, r2, r1
 8001600:	4659      	mov	r1, fp
 8001602:	eb63 0901 	sbc.w	r9, r3, r1
 8001606:	f04f 0200 	mov.w	r2, #0
 800160a:	f04f 0300 	mov.w	r3, #0
 800160e:	ea4f 03c9 	mov.w	r3, r9, lsl #3
 8001612:	ea43 7358 	orr.w	r3, r3, r8, lsr #29
 8001616:	ea4f 02c8 	mov.w	r2, r8, lsl #3
 800161a:	4690      	mov	r8, r2
 800161c:	4699      	mov	r9, r3
 800161e:	4623      	mov	r3, r4
 8001620:	eb18 0303 	adds.w	r3, r8, r3
 8001624:	60bb      	str	r3, [r7, #8]
 8001626:	462b      	mov	r3, r5
 8001628:	eb49 0303 	adc.w	r3, r9, r3
 800162c:	60fb      	str	r3, [r7, #12]
 800162e:	f04f 0200 	mov.w	r2, #0
 8001632:	f04f 0300 	mov.w	r3, #0
 8001636:	e9d7 4502 	ldrd	r4, r5, [r7, #8]
 800163a:	4629      	mov	r1, r5
 800163c:	024b      	lsls	r3, r1, #9
 800163e:	4621      	mov	r1, r4
 8001640:	ea43 53d1 	orr.w	r3, r3, r1, lsr #23
 8001644:	4621      	mov	r1, r4
 8001646:	024a      	lsls	r2, r1, #9
 8001648:	4610      	mov	r0, r2
 800164a:	4619      	mov	r1, r3
 800164c:	6c7b      	ldr	r3, [r7, #68]	; 0x44
 800164e:	2200      	movs	r2, #0
 8001650:	62bb      	str	r3, [r7, #40]	; 0x28
 8001652:	62fa      	str	r2, [r7, #44]	; 0x2c
 8001654:	e9d7 230a 	ldrd	r2, r3, [r7, #40]	; 0x28
 8001658:	f7fe fdb6 	bl	80001c8 <__aeabi_uldivmod>
 800165c:	4602      	mov	r2, r0
 800165e:	460b      	mov	r3, r1
 8001660:	4613      	mov	r3, r2
 8001662:	64fb      	str	r3, [r7, #76]	; 0x4c
 8001664:	e058      	b.n	8001718 <HAL_RCC_GetSysClockFreq+0x1d0>
      }
      else
      {
        /* HSI used as PLL clock source */
        pllvco = (uint32_t) ((((uint64_t) HSI_VALUE * ((uint64_t) ((RCC->PLLCFGR & RCC_PLLCFGR_PLLN) >> RCC_PLLCFGR_PLLN_Pos)))) / (uint64_t)pllm);
 8001666:	4b38      	ldr	r3, [pc, #224]	; (8001748 <HAL_RCC_GetSysClockFreq+0x200>)
 8001668:	685b      	ldr	r3, [r3, #4]
 800166a:	099b      	lsrs	r3, r3, #6
 800166c:	2200      	movs	r2, #0
 800166e:	4618      	mov	r0, r3
 8001670:	4611      	mov	r1, r2
 8001672:	f3c0 0308 	ubfx	r3, r0, #0, #9
 8001676:	623b      	str	r3, [r7, #32]
 8001678:	2300      	movs	r3, #0
 800167a:	627b      	str	r3, [r7, #36]	; 0x24
 800167c:	e9d7 8908 	ldrd	r8, r9, [r7, #32]
 8001680:	4642      	mov	r2, r8
 8001682:	464b      	mov	r3, r9
 8001684:	f04f 0000 	mov.w	r0, #0
 8001688:	f04f 0100 	mov.w	r1, #0
 800168c:	0159      	lsls	r1, r3, #5
 800168e:	ea41 61d2 	orr.w	r1, r1, r2, lsr #27
 8001692:	0150      	lsls	r0, r2, #5
 8001694:	4602      	mov	r2, r0
 8001696:	460b      	mov	r3, r1
 8001698:	4641      	mov	r1, r8
 800169a:	ebb2 0a01 	subs.w	sl, r2, r1
 800169e:	4649      	mov	r1, r9
 80016a0:	eb63 0b01 	sbc.w	fp, r3, r1
 80016a4:	f04f 0200 	mov.w	r2, #0
 80016a8:	f04f 0300 	mov.w	r3, #0
 80016ac:	ea4f 138b 	mov.w	r3, fp, lsl #6
 80016b0:	ea43 639a 	orr.w	r3, r3, sl, lsr #26
 80016b4:	ea4f 128a 	mov.w	r2, sl, lsl #6
 80016b8:	ebb2 040a 	subs.w	r4, r2, sl
 80016bc:	eb63 050b 	sbc.w	r5, r3, fp
 80016c0:	f04f 0200 	mov.w	r2, #0
 80016c4:	f04f 0300 	mov.w	r3, #0
 80016c8:	00eb      	lsls	r3, r5, #3
 80016ca:	ea43 7354 	orr.w	r3, r3, r4, lsr #29
 80016ce:	00e2      	lsls	r2, r4, #3
 80016d0:	4614      	mov	r4, r2
 80016d2:	461d      	mov	r5, r3
 80016d4:	4643      	mov	r3, r8
 80016d6:	18e3      	adds	r3, r4, r3
 80016d8:	603b      	str	r3, [r7, #0]
 80016da:	464b      	mov	r3, r9
 80016dc:	eb45 0303 	adc.w	r3, r5, r3
 80016e0:	607b      	str	r3, [r7, #4]
 80016e2:	f04f 0200 	mov.w	r2, #0
 80016e6:	f04f 0300 	mov.w	r3, #0
 80016ea:	e9d7 4500 	ldrd	r4, r5, [r7]
 80016ee:	4629      	mov	r1, r5
 80016f0:	028b      	lsls	r3, r1, #10
 80016f2:	4621      	mov	r1, r4
 80016f4:	ea43 5391 	orr.w	r3, r3, r1, lsr #22
 80016f8:	4621      	mov	r1, r4
 80016fa:	028a      	lsls	r2, r1, #10
 80016fc:	4610      	mov	r0, r2
 80016fe:	4619      	mov	r1, r3
 8001700:	6c7b      	ldr	r3, [r7, #68]	; 0x44
 8001702:	2200      	movs	r2, #0
 8001704:	61bb      	str	r3, [r7, #24]
 8001706:	61fa      	str	r2, [r7, #28]
 8001708:	e9d7 2306 	ldrd	r2, r3, [r7, #24]
 800170c:	f7fe fd5c 	bl	80001c8 <__aeabi_uldivmod>
 8001710:	4602      	mov	r2, r0
 8001712:	460b      	mov	r3, r1
 8001714:	4613      	mov	r3, r2
 8001716:	64fb      	str	r3, [r7, #76]	; 0x4c
      }
      pllp = ((((RCC->PLLCFGR & RCC_PLLCFGR_PLLP) >> RCC_PLLCFGR_PLLP_Pos) + 1U) *2U);
 8001718:	4b0b      	ldr	r3, [pc, #44]	; (8001748 <HAL_RCC_GetSysClockFreq+0x200>)
 800171a:	685b      	ldr	r3, [r3, #4]
 800171c:	0c1b      	lsrs	r3, r3, #16
 800171e:	f003 0303 	and.w	r3, r3, #3
 8001722:	3301      	adds	r3, #1
 8001724:	005b      	lsls	r3, r3, #1
 8001726:	643b      	str	r3, [r7, #64]	; 0x40

      sysclockfreq = pllvco/pllp;
 8001728:	6cfa      	ldr	r2, [r7, #76]	; 0x4c
 800172a:	6c3b      	ldr	r3, [r7, #64]	; 0x40
 800172c:	fbb2 f3f3 	udiv	r3, r2, r3
 8001730:	64bb      	str	r3, [r7, #72]	; 0x48
      break;
 8001732:	e002      	b.n	800173a <HAL_RCC_GetSysClockFreq+0x1f2>
    }
    default:
    {
      sysclockfreq = HSI_VALUE;
 8001734:	4b05      	ldr	r3, [pc, #20]	; (800174c <HAL_RCC_GetSysClockFreq+0x204>)
 8001736:	64bb      	str	r3, [r7, #72]	; 0x48
      break;
 8001738:	bf00      	nop
    }
  }
  return sysclockfreq;
 800173a:	6cbb      	ldr	r3, [r7, #72]	; 0x48
}
 800173c:	4618      	mov	r0, r3
 800173e:	3750      	adds	r7, #80	; 0x50
 8001740:	46bd      	mov	sp, r7
 8001742:	e8bd 8fb0 	ldmia.w	sp!, {r4, r5, r7, r8, r9, sl, fp, pc}
 8001746:	bf00      	nop
 8001748:	40023800 	.word	0x40023800
 800174c:	00f42400 	.word	0x00f42400
 8001750:	007a1200 	.word	0x007a1200

08001754 <HAL_SPI_Init>:
  * @param  hspi pointer to a SPI_HandleTypeDef structure that contains
  *               the configuration information for SPI module.
  * @retval HAL status
  */
HAL_StatusTypeDef HAL_SPI_Init(SPI_HandleTypeDef *hspi)
{
 8001754:	b580      	push	{r7, lr}
 8001756:	b082      	sub	sp, #8
 8001758:	af00      	add	r7, sp, #0
 800175a:	6078      	str	r0, [r7, #4]
  /* Check the SPI handle allocation */
  if (hspi == NULL)
 800175c:	687b      	ldr	r3, [r7, #4]
 800175e:	2b00      	cmp	r3, #0
 8001760:	d101      	bne.n	8001766 <HAL_SPI_Init+0x12>
  {
    return HAL_ERROR;
 8001762:	2301      	movs	r3, #1
 8001764:	e07b      	b.n	800185e <HAL_SPI_Init+0x10a>
  assert_param(IS_SPI_DATASIZE(hspi->Init.DataSize));
  assert_param(IS_SPI_NSS(hspi->Init.NSS));
  assert_param(IS_SPI_BAUDRATE_PRESCALER(hspi->Init.BaudRatePrescaler));
  assert_param(IS_SPI_FIRST_BIT(hspi->Init.FirstBit));
  assert_param(IS_SPI_TIMODE(hspi->Init.TIMode));
  if (hspi->Init.TIMode == SPI_TIMODE_DISABLE)
 8001766:	687b      	ldr	r3, [r7, #4]
 8001768:	6a5b      	ldr	r3, [r3, #36]	; 0x24
 800176a:	2b00      	cmp	r3, #0
 800176c:	d108      	bne.n	8001780 <HAL_SPI_Init+0x2c>
  {
    assert_param(IS_SPI_CPOL(hspi->Init.CLKPolarity));
    assert_param(IS_SPI_CPHA(hspi->Init.CLKPhase));

    if (hspi->Init.Mode == SPI_MODE_MASTER)
 800176e:	687b      	ldr	r3, [r7, #4]
 8001770:	685b      	ldr	r3, [r3, #4]
 8001772:	f5b3 7f82 	cmp.w	r3, #260	; 0x104
 8001776:	d009      	beq.n	800178c <HAL_SPI_Init+0x38>
      assert_param(IS_SPI_BAUDRATE_PRESCALER(hspi->Init.BaudRatePrescaler));
    }
    else
    {
      /* Baudrate prescaler not use in Motoraola Slave mode. force to default value */
      hspi->Init.BaudRatePrescaler = SPI_BAUDRATEPRESCALER_2;
 8001778:	687b      	ldr	r3, [r7, #4]
 800177a:	2200      	movs	r2, #0
 800177c:	61da      	str	r2, [r3, #28]
 800177e:	e005      	b.n	800178c <HAL_SPI_Init+0x38>
  else
  {
    assert_param(IS_SPI_BAUDRATE_PRESCALER(hspi->Init.BaudRatePrescaler));

    /* Force polarity and phase to TI protocaol requirements */
    hspi->Init.CLKPolarity = SPI_POLARITY_LOW;
 8001780:	687b      	ldr	r3, [r7, #4]
 8001782:	2200      	movs	r2, #0
 8001784:	611a      	str	r2, [r3, #16]
    hspi->Init.CLKPhase    = SPI_PHASE_1EDGE;
 8001786:	687b      	ldr	r3, [r7, #4]
 8001788:	2200      	movs	r2, #0
 800178a:	615a      	str	r2, [r3, #20]
  if (hspi->Init.CRCCalculation == SPI_CRCCALCULATION_ENABLE)
  {
    assert_param(IS_SPI_CRC_POLYNOMIAL(hspi->Init.CRCPolynomial));
  }
#else
  hspi->Init.CRCCalculation = SPI_CRCCALCULATION_DISABLE;
 800178c:	687b      	ldr	r3, [r7, #4]
 800178e:	2200      	movs	r2, #0
 8001790:	629a      	str	r2, [r3, #40]	; 0x28
#endif /* USE_SPI_CRC */

  if (hspi->State == HAL_SPI_STATE_RESET)
 8001792:	687b      	ldr	r3, [r7, #4]
 8001794:	f893 3051 	ldrb.w	r3, [r3, #81]	; 0x51
 8001798:	b2db      	uxtb	r3, r3
 800179a:	2b00      	cmp	r3, #0
 800179c:	d106      	bne.n	80017ac <HAL_SPI_Init+0x58>
  {
    /* Allocate lock resource and initialize it */
    hspi->Lock = HAL_UNLOCKED;
 800179e:	687b      	ldr	r3, [r7, #4]
 80017a0:	2200      	movs	r2, #0
 80017a2:	f883 2050 	strb.w	r2, [r3, #80]	; 0x50

    /* Init the low level hardware : GPIO, CLOCK, NVIC... */
    hspi->MspInitCallback(hspi);
#else
    /* Init the low level hardware : GPIO, CLOCK, NVIC... */
    HAL_SPI_MspInit(hspi);
 80017a6:	6878      	ldr	r0, [r7, #4]
 80017a8:	f7fe ffae 	bl	8000708 <HAL_SPI_MspInit>
#endif /* USE_HAL_SPI_REGISTER_CALLBACKS */
  }

  hspi->State = HAL_SPI_STATE_BUSY;
 80017ac:	687b      	ldr	r3, [r7, #4]
 80017ae:	2202      	movs	r2, #2
 80017b0:	f883 2051 	strb.w	r2, [r3, #81]	; 0x51

  /* Disable the selected SPI peripheral */
  __HAL_SPI_DISABLE(hspi);
 80017b4:	687b      	ldr	r3, [r7, #4]
 80017b6:	681b      	ldr	r3, [r3, #0]
 80017b8:	681a      	ldr	r2, [r3, #0]
 80017ba:	687b      	ldr	r3, [r7, #4]
 80017bc:	681b      	ldr	r3, [r3, #0]
 80017be:	f022 0240 	bic.w	r2, r2, #64	; 0x40
 80017c2:	601a      	str	r2, [r3, #0]

  /*----------------------- SPIx CR1 & CR2 Configuration ---------------------*/
  /* Configure : SPI Mode, Communication Mode, Data size, Clock polarity and phase, NSS management,
  Communication speed, First bit and CRC calculation state */
  WRITE_REG(hspi->Instance->CR1, ((hspi->Init.Mode & (SPI_CR1_MSTR | SPI_CR1_SSI)) |
 80017c4:	687b      	ldr	r3, [r7, #4]
 80017c6:	685b      	ldr	r3, [r3, #4]
 80017c8:	f403 7282 	and.w	r2, r3, #260	; 0x104
 80017cc:	687b      	ldr	r3, [r7, #4]
 80017ce:	689b      	ldr	r3, [r3, #8]
 80017d0:	f403 4304 	and.w	r3, r3, #33792	; 0x8400
 80017d4:	431a      	orrs	r2, r3
 80017d6:	687b      	ldr	r3, [r7, #4]
 80017d8:	68db      	ldr	r3, [r3, #12]
 80017da:	f403 6300 	and.w	r3, r3, #2048	; 0x800
 80017de:	431a      	orrs	r2, r3
 80017e0:	687b      	ldr	r3, [r7, #4]
 80017e2:	691b      	ldr	r3, [r3, #16]
 80017e4:	f003 0302 	and.w	r3, r3, #2
 80017e8:	431a      	orrs	r2, r3
 80017ea:	687b      	ldr	r3, [r7, #4]
 80017ec:	695b      	ldr	r3, [r3, #20]
 80017ee:	f003 0301 	and.w	r3, r3, #1
 80017f2:	431a      	orrs	r2, r3
 80017f4:	687b      	ldr	r3, [r7, #4]
 80017f6:	699b      	ldr	r3, [r3, #24]
 80017f8:	f403 7300 	and.w	r3, r3, #512	; 0x200
 80017fc:	431a      	orrs	r2, r3
 80017fe:	687b      	ldr	r3, [r7, #4]
 8001800:	69db      	ldr	r3, [r3, #28]
 8001802:	f003 0338 	and.w	r3, r3, #56	; 0x38
 8001806:	431a      	orrs	r2, r3
 8001808:	687b      	ldr	r3, [r7, #4]
 800180a:	6a1b      	ldr	r3, [r3, #32]
 800180c:	f003 0380 	and.w	r3, r3, #128	; 0x80
 8001810:	ea42 0103 	orr.w	r1, r2, r3
 8001814:	687b      	ldr	r3, [r7, #4]
 8001816:	6a9b      	ldr	r3, [r3, #40]	; 0x28
 8001818:	f403 5200 	and.w	r2, r3, #8192	; 0x2000
 800181c:	687b      	ldr	r3, [r7, #4]
 800181e:	681b      	ldr	r3, [r3, #0]
 8001820:	430a      	orrs	r2, r1
 8001822:	601a      	str	r2, [r3, #0]
                                  (hspi->Init.BaudRatePrescaler & SPI_CR1_BR_Msk) |
                                  (hspi->Init.FirstBit  & SPI_CR1_LSBFIRST) |
                                  (hspi->Init.CRCCalculation & SPI_CR1_CRCEN)));

  /* Configure : NSS management, TI Mode */
  WRITE_REG(hspi->Instance->CR2, (((hspi->Init.NSS >> 16U) & SPI_CR2_SSOE) | (hspi->Init.TIMode & SPI_CR2_FRF)));
 8001824:	687b      	ldr	r3, [r7, #4]
 8001826:	699b      	ldr	r3, [r3, #24]
 8001828:	0c1b      	lsrs	r3, r3, #16
 800182a:	f003 0104 	and.w	r1, r3, #4
 800182e:	687b      	ldr	r3, [r7, #4]
 8001830:	6a5b      	ldr	r3, [r3, #36]	; 0x24
 8001832:	f003 0210 	and.w	r2, r3, #16
 8001836:	687b      	ldr	r3, [r7, #4]
 8001838:	681b      	ldr	r3, [r3, #0]
 800183a:	430a      	orrs	r2, r1
 800183c:	605a      	str	r2, [r3, #4]
  }
#endif /* USE_SPI_CRC */

#if defined(SPI_I2SCFGR_I2SMOD)
  /* Activate the SPI mode (Make sure that I2SMOD bit in I2SCFGR register is reset) */
  CLEAR_BIT(hspi->Instance->I2SCFGR, SPI_I2SCFGR_I2SMOD);
 800183e:	687b      	ldr	r3, [r7, #4]
 8001840:	681b      	ldr	r3, [r3, #0]
 8001842:	69da      	ldr	r2, [r3, #28]
 8001844:	687b      	ldr	r3, [r7, #4]
 8001846:	681b      	ldr	r3, [r3, #0]
 8001848:	f422 6200 	bic.w	r2, r2, #2048	; 0x800
 800184c:	61da      	str	r2, [r3, #28]
#endif /* SPI_I2SCFGR_I2SMOD */

  hspi->ErrorCode = HAL_SPI_ERROR_NONE;
 800184e:	687b      	ldr	r3, [r7, #4]
 8001850:	2200      	movs	r2, #0
 8001852:	655a      	str	r2, [r3, #84]	; 0x54
  hspi->State     = HAL_SPI_STATE_READY;
 8001854:	687b      	ldr	r3, [r7, #4]
 8001856:	2201      	movs	r2, #1
 8001858:	f883 2051 	strb.w	r2, [r3, #81]	; 0x51

  return HAL_OK;
 800185c:	2300      	movs	r3, #0
}
 800185e:	4618      	mov	r0, r3
 8001860:	3708      	adds	r7, #8
 8001862:	46bd      	mov	sp, r7
 8001864:	bd80      	pop	{r7, pc}

08001866 <HAL_SPI_TransmitReceive>:
  * @param  Timeout Timeout duration
  * @retval HAL status
  */
HAL_StatusTypeDef HAL_SPI_TransmitReceive(SPI_HandleTypeDef *hspi, uint8_t *pTxData, uint8_t *pRxData, uint16_t Size,
                                          uint32_t Timeout)
{
 8001866:	b580      	push	{r7, lr}
 8001868:	b08c      	sub	sp, #48	; 0x30
 800186a:	af00      	add	r7, sp, #0
 800186c:	60f8      	str	r0, [r7, #12]
 800186e:	60b9      	str	r1, [r7, #8]
 8001870:	607a      	str	r2, [r7, #4]
 8001872:	807b      	strh	r3, [r7, #2]
#if (USE_SPI_CRC != 0U)
  __IO uint32_t tmpreg = 0U;
#endif /* USE_SPI_CRC */

  /* Variable used to alternate Rx and Tx during transfer */
  uint32_t             txallowed = 1U;
 8001874:	2301      	movs	r3, #1
 8001876:	62fb      	str	r3, [r7, #44]	; 0x2c
  HAL_StatusTypeDef    errorcode = HAL_OK;
 8001878:	2300      	movs	r3, #0
 800187a:	f887 302b 	strb.w	r3, [r7, #43]	; 0x2b

  /* Check Direction parameter */
  assert_param(IS_SPI_DIRECTION_2LINES(hspi->Init.Direction));

  /* Process Locked */
  __HAL_LOCK(hspi);
 800187e:	68fb      	ldr	r3, [r7, #12]
 8001880:	f893 3050 	ldrb.w	r3, [r3, #80]	; 0x50
 8001884:	2b01      	cmp	r3, #1
 8001886:	d101      	bne.n	800188c <HAL_SPI_TransmitReceive+0x26>
 8001888:	2302      	movs	r3, #2
 800188a:	e18a      	b.n	8001ba2 <HAL_SPI_TransmitReceive+0x33c>
 800188c:	68fb      	ldr	r3, [r7, #12]
 800188e:	2201      	movs	r2, #1
 8001890:	f883 2050 	strb.w	r2, [r3, #80]	; 0x50

  /* Init tickstart for timeout management*/
  tickstart = HAL_GetTick();
 8001894:	f7ff f86c 	bl	8000970 <HAL_GetTick>
 8001898:	6278      	str	r0, [r7, #36]	; 0x24

  /* Init temporary variables */
  tmp_state           = hspi->State;
 800189a:	68fb      	ldr	r3, [r7, #12]
 800189c:	f893 3051 	ldrb.w	r3, [r3, #81]	; 0x51
 80018a0:	f887 3023 	strb.w	r3, [r7, #35]	; 0x23
  tmp_mode            = hspi->Init.Mode;
 80018a4:	68fb      	ldr	r3, [r7, #12]
 80018a6:	685b      	ldr	r3, [r3, #4]
 80018a8:	61fb      	str	r3, [r7, #28]
  initial_TxXferCount = Size;
 80018aa:	887b      	ldrh	r3, [r7, #2]
 80018ac:	837b      	strh	r3, [r7, #26]

  if (!((tmp_state == HAL_SPI_STATE_READY) || \
 80018ae:	f897 3023 	ldrb.w	r3, [r7, #35]	; 0x23
 80018b2:	2b01      	cmp	r3, #1
 80018b4:	d00f      	beq.n	80018d6 <HAL_SPI_TransmitReceive+0x70>
 80018b6:	69fb      	ldr	r3, [r7, #28]
 80018b8:	f5b3 7f82 	cmp.w	r3, #260	; 0x104
 80018bc:	d107      	bne.n	80018ce <HAL_SPI_TransmitReceive+0x68>
        ((tmp_mode == SPI_MODE_MASTER) && (hspi->Init.Direction == SPI_DIRECTION_2LINES) && (tmp_state == HAL_SPI_STATE_BUSY_RX))))
 80018be:	68fb      	ldr	r3, [r7, #12]
 80018c0:	689b      	ldr	r3, [r3, #8]
 80018c2:	2b00      	cmp	r3, #0
 80018c4:	d103      	bne.n	80018ce <HAL_SPI_TransmitReceive+0x68>
 80018c6:	f897 3023 	ldrb.w	r3, [r7, #35]	; 0x23
 80018ca:	2b04      	cmp	r3, #4
 80018cc:	d003      	beq.n	80018d6 <HAL_SPI_TransmitReceive+0x70>
  {
    errorcode = HAL_BUSY;
 80018ce:	2302      	movs	r3, #2
 80018d0:	f887 302b 	strb.w	r3, [r7, #43]	; 0x2b
    goto error;
 80018d4:	e15b      	b.n	8001b8e <HAL_SPI_TransmitReceive+0x328>
  }

  if ((pTxData == NULL) || (pRxData == NULL) || (Size == 0U))
 80018d6:	68bb      	ldr	r3, [r7, #8]
 80018d8:	2b00      	cmp	r3, #0
 80018da:	d005      	beq.n	80018e8 <HAL_SPI_TransmitReceive+0x82>
 80018dc:	687b      	ldr	r3, [r7, #4]
 80018de:	2b00      	cmp	r3, #0
 80018e0:	d002      	beq.n	80018e8 <HAL_SPI_TransmitReceive+0x82>
 80018e2:	887b      	ldrh	r3, [r7, #2]
 80018e4:	2b00      	cmp	r3, #0
 80018e6:	d103      	bne.n	80018f0 <HAL_SPI_TransmitReceive+0x8a>
  {
    errorcode = HAL_ERROR;
 80018e8:	2301      	movs	r3, #1
 80018ea:	f887 302b 	strb.w	r3, [r7, #43]	; 0x2b
    goto error;
 80018ee:	e14e      	b.n	8001b8e <HAL_SPI_TransmitReceive+0x328>
  }

  /* Don't overwrite in case of HAL_SPI_STATE_BUSY_RX */
  if (hspi->State != HAL_SPI_STATE_BUSY_RX)
 80018f0:	68fb      	ldr	r3, [r7, #12]
 80018f2:	f893 3051 	ldrb.w	r3, [r3, #81]	; 0x51
 80018f6:	b2db      	uxtb	r3, r3
 80018f8:	2b04      	cmp	r3, #4
 80018fa:	d003      	beq.n	8001904 <HAL_SPI_TransmitReceive+0x9e>
  {
    hspi->State = HAL_SPI_STATE_BUSY_TX_RX;
 80018fc:	68fb      	ldr	r3, [r7, #12]
 80018fe:	2205      	movs	r2, #5
 8001900:	f883 2051 	strb.w	r2, [r3, #81]	; 0x51
  }

  /* Set the transaction information */
  hspi->ErrorCode   = HAL_SPI_ERROR_NONE;
 8001904:	68fb      	ldr	r3, [r7, #12]
 8001906:	2200      	movs	r2, #0
 8001908:	655a      	str	r2, [r3, #84]	; 0x54
  hspi->pRxBuffPtr  = (uint8_t *)pRxData;
 800190a:	68fb      	ldr	r3, [r7, #12]
 800190c:	687a      	ldr	r2, [r7, #4]
 800190e:	639a      	str	r2, [r3, #56]	; 0x38
  hspi->RxXferCount = Size;
 8001910:	68fb      	ldr	r3, [r7, #12]
 8001912:	887a      	ldrh	r2, [r7, #2]
 8001914:	87da      	strh	r2, [r3, #62]	; 0x3e
  hspi->RxXferSize  = Size;
 8001916:	68fb      	ldr	r3, [r7, #12]
 8001918:	887a      	ldrh	r2, [r7, #2]
 800191a:	879a      	strh	r2, [r3, #60]	; 0x3c
  hspi->pTxBuffPtr  = (uint8_t *)pTxData;
 800191c:	68fb      	ldr	r3, [r7, #12]
 800191e:	68ba      	ldr	r2, [r7, #8]
 8001920:	631a      	str	r2, [r3, #48]	; 0x30
  hspi->TxXferCount = Size;
 8001922:	68fb      	ldr	r3, [r7, #12]
 8001924:	887a      	ldrh	r2, [r7, #2]
 8001926:	86da      	strh	r2, [r3, #54]	; 0x36
  hspi->TxXferSize  = Size;
 8001928:	68fb      	ldr	r3, [r7, #12]
 800192a:	887a      	ldrh	r2, [r7, #2]
 800192c:	869a      	strh	r2, [r3, #52]	; 0x34

  /*Init field not used in handle to zero */
  hspi->RxISR       = NULL;
 800192e:	68fb      	ldr	r3, [r7, #12]
 8001930:	2200      	movs	r2, #0
 8001932:	641a      	str	r2, [r3, #64]	; 0x40
  hspi->TxISR       = NULL;
 8001934:	68fb      	ldr	r3, [r7, #12]
 8001936:	2200      	movs	r2, #0
 8001938:	645a      	str	r2, [r3, #68]	; 0x44
    SPI_RESET_CRC(hspi);
  }
#endif /* USE_SPI_CRC */

  /* Check if the SPI is already enabled */
  if ((hspi->Instance->CR1 & SPI_CR1_SPE) != SPI_CR1_SPE)
 800193a:	68fb      	ldr	r3, [r7, #12]
 800193c:	681b      	ldr	r3, [r3, #0]
 800193e:	681b      	ldr	r3, [r3, #0]
 8001940:	f003 0340 	and.w	r3, r3, #64	; 0x40
 8001944:	2b40      	cmp	r3, #64	; 0x40
 8001946:	d007      	beq.n	8001958 <HAL_SPI_TransmitReceive+0xf2>
  {
    /* Enable SPI peripheral */
    __HAL_SPI_ENABLE(hspi);
 8001948:	68fb      	ldr	r3, [r7, #12]
 800194a:	681b      	ldr	r3, [r3, #0]
 800194c:	681a      	ldr	r2, [r3, #0]
 800194e:	68fb      	ldr	r3, [r7, #12]
 8001950:	681b      	ldr	r3, [r3, #0]
 8001952:	f042 0240 	orr.w	r2, r2, #64	; 0x40
 8001956:	601a      	str	r2, [r3, #0]
  }

  /* Transmit and Receive data in 16 Bit mode */
  if (hspi->Init.DataSize == SPI_DATASIZE_16BIT)
 8001958:	68fb      	ldr	r3, [r7, #12]
 800195a:	68db      	ldr	r3, [r3, #12]
 800195c:	f5b3 6f00 	cmp.w	r3, #2048	; 0x800
 8001960:	d178      	bne.n	8001a54 <HAL_SPI_TransmitReceive+0x1ee>
  {
    if ((hspi->Init.Mode == SPI_MODE_SLAVE) || (initial_TxXferCount == 0x01U))
 8001962:	68fb      	ldr	r3, [r7, #12]
 8001964:	685b      	ldr	r3, [r3, #4]
 8001966:	2b00      	cmp	r3, #0
 8001968:	d002      	beq.n	8001970 <HAL_SPI_TransmitReceive+0x10a>
 800196a:	8b7b      	ldrh	r3, [r7, #26]
 800196c:	2b01      	cmp	r3, #1
 800196e:	d166      	bne.n	8001a3e <HAL_SPI_TransmitReceive+0x1d8>
    {
      hspi->Instance->DR = *((uint16_t *)hspi->pTxBuffPtr);
 8001970:	68fb      	ldr	r3, [r7, #12]
 8001972:	6b1b      	ldr	r3, [r3, #48]	; 0x30
 8001974:	881a      	ldrh	r2, [r3, #0]
 8001976:	68fb      	ldr	r3, [r7, #12]
 8001978:	681b      	ldr	r3, [r3, #0]
 800197a:	60da      	str	r2, [r3, #12]
      hspi->pTxBuffPtr += sizeof(uint16_t);
 800197c:	68fb      	ldr	r3, [r7, #12]
 800197e:	6b1b      	ldr	r3, [r3, #48]	; 0x30
 8001980:	1c9a      	adds	r2, r3, #2
 8001982:	68fb      	ldr	r3, [r7, #12]
 8001984:	631a      	str	r2, [r3, #48]	; 0x30
      hspi->TxXferCount--;
 8001986:	68fb      	ldr	r3, [r7, #12]
 8001988:	8edb      	ldrh	r3, [r3, #54]	; 0x36
 800198a:	b29b      	uxth	r3, r3
 800198c:	3b01      	subs	r3, #1
 800198e:	b29a      	uxth	r2, r3
 8001990:	68fb      	ldr	r3, [r7, #12]
 8001992:	86da      	strh	r2, [r3, #54]	; 0x36
    }
    while ((hspi->TxXferCount > 0U) || (hspi->RxXferCount > 0U))
 8001994:	e053      	b.n	8001a3e <HAL_SPI_TransmitReceive+0x1d8>
    {
      /* Check TXE flag */
      if ((__HAL_SPI_GET_FLAG(hspi, SPI_FLAG_TXE)) && (hspi->TxXferCount > 0U) && (txallowed == 1U))
 8001996:	68fb      	ldr	r3, [r7, #12]
 8001998:	681b      	ldr	r3, [r3, #0]
 800199a:	689b      	ldr	r3, [r3, #8]
 800199c:	f003 0302 	and.w	r3, r3, #2
 80019a0:	2b02      	cmp	r3, #2
 80019a2:	d11b      	bne.n	80019dc <HAL_SPI_TransmitReceive+0x176>
 80019a4:	68fb      	ldr	r3, [r7, #12]
 80019a6:	8edb      	ldrh	r3, [r3, #54]	; 0x36
 80019a8:	b29b      	uxth	r3, r3
 80019aa:	2b00      	cmp	r3, #0
 80019ac:	d016      	beq.n	80019dc <HAL_SPI_TransmitReceive+0x176>
 80019ae:	6afb      	ldr	r3, [r7, #44]	; 0x2c
 80019b0:	2b01      	cmp	r3, #1
 80019b2:	d113      	bne.n	80019dc <HAL_SPI_TransmitReceive+0x176>
      {
        hspi->Instance->DR = *((uint16_t *)hspi->pTxBuffPtr);
 80019b4:	68fb      	ldr	r3, [r7, #12]
 80019b6:	6b1b      	ldr	r3, [r3, #48]	; 0x30
 80019b8:	881a      	ldrh	r2, [r3, #0]
 80019ba:	68fb      	ldr	r3, [r7, #12]
 80019bc:	681b      	ldr	r3, [r3, #0]
 80019be:	60da      	str	r2, [r3, #12]
        hspi->pTxBuffPtr += sizeof(uint16_t);
 80019c0:	68fb      	ldr	r3, [r7, #12]
 80019c2:	6b1b      	ldr	r3, [r3, #48]	; 0x30
 80019c4:	1c9a      	adds	r2, r3, #2
 80019c6:	68fb      	ldr	r3, [r7, #12]
 80019c8:	631a      	str	r2, [r3, #48]	; 0x30
        hspi->TxXferCount--;
 80019ca:	68fb      	ldr	r3, [r7, #12]
 80019cc:	8edb      	ldrh	r3, [r3, #54]	; 0x36
 80019ce:	b29b      	uxth	r3, r3
 80019d0:	3b01      	subs	r3, #1
 80019d2:	b29a      	uxth	r2, r3
 80019d4:	68fb      	ldr	r3, [r7, #12]
 80019d6:	86da      	strh	r2, [r3, #54]	; 0x36
        /* Next Data is a reception (Rx). Tx not allowed */
        txallowed = 0U;
 80019d8:	2300      	movs	r3, #0
 80019da:	62fb      	str	r3, [r7, #44]	; 0x2c
        }
#endif /* USE_SPI_CRC */
      }

      /* Check RXNE flag */
      if ((__HAL_SPI_GET_FLAG(hspi, SPI_FLAG_RXNE)) && (hspi->RxXferCount > 0U))
 80019dc:	68fb      	ldr	r3, [r7, #12]
 80019de:	681b      	ldr	r3, [r3, #0]
 80019e0:	689b      	ldr	r3, [r3, #8]
 80019e2:	f003 0301 	and.w	r3, r3, #1
 80019e6:	2b01      	cmp	r3, #1
 80019e8:	d119      	bne.n	8001a1e <HAL_SPI_TransmitReceive+0x1b8>
 80019ea:	68fb      	ldr	r3, [r7, #12]
 80019ec:	8fdb      	ldrh	r3, [r3, #62]	; 0x3e
 80019ee:	b29b      	uxth	r3, r3
 80019f0:	2b00      	cmp	r3, #0
 80019f2:	d014      	beq.n	8001a1e <HAL_SPI_TransmitReceive+0x1b8>
      {
        *((uint16_t *)hspi->pRxBuffPtr) = (uint16_t)hspi->Instance->DR;
 80019f4:	68fb      	ldr	r3, [r7, #12]
 80019f6:	681b      	ldr	r3, [r3, #0]
 80019f8:	68da      	ldr	r2, [r3, #12]
 80019fa:	68fb      	ldr	r3, [r7, #12]
 80019fc:	6b9b      	ldr	r3, [r3, #56]	; 0x38
 80019fe:	b292      	uxth	r2, r2
 8001a00:	801a      	strh	r2, [r3, #0]
        hspi->pRxBuffPtr += sizeof(uint16_t);
 8001a02:	68fb      	ldr	r3, [r7, #12]
 8001a04:	6b9b      	ldr	r3, [r3, #56]	; 0x38
 8001a06:	1c9a      	adds	r2, r3, #2
 8001a08:	68fb      	ldr	r3, [r7, #12]
 8001a0a:	639a      	str	r2, [r3, #56]	; 0x38
        hspi->RxXferCount--;
 8001a0c:	68fb      	ldr	r3, [r7, #12]
 8001a0e:	8fdb      	ldrh	r3, [r3, #62]	; 0x3e
 8001a10:	b29b      	uxth	r3, r3
 8001a12:	3b01      	subs	r3, #1
 8001a14:	b29a      	uxth	r2, r3
 8001a16:	68fb      	ldr	r3, [r7, #12]
 8001a18:	87da      	strh	r2, [r3, #62]	; 0x3e
        /* Next Data is a Transmission (Tx). Tx is allowed */
        txallowed = 1U;
 8001a1a:	2301      	movs	r3, #1
 8001a1c:	62fb      	str	r3, [r7, #44]	; 0x2c
      }
      if (((HAL_GetTick() - tickstart) >=  Timeout) && (Timeout != HAL_MAX_DELAY))
 8001a1e:	f7fe ffa7 	bl	8000970 <HAL_GetTick>
 8001a22:	4602      	mov	r2, r0
 8001a24:	6a7b      	ldr	r3, [r7, #36]	; 0x24
 8001a26:	1ad3      	subs	r3, r2, r3
 8001a28:	6bba      	ldr	r2, [r7, #56]	; 0x38
 8001a2a:	429a      	cmp	r2, r3
 8001a2c:	d807      	bhi.n	8001a3e <HAL_SPI_TransmitReceive+0x1d8>
 8001a2e:	6bbb      	ldr	r3, [r7, #56]	; 0x38
 8001a30:	f1b3 3fff 	cmp.w	r3, #4294967295
 8001a34:	d003      	beq.n	8001a3e <HAL_SPI_TransmitReceive+0x1d8>
      {
        errorcode = HAL_TIMEOUT;
 8001a36:	2303      	movs	r3, #3
 8001a38:	f887 302b 	strb.w	r3, [r7, #43]	; 0x2b
        goto error;
 8001a3c:	e0a7      	b.n	8001b8e <HAL_SPI_TransmitReceive+0x328>
    while ((hspi->TxXferCount > 0U) || (hspi->RxXferCount > 0U))
 8001a3e:	68fb      	ldr	r3, [r7, #12]
 8001a40:	8edb      	ldrh	r3, [r3, #54]	; 0x36
 8001a42:	b29b      	uxth	r3, r3
 8001a44:	2b00      	cmp	r3, #0
 8001a46:	d1a6      	bne.n	8001996 <HAL_SPI_TransmitReceive+0x130>
 8001a48:	68fb      	ldr	r3, [r7, #12]
 8001a4a:	8fdb      	ldrh	r3, [r3, #62]	; 0x3e
 8001a4c:	b29b      	uxth	r3, r3
 8001a4e:	2b00      	cmp	r3, #0
 8001a50:	d1a1      	bne.n	8001996 <HAL_SPI_TransmitReceive+0x130>
 8001a52:	e07c      	b.n	8001b4e <HAL_SPI_TransmitReceive+0x2e8>
    }
  }
  /* Transmit and Receive data in 8 Bit mode */
  else
  {
    if ((hspi->Init.Mode == SPI_MODE_SLAVE) || (initial_TxXferCount == 0x01U))
 8001a54:	68fb      	ldr	r3, [r7, #12]
 8001a56:	685b      	ldr	r3, [r3, #4]
 8001a58:	2b00      	cmp	r3, #0
 8001a5a:	d002      	beq.n	8001a62 <HAL_SPI_TransmitReceive+0x1fc>
 8001a5c:	8b7b      	ldrh	r3, [r7, #26]
 8001a5e:	2b01      	cmp	r3, #1
 8001a60:	d16b      	bne.n	8001b3a <HAL_SPI_TransmitReceive+0x2d4>
    {
      *((__IO uint8_t *)&hspi->Instance->DR) = (*hspi->pTxBuffPtr);
 8001a62:	68fb      	ldr	r3, [r7, #12]
 8001a64:	6b1a      	ldr	r2, [r3, #48]	; 0x30
 8001a66:	68fb      	ldr	r3, [r7, #12]
 8001a68:	681b      	ldr	r3, [r3, #0]
 8001a6a:	330c      	adds	r3, #12
 8001a6c:	7812      	ldrb	r2, [r2, #0]
 8001a6e:	701a      	strb	r2, [r3, #0]
      hspi->pTxBuffPtr += sizeof(uint8_t);
 8001a70:	68fb      	ldr	r3, [r7, #12]
 8001a72:	6b1b      	ldr	r3, [r3, #48]	; 0x30
 8001a74:	1c5a      	adds	r2, r3, #1
 8001a76:	68fb      	ldr	r3, [r7, #12]
 8001a78:	631a      	str	r2, [r3, #48]	; 0x30
      hspi->TxXferCount--;
 8001a7a:	68fb      	ldr	r3, [r7, #12]
 8001a7c:	8edb      	ldrh	r3, [r3, #54]	; 0x36
 8001a7e:	b29b      	uxth	r3, r3
 8001a80:	3b01      	subs	r3, #1
 8001a82:	b29a      	uxth	r2, r3
 8001a84:	68fb      	ldr	r3, [r7, #12]
 8001a86:	86da      	strh	r2, [r3, #54]	; 0x36
    }
    while ((hspi->TxXferCount > 0U) || (hspi->RxXferCount > 0U))
 8001a88:	e057      	b.n	8001b3a <HAL_SPI_TransmitReceive+0x2d4>
    {
      /* Check TXE flag */
      if ((__HAL_SPI_GET_FLAG(hspi, SPI_FLAG_TXE)) && (hspi->TxXferCount > 0U) && (txallowed == 1U))
 8001a8a:	68fb      	ldr	r3, [r7, #12]
 8001a8c:	681b      	ldr	r3, [r3, #0]
 8001a8e:	689b      	ldr	r3, [r3, #8]
 8001a90:	f003 0302 	and.w	r3, r3, #2
 8001a94:	2b02      	cmp	r3, #2
 8001a96:	d11c      	bne.n	8001ad2 <HAL_SPI_TransmitReceive+0x26c>
 8001a98:	68fb      	ldr	r3, [r7, #12]
 8001a9a:	8edb      	ldrh	r3, [r3, #54]	; 0x36
 8001a9c:	b29b      	uxth	r3, r3
 8001a9e:	2b00      	cmp	r3, #0
 8001aa0:	d017      	beq.n	8001ad2 <HAL_SPI_TransmitReceive+0x26c>
 8001aa2:	6afb      	ldr	r3, [r7, #44]	; 0x2c
 8001aa4:	2b01      	cmp	r3, #1
 8001aa6:	d114      	bne.n	8001ad2 <HAL_SPI_TransmitReceive+0x26c>
      {
        *(__IO uint8_t *)&hspi->Instance->DR = (*hspi->pTxBuffPtr);
 8001aa8:	68fb      	ldr	r3, [r7, #12]
 8001aaa:	6b1a      	ldr	r2, [r3, #48]	; 0x30
 8001aac:	68fb      	ldr	r3, [r7, #12]
 8001aae:	681b      	ldr	r3, [r3, #0]
 8001ab0:	330c      	adds	r3, #12
 8001ab2:	7812      	ldrb	r2, [r2, #0]
 8001ab4:	701a      	strb	r2, [r3, #0]
        hspi->pTxBuffPtr++;
 8001ab6:	68fb      	ldr	r3, [r7, #12]
 8001ab8:	6b1b      	ldr	r3, [r3, #48]	; 0x30
 8001aba:	1c5a      	adds	r2, r3, #1
 8001abc:	68fb      	ldr	r3, [r7, #12]
 8001abe:	631a      	str	r2, [r3, #48]	; 0x30
        hspi->TxXferCount--;
 8001ac0:	68fb      	ldr	r3, [r7, #12]
 8001ac2:	8edb      	ldrh	r3, [r3, #54]	; 0x36
 8001ac4:	b29b      	uxth	r3, r3
 8001ac6:	3b01      	subs	r3, #1
 8001ac8:	b29a      	uxth	r2, r3
 8001aca:	68fb      	ldr	r3, [r7, #12]
 8001acc:	86da      	strh	r2, [r3, #54]	; 0x36
        /* Next Data is a reception (Rx). Tx not allowed */
        txallowed = 0U;
 8001ace:	2300      	movs	r3, #0
 8001ad0:	62fb      	str	r3, [r7, #44]	; 0x2c
        }
#endif /* USE_SPI_CRC */
      }

      /* Wait until RXNE flag is reset */
      if ((__HAL_SPI_GET_FLAG(hspi, SPI_FLAG_RXNE)) && (hspi->RxXferCount > 0U))
 8001ad2:	68fb      	ldr	r3, [r7, #12]
 8001ad4:	681b      	ldr	r3, [r3, #0]
 8001ad6:	689b      	ldr	r3, [r3, #8]
 8001ad8:	f003 0301 	and.w	r3, r3, #1
 8001adc:	2b01      	cmp	r3, #1
 8001ade:	d119      	bne.n	8001b14 <HAL_SPI_TransmitReceive+0x2ae>
 8001ae0:	68fb      	ldr	r3, [r7, #12]
 8001ae2:	8fdb      	ldrh	r3, [r3, #62]	; 0x3e
 8001ae4:	b29b      	uxth	r3, r3
 8001ae6:	2b00      	cmp	r3, #0
 8001ae8:	d014      	beq.n	8001b14 <HAL_SPI_TransmitReceive+0x2ae>
      {
        (*(uint8_t *)hspi->pRxBuffPtr) = hspi->Instance->DR;
 8001aea:	68fb      	ldr	r3, [r7, #12]
 8001aec:	681b      	ldr	r3, [r3, #0]
 8001aee:	68da      	ldr	r2, [r3, #12]
 8001af0:	68fb      	ldr	r3, [r7, #12]
 8001af2:	6b9b      	ldr	r3, [r3, #56]	; 0x38
 8001af4:	b2d2      	uxtb	r2, r2
 8001af6:	701a      	strb	r2, [r3, #0]
        hspi->pRxBuffPtr++;
 8001af8:	68fb      	ldr	r3, [r7, #12]
 8001afa:	6b9b      	ldr	r3, [r3, #56]	; 0x38
 8001afc:	1c5a      	adds	r2, r3, #1
 8001afe:	68fb      	ldr	r3, [r7, #12]
 8001b00:	639a      	str	r2, [r3, #56]	; 0x38
        hspi->RxXferCount--;
 8001b02:	68fb      	ldr	r3, [r7, #12]
 8001b04:	8fdb      	ldrh	r3, [r3, #62]	; 0x3e
 8001b06:	b29b      	uxth	r3, r3
 8001b08:	3b01      	subs	r3, #1
 8001b0a:	b29a      	uxth	r2, r3
 8001b0c:	68fb      	ldr	r3, [r7, #12]
 8001b0e:	87da      	strh	r2, [r3, #62]	; 0x3e
        /* Next Data is a Transmission (Tx). Tx is allowed */
        txallowed = 1U;
 8001b10:	2301      	movs	r3, #1
 8001b12:	62fb      	str	r3, [r7, #44]	; 0x2c
      }
      if ((((HAL_GetTick() - tickstart) >=  Timeout) && ((Timeout != HAL_MAX_DELAY))) || (Timeout == 0U))
 8001b14:	f7fe ff2c 	bl	8000970 <HAL_GetTick>
 8001b18:	4602      	mov	r2, r0
 8001b1a:	6a7b      	ldr	r3, [r7, #36]	; 0x24
 8001b1c:	1ad3      	subs	r3, r2, r3
 8001b1e:	6bba      	ldr	r2, [r7, #56]	; 0x38
 8001b20:	429a      	cmp	r2, r3
 8001b22:	d803      	bhi.n	8001b2c <HAL_SPI_TransmitReceive+0x2c6>
 8001b24:	6bbb      	ldr	r3, [r7, #56]	; 0x38
 8001b26:	f1b3 3fff 	cmp.w	r3, #4294967295
 8001b2a:	d102      	bne.n	8001b32 <HAL_SPI_TransmitReceive+0x2cc>
 8001b2c:	6bbb      	ldr	r3, [r7, #56]	; 0x38
 8001b2e:	2b00      	cmp	r3, #0
 8001b30:	d103      	bne.n	8001b3a <HAL_SPI_TransmitReceive+0x2d4>
      {
        errorcode = HAL_TIMEOUT;
 8001b32:	2303      	movs	r3, #3
 8001b34:	f887 302b 	strb.w	r3, [r7, #43]	; 0x2b
        goto error;
 8001b38:	e029      	b.n	8001b8e <HAL_SPI_TransmitReceive+0x328>
    while ((hspi->TxXferCount > 0U) || (hspi->RxXferCount > 0U))
 8001b3a:	68fb      	ldr	r3, [r7, #12]
 8001b3c:	8edb      	ldrh	r3, [r3, #54]	; 0x36
 8001b3e:	b29b      	uxth	r3, r3
 8001b40:	2b00      	cmp	r3, #0
 8001b42:	d1a2      	bne.n	8001a8a <HAL_SPI_TransmitReceive+0x224>
 8001b44:	68fb      	ldr	r3, [r7, #12]
 8001b46:	8fdb      	ldrh	r3, [r3, #62]	; 0x3e
 8001b48:	b29b      	uxth	r3, r3
 8001b4a:	2b00      	cmp	r3, #0
 8001b4c:	d19d      	bne.n	8001a8a <HAL_SPI_TransmitReceive+0x224>
    errorcode = HAL_ERROR;
  }
#endif /* USE_SPI_CRC */

  /* Check the end of the transaction */
  if (SPI_EndRxTxTransaction(hspi, Timeout, tickstart) != HAL_OK)
 8001b4e:	6a7a      	ldr	r2, [r7, #36]	; 0x24
 8001b50:	6bb9      	ldr	r1, [r7, #56]	; 0x38
 8001b52:	68f8      	ldr	r0, [r7, #12]
 8001b54:	f000 f8b2 	bl	8001cbc <SPI_EndRxTxTransaction>
 8001b58:	4603      	mov	r3, r0
 8001b5a:	2b00      	cmp	r3, #0
 8001b5c:	d006      	beq.n	8001b6c <HAL_SPI_TransmitReceive+0x306>
  {
    errorcode = HAL_ERROR;
 8001b5e:	2301      	movs	r3, #1
 8001b60:	f887 302b 	strb.w	r3, [r7, #43]	; 0x2b
    hspi->ErrorCode = HAL_SPI_ERROR_FLAG;
 8001b64:	68fb      	ldr	r3, [r7, #12]
 8001b66:	2220      	movs	r2, #32
 8001b68:	655a      	str	r2, [r3, #84]	; 0x54
    goto error;
 8001b6a:	e010      	b.n	8001b8e <HAL_SPI_TransmitReceive+0x328>
  }

  /* Clear overrun flag in 2 Lines communication mode because received is not read */
  if (hspi->Init.Direction == SPI_DIRECTION_2LINES)
 8001b6c:	68fb      	ldr	r3, [r7, #12]
 8001b6e:	689b      	ldr	r3, [r3, #8]
 8001b70:	2b00      	cmp	r3, #0
 8001b72:	d10b      	bne.n	8001b8c <HAL_SPI_TransmitReceive+0x326>
  {
    __HAL_SPI_CLEAR_OVRFLAG(hspi);
 8001b74:	2300      	movs	r3, #0
 8001b76:	617b      	str	r3, [r7, #20]
 8001b78:	68fb      	ldr	r3, [r7, #12]
 8001b7a:	681b      	ldr	r3, [r3, #0]
 8001b7c:	68db      	ldr	r3, [r3, #12]
 8001b7e:	617b      	str	r3, [r7, #20]
 8001b80:	68fb      	ldr	r3, [r7, #12]
 8001b82:	681b      	ldr	r3, [r3, #0]
 8001b84:	689b      	ldr	r3, [r3, #8]
 8001b86:	617b      	str	r3, [r7, #20]
 8001b88:	697b      	ldr	r3, [r7, #20]
 8001b8a:	e000      	b.n	8001b8e <HAL_SPI_TransmitReceive+0x328>
  }

error :
 8001b8c:	bf00      	nop
  hspi->State = HAL_SPI_STATE_READY;
 8001b8e:	68fb      	ldr	r3, [r7, #12]
 8001b90:	2201      	movs	r2, #1
 8001b92:	f883 2051 	strb.w	r2, [r3, #81]	; 0x51
  __HAL_UNLOCK(hspi);
 8001b96:	68fb      	ldr	r3, [r7, #12]
 8001b98:	2200      	movs	r2, #0
 8001b9a:	f883 2050 	strb.w	r2, [r3, #80]	; 0x50
  return errorcode;
 8001b9e:	f897 302b 	ldrb.w	r3, [r7, #43]	; 0x2b
}
 8001ba2:	4618      	mov	r0, r3
 8001ba4:	3730      	adds	r7, #48	; 0x30
 8001ba6:	46bd      	mov	sp, r7
 8001ba8:	bd80      	pop	{r7, pc}
	...

08001bac <SPI_WaitFlagStateUntilTimeout>:
  * @param  Tickstart tick start value
  * @retval HAL status
  */
static HAL_StatusTypeDef SPI_WaitFlagStateUntilTimeout(SPI_HandleTypeDef *hspi, uint32_t Flag, FlagStatus State,
                                                       uint32_t Timeout, uint32_t Tickstart)
{
 8001bac:	b580      	push	{r7, lr}
 8001bae:	b088      	sub	sp, #32
 8001bb0:	af00      	add	r7, sp, #0
 8001bb2:	60f8      	str	r0, [r7, #12]
 8001bb4:	60b9      	str	r1, [r7, #8]
 8001bb6:	603b      	str	r3, [r7, #0]
 8001bb8:	4613      	mov	r3, r2
 8001bba:	71fb      	strb	r3, [r7, #7]
  __IO uint32_t count;
  uint32_t tmp_timeout;
  uint32_t tmp_tickstart;

  /* Adjust Timeout value  in case of end of transfer */
  tmp_timeout   = Timeout - (HAL_GetTick() - Tickstart);
 8001bbc:	f7fe fed8 	bl	8000970 <HAL_GetTick>
 8001bc0:	4602      	mov	r2, r0
 8001bc2:	6abb      	ldr	r3, [r7, #40]	; 0x28
 8001bc4:	1a9b      	subs	r3, r3, r2
 8001bc6:	683a      	ldr	r2, [r7, #0]
 8001bc8:	4413      	add	r3, r2
 8001bca:	61fb      	str	r3, [r7, #28]
  tmp_tickstart = HAL_GetTick();
 8001bcc:	f7fe fed0 	bl	8000970 <HAL_GetTick>
 8001bd0:	61b8      	str	r0, [r7, #24]

  /* Calculate Timeout based on a software loop to avoid blocking issue if Systick is disabled */
  count = tmp_timeout * ((SystemCoreClock * 32U) >> 20U);
 8001bd2:	4b39      	ldr	r3, [pc, #228]	; (8001cb8 <SPI_WaitFlagStateUntilTimeout+0x10c>)
 8001bd4:	681b      	ldr	r3, [r3, #0]
 8001bd6:	015b      	lsls	r3, r3, #5
 8001bd8:	0d1b      	lsrs	r3, r3, #20
 8001bda:	69fa      	ldr	r2, [r7, #28]
 8001bdc:	fb02 f303 	mul.w	r3, r2, r3
 8001be0:	617b      	str	r3, [r7, #20]

  while ((__HAL_SPI_GET_FLAG(hspi, Flag) ? SET : RESET) != State)
 8001be2:	e054      	b.n	8001c8e <SPI_WaitFlagStateUntilTimeout+0xe2>
  {
    if (Timeout != HAL_MAX_DELAY)
 8001be4:	683b      	ldr	r3, [r7, #0]
 8001be6:	f1b3 3fff 	cmp.w	r3, #4294967295
 8001bea:	d050      	beq.n	8001c8e <SPI_WaitFlagStateUntilTimeout+0xe2>
    {
      if (((HAL_GetTick() - tmp_tickstart) >= tmp_timeout) || (tmp_timeout == 0U))
 8001bec:	f7fe fec0 	bl	8000970 <HAL_GetTick>
 8001bf0:	4602      	mov	r2, r0
 8001bf2:	69bb      	ldr	r3, [r7, #24]
 8001bf4:	1ad3      	subs	r3, r2, r3
 8001bf6:	69fa      	ldr	r2, [r7, #28]
 8001bf8:	429a      	cmp	r2, r3
 8001bfa:	d902      	bls.n	8001c02 <SPI_WaitFlagStateUntilTimeout+0x56>
 8001bfc:	69fb      	ldr	r3, [r7, #28]
 8001bfe:	2b00      	cmp	r3, #0
 8001c00:	d13d      	bne.n	8001c7e <SPI_WaitFlagStateUntilTimeout+0xd2>
        /* Disable the SPI and reset the CRC: the CRC value should be cleared
           on both master and slave sides in order to resynchronize the master
           and slave for their respective CRC calculation */

        /* Disable TXE, RXNE and ERR interrupts for the interrupt process */
        __HAL_SPI_DISABLE_IT(hspi, (SPI_IT_TXE | SPI_IT_RXNE | SPI_IT_ERR));
 8001c02:	68fb      	ldr	r3, [r7, #12]
 8001c04:	681b      	ldr	r3, [r3, #0]
 8001c06:	685a      	ldr	r2, [r3, #4]
 8001c08:	68fb      	ldr	r3, [r7, #12]
 8001c0a:	681b      	ldr	r3, [r3, #0]
 8001c0c:	f022 02e0 	bic.w	r2, r2, #224	; 0xe0
 8001c10:	605a      	str	r2, [r3, #4]

        if ((hspi->Init.Mode == SPI_MODE_MASTER) && ((hspi->Init.Direction == SPI_DIRECTION_1LINE)
 8001c12:	68fb      	ldr	r3, [r7, #12]
 8001c14:	685b      	ldr	r3, [r3, #4]
 8001c16:	f5b3 7f82 	cmp.w	r3, #260	; 0x104
 8001c1a:	d111      	bne.n	8001c40 <SPI_WaitFlagStateUntilTimeout+0x94>
 8001c1c:	68fb      	ldr	r3, [r7, #12]
 8001c1e:	689b      	ldr	r3, [r3, #8]
 8001c20:	f5b3 4f00 	cmp.w	r3, #32768	; 0x8000
 8001c24:	d004      	beq.n	8001c30 <SPI_WaitFlagStateUntilTimeout+0x84>
                                                     || (hspi->Init.Direction == SPI_DIRECTION_2LINES_RXONLY)))
 8001c26:	68fb      	ldr	r3, [r7, #12]
 8001c28:	689b      	ldr	r3, [r3, #8]
 8001c2a:	f5b3 6f80 	cmp.w	r3, #1024	; 0x400
 8001c2e:	d107      	bne.n	8001c40 <SPI_WaitFlagStateUntilTimeout+0x94>
        {
          /* Disable SPI peripheral */
          __HAL_SPI_DISABLE(hspi);
 8001c30:	68fb      	ldr	r3, [r7, #12]
 8001c32:	681b      	ldr	r3, [r3, #0]
 8001c34:	681a      	ldr	r2, [r3, #0]
 8001c36:	68fb      	ldr	r3, [r7, #12]
 8001c38:	681b      	ldr	r3, [r3, #0]
 8001c3a:	f022 0240 	bic.w	r2, r2, #64	; 0x40
 8001c3e:	601a      	str	r2, [r3, #0]
        }

        /* Reset CRC Calculation */
        if (hspi->Init.CRCCalculation == SPI_CRCCALCULATION_ENABLE)
 8001c40:	68fb      	ldr	r3, [r7, #12]
 8001c42:	6a9b      	ldr	r3, [r3, #40]	; 0x28
 8001c44:	f5b3 5f00 	cmp.w	r3, #8192	; 0x2000
 8001c48:	d10f      	bne.n	8001c6a <SPI_WaitFlagStateUntilTimeout+0xbe>
        {
          SPI_RESET_CRC(hspi);
 8001c4a:	68fb      	ldr	r3, [r7, #12]
 8001c4c:	681b      	ldr	r3, [r3, #0]
 8001c4e:	681a      	ldr	r2, [r3, #0]
 8001c50:	68fb      	ldr	r3, [r7, #12]
 8001c52:	681b      	ldr	r3, [r3, #0]
 8001c54:	f422 5200 	bic.w	r2, r2, #8192	; 0x2000
 8001c58:	601a      	str	r2, [r3, #0]
 8001c5a:	68fb      	ldr	r3, [r7, #12]
 8001c5c:	681b      	ldr	r3, [r3, #0]
 8001c5e:	681a      	ldr	r2, [r3, #0]
 8001c60:	68fb      	ldr	r3, [r7, #12]
 8001c62:	681b      	ldr	r3, [r3, #0]
 8001c64:	f442 5200 	orr.w	r2, r2, #8192	; 0x2000
 8001c68:	601a      	str	r2, [r3, #0]
        }

        hspi->State = HAL_SPI_STATE_READY;
 8001c6a:	68fb      	ldr	r3, [r7, #12]
 8001c6c:	2201      	movs	r2, #1
 8001c6e:	f883 2051 	strb.w	r2, [r3, #81]	; 0x51

        /* Process Unlocked */
        __HAL_UNLOCK(hspi);
 8001c72:	68fb      	ldr	r3, [r7, #12]
 8001c74:	2200      	movs	r2, #0
 8001c76:	f883 2050 	strb.w	r2, [r3, #80]	; 0x50

        return HAL_TIMEOUT;
 8001c7a:	2303      	movs	r3, #3
 8001c7c:	e017      	b.n	8001cae <SPI_WaitFlagStateUntilTimeout+0x102>
      }
      /* If Systick is disabled or not incremented, deactivate timeout to go in disable loop procedure */
      if (count == 0U)
 8001c7e:	697b      	ldr	r3, [r7, #20]
 8001c80:	2b00      	cmp	r3, #0
 8001c82:	d101      	bne.n	8001c88 <SPI_WaitFlagStateUntilTimeout+0xdc>
      {
        tmp_timeout = 0U;
 8001c84:	2300      	movs	r3, #0
 8001c86:	61fb      	str	r3, [r7, #28]
      }
      count--;
 8001c88:	697b      	ldr	r3, [r7, #20]
 8001c8a:	3b01      	subs	r3, #1
 8001c8c:	617b      	str	r3, [r7, #20]
  while ((__HAL_SPI_GET_FLAG(hspi, Flag) ? SET : RESET) != State)
 8001c8e:	68fb      	ldr	r3, [r7, #12]
 8001c90:	681b      	ldr	r3, [r3, #0]
 8001c92:	689a      	ldr	r2, [r3, #8]
 8001c94:	68bb      	ldr	r3, [r7, #8]
 8001c96:	4013      	ands	r3, r2
 8001c98:	68ba      	ldr	r2, [r7, #8]
 8001c9a:	429a      	cmp	r2, r3
 8001c9c:	bf0c      	ite	eq
 8001c9e:	2301      	moveq	r3, #1
 8001ca0:	2300      	movne	r3, #0
 8001ca2:	b2db      	uxtb	r3, r3
 8001ca4:	461a      	mov	r2, r3
 8001ca6:	79fb      	ldrb	r3, [r7, #7]
 8001ca8:	429a      	cmp	r2, r3
 8001caa:	d19b      	bne.n	8001be4 <SPI_WaitFlagStateUntilTimeout+0x38>
    }
  }

  return HAL_OK;
 8001cac:	2300      	movs	r3, #0
}
 8001cae:	4618      	mov	r0, r3
 8001cb0:	3720      	adds	r7, #32
 8001cb2:	46bd      	mov	sp, r7
 8001cb4:	bd80      	pop	{r7, pc}
 8001cb6:	bf00      	nop
 8001cb8:	20000004 	.word	0x20000004

08001cbc <SPI_EndRxTxTransaction>:
  * @param  Timeout Timeout duration
  * @param  Tickstart tick start value
  * @retval HAL status
  */
static HAL_StatusTypeDef SPI_EndRxTxTransaction(SPI_HandleTypeDef *hspi, uint32_t Timeout, uint32_t Tickstart)
{
 8001cbc:	b580      	push	{r7, lr}
 8001cbe:	b088      	sub	sp, #32
 8001cc0:	af02      	add	r7, sp, #8
 8001cc2:	60f8      	str	r0, [r7, #12]
 8001cc4:	60b9      	str	r1, [r7, #8]
 8001cc6:	607a      	str	r2, [r7, #4]
  /* Timeout in µs */
  __IO uint32_t count = SPI_BSY_FLAG_WORKAROUND_TIMEOUT * (SystemCoreClock / 24U / 1000000U);
 8001cc8:	4b1b      	ldr	r3, [pc, #108]	; (8001d38 <SPI_EndRxTxTransaction+0x7c>)
 8001cca:	681b      	ldr	r3, [r3, #0]
 8001ccc:	4a1b      	ldr	r2, [pc, #108]	; (8001d3c <SPI_EndRxTxTransaction+0x80>)
 8001cce:	fba2 2303 	umull	r2, r3, r2, r3
 8001cd2:	0d5b      	lsrs	r3, r3, #21
 8001cd4:	f44f 727a 	mov.w	r2, #1000	; 0x3e8
 8001cd8:	fb02 f303 	mul.w	r3, r2, r3
 8001cdc:	617b      	str	r3, [r7, #20]
  /* Erratasheet: BSY bit may stay high at the end of a data transfer in Slave mode */
  if (hspi->Init.Mode == SPI_MODE_MASTER)
 8001cde:	68fb      	ldr	r3, [r7, #12]
 8001ce0:	685b      	ldr	r3, [r3, #4]
 8001ce2:	f5b3 7f82 	cmp.w	r3, #260	; 0x104
 8001ce6:	d112      	bne.n	8001d0e <SPI_EndRxTxTransaction+0x52>
  {
    /* Control the BSY flag */
    if (SPI_WaitFlagStateUntilTimeout(hspi, SPI_FLAG_BSY, RESET, Timeout, Tickstart) != HAL_OK)
 8001ce8:	687b      	ldr	r3, [r7, #4]
 8001cea:	9300      	str	r3, [sp, #0]
 8001cec:	68bb      	ldr	r3, [r7, #8]
 8001cee:	2200      	movs	r2, #0
 8001cf0:	2180      	movs	r1, #128	; 0x80
 8001cf2:	68f8      	ldr	r0, [r7, #12]
 8001cf4:	f7ff ff5a 	bl	8001bac <SPI_WaitFlagStateUntilTimeout>
 8001cf8:	4603      	mov	r3, r0
 8001cfa:	2b00      	cmp	r3, #0
 8001cfc:	d016      	beq.n	8001d2c <SPI_EndRxTxTransaction+0x70>
    {
      SET_BIT(hspi->ErrorCode, HAL_SPI_ERROR_FLAG);
 8001cfe:	68fb      	ldr	r3, [r7, #12]
 8001d00:	6d5b      	ldr	r3, [r3, #84]	; 0x54
 8001d02:	f043 0220 	orr.w	r2, r3, #32
 8001d06:	68fb      	ldr	r3, [r7, #12]
 8001d08:	655a      	str	r2, [r3, #84]	; 0x54
      return HAL_TIMEOUT;
 8001d0a:	2303      	movs	r3, #3
 8001d0c:	e00f      	b.n	8001d2e <SPI_EndRxTxTransaction+0x72>
    * User have to calculate the timeout value to fit with the time of 1 byte transfer.
    * This time is directly link with the SPI clock from Master device.
    */
    do
    {
      if (count == 0U)
 8001d0e:	697b      	ldr	r3, [r7, #20]
 8001d10:	2b00      	cmp	r3, #0
 8001d12:	d00a      	beq.n	8001d2a <SPI_EndRxTxTransaction+0x6e>
      {
        break;
      }
      count--;
 8001d14:	697b      	ldr	r3, [r7, #20]
 8001d16:	3b01      	subs	r3, #1
 8001d18:	617b      	str	r3, [r7, #20]
    } while (__HAL_SPI_GET_FLAG(hspi, SPI_FLAG_BSY) != RESET);
 8001d1a:	68fb      	ldr	r3, [r7, #12]
 8001d1c:	681b      	ldr	r3, [r3, #0]
 8001d1e:	689b      	ldr	r3, [r3, #8]
 8001d20:	f003 0380 	and.w	r3, r3, #128	; 0x80
 8001d24:	2b80      	cmp	r3, #128	; 0x80
 8001d26:	d0f2      	beq.n	8001d0e <SPI_EndRxTxTransaction+0x52>
 8001d28:	e000      	b.n	8001d2c <SPI_EndRxTxTransaction+0x70>
        break;
 8001d2a:	bf00      	nop
  }

  return HAL_OK;
 8001d2c:	2300      	movs	r3, #0
}
 8001d2e:	4618      	mov	r0, r3
 8001d30:	3718      	adds	r7, #24
 8001d32:	46bd      	mov	sp, r7
 8001d34:	bd80      	pop	{r7, pc}
 8001d36:	bf00      	nop
 8001d38:	20000004 	.word	0x20000004
 8001d3c:	165e9f81 	.word	0x165e9f81

08001d40 <__libc_init_array>:
 8001d40:	b570      	push	{r4, r5, r6, lr}
 8001d42:	4d0d      	ldr	r5, [pc, #52]	; (8001d78 <__libc_init_array+0x38>)
 8001d44:	4c0d      	ldr	r4, [pc, #52]	; (8001d7c <__libc_init_array+0x3c>)
 8001d46:	1b64      	subs	r4, r4, r5
 8001d48:	10a4      	asrs	r4, r4, #2
 8001d4a:	2600      	movs	r6, #0
 8001d4c:	42a6      	cmp	r6, r4
 8001d4e:	d109      	bne.n	8001d64 <__libc_init_array+0x24>
 8001d50:	4d0b      	ldr	r5, [pc, #44]	; (8001d80 <__libc_init_array+0x40>)
 8001d52:	4c0c      	ldr	r4, [pc, #48]	; (8001d84 <__libc_init_array+0x44>)
 8001d54:	f000 f820 	bl	8001d98 <_init>
 8001d58:	1b64      	subs	r4, r4, r5
 8001d5a:	10a4      	asrs	r4, r4, #2
 8001d5c:	2600      	movs	r6, #0
 8001d5e:	42a6      	cmp	r6, r4
 8001d60:	d105      	bne.n	8001d6e <__libc_init_array+0x2e>
 8001d62:	bd70      	pop	{r4, r5, r6, pc}
 8001d64:	f855 3b04 	ldr.w	r3, [r5], #4
 8001d68:	4798      	blx	r3
 8001d6a:	3601      	adds	r6, #1
 8001d6c:	e7ee      	b.n	8001d4c <__libc_init_array+0xc>
 8001d6e:	f855 3b04 	ldr.w	r3, [r5], #4
 8001d72:	4798      	blx	r3
 8001d74:	3601      	adds	r6, #1
 8001d76:	e7f2      	b.n	8001d5e <__libc_init_array+0x1e>
 8001d78:	08001dc8 	.word	0x08001dc8
 8001d7c:	08001dc8 	.word	0x08001dc8
 8001d80:	08001dc8 	.word	0x08001dc8
 8001d84:	08001dcc 	.word	0x08001dcc

08001d88 <memset>:
 8001d88:	4402      	add	r2, r0
 8001d8a:	4603      	mov	r3, r0
 8001d8c:	4293      	cmp	r3, r2
 8001d8e:	d100      	bne.n	8001d92 <memset+0xa>
 8001d90:	4770      	bx	lr
 8001d92:	f803 1b01 	strb.w	r1, [r3], #1
 8001d96:	e7f9      	b.n	8001d8c <memset+0x4>

08001d98 <_init>:
 8001d98:	b5f8      	push	{r3, r4, r5, r6, r7, lr}
 8001d9a:	bf00      	nop
 8001d9c:	bcf8      	pop	{r3, r4, r5, r6, r7}
 8001d9e:	bc08      	pop	{r3}
 8001da0:	469e      	mov	lr, r3
 8001da2:	4770      	bx	lr

08001da4 <_fini>:
 8001da4:	b5f8      	push	{r3, r4, r5, r6, r7, lr}
 8001da6:	bf00      	nop
 8001da8:	bcf8      	pop	{r3, r4, r5, r6, r7}
 8001daa:	bc08      	pop	{r3}
 8001dac:	469e      	mov	lr, r3
 8001dae:	4770      	bx	lr
