
MS_LW_4.3.elf:     file format elf32-littlearm

Sections:
Idx Name          Size      VMA       LMA       File off  Algn
  0 .isr_vector   00000188  08000000  08000000  00010000  2**0
                  CONTENTS, ALLOC, LOAD, READONLY, DATA
  1 .text         000020b0  08000188  08000188  00010188  2**2
                  CONTENTS, ALLOC, LOAD, READONLY, CODE
  2 .rodata       00000010  08002238  08002238  00012238  2**2
                  CONTENTS, ALLOC, LOAD, READONLY, DATA
  3 .ARM.extab    00000000  08002248  08002248  0002000c  2**0
                  CONTENTS
  4 .ARM          00000008  08002248  08002248  00012248  2**2
                  CONTENTS, ALLOC, LOAD, READONLY, DATA
  5 .preinit_array 00000000  08002250  08002250  0002000c  2**0
                  CONTENTS, ALLOC, LOAD, DATA
  6 .init_array   00000004  08002250  08002250  00012250  2**2
                  CONTENTS, ALLOC, LOAD, DATA
  7 .fini_array   00000004  08002254  08002254  00012254  2**2
                  CONTENTS, ALLOC, LOAD, DATA
  8 .data         0000000c  20000000  08002258  00020000  2**2
                  CONTENTS, ALLOC, LOAD, DATA
  9 .ccmram       00000000  10000000  10000000  0002000c  2**0
                  CONTENTS
 10 .bss          0000006c  2000000c  2000000c  0002000c  2**2
                  ALLOC
 11 ._user_heap_stack 00000600  20000078  20000078  0002000c  2**0
                  ALLOC
 12 .ARM.attributes 00000030  00000000  00000000  0002000c  2**0
                  CONTENTS, READONLY
 13 .debug_info   00006671  00000000  00000000  0002003c  2**0
                  CONTENTS, READONLY, DEBUGGING, OCTETS
 14 .debug_abbrev 000014ab  00000000  00000000  000266ad  2**0
                  CONTENTS, READONLY, DEBUGGING, OCTETS
 15 .debug_aranges 00000590  00000000  00000000  00027b58  2**3
                  CONTENTS, READONLY, DEBUGGING, OCTETS
 16 .debug_ranges 000004e8  00000000  00000000  000280e8  2**3
                  CONTENTS, READONLY, DEBUGGING, OCTETS
 17 .debug_macro  00020386  00000000  00000000  000285d0  2**0
                  CONTENTS, READONLY, DEBUGGING, OCTETS
 18 .debug_line   00006d1d  00000000  00000000  00048956  2**0
                  CONTENTS, READONLY, DEBUGGING, OCTETS
 19 .debug_str    000c8c28  00000000  00000000  0004f673  2**0
                  CONTENTS, READONLY, DEBUGGING, OCTETS
 20 .comment      00000050  00000000  00000000  0011829b  2**0
                  CONTENTS, READONLY
 21 .debug_frame  0000150c  00000000  00000000  001182ec  2**2
                  CONTENTS, READONLY, DEBUGGING, OCTETS

Disassembly of section .text:

08000188 <__do_global_dtors_aux>:
 8000188:	b510      	push	{r4, lr}
 800018a:	4c05      	ldr	r4, [pc, #20]	; (80001a0 <__do_global_dtors_aux+0x18>)
 800018c:	7823      	ldrb	r3, [r4, #0]
 800018e:	b933      	cbnz	r3, 800019e <__do_global_dtors_aux+0x16>
 8000190:	4b04      	ldr	r3, [pc, #16]	; (80001a4 <__do_global_dtors_aux+0x1c>)
 8000192:	b113      	cbz	r3, 800019a <__do_global_dtors_aux+0x12>
 8000194:	4804      	ldr	r0, [pc, #16]	; (80001a8 <__do_global_dtors_aux+0x20>)
 8000196:	f3af 8000 	nop.w
 800019a:	2301      	movs	r3, #1
 800019c:	7023      	strb	r3, [r4, #0]
 800019e:	bd10      	pop	{r4, pc}
 80001a0:	2000000c 	.word	0x2000000c
 80001a4:	00000000 	.word	0x00000000
 80001a8:	08002220 	.word	0x08002220

080001ac <frame_dummy>:
 80001ac:	b508      	push	{r3, lr}
 80001ae:	4b03      	ldr	r3, [pc, #12]	; (80001bc <frame_dummy+0x10>)
 80001b0:	b11b      	cbz	r3, 80001ba <frame_dummy+0xe>
 80001b2:	4903      	ldr	r1, [pc, #12]	; (80001c0 <frame_dummy+0x14>)
 80001b4:	4803      	ldr	r0, [pc, #12]	; (80001c4 <frame_dummy+0x18>)
 80001b6:	f3af 8000 	nop.w
 80001ba:	bd08      	pop	{r3, pc}
 80001bc:	00000000 	.word	0x00000000
 80001c0:	20000010 	.word	0x20000010
 80001c4:	08002220 	.word	0x08002220

080001c8 <__aeabi_uldivmod>:
 80001c8:	b953      	cbnz	r3, 80001e0 <__aeabi_uldivmod+0x18>
 80001ca:	b94a      	cbnz	r2, 80001e0 <__aeabi_uldivmod+0x18>
 80001cc:	2900      	cmp	r1, #0
 80001ce:	bf08      	it	eq
 80001d0:	2800      	cmpeq	r0, #0
 80001d2:	bf1c      	itt	ne
 80001d4:	f04f 31ff 	movne.w	r1, #4294967295
 80001d8:	f04f 30ff 	movne.w	r0, #4294967295
 80001dc:	f000 b974 	b.w	80004c8 <__aeabi_idiv0>
 80001e0:	f1ad 0c08 	sub.w	ip, sp, #8
 80001e4:	e96d ce04 	strd	ip, lr, [sp, #-16]!
 80001e8:	f000 f806 	bl	80001f8 <__udivmoddi4>
 80001ec:	f8dd e004 	ldr.w	lr, [sp, #4]
 80001f0:	e9dd 2302 	ldrd	r2, r3, [sp, #8]
 80001f4:	b004      	add	sp, #16
 80001f6:	4770      	bx	lr

080001f8 <__udivmoddi4>:
 80001f8:	e92d 47f0 	stmdb	sp!, {r4, r5, r6, r7, r8, r9, sl, lr}
 80001fc:	9d08      	ldr	r5, [sp, #32]
 80001fe:	4604      	mov	r4, r0
 8000200:	468e      	mov	lr, r1
 8000202:	2b00      	cmp	r3, #0
 8000204:	d14d      	bne.n	80002a2 <__udivmoddi4+0xaa>
 8000206:	428a      	cmp	r2, r1
 8000208:	4694      	mov	ip, r2
 800020a:	d969      	bls.n	80002e0 <__udivmoddi4+0xe8>
 800020c:	fab2 f282 	clz	r2, r2
 8000210:	b152      	cbz	r2, 8000228 <__udivmoddi4+0x30>
 8000212:	fa01 f302 	lsl.w	r3, r1, r2
 8000216:	f1c2 0120 	rsb	r1, r2, #32
 800021a:	fa20 f101 	lsr.w	r1, r0, r1
 800021e:	fa0c fc02 	lsl.w	ip, ip, r2
 8000222:	ea41 0e03 	orr.w	lr, r1, r3
 8000226:	4094      	lsls	r4, r2
 8000228:	ea4f 481c 	mov.w	r8, ip, lsr #16
 800022c:	0c21      	lsrs	r1, r4, #16
 800022e:	fbbe f6f8 	udiv	r6, lr, r8
 8000232:	fa1f f78c 	uxth.w	r7, ip
 8000236:	fb08 e316 	mls	r3, r8, r6, lr
 800023a:	ea41 4303 	orr.w	r3, r1, r3, lsl #16
 800023e:	fb06 f107 	mul.w	r1, r6, r7
 8000242:	4299      	cmp	r1, r3
 8000244:	d90a      	bls.n	800025c <__udivmoddi4+0x64>
 8000246:	eb1c 0303 	adds.w	r3, ip, r3
 800024a:	f106 30ff 	add.w	r0, r6, #4294967295
 800024e:	f080 811f 	bcs.w	8000490 <__udivmoddi4+0x298>
 8000252:	4299      	cmp	r1, r3
 8000254:	f240 811c 	bls.w	8000490 <__udivmoddi4+0x298>
 8000258:	3e02      	subs	r6, #2
 800025a:	4463      	add	r3, ip
 800025c:	1a5b      	subs	r3, r3, r1
 800025e:	b2a4      	uxth	r4, r4
 8000260:	fbb3 f0f8 	udiv	r0, r3, r8
 8000264:	fb08 3310 	mls	r3, r8, r0, r3
 8000268:	ea44 4403 	orr.w	r4, r4, r3, lsl #16
 800026c:	fb00 f707 	mul.w	r7, r0, r7
 8000270:	42a7      	cmp	r7, r4
 8000272:	d90a      	bls.n	800028a <__udivmoddi4+0x92>
 8000274:	eb1c 0404 	adds.w	r4, ip, r4
 8000278:	f100 33ff 	add.w	r3, r0, #4294967295
 800027c:	f080 810a 	bcs.w	8000494 <__udivmoddi4+0x29c>
 8000280:	42a7      	cmp	r7, r4
 8000282:	f240 8107 	bls.w	8000494 <__udivmoddi4+0x29c>
 8000286:	4464      	add	r4, ip
 8000288:	3802      	subs	r0, #2
 800028a:	ea40 4006 	orr.w	r0, r0, r6, lsl #16
 800028e:	1be4      	subs	r4, r4, r7
 8000290:	2600      	movs	r6, #0
 8000292:	b11d      	cbz	r5, 800029c <__udivmoddi4+0xa4>
 8000294:	40d4      	lsrs	r4, r2
 8000296:	2300      	movs	r3, #0
 8000298:	e9c5 4300 	strd	r4, r3, [r5]
 800029c:	4631      	mov	r1, r6
 800029e:	e8bd 87f0 	ldmia.w	sp!, {r4, r5, r6, r7, r8, r9, sl, pc}
 80002a2:	428b      	cmp	r3, r1
 80002a4:	d909      	bls.n	80002ba <__udivmoddi4+0xc2>
 80002a6:	2d00      	cmp	r5, #0
 80002a8:	f000 80ef 	beq.w	800048a <__udivmoddi4+0x292>
 80002ac:	2600      	movs	r6, #0
 80002ae:	e9c5 0100 	strd	r0, r1, [r5]
 80002b2:	4630      	mov	r0, r6
 80002b4:	4631      	mov	r1, r6
 80002b6:	e8bd 87f0 	ldmia.w	sp!, {r4, r5, r6, r7, r8, r9, sl, pc}
 80002ba:	fab3 f683 	clz	r6, r3
 80002be:	2e00      	cmp	r6, #0
 80002c0:	d14a      	bne.n	8000358 <__udivmoddi4+0x160>
 80002c2:	428b      	cmp	r3, r1
 80002c4:	d302      	bcc.n	80002cc <__udivmoddi4+0xd4>
 80002c6:	4282      	cmp	r2, r0
 80002c8:	f200 80f9 	bhi.w	80004be <__udivmoddi4+0x2c6>
 80002cc:	1a84      	subs	r4, r0, r2
 80002ce:	eb61 0303 	sbc.w	r3, r1, r3
 80002d2:	2001      	movs	r0, #1
 80002d4:	469e      	mov	lr, r3
 80002d6:	2d00      	cmp	r5, #0
 80002d8:	d0e0      	beq.n	800029c <__udivmoddi4+0xa4>
 80002da:	e9c5 4e00 	strd	r4, lr, [r5]
 80002de:	e7dd      	b.n	800029c <__udivmoddi4+0xa4>
 80002e0:	b902      	cbnz	r2, 80002e4 <__udivmoddi4+0xec>
 80002e2:	deff      	udf	#255	; 0xff
 80002e4:	fab2 f282 	clz	r2, r2
 80002e8:	2a00      	cmp	r2, #0
 80002ea:	f040 8092 	bne.w	8000412 <__udivmoddi4+0x21a>
 80002ee:	eba1 010c 	sub.w	r1, r1, ip
 80002f2:	ea4f 471c 	mov.w	r7, ip, lsr #16
 80002f6:	fa1f fe8c 	uxth.w	lr, ip
 80002fa:	2601      	movs	r6, #1
 80002fc:	0c20      	lsrs	r0, r4, #16
 80002fe:	fbb1 f3f7 	udiv	r3, r1, r7
 8000302:	fb07 1113 	mls	r1, r7, r3, r1
 8000306:	ea40 4101 	orr.w	r1, r0, r1, lsl #16
 800030a:	fb0e f003 	mul.w	r0, lr, r3
 800030e:	4288      	cmp	r0, r1
 8000310:	d908      	bls.n	8000324 <__udivmoddi4+0x12c>
 8000312:	eb1c 0101 	adds.w	r1, ip, r1
 8000316:	f103 38ff 	add.w	r8, r3, #4294967295
 800031a:	d202      	bcs.n	8000322 <__udivmoddi4+0x12a>
 800031c:	4288      	cmp	r0, r1
 800031e:	f200 80cb 	bhi.w	80004b8 <__udivmoddi4+0x2c0>
 8000322:	4643      	mov	r3, r8
 8000324:	1a09      	subs	r1, r1, r0
 8000326:	b2a4      	uxth	r4, r4
 8000328:	fbb1 f0f7 	udiv	r0, r1, r7
 800032c:	fb07 1110 	mls	r1, r7, r0, r1
 8000330:	ea44 4401 	orr.w	r4, r4, r1, lsl #16
 8000334:	fb0e fe00 	mul.w	lr, lr, r0
 8000338:	45a6      	cmp	lr, r4
 800033a:	d908      	bls.n	800034e <__udivmoddi4+0x156>
 800033c:	eb1c 0404 	adds.w	r4, ip, r4
 8000340:	f100 31ff 	add.w	r1, r0, #4294967295
 8000344:	d202      	bcs.n	800034c <__udivmoddi4+0x154>
 8000346:	45a6      	cmp	lr, r4
 8000348:	f200 80bb 	bhi.w	80004c2 <__udivmoddi4+0x2ca>
 800034c:	4608      	mov	r0, r1
 800034e:	eba4 040e 	sub.w	r4, r4, lr
 8000352:	ea40 4003 	orr.w	r0, r0, r3, lsl #16
 8000356:	e79c      	b.n	8000292 <__udivmoddi4+0x9a>
 8000358:	f1c6 0720 	rsb	r7, r6, #32
 800035c:	40b3      	lsls	r3, r6
 800035e:	fa22 fc07 	lsr.w	ip, r2, r7
 8000362:	ea4c 0c03 	orr.w	ip, ip, r3
 8000366:	fa20 f407 	lsr.w	r4, r0, r7
 800036a:	fa01 f306 	lsl.w	r3, r1, r6
 800036e:	431c      	orrs	r4, r3
 8000370:	40f9      	lsrs	r1, r7
 8000372:	ea4f 491c 	mov.w	r9, ip, lsr #16
 8000376:	fa00 f306 	lsl.w	r3, r0, r6
 800037a:	fbb1 f8f9 	udiv	r8, r1, r9
 800037e:	0c20      	lsrs	r0, r4, #16
 8000380:	fa1f fe8c 	uxth.w	lr, ip
 8000384:	fb09 1118 	mls	r1, r9, r8, r1
 8000388:	ea40 4101 	orr.w	r1, r0, r1, lsl #16
 800038c:	fb08 f00e 	mul.w	r0, r8, lr
 8000390:	4288      	cmp	r0, r1
 8000392:	fa02 f206 	lsl.w	r2, r2, r6
 8000396:	d90b      	bls.n	80003b0 <__udivmoddi4+0x1b8>
 8000398:	eb1c 0101 	adds.w	r1, ip, r1
 800039c:	f108 3aff 	add.w	sl, r8, #4294967295
 80003a0:	f080 8088 	bcs.w	80004b4 <__udivmoddi4+0x2bc>
 80003a4:	4288      	cmp	r0, r1
 80003a6:	f240 8085 	bls.w	80004b4 <__udivmoddi4+0x2bc>
 80003aa:	f1a8 0802 	sub.w	r8, r8, #2
 80003ae:	4461      	add	r1, ip
 80003b0:	1a09      	subs	r1, r1, r0
 80003b2:	b2a4      	uxth	r4, r4
 80003b4:	fbb1 f0f9 	udiv	r0, r1, r9
 80003b8:	fb09 1110 	mls	r1, r9, r0, r1
 80003bc:	ea44 4101 	orr.w	r1, r4, r1, lsl #16
 80003c0:	fb00 fe0e 	mul.w	lr, r0, lr
 80003c4:	458e      	cmp	lr, r1
 80003c6:	d908      	bls.n	80003da <__udivmoddi4+0x1e2>
 80003c8:	eb1c 0101 	adds.w	r1, ip, r1
 80003cc:	f100 34ff 	add.w	r4, r0, #4294967295
 80003d0:	d26c      	bcs.n	80004ac <__udivmoddi4+0x2b4>
 80003d2:	458e      	cmp	lr, r1
 80003d4:	d96a      	bls.n	80004ac <__udivmoddi4+0x2b4>
 80003d6:	3802      	subs	r0, #2
 80003d8:	4461      	add	r1, ip
 80003da:	ea40 4008 	orr.w	r0, r0, r8, lsl #16
 80003de:	fba0 9402 	umull	r9, r4, r0, r2
 80003e2:	eba1 010e 	sub.w	r1, r1, lr
 80003e6:	42a1      	cmp	r1, r4
 80003e8:	46c8      	mov	r8, r9
 80003ea:	46a6      	mov	lr, r4
 80003ec:	d356      	bcc.n	800049c <__udivmoddi4+0x2a4>
 80003ee:	d053      	beq.n	8000498 <__udivmoddi4+0x2a0>
 80003f0:	b15d      	cbz	r5, 800040a <__udivmoddi4+0x212>
 80003f2:	ebb3 0208 	subs.w	r2, r3, r8
 80003f6:	eb61 010e 	sbc.w	r1, r1, lr
 80003fa:	fa01 f707 	lsl.w	r7, r1, r7
 80003fe:	fa22 f306 	lsr.w	r3, r2, r6
 8000402:	40f1      	lsrs	r1, r6
 8000404:	431f      	orrs	r7, r3
 8000406:	e9c5 7100 	strd	r7, r1, [r5]
 800040a:	2600      	movs	r6, #0
 800040c:	4631      	mov	r1, r6
 800040e:	e8bd 87f0 	ldmia.w	sp!, {r4, r5, r6, r7, r8, r9, sl, pc}
 8000412:	f1c2 0320 	rsb	r3, r2, #32
 8000416:	40d8      	lsrs	r0, r3
 8000418:	fa0c fc02 	lsl.w	ip, ip, r2
 800041c:	fa21 f303 	lsr.w	r3, r1, r3
 8000420:	4091      	lsls	r1, r2
 8000422:	4301      	orrs	r1, r0
 8000424:	ea4f 471c 	mov.w	r7, ip, lsr #16
 8000428:	fa1f fe8c 	uxth.w	lr, ip
 800042c:	fbb3 f0f7 	udiv	r0, r3, r7
 8000430:	fb07 3610 	mls	r6, r7, r0, r3
 8000434:	0c0b      	lsrs	r3, r1, #16
 8000436:	ea43 4306 	orr.w	r3, r3, r6, lsl #16
 800043a:	fb00 f60e 	mul.w	r6, r0, lr
 800043e:	429e      	cmp	r6, r3
 8000440:	fa04 f402 	lsl.w	r4, r4, r2
 8000444:	d908      	bls.n	8000458 <__udivmoddi4+0x260>
 8000446:	eb1c 0303 	adds.w	r3, ip, r3
 800044a:	f100 38ff 	add.w	r8, r0, #4294967295
 800044e:	d22f      	bcs.n	80004b0 <__udivmoddi4+0x2b8>
 8000450:	429e      	cmp	r6, r3
 8000452:	d92d      	bls.n	80004b0 <__udivmoddi4+0x2b8>
 8000454:	3802      	subs	r0, #2
 8000456:	4463      	add	r3, ip
 8000458:	1b9b      	subs	r3, r3, r6
 800045a:	b289      	uxth	r1, r1
 800045c:	fbb3 f6f7 	udiv	r6, r3, r7
 8000460:	fb07 3316 	mls	r3, r7, r6, r3
 8000464:	ea41 4103 	orr.w	r1, r1, r3, lsl #16
 8000468:	fb06 f30e 	mul.w	r3, r6, lr
 800046c:	428b      	cmp	r3, r1
 800046e:	d908      	bls.n	8000482 <__udivmoddi4+0x28a>
 8000470:	eb1c 0101 	adds.w	r1, ip, r1
 8000474:	f106 38ff 	add.w	r8, r6, #4294967295
 8000478:	d216      	bcs.n	80004a8 <__udivmoddi4+0x2b0>
 800047a:	428b      	cmp	r3, r1
 800047c:	d914      	bls.n	80004a8 <__udivmoddi4+0x2b0>
 800047e:	3e02      	subs	r6, #2
 8000480:	4461      	add	r1, ip
 8000482:	1ac9      	subs	r1, r1, r3
 8000484:	ea46 4600 	orr.w	r6, r6, r0, lsl #16
 8000488:	e738      	b.n	80002fc <__udivmoddi4+0x104>
 800048a:	462e      	mov	r6, r5
 800048c:	4628      	mov	r0, r5
 800048e:	e705      	b.n	800029c <__udivmoddi4+0xa4>
 8000490:	4606      	mov	r6, r0
 8000492:	e6e3      	b.n	800025c <__udivmoddi4+0x64>
 8000494:	4618      	mov	r0, r3
 8000496:	e6f8      	b.n	800028a <__udivmoddi4+0x92>
 8000498:	454b      	cmp	r3, r9
 800049a:	d2a9      	bcs.n	80003f0 <__udivmoddi4+0x1f8>
 800049c:	ebb9 0802 	subs.w	r8, r9, r2
 80004a0:	eb64 0e0c 	sbc.w	lr, r4, ip
 80004a4:	3801      	subs	r0, #1
 80004a6:	e7a3      	b.n	80003f0 <__udivmoddi4+0x1f8>
 80004a8:	4646      	mov	r6, r8
 80004aa:	e7ea      	b.n	8000482 <__udivmoddi4+0x28a>
 80004ac:	4620      	mov	r0, r4
 80004ae:	e794      	b.n	80003da <__udivmoddi4+0x1e2>
 80004b0:	4640      	mov	r0, r8
 80004b2:	e7d1      	b.n	8000458 <__udivmoddi4+0x260>
 80004b4:	46d0      	mov	r8, sl
 80004b6:	e77b      	b.n	80003b0 <__udivmoddi4+0x1b8>
 80004b8:	3b02      	subs	r3, #2
 80004ba:	4461      	add	r1, ip
 80004bc:	e732      	b.n	8000324 <__udivmoddi4+0x12c>
 80004be:	4630      	mov	r0, r6
 80004c0:	e709      	b.n	80002d6 <__udivmoddi4+0xde>
 80004c2:	4464      	add	r4, ip
 80004c4:	3802      	subs	r0, #2
 80004c6:	e742      	b.n	800034e <__udivmoddi4+0x156>

080004c8 <__aeabi_idiv0>:
 80004c8:	4770      	bx	lr
 80004ca:	bf00      	nop

080004cc <main>:
/**
  * @brief  The application entry point.
  * @retval int
  */
int main(void)
{
 80004cc:	b580      	push	{r7, lr}
 80004ce:	af00      	add	r7, sp, #0
  /* USER CODE END 1 */

  /* MCU Configuration--------------------------------------------------------*/

  /* Reset of all peripherals, Initializes the Flash interface and the Systick. */
  HAL_Init();
 80004d0:	f000 fa3c 	bl	800094c <HAL_Init>
  /* USER CODE BEGIN Init */

  /* USER CODE END Init */

  /* Configure the system clock */
  SystemClock_Config();
 80004d4:	f000 f830 	bl	8000538 <SystemClock_Config>
  /* USER CODE BEGIN SysInit */

  /* USER CODE END SysInit */

  /* Initialize all configured peripherals */
  MX_GPIO_Init();
 80004d8:	f000 f8ea 	bl	80006b0 <MX_GPIO_Init>
  MX_ADC1_Init();
 80004dc:	f000 f896 	bl	800060c <MX_ADC1_Init>
  while (1)
  {
    /* USER CODE END WHILE */

    /* USER CODE BEGIN 3 */
	  HAL_ADC_Start_IT(&hadc1);
 80004e0:	4812      	ldr	r0, [pc, #72]	; (800052c <main+0x60>)
 80004e2:	f000 fb0d 	bl	8000b00 <HAL_ADC_Start_IT>
	  HAL_Delay(2000);
 80004e6:	f44f 60fa 	mov.w	r0, #2000	; 0x7d0
 80004ea:	f000 faa1 	bl	8000a30 <HAL_Delay>
	  if(adc_value < 700){
 80004ee:	4b10      	ldr	r3, [pc, #64]	; (8000530 <main+0x64>)
 80004f0:	881b      	ldrh	r3, [r3, #0]
 80004f2:	f5b3 7f2f 	cmp.w	r3, #700	; 0x2bc
 80004f6:	d20c      	bcs.n	8000512 <main+0x46>
		  HAL_GPIO_WritePin(GPIOD, GPIO_PIN_13, GPIO_PIN_SET);
 80004f8:	2201      	movs	r2, #1
 80004fa:	f44f 5100 	mov.w	r1, #8192	; 0x2000
 80004fe:	480d      	ldr	r0, [pc, #52]	; (8000534 <main+0x68>)
 8000500:	f001 f9e4 	bl	80018cc <HAL_GPIO_WritePin>
		  HAL_GPIO_WritePin(GPIOD, GPIO_PIN_14, GPIO_PIN_RESET);
 8000504:	2200      	movs	r2, #0
 8000506:	f44f 4180 	mov.w	r1, #16384	; 0x4000
 800050a:	480a      	ldr	r0, [pc, #40]	; (8000534 <main+0x68>)
 800050c:	f001 f9de 	bl	80018cc <HAL_GPIO_WritePin>
 8000510:	e7e6      	b.n	80004e0 <main+0x14>
	  }
	  else{
		  HAL_GPIO_WritePin(GPIOD, GPIO_PIN_13, GPIO_PIN_SET);
 8000512:	2201      	movs	r2, #1
 8000514:	f44f 5100 	mov.w	r1, #8192	; 0x2000
 8000518:	4806      	ldr	r0, [pc, #24]	; (8000534 <main+0x68>)
 800051a:	f001 f9d7 	bl	80018cc <HAL_GPIO_WritePin>
		  HAL_GPIO_WritePin(GPIOD, GPIO_PIN_14, GPIO_PIN_SET);
 800051e:	2201      	movs	r2, #1
 8000520:	f44f 4180 	mov.w	r1, #16384	; 0x4000
 8000524:	4803      	ldr	r0, [pc, #12]	; (8000534 <main+0x68>)
 8000526:	f001 f9d1 	bl	80018cc <HAL_GPIO_WritePin>
	  HAL_ADC_Start_IT(&hadc1);
 800052a:	e7d9      	b.n	80004e0 <main+0x14>
 800052c:	2000002c 	.word	0x2000002c
 8000530:	20000028 	.word	0x20000028
 8000534:	40020c00 	.word	0x40020c00

08000538 <SystemClock_Config>:
/**
  * @brief System Clock Configuration
  * @retval None
  */
void SystemClock_Config(void)
{
 8000538:	b580      	push	{r7, lr}
 800053a:	b094      	sub	sp, #80	; 0x50
 800053c:	af00      	add	r7, sp, #0
  RCC_OscInitTypeDef RCC_OscInitStruct = {0};
 800053e:	f107 0320 	add.w	r3, r7, #32
 8000542:	2230      	movs	r2, #48	; 0x30
 8000544:	2100      	movs	r1, #0
 8000546:	4618      	mov	r0, r3
 8000548:	f001 fe62 	bl	8002210 <memset>
  RCC_ClkInitTypeDef RCC_ClkInitStruct = {0};
 800054c:	f107 030c 	add.w	r3, r7, #12
 8000550:	2200      	movs	r2, #0
 8000552:	601a      	str	r2, [r3, #0]
 8000554:	605a      	str	r2, [r3, #4]
 8000556:	609a      	str	r2, [r3, #8]
 8000558:	60da      	str	r2, [r3, #12]
 800055a:	611a      	str	r2, [r3, #16]

  /** Configure the main internal regulator output voltage
  */
  __HAL_RCC_PWR_CLK_ENABLE();
 800055c:	2300      	movs	r3, #0
 800055e:	60bb      	str	r3, [r7, #8]
 8000560:	4b28      	ldr	r3, [pc, #160]	; (8000604 <SystemClock_Config+0xcc>)
 8000562:	6c1b      	ldr	r3, [r3, #64]	; 0x40
 8000564:	4a27      	ldr	r2, [pc, #156]	; (8000604 <SystemClock_Config+0xcc>)
 8000566:	f043 5380 	orr.w	r3, r3, #268435456	; 0x10000000
 800056a:	6413      	str	r3, [r2, #64]	; 0x40
 800056c:	4b25      	ldr	r3, [pc, #148]	; (8000604 <SystemClock_Config+0xcc>)
 800056e:	6c1b      	ldr	r3, [r3, #64]	; 0x40
 8000570:	f003 5380 	and.w	r3, r3, #268435456	; 0x10000000
 8000574:	60bb      	str	r3, [r7, #8]
 8000576:	68bb      	ldr	r3, [r7, #8]
  __HAL_PWR_VOLTAGESCALING_CONFIG(PWR_REGULATOR_VOLTAGE_SCALE1);
 8000578:	2300      	movs	r3, #0
 800057a:	607b      	str	r3, [r7, #4]
 800057c:	4b22      	ldr	r3, [pc, #136]	; (8000608 <SystemClock_Config+0xd0>)
 800057e:	681b      	ldr	r3, [r3, #0]
 8000580:	4a21      	ldr	r2, [pc, #132]	; (8000608 <SystemClock_Config+0xd0>)
 8000582:	f443 4380 	orr.w	r3, r3, #16384	; 0x4000
 8000586:	6013      	str	r3, [r2, #0]
 8000588:	4b1f      	ldr	r3, [pc, #124]	; (8000608 <SystemClock_Config+0xd0>)
 800058a:	681b      	ldr	r3, [r3, #0]
 800058c:	f403 4380 	and.w	r3, r3, #16384	; 0x4000
 8000590:	607b      	str	r3, [r7, #4]
 8000592:	687b      	ldr	r3, [r7, #4]

  /** Initializes the RCC Oscillators according to the specified parameters
  * in the RCC_OscInitTypeDef structure.
  */
  RCC_OscInitStruct.OscillatorType = RCC_OSCILLATORTYPE_HSE;
 8000594:	2301      	movs	r3, #1
 8000596:	623b      	str	r3, [r7, #32]
  RCC_OscInitStruct.HSEState = RCC_HSE_ON;
 8000598:	f44f 3380 	mov.w	r3, #65536	; 0x10000
 800059c:	627b      	str	r3, [r7, #36]	; 0x24
  RCC_OscInitStruct.PLL.PLLState = RCC_PLL_ON;
 800059e:	2302      	movs	r3, #2
 80005a0:	63bb      	str	r3, [r7, #56]	; 0x38
  RCC_OscInitStruct.PLL.PLLSource = RCC_PLLSOURCE_HSE;
 80005a2:	f44f 0380 	mov.w	r3, #4194304	; 0x400000
 80005a6:	63fb      	str	r3, [r7, #60]	; 0x3c
  RCC_OscInitStruct.PLL.PLLM = 4;
 80005a8:	2304      	movs	r3, #4
 80005aa:	643b      	str	r3, [r7, #64]	; 0x40
  RCC_OscInitStruct.PLL.PLLN = 168;
 80005ac:	23a8      	movs	r3, #168	; 0xa8
 80005ae:	647b      	str	r3, [r7, #68]	; 0x44
  RCC_OscInitStruct.PLL.PLLP = RCC_PLLP_DIV2;
 80005b0:	2302      	movs	r3, #2
 80005b2:	64bb      	str	r3, [r7, #72]	; 0x48
  RCC_OscInitStruct.PLL.PLLQ = 7;
 80005b4:	2307      	movs	r3, #7
 80005b6:	64fb      	str	r3, [r7, #76]	; 0x4c
  if (HAL_RCC_OscConfig(&RCC_OscInitStruct) != HAL_OK)
 80005b8:	f107 0320 	add.w	r3, r7, #32
 80005bc:	4618      	mov	r0, r3
 80005be:	f001 f99f 	bl	8001900 <HAL_RCC_OscConfig>
 80005c2:	4603      	mov	r3, r0
 80005c4:	2b00      	cmp	r3, #0
 80005c6:	d001      	beq.n	80005cc <SystemClock_Config+0x94>
  {
    Error_Handler();
 80005c8:	f000 f8d6 	bl	8000778 <Error_Handler>
  }

  /** Initializes the CPU, AHB and APB buses clocks
  */
  RCC_ClkInitStruct.ClockType = RCC_CLOCKTYPE_HCLK|RCC_CLOCKTYPE_SYSCLK
 80005cc:	230f      	movs	r3, #15
 80005ce:	60fb      	str	r3, [r7, #12]
                              |RCC_CLOCKTYPE_PCLK1|RCC_CLOCKTYPE_PCLK2;
  RCC_ClkInitStruct.SYSCLKSource = RCC_SYSCLKSOURCE_PLLCLK;
 80005d0:	2302      	movs	r3, #2
 80005d2:	613b      	str	r3, [r7, #16]
  RCC_ClkInitStruct.AHBCLKDivider = RCC_SYSCLK_DIV1;
 80005d4:	2300      	movs	r3, #0
 80005d6:	617b      	str	r3, [r7, #20]
  RCC_ClkInitStruct.APB1CLKDivider = RCC_HCLK_DIV4;
 80005d8:	f44f 53a0 	mov.w	r3, #5120	; 0x1400
 80005dc:	61bb      	str	r3, [r7, #24]
  RCC_ClkInitStruct.APB2CLKDivider = RCC_HCLK_DIV2;
 80005de:	f44f 5380 	mov.w	r3, #4096	; 0x1000
 80005e2:	61fb      	str	r3, [r7, #28]

  if (HAL_RCC_ClockConfig(&RCC_ClkInitStruct, FLASH_LATENCY_5) != HAL_OK)
 80005e4:	f107 030c 	add.w	r3, r7, #12
 80005e8:	2105      	movs	r1, #5
 80005ea:	4618      	mov	r0, r3
 80005ec:	f001 fc00 	bl	8001df0 <HAL_RCC_ClockConfig>
 80005f0:	4603      	mov	r3, r0
 80005f2:	2b00      	cmp	r3, #0
 80005f4:	d001      	beq.n	80005fa <SystemClock_Config+0xc2>
  {
    Error_Handler();
 80005f6:	f000 f8bf 	bl	8000778 <Error_Handler>
  }
}
 80005fa:	bf00      	nop
 80005fc:	3750      	adds	r7, #80	; 0x50
 80005fe:	46bd      	mov	sp, r7
 8000600:	bd80      	pop	{r7, pc}
 8000602:	bf00      	nop
 8000604:	40023800 	.word	0x40023800
 8000608:	40007000 	.word	0x40007000

0800060c <MX_ADC1_Init>:
  * @brief ADC1 Initialization Function
  * @param None
  * @retval None
  */
static void MX_ADC1_Init(void)
{
 800060c:	b580      	push	{r7, lr}
 800060e:	b084      	sub	sp, #16
 8000610:	af00      	add	r7, sp, #0

  /* USER CODE BEGIN ADC1_Init 0 */

  /* USER CODE END ADC1_Init 0 */

  ADC_ChannelConfTypeDef sConfig = {0};
 8000612:	463b      	mov	r3, r7
 8000614:	2200      	movs	r2, #0
 8000616:	601a      	str	r2, [r3, #0]
 8000618:	605a      	str	r2, [r3, #4]
 800061a:	609a      	str	r2, [r3, #8]
 800061c:	60da      	str	r2, [r3, #12]

  /* USER CODE END ADC1_Init 1 */

  /** Configure the global features of the ADC (Clock, Resolution, Data Alignment and number of conversion)
  */
  hadc1.Instance = ADC1;
 800061e:	4b21      	ldr	r3, [pc, #132]	; (80006a4 <MX_ADC1_Init+0x98>)
 8000620:	4a21      	ldr	r2, [pc, #132]	; (80006a8 <MX_ADC1_Init+0x9c>)
 8000622:	601a      	str	r2, [r3, #0]
  hadc1.Init.ClockPrescaler = ADC_CLOCK_SYNC_PCLK_DIV4;
 8000624:	4b1f      	ldr	r3, [pc, #124]	; (80006a4 <MX_ADC1_Init+0x98>)
 8000626:	f44f 3280 	mov.w	r2, #65536	; 0x10000
 800062a:	605a      	str	r2, [r3, #4]
  hadc1.Init.Resolution = ADC_RESOLUTION_12B;
 800062c:	4b1d      	ldr	r3, [pc, #116]	; (80006a4 <MX_ADC1_Init+0x98>)
 800062e:	2200      	movs	r2, #0
 8000630:	609a      	str	r2, [r3, #8]
  hadc1.Init.ScanConvMode = DISABLE;
 8000632:	4b1c      	ldr	r3, [pc, #112]	; (80006a4 <MX_ADC1_Init+0x98>)
 8000634:	2200      	movs	r2, #0
 8000636:	611a      	str	r2, [r3, #16]
  hadc1.Init.ContinuousConvMode = ENABLE;
 8000638:	4b1a      	ldr	r3, [pc, #104]	; (80006a4 <MX_ADC1_Init+0x98>)
 800063a:	2201      	movs	r2, #1
 800063c:	761a      	strb	r2, [r3, #24]
  hadc1.Init.DiscontinuousConvMode = DISABLE;
 800063e:	4b19      	ldr	r3, [pc, #100]	; (80006a4 <MX_ADC1_Init+0x98>)
 8000640:	2200      	movs	r2, #0
 8000642:	f883 2020 	strb.w	r2, [r3, #32]
  hadc1.Init.ExternalTrigConvEdge = ADC_EXTERNALTRIGCONVEDGE_NONE;
 8000646:	4b17      	ldr	r3, [pc, #92]	; (80006a4 <MX_ADC1_Init+0x98>)
 8000648:	2200      	movs	r2, #0
 800064a:	62da      	str	r2, [r3, #44]	; 0x2c
  hadc1.Init.ExternalTrigConv = ADC_SOFTWARE_START;
 800064c:	4b15      	ldr	r3, [pc, #84]	; (80006a4 <MX_ADC1_Init+0x98>)
 800064e:	4a17      	ldr	r2, [pc, #92]	; (80006ac <MX_ADC1_Init+0xa0>)
 8000650:	629a      	str	r2, [r3, #40]	; 0x28
  hadc1.Init.DataAlign = ADC_DATAALIGN_RIGHT;
 8000652:	4b14      	ldr	r3, [pc, #80]	; (80006a4 <MX_ADC1_Init+0x98>)
 8000654:	2200      	movs	r2, #0
 8000656:	60da      	str	r2, [r3, #12]
  hadc1.Init.NbrOfConversion = 1;
 8000658:	4b12      	ldr	r3, [pc, #72]	; (80006a4 <MX_ADC1_Init+0x98>)
 800065a:	2201      	movs	r2, #1
 800065c:	61da      	str	r2, [r3, #28]
  hadc1.Init.DMAContinuousRequests = DISABLE;
 800065e:	4b11      	ldr	r3, [pc, #68]	; (80006a4 <MX_ADC1_Init+0x98>)
 8000660:	2200      	movs	r2, #0
 8000662:	f883 2030 	strb.w	r2, [r3, #48]	; 0x30
  hadc1.Init.EOCSelection = ADC_EOC_SINGLE_CONV;
 8000666:	4b0f      	ldr	r3, [pc, #60]	; (80006a4 <MX_ADC1_Init+0x98>)
 8000668:	2201      	movs	r2, #1
 800066a:	615a      	str	r2, [r3, #20]
  if (HAL_ADC_Init(&hadc1) != HAL_OK)
 800066c:	480d      	ldr	r0, [pc, #52]	; (80006a4 <MX_ADC1_Init+0x98>)
 800066e:	f000 fa03 	bl	8000a78 <HAL_ADC_Init>
 8000672:	4603      	mov	r3, r0
 8000674:	2b00      	cmp	r3, #0
 8000676:	d001      	beq.n	800067c <MX_ADC1_Init+0x70>
  {
    Error_Handler();
 8000678:	f000 f87e 	bl	8000778 <Error_Handler>
  }

  /** Configure for the selected ADC regular channel its corresponding rank in the sequencer and its sample time.
  */
  sConfig.Channel = ADC_CHANNEL_0;
 800067c:	2300      	movs	r3, #0
 800067e:	603b      	str	r3, [r7, #0]
  sConfig.Rank = 1;
 8000680:	2301      	movs	r3, #1
 8000682:	607b      	str	r3, [r7, #4]
  sConfig.SamplingTime = ADC_SAMPLETIME_3CYCLES;
 8000684:	2300      	movs	r3, #0
 8000686:	60bb      	str	r3, [r7, #8]
  if (HAL_ADC_ConfigChannel(&hadc1, &sConfig) != HAL_OK)
 8000688:	463b      	mov	r3, r7
 800068a:	4619      	mov	r1, r3
 800068c:	4805      	ldr	r0, [pc, #20]	; (80006a4 <MX_ADC1_Init+0x98>)
 800068e:	f000 fc47 	bl	8000f20 <HAL_ADC_ConfigChannel>
 8000692:	4603      	mov	r3, r0
 8000694:	2b00      	cmp	r3, #0
 8000696:	d001      	beq.n	800069c <MX_ADC1_Init+0x90>
  {
    Error_Handler();
 8000698:	f000 f86e 	bl	8000778 <Error_Handler>
  }
  /* USER CODE BEGIN ADC1_Init 2 */

  /* USER CODE END ADC1_Init 2 */

}
 800069c:	bf00      	nop
 800069e:	3710      	adds	r7, #16
 80006a0:	46bd      	mov	sp, r7
 80006a2:	bd80      	pop	{r7, pc}
 80006a4:	2000002c 	.word	0x2000002c
 80006a8:	40012000 	.word	0x40012000
 80006ac:	0f000001 	.word	0x0f000001

080006b0 <MX_GPIO_Init>:
  * @brief GPIO Initialization Function
  * @param None
  * @retval None
  */
static void MX_GPIO_Init(void)
{
 80006b0:	b580      	push	{r7, lr}
 80006b2:	b088      	sub	sp, #32
 80006b4:	af00      	add	r7, sp, #0
  GPIO_InitTypeDef GPIO_InitStruct = {0};
 80006b6:	f107 030c 	add.w	r3, r7, #12
 80006ba:	2200      	movs	r2, #0
 80006bc:	601a      	str	r2, [r3, #0]
 80006be:	605a      	str	r2, [r3, #4]
 80006c0:	609a      	str	r2, [r3, #8]
 80006c2:	60da      	str	r2, [r3, #12]
 80006c4:	611a      	str	r2, [r3, #16]
/* USER CODE BEGIN MX_GPIO_Init_1 */
/* USER CODE END MX_GPIO_Init_1 */

  /* GPIO Ports Clock Enable */
  __HAL_RCC_GPIOH_CLK_ENABLE();
 80006c6:	2300      	movs	r3, #0
 80006c8:	60bb      	str	r3, [r7, #8]
 80006ca:	4b20      	ldr	r3, [pc, #128]	; (800074c <MX_GPIO_Init+0x9c>)
 80006cc:	6b1b      	ldr	r3, [r3, #48]	; 0x30
 80006ce:	4a1f      	ldr	r2, [pc, #124]	; (800074c <MX_GPIO_Init+0x9c>)
 80006d0:	f043 0380 	orr.w	r3, r3, #128	; 0x80
 80006d4:	6313      	str	r3, [r2, #48]	; 0x30
 80006d6:	4b1d      	ldr	r3, [pc, #116]	; (800074c <MX_GPIO_Init+0x9c>)
 80006d8:	6b1b      	ldr	r3, [r3, #48]	; 0x30
 80006da:	f003 0380 	and.w	r3, r3, #128	; 0x80
 80006de:	60bb      	str	r3, [r7, #8]
 80006e0:	68bb      	ldr	r3, [r7, #8]
  __HAL_RCC_GPIOA_CLK_ENABLE();
 80006e2:	2300      	movs	r3, #0
 80006e4:	607b      	str	r3, [r7, #4]
 80006e6:	4b19      	ldr	r3, [pc, #100]	; (800074c <MX_GPIO_Init+0x9c>)
 80006e8:	6b1b      	ldr	r3, [r3, #48]	; 0x30
 80006ea:	4a18      	ldr	r2, [pc, #96]	; (800074c <MX_GPIO_Init+0x9c>)
 80006ec:	f043 0301 	orr.w	r3, r3, #1
 80006f0:	6313      	str	r3, [r2, #48]	; 0x30
 80006f2:	4b16      	ldr	r3, [pc, #88]	; (800074c <MX_GPIO_Init+0x9c>)
 80006f4:	6b1b      	ldr	r3, [r3, #48]	; 0x30
 80006f6:	f003 0301 	and.w	r3, r3, #1
 80006fa:	607b      	str	r3, [r7, #4]
 80006fc:	687b      	ldr	r3, [r7, #4]
  __HAL_RCC_GPIOD_CLK_ENABLE();
 80006fe:	2300      	movs	r3, #0
 8000700:	603b      	str	r3, [r7, #0]
 8000702:	4b12      	ldr	r3, [pc, #72]	; (800074c <MX_GPIO_Init+0x9c>)
 8000704:	6b1b      	ldr	r3, [r3, #48]	; 0x30
 8000706:	4a11      	ldr	r2, [pc, #68]	; (800074c <MX_GPIO_Init+0x9c>)
 8000708:	f043 0308 	orr.w	r3, r3, #8
 800070c:	6313      	str	r3, [r2, #48]	; 0x30
 800070e:	4b0f      	ldr	r3, [pc, #60]	; (800074c <MX_GPIO_Init+0x9c>)
 8000710:	6b1b      	ldr	r3, [r3, #48]	; 0x30
 8000712:	f003 0308 	and.w	r3, r3, #8
 8000716:	603b      	str	r3, [r7, #0]
 8000718:	683b      	ldr	r3, [r7, #0]

  /*Configure GPIO pin Output Level */
  HAL_GPIO_WritePin(GPIOD, GPIO_PIN_13|GPIO_PIN_14, GPIO_PIN_RESET);
 800071a:	2200      	movs	r2, #0
 800071c:	f44f 41c0 	mov.w	r1, #24576	; 0x6000
 8000720:	480b      	ldr	r0, [pc, #44]	; (8000750 <MX_GPIO_Init+0xa0>)
 8000722:	f001 f8d3 	bl	80018cc <HAL_GPIO_WritePin>

  /*Configure GPIO pins : PD13 PD14 */
  GPIO_InitStruct.Pin = GPIO_PIN_13|GPIO_PIN_14;
 8000726:	f44f 43c0 	mov.w	r3, #24576	; 0x6000
 800072a:	60fb      	str	r3, [r7, #12]
  GPIO_InitStruct.Mode = GPIO_MODE_OUTPUT_PP;
 800072c:	2301      	movs	r3, #1
 800072e:	613b      	str	r3, [r7, #16]
  GPIO_InitStruct.Pull = GPIO_NOPULL;
 8000730:	2300      	movs	r3, #0
 8000732:	617b      	str	r3, [r7, #20]
  GPIO_InitStruct.Speed = GPIO_SPEED_FREQ_LOW;
 8000734:	2300      	movs	r3, #0
 8000736:	61bb      	str	r3, [r7, #24]
  HAL_GPIO_Init(GPIOD, &GPIO_InitStruct);
 8000738:	f107 030c 	add.w	r3, r7, #12
 800073c:	4619      	mov	r1, r3
 800073e:	4804      	ldr	r0, [pc, #16]	; (8000750 <MX_GPIO_Init+0xa0>)
 8000740:	f000 ff28 	bl	8001594 <HAL_GPIO_Init>

/* USER CODE BEGIN MX_GPIO_Init_2 */
/* USER CODE END MX_GPIO_Init_2 */
}
 8000744:	bf00      	nop
 8000746:	3720      	adds	r7, #32
 8000748:	46bd      	mov	sp, r7
 800074a:	bd80      	pop	{r7, pc}
 800074c:	40023800 	.word	0x40023800
 8000750:	40020c00 	.word	0x40020c00

08000754 <HAL_ADC_ConvCpltCallback>:

/* USER CODE BEGIN 4 */
void HAL_ADC_ConvCpltCallback(ADC_HandleTypeDef* hadc)
{
 8000754:	b580      	push	{r7, lr}
 8000756:	b082      	sub	sp, #8
 8000758:	af00      	add	r7, sp, #0
 800075a:	6078      	str	r0, [r7, #4]
  adc_value = HAL_ADC_GetValue(hadc);
 800075c:	6878      	ldr	r0, [r7, #4]
 800075e:	f000 fbbd 	bl	8000edc <HAL_ADC_GetValue>
 8000762:	4603      	mov	r3, r0
 8000764:	b29a      	uxth	r2, r3
 8000766:	4b03      	ldr	r3, [pc, #12]	; (8000774 <HAL_ADC_ConvCpltCallback+0x20>)
 8000768:	801a      	strh	r2, [r3, #0]
}
 800076a:	bf00      	nop
 800076c:	3708      	adds	r7, #8
 800076e:	46bd      	mov	sp, r7
 8000770:	bd80      	pop	{r7, pc}
 8000772:	bf00      	nop
 8000774:	20000028 	.word	0x20000028

08000778 <Error_Handler>:
/**
  * @brief  This function is executed in case of error occurrence.
  * @retval None
  */
void Error_Handler(void)
{
 8000778:	b480      	push	{r7}
 800077a:	af00      	add	r7, sp, #0
  \details Disables IRQ interrupts by setting the I-bit in the CPSR.
           Can only be executed in Privileged modes.
 */
__STATIC_FORCEINLINE void __disable_irq(void)
{
  __ASM volatile ("cpsid i" : : : "memory");
 800077c:	b672      	cpsid	i
}
 800077e:	bf00      	nop
  /* USER CODE BEGIN Error_Handler_Debug */
  /* User can add his own implementation to report the HAL error return state */
  __disable_irq();
  while (1)
 8000780:	e7fe      	b.n	8000780 <Error_Handler+0x8>
	...

08000784 <HAL_MspInit>:
/* USER CODE END 0 */
/**
  * Initializes the Global MSP.
  */
void HAL_MspInit(void)
{
 8000784:	b580      	push	{r7, lr}
 8000786:	b082      	sub	sp, #8
 8000788:	af00      	add	r7, sp, #0
  /* USER CODE BEGIN MspInit 0 */

  /* USER CODE END MspInit 0 */

  __HAL_RCC_SYSCFG_CLK_ENABLE();
 800078a:	2300      	movs	r3, #0
 800078c:	607b      	str	r3, [r7, #4]
 800078e:	4b10      	ldr	r3, [pc, #64]	; (80007d0 <HAL_MspInit+0x4c>)
 8000790:	6c5b      	ldr	r3, [r3, #68]	; 0x44
 8000792:	4a0f      	ldr	r2, [pc, #60]	; (80007d0 <HAL_MspInit+0x4c>)
 8000794:	f443 4380 	orr.w	r3, r3, #16384	; 0x4000
 8000798:	6453      	str	r3, [r2, #68]	; 0x44
 800079a:	4b0d      	ldr	r3, [pc, #52]	; (80007d0 <HAL_MspInit+0x4c>)
 800079c:	6c5b      	ldr	r3, [r3, #68]	; 0x44
 800079e:	f403 4380 	and.w	r3, r3, #16384	; 0x4000
 80007a2:	607b      	str	r3, [r7, #4]
 80007a4:	687b      	ldr	r3, [r7, #4]
  __HAL_RCC_PWR_CLK_ENABLE();
 80007a6:	2300      	movs	r3, #0
 80007a8:	603b      	str	r3, [r7, #0]
 80007aa:	4b09      	ldr	r3, [pc, #36]	; (80007d0 <HAL_MspInit+0x4c>)
 80007ac:	6c1b      	ldr	r3, [r3, #64]	; 0x40
 80007ae:	4a08      	ldr	r2, [pc, #32]	; (80007d0 <HAL_MspInit+0x4c>)
 80007b0:	f043 5380 	orr.w	r3, r3, #268435456	; 0x10000000
 80007b4:	6413      	str	r3, [r2, #64]	; 0x40
 80007b6:	4b06      	ldr	r3, [pc, #24]	; (80007d0 <HAL_MspInit+0x4c>)
 80007b8:	6c1b      	ldr	r3, [r3, #64]	; 0x40
 80007ba:	f003 5380 	and.w	r3, r3, #268435456	; 0x10000000
 80007be:	603b      	str	r3, [r7, #0]
 80007c0:	683b      	ldr	r3, [r7, #0]

  HAL_NVIC_SetPriorityGrouping(NVIC_PRIORITYGROUP_0);
 80007c2:	2007      	movs	r0, #7
 80007c4:	f000 fea4 	bl	8001510 <HAL_NVIC_SetPriorityGrouping>
  /* System interrupt init*/

  /* USER CODE BEGIN MspInit 1 */

  /* USER CODE END MspInit 1 */
}
 80007c8:	bf00      	nop
 80007ca:	3708      	adds	r7, #8
 80007cc:	46bd      	mov	sp, r7
 80007ce:	bd80      	pop	{r7, pc}
 80007d0:	40023800 	.word	0x40023800

080007d4 <HAL_ADC_MspInit>:
* This function configures the hardware resources used in this example
* @param hadc: ADC handle pointer
* @retval None
*/
void HAL_ADC_MspInit(ADC_HandleTypeDef* hadc)
{
 80007d4:	b580      	push	{r7, lr}
 80007d6:	b08a      	sub	sp, #40	; 0x28
 80007d8:	af00      	add	r7, sp, #0
 80007da:	6078      	str	r0, [r7, #4]
  GPIO_InitTypeDef GPIO_InitStruct = {0};
 80007dc:	f107 0314 	add.w	r3, r7, #20
 80007e0:	2200      	movs	r2, #0
 80007e2:	601a      	str	r2, [r3, #0]
 80007e4:	605a      	str	r2, [r3, #4]
 80007e6:	609a      	str	r2, [r3, #8]
 80007e8:	60da      	str	r2, [r3, #12]
 80007ea:	611a      	str	r2, [r3, #16]
  if(hadc->Instance==ADC1)
 80007ec:	687b      	ldr	r3, [r7, #4]
 80007ee:	681b      	ldr	r3, [r3, #0]
 80007f0:	4a1b      	ldr	r2, [pc, #108]	; (8000860 <HAL_ADC_MspInit+0x8c>)
 80007f2:	4293      	cmp	r3, r2
 80007f4:	d12f      	bne.n	8000856 <HAL_ADC_MspInit+0x82>
  {
  /* USER CODE BEGIN ADC1_MspInit 0 */

  /* USER CODE END ADC1_MspInit 0 */
    /* Peripheral clock enable */
    __HAL_RCC_ADC1_CLK_ENABLE();
 80007f6:	2300      	movs	r3, #0
 80007f8:	613b      	str	r3, [r7, #16]
 80007fa:	4b1a      	ldr	r3, [pc, #104]	; (8000864 <HAL_ADC_MspInit+0x90>)
 80007fc:	6c5b      	ldr	r3, [r3, #68]	; 0x44
 80007fe:	4a19      	ldr	r2, [pc, #100]	; (8000864 <HAL_ADC_MspInit+0x90>)
 8000800:	f443 7380 	orr.w	r3, r3, #256	; 0x100
 8000804:	6453      	str	r3, [r2, #68]	; 0x44
 8000806:	4b17      	ldr	r3, [pc, #92]	; (8000864 <HAL_ADC_MspInit+0x90>)
 8000808:	6c5b      	ldr	r3, [r3, #68]	; 0x44
 800080a:	f403 7380 	and.w	r3, r3, #256	; 0x100
 800080e:	613b      	str	r3, [r7, #16]
 8000810:	693b      	ldr	r3, [r7, #16]

    __HAL_RCC_GPIOA_CLK_ENABLE();
 8000812:	2300      	movs	r3, #0
 8000814:	60fb      	str	r3, [r7, #12]
 8000816:	4b13      	ldr	r3, [pc, #76]	; (8000864 <HAL_ADC_MspInit+0x90>)
 8000818:	6b1b      	ldr	r3, [r3, #48]	; 0x30
 800081a:	4a12      	ldr	r2, [pc, #72]	; (8000864 <HAL_ADC_MspInit+0x90>)
 800081c:	f043 0301 	orr.w	r3, r3, #1
 8000820:	6313      	str	r3, [r2, #48]	; 0x30
 8000822:	4b10      	ldr	r3, [pc, #64]	; (8000864 <HAL_ADC_MspInit+0x90>)
 8000824:	6b1b      	ldr	r3, [r3, #48]	; 0x30
 8000826:	f003 0301 	and.w	r3, r3, #1
 800082a:	60fb      	str	r3, [r7, #12]
 800082c:	68fb      	ldr	r3, [r7, #12]
    /**ADC1 GPIO Configuration
    PA0-WKUP     ------> ADC1_IN0
    */
    GPIO_InitStruct.Pin = GPIO_PIN_0;
 800082e:	2301      	movs	r3, #1
 8000830:	617b      	str	r3, [r7, #20]
    GPIO_InitStruct.Mode = GPIO_MODE_ANALOG;
 8000832:	2303      	movs	r3, #3
 8000834:	61bb      	str	r3, [r7, #24]
    GPIO_InitStruct.Pull = GPIO_NOPULL;
 8000836:	2300      	movs	r3, #0
 8000838:	61fb      	str	r3, [r7, #28]
    HAL_GPIO_Init(GPIOA, &GPIO_InitStruct);
 800083a:	f107 0314 	add.w	r3, r7, #20
 800083e:	4619      	mov	r1, r3
 8000840:	4809      	ldr	r0, [pc, #36]	; (8000868 <HAL_ADC_MspInit+0x94>)
 8000842:	f000 fea7 	bl	8001594 <HAL_GPIO_Init>

    /* ADC1 interrupt Init */
    HAL_NVIC_SetPriority(ADC_IRQn, 0, 0);
 8000846:	2200      	movs	r2, #0
 8000848:	2100      	movs	r1, #0
 800084a:	2012      	movs	r0, #18
 800084c:	f000 fe6b 	bl	8001526 <HAL_NVIC_SetPriority>
    HAL_NVIC_EnableIRQ(ADC_IRQn);
 8000850:	2012      	movs	r0, #18
 8000852:	f000 fe84 	bl	800155e <HAL_NVIC_EnableIRQ>
  /* USER CODE BEGIN ADC1_MspInit 1 */

  /* USER CODE END ADC1_MspInit 1 */
  }

}
 8000856:	bf00      	nop
 8000858:	3728      	adds	r7, #40	; 0x28
 800085a:	46bd      	mov	sp, r7
 800085c:	bd80      	pop	{r7, pc}
 800085e:	bf00      	nop
 8000860:	40012000 	.word	0x40012000
 8000864:	40023800 	.word	0x40023800
 8000868:	40020000 	.word	0x40020000

0800086c <NMI_Handler>:
/******************************************************************************/
/**
  * @brief This function handles Non maskable interrupt.
  */
void NMI_Handler(void)
{
 800086c:	b480      	push	{r7}
 800086e:	af00      	add	r7, sp, #0
  /* USER CODE BEGIN NonMaskableInt_IRQn 0 */

  /* USER CODE END NonMaskableInt_IRQn 0 */
  /* USER CODE BEGIN NonMaskableInt_IRQn 1 */
  while (1)
 8000870:	e7fe      	b.n	8000870 <NMI_Handler+0x4>

08000872 <HardFault_Handler>:

/**
  * @brief This function handles Hard fault interrupt.
  */
void HardFault_Handler(void)
{
 8000872:	b480      	push	{r7}
 8000874:	af00      	add	r7, sp, #0
  /* USER CODE BEGIN HardFault_IRQn 0 */

  /* USER CODE END HardFault_IRQn 0 */
  while (1)
 8000876:	e7fe      	b.n	8000876 <HardFault_Handler+0x4>

08000878 <MemManage_Handler>:

/**
  * @brief This function handles Memory management fault.
  */
void MemManage_Handler(void)
{
 8000878:	b480      	push	{r7}
 800087a:	af00      	add	r7, sp, #0
  /* USER CODE BEGIN MemoryManagement_IRQn 0 */

  /* USER CODE END MemoryManagement_IRQn 0 */
  while (1)
 800087c:	e7fe      	b.n	800087c <MemManage_Handler+0x4>

0800087e <BusFault_Handler>:

/**
  * @brief This function handles Pre-fetch fault, memory access fault.
  */
void BusFault_Handler(void)
{
 800087e:	b480      	push	{r7}
 8000880:	af00      	add	r7, sp, #0
  /* USER CODE BEGIN BusFault_IRQn 0 */

  /* USER CODE END BusFault_IRQn 0 */
  while (1)
 8000882:	e7fe      	b.n	8000882 <BusFault_Handler+0x4>

08000884 <UsageFault_Handler>:

/**
  * @brief This function handles Undefined instruction or illegal state.
  */
void UsageFault_Handler(void)
{
 8000884:	b480      	push	{r7}
 8000886:	af00      	add	r7, sp, #0
  /* USER CODE BEGIN UsageFault_IRQn 0 */

  /* USER CODE END UsageFault_IRQn 0 */
  while (1)
 8000888:	e7fe      	b.n	8000888 <UsageFault_Handler+0x4>

0800088a <SVC_Handler>:

/**
  * @brief This function handles System service call via SWI instruction.
  */
void SVC_Handler(void)
{
 800088a:	b480      	push	{r7}
 800088c:	af00      	add	r7, sp, #0

  /* USER CODE END SVCall_IRQn 0 */
  /* USER CODE BEGIN SVCall_IRQn 1 */

  /* USER CODE END SVCall_IRQn 1 */
}
 800088e:	bf00      	nop
 8000890:	46bd      	mov	sp, r7
 8000892:	f85d 7b04 	ldr.w	r7, [sp], #4
 8000896:	4770      	bx	lr

08000898 <DebugMon_Handler>:

/**
  * @brief This function handles Debug monitor.
  */
void DebugMon_Handler(void)
{
 8000898:	b480      	push	{r7}
 800089a:	af00      	add	r7, sp, #0

  /* USER CODE END DebugMonitor_IRQn 0 */
  /* USER CODE BEGIN DebugMonitor_IRQn 1 */

  /* USER CODE END DebugMonitor_IRQn 1 */
}
 800089c:	bf00      	nop
 800089e:	46bd      	mov	sp, r7
 80008a0:	f85d 7b04 	ldr.w	r7, [sp], #4
 80008a4:	4770      	bx	lr

080008a6 <PendSV_Handler>:

/**
  * @brief This function handles Pendable request for system service.
  */
void PendSV_Handler(void)
{
 80008a6:	b480      	push	{r7}
 80008a8:	af00      	add	r7, sp, #0

  /* USER CODE END PendSV_IRQn 0 */
  /* USER CODE BEGIN PendSV_IRQn 1 */

  /* USER CODE END PendSV_IRQn 1 */
}
 80008aa:	bf00      	nop
 80008ac:	46bd      	mov	sp, r7
 80008ae:	f85d 7b04 	ldr.w	r7, [sp], #4
 80008b2:	4770      	bx	lr

080008b4 <SysTick_Handler>:

/**
  * @brief This function handles System tick timer.
  */
void SysTick_Handler(void)
{
 80008b4:	b580      	push	{r7, lr}
 80008b6:	af00      	add	r7, sp, #0
  /* USER CODE BEGIN SysTick_IRQn 0 */

  /* USER CODE END SysTick_IRQn 0 */
  HAL_IncTick();
 80008b8:	f000 f89a 	bl	80009f0 <HAL_IncTick>
  /* USER CODE BEGIN SysTick_IRQn 1 */

  /* USER CODE END SysTick_IRQn 1 */
}
 80008bc:	bf00      	nop
 80008be:	bd80      	pop	{r7, pc}

080008c0 <ADC_IRQHandler>:

/**
  * @brief This function handles ADC1, ADC2 and ADC3 global interrupts.
  */
void ADC_IRQHandler(void)
{
 80008c0:	b580      	push	{r7, lr}
 80008c2:	af00      	add	r7, sp, #0
  /* USER CODE BEGIN ADC_IRQn 0 */

  /* USER CODE END ADC_IRQn 0 */
  HAL_ADC_IRQHandler(&hadc1);
 80008c4:	4802      	ldr	r0, [pc, #8]	; (80008d0 <ADC_IRQHandler+0x10>)
 80008c6:	f000 f9f9 	bl	8000cbc <HAL_ADC_IRQHandler>
  /* USER CODE BEGIN ADC_IRQn 1 */

  /* USER CODE END ADC_IRQn 1 */
}
 80008ca:	bf00      	nop
 80008cc:	bd80      	pop	{r7, pc}
 80008ce:	bf00      	nop
 80008d0:	2000002c 	.word	0x2000002c

080008d4 <SystemInit>:
  *         configuration.
  * @param  None
  * @retval None
  */
void SystemInit(void)
{
 80008d4:	b480      	push	{r7}
 80008d6:	af00      	add	r7, sp, #0
  /* FPU settings ------------------------------------------------------------*/
  #if (__FPU_PRESENT == 1) && (__FPU_USED == 1)
    SCB->CPACR |= ((3UL << 10*2)|(3UL << 11*2));  /* set CP10 and CP11 Full Access */
 80008d8:	4b06      	ldr	r3, [pc, #24]	; (80008f4 <SystemInit+0x20>)
 80008da:	f8d3 3088 	ldr.w	r3, [r3, #136]	; 0x88
 80008de:	4a05      	ldr	r2, [pc, #20]	; (80008f4 <SystemInit+0x20>)
 80008e0:	f443 0370 	orr.w	r3, r3, #15728640	; 0xf00000
 80008e4:	f8c2 3088 	str.w	r3, [r2, #136]	; 0x88

  /* Configure the Vector Table location -------------------------------------*/
#if defined(USER_VECT_TAB_ADDRESS)
  SCB->VTOR = VECT_TAB_BASE_ADDRESS | VECT_TAB_OFFSET; /* Vector Table Relocation in Internal SRAM */
#endif /* USER_VECT_TAB_ADDRESS */
}
 80008e8:	bf00      	nop
 80008ea:	46bd      	mov	sp, r7
 80008ec:	f85d 7b04 	ldr.w	r7, [sp], #4
 80008f0:	4770      	bx	lr
 80008f2:	bf00      	nop
 80008f4:	e000ed00 	.word	0xe000ed00

080008f8 <Reset_Handler>:

    .section  .text.Reset_Handler
  .weak  Reset_Handler
  .type  Reset_Handler, %function
Reset_Handler:  
  ldr   sp, =_estack     /* set stack pointer */
 80008f8:	f8df d034 	ldr.w	sp, [pc, #52]	; 8000930 <LoopFillZerobss+0x12>

/* Copy the data segment initializers from flash to SRAM */  
  ldr r0, =_sdata
 80008fc:	480d      	ldr	r0, [pc, #52]	; (8000934 <LoopFillZerobss+0x16>)
  ldr r1, =_edata
 80008fe:	490e      	ldr	r1, [pc, #56]	; (8000938 <LoopFillZerobss+0x1a>)
  ldr r2, =_sidata
 8000900:	4a0e      	ldr	r2, [pc, #56]	; (800093c <LoopFillZerobss+0x1e>)
  movs r3, #0
 8000902:	2300      	movs	r3, #0
  b LoopCopyDataInit
 8000904:	e002      	b.n	800090c <LoopCopyDataInit>

08000906 <CopyDataInit>:

CopyDataInit:
  ldr r4, [r2, r3]
 8000906:	58d4      	ldr	r4, [r2, r3]
  str r4, [r0, r3]
 8000908:	50c4      	str	r4, [r0, r3]
  adds r3, r3, #4
 800090a:	3304      	adds	r3, #4

0800090c <LoopCopyDataInit>:

LoopCopyDataInit:
  adds r4, r0, r3
 800090c:	18c4      	adds	r4, r0, r3
  cmp r4, r1
 800090e:	428c      	cmp	r4, r1
  bcc CopyDataInit
 8000910:	d3f9      	bcc.n	8000906 <CopyDataInit>
  
/* Zero fill the bss segment. */
  ldr r2, =_sbss
 8000912:	4a0b      	ldr	r2, [pc, #44]	; (8000940 <LoopFillZerobss+0x22>)
  ldr r4, =_ebss
 8000914:	4c0b      	ldr	r4, [pc, #44]	; (8000944 <LoopFillZerobss+0x26>)
  movs r3, #0
 8000916:	2300      	movs	r3, #0
  b LoopFillZerobss
 8000918:	e001      	b.n	800091e <LoopFillZerobss>

0800091a <FillZerobss>:

FillZerobss:
  str  r3, [r2]
 800091a:	6013      	str	r3, [r2, #0]
  adds r2, r2, #4
 800091c:	3204      	adds	r2, #4

0800091e <LoopFillZerobss>:

LoopFillZerobss:
  cmp r2, r4
 800091e:	42a2      	cmp	r2, r4
  bcc FillZerobss
 8000920:	d3fb      	bcc.n	800091a <FillZerobss>

/* Call the clock system initialization function.*/
  bl  SystemInit   
 8000922:	f7ff ffd7 	bl	80008d4 <SystemInit>
/* Call static constructors */
    bl __libc_init_array
 8000926:	f001 fc4f 	bl	80021c8 <__libc_init_array>
/* Call the application's entry point.*/
  bl  main
 800092a:	f7ff fdcf 	bl	80004cc <main>
  bx  lr    
 800092e:	4770      	bx	lr
  ldr   sp, =_estack     /* set stack pointer */
 8000930:	20020000 	.word	0x20020000
  ldr r0, =_sdata
 8000934:	20000000 	.word	0x20000000
  ldr r1, =_edata
 8000938:	2000000c 	.word	0x2000000c
  ldr r2, =_sidata
 800093c:	08002258 	.word	0x08002258
  ldr r2, =_sbss
 8000940:	2000000c 	.word	0x2000000c
  ldr r4, =_ebss
 8000944:	20000078 	.word	0x20000078

08000948 <CAN1_RX0_IRQHandler>:
 * @retval None       
*/
    .section  .text.Default_Handler,"ax",%progbits
Default_Handler:
Infinite_Loop:
  b  Infinite_Loop
 8000948:	e7fe      	b.n	8000948 <CAN1_RX0_IRQHandler>
	...

0800094c <HAL_Init>:
  *         need to ensure that the SysTick time base is always set to 1 millisecond
  *         to have correct HAL operation.
  * @retval HAL status
  */
HAL_StatusTypeDef HAL_Init(void)
{
 800094c:	b580      	push	{r7, lr}
 800094e:	af00      	add	r7, sp, #0
  /* Configure Flash prefetch, Instruction cache, Data cache */ 
#if (INSTRUCTION_CACHE_ENABLE != 0U)
  __HAL_FLASH_INSTRUCTION_CACHE_ENABLE();
 8000950:	4b0e      	ldr	r3, [pc, #56]	; (800098c <HAL_Init+0x40>)
 8000952:	681b      	ldr	r3, [r3, #0]
 8000954:	4a0d      	ldr	r2, [pc, #52]	; (800098c <HAL_Init+0x40>)
 8000956:	f443 7300 	orr.w	r3, r3, #512	; 0x200
 800095a:	6013      	str	r3, [r2, #0]
#endif /* INSTRUCTION_CACHE_ENABLE */

#if (DATA_CACHE_ENABLE != 0U)
  __HAL_FLASH_DATA_CACHE_ENABLE();
 800095c:	4b0b      	ldr	r3, [pc, #44]	; (800098c <HAL_Init+0x40>)
 800095e:	681b      	ldr	r3, [r3, #0]
 8000960:	4a0a      	ldr	r2, [pc, #40]	; (800098c <HAL_Init+0x40>)
 8000962:	f443 6380 	orr.w	r3, r3, #1024	; 0x400
 8000966:	6013      	str	r3, [r2, #0]
#endif /* DATA_CACHE_ENABLE */

#if (PREFETCH_ENABLE != 0U)
  __HAL_FLASH_PREFETCH_BUFFER_ENABLE();
 8000968:	4b08      	ldr	r3, [pc, #32]	; (800098c <HAL_Init+0x40>)
 800096a:	681b      	ldr	r3, [r3, #0]
 800096c:	4a07      	ldr	r2, [pc, #28]	; (800098c <HAL_Init+0x40>)
 800096e:	f443 7380 	orr.w	r3, r3, #256	; 0x100
 8000972:	6013      	str	r3, [r2, #0]
#endif /* PREFETCH_ENABLE */

  /* Set Interrupt Group Priority */
  HAL_NVIC_SetPriorityGrouping(NVIC_PRIORITYGROUP_4);
 8000974:	2003      	movs	r0, #3
 8000976:	f000 fdcb 	bl	8001510 <HAL_NVIC_SetPriorityGrouping>

  /* Use systick as time base source and configure 1ms tick (default clock after Reset is HSI) */
  HAL_InitTick(TICK_INT_PRIORITY);
 800097a:	2000      	movs	r0, #0
 800097c:	f000 f808 	bl	8000990 <HAL_InitTick>

  /* Init the low level hardware */
  HAL_MspInit();
 8000980:	f7ff ff00 	bl	8000784 <HAL_MspInit>

  /* Return function status */
  return HAL_OK;
 8000984:	2300      	movs	r3, #0
}
 8000986:	4618      	mov	r0, r3
 8000988:	bd80      	pop	{r7, pc}
 800098a:	bf00      	nop
 800098c:	40023c00 	.word	0x40023c00

08000990 <HAL_InitTick>:
  *       implementation  in user file.
  * @param TickPriority Tick interrupt priority.
  * @retval HAL status
  */
__weak HAL_StatusTypeDef HAL_InitTick(uint32_t TickPriority)
{
 8000990:	b580      	push	{r7, lr}
 8000992:	b082      	sub	sp, #8
 8000994:	af00      	add	r7, sp, #0
 8000996:	6078      	str	r0, [r7, #4]
  /* Configure the SysTick to have interrupt in 1ms time basis*/
  if (HAL_SYSTICK_Config(SystemCoreClock / (1000U / uwTickFreq)) > 0U)
 8000998:	4b12      	ldr	r3, [pc, #72]	; (80009e4 <HAL_InitTick+0x54>)
 800099a:	681a      	ldr	r2, [r3, #0]
 800099c:	4b12      	ldr	r3, [pc, #72]	; (80009e8 <HAL_InitTick+0x58>)
 800099e:	781b      	ldrb	r3, [r3, #0]
 80009a0:	4619      	mov	r1, r3
 80009a2:	f44f 737a 	mov.w	r3, #1000	; 0x3e8
 80009a6:	fbb3 f3f1 	udiv	r3, r3, r1
 80009aa:	fbb2 f3f3 	udiv	r3, r2, r3
 80009ae:	4618      	mov	r0, r3
 80009b0:	f000 fde3 	bl	800157a <HAL_SYSTICK_Config>
 80009b4:	4603      	mov	r3, r0
 80009b6:	2b00      	cmp	r3, #0
 80009b8:	d001      	beq.n	80009be <HAL_InitTick+0x2e>
  {
    return HAL_ERROR;
 80009ba:	2301      	movs	r3, #1
 80009bc:	e00e      	b.n	80009dc <HAL_InitTick+0x4c>
  }

  /* Configure the SysTick IRQ priority */
  if (TickPriority < (1UL << __NVIC_PRIO_BITS))
 80009be:	687b      	ldr	r3, [r7, #4]
 80009c0:	2b0f      	cmp	r3, #15
 80009c2:	d80a      	bhi.n	80009da <HAL_InitTick+0x4a>
  {
    HAL_NVIC_SetPriority(SysTick_IRQn, TickPriority, 0U);
 80009c4:	2200      	movs	r2, #0
 80009c6:	6879      	ldr	r1, [r7, #4]
 80009c8:	f04f 30ff 	mov.w	r0, #4294967295
 80009cc:	f000 fdab 	bl	8001526 <HAL_NVIC_SetPriority>
    uwTickPrio = TickPriority;
 80009d0:	4a06      	ldr	r2, [pc, #24]	; (80009ec <HAL_InitTick+0x5c>)
 80009d2:	687b      	ldr	r3, [r7, #4]
 80009d4:	6013      	str	r3, [r2, #0]
  {
    return HAL_ERROR;
  }

  /* Return function status */
  return HAL_OK;
 80009d6:	2300      	movs	r3, #0
 80009d8:	e000      	b.n	80009dc <HAL_InitTick+0x4c>
    return HAL_ERROR;
 80009da:	2301      	movs	r3, #1
}
 80009dc:	4618      	mov	r0, r3
 80009de:	3708      	adds	r7, #8
 80009e0:	46bd      	mov	sp, r7
 80009e2:	bd80      	pop	{r7, pc}
 80009e4:	20000000 	.word	0x20000000
 80009e8:	20000008 	.word	0x20000008
 80009ec:	20000004 	.word	0x20000004

080009f0 <HAL_IncTick>:
 * @note This function is declared as __weak to be overwritten in case of other 
  *      implementations in user file.
  * @retval None
  */
__weak void HAL_IncTick(void)
{
 80009f0:	b480      	push	{r7}
 80009f2:	af00      	add	r7, sp, #0
  uwTick += uwTickFreq;
 80009f4:	4b06      	ldr	r3, [pc, #24]	; (8000a10 <HAL_IncTick+0x20>)
 80009f6:	781b      	ldrb	r3, [r3, #0]
 80009f8:	461a      	mov	r2, r3
 80009fa:	4b06      	ldr	r3, [pc, #24]	; (8000a14 <HAL_IncTick+0x24>)
 80009fc:	681b      	ldr	r3, [r3, #0]
 80009fe:	4413      	add	r3, r2
 8000a00:	4a04      	ldr	r2, [pc, #16]	; (8000a14 <HAL_IncTick+0x24>)
 8000a02:	6013      	str	r3, [r2, #0]
}
 8000a04:	bf00      	nop
 8000a06:	46bd      	mov	sp, r7
 8000a08:	f85d 7b04 	ldr.w	r7, [sp], #4
 8000a0c:	4770      	bx	lr
 8000a0e:	bf00      	nop
 8000a10:	20000008 	.word	0x20000008
 8000a14:	20000074 	.word	0x20000074

08000a18 <HAL_GetTick>:
  * @note This function is declared as __weak to be overwritten in case of other 
  *       implementations in user file.
  * @retval tick value
  */
__weak uint32_t HAL_GetTick(void)
{
 8000a18:	b480      	push	{r7}
 8000a1a:	af00      	add	r7, sp, #0
  return uwTick;
 8000a1c:	4b03      	ldr	r3, [pc, #12]	; (8000a2c <HAL_GetTick+0x14>)
 8000a1e:	681b      	ldr	r3, [r3, #0]
}
 8000a20:	4618      	mov	r0, r3
 8000a22:	46bd      	mov	sp, r7
 8000a24:	f85d 7b04 	ldr.w	r7, [sp], #4
 8000a28:	4770      	bx	lr
 8000a2a:	bf00      	nop
 8000a2c:	20000074 	.word	0x20000074

08000a30 <HAL_Delay>:
  *       implementations in user file.
  * @param Delay specifies the delay time length, in milliseconds.
  * @retval None
  */
__weak void HAL_Delay(uint32_t Delay)
{
 8000a30:	b580      	push	{r7, lr}
 8000a32:	b084      	sub	sp, #16
 8000a34:	af00      	add	r7, sp, #0
 8000a36:	6078      	str	r0, [r7, #4]
  uint32_t tickstart = HAL_GetTick();
 8000a38:	f7ff ffee 	bl	8000a18 <HAL_GetTick>
 8000a3c:	60b8      	str	r0, [r7, #8]
  uint32_t wait = Delay;
 8000a3e:	687b      	ldr	r3, [r7, #4]
 8000a40:	60fb      	str	r3, [r7, #12]

  /* Add a freq to guarantee minimum wait */
  if (wait < HAL_MAX_DELAY)
 8000a42:	68fb      	ldr	r3, [r7, #12]
 8000a44:	f1b3 3fff 	cmp.w	r3, #4294967295
 8000a48:	d005      	beq.n	8000a56 <HAL_Delay+0x26>
  {
    wait += (uint32_t)(uwTickFreq);
 8000a4a:	4b0a      	ldr	r3, [pc, #40]	; (8000a74 <HAL_Delay+0x44>)
 8000a4c:	781b      	ldrb	r3, [r3, #0]
 8000a4e:	461a      	mov	r2, r3
 8000a50:	68fb      	ldr	r3, [r7, #12]
 8000a52:	4413      	add	r3, r2
 8000a54:	60fb      	str	r3, [r7, #12]
  }

  while((HAL_GetTick() - tickstart) < wait)
 8000a56:	bf00      	nop
 8000a58:	f7ff ffde 	bl	8000a18 <HAL_GetTick>
 8000a5c:	4602      	mov	r2, r0
 8000a5e:	68bb      	ldr	r3, [r7, #8]
 8000a60:	1ad3      	subs	r3, r2, r3
 8000a62:	68fa      	ldr	r2, [r7, #12]
 8000a64:	429a      	cmp	r2, r3
 8000a66:	d8f7      	bhi.n	8000a58 <HAL_Delay+0x28>
  {
  }
}
 8000a68:	bf00      	nop
 8000a6a:	bf00      	nop
 8000a6c:	3710      	adds	r7, #16
 8000a6e:	46bd      	mov	sp, r7
 8000a70:	bd80      	pop	{r7, pc}
 8000a72:	bf00      	nop
 8000a74:	20000008 	.word	0x20000008

08000a78 <HAL_ADC_Init>:
  * @param  hadc pointer to a ADC_HandleTypeDef structure that contains
  *         the configuration information for the specified ADC.  
  * @retval HAL status
  */
HAL_StatusTypeDef HAL_ADC_Init(ADC_HandleTypeDef* hadc)
{
 8000a78:	b580      	push	{r7, lr}
 8000a7a:	b084      	sub	sp, #16
 8000a7c:	af00      	add	r7, sp, #0
 8000a7e:	6078      	str	r0, [r7, #4]
  HAL_StatusTypeDef tmp_hal_status = HAL_OK;
 8000a80:	2300      	movs	r3, #0
 8000a82:	73fb      	strb	r3, [r7, #15]
  
  /* Check ADC handle */
  if(hadc == NULL)
 8000a84:	687b      	ldr	r3, [r7, #4]
 8000a86:	2b00      	cmp	r3, #0
 8000a88:	d101      	bne.n	8000a8e <HAL_ADC_Init+0x16>
  {
    return HAL_ERROR;
 8000a8a:	2301      	movs	r3, #1
 8000a8c:	e033      	b.n	8000af6 <HAL_ADC_Init+0x7e>
  if(hadc->Init.ExternalTrigConv != ADC_SOFTWARE_START)
  {
    assert_param(IS_ADC_EXT_TRIG_EDGE(hadc->Init.ExternalTrigConvEdge));
  }
  
  if(hadc->State == HAL_ADC_STATE_RESET)
 8000a8e:	687b      	ldr	r3, [r7, #4]
 8000a90:	6c1b      	ldr	r3, [r3, #64]	; 0x40
 8000a92:	2b00      	cmp	r3, #0
 8000a94:	d109      	bne.n	8000aaa <HAL_ADC_Init+0x32>

    /* Init the low level hardware */
    hadc->MspInitCallback(hadc);
#else
    /* Init the low level hardware */
    HAL_ADC_MspInit(hadc);
 8000a96:	6878      	ldr	r0, [r7, #4]
 8000a98:	f7ff fe9c 	bl	80007d4 <HAL_ADC_MspInit>
#endif /* USE_HAL_ADC_REGISTER_CALLBACKS */

    /* Initialize ADC error code */
    ADC_CLEAR_ERRORCODE(hadc);
 8000a9c:	687b      	ldr	r3, [r7, #4]
 8000a9e:	2200      	movs	r2, #0
 8000aa0:	645a      	str	r2, [r3, #68]	; 0x44
    
    /* Allocate lock resource and initialize it */
    hadc->Lock = HAL_UNLOCKED;
 8000aa2:	687b      	ldr	r3, [r7, #4]
 8000aa4:	2200      	movs	r2, #0
 8000aa6:	f883 203c 	strb.w	r2, [r3, #60]	; 0x3c
  }
  
  /* Configuration of ADC parameters if previous preliminary actions are      */ 
  /* correctly completed.                                                     */
  if (HAL_IS_BIT_CLR(hadc->State, HAL_ADC_STATE_ERROR_INTERNAL))
 8000aaa:	687b      	ldr	r3, [r7, #4]
 8000aac:	6c1b      	ldr	r3, [r3, #64]	; 0x40
 8000aae:	f003 0310 	and.w	r3, r3, #16
 8000ab2:	2b00      	cmp	r3, #0
 8000ab4:	d118      	bne.n	8000ae8 <HAL_ADC_Init+0x70>
  {
    /* Set ADC state */
    ADC_STATE_CLR_SET(hadc->State,
 8000ab6:	687b      	ldr	r3, [r7, #4]
 8000ab8:	6c1b      	ldr	r3, [r3, #64]	; 0x40
 8000aba:	f423 5388 	bic.w	r3, r3, #4352	; 0x1100
 8000abe:	f023 0302 	bic.w	r3, r3, #2
 8000ac2:	f043 0202 	orr.w	r2, r3, #2
 8000ac6:	687b      	ldr	r3, [r7, #4]
 8000ac8:	641a      	str	r2, [r3, #64]	; 0x40
                      HAL_ADC_STATE_REG_BUSY | HAL_ADC_STATE_INJ_BUSY,
                      HAL_ADC_STATE_BUSY_INTERNAL);
    
    /* Set ADC parameters */
    ADC_Init(hadc);
 8000aca:	6878      	ldr	r0, [r7, #4]
 8000acc:	f000 fb4a 	bl	8001164 <ADC_Init>
    
    /* Set ADC error code to none */
    ADC_CLEAR_ERRORCODE(hadc);
 8000ad0:	687b      	ldr	r3, [r7, #4]
 8000ad2:	2200      	movs	r2, #0
 8000ad4:	645a      	str	r2, [r3, #68]	; 0x44
    
    /* Set the ADC state */
    ADC_STATE_CLR_SET(hadc->State,
 8000ad6:	687b      	ldr	r3, [r7, #4]
 8000ad8:	6c1b      	ldr	r3, [r3, #64]	; 0x40
 8000ada:	f023 0303 	bic.w	r3, r3, #3
 8000ade:	f043 0201 	orr.w	r2, r3, #1
 8000ae2:	687b      	ldr	r3, [r7, #4]
 8000ae4:	641a      	str	r2, [r3, #64]	; 0x40
 8000ae6:	e001      	b.n	8000aec <HAL_ADC_Init+0x74>
                      HAL_ADC_STATE_BUSY_INTERNAL,
                      HAL_ADC_STATE_READY);
  }
  else
  {
    tmp_hal_status = HAL_ERROR;
 8000ae8:	2301      	movs	r3, #1
 8000aea:	73fb      	strb	r3, [r7, #15]
  }
  
  /* Release Lock */
  __HAL_UNLOCK(hadc);
 8000aec:	687b      	ldr	r3, [r7, #4]
 8000aee:	2200      	movs	r2, #0
 8000af0:	f883 203c 	strb.w	r2, [r3, #60]	; 0x3c

  /* Return function status */
  return tmp_hal_status;
 8000af4:	7bfb      	ldrb	r3, [r7, #15]
}
 8000af6:	4618      	mov	r0, r3
 8000af8:	3710      	adds	r7, #16
 8000afa:	46bd      	mov	sp, r7
 8000afc:	bd80      	pop	{r7, pc}
	...

08000b00 <HAL_ADC_Start_IT>:
  * @param  hadc pointer to a ADC_HandleTypeDef structure that contains
  *         the configuration information for the specified ADC.
  * @retval HAL status.
  */
HAL_StatusTypeDef HAL_ADC_Start_IT(ADC_HandleTypeDef* hadc)
{
 8000b00:	b480      	push	{r7}
 8000b02:	b085      	sub	sp, #20
 8000b04:	af00      	add	r7, sp, #0
 8000b06:	6078      	str	r0, [r7, #4]
  __IO uint32_t counter = 0U;
 8000b08:	2300      	movs	r3, #0
 8000b0a:	60bb      	str	r3, [r7, #8]
  /* Check the parameters */
  assert_param(IS_FUNCTIONAL_STATE(hadc->Init.ContinuousConvMode));
  assert_param(IS_ADC_EXT_TRIG_EDGE(hadc->Init.ExternalTrigConvEdge)); 
  
  /* Process locked */
  __HAL_LOCK(hadc);
 8000b0c:	687b      	ldr	r3, [r7, #4]
 8000b0e:	f893 303c 	ldrb.w	r3, [r3, #60]	; 0x3c
 8000b12:	2b01      	cmp	r3, #1
 8000b14:	d101      	bne.n	8000b1a <HAL_ADC_Start_IT+0x1a>
 8000b16:	2302      	movs	r3, #2
 8000b18:	e0bd      	b.n	8000c96 <HAL_ADC_Start_IT+0x196>
 8000b1a:	687b      	ldr	r3, [r7, #4]
 8000b1c:	2201      	movs	r2, #1
 8000b1e:	f883 203c 	strb.w	r2, [r3, #60]	; 0x3c
  
  /* Enable the ADC peripheral */
  /* Check if ADC peripheral is disabled in order to enable it and wait during 
  Tstab time the ADC's stabilization */
  if((hadc->Instance->CR2 & ADC_CR2_ADON) != ADC_CR2_ADON)
 8000b22:	687b      	ldr	r3, [r7, #4]
 8000b24:	681b      	ldr	r3, [r3, #0]
 8000b26:	689b      	ldr	r3, [r3, #8]
 8000b28:	f003 0301 	and.w	r3, r3, #1
 8000b2c:	2b01      	cmp	r3, #1
 8000b2e:	d018      	beq.n	8000b62 <HAL_ADC_Start_IT+0x62>
  {  
    /* Enable the Peripheral */
    __HAL_ADC_ENABLE(hadc);
 8000b30:	687b      	ldr	r3, [r7, #4]
 8000b32:	681b      	ldr	r3, [r3, #0]
 8000b34:	689a      	ldr	r2, [r3, #8]
 8000b36:	687b      	ldr	r3, [r7, #4]
 8000b38:	681b      	ldr	r3, [r3, #0]
 8000b3a:	f042 0201 	orr.w	r2, r2, #1
 8000b3e:	609a      	str	r2, [r3, #8]
    
    /* Delay for ADC stabilization time */
    /* Compute number of CPU cycles to wait for */
    counter = (ADC_STAB_DELAY_US * (SystemCoreClock / 1000000U));
 8000b40:	4b58      	ldr	r3, [pc, #352]	; (8000ca4 <HAL_ADC_Start_IT+0x1a4>)
 8000b42:	681b      	ldr	r3, [r3, #0]
 8000b44:	4a58      	ldr	r2, [pc, #352]	; (8000ca8 <HAL_ADC_Start_IT+0x1a8>)
 8000b46:	fba2 2303 	umull	r2, r3, r2, r3
 8000b4a:	0c9a      	lsrs	r2, r3, #18
 8000b4c:	4613      	mov	r3, r2
 8000b4e:	005b      	lsls	r3, r3, #1
 8000b50:	4413      	add	r3, r2
 8000b52:	60bb      	str	r3, [r7, #8]
    while(counter != 0U)
 8000b54:	e002      	b.n	8000b5c <HAL_ADC_Start_IT+0x5c>
    {
      counter--;
 8000b56:	68bb      	ldr	r3, [r7, #8]
 8000b58:	3b01      	subs	r3, #1
 8000b5a:	60bb      	str	r3, [r7, #8]
    while(counter != 0U)
 8000b5c:	68bb      	ldr	r3, [r7, #8]
 8000b5e:	2b00      	cmp	r3, #0
 8000b60:	d1f9      	bne.n	8000b56 <HAL_ADC_Start_IT+0x56>
    }
  }
  
  /* Start conversion if ADC is effectively enabled */
  if(HAL_IS_BIT_SET(hadc->Instance->CR2, ADC_CR2_ADON))
 8000b62:	687b      	ldr	r3, [r7, #4]
 8000b64:	681b      	ldr	r3, [r3, #0]
 8000b66:	689b      	ldr	r3, [r3, #8]
 8000b68:	f003 0301 	and.w	r3, r3, #1
 8000b6c:	2b01      	cmp	r3, #1
 8000b6e:	f040 8085 	bne.w	8000c7c <HAL_ADC_Start_IT+0x17c>
  {
    /* Set ADC state                                                          */
    /* - Clear state bitfield related to regular group conversion results     */
    /* - Set state bitfield related to regular group operation                */
    ADC_STATE_CLR_SET(hadc->State,
 8000b72:	687b      	ldr	r3, [r7, #4]
 8000b74:	6c1b      	ldr	r3, [r3, #64]	; 0x40
 8000b76:	f423 63e0 	bic.w	r3, r3, #1792	; 0x700
 8000b7a:	f023 0301 	bic.w	r3, r3, #1
 8000b7e:	f443 7280 	orr.w	r2, r3, #256	; 0x100
 8000b82:	687b      	ldr	r3, [r7, #4]
 8000b84:	641a      	str	r2, [r3, #64]	; 0x40
                      HAL_ADC_STATE_READY | HAL_ADC_STATE_REG_EOC | HAL_ADC_STATE_REG_OVR,
                      HAL_ADC_STATE_REG_BUSY);
    
    /* If conversions on group regular are also triggering group injected,    */
    /* update ADC state.                                                      */
    if (READ_BIT(hadc->Instance->CR1, ADC_CR1_JAUTO) != RESET)
 8000b86:	687b      	ldr	r3, [r7, #4]
 8000b88:	681b      	ldr	r3, [r3, #0]
 8000b8a:	685b      	ldr	r3, [r3, #4]
 8000b8c:	f403 6380 	and.w	r3, r3, #1024	; 0x400
 8000b90:	2b00      	cmp	r3, #0
 8000b92:	d007      	beq.n	8000ba4 <HAL_ADC_Start_IT+0xa4>
    {
      ADC_STATE_CLR_SET(hadc->State, HAL_ADC_STATE_INJ_EOC, HAL_ADC_STATE_INJ_BUSY);  
 8000b94:	687b      	ldr	r3, [r7, #4]
 8000b96:	6c1b      	ldr	r3, [r3, #64]	; 0x40
 8000b98:	f423 5340 	bic.w	r3, r3, #12288	; 0x3000
 8000b9c:	f443 5280 	orr.w	r2, r3, #4096	; 0x1000
 8000ba0:	687b      	ldr	r3, [r7, #4]
 8000ba2:	641a      	str	r2, [r3, #64]	; 0x40
    }
    
    /* State machine update: Check if an injected conversion is ongoing */
    if (HAL_IS_BIT_SET(hadc->State, HAL_ADC_STATE_INJ_BUSY))
 8000ba4:	687b      	ldr	r3, [r7, #4]
 8000ba6:	6c1b      	ldr	r3, [r3, #64]	; 0x40
 8000ba8:	f403 5380 	and.w	r3, r3, #4096	; 0x1000
 8000bac:	f5b3 5f80 	cmp.w	r3, #4096	; 0x1000
 8000bb0:	d106      	bne.n	8000bc0 <HAL_ADC_Start_IT+0xc0>
    {
      /* Reset ADC error code fields related to conversions on group regular */
      CLEAR_BIT(hadc->ErrorCode, (HAL_ADC_ERROR_OVR | HAL_ADC_ERROR_DMA));         
 8000bb2:	687b      	ldr	r3, [r7, #4]
 8000bb4:	6c5b      	ldr	r3, [r3, #68]	; 0x44
 8000bb6:	f023 0206 	bic.w	r2, r3, #6
 8000bba:	687b      	ldr	r3, [r7, #4]
 8000bbc:	645a      	str	r2, [r3, #68]	; 0x44
 8000bbe:	e002      	b.n	8000bc6 <HAL_ADC_Start_IT+0xc6>
    }
    else
    {
      /* Reset ADC all error code fields */
      ADC_CLEAR_ERRORCODE(hadc);
 8000bc0:	687b      	ldr	r3, [r7, #4]
 8000bc2:	2200      	movs	r2, #0
 8000bc4:	645a      	str	r2, [r3, #68]	; 0x44
    }

    /* Process unlocked */
    /* Unlock before starting ADC conversions: in case of potential           */
    /* interruption, to let the process to ADC IRQ Handler.                   */
    __HAL_UNLOCK(hadc);
 8000bc6:	687b      	ldr	r3, [r7, #4]
 8000bc8:	2200      	movs	r2, #0
 8000bca:	f883 203c 	strb.w	r2, [r3, #60]	; 0x3c

    /* Pointer to the common control register to which is belonging hadc    */
    /* (Depending on STM32F4 product, there may be up to 3 ADCs and 1 common */
    /* control register)                                                    */
    tmpADC_Common = ADC_COMMON_REGISTER(hadc);
 8000bce:	4b37      	ldr	r3, [pc, #220]	; (8000cac <HAL_ADC_Start_IT+0x1ac>)
 8000bd0:	60fb      	str	r3, [r7, #12]

    /* Clear regular group conversion flag and overrun flag */
    /* (To ensure of no unknown state from potential previous ADC operations) */
    __HAL_ADC_CLEAR_FLAG(hadc, ADC_FLAG_EOC | ADC_FLAG_OVR);
 8000bd2:	687b      	ldr	r3, [r7, #4]
 8000bd4:	681b      	ldr	r3, [r3, #0]
 8000bd6:	f06f 0222 	mvn.w	r2, #34	; 0x22
 8000bda:	601a      	str	r2, [r3, #0]
    
    /* Enable end of conversion interrupt for regular group */
    __HAL_ADC_ENABLE_IT(hadc, (ADC_IT_EOC | ADC_IT_OVR));
 8000bdc:	687b      	ldr	r3, [r7, #4]
 8000bde:	681b      	ldr	r3, [r3, #0]
 8000be0:	685b      	ldr	r3, [r3, #4]
 8000be2:	687a      	ldr	r2, [r7, #4]
 8000be4:	6812      	ldr	r2, [r2, #0]
 8000be6:	f043 6380 	orr.w	r3, r3, #67108864	; 0x4000000
 8000bea:	f043 0320 	orr.w	r3, r3, #32
 8000bee:	6053      	str	r3, [r2, #4]
    
    /* Check if Multimode enabled */
    if(HAL_IS_BIT_CLR(tmpADC_Common->CCR, ADC_CCR_MULTI))
 8000bf0:	68fb      	ldr	r3, [r7, #12]
 8000bf2:	685b      	ldr	r3, [r3, #4]
 8000bf4:	f003 031f 	and.w	r3, r3, #31
 8000bf8:	2b00      	cmp	r3, #0
 8000bfa:	d12a      	bne.n	8000c52 <HAL_ADC_Start_IT+0x152>
    {
#if defined(ADC2) && defined(ADC3)
      if((hadc->Instance == ADC1) || ((hadc->Instance == ADC2) && ((ADC->CCR & ADC_CCR_MULTI_Msk) < ADC_CCR_MULTI_0)) \
 8000bfc:	687b      	ldr	r3, [r7, #4]
 8000bfe:	681b      	ldr	r3, [r3, #0]
 8000c00:	4a2b      	ldr	r2, [pc, #172]	; (8000cb0 <HAL_ADC_Start_IT+0x1b0>)
 8000c02:	4293      	cmp	r3, r2
 8000c04:	d015      	beq.n	8000c32 <HAL_ADC_Start_IT+0x132>
 8000c06:	687b      	ldr	r3, [r7, #4]
 8000c08:	681b      	ldr	r3, [r3, #0]
 8000c0a:	4a2a      	ldr	r2, [pc, #168]	; (8000cb4 <HAL_ADC_Start_IT+0x1b4>)
 8000c0c:	4293      	cmp	r3, r2
 8000c0e:	d105      	bne.n	8000c1c <HAL_ADC_Start_IT+0x11c>
 8000c10:	4b26      	ldr	r3, [pc, #152]	; (8000cac <HAL_ADC_Start_IT+0x1ac>)
 8000c12:	685b      	ldr	r3, [r3, #4]
 8000c14:	f003 031f 	and.w	r3, r3, #31
 8000c18:	2b00      	cmp	r3, #0
 8000c1a:	d00a      	beq.n	8000c32 <HAL_ADC_Start_IT+0x132>
                                  || ((hadc->Instance == ADC3) && ((ADC->CCR & ADC_CCR_MULTI_Msk) < ADC_CCR_MULTI_4)))
 8000c1c:	687b      	ldr	r3, [r7, #4]
 8000c1e:	681b      	ldr	r3, [r3, #0]
 8000c20:	4a25      	ldr	r2, [pc, #148]	; (8000cb8 <HAL_ADC_Start_IT+0x1b8>)
 8000c22:	4293      	cmp	r3, r2
 8000c24:	d136      	bne.n	8000c94 <HAL_ADC_Start_IT+0x194>
 8000c26:	4b21      	ldr	r3, [pc, #132]	; (8000cac <HAL_ADC_Start_IT+0x1ac>)
 8000c28:	685b      	ldr	r3, [r3, #4]
 8000c2a:	f003 0310 	and.w	r3, r3, #16
 8000c2e:	2b00      	cmp	r3, #0
 8000c30:	d130      	bne.n	8000c94 <HAL_ADC_Start_IT+0x194>
      {
#endif /* ADC2 || ADC3 */
        /* if no external trigger present enable software conversion of regular channels */
        if((hadc->Instance->CR2 & ADC_CR2_EXTEN) == RESET) 
 8000c32:	687b      	ldr	r3, [r7, #4]
 8000c34:	681b      	ldr	r3, [r3, #0]
 8000c36:	689b      	ldr	r3, [r3, #8]
 8000c38:	f003 5340 	and.w	r3, r3, #805306368	; 0x30000000
 8000c3c:	2b00      	cmp	r3, #0
 8000c3e:	d129      	bne.n	8000c94 <HAL_ADC_Start_IT+0x194>
        {
          /* Enable the selected ADC software conversion for regular group */
          hadc->Instance->CR2 |= (uint32_t)ADC_CR2_SWSTART;
 8000c40:	687b      	ldr	r3, [r7, #4]
 8000c42:	681b      	ldr	r3, [r3, #0]
 8000c44:	689a      	ldr	r2, [r3, #8]
 8000c46:	687b      	ldr	r3, [r7, #4]
 8000c48:	681b      	ldr	r3, [r3, #0]
 8000c4a:	f042 4280 	orr.w	r2, r2, #1073741824	; 0x40000000
 8000c4e:	609a      	str	r2, [r3, #8]
 8000c50:	e020      	b.n	8000c94 <HAL_ADC_Start_IT+0x194>
#endif /* ADC2 || ADC3 */
    }
    else
    {
      /* if instance of handle correspond to ADC1 and  no external trigger present enable software conversion of regular channels */
      if((hadc->Instance == ADC1) && ((hadc->Instance->CR2 & ADC_CR2_EXTEN) == RESET))
 8000c52:	687b      	ldr	r3, [r7, #4]
 8000c54:	681b      	ldr	r3, [r3, #0]
 8000c56:	4a16      	ldr	r2, [pc, #88]	; (8000cb0 <HAL_ADC_Start_IT+0x1b0>)
 8000c58:	4293      	cmp	r3, r2
 8000c5a:	d11b      	bne.n	8000c94 <HAL_ADC_Start_IT+0x194>
 8000c5c:	687b      	ldr	r3, [r7, #4]
 8000c5e:	681b      	ldr	r3, [r3, #0]
 8000c60:	689b      	ldr	r3, [r3, #8]
 8000c62:	f003 5340 	and.w	r3, r3, #805306368	; 0x30000000
 8000c66:	2b00      	cmp	r3, #0
 8000c68:	d114      	bne.n	8000c94 <HAL_ADC_Start_IT+0x194>
      {
        /* Enable the selected ADC software conversion for regular group */
          hadc->Instance->CR2 |= (uint32_t)ADC_CR2_SWSTART;
 8000c6a:	687b      	ldr	r3, [r7, #4]
 8000c6c:	681b      	ldr	r3, [r3, #0]
 8000c6e:	689a      	ldr	r2, [r3, #8]
 8000c70:	687b      	ldr	r3, [r7, #4]
 8000c72:	681b      	ldr	r3, [r3, #0]
 8000c74:	f042 4280 	orr.w	r2, r2, #1073741824	; 0x40000000
 8000c78:	609a      	str	r2, [r3, #8]
 8000c7a:	e00b      	b.n	8000c94 <HAL_ADC_Start_IT+0x194>
    }
  }
  else
  {
    /* Update ADC state machine to error */
    SET_BIT(hadc->State, HAL_ADC_STATE_ERROR_INTERNAL);
 8000c7c:	687b      	ldr	r3, [r7, #4]
 8000c7e:	6c1b      	ldr	r3, [r3, #64]	; 0x40
 8000c80:	f043 0210 	orr.w	r2, r3, #16
 8000c84:	687b      	ldr	r3, [r7, #4]
 8000c86:	641a      	str	r2, [r3, #64]	; 0x40

    /* Set ADC error code to ADC IP internal error */
    SET_BIT(hadc->ErrorCode, HAL_ADC_ERROR_INTERNAL);
 8000c88:	687b      	ldr	r3, [r7, #4]
 8000c8a:	6c5b      	ldr	r3, [r3, #68]	; 0x44
 8000c8c:	f043 0201 	orr.w	r2, r3, #1
 8000c90:	687b      	ldr	r3, [r7, #4]
 8000c92:	645a      	str	r2, [r3, #68]	; 0x44
  }
  
  /* Return function status */
  return HAL_OK;
 8000c94:	2300      	movs	r3, #0
}
 8000c96:	4618      	mov	r0, r3
 8000c98:	3714      	adds	r7, #20
 8000c9a:	46bd      	mov	sp, r7
 8000c9c:	f85d 7b04 	ldr.w	r7, [sp], #4
 8000ca0:	4770      	bx	lr
 8000ca2:	bf00      	nop
 8000ca4:	20000000 	.word	0x20000000
 8000ca8:	431bde83 	.word	0x431bde83
 8000cac:	40012300 	.word	0x40012300
 8000cb0:	40012000 	.word	0x40012000
 8000cb4:	40012100 	.word	0x40012100
 8000cb8:	40012200 	.word	0x40012200

08000cbc <HAL_ADC_IRQHandler>:
  * @param  hadc pointer to a ADC_HandleTypeDef structure that contains
  *         the configuration information for the specified ADC.
  * @retval None
  */
void HAL_ADC_IRQHandler(ADC_HandleTypeDef* hadc)
{
 8000cbc:	b580      	push	{r7, lr}
 8000cbe:	b086      	sub	sp, #24
 8000cc0:	af00      	add	r7, sp, #0
 8000cc2:	6078      	str	r0, [r7, #4]
  uint32_t tmp1 = 0U, tmp2 = 0U;
 8000cc4:	2300      	movs	r3, #0
 8000cc6:	617b      	str	r3, [r7, #20]
 8000cc8:	2300      	movs	r3, #0
 8000cca:	613b      	str	r3, [r7, #16]
  
  uint32_t tmp_sr = hadc->Instance->SR;
 8000ccc:	687b      	ldr	r3, [r7, #4]
 8000cce:	681b      	ldr	r3, [r3, #0]
 8000cd0:	681b      	ldr	r3, [r3, #0]
 8000cd2:	60fb      	str	r3, [r7, #12]
  uint32_t tmp_cr1 = hadc->Instance->CR1;
 8000cd4:	687b      	ldr	r3, [r7, #4]
 8000cd6:	681b      	ldr	r3, [r3, #0]
 8000cd8:	685b      	ldr	r3, [r3, #4]
 8000cda:	60bb      	str	r3, [r7, #8]
  /* Check the parameters */
  assert_param(IS_FUNCTIONAL_STATE(hadc->Init.ContinuousConvMode));
  assert_param(IS_ADC_REGULAR_LENGTH(hadc->Init.NbrOfConversion));
  assert_param(IS_ADC_EOCSelection(hadc->Init.EOCSelection));
  
  tmp1 = tmp_sr & ADC_FLAG_EOC;
 8000cdc:	68fb      	ldr	r3, [r7, #12]
 8000cde:	f003 0302 	and.w	r3, r3, #2
 8000ce2:	617b      	str	r3, [r7, #20]
  tmp2 = tmp_cr1 & ADC_IT_EOC;
 8000ce4:	68bb      	ldr	r3, [r7, #8]
 8000ce6:	f003 0320 	and.w	r3, r3, #32
 8000cea:	613b      	str	r3, [r7, #16]
  /* Check End of conversion flag for regular channels */
  if(tmp1 && tmp2)
 8000cec:	697b      	ldr	r3, [r7, #20]
 8000cee:	2b00      	cmp	r3, #0
 8000cf0:	d049      	beq.n	8000d86 <HAL_ADC_IRQHandler+0xca>
 8000cf2:	693b      	ldr	r3, [r7, #16]
 8000cf4:	2b00      	cmp	r3, #0
 8000cf6:	d046      	beq.n	8000d86 <HAL_ADC_IRQHandler+0xca>
  {
    /* Update state machine on conversion status if not in error state */
    if (HAL_IS_BIT_CLR(hadc->State, HAL_ADC_STATE_ERROR_INTERNAL))
 8000cf8:	687b      	ldr	r3, [r7, #4]
 8000cfa:	6c1b      	ldr	r3, [r3, #64]	; 0x40
 8000cfc:	f003 0310 	and.w	r3, r3, #16
 8000d00:	2b00      	cmp	r3, #0
 8000d02:	d105      	bne.n	8000d10 <HAL_ADC_IRQHandler+0x54>
    {
      /* Set ADC state */
      SET_BIT(hadc->State, HAL_ADC_STATE_REG_EOC); 
 8000d04:	687b      	ldr	r3, [r7, #4]
 8000d06:	6c1b      	ldr	r3, [r3, #64]	; 0x40
 8000d08:	f443 7200 	orr.w	r2, r3, #512	; 0x200
 8000d0c:	687b      	ldr	r3, [r7, #4]
 8000d0e:	641a      	str	r2, [r3, #64]	; 0x40
    /* by external trigger, continuous mode or scan sequence on going.      */
    /* Note: On STM32F4, there is no independent flag of end of sequence.   */
    /*       The test of scan sequence on going is done either with scan    */
    /*       sequence disabled or with end of conversion flag set to        */
    /*       of end of sequence.                                            */
    if(ADC_IS_SOFTWARE_START_REGULAR(hadc)                   &&
 8000d10:	687b      	ldr	r3, [r7, #4]
 8000d12:	681b      	ldr	r3, [r3, #0]
 8000d14:	689b      	ldr	r3, [r3, #8]
 8000d16:	f003 5340 	and.w	r3, r3, #805306368	; 0x30000000
 8000d1a:	2b00      	cmp	r3, #0
 8000d1c:	d12b      	bne.n	8000d76 <HAL_ADC_IRQHandler+0xba>
       (hadc->Init.ContinuousConvMode == DISABLE)            &&
 8000d1e:	687b      	ldr	r3, [r7, #4]
 8000d20:	7e1b      	ldrb	r3, [r3, #24]
    if(ADC_IS_SOFTWARE_START_REGULAR(hadc)                   &&
 8000d22:	2b00      	cmp	r3, #0
 8000d24:	d127      	bne.n	8000d76 <HAL_ADC_IRQHandler+0xba>
       (HAL_IS_BIT_CLR(hadc->Instance->SQR1, ADC_SQR1_L) || 
 8000d26:	687b      	ldr	r3, [r7, #4]
 8000d28:	681b      	ldr	r3, [r3, #0]
 8000d2a:	6adb      	ldr	r3, [r3, #44]	; 0x2c
 8000d2c:	f403 0370 	and.w	r3, r3, #15728640	; 0xf00000
       (hadc->Init.ContinuousConvMode == DISABLE)            &&
 8000d30:	2b00      	cmp	r3, #0
 8000d32:	d006      	beq.n	8000d42 <HAL_ADC_IRQHandler+0x86>
        HAL_IS_BIT_CLR(hadc->Instance->CR2, ADC_CR2_EOCS)  )   )
 8000d34:	687b      	ldr	r3, [r7, #4]
 8000d36:	681b      	ldr	r3, [r3, #0]
 8000d38:	689b      	ldr	r3, [r3, #8]
 8000d3a:	f403 6380 	and.w	r3, r3, #1024	; 0x400
       (HAL_IS_BIT_CLR(hadc->Instance->SQR1, ADC_SQR1_L) || 
 8000d3e:	2b00      	cmp	r3, #0
 8000d40:	d119      	bne.n	8000d76 <HAL_ADC_IRQHandler+0xba>
    {
      /* Disable ADC end of single conversion interrupt on group regular */
      /* Note: Overrun interrupt was enabled with EOC interrupt in          */
      /* HAL_ADC_Start_IT(), but is not disabled here because can be used   */
      /* by overrun IRQ process below.                                      */
      __HAL_ADC_DISABLE_IT(hadc, ADC_IT_EOC);
 8000d42:	687b      	ldr	r3, [r7, #4]
 8000d44:	681b      	ldr	r3, [r3, #0]
 8000d46:	685a      	ldr	r2, [r3, #4]
 8000d48:	687b      	ldr	r3, [r7, #4]
 8000d4a:	681b      	ldr	r3, [r3, #0]
 8000d4c:	f022 0220 	bic.w	r2, r2, #32
 8000d50:	605a      	str	r2, [r3, #4]
      
      /* Set ADC state */
      CLEAR_BIT(hadc->State, HAL_ADC_STATE_REG_BUSY);
 8000d52:	687b      	ldr	r3, [r7, #4]
 8000d54:	6c1b      	ldr	r3, [r3, #64]	; 0x40
 8000d56:	f423 7280 	bic.w	r2, r3, #256	; 0x100
 8000d5a:	687b      	ldr	r3, [r7, #4]
 8000d5c:	641a      	str	r2, [r3, #64]	; 0x40
      
      if (HAL_IS_BIT_CLR(hadc->State, HAL_ADC_STATE_INJ_BUSY))
 8000d5e:	687b      	ldr	r3, [r7, #4]
 8000d60:	6c1b      	ldr	r3, [r3, #64]	; 0x40
 8000d62:	f403 5380 	and.w	r3, r3, #4096	; 0x1000
 8000d66:	2b00      	cmp	r3, #0
 8000d68:	d105      	bne.n	8000d76 <HAL_ADC_IRQHandler+0xba>
      {
        SET_BIT(hadc->State, HAL_ADC_STATE_READY);
 8000d6a:	687b      	ldr	r3, [r7, #4]
 8000d6c:	6c1b      	ldr	r3, [r3, #64]	; 0x40
 8000d6e:	f043 0201 	orr.w	r2, r3, #1
 8000d72:	687b      	ldr	r3, [r7, #4]
 8000d74:	641a      	str	r2, [r3, #64]	; 0x40
    
    /* Conversion complete callback */
#if (USE_HAL_ADC_REGISTER_CALLBACKS == 1)
    hadc->ConvCpltCallback(hadc);
#else
    HAL_ADC_ConvCpltCallback(hadc);
 8000d76:	6878      	ldr	r0, [r7, #4]
 8000d78:	f7ff fcec 	bl	8000754 <HAL_ADC_ConvCpltCallback>
#endif /* USE_HAL_ADC_REGISTER_CALLBACKS */
    
    /* Clear regular group conversion flag */
    __HAL_ADC_CLEAR_FLAG(hadc, ADC_FLAG_STRT | ADC_FLAG_EOC);
 8000d7c:	687b      	ldr	r3, [r7, #4]
 8000d7e:	681b      	ldr	r3, [r3, #0]
 8000d80:	f06f 0212 	mvn.w	r2, #18
 8000d84:	601a      	str	r2, [r3, #0]
  }
  
  tmp1 = tmp_sr & ADC_FLAG_JEOC;
 8000d86:	68fb      	ldr	r3, [r7, #12]
 8000d88:	f003 0304 	and.w	r3, r3, #4
 8000d8c:	617b      	str	r3, [r7, #20]
  tmp2 = tmp_cr1 & ADC_IT_JEOC;
 8000d8e:	68bb      	ldr	r3, [r7, #8]
 8000d90:	f003 0380 	and.w	r3, r3, #128	; 0x80
 8000d94:	613b      	str	r3, [r7, #16]
  /* Check End of conversion flag for injected channels */
  if(tmp1 && tmp2)
 8000d96:	697b      	ldr	r3, [r7, #20]
 8000d98:	2b00      	cmp	r3, #0
 8000d9a:	d057      	beq.n	8000e4c <HAL_ADC_IRQHandler+0x190>
 8000d9c:	693b      	ldr	r3, [r7, #16]
 8000d9e:	2b00      	cmp	r3, #0
 8000da0:	d054      	beq.n	8000e4c <HAL_ADC_IRQHandler+0x190>
  {
    /* Update state machine on conversion status if not in error state */
    if (HAL_IS_BIT_CLR(hadc->State, HAL_ADC_STATE_ERROR_INTERNAL))
 8000da2:	687b      	ldr	r3, [r7, #4]
 8000da4:	6c1b      	ldr	r3, [r3, #64]	; 0x40
 8000da6:	f003 0310 	and.w	r3, r3, #16
 8000daa:	2b00      	cmp	r3, #0
 8000dac:	d105      	bne.n	8000dba <HAL_ADC_IRQHandler+0xfe>
    {
      /* Set ADC state */
      SET_BIT(hadc->State, HAL_ADC_STATE_INJ_EOC);
 8000dae:	687b      	ldr	r3, [r7, #4]
 8000db0:	6c1b      	ldr	r3, [r3, #64]	; 0x40
 8000db2:	f443 5200 	orr.w	r2, r3, #8192	; 0x2000
 8000db6:	687b      	ldr	r3, [r7, #4]
 8000db8:	641a      	str	r2, [r3, #64]	; 0x40

    /* Determine whether any further conversion upcoming on group injected  */
    /* by external trigger, scan sequence on going or by automatic injected */
    /* conversion from group regular (same conditions as group regular      */
    /* interruption disabling above).                                       */
    if(ADC_IS_SOFTWARE_START_INJECTED(hadc)                    &&
 8000dba:	687b      	ldr	r3, [r7, #4]
 8000dbc:	681b      	ldr	r3, [r3, #0]
 8000dbe:	689b      	ldr	r3, [r3, #8]
 8000dc0:	f403 1340 	and.w	r3, r3, #3145728	; 0x300000
 8000dc4:	2b00      	cmp	r3, #0
 8000dc6:	d139      	bne.n	8000e3c <HAL_ADC_IRQHandler+0x180>
       (HAL_IS_BIT_CLR(hadc->Instance->JSQR, ADC_JSQR_JL)  ||
 8000dc8:	687b      	ldr	r3, [r7, #4]
 8000dca:	681b      	ldr	r3, [r3, #0]
 8000dcc:	6b9b      	ldr	r3, [r3, #56]	; 0x38
 8000dce:	f403 1340 	and.w	r3, r3, #3145728	; 0x300000
    if(ADC_IS_SOFTWARE_START_INJECTED(hadc)                    &&
 8000dd2:	2b00      	cmp	r3, #0
 8000dd4:	d006      	beq.n	8000de4 <HAL_ADC_IRQHandler+0x128>
        HAL_IS_BIT_CLR(hadc->Instance->CR2, ADC_CR2_EOCS)    ) &&
 8000dd6:	687b      	ldr	r3, [r7, #4]
 8000dd8:	681b      	ldr	r3, [r3, #0]
 8000dda:	689b      	ldr	r3, [r3, #8]
 8000ddc:	f403 6380 	and.w	r3, r3, #1024	; 0x400
       (HAL_IS_BIT_CLR(hadc->Instance->JSQR, ADC_JSQR_JL)  ||
 8000de0:	2b00      	cmp	r3, #0
 8000de2:	d12b      	bne.n	8000e3c <HAL_ADC_IRQHandler+0x180>
       (HAL_IS_BIT_CLR(hadc->Instance->CR1, ADC_CR1_JAUTO) &&
 8000de4:	687b      	ldr	r3, [r7, #4]
 8000de6:	681b      	ldr	r3, [r3, #0]
 8000de8:	685b      	ldr	r3, [r3, #4]
 8000dea:	f403 6380 	and.w	r3, r3, #1024	; 0x400
        HAL_IS_BIT_CLR(hadc->Instance->CR2, ADC_CR2_EOCS)    ) &&
 8000dee:	2b00      	cmp	r3, #0
 8000df0:	d124      	bne.n	8000e3c <HAL_ADC_IRQHandler+0x180>
        (ADC_IS_SOFTWARE_START_REGULAR(hadc)       &&
 8000df2:	687b      	ldr	r3, [r7, #4]
 8000df4:	681b      	ldr	r3, [r3, #0]
 8000df6:	689b      	ldr	r3, [r3, #8]
 8000df8:	f003 5340 	and.w	r3, r3, #805306368	; 0x30000000
       (HAL_IS_BIT_CLR(hadc->Instance->CR1, ADC_CR1_JAUTO) &&
 8000dfc:	2b00      	cmp	r3, #0
 8000dfe:	d11d      	bne.n	8000e3c <HAL_ADC_IRQHandler+0x180>
        (hadc->Init.ContinuousConvMode == DISABLE)   )       )   )
 8000e00:	687b      	ldr	r3, [r7, #4]
 8000e02:	7e1b      	ldrb	r3, [r3, #24]
        (ADC_IS_SOFTWARE_START_REGULAR(hadc)       &&
 8000e04:	2b00      	cmp	r3, #0
 8000e06:	d119      	bne.n	8000e3c <HAL_ADC_IRQHandler+0x180>
    {
      /* Disable ADC end of single conversion interrupt on group injected */
      __HAL_ADC_DISABLE_IT(hadc, ADC_IT_JEOC);
 8000e08:	687b      	ldr	r3, [r7, #4]
 8000e0a:	681b      	ldr	r3, [r3, #0]
 8000e0c:	685a      	ldr	r2, [r3, #4]
 8000e0e:	687b      	ldr	r3, [r7, #4]
 8000e10:	681b      	ldr	r3, [r3, #0]
 8000e12:	f022 0280 	bic.w	r2, r2, #128	; 0x80
 8000e16:	605a      	str	r2, [r3, #4]
      
      /* Set ADC state */
      CLEAR_BIT(hadc->State, HAL_ADC_STATE_INJ_BUSY);   
 8000e18:	687b      	ldr	r3, [r7, #4]
 8000e1a:	6c1b      	ldr	r3, [r3, #64]	; 0x40
 8000e1c:	f423 5280 	bic.w	r2, r3, #4096	; 0x1000
 8000e20:	687b      	ldr	r3, [r7, #4]
 8000e22:	641a      	str	r2, [r3, #64]	; 0x40

      if (HAL_IS_BIT_CLR(hadc->State, HAL_ADC_STATE_REG_BUSY))
 8000e24:	687b      	ldr	r3, [r7, #4]
 8000e26:	6c1b      	ldr	r3, [r3, #64]	; 0x40
 8000e28:	f403 7380 	and.w	r3, r3, #256	; 0x100
 8000e2c:	2b00      	cmp	r3, #0
 8000e2e:	d105      	bne.n	8000e3c <HAL_ADC_IRQHandler+0x180>
      { 
        SET_BIT(hadc->State, HAL_ADC_STATE_READY);
 8000e30:	687b      	ldr	r3, [r7, #4]
 8000e32:	6c1b      	ldr	r3, [r3, #64]	; 0x40
 8000e34:	f043 0201 	orr.w	r2, r3, #1
 8000e38:	687b      	ldr	r3, [r7, #4]
 8000e3a:	641a      	str	r2, [r3, #64]	; 0x40
    /* Conversion complete callback */ 
    /* Conversion complete callback */ 
#if (USE_HAL_ADC_REGISTER_CALLBACKS == 1)
      hadc->InjectedConvCpltCallback(hadc);
#else
      HAL_ADCEx_InjectedConvCpltCallback(hadc);
 8000e3c:	6878      	ldr	r0, [r7, #4]
 8000e3e:	f000 fa8d 	bl	800135c <HAL_ADCEx_InjectedConvCpltCallback>
#endif /* USE_HAL_ADC_REGISTER_CALLBACKS */
    
    /* Clear injected group conversion flag */
    __HAL_ADC_CLEAR_FLAG(hadc, (ADC_FLAG_JSTRT | ADC_FLAG_JEOC));
 8000e42:	687b      	ldr	r3, [r7, #4]
 8000e44:	681b      	ldr	r3, [r3, #0]
 8000e46:	f06f 020c 	mvn.w	r2, #12
 8000e4a:	601a      	str	r2, [r3, #0]
  }
  
  tmp1 = tmp_sr & ADC_FLAG_AWD;
 8000e4c:	68fb      	ldr	r3, [r7, #12]
 8000e4e:	f003 0301 	and.w	r3, r3, #1
 8000e52:	617b      	str	r3, [r7, #20]
  tmp2 = tmp_cr1 & ADC_IT_AWD;
 8000e54:	68bb      	ldr	r3, [r7, #8]
 8000e56:	f003 0340 	and.w	r3, r3, #64	; 0x40
 8000e5a:	613b      	str	r3, [r7, #16]
  /* Check Analog watchdog flag */
  if(tmp1 && tmp2)
 8000e5c:	697b      	ldr	r3, [r7, #20]
 8000e5e:	2b00      	cmp	r3, #0
 8000e60:	d017      	beq.n	8000e92 <HAL_ADC_IRQHandler+0x1d6>
 8000e62:	693b      	ldr	r3, [r7, #16]
 8000e64:	2b00      	cmp	r3, #0
 8000e66:	d014      	beq.n	8000e92 <HAL_ADC_IRQHandler+0x1d6>
  {
    if(__HAL_ADC_GET_FLAG(hadc, ADC_FLAG_AWD))
 8000e68:	687b      	ldr	r3, [r7, #4]
 8000e6a:	681b      	ldr	r3, [r3, #0]
 8000e6c:	681b      	ldr	r3, [r3, #0]
 8000e6e:	f003 0301 	and.w	r3, r3, #1
 8000e72:	2b01      	cmp	r3, #1
 8000e74:	d10d      	bne.n	8000e92 <HAL_ADC_IRQHandler+0x1d6>
    {
      /* Set ADC state */
      SET_BIT(hadc->State, HAL_ADC_STATE_AWD1);
 8000e76:	687b      	ldr	r3, [r7, #4]
 8000e78:	6c1b      	ldr	r3, [r3, #64]	; 0x40
 8000e7a:	f443 3280 	orr.w	r2, r3, #65536	; 0x10000
 8000e7e:	687b      	ldr	r3, [r7, #4]
 8000e80:	641a      	str	r2, [r3, #64]	; 0x40
      
      /* Level out of window callback */
#if (USE_HAL_ADC_REGISTER_CALLBACKS == 1)
      hadc->LevelOutOfWindowCallback(hadc);
#else
      HAL_ADC_LevelOutOfWindowCallback(hadc);
 8000e82:	6878      	ldr	r0, [r7, #4]
 8000e84:	f000 f837 	bl	8000ef6 <HAL_ADC_LevelOutOfWindowCallback>
#endif /* USE_HAL_ADC_REGISTER_CALLBACKS */
      
      /* Clear the ADC analog watchdog flag */
      __HAL_ADC_CLEAR_FLAG(hadc, ADC_FLAG_AWD);
 8000e88:	687b      	ldr	r3, [r7, #4]
 8000e8a:	681b      	ldr	r3, [r3, #0]
 8000e8c:	f06f 0201 	mvn.w	r2, #1
 8000e90:	601a      	str	r2, [r3, #0]
    }
  }
  
  tmp1 = tmp_sr & ADC_FLAG_OVR;
 8000e92:	68fb      	ldr	r3, [r7, #12]
 8000e94:	f003 0320 	and.w	r3, r3, #32
 8000e98:	617b      	str	r3, [r7, #20]
  tmp2 = tmp_cr1 & ADC_IT_OVR;
 8000e9a:	68bb      	ldr	r3, [r7, #8]
 8000e9c:	f003 6380 	and.w	r3, r3, #67108864	; 0x4000000
 8000ea0:	613b      	str	r3, [r7, #16]
  /* Check Overrun flag */
  if(tmp1 && tmp2)
 8000ea2:	697b      	ldr	r3, [r7, #20]
 8000ea4:	2b00      	cmp	r3, #0
 8000ea6:	d015      	beq.n	8000ed4 <HAL_ADC_IRQHandler+0x218>
 8000ea8:	693b      	ldr	r3, [r7, #16]
 8000eaa:	2b00      	cmp	r3, #0
 8000eac:	d012      	beq.n	8000ed4 <HAL_ADC_IRQHandler+0x218>
    /* Note: On STM32F4, ADC overrun can be set through other parameters    */
    /*       refer to description of parameter "EOCSelection" for more      */
    /*       details.                                                       */
    
    /* Set ADC error code to overrun */
    SET_BIT(hadc->ErrorCode, HAL_ADC_ERROR_OVR);
 8000eae:	687b      	ldr	r3, [r7, #4]
 8000eb0:	6c5b      	ldr	r3, [r3, #68]	; 0x44
 8000eb2:	f043 0202 	orr.w	r2, r3, #2
 8000eb6:	687b      	ldr	r3, [r7, #4]
 8000eb8:	645a      	str	r2, [r3, #68]	; 0x44
    
    /* Clear ADC overrun flag */
    __HAL_ADC_CLEAR_FLAG(hadc, ADC_FLAG_OVR);
 8000eba:	687b      	ldr	r3, [r7, #4]
 8000ebc:	681b      	ldr	r3, [r3, #0]
 8000ebe:	f06f 0220 	mvn.w	r2, #32
 8000ec2:	601a      	str	r2, [r3, #0]
    
    /* Error callback */ 
#if (USE_HAL_ADC_REGISTER_CALLBACKS == 1)
      hadc->ErrorCallback(hadc);
#else
      HAL_ADC_ErrorCallback(hadc);
 8000ec4:	6878      	ldr	r0, [r7, #4]
 8000ec6:	f000 f820 	bl	8000f0a <HAL_ADC_ErrorCallback>
#endif /* USE_HAL_ADC_REGISTER_CALLBACKS */
    
    /* Clear the Overrun flag */
    __HAL_ADC_CLEAR_FLAG(hadc, ADC_FLAG_OVR);
 8000eca:	687b      	ldr	r3, [r7, #4]
 8000ecc:	681b      	ldr	r3, [r3, #0]
 8000ece:	f06f 0220 	mvn.w	r2, #32
 8000ed2:	601a      	str	r2, [r3, #0]
  }
}
 8000ed4:	bf00      	nop
 8000ed6:	3718      	adds	r7, #24
 8000ed8:	46bd      	mov	sp, r7
 8000eda:	bd80      	pop	{r7, pc}

08000edc <HAL_ADC_GetValue>:
  * @param  hadc pointer to a ADC_HandleTypeDef structure that contains
  *         the configuration information for the specified ADC.
  * @retval Converted value
  */
uint32_t HAL_ADC_GetValue(ADC_HandleTypeDef* hadc)
{       
 8000edc:	b480      	push	{r7}
 8000ede:	b083      	sub	sp, #12
 8000ee0:	af00      	add	r7, sp, #0
 8000ee2:	6078      	str	r0, [r7, #4]
  /* Return the selected ADC converted value */ 
  return hadc->Instance->DR;
 8000ee4:	687b      	ldr	r3, [r7, #4]
 8000ee6:	681b      	ldr	r3, [r3, #0]
 8000ee8:	6cdb      	ldr	r3, [r3, #76]	; 0x4c
}
 8000eea:	4618      	mov	r0, r3
 8000eec:	370c      	adds	r7, #12
 8000eee:	46bd      	mov	sp, r7
 8000ef0:	f85d 7b04 	ldr.w	r7, [sp], #4
 8000ef4:	4770      	bx	lr

08000ef6 <HAL_ADC_LevelOutOfWindowCallback>:
  * @param  hadc pointer to a ADC_HandleTypeDef structure that contains
  *         the configuration information for the specified ADC.
  * @retval None
  */
__weak void HAL_ADC_LevelOutOfWindowCallback(ADC_HandleTypeDef* hadc)
{
 8000ef6:	b480      	push	{r7}
 8000ef8:	b083      	sub	sp, #12
 8000efa:	af00      	add	r7, sp, #0
 8000efc:	6078      	str	r0, [r7, #4]
  /* Prevent unused argument(s) compilation warning */
  UNUSED(hadc);
  /* NOTE : This function Should not be modified, when the callback is needed,
            the HAL_ADC_LevelOoutOfWindowCallback could be implemented in the user file
   */
}
 8000efe:	bf00      	nop
 8000f00:	370c      	adds	r7, #12
 8000f02:	46bd      	mov	sp, r7
 8000f04:	f85d 7b04 	ldr.w	r7, [sp], #4
 8000f08:	4770      	bx	lr

08000f0a <HAL_ADC_ErrorCallback>:
  * @param  hadc pointer to a ADC_HandleTypeDef structure that contains
  *         the configuration information for the specified ADC.
  * @retval None
  */
__weak void HAL_ADC_ErrorCallback(ADC_HandleTypeDef *hadc)
{
 8000f0a:	b480      	push	{r7}
 8000f0c:	b083      	sub	sp, #12
 8000f0e:	af00      	add	r7, sp, #0
 8000f10:	6078      	str	r0, [r7, #4]
  /* Prevent unused argument(s) compilation warning */
  UNUSED(hadc);
  /* NOTE : This function Should not be modified, when the callback is needed,
            the HAL_ADC_ErrorCallback could be implemented in the user file
   */
}
 8000f12:	bf00      	nop
 8000f14:	370c      	adds	r7, #12
 8000f16:	46bd      	mov	sp, r7
 8000f18:	f85d 7b04 	ldr.w	r7, [sp], #4
 8000f1c:	4770      	bx	lr
	...

08000f20 <HAL_ADC_ConfigChannel>:
  *         the configuration information for the specified ADC.
  * @param  sConfig ADC configuration structure. 
  * @retval HAL status
  */
HAL_StatusTypeDef HAL_ADC_ConfigChannel(ADC_HandleTypeDef* hadc, ADC_ChannelConfTypeDef* sConfig)
{
 8000f20:	b480      	push	{r7}
 8000f22:	b085      	sub	sp, #20
 8000f24:	af00      	add	r7, sp, #0
 8000f26:	6078      	str	r0, [r7, #4]
 8000f28:	6039      	str	r1, [r7, #0]
  __IO uint32_t counter = 0U;
 8000f2a:	2300      	movs	r3, #0
 8000f2c:	60bb      	str	r3, [r7, #8]
  assert_param(IS_ADC_CHANNEL(sConfig->Channel));
  assert_param(IS_ADC_REGULAR_RANK(sConfig->Rank));
  assert_param(IS_ADC_SAMPLE_TIME(sConfig->SamplingTime));
  
  /* Process locked */
  __HAL_LOCK(hadc);
 8000f2e:	687b      	ldr	r3, [r7, #4]
 8000f30:	f893 303c 	ldrb.w	r3, [r3, #60]	; 0x3c
 8000f34:	2b01      	cmp	r3, #1
 8000f36:	d101      	bne.n	8000f3c <HAL_ADC_ConfigChannel+0x1c>
 8000f38:	2302      	movs	r3, #2
 8000f3a:	e105      	b.n	8001148 <HAL_ADC_ConfigChannel+0x228>
 8000f3c:	687b      	ldr	r3, [r7, #4]
 8000f3e:	2201      	movs	r2, #1
 8000f40:	f883 203c 	strb.w	r2, [r3, #60]	; 0x3c
    
  /* if ADC_Channel_10 ... ADC_Channel_18 is selected */
  if (sConfig->Channel > ADC_CHANNEL_9)
 8000f44:	683b      	ldr	r3, [r7, #0]
 8000f46:	681b      	ldr	r3, [r3, #0]
 8000f48:	2b09      	cmp	r3, #9
 8000f4a:	d925      	bls.n	8000f98 <HAL_ADC_ConfigChannel+0x78>
  {
    /* Clear the old sample time */
    hadc->Instance->SMPR1 &= ~ADC_SMPR1(ADC_SMPR1_SMP10, sConfig->Channel);
 8000f4c:	687b      	ldr	r3, [r7, #4]
 8000f4e:	681b      	ldr	r3, [r3, #0]
 8000f50:	68d9      	ldr	r1, [r3, #12]
 8000f52:	683b      	ldr	r3, [r7, #0]
 8000f54:	681b      	ldr	r3, [r3, #0]
 8000f56:	b29b      	uxth	r3, r3
 8000f58:	461a      	mov	r2, r3
 8000f5a:	4613      	mov	r3, r2
 8000f5c:	005b      	lsls	r3, r3, #1
 8000f5e:	4413      	add	r3, r2
 8000f60:	3b1e      	subs	r3, #30
 8000f62:	2207      	movs	r2, #7
 8000f64:	fa02 f303 	lsl.w	r3, r2, r3
 8000f68:	43da      	mvns	r2, r3
 8000f6a:	687b      	ldr	r3, [r7, #4]
 8000f6c:	681b      	ldr	r3, [r3, #0]
 8000f6e:	400a      	ands	r2, r1
 8000f70:	60da      	str	r2, [r3, #12]
    
    /* Set the new sample time */
    hadc->Instance->SMPR1 |= ADC_SMPR1(sConfig->SamplingTime, sConfig->Channel);
 8000f72:	687b      	ldr	r3, [r7, #4]
 8000f74:	681b      	ldr	r3, [r3, #0]
 8000f76:	68d9      	ldr	r1, [r3, #12]
 8000f78:	683b      	ldr	r3, [r7, #0]
 8000f7a:	689a      	ldr	r2, [r3, #8]
 8000f7c:	683b      	ldr	r3, [r7, #0]
 8000f7e:	681b      	ldr	r3, [r3, #0]
 8000f80:	b29b      	uxth	r3, r3
 8000f82:	4618      	mov	r0, r3
 8000f84:	4603      	mov	r3, r0
 8000f86:	005b      	lsls	r3, r3, #1
 8000f88:	4403      	add	r3, r0
 8000f8a:	3b1e      	subs	r3, #30
 8000f8c:	409a      	lsls	r2, r3
 8000f8e:	687b      	ldr	r3, [r7, #4]
 8000f90:	681b      	ldr	r3, [r3, #0]
 8000f92:	430a      	orrs	r2, r1
 8000f94:	60da      	str	r2, [r3, #12]
 8000f96:	e022      	b.n	8000fde <HAL_ADC_ConfigChannel+0xbe>
  }
  else /* ADC_Channel include in ADC_Channel_[0..9] */
  {
    /* Clear the old sample time */
    hadc->Instance->SMPR2 &= ~ADC_SMPR2(ADC_SMPR2_SMP0, sConfig->Channel);
 8000f98:	687b      	ldr	r3, [r7, #4]
 8000f9a:	681b      	ldr	r3, [r3, #0]
 8000f9c:	6919      	ldr	r1, [r3, #16]
 8000f9e:	683b      	ldr	r3, [r7, #0]
 8000fa0:	681b      	ldr	r3, [r3, #0]
 8000fa2:	b29b      	uxth	r3, r3
 8000fa4:	461a      	mov	r2, r3
 8000fa6:	4613      	mov	r3, r2
 8000fa8:	005b      	lsls	r3, r3, #1
 8000faa:	4413      	add	r3, r2
 8000fac:	2207      	movs	r2, #7
 8000fae:	fa02 f303 	lsl.w	r3, r2, r3
 8000fb2:	43da      	mvns	r2, r3
 8000fb4:	687b      	ldr	r3, [r7, #4]
 8000fb6:	681b      	ldr	r3, [r3, #0]
 8000fb8:	400a      	ands	r2, r1
 8000fba:	611a      	str	r2, [r3, #16]
    
    /* Set the new sample time */
    hadc->Instance->SMPR2 |= ADC_SMPR2(sConfig->SamplingTime, sConfig->Channel);
 8000fbc:	687b      	ldr	r3, [r7, #4]
 8000fbe:	681b      	ldr	r3, [r3, #0]
 8000fc0:	6919      	ldr	r1, [r3, #16]
 8000fc2:	683b      	ldr	r3, [r7, #0]
 8000fc4:	689a      	ldr	r2, [r3, #8]
 8000fc6:	683b      	ldr	r3, [r7, #0]
 8000fc8:	681b      	ldr	r3, [r3, #0]
 8000fca:	b29b      	uxth	r3, r3
 8000fcc:	4618      	mov	r0, r3
 8000fce:	4603      	mov	r3, r0
 8000fd0:	005b      	lsls	r3, r3, #1
 8000fd2:	4403      	add	r3, r0
 8000fd4:	409a      	lsls	r2, r3
 8000fd6:	687b      	ldr	r3, [r7, #4]
 8000fd8:	681b      	ldr	r3, [r3, #0]
 8000fda:	430a      	orrs	r2, r1
 8000fdc:	611a      	str	r2, [r3, #16]
  }
  
  /* For Rank 1 to 6 */
  if (sConfig->Rank < 7U)
 8000fde:	683b      	ldr	r3, [r7, #0]
 8000fe0:	685b      	ldr	r3, [r3, #4]
 8000fe2:	2b06      	cmp	r3, #6
 8000fe4:	d824      	bhi.n	8001030 <HAL_ADC_ConfigChannel+0x110>
  {
    /* Clear the old SQx bits for the selected rank */
    hadc->Instance->SQR3 &= ~ADC_SQR3_RK(ADC_SQR3_SQ1, sConfig->Rank);
 8000fe6:	687b      	ldr	r3, [r7, #4]
 8000fe8:	681b      	ldr	r3, [r3, #0]
 8000fea:	6b59      	ldr	r1, [r3, #52]	; 0x34
 8000fec:	683b      	ldr	r3, [r7, #0]
 8000fee:	685a      	ldr	r2, [r3, #4]
 8000ff0:	4613      	mov	r3, r2
 8000ff2:	009b      	lsls	r3, r3, #2
 8000ff4:	4413      	add	r3, r2
 8000ff6:	3b05      	subs	r3, #5
 8000ff8:	221f      	movs	r2, #31
 8000ffa:	fa02 f303 	lsl.w	r3, r2, r3
 8000ffe:	43da      	mvns	r2, r3
 8001000:	687b      	ldr	r3, [r7, #4]
 8001002:	681b      	ldr	r3, [r3, #0]
 8001004:	400a      	ands	r2, r1
 8001006:	635a      	str	r2, [r3, #52]	; 0x34
    
    /* Set the SQx bits for the selected rank */
    hadc->Instance->SQR3 |= ADC_SQR3_RK(sConfig->Channel, sConfig->Rank);
 8001008:	687b      	ldr	r3, [r7, #4]
 800100a:	681b      	ldr	r3, [r3, #0]
 800100c:	6b59      	ldr	r1, [r3, #52]	; 0x34
 800100e:	683b      	ldr	r3, [r7, #0]
 8001010:	681b      	ldr	r3, [r3, #0]
 8001012:	b29b      	uxth	r3, r3
 8001014:	4618      	mov	r0, r3
 8001016:	683b      	ldr	r3, [r7, #0]
 8001018:	685a      	ldr	r2, [r3, #4]
 800101a:	4613      	mov	r3, r2
 800101c:	009b      	lsls	r3, r3, #2
 800101e:	4413      	add	r3, r2
 8001020:	3b05      	subs	r3, #5
 8001022:	fa00 f203 	lsl.w	r2, r0, r3
 8001026:	687b      	ldr	r3, [r7, #4]
 8001028:	681b      	ldr	r3, [r3, #0]
 800102a:	430a      	orrs	r2, r1
 800102c:	635a      	str	r2, [r3, #52]	; 0x34
 800102e:	e04c      	b.n	80010ca <HAL_ADC_ConfigChannel+0x1aa>
  }
  /* For Rank 7 to 12 */
  else if (sConfig->Rank < 13U)
 8001030:	683b      	ldr	r3, [r7, #0]
 8001032:	685b      	ldr	r3, [r3, #4]
 8001034:	2b0c      	cmp	r3, #12
 8001036:	d824      	bhi.n	8001082 <HAL_ADC_ConfigChannel+0x162>
  {
    /* Clear the old SQx bits for the selected rank */
    hadc->Instance->SQR2 &= ~ADC_SQR2_RK(ADC_SQR2_SQ7, sConfig->Rank);
 8001038:	687b      	ldr	r3, [r7, #4]
 800103a:	681b      	ldr	r3, [r3, #0]
 800103c:	6b19      	ldr	r1, [r3, #48]	; 0x30
 800103e:	683b      	ldr	r3, [r7, #0]
 8001040:	685a      	ldr	r2, [r3, #4]
 8001042:	4613      	mov	r3, r2
 8001044:	009b      	lsls	r3, r3, #2
 8001046:	4413      	add	r3, r2
 8001048:	3b23      	subs	r3, #35	; 0x23
 800104a:	221f      	movs	r2, #31
 800104c:	fa02 f303 	lsl.w	r3, r2, r3
 8001050:	43da      	mvns	r2, r3
 8001052:	687b      	ldr	r3, [r7, #4]
 8001054:	681b      	ldr	r3, [r3, #0]
 8001056:	400a      	ands	r2, r1
 8001058:	631a      	str	r2, [r3, #48]	; 0x30
    
    /* Set the SQx bits for the selected rank */
    hadc->Instance->SQR2 |= ADC_SQR2_RK(sConfig->Channel, sConfig->Rank);
 800105a:	687b      	ldr	r3, [r7, #4]
 800105c:	681b      	ldr	r3, [r3, #0]
 800105e:	6b19      	ldr	r1, [r3, #48]	; 0x30
 8001060:	683b      	ldr	r3, [r7, #0]
 8001062:	681b      	ldr	r3, [r3, #0]
 8001064:	b29b      	uxth	r3, r3
 8001066:	4618      	mov	r0, r3
 8001068:	683b      	ldr	r3, [r7, #0]
 800106a:	685a      	ldr	r2, [r3, #4]
 800106c:	4613      	mov	r3, r2
 800106e:	009b      	lsls	r3, r3, #2
 8001070:	4413      	add	r3, r2
 8001072:	3b23      	subs	r3, #35	; 0x23
 8001074:	fa00 f203 	lsl.w	r2, r0, r3
 8001078:	687b      	ldr	r3, [r7, #4]
 800107a:	681b      	ldr	r3, [r3, #0]
 800107c:	430a      	orrs	r2, r1
 800107e:	631a      	str	r2, [r3, #48]	; 0x30
 8001080:	e023      	b.n	80010ca <HAL_ADC_ConfigChannel+0x1aa>
  }
  /* For Rank 13 to 16 */
  else
  {
    /* Clear the old SQx bits for the selected rank */
    hadc->Instance->SQR1 &= ~ADC_SQR1_RK(ADC_SQR1_SQ13, sConfig->Rank);
 8001082:	687b      	ldr	r3, [r7, #4]
 8001084:	681b      	ldr	r3, [r3, #0]
 8001086:	6ad9      	ldr	r1, [r3, #44]	; 0x2c
 8001088:	683b      	ldr	r3, [r7, #0]
 800108a:	685a      	ldr	r2, [r3, #4]
 800108c:	4613      	mov	r3, r2
 800108e:	009b      	lsls	r3, r3, #2
 8001090:	4413      	add	r3, r2
 8001092:	3b41      	subs	r3, #65	; 0x41
 8001094:	221f      	movs	r2, #31
 8001096:	fa02 f303 	lsl.w	r3, r2, r3
 800109a:	43da      	mvns	r2, r3
 800109c:	687b      	ldr	r3, [r7, #4]
 800109e:	681b      	ldr	r3, [r3, #0]
 80010a0:	400a      	ands	r2, r1
 80010a2:	62da      	str	r2, [r3, #44]	; 0x2c
    
    /* Set the SQx bits for the selected rank */
    hadc->Instance->SQR1 |= ADC_SQR1_RK(sConfig->Channel, sConfig->Rank);
 80010a4:	687b      	ldr	r3, [r7, #4]
 80010a6:	681b      	ldr	r3, [r3, #0]
 80010a8:	6ad9      	ldr	r1, [r3, #44]	; 0x2c
 80010aa:	683b      	ldr	r3, [r7, #0]
 80010ac:	681b      	ldr	r3, [r3, #0]
 80010ae:	b29b      	uxth	r3, r3
 80010b0:	4618      	mov	r0, r3
 80010b2:	683b      	ldr	r3, [r7, #0]
 80010b4:	685a      	ldr	r2, [r3, #4]
 80010b6:	4613      	mov	r3, r2
 80010b8:	009b      	lsls	r3, r3, #2
 80010ba:	4413      	add	r3, r2
 80010bc:	3b41      	subs	r3, #65	; 0x41
 80010be:	fa00 f203 	lsl.w	r2, r0, r3
 80010c2:	687b      	ldr	r3, [r7, #4]
 80010c4:	681b      	ldr	r3, [r3, #0]
 80010c6:	430a      	orrs	r2, r1
 80010c8:	62da      	str	r2, [r3, #44]	; 0x2c
  }

    /* Pointer to the common control register to which is belonging hadc    */
    /* (Depending on STM32F4 product, there may be up to 3 ADCs and 1 common */
    /* control register)                                                    */
    tmpADC_Common = ADC_COMMON_REGISTER(hadc);
 80010ca:	4b22      	ldr	r3, [pc, #136]	; (8001154 <HAL_ADC_ConfigChannel+0x234>)
 80010cc:	60fb      	str	r3, [r7, #12]

  /* if ADC1 Channel_18 is selected for VBAT Channel ennable VBATE */
  if ((hadc->Instance == ADC1) && (sConfig->Channel == ADC_CHANNEL_VBAT))
 80010ce:	687b      	ldr	r3, [r7, #4]
 80010d0:	681b      	ldr	r3, [r3, #0]
 80010d2:	4a21      	ldr	r2, [pc, #132]	; (8001158 <HAL_ADC_ConfigChannel+0x238>)
 80010d4:	4293      	cmp	r3, r2
 80010d6:	d109      	bne.n	80010ec <HAL_ADC_ConfigChannel+0x1cc>
 80010d8:	683b      	ldr	r3, [r7, #0]
 80010da:	681b      	ldr	r3, [r3, #0]
 80010dc:	2b12      	cmp	r3, #18
 80010de:	d105      	bne.n	80010ec <HAL_ADC_ConfigChannel+0x1cc>
    if ((uint16_t)ADC_CHANNEL_TEMPSENSOR == (uint16_t)ADC_CHANNEL_VBAT)
    {
      tmpADC_Common->CCR &= ~ADC_CCR_TSVREFE;
    }
    /* Enable the VBAT channel*/
    tmpADC_Common->CCR |= ADC_CCR_VBATE;
 80010e0:	68fb      	ldr	r3, [r7, #12]
 80010e2:	685b      	ldr	r3, [r3, #4]
 80010e4:	f443 0280 	orr.w	r2, r3, #4194304	; 0x400000
 80010e8:	68fb      	ldr	r3, [r7, #12]
 80010ea:	605a      	str	r2, [r3, #4]
  }
  
  /* if ADC1 Channel_16 or Channel_18 is selected for Temperature sensor or 
     Channel_17 is selected for VREFINT enable TSVREFE */
  if ((hadc->Instance == ADC1) && ((sConfig->Channel == ADC_CHANNEL_TEMPSENSOR) || (sConfig->Channel == ADC_CHANNEL_VREFINT)))
 80010ec:	687b      	ldr	r3, [r7, #4]
 80010ee:	681b      	ldr	r3, [r3, #0]
 80010f0:	4a19      	ldr	r2, [pc, #100]	; (8001158 <HAL_ADC_ConfigChannel+0x238>)
 80010f2:	4293      	cmp	r3, r2
 80010f4:	d123      	bne.n	800113e <HAL_ADC_ConfigChannel+0x21e>
 80010f6:	683b      	ldr	r3, [r7, #0]
 80010f8:	681b      	ldr	r3, [r3, #0]
 80010fa:	2b10      	cmp	r3, #16
 80010fc:	d003      	beq.n	8001106 <HAL_ADC_ConfigChannel+0x1e6>
 80010fe:	683b      	ldr	r3, [r7, #0]
 8001100:	681b      	ldr	r3, [r3, #0]
 8001102:	2b11      	cmp	r3, #17
 8001104:	d11b      	bne.n	800113e <HAL_ADC_ConfigChannel+0x21e>
    if ((uint16_t)ADC_CHANNEL_TEMPSENSOR == (uint16_t)ADC_CHANNEL_VBAT)
    {
      tmpADC_Common->CCR &= ~ADC_CCR_VBATE;
    }
    /* Enable the Temperature sensor and VREFINT channel*/
    tmpADC_Common->CCR |= ADC_CCR_TSVREFE;
 8001106:	68fb      	ldr	r3, [r7, #12]
 8001108:	685b      	ldr	r3, [r3, #4]
 800110a:	f443 0200 	orr.w	r2, r3, #8388608	; 0x800000
 800110e:	68fb      	ldr	r3, [r7, #12]
 8001110:	605a      	str	r2, [r3, #4]
    
    if(sConfig->Channel == ADC_CHANNEL_TEMPSENSOR)
 8001112:	683b      	ldr	r3, [r7, #0]
 8001114:	681b      	ldr	r3, [r3, #0]
 8001116:	2b10      	cmp	r3, #16
 8001118:	d111      	bne.n	800113e <HAL_ADC_ConfigChannel+0x21e>
    {
      /* Delay for temperature sensor stabilization time */
      /* Compute number of CPU cycles to wait for */
      counter = (ADC_TEMPSENSOR_DELAY_US * (SystemCoreClock / 1000000U));
 800111a:	4b10      	ldr	r3, [pc, #64]	; (800115c <HAL_ADC_ConfigChannel+0x23c>)
 800111c:	681b      	ldr	r3, [r3, #0]
 800111e:	4a10      	ldr	r2, [pc, #64]	; (8001160 <HAL_ADC_ConfigChannel+0x240>)
 8001120:	fba2 2303 	umull	r2, r3, r2, r3
 8001124:	0c9a      	lsrs	r2, r3, #18
 8001126:	4613      	mov	r3, r2
 8001128:	009b      	lsls	r3, r3, #2
 800112a:	4413      	add	r3, r2
 800112c:	005b      	lsls	r3, r3, #1
 800112e:	60bb      	str	r3, [r7, #8]
      while(counter != 0U)
 8001130:	e002      	b.n	8001138 <HAL_ADC_ConfigChannel+0x218>
      {
        counter--;
 8001132:	68bb      	ldr	r3, [r7, #8]
 8001134:	3b01      	subs	r3, #1
 8001136:	60bb      	str	r3, [r7, #8]
      while(counter != 0U)
 8001138:	68bb      	ldr	r3, [r7, #8]
 800113a:	2b00      	cmp	r3, #0
 800113c:	d1f9      	bne.n	8001132 <HAL_ADC_ConfigChannel+0x212>
      }
    }
  }
  
  /* Process unlocked */
  __HAL_UNLOCK(hadc);
 800113e:	687b      	ldr	r3, [r7, #4]
 8001140:	2200      	movs	r2, #0
 8001142:	f883 203c 	strb.w	r2, [r3, #60]	; 0x3c
  
  /* Return function status */
  return HAL_OK;
 8001146:	2300      	movs	r3, #0
}
 8001148:	4618      	mov	r0, r3
 800114a:	3714      	adds	r7, #20
 800114c:	46bd      	mov	sp, r7
 800114e:	f85d 7b04 	ldr.w	r7, [sp], #4
 8001152:	4770      	bx	lr
 8001154:	40012300 	.word	0x40012300
 8001158:	40012000 	.word	0x40012000
 800115c:	20000000 	.word	0x20000000
 8001160:	431bde83 	.word	0x431bde83

08001164 <ADC_Init>:
  * @param  hadc pointer to a ADC_HandleTypeDef structure that contains
  *         the configuration information for the specified ADC.  
  * @retval None
  */
static void ADC_Init(ADC_HandleTypeDef* hadc)
{
 8001164:	b480      	push	{r7}
 8001166:	b085      	sub	sp, #20
 8001168:	af00      	add	r7, sp, #0
 800116a:	6078      	str	r0, [r7, #4]
  
  /* Set ADC parameters */
  /* Pointer to the common control register to which is belonging hadc    */
  /* (Depending on STM32F4 product, there may be up to 3 ADCs and 1 common */
  /* control register)                                                    */
  tmpADC_Common = ADC_COMMON_REGISTER(hadc);
 800116c:	4b79      	ldr	r3, [pc, #484]	; (8001354 <ADC_Init+0x1f0>)
 800116e:	60fb      	str	r3, [r7, #12]
  
  /* Set the ADC clock prescaler */
  tmpADC_Common->CCR &= ~(ADC_CCR_ADCPRE);
 8001170:	68fb      	ldr	r3, [r7, #12]
 8001172:	685b      	ldr	r3, [r3, #4]
 8001174:	f423 3240 	bic.w	r2, r3, #196608	; 0x30000
 8001178:	68fb      	ldr	r3, [r7, #12]
 800117a:	605a      	str	r2, [r3, #4]
  tmpADC_Common->CCR |=  hadc->Init.ClockPrescaler;
 800117c:	68fb      	ldr	r3, [r7, #12]
 800117e:	685a      	ldr	r2, [r3, #4]
 8001180:	687b      	ldr	r3, [r7, #4]
 8001182:	685b      	ldr	r3, [r3, #4]
 8001184:	431a      	orrs	r2, r3
 8001186:	68fb      	ldr	r3, [r7, #12]
 8001188:	605a      	str	r2, [r3, #4]
  
  /* Set ADC scan mode */
  hadc->Instance->CR1 &= ~(ADC_CR1_SCAN);
 800118a:	687b      	ldr	r3, [r7, #4]
 800118c:	681b      	ldr	r3, [r3, #0]
 800118e:	685a      	ldr	r2, [r3, #4]
 8001190:	687b      	ldr	r3, [r7, #4]
 8001192:	681b      	ldr	r3, [r3, #0]
 8001194:	f422 7280 	bic.w	r2, r2, #256	; 0x100
 8001198:	605a      	str	r2, [r3, #4]
  hadc->Instance->CR1 |=  ADC_CR1_SCANCONV(hadc->Init.ScanConvMode);
 800119a:	687b      	ldr	r3, [r7, #4]
 800119c:	681b      	ldr	r3, [r3, #0]
 800119e:	6859      	ldr	r1, [r3, #4]
 80011a0:	687b      	ldr	r3, [r7, #4]
 80011a2:	691b      	ldr	r3, [r3, #16]
 80011a4:	021a      	lsls	r2, r3, #8
 80011a6:	687b      	ldr	r3, [r7, #4]
 80011a8:	681b      	ldr	r3, [r3, #0]
 80011aa:	430a      	orrs	r2, r1
 80011ac:	605a      	str	r2, [r3, #4]
  
  /* Set ADC resolution */
  hadc->Instance->CR1 &= ~(ADC_CR1_RES);
 80011ae:	687b      	ldr	r3, [r7, #4]
 80011b0:	681b      	ldr	r3, [r3, #0]
 80011b2:	685a      	ldr	r2, [r3, #4]
 80011b4:	687b      	ldr	r3, [r7, #4]
 80011b6:	681b      	ldr	r3, [r3, #0]
 80011b8:	f022 7240 	bic.w	r2, r2, #50331648	; 0x3000000
 80011bc:	605a      	str	r2, [r3, #4]
  hadc->Instance->CR1 |=  hadc->Init.Resolution;
 80011be:	687b      	ldr	r3, [r7, #4]
 80011c0:	681b      	ldr	r3, [r3, #0]
 80011c2:	6859      	ldr	r1, [r3, #4]
 80011c4:	687b      	ldr	r3, [r7, #4]
 80011c6:	689a      	ldr	r2, [r3, #8]
 80011c8:	687b      	ldr	r3, [r7, #4]
 80011ca:	681b      	ldr	r3, [r3, #0]
 80011cc:	430a      	orrs	r2, r1
 80011ce:	605a      	str	r2, [r3, #4]
  
  /* Set ADC data alignment */
  hadc->Instance->CR2 &= ~(ADC_CR2_ALIGN);
 80011d0:	687b      	ldr	r3, [r7, #4]
 80011d2:	681b      	ldr	r3, [r3, #0]
 80011d4:	689a      	ldr	r2, [r3, #8]
 80011d6:	687b      	ldr	r3, [r7, #4]
 80011d8:	681b      	ldr	r3, [r3, #0]
 80011da:	f422 6200 	bic.w	r2, r2, #2048	; 0x800
 80011de:	609a      	str	r2, [r3, #8]
  hadc->Instance->CR2 |= hadc->Init.DataAlign;
 80011e0:	687b      	ldr	r3, [r7, #4]
 80011e2:	681b      	ldr	r3, [r3, #0]
 80011e4:	6899      	ldr	r1, [r3, #8]
 80011e6:	687b      	ldr	r3, [r7, #4]
 80011e8:	68da      	ldr	r2, [r3, #12]
 80011ea:	687b      	ldr	r3, [r7, #4]
 80011ec:	681b      	ldr	r3, [r3, #0]
 80011ee:	430a      	orrs	r2, r1
 80011f0:	609a      	str	r2, [r3, #8]
  /* Enable external trigger if trigger selection is different of software  */
  /* start.                                                                 */
  /* Note: This configuration keeps the hardware feature of parameter       */
  /*       ExternalTrigConvEdge "trigger edge none" equivalent to           */
  /*       software start.                                                  */
  if(hadc->Init.ExternalTrigConv != ADC_SOFTWARE_START)
 80011f2:	687b      	ldr	r3, [r7, #4]
 80011f4:	6a9b      	ldr	r3, [r3, #40]	; 0x28
 80011f6:	4a58      	ldr	r2, [pc, #352]	; (8001358 <ADC_Init+0x1f4>)
 80011f8:	4293      	cmp	r3, r2
 80011fa:	d022      	beq.n	8001242 <ADC_Init+0xde>
  {
    /* Select external trigger to start conversion */
    hadc->Instance->CR2 &= ~(ADC_CR2_EXTSEL);
 80011fc:	687b      	ldr	r3, [r7, #4]
 80011fe:	681b      	ldr	r3, [r3, #0]
 8001200:	689a      	ldr	r2, [r3, #8]
 8001202:	687b      	ldr	r3, [r7, #4]
 8001204:	681b      	ldr	r3, [r3, #0]
 8001206:	f022 6270 	bic.w	r2, r2, #251658240	; 0xf000000
 800120a:	609a      	str	r2, [r3, #8]
    hadc->Instance->CR2 |= hadc->Init.ExternalTrigConv;
 800120c:	687b      	ldr	r3, [r7, #4]
 800120e:	681b      	ldr	r3, [r3, #0]
 8001210:	6899      	ldr	r1, [r3, #8]
 8001212:	687b      	ldr	r3, [r7, #4]
 8001214:	6a9a      	ldr	r2, [r3, #40]	; 0x28
 8001216:	687b      	ldr	r3, [r7, #4]
 8001218:	681b      	ldr	r3, [r3, #0]
 800121a:	430a      	orrs	r2, r1
 800121c:	609a      	str	r2, [r3, #8]
    
    /* Select external trigger polarity */
    hadc->Instance->CR2 &= ~(ADC_CR2_EXTEN);
 800121e:	687b      	ldr	r3, [r7, #4]
 8001220:	681b      	ldr	r3, [r3, #0]
 8001222:	689a      	ldr	r2, [r3, #8]
 8001224:	687b      	ldr	r3, [r7, #4]
 8001226:	681b      	ldr	r3, [r3, #0]
 8001228:	f022 5240 	bic.w	r2, r2, #805306368	; 0x30000000
 800122c:	609a      	str	r2, [r3, #8]
    hadc->Instance->CR2 |= hadc->Init.ExternalTrigConvEdge;
 800122e:	687b      	ldr	r3, [r7, #4]
 8001230:	681b      	ldr	r3, [r3, #0]
 8001232:	6899      	ldr	r1, [r3, #8]
 8001234:	687b      	ldr	r3, [r7, #4]
 8001236:	6ada      	ldr	r2, [r3, #44]	; 0x2c
 8001238:	687b      	ldr	r3, [r7, #4]
 800123a:	681b      	ldr	r3, [r3, #0]
 800123c:	430a      	orrs	r2, r1
 800123e:	609a      	str	r2, [r3, #8]
 8001240:	e00f      	b.n	8001262 <ADC_Init+0xfe>
  }
  else
  {
    /* Reset the external trigger */
    hadc->Instance->CR2 &= ~(ADC_CR2_EXTSEL);
 8001242:	687b      	ldr	r3, [r7, #4]
 8001244:	681b      	ldr	r3, [r3, #0]
 8001246:	689a      	ldr	r2, [r3, #8]
 8001248:	687b      	ldr	r3, [r7, #4]
 800124a:	681b      	ldr	r3, [r3, #0]
 800124c:	f022 6270 	bic.w	r2, r2, #251658240	; 0xf000000
 8001250:	609a      	str	r2, [r3, #8]
    hadc->Instance->CR2 &= ~(ADC_CR2_EXTEN);
 8001252:	687b      	ldr	r3, [r7, #4]
 8001254:	681b      	ldr	r3, [r3, #0]
 8001256:	689a      	ldr	r2, [r3, #8]
 8001258:	687b      	ldr	r3, [r7, #4]
 800125a:	681b      	ldr	r3, [r3, #0]
 800125c:	f022 5240 	bic.w	r2, r2, #805306368	; 0x30000000
 8001260:	609a      	str	r2, [r3, #8]
  }
  
  /* Enable or disable ADC continuous conversion mode */
  hadc->Instance->CR2 &= ~(ADC_CR2_CONT);
 8001262:	687b      	ldr	r3, [r7, #4]
 8001264:	681b      	ldr	r3, [r3, #0]
 8001266:	689a      	ldr	r2, [r3, #8]
 8001268:	687b      	ldr	r3, [r7, #4]
 800126a:	681b      	ldr	r3, [r3, #0]
 800126c:	f022 0202 	bic.w	r2, r2, #2
 8001270:	609a      	str	r2, [r3, #8]
  hadc->Instance->CR2 |= ADC_CR2_CONTINUOUS((uint32_t)hadc->Init.ContinuousConvMode);
 8001272:	687b      	ldr	r3, [r7, #4]
 8001274:	681b      	ldr	r3, [r3, #0]
 8001276:	6899      	ldr	r1, [r3, #8]
 8001278:	687b      	ldr	r3, [r7, #4]
 800127a:	7e1b      	ldrb	r3, [r3, #24]
 800127c:	005a      	lsls	r2, r3, #1
 800127e:	687b      	ldr	r3, [r7, #4]
 8001280:	681b      	ldr	r3, [r3, #0]
 8001282:	430a      	orrs	r2, r1
 8001284:	609a      	str	r2, [r3, #8]
  
  if(hadc->Init.DiscontinuousConvMode != DISABLE)
 8001286:	687b      	ldr	r3, [r7, #4]
 8001288:	f893 3020 	ldrb.w	r3, [r3, #32]
 800128c:	2b00      	cmp	r3, #0
 800128e:	d01b      	beq.n	80012c8 <ADC_Init+0x164>
  {
    assert_param(IS_ADC_REGULAR_DISC_NUMBER(hadc->Init.NbrOfDiscConversion));
  
    /* Enable the selected ADC regular discontinuous mode */
    hadc->Instance->CR1 |= (uint32_t)ADC_CR1_DISCEN;
 8001290:	687b      	ldr	r3, [r7, #4]
 8001292:	681b      	ldr	r3, [r3, #0]
 8001294:	685a      	ldr	r2, [r3, #4]
 8001296:	687b      	ldr	r3, [r7, #4]
 8001298:	681b      	ldr	r3, [r3, #0]
 800129a:	f442 6200 	orr.w	r2, r2, #2048	; 0x800
 800129e:	605a      	str	r2, [r3, #4]
    
    /* Set the number of channels to be converted in discontinuous mode */
    hadc->Instance->CR1 &= ~(ADC_CR1_DISCNUM);
 80012a0:	687b      	ldr	r3, [r7, #4]
 80012a2:	681b      	ldr	r3, [r3, #0]
 80012a4:	685a      	ldr	r2, [r3, #4]
 80012a6:	687b      	ldr	r3, [r7, #4]
 80012a8:	681b      	ldr	r3, [r3, #0]
 80012aa:	f422 4260 	bic.w	r2, r2, #57344	; 0xe000
 80012ae:	605a      	str	r2, [r3, #4]
    hadc->Instance->CR1 |=  ADC_CR1_DISCONTINUOUS(hadc->Init.NbrOfDiscConversion);
 80012b0:	687b      	ldr	r3, [r7, #4]
 80012b2:	681b      	ldr	r3, [r3, #0]
 80012b4:	6859      	ldr	r1, [r3, #4]
 80012b6:	687b      	ldr	r3, [r7, #4]
 80012b8:	6a5b      	ldr	r3, [r3, #36]	; 0x24
 80012ba:	3b01      	subs	r3, #1
 80012bc:	035a      	lsls	r2, r3, #13
 80012be:	687b      	ldr	r3, [r7, #4]
 80012c0:	681b      	ldr	r3, [r3, #0]
 80012c2:	430a      	orrs	r2, r1
 80012c4:	605a      	str	r2, [r3, #4]
 80012c6:	e007      	b.n	80012d8 <ADC_Init+0x174>
  }
  else
  {
    /* Disable the selected ADC regular discontinuous mode */
    hadc->Instance->CR1 &= ~(ADC_CR1_DISCEN);
 80012c8:	687b      	ldr	r3, [r7, #4]
 80012ca:	681b      	ldr	r3, [r3, #0]
 80012cc:	685a      	ldr	r2, [r3, #4]
 80012ce:	687b      	ldr	r3, [r7, #4]
 80012d0:	681b      	ldr	r3, [r3, #0]
 80012d2:	f422 6200 	bic.w	r2, r2, #2048	; 0x800
 80012d6:	605a      	str	r2, [r3, #4]
  }
  
  /* Set ADC number of conversion */
  hadc->Instance->SQR1 &= ~(ADC_SQR1_L);
 80012d8:	687b      	ldr	r3, [r7, #4]
 80012da:	681b      	ldr	r3, [r3, #0]
 80012dc:	6ada      	ldr	r2, [r3, #44]	; 0x2c
 80012de:	687b      	ldr	r3, [r7, #4]
 80012e0:	681b      	ldr	r3, [r3, #0]
 80012e2:	f422 0270 	bic.w	r2, r2, #15728640	; 0xf00000
 80012e6:	62da      	str	r2, [r3, #44]	; 0x2c
  hadc->Instance->SQR1 |=  ADC_SQR1(hadc->Init.NbrOfConversion);
 80012e8:	687b      	ldr	r3, [r7, #4]
 80012ea:	681b      	ldr	r3, [r3, #0]
 80012ec:	6ad9      	ldr	r1, [r3, #44]	; 0x2c
 80012ee:	687b      	ldr	r3, [r7, #4]
 80012f0:	69db      	ldr	r3, [r3, #28]
 80012f2:	3b01      	subs	r3, #1
 80012f4:	051a      	lsls	r2, r3, #20
 80012f6:	687b      	ldr	r3, [r7, #4]
 80012f8:	681b      	ldr	r3, [r3, #0]
 80012fa:	430a      	orrs	r2, r1
 80012fc:	62da      	str	r2, [r3, #44]	; 0x2c
  
  /* Enable or disable ADC DMA continuous request */
  hadc->Instance->CR2 &= ~(ADC_CR2_DDS);
 80012fe:	687b      	ldr	r3, [r7, #4]
 8001300:	681b      	ldr	r3, [r3, #0]
 8001302:	689a      	ldr	r2, [r3, #8]
 8001304:	687b      	ldr	r3, [r7, #4]
 8001306:	681b      	ldr	r3, [r3, #0]
 8001308:	f422 7200 	bic.w	r2, r2, #512	; 0x200
 800130c:	609a      	str	r2, [r3, #8]
  hadc->Instance->CR2 |= ADC_CR2_DMAContReq((uint32_t)hadc->Init.DMAContinuousRequests);
 800130e:	687b      	ldr	r3, [r7, #4]
 8001310:	681b      	ldr	r3, [r3, #0]
 8001312:	6899      	ldr	r1, [r3, #8]
 8001314:	687b      	ldr	r3, [r7, #4]
 8001316:	f893 3030 	ldrb.w	r3, [r3, #48]	; 0x30
 800131a:	025a      	lsls	r2, r3, #9
 800131c:	687b      	ldr	r3, [r7, #4]
 800131e:	681b      	ldr	r3, [r3, #0]
 8001320:	430a      	orrs	r2, r1
 8001322:	609a      	str	r2, [r3, #8]
  
  /* Enable or disable ADC end of conversion selection */
  hadc->Instance->CR2 &= ~(ADC_CR2_EOCS);
 8001324:	687b      	ldr	r3, [r7, #4]
 8001326:	681b      	ldr	r3, [r3, #0]
 8001328:	689a      	ldr	r2, [r3, #8]
 800132a:	687b      	ldr	r3, [r7, #4]
 800132c:	681b      	ldr	r3, [r3, #0]
 800132e:	f422 6280 	bic.w	r2, r2, #1024	; 0x400
 8001332:	609a      	str	r2, [r3, #8]
  hadc->Instance->CR2 |= ADC_CR2_EOCSelection(hadc->Init.EOCSelection);
 8001334:	687b      	ldr	r3, [r7, #4]
 8001336:	681b      	ldr	r3, [r3, #0]
 8001338:	6899      	ldr	r1, [r3, #8]
 800133a:	687b      	ldr	r3, [r7, #4]
 800133c:	695b      	ldr	r3, [r3, #20]
 800133e:	029a      	lsls	r2, r3, #10
 8001340:	687b      	ldr	r3, [r7, #4]
 8001342:	681b      	ldr	r3, [r3, #0]
 8001344:	430a      	orrs	r2, r1
 8001346:	609a      	str	r2, [r3, #8]
}
 8001348:	bf00      	nop
 800134a:	3714      	adds	r7, #20
 800134c:	46bd      	mov	sp, r7
 800134e:	f85d 7b04 	ldr.w	r7, [sp], #4
 8001352:	4770      	bx	lr
 8001354:	40012300 	.word	0x40012300
 8001358:	0f000001 	.word	0x0f000001

0800135c <HAL_ADCEx_InjectedConvCpltCallback>:
  * @param  hadc pointer to a ADC_HandleTypeDef structure that contains
  *         the configuration information for the specified ADC.
  * @retval None
  */
__weak void HAL_ADCEx_InjectedConvCpltCallback(ADC_HandleTypeDef* hadc)
{
 800135c:	b480      	push	{r7}
 800135e:	b083      	sub	sp, #12
 8001360:	af00      	add	r7, sp, #0
 8001362:	6078      	str	r0, [r7, #4]
  /* Prevent unused argument(s) compilation warning */
  UNUSED(hadc);
  /* NOTE : This function Should not be modified, when the callback is needed,
            the HAL_ADC_InjectedConvCpltCallback could be implemented in the user file
   */
}
 8001364:	bf00      	nop
 8001366:	370c      	adds	r7, #12
 8001368:	46bd      	mov	sp, r7
 800136a:	f85d 7b04 	ldr.w	r7, [sp], #4
 800136e:	4770      	bx	lr

08001370 <__NVIC_SetPriorityGrouping>:
           In case of a conflict between priority grouping and available
           priority bits (__NVIC_PRIO_BITS), the smallest possible priority group is set.
  \param [in]      PriorityGroup  Priority grouping field.
 */
__STATIC_INLINE void __NVIC_SetPriorityGrouping(uint32_t PriorityGroup)
{
 8001370:	b480      	push	{r7}
 8001372:	b085      	sub	sp, #20
 8001374:	af00      	add	r7, sp, #0
 8001376:	6078      	str	r0, [r7, #4]
  uint32_t reg_value;
  uint32_t PriorityGroupTmp = (PriorityGroup & (uint32_t)0x07UL);             /* only values 0..7 are used          */
 8001378:	687b      	ldr	r3, [r7, #4]
 800137a:	f003 0307 	and.w	r3, r3, #7
 800137e:	60fb      	str	r3, [r7, #12]

  reg_value  =  SCB->AIRCR;                                                   /* read old register configuration    */
 8001380:	4b0c      	ldr	r3, [pc, #48]	; (80013b4 <__NVIC_SetPriorityGrouping+0x44>)
 8001382:	68db      	ldr	r3, [r3, #12]
 8001384:	60bb      	str	r3, [r7, #8]
  reg_value &= ~((uint32_t)(SCB_AIRCR_VECTKEY_Msk | SCB_AIRCR_PRIGROUP_Msk)); /* clear bits to change               */
 8001386:	68ba      	ldr	r2, [r7, #8]
 8001388:	f64f 03ff 	movw	r3, #63743	; 0xf8ff
 800138c:	4013      	ands	r3, r2
 800138e:	60bb      	str	r3, [r7, #8]
  reg_value  =  (reg_value                                   |
                ((uint32_t)0x5FAUL << SCB_AIRCR_VECTKEY_Pos) |
                (PriorityGroupTmp << SCB_AIRCR_PRIGROUP_Pos)  );              /* Insert write key and priority group */
 8001390:	68fb      	ldr	r3, [r7, #12]
 8001392:	021a      	lsls	r2, r3, #8
                ((uint32_t)0x5FAUL << SCB_AIRCR_VECTKEY_Pos) |
 8001394:	68bb      	ldr	r3, [r7, #8]
 8001396:	4313      	orrs	r3, r2
  reg_value  =  (reg_value                                   |
 8001398:	f043 63bf 	orr.w	r3, r3, #100139008	; 0x5f80000
 800139c:	f443 3300 	orr.w	r3, r3, #131072	; 0x20000
 80013a0:	60bb      	str	r3, [r7, #8]
  SCB->AIRCR =  reg_value;
 80013a2:	4a04      	ldr	r2, [pc, #16]	; (80013b4 <__NVIC_SetPriorityGrouping+0x44>)
 80013a4:	68bb      	ldr	r3, [r7, #8]
 80013a6:	60d3      	str	r3, [r2, #12]
}
 80013a8:	bf00      	nop
 80013aa:	3714      	adds	r7, #20
 80013ac:	46bd      	mov	sp, r7
 80013ae:	f85d 7b04 	ldr.w	r7, [sp], #4
 80013b2:	4770      	bx	lr
 80013b4:	e000ed00 	.word	0xe000ed00

080013b8 <__NVIC_GetPriorityGrouping>:
  \brief   Get Priority Grouping
  \details Reads the priority grouping field from the NVIC Interrupt Controller.
  \return                Priority grouping field (SCB->AIRCR [10:8] PRIGROUP field).
 */
__STATIC_INLINE uint32_t __NVIC_GetPriorityGrouping(void)
{
 80013b8:	b480      	push	{r7}
 80013ba:	af00      	add	r7, sp, #0
  return ((uint32_t)((SCB->AIRCR & SCB_AIRCR_PRIGROUP_Msk) >> SCB_AIRCR_PRIGROUP_Pos));
 80013bc:	4b04      	ldr	r3, [pc, #16]	; (80013d0 <__NVIC_GetPriorityGrouping+0x18>)
 80013be:	68db      	ldr	r3, [r3, #12]
 80013c0:	0a1b      	lsrs	r3, r3, #8
 80013c2:	f003 0307 	and.w	r3, r3, #7
}
 80013c6:	4618      	mov	r0, r3
 80013c8:	46bd      	mov	sp, r7
 80013ca:	f85d 7b04 	ldr.w	r7, [sp], #4
 80013ce:	4770      	bx	lr
 80013d0:	e000ed00 	.word	0xe000ed00

080013d4 <__NVIC_EnableIRQ>:
  \details Enables a device specific interrupt in the NVIC interrupt controller.
  \param [in]      IRQn  Device specific interrupt number.
  \note    IRQn must not be negative.
 */
__STATIC_INLINE void __NVIC_EnableIRQ(IRQn_Type IRQn)
{
 80013d4:	b480      	push	{r7}
 80013d6:	b083      	sub	sp, #12
 80013d8:	af00      	add	r7, sp, #0
 80013da:	4603      	mov	r3, r0
 80013dc:	71fb      	strb	r3, [r7, #7]
  if ((int32_t)(IRQn) >= 0)
 80013de:	f997 3007 	ldrsb.w	r3, [r7, #7]
 80013e2:	2b00      	cmp	r3, #0
 80013e4:	db0b      	blt.n	80013fe <__NVIC_EnableIRQ+0x2a>
  {
    NVIC->ISER[(((uint32_t)IRQn) >> 5UL)] = (uint32_t)(1UL << (((uint32_t)IRQn) & 0x1FUL));
 80013e6:	79fb      	ldrb	r3, [r7, #7]
 80013e8:	f003 021f 	and.w	r2, r3, #31
 80013ec:	4907      	ldr	r1, [pc, #28]	; (800140c <__NVIC_EnableIRQ+0x38>)
 80013ee:	f997 3007 	ldrsb.w	r3, [r7, #7]
 80013f2:	095b      	lsrs	r3, r3, #5
 80013f4:	2001      	movs	r0, #1
 80013f6:	fa00 f202 	lsl.w	r2, r0, r2
 80013fa:	f841 2023 	str.w	r2, [r1, r3, lsl #2]
  }
}
 80013fe:	bf00      	nop
 8001400:	370c      	adds	r7, #12
 8001402:	46bd      	mov	sp, r7
 8001404:	f85d 7b04 	ldr.w	r7, [sp], #4
 8001408:	4770      	bx	lr
 800140a:	bf00      	nop
 800140c:	e000e100 	.word	0xe000e100

08001410 <__NVIC_SetPriority>:
  \param [in]      IRQn  Interrupt number.
  \param [in]  priority  Priority to set.
  \note    The priority cannot be set for every processor exception.
 */
__STATIC_INLINE void __NVIC_SetPriority(IRQn_Type IRQn, uint32_t priority)
{
 8001410:	b480      	push	{r7}
 8001412:	b083      	sub	sp, #12
 8001414:	af00      	add	r7, sp, #0
 8001416:	4603      	mov	r3, r0
 8001418:	6039      	str	r1, [r7, #0]
 800141a:	71fb      	strb	r3, [r7, #7]
  if ((int32_t)(IRQn) >= 0)
 800141c:	f997 3007 	ldrsb.w	r3, [r7, #7]
 8001420:	2b00      	cmp	r3, #0
 8001422:	db0a      	blt.n	800143a <__NVIC_SetPriority+0x2a>
  {
    NVIC->IP[((uint32_t)IRQn)]               = (uint8_t)((priority << (8U - __NVIC_PRIO_BITS)) & (uint32_t)0xFFUL);
 8001424:	683b      	ldr	r3, [r7, #0]
 8001426:	b2da      	uxtb	r2, r3
 8001428:	490c      	ldr	r1, [pc, #48]	; (800145c <__NVIC_SetPriority+0x4c>)
 800142a:	f997 3007 	ldrsb.w	r3, [r7, #7]
 800142e:	0112      	lsls	r2, r2, #4
 8001430:	b2d2      	uxtb	r2, r2
 8001432:	440b      	add	r3, r1
 8001434:	f883 2300 	strb.w	r2, [r3, #768]	; 0x300
  }
  else
  {
    SCB->SHP[(((uint32_t)IRQn) & 0xFUL)-4UL] = (uint8_t)((priority << (8U - __NVIC_PRIO_BITS)) & (uint32_t)0xFFUL);
  }
}
 8001438:	e00a      	b.n	8001450 <__NVIC_SetPriority+0x40>
    SCB->SHP[(((uint32_t)IRQn) & 0xFUL)-4UL] = (uint8_t)((priority << (8U - __NVIC_PRIO_BITS)) & (uint32_t)0xFFUL);
 800143a:	683b      	ldr	r3, [r7, #0]
 800143c:	b2da      	uxtb	r2, r3
 800143e:	4908      	ldr	r1, [pc, #32]	; (8001460 <__NVIC_SetPriority+0x50>)
 8001440:	79fb      	ldrb	r3, [r7, #7]
 8001442:	f003 030f 	and.w	r3, r3, #15
 8001446:	3b04      	subs	r3, #4
 8001448:	0112      	lsls	r2, r2, #4
 800144a:	b2d2      	uxtb	r2, r2
 800144c:	440b      	add	r3, r1
 800144e:	761a      	strb	r2, [r3, #24]
}
 8001450:	bf00      	nop
 8001452:	370c      	adds	r7, #12
 8001454:	46bd      	mov	sp, r7
 8001456:	f85d 7b04 	ldr.w	r7, [sp], #4
 800145a:	4770      	bx	lr
 800145c:	e000e100 	.word	0xe000e100
 8001460:	e000ed00 	.word	0xe000ed00

08001464 <NVIC_EncodePriority>:
  \param [in]   PreemptPriority  Preemptive priority value (starting from 0).
  \param [in]       SubPriority  Subpriority value (starting from 0).
  \return                        Encoded priority. Value can be used in the function \ref NVIC_SetPriority().
 */
__STATIC_INLINE uint32_t NVIC_EncodePriority (uint32_t PriorityGroup, uint32_t PreemptPriority, uint32_t SubPriority)
{
 8001464:	b480      	push	{r7}
 8001466:	b089      	sub	sp, #36	; 0x24
 8001468:	af00      	add	r7, sp, #0
 800146a:	60f8      	str	r0, [r7, #12]
 800146c:	60b9      	str	r1, [r7, #8]
 800146e:	607a      	str	r2, [r7, #4]
  uint32_t PriorityGroupTmp = (PriorityGroup & (uint32_t)0x07UL);   /* only values 0..7 are used          */
 8001470:	68fb      	ldr	r3, [r7, #12]
 8001472:	f003 0307 	and.w	r3, r3, #7
 8001476:	61fb      	str	r3, [r7, #28]
  uint32_t PreemptPriorityBits;
  uint32_t SubPriorityBits;

  PreemptPriorityBits = ((7UL - PriorityGroupTmp) > (uint32_t)(__NVIC_PRIO_BITS)) ? (uint32_t)(__NVIC_PRIO_BITS) : (uint32_t)(7UL - PriorityGroupTmp);
 8001478:	69fb      	ldr	r3, [r7, #28]
 800147a:	f1c3 0307 	rsb	r3, r3, #7
 800147e:	2b04      	cmp	r3, #4
 8001480:	bf28      	it	cs
 8001482:	2304      	movcs	r3, #4
 8001484:	61bb      	str	r3, [r7, #24]
  SubPriorityBits     = ((PriorityGroupTmp + (uint32_t)(__NVIC_PRIO_BITS)) < (uint32_t)7UL) ? (uint32_t)0UL : (uint32_t)((PriorityGroupTmp - 7UL) + (uint32_t)(__NVIC_PRIO_BITS));
 8001486:	69fb      	ldr	r3, [r7, #28]
 8001488:	3304      	adds	r3, #4
 800148a:	2b06      	cmp	r3, #6
 800148c:	d902      	bls.n	8001494 <NVIC_EncodePriority+0x30>
 800148e:	69fb      	ldr	r3, [r7, #28]
 8001490:	3b03      	subs	r3, #3
 8001492:	e000      	b.n	8001496 <NVIC_EncodePriority+0x32>
 8001494:	2300      	movs	r3, #0
 8001496:	617b      	str	r3, [r7, #20]

  return (
           ((PreemptPriority & (uint32_t)((1UL << (PreemptPriorityBits)) - 1UL)) << SubPriorityBits) |
 8001498:	f04f 32ff 	mov.w	r2, #4294967295
 800149c:	69bb      	ldr	r3, [r7, #24]
 800149e:	fa02 f303 	lsl.w	r3, r2, r3
 80014a2:	43da      	mvns	r2, r3
 80014a4:	68bb      	ldr	r3, [r7, #8]
 80014a6:	401a      	ands	r2, r3
 80014a8:	697b      	ldr	r3, [r7, #20]
 80014aa:	409a      	lsls	r2, r3
           ((SubPriority     & (uint32_t)((1UL << (SubPriorityBits    )) - 1UL)))
 80014ac:	f04f 31ff 	mov.w	r1, #4294967295
 80014b0:	697b      	ldr	r3, [r7, #20]
 80014b2:	fa01 f303 	lsl.w	r3, r1, r3
 80014b6:	43d9      	mvns	r1, r3
 80014b8:	687b      	ldr	r3, [r7, #4]
 80014ba:	400b      	ands	r3, r1
           ((PreemptPriority & (uint32_t)((1UL << (PreemptPriorityBits)) - 1UL)) << SubPriorityBits) |
 80014bc:	4313      	orrs	r3, r2
         );
}
 80014be:	4618      	mov	r0, r3
 80014c0:	3724      	adds	r7, #36	; 0x24
 80014c2:	46bd      	mov	sp, r7
 80014c4:	f85d 7b04 	ldr.w	r7, [sp], #4
 80014c8:	4770      	bx	lr
	...

080014cc <SysTick_Config>:
  \note    When the variable <b>__Vendor_SysTickConfig</b> is set to 1, then the
           function <b>SysTick_Config</b> is not included. In this case, the file <b><i>device</i>.h</b>
           must contain a vendor-specific implementation of this function.
 */
__STATIC_INLINE uint32_t SysTick_Config(uint32_t ticks)
{
 80014cc:	b580      	push	{r7, lr}
 80014ce:	b082      	sub	sp, #8
 80014d0:	af00      	add	r7, sp, #0
 80014d2:	6078      	str	r0, [r7, #4]
  if ((ticks - 1UL) > SysTick_LOAD_RELOAD_Msk)
 80014d4:	687b      	ldr	r3, [r7, #4]
 80014d6:	3b01      	subs	r3, #1
 80014d8:	f1b3 7f80 	cmp.w	r3, #16777216	; 0x1000000
 80014dc:	d301      	bcc.n	80014e2 <SysTick_Config+0x16>
  {
    return (1UL);                                                   /* Reload value impossible */
 80014de:	2301      	movs	r3, #1
 80014e0:	e00f      	b.n	8001502 <SysTick_Config+0x36>
  }

  SysTick->LOAD  = (uint32_t)(ticks - 1UL);                         /* set reload register */
 80014e2:	4a0a      	ldr	r2, [pc, #40]	; (800150c <SysTick_Config+0x40>)
 80014e4:	687b      	ldr	r3, [r7, #4]
 80014e6:	3b01      	subs	r3, #1
 80014e8:	6053      	str	r3, [r2, #4]
  NVIC_SetPriority (SysTick_IRQn, (1UL << __NVIC_PRIO_BITS) - 1UL); /* set Priority for Systick Interrupt */
 80014ea:	210f      	movs	r1, #15
 80014ec:	f04f 30ff 	mov.w	r0, #4294967295
 80014f0:	f7ff ff8e 	bl	8001410 <__NVIC_SetPriority>
  SysTick->VAL   = 0UL;                                             /* Load the SysTick Counter Value */
 80014f4:	4b05      	ldr	r3, [pc, #20]	; (800150c <SysTick_Config+0x40>)
 80014f6:	2200      	movs	r2, #0
 80014f8:	609a      	str	r2, [r3, #8]
  SysTick->CTRL  = SysTick_CTRL_CLKSOURCE_Msk |
 80014fa:	4b04      	ldr	r3, [pc, #16]	; (800150c <SysTick_Config+0x40>)
 80014fc:	2207      	movs	r2, #7
 80014fe:	601a      	str	r2, [r3, #0]
                   SysTick_CTRL_TICKINT_Msk   |
                   SysTick_CTRL_ENABLE_Msk;                         /* Enable SysTick IRQ and SysTick Timer */
  return (0UL);                                                     /* Function successful */
 8001500:	2300      	movs	r3, #0
}
 8001502:	4618      	mov	r0, r3
 8001504:	3708      	adds	r7, #8
 8001506:	46bd      	mov	sp, r7
 8001508:	bd80      	pop	{r7, pc}
 800150a:	bf00      	nop
 800150c:	e000e010 	.word	0xe000e010

08001510 <HAL_NVIC_SetPriorityGrouping>:
  * @note   When the NVIC_PriorityGroup_0 is selected, IRQ preemption is no more possible. 
  *         The pending IRQ priority will be managed only by the subpriority. 
  * @retval None
  */
void HAL_NVIC_SetPriorityGrouping(uint32_t PriorityGroup)
{
 8001510:	b580      	push	{r7, lr}
 8001512:	b082      	sub	sp, #8
 8001514:	af00      	add	r7, sp, #0
 8001516:	6078      	str	r0, [r7, #4]
  /* Check the parameters */
  assert_param(IS_NVIC_PRIORITY_GROUP(PriorityGroup));
  
  /* Set the PRIGROUP[10:8] bits according to the PriorityGroup parameter value */
  NVIC_SetPriorityGrouping(PriorityGroup);
 8001518:	6878      	ldr	r0, [r7, #4]
 800151a:	f7ff ff29 	bl	8001370 <__NVIC_SetPriorityGrouping>
}
 800151e:	bf00      	nop
 8001520:	3708      	adds	r7, #8
 8001522:	46bd      	mov	sp, r7
 8001524:	bd80      	pop	{r7, pc}

08001526 <HAL_NVIC_SetPriority>:
  *         This parameter can be a value between 0 and 15
  *         A lower priority value indicates a higher priority.          
  * @retval None
  */
void HAL_NVIC_SetPriority(IRQn_Type IRQn, uint32_t PreemptPriority, uint32_t SubPriority)
{ 
 8001526:	b580      	push	{r7, lr}
 8001528:	b086      	sub	sp, #24
 800152a:	af00      	add	r7, sp, #0
 800152c:	4603      	mov	r3, r0
 800152e:	60b9      	str	r1, [r7, #8]
 8001530:	607a      	str	r2, [r7, #4]
 8001532:	73fb      	strb	r3, [r7, #15]
  uint32_t prioritygroup = 0x00U;
 8001534:	2300      	movs	r3, #0
 8001536:	617b      	str	r3, [r7, #20]
  
  /* Check the parameters */
  assert_param(IS_NVIC_SUB_PRIORITY(SubPriority));
  assert_param(IS_NVIC_PREEMPTION_PRIORITY(PreemptPriority));
  
  prioritygroup = NVIC_GetPriorityGrouping();
 8001538:	f7ff ff3e 	bl	80013b8 <__NVIC_GetPriorityGrouping>
 800153c:	6178      	str	r0, [r7, #20]
  
  NVIC_SetPriority(IRQn, NVIC_EncodePriority(prioritygroup, PreemptPriority, SubPriority));
 800153e:	687a      	ldr	r2, [r7, #4]
 8001540:	68b9      	ldr	r1, [r7, #8]
 8001542:	6978      	ldr	r0, [r7, #20]
 8001544:	f7ff ff8e 	bl	8001464 <NVIC_EncodePriority>
 8001548:	4602      	mov	r2, r0
 800154a:	f997 300f 	ldrsb.w	r3, [r7, #15]
 800154e:	4611      	mov	r1, r2
 8001550:	4618      	mov	r0, r3
 8001552:	f7ff ff5d 	bl	8001410 <__NVIC_SetPriority>
}
 8001556:	bf00      	nop
 8001558:	3718      	adds	r7, #24
 800155a:	46bd      	mov	sp, r7
 800155c:	bd80      	pop	{r7, pc}

0800155e <HAL_NVIC_EnableIRQ>:
  *         This parameter can be an enumerator of IRQn_Type enumeration
  *         (For the complete STM32 Devices IRQ Channels list, please refer to the appropriate CMSIS device file (stm32f4xxxx.h))
  * @retval None
  */
void HAL_NVIC_EnableIRQ(IRQn_Type IRQn)
{
 800155e:	b580      	push	{r7, lr}
 8001560:	b082      	sub	sp, #8
 8001562:	af00      	add	r7, sp, #0
 8001564:	4603      	mov	r3, r0
 8001566:	71fb      	strb	r3, [r7, #7]
  /* Check the parameters */
  assert_param(IS_NVIC_DEVICE_IRQ(IRQn));
  
  /* Enable interrupt */
  NVIC_EnableIRQ(IRQn);
 8001568:	f997 3007 	ldrsb.w	r3, [r7, #7]
 800156c:	4618      	mov	r0, r3
 800156e:	f7ff ff31 	bl	80013d4 <__NVIC_EnableIRQ>
}
 8001572:	bf00      	nop
 8001574:	3708      	adds	r7, #8
 8001576:	46bd      	mov	sp, r7
 8001578:	bd80      	pop	{r7, pc}

0800157a <HAL_SYSTICK_Config>:
  * @param  TicksNumb Specifies the ticks Number of ticks between two interrupts.
  * @retval status:  - 0  Function succeeded.
  *                  - 1  Function failed.
  */
uint32_t HAL_SYSTICK_Config(uint32_t TicksNumb)
{
 800157a:	b580      	push	{r7, lr}
 800157c:	b082      	sub	sp, #8
 800157e:	af00      	add	r7, sp, #0
 8001580:	6078      	str	r0, [r7, #4]
   return SysTick_Config(TicksNumb);
 8001582:	6878      	ldr	r0, [r7, #4]
 8001584:	f7ff ffa2 	bl	80014cc <SysTick_Config>
 8001588:	4603      	mov	r3, r0
}
 800158a:	4618      	mov	r0, r3
 800158c:	3708      	adds	r7, #8
 800158e:	46bd      	mov	sp, r7
 8001590:	bd80      	pop	{r7, pc}
	...

08001594 <HAL_GPIO_Init>:
  * @param  GPIO_Init pointer to a GPIO_InitTypeDef structure that contains
  *         the configuration information for the specified GPIO peripheral.
  * @retval None
  */
void HAL_GPIO_Init(GPIO_TypeDef  *GPIOx, GPIO_InitTypeDef *GPIO_Init)
{
 8001594:	b480      	push	{r7}
 8001596:	b089      	sub	sp, #36	; 0x24
 8001598:	af00      	add	r7, sp, #0
 800159a:	6078      	str	r0, [r7, #4]
 800159c:	6039      	str	r1, [r7, #0]
  uint32_t position;
  uint32_t ioposition = 0x00U;
 800159e:	2300      	movs	r3, #0
 80015a0:	617b      	str	r3, [r7, #20]
  uint32_t iocurrent = 0x00U;
 80015a2:	2300      	movs	r3, #0
 80015a4:	613b      	str	r3, [r7, #16]
  uint32_t temp = 0x00U;
 80015a6:	2300      	movs	r3, #0
 80015a8:	61bb      	str	r3, [r7, #24]
  assert_param(IS_GPIO_ALL_INSTANCE(GPIOx));
  assert_param(IS_GPIO_PIN(GPIO_Init->Pin));
  assert_param(IS_GPIO_MODE(GPIO_Init->Mode));

  /* Configure the port pins */
  for(position = 0U; position < GPIO_NUMBER; position++)
 80015aa:	2300      	movs	r3, #0
 80015ac:	61fb      	str	r3, [r7, #28]
 80015ae:	e16b      	b.n	8001888 <HAL_GPIO_Init+0x2f4>
  {
    /* Get the IO position */
    ioposition = 0x01U << position;
 80015b0:	2201      	movs	r2, #1
 80015b2:	69fb      	ldr	r3, [r7, #28]
 80015b4:	fa02 f303 	lsl.w	r3, r2, r3
 80015b8:	617b      	str	r3, [r7, #20]
    /* Get the current IO position */
    iocurrent = (uint32_t)(GPIO_Init->Pin) & ioposition;
 80015ba:	683b      	ldr	r3, [r7, #0]
 80015bc:	681b      	ldr	r3, [r3, #0]
 80015be:	697a      	ldr	r2, [r7, #20]
 80015c0:	4013      	ands	r3, r2
 80015c2:	613b      	str	r3, [r7, #16]

    if(iocurrent == ioposition)
 80015c4:	693a      	ldr	r2, [r7, #16]
 80015c6:	697b      	ldr	r3, [r7, #20]
 80015c8:	429a      	cmp	r2, r3
 80015ca:	f040 815a 	bne.w	8001882 <HAL_GPIO_Init+0x2ee>
    {
      /*--------------------- GPIO Mode Configuration ------------------------*/
      /* In case of Output or Alternate function mode selection */
      if(((GPIO_Init->Mode & GPIO_MODE) == MODE_OUTPUT) || \
 80015ce:	683b      	ldr	r3, [r7, #0]
 80015d0:	685b      	ldr	r3, [r3, #4]
 80015d2:	f003 0303 	and.w	r3, r3, #3
 80015d6:	2b01      	cmp	r3, #1
 80015d8:	d005      	beq.n	80015e6 <HAL_GPIO_Init+0x52>
          (GPIO_Init->Mode & GPIO_MODE) == MODE_AF)
 80015da:	683b      	ldr	r3, [r7, #0]
 80015dc:	685b      	ldr	r3, [r3, #4]
 80015de:	f003 0303 	and.w	r3, r3, #3
      if(((GPIO_Init->Mode & GPIO_MODE) == MODE_OUTPUT) || \
 80015e2:	2b02      	cmp	r3, #2
 80015e4:	d130      	bne.n	8001648 <HAL_GPIO_Init+0xb4>
      {
        /* Check the Speed parameter */
        assert_param(IS_GPIO_SPEED(GPIO_Init->Speed));
        /* Configure the IO Speed */
        temp = GPIOx->OSPEEDR; 
 80015e6:	687b      	ldr	r3, [r7, #4]
 80015e8:	689b      	ldr	r3, [r3, #8]
 80015ea:	61bb      	str	r3, [r7, #24]
        temp &= ~(GPIO_OSPEEDER_OSPEEDR0 << (position * 2U));
 80015ec:	69fb      	ldr	r3, [r7, #28]
 80015ee:	005b      	lsls	r3, r3, #1
 80015f0:	2203      	movs	r2, #3
 80015f2:	fa02 f303 	lsl.w	r3, r2, r3
 80015f6:	43db      	mvns	r3, r3
 80015f8:	69ba      	ldr	r2, [r7, #24]
 80015fa:	4013      	ands	r3, r2
 80015fc:	61bb      	str	r3, [r7, #24]
        temp |= (GPIO_Init->Speed << (position * 2U));
 80015fe:	683b      	ldr	r3, [r7, #0]
 8001600:	68da      	ldr	r2, [r3, #12]
 8001602:	69fb      	ldr	r3, [r7, #28]
 8001604:	005b      	lsls	r3, r3, #1
 8001606:	fa02 f303 	lsl.w	r3, r2, r3
 800160a:	69ba      	ldr	r2, [r7, #24]
 800160c:	4313      	orrs	r3, r2
 800160e:	61bb      	str	r3, [r7, #24]
        GPIOx->OSPEEDR = temp;
 8001610:	687b      	ldr	r3, [r7, #4]
 8001612:	69ba      	ldr	r2, [r7, #24]
 8001614:	609a      	str	r2, [r3, #8]

        /* Configure the IO Output Type */
        temp = GPIOx->OTYPER;
 8001616:	687b      	ldr	r3, [r7, #4]
 8001618:	685b      	ldr	r3, [r3, #4]
 800161a:	61bb      	str	r3, [r7, #24]
        temp &= ~(GPIO_OTYPER_OT_0 << position) ;
 800161c:	2201      	movs	r2, #1
 800161e:	69fb      	ldr	r3, [r7, #28]
 8001620:	fa02 f303 	lsl.w	r3, r2, r3
 8001624:	43db      	mvns	r3, r3
 8001626:	69ba      	ldr	r2, [r7, #24]
 8001628:	4013      	ands	r3, r2
 800162a:	61bb      	str	r3, [r7, #24]
        temp |= (((GPIO_Init->Mode & OUTPUT_TYPE) >> OUTPUT_TYPE_Pos) << position);
 800162c:	683b      	ldr	r3, [r7, #0]
 800162e:	685b      	ldr	r3, [r3, #4]
 8001630:	091b      	lsrs	r3, r3, #4
 8001632:	f003 0201 	and.w	r2, r3, #1
 8001636:	69fb      	ldr	r3, [r7, #28]
 8001638:	fa02 f303 	lsl.w	r3, r2, r3
 800163c:	69ba      	ldr	r2, [r7, #24]
 800163e:	4313      	orrs	r3, r2
 8001640:	61bb      	str	r3, [r7, #24]
        GPIOx->OTYPER = temp;
 8001642:	687b      	ldr	r3, [r7, #4]
 8001644:	69ba      	ldr	r2, [r7, #24]
 8001646:	605a      	str	r2, [r3, #4]
       }

      if((GPIO_Init->Mode & GPIO_MODE) != MODE_ANALOG)
 8001648:	683b      	ldr	r3, [r7, #0]
 800164a:	685b      	ldr	r3, [r3, #4]
 800164c:	f003 0303 	and.w	r3, r3, #3
 8001650:	2b03      	cmp	r3, #3
 8001652:	d017      	beq.n	8001684 <HAL_GPIO_Init+0xf0>
      {
        /* Check the parameters */
        assert_param(IS_GPIO_PULL(GPIO_Init->Pull));
        
        /* Activate the Pull-up or Pull down resistor for the current IO */
        temp = GPIOx->PUPDR;
 8001654:	687b      	ldr	r3, [r7, #4]
 8001656:	68db      	ldr	r3, [r3, #12]
 8001658:	61bb      	str	r3, [r7, #24]
        temp &= ~(GPIO_PUPDR_PUPDR0 << (position * 2U));
 800165a:	69fb      	ldr	r3, [r7, #28]
 800165c:	005b      	lsls	r3, r3, #1
 800165e:	2203      	movs	r2, #3
 8001660:	fa02 f303 	lsl.w	r3, r2, r3
 8001664:	43db      	mvns	r3, r3
 8001666:	69ba      	ldr	r2, [r7, #24]
 8001668:	4013      	ands	r3, r2
 800166a:	61bb      	str	r3, [r7, #24]
        temp |= ((GPIO_Init->Pull) << (position * 2U));
 800166c:	683b      	ldr	r3, [r7, #0]
 800166e:	689a      	ldr	r2, [r3, #8]
 8001670:	69fb      	ldr	r3, [r7, #28]
 8001672:	005b      	lsls	r3, r3, #1
 8001674:	fa02 f303 	lsl.w	r3, r2, r3
 8001678:	69ba      	ldr	r2, [r7, #24]
 800167a:	4313      	orrs	r3, r2
 800167c:	61bb      	str	r3, [r7, #24]
        GPIOx->PUPDR = temp;
 800167e:	687b      	ldr	r3, [r7, #4]
 8001680:	69ba      	ldr	r2, [r7, #24]
 8001682:	60da      	str	r2, [r3, #12]
      }

      /* In case of Alternate function mode selection */
      if((GPIO_Init->Mode & GPIO_MODE) == MODE_AF)
 8001684:	683b      	ldr	r3, [r7, #0]
 8001686:	685b      	ldr	r3, [r3, #4]
 8001688:	f003 0303 	and.w	r3, r3, #3
 800168c:	2b02      	cmp	r3, #2
 800168e:	d123      	bne.n	80016d8 <HAL_GPIO_Init+0x144>
      {
        /* Check the Alternate function parameter */
        assert_param(IS_GPIO_AF(GPIO_Init->Alternate));
        /* Configure Alternate function mapped with the current IO */
        temp = GPIOx->AFR[position >> 3U];
 8001690:	69fb      	ldr	r3, [r7, #28]
 8001692:	08da      	lsrs	r2, r3, #3
 8001694:	687b      	ldr	r3, [r7, #4]
 8001696:	3208      	adds	r2, #8
 8001698:	f853 3022 	ldr.w	r3, [r3, r2, lsl #2]
 800169c:	61bb      	str	r3, [r7, #24]
        temp &= ~(0xFU << ((uint32_t)(position & 0x07U) * 4U)) ;
 800169e:	69fb      	ldr	r3, [r7, #28]
 80016a0:	f003 0307 	and.w	r3, r3, #7
 80016a4:	009b      	lsls	r3, r3, #2
 80016a6:	220f      	movs	r2, #15
 80016a8:	fa02 f303 	lsl.w	r3, r2, r3
 80016ac:	43db      	mvns	r3, r3
 80016ae:	69ba      	ldr	r2, [r7, #24]
 80016b0:	4013      	ands	r3, r2
 80016b2:	61bb      	str	r3, [r7, #24]
        temp |= ((uint32_t)(GPIO_Init->Alternate) << (((uint32_t)position & 0x07U) * 4U));
 80016b4:	683b      	ldr	r3, [r7, #0]
 80016b6:	691a      	ldr	r2, [r3, #16]
 80016b8:	69fb      	ldr	r3, [r7, #28]
 80016ba:	f003 0307 	and.w	r3, r3, #7
 80016be:	009b      	lsls	r3, r3, #2
 80016c0:	fa02 f303 	lsl.w	r3, r2, r3
 80016c4:	69ba      	ldr	r2, [r7, #24]
 80016c6:	4313      	orrs	r3, r2
 80016c8:	61bb      	str	r3, [r7, #24]
        GPIOx->AFR[position >> 3U] = temp;
 80016ca:	69fb      	ldr	r3, [r7, #28]
 80016cc:	08da      	lsrs	r2, r3, #3
 80016ce:	687b      	ldr	r3, [r7, #4]
 80016d0:	3208      	adds	r2, #8
 80016d2:	69b9      	ldr	r1, [r7, #24]
 80016d4:	f843 1022 	str.w	r1, [r3, r2, lsl #2]
      }

      /* Configure IO Direction mode (Input, Output, Alternate or Analog) */
      temp = GPIOx->MODER;
 80016d8:	687b      	ldr	r3, [r7, #4]
 80016da:	681b      	ldr	r3, [r3, #0]
 80016dc:	61bb      	str	r3, [r7, #24]
      temp &= ~(GPIO_MODER_MODER0 << (position * 2U));
 80016de:	69fb      	ldr	r3, [r7, #28]
 80016e0:	005b      	lsls	r3, r3, #1
 80016e2:	2203      	movs	r2, #3
 80016e4:	fa02 f303 	lsl.w	r3, r2, r3
 80016e8:	43db      	mvns	r3, r3
 80016ea:	69ba      	ldr	r2, [r7, #24]
 80016ec:	4013      	ands	r3, r2
 80016ee:	61bb      	str	r3, [r7, #24]
      temp |= ((GPIO_Init->Mode & GPIO_MODE) << (position * 2U));
 80016f0:	683b      	ldr	r3, [r7, #0]
 80016f2:	685b      	ldr	r3, [r3, #4]
 80016f4:	f003 0203 	and.w	r2, r3, #3
 80016f8:	69fb      	ldr	r3, [r7, #28]
 80016fa:	005b      	lsls	r3, r3, #1
 80016fc:	fa02 f303 	lsl.w	r3, r2, r3
 8001700:	69ba      	ldr	r2, [r7, #24]
 8001702:	4313      	orrs	r3, r2
 8001704:	61bb      	str	r3, [r7, #24]
      GPIOx->MODER = temp;
 8001706:	687b      	ldr	r3, [r7, #4]
 8001708:	69ba      	ldr	r2, [r7, #24]
 800170a:	601a      	str	r2, [r3, #0]

      /*--------------------- EXTI Mode Configuration ------------------------*/
      /* Configure the External Interrupt or event for the current IO */
      if((GPIO_Init->Mode & EXTI_MODE) != 0x00U)
 800170c:	683b      	ldr	r3, [r7, #0]
 800170e:	685b      	ldr	r3, [r3, #4]
 8001710:	f403 3340 	and.w	r3, r3, #196608	; 0x30000
 8001714:	2b00      	cmp	r3, #0
 8001716:	f000 80b4 	beq.w	8001882 <HAL_GPIO_Init+0x2ee>
      {
        /* Enable SYSCFG Clock */
        __HAL_RCC_SYSCFG_CLK_ENABLE();
 800171a:	2300      	movs	r3, #0
 800171c:	60fb      	str	r3, [r7, #12]
 800171e:	4b60      	ldr	r3, [pc, #384]	; (80018a0 <HAL_GPIO_Init+0x30c>)
 8001720:	6c5b      	ldr	r3, [r3, #68]	; 0x44
 8001722:	4a5f      	ldr	r2, [pc, #380]	; (80018a0 <HAL_GPIO_Init+0x30c>)
 8001724:	f443 4380 	orr.w	r3, r3, #16384	; 0x4000
 8001728:	6453      	str	r3, [r2, #68]	; 0x44
 800172a:	4b5d      	ldr	r3, [pc, #372]	; (80018a0 <HAL_GPIO_Init+0x30c>)
 800172c:	6c5b      	ldr	r3, [r3, #68]	; 0x44
 800172e:	f403 4380 	and.w	r3, r3, #16384	; 0x4000
 8001732:	60fb      	str	r3, [r7, #12]
 8001734:	68fb      	ldr	r3, [r7, #12]

        temp = SYSCFG->EXTICR[position >> 2U];
 8001736:	4a5b      	ldr	r2, [pc, #364]	; (80018a4 <HAL_GPIO_Init+0x310>)
 8001738:	69fb      	ldr	r3, [r7, #28]
 800173a:	089b      	lsrs	r3, r3, #2
 800173c:	3302      	adds	r3, #2
 800173e:	f852 3023 	ldr.w	r3, [r2, r3, lsl #2]
 8001742:	61bb      	str	r3, [r7, #24]
        temp &= ~(0x0FU << (4U * (position & 0x03U)));
 8001744:	69fb      	ldr	r3, [r7, #28]
 8001746:	f003 0303 	and.w	r3, r3, #3
 800174a:	009b      	lsls	r3, r3, #2
 800174c:	220f      	movs	r2, #15
 800174e:	fa02 f303 	lsl.w	r3, r2, r3
 8001752:	43db      	mvns	r3, r3
 8001754:	69ba      	ldr	r2, [r7, #24]
 8001756:	4013      	ands	r3, r2
 8001758:	61bb      	str	r3, [r7, #24]
        temp |= ((uint32_t)(GPIO_GET_INDEX(GPIOx)) << (4U * (position & 0x03U)));
 800175a:	687b      	ldr	r3, [r7, #4]
 800175c:	4a52      	ldr	r2, [pc, #328]	; (80018a8 <HAL_GPIO_Init+0x314>)
 800175e:	4293      	cmp	r3, r2
 8001760:	d02b      	beq.n	80017ba <HAL_GPIO_Init+0x226>
 8001762:	687b      	ldr	r3, [r7, #4]
 8001764:	4a51      	ldr	r2, [pc, #324]	; (80018ac <HAL_GPIO_Init+0x318>)
 8001766:	4293      	cmp	r3, r2
 8001768:	d025      	beq.n	80017b6 <HAL_GPIO_Init+0x222>
 800176a:	687b      	ldr	r3, [r7, #4]
 800176c:	4a50      	ldr	r2, [pc, #320]	; (80018b0 <HAL_GPIO_Init+0x31c>)
 800176e:	4293      	cmp	r3, r2
 8001770:	d01f      	beq.n	80017b2 <HAL_GPIO_Init+0x21e>
 8001772:	687b      	ldr	r3, [r7, #4]
 8001774:	4a4f      	ldr	r2, [pc, #316]	; (80018b4 <HAL_GPIO_Init+0x320>)
 8001776:	4293      	cmp	r3, r2
 8001778:	d019      	beq.n	80017ae <HAL_GPIO_Init+0x21a>
 800177a:	687b      	ldr	r3, [r7, #4]
 800177c:	4a4e      	ldr	r2, [pc, #312]	; (80018b8 <HAL_GPIO_Init+0x324>)
 800177e:	4293      	cmp	r3, r2
 8001780:	d013      	beq.n	80017aa <HAL_GPIO_Init+0x216>
 8001782:	687b      	ldr	r3, [r7, #4]
 8001784:	4a4d      	ldr	r2, [pc, #308]	; (80018bc <HAL_GPIO_Init+0x328>)
 8001786:	4293      	cmp	r3, r2
 8001788:	d00d      	beq.n	80017a6 <HAL_GPIO_Init+0x212>
 800178a:	687b      	ldr	r3, [r7, #4]
 800178c:	4a4c      	ldr	r2, [pc, #304]	; (80018c0 <HAL_GPIO_Init+0x32c>)
 800178e:	4293      	cmp	r3, r2
 8001790:	d007      	beq.n	80017a2 <HAL_GPIO_Init+0x20e>
 8001792:	687b      	ldr	r3, [r7, #4]
 8001794:	4a4b      	ldr	r2, [pc, #300]	; (80018c4 <HAL_GPIO_Init+0x330>)
 8001796:	4293      	cmp	r3, r2
 8001798:	d101      	bne.n	800179e <HAL_GPIO_Init+0x20a>
 800179a:	2307      	movs	r3, #7
 800179c:	e00e      	b.n	80017bc <HAL_GPIO_Init+0x228>
 800179e:	2308      	movs	r3, #8
 80017a0:	e00c      	b.n	80017bc <HAL_GPIO_Init+0x228>
 80017a2:	2306      	movs	r3, #6
 80017a4:	e00a      	b.n	80017bc <HAL_GPIO_Init+0x228>
 80017a6:	2305      	movs	r3, #5
 80017a8:	e008      	b.n	80017bc <HAL_GPIO_Init+0x228>
 80017aa:	2304      	movs	r3, #4
 80017ac:	e006      	b.n	80017bc <HAL_GPIO_Init+0x228>
 80017ae:	2303      	movs	r3, #3
 80017b0:	e004      	b.n	80017bc <HAL_GPIO_Init+0x228>
 80017b2:	2302      	movs	r3, #2
 80017b4:	e002      	b.n	80017bc <HAL_GPIO_Init+0x228>
 80017b6:	2301      	movs	r3, #1
 80017b8:	e000      	b.n	80017bc <HAL_GPIO_Init+0x228>
 80017ba:	2300      	movs	r3, #0
 80017bc:	69fa      	ldr	r2, [r7, #28]
 80017be:	f002 0203 	and.w	r2, r2, #3
 80017c2:	0092      	lsls	r2, r2, #2
 80017c4:	4093      	lsls	r3, r2
 80017c6:	69ba      	ldr	r2, [r7, #24]
 80017c8:	4313      	orrs	r3, r2
 80017ca:	61bb      	str	r3, [r7, #24]
        SYSCFG->EXTICR[position >> 2U] = temp;
 80017cc:	4935      	ldr	r1, [pc, #212]	; (80018a4 <HAL_GPIO_Init+0x310>)
 80017ce:	69fb      	ldr	r3, [r7, #28]
 80017d0:	089b      	lsrs	r3, r3, #2
 80017d2:	3302      	adds	r3, #2
 80017d4:	69ba      	ldr	r2, [r7, #24]
 80017d6:	f841 2023 	str.w	r2, [r1, r3, lsl #2]

        /* Clear Rising Falling edge configuration */
        temp = EXTI->RTSR;
 80017da:	4b3b      	ldr	r3, [pc, #236]	; (80018c8 <HAL_GPIO_Init+0x334>)
 80017dc:	689b      	ldr	r3, [r3, #8]
 80017de:	61bb      	str	r3, [r7, #24]
        temp &= ~((uint32_t)iocurrent);
 80017e0:	693b      	ldr	r3, [r7, #16]
 80017e2:	43db      	mvns	r3, r3
 80017e4:	69ba      	ldr	r2, [r7, #24]
 80017e6:	4013      	ands	r3, r2
 80017e8:	61bb      	str	r3, [r7, #24]
        if((GPIO_Init->Mode & TRIGGER_RISING) != 0x00U)
 80017ea:	683b      	ldr	r3, [r7, #0]
 80017ec:	685b      	ldr	r3, [r3, #4]
 80017ee:	f403 1380 	and.w	r3, r3, #1048576	; 0x100000
 80017f2:	2b00      	cmp	r3, #0
 80017f4:	d003      	beq.n	80017fe <HAL_GPIO_Init+0x26a>
        {
          temp |= iocurrent;
 80017f6:	69ba      	ldr	r2, [r7, #24]
 80017f8:	693b      	ldr	r3, [r7, #16]
 80017fa:	4313      	orrs	r3, r2
 80017fc:	61bb      	str	r3, [r7, #24]
        }
        EXTI->RTSR = temp;
 80017fe:	4a32      	ldr	r2, [pc, #200]	; (80018c8 <HAL_GPIO_Init+0x334>)
 8001800:	69bb      	ldr	r3, [r7, #24]
 8001802:	6093      	str	r3, [r2, #8]

        temp = EXTI->FTSR;
 8001804:	4b30      	ldr	r3, [pc, #192]	; (80018c8 <HAL_GPIO_Init+0x334>)
 8001806:	68db      	ldr	r3, [r3, #12]
 8001808:	61bb      	str	r3, [r7, #24]
        temp &= ~((uint32_t)iocurrent);
 800180a:	693b      	ldr	r3, [r7, #16]
 800180c:	43db      	mvns	r3, r3
 800180e:	69ba      	ldr	r2, [r7, #24]
 8001810:	4013      	ands	r3, r2
 8001812:	61bb      	str	r3, [r7, #24]
        if((GPIO_Init->Mode & TRIGGER_FALLING) != 0x00U)
 8001814:	683b      	ldr	r3, [r7, #0]
 8001816:	685b      	ldr	r3, [r3, #4]
 8001818:	f403 1300 	and.w	r3, r3, #2097152	; 0x200000
 800181c:	2b00      	cmp	r3, #0
 800181e:	d003      	beq.n	8001828 <HAL_GPIO_Init+0x294>
        {
          temp |= iocurrent;
 8001820:	69ba      	ldr	r2, [r7, #24]
 8001822:	693b      	ldr	r3, [r7, #16]
 8001824:	4313      	orrs	r3, r2
 8001826:	61bb      	str	r3, [r7, #24]
        }
        EXTI->FTSR = temp;
 8001828:	4a27      	ldr	r2, [pc, #156]	; (80018c8 <HAL_GPIO_Init+0x334>)
 800182a:	69bb      	ldr	r3, [r7, #24]
 800182c:	60d3      	str	r3, [r2, #12]

        temp = EXTI->EMR;
 800182e:	4b26      	ldr	r3, [pc, #152]	; (80018c8 <HAL_GPIO_Init+0x334>)
 8001830:	685b      	ldr	r3, [r3, #4]
 8001832:	61bb      	str	r3, [r7, #24]
        temp &= ~((uint32_t)iocurrent);
 8001834:	693b      	ldr	r3, [r7, #16]
 8001836:	43db      	mvns	r3, r3
 8001838:	69ba      	ldr	r2, [r7, #24]
 800183a:	4013      	ands	r3, r2
 800183c:	61bb      	str	r3, [r7, #24]
        if((GPIO_Init->Mode & EXTI_EVT) != 0x00U)
 800183e:	683b      	ldr	r3, [r7, #0]
 8001840:	685b      	ldr	r3, [r3, #4]
 8001842:	f403 3300 	and.w	r3, r3, #131072	; 0x20000
 8001846:	2b00      	cmp	r3, #0
 8001848:	d003      	beq.n	8001852 <HAL_GPIO_Init+0x2be>
        {
          temp |= iocurrent;
 800184a:	69ba      	ldr	r2, [r7, #24]
 800184c:	693b      	ldr	r3, [r7, #16]
 800184e:	4313      	orrs	r3, r2
 8001850:	61bb      	str	r3, [r7, #24]
        }
        EXTI->EMR = temp;
 8001852:	4a1d      	ldr	r2, [pc, #116]	; (80018c8 <HAL_GPIO_Init+0x334>)
 8001854:	69bb      	ldr	r3, [r7, #24]
 8001856:	6053      	str	r3, [r2, #4]

        /* Clear EXTI line configuration */
        temp = EXTI->IMR;
 8001858:	4b1b      	ldr	r3, [pc, #108]	; (80018c8 <HAL_GPIO_Init+0x334>)
 800185a:	681b      	ldr	r3, [r3, #0]
 800185c:	61bb      	str	r3, [r7, #24]
        temp &= ~((uint32_t)iocurrent);
 800185e:	693b      	ldr	r3, [r7, #16]
 8001860:	43db      	mvns	r3, r3
 8001862:	69ba      	ldr	r2, [r7, #24]
 8001864:	4013      	ands	r3, r2
 8001866:	61bb      	str	r3, [r7, #24]
        if((GPIO_Init->Mode & EXTI_IT) != 0x00U)
 8001868:	683b      	ldr	r3, [r7, #0]
 800186a:	685b      	ldr	r3, [r3, #4]
 800186c:	f403 3380 	and.w	r3, r3, #65536	; 0x10000
 8001870:	2b00      	cmp	r3, #0
 8001872:	d003      	beq.n	800187c <HAL_GPIO_Init+0x2e8>
        {
          temp |= iocurrent;
 8001874:	69ba      	ldr	r2, [r7, #24]
 8001876:	693b      	ldr	r3, [r7, #16]
 8001878:	4313      	orrs	r3, r2
 800187a:	61bb      	str	r3, [r7, #24]
        }
        EXTI->IMR = temp;
 800187c:	4a12      	ldr	r2, [pc, #72]	; (80018c8 <HAL_GPIO_Init+0x334>)
 800187e:	69bb      	ldr	r3, [r7, #24]
 8001880:	6013      	str	r3, [r2, #0]
  for(position = 0U; position < GPIO_NUMBER; position++)
 8001882:	69fb      	ldr	r3, [r7, #28]
 8001884:	3301      	adds	r3, #1
 8001886:	61fb      	str	r3, [r7, #28]
 8001888:	69fb      	ldr	r3, [r7, #28]
 800188a:	2b0f      	cmp	r3, #15
 800188c:	f67f ae90 	bls.w	80015b0 <HAL_GPIO_Init+0x1c>
      }
    }
  }
}
 8001890:	bf00      	nop
 8001892:	bf00      	nop
 8001894:	3724      	adds	r7, #36	; 0x24
 8001896:	46bd      	mov	sp, r7
 8001898:	f85d 7b04 	ldr.w	r7, [sp], #4
 800189c:	4770      	bx	lr
 800189e:	bf00      	nop
 80018a0:	40023800 	.word	0x40023800
 80018a4:	40013800 	.word	0x40013800
 80018a8:	40020000 	.word	0x40020000
 80018ac:	40020400 	.word	0x40020400
 80018b0:	40020800 	.word	0x40020800
 80018b4:	40020c00 	.word	0x40020c00
 80018b8:	40021000 	.word	0x40021000
 80018bc:	40021400 	.word	0x40021400
 80018c0:	40021800 	.word	0x40021800
 80018c4:	40021c00 	.word	0x40021c00
 80018c8:	40013c00 	.word	0x40013c00

080018cc <HAL_GPIO_WritePin>:
  *            @arg GPIO_PIN_RESET: to clear the port pin
  *            @arg GPIO_PIN_SET: to set the port pin
  * @retval None
  */
void HAL_GPIO_WritePin(GPIO_TypeDef* GPIOx, uint16_t GPIO_Pin, GPIO_PinState PinState)
{
 80018cc:	b480      	push	{r7}
 80018ce:	b083      	sub	sp, #12
 80018d0:	af00      	add	r7, sp, #0
 80018d2:	6078      	str	r0, [r7, #4]
 80018d4:	460b      	mov	r3, r1
 80018d6:	807b      	strh	r3, [r7, #2]
 80018d8:	4613      	mov	r3, r2
 80018da:	707b      	strb	r3, [r7, #1]
  /* Check the parameters */
  assert_param(IS_GPIO_PIN(GPIO_Pin));
  assert_param(IS_GPIO_PIN_ACTION(PinState));

  if(PinState != GPIO_PIN_RESET)
 80018dc:	787b      	ldrb	r3, [r7, #1]
 80018de:	2b00      	cmp	r3, #0
 80018e0:	d003      	beq.n	80018ea <HAL_GPIO_WritePin+0x1e>
  {
    GPIOx->BSRR = GPIO_Pin;
 80018e2:	887a      	ldrh	r2, [r7, #2]
 80018e4:	687b      	ldr	r3, [r7, #4]
 80018e6:	619a      	str	r2, [r3, #24]
  }
  else
  {
    GPIOx->BSRR = (uint32_t)GPIO_Pin << 16U;
  }
}
 80018e8:	e003      	b.n	80018f2 <HAL_GPIO_WritePin+0x26>
    GPIOx->BSRR = (uint32_t)GPIO_Pin << 16U;
 80018ea:	887b      	ldrh	r3, [r7, #2]
 80018ec:	041a      	lsls	r2, r3, #16
 80018ee:	687b      	ldr	r3, [r7, #4]
 80018f0:	619a      	str	r2, [r3, #24]
}
 80018f2:	bf00      	nop
 80018f4:	370c      	adds	r7, #12
 80018f6:	46bd      	mov	sp, r7
 80018f8:	f85d 7b04 	ldr.w	r7, [sp], #4
 80018fc:	4770      	bx	lr
	...

08001900 <HAL_RCC_OscConfig>:
  *         supported by this API. User should request a transition to HSE Off
  *         first and then HSE On or HSE Bypass.
  * @retval HAL status
  */
__weak HAL_StatusTypeDef HAL_RCC_OscConfig(RCC_OscInitTypeDef  *RCC_OscInitStruct)
{
 8001900:	b580      	push	{r7, lr}
 8001902:	b086      	sub	sp, #24
 8001904:	af00      	add	r7, sp, #0
 8001906:	6078      	str	r0, [r7, #4]
  uint32_t tickstart, pll_config;

  /* Check Null pointer */
  if(RCC_OscInitStruct == NULL)
 8001908:	687b      	ldr	r3, [r7, #4]
 800190a:	2b00      	cmp	r3, #0
 800190c:	d101      	bne.n	8001912 <HAL_RCC_OscConfig+0x12>
  {
    return HAL_ERROR;
 800190e:	2301      	movs	r3, #1
 8001910:	e267      	b.n	8001de2 <HAL_RCC_OscConfig+0x4e2>
  }

  /* Check the parameters */
  assert_param(IS_RCC_OSCILLATORTYPE(RCC_OscInitStruct->OscillatorType));
  /*------------------------------- HSE Configuration ------------------------*/
  if(((RCC_OscInitStruct->OscillatorType) & RCC_OSCILLATORTYPE_HSE) == RCC_OSCILLATORTYPE_HSE)
 8001912:	687b      	ldr	r3, [r7, #4]
 8001914:	681b      	ldr	r3, [r3, #0]
 8001916:	f003 0301 	and.w	r3, r3, #1
 800191a:	2b00      	cmp	r3, #0
 800191c:	d075      	beq.n	8001a0a <HAL_RCC_OscConfig+0x10a>
  {
    /* Check the parameters */
    assert_param(IS_RCC_HSE(RCC_OscInitStruct->HSEState));
    /* When the HSE is used as system clock or clock source for PLL in these cases HSE will not disabled */
    if((__HAL_RCC_GET_SYSCLK_SOURCE() == RCC_CFGR_SWS_HSE) ||\
 800191e:	4b88      	ldr	r3, [pc, #544]	; (8001b40 <HAL_RCC_OscConfig+0x240>)
 8001920:	689b      	ldr	r3, [r3, #8]
 8001922:	f003 030c 	and.w	r3, r3, #12
 8001926:	2b04      	cmp	r3, #4
 8001928:	d00c      	beq.n	8001944 <HAL_RCC_OscConfig+0x44>
      ((__HAL_RCC_GET_SYSCLK_SOURCE() == RCC_CFGR_SWS_PLL) && ((RCC->PLLCFGR & RCC_PLLCFGR_PLLSRC) == RCC_PLLCFGR_PLLSRC_HSE)))
 800192a:	4b85      	ldr	r3, [pc, #532]	; (8001b40 <HAL_RCC_OscConfig+0x240>)
 800192c:	689b      	ldr	r3, [r3, #8]
 800192e:	f003 030c 	and.w	r3, r3, #12
    if((__HAL_RCC_GET_SYSCLK_SOURCE() == RCC_CFGR_SWS_HSE) ||\
 8001932:	2b08      	cmp	r3, #8
 8001934:	d112      	bne.n	800195c <HAL_RCC_OscConfig+0x5c>
      ((__HAL_RCC_GET_SYSCLK_SOURCE() == RCC_CFGR_SWS_PLL) && ((RCC->PLLCFGR & RCC_PLLCFGR_PLLSRC) == RCC_PLLCFGR_PLLSRC_HSE)))
 8001936:	4b82      	ldr	r3, [pc, #520]	; (8001b40 <HAL_RCC_OscConfig+0x240>)
 8001938:	685b      	ldr	r3, [r3, #4]
 800193a:	f403 0380 	and.w	r3, r3, #4194304	; 0x400000
 800193e:	f5b3 0f80 	cmp.w	r3, #4194304	; 0x400000
 8001942:	d10b      	bne.n	800195c <HAL_RCC_OscConfig+0x5c>
    {
      if((__HAL_RCC_GET_FLAG(RCC_FLAG_HSERDY) != RESET) && (RCC_OscInitStruct->HSEState == RCC_HSE_OFF))
 8001944:	4b7e      	ldr	r3, [pc, #504]	; (8001b40 <HAL_RCC_OscConfig+0x240>)
 8001946:	681b      	ldr	r3, [r3, #0]
 8001948:	f403 3300 	and.w	r3, r3, #131072	; 0x20000
 800194c:	2b00      	cmp	r3, #0
 800194e:	d05b      	beq.n	8001a08 <HAL_RCC_OscConfig+0x108>
 8001950:	687b      	ldr	r3, [r7, #4]
 8001952:	685b      	ldr	r3, [r3, #4]
 8001954:	2b00      	cmp	r3, #0
 8001956:	d157      	bne.n	8001a08 <HAL_RCC_OscConfig+0x108>
      {
        return HAL_ERROR;
 8001958:	2301      	movs	r3, #1
 800195a:	e242      	b.n	8001de2 <HAL_RCC_OscConfig+0x4e2>
      }
    }
    else
    {
      /* Set the new HSE configuration ---------------------------------------*/
      __HAL_RCC_HSE_CONFIG(RCC_OscInitStruct->HSEState);
 800195c:	687b      	ldr	r3, [r7, #4]
 800195e:	685b      	ldr	r3, [r3, #4]
 8001960:	f5b3 3f80 	cmp.w	r3, #65536	; 0x10000
 8001964:	d106      	bne.n	8001974 <HAL_RCC_OscConfig+0x74>
 8001966:	4b76      	ldr	r3, [pc, #472]	; (8001b40 <HAL_RCC_OscConfig+0x240>)
 8001968:	681b      	ldr	r3, [r3, #0]
 800196a:	4a75      	ldr	r2, [pc, #468]	; (8001b40 <HAL_RCC_OscConfig+0x240>)
 800196c:	f443 3380 	orr.w	r3, r3, #65536	; 0x10000
 8001970:	6013      	str	r3, [r2, #0]
 8001972:	e01d      	b.n	80019b0 <HAL_RCC_OscConfig+0xb0>
 8001974:	687b      	ldr	r3, [r7, #4]
 8001976:	685b      	ldr	r3, [r3, #4]
 8001978:	f5b3 2fa0 	cmp.w	r3, #327680	; 0x50000
 800197c:	d10c      	bne.n	8001998 <HAL_RCC_OscConfig+0x98>
 800197e:	4b70      	ldr	r3, [pc, #448]	; (8001b40 <HAL_RCC_OscConfig+0x240>)
 8001980:	681b      	ldr	r3, [r3, #0]
 8001982:	4a6f      	ldr	r2, [pc, #444]	; (8001b40 <HAL_RCC_OscConfig+0x240>)
 8001984:	f443 2380 	orr.w	r3, r3, #262144	; 0x40000
 8001988:	6013      	str	r3, [r2, #0]
 800198a:	4b6d      	ldr	r3, [pc, #436]	; (8001b40 <HAL_RCC_OscConfig+0x240>)
 800198c:	681b      	ldr	r3, [r3, #0]
 800198e:	4a6c      	ldr	r2, [pc, #432]	; (8001b40 <HAL_RCC_OscConfig+0x240>)
 8001990:	f443 3380 	orr.w	r3, r3, #65536	; 0x10000
 8001994:	6013      	str	r3, [r2, #0]
 8001996:	e00b      	b.n	80019b0 <HAL_RCC_OscConfig+0xb0>
 8001998:	4b69      	ldr	r3, [pc, #420]	; (8001b40 <HAL_RCC_OscConfig+0x240>)
 800199a:	681b      	ldr	r3, [r3, #0]
 800199c:	4a68      	ldr	r2, [pc, #416]	; (8001b40 <HAL_RCC_OscConfig+0x240>)
 800199e:	f423 3380 	bic.w	r3, r3, #65536	; 0x10000
 80019a2:	6013      	str	r3, [r2, #0]
 80019a4:	4b66      	ldr	r3, [pc, #408]	; (8001b40 <HAL_RCC_OscConfig+0x240>)
 80019a6:	681b      	ldr	r3, [r3, #0]
 80019a8:	4a65      	ldr	r2, [pc, #404]	; (8001b40 <HAL_RCC_OscConfig+0x240>)
 80019aa:	f423 2380 	bic.w	r3, r3, #262144	; 0x40000
 80019ae:	6013      	str	r3, [r2, #0]

      /* Check the HSE State */
      if((RCC_OscInitStruct->HSEState) != RCC_HSE_OFF)
 80019b0:	687b      	ldr	r3, [r7, #4]
 80019b2:	685b      	ldr	r3, [r3, #4]
 80019b4:	2b00      	cmp	r3, #0
 80019b6:	d013      	beq.n	80019e0 <HAL_RCC_OscConfig+0xe0>
      {
        /* Get Start Tick */
        tickstart = HAL_GetTick();
 80019b8:	f7ff f82e 	bl	8000a18 <HAL_GetTick>
 80019bc:	6138      	str	r0, [r7, #16]

        /* Wait till HSE is ready */
        while(__HAL_RCC_GET_FLAG(RCC_FLAG_HSERDY) == RESET)
 80019be:	e008      	b.n	80019d2 <HAL_RCC_OscConfig+0xd2>
        {
          if((HAL_GetTick() - tickstart ) > HSE_TIMEOUT_VALUE)
 80019c0:	f7ff f82a 	bl	8000a18 <HAL_GetTick>
 80019c4:	4602      	mov	r2, r0
 80019c6:	693b      	ldr	r3, [r7, #16]
 80019c8:	1ad3      	subs	r3, r2, r3
 80019ca:	2b64      	cmp	r3, #100	; 0x64
 80019cc:	d901      	bls.n	80019d2 <HAL_RCC_OscConfig+0xd2>
          {
            return HAL_TIMEOUT;
 80019ce:	2303      	movs	r3, #3
 80019d0:	e207      	b.n	8001de2 <HAL_RCC_OscConfig+0x4e2>
        while(__HAL_RCC_GET_FLAG(RCC_FLAG_HSERDY) == RESET)
 80019d2:	4b5b      	ldr	r3, [pc, #364]	; (8001b40 <HAL_RCC_OscConfig+0x240>)
 80019d4:	681b      	ldr	r3, [r3, #0]
 80019d6:	f403 3300 	and.w	r3, r3, #131072	; 0x20000
 80019da:	2b00      	cmp	r3, #0
 80019dc:	d0f0      	beq.n	80019c0 <HAL_RCC_OscConfig+0xc0>
 80019de:	e014      	b.n	8001a0a <HAL_RCC_OscConfig+0x10a>
        }
      }
      else
      {
        /* Get Start Tick */
        tickstart = HAL_GetTick();
 80019e0:	f7ff f81a 	bl	8000a18 <HAL_GetTick>
 80019e4:	6138      	str	r0, [r7, #16]

        /* Wait till HSE is bypassed or disabled */
        while(__HAL_RCC_GET_FLAG(RCC_FLAG_HSERDY) != RESET)
 80019e6:	e008      	b.n	80019fa <HAL_RCC_OscConfig+0xfa>
        {
          if((HAL_GetTick() - tickstart ) > HSE_TIMEOUT_VALUE)
 80019e8:	f7ff f816 	bl	8000a18 <HAL_GetTick>
 80019ec:	4602      	mov	r2, r0
 80019ee:	693b      	ldr	r3, [r7, #16]
 80019f0:	1ad3      	subs	r3, r2, r3
 80019f2:	2b64      	cmp	r3, #100	; 0x64
 80019f4:	d901      	bls.n	80019fa <HAL_RCC_OscConfig+0xfa>
          {
            return HAL_TIMEOUT;
 80019f6:	2303      	movs	r3, #3
 80019f8:	e1f3      	b.n	8001de2 <HAL_RCC_OscConfig+0x4e2>
        while(__HAL_RCC_GET_FLAG(RCC_FLAG_HSERDY) != RESET)
 80019fa:	4b51      	ldr	r3, [pc, #324]	; (8001b40 <HAL_RCC_OscConfig+0x240>)
 80019fc:	681b      	ldr	r3, [r3, #0]
 80019fe:	f403 3300 	and.w	r3, r3, #131072	; 0x20000
 8001a02:	2b00      	cmp	r3, #0
 8001a04:	d1f0      	bne.n	80019e8 <HAL_RCC_OscConfig+0xe8>
 8001a06:	e000      	b.n	8001a0a <HAL_RCC_OscConfig+0x10a>
      if((__HAL_RCC_GET_FLAG(RCC_FLAG_HSERDY) != RESET) && (RCC_OscInitStruct->HSEState == RCC_HSE_OFF))
 8001a08:	bf00      	nop
        }
      }
    }
  }
  /*----------------------------- HSI Configuration --------------------------*/
  if(((RCC_OscInitStruct->OscillatorType) & RCC_OSCILLATORTYPE_HSI) == RCC_OSCILLATORTYPE_HSI)
 8001a0a:	687b      	ldr	r3, [r7, #4]
 8001a0c:	681b      	ldr	r3, [r3, #0]
 8001a0e:	f003 0302 	and.w	r3, r3, #2
 8001a12:	2b00      	cmp	r3, #0
 8001a14:	d063      	beq.n	8001ade <HAL_RCC_OscConfig+0x1de>
    /* Check the parameters */
    assert_param(IS_RCC_HSI(RCC_OscInitStruct->HSIState));
    assert_param(IS_RCC_CALIBRATION_VALUE(RCC_OscInitStruct->HSICalibrationValue));

    /* Check if HSI is used as system clock or as PLL source when PLL is selected as system clock */
    if((__HAL_RCC_GET_SYSCLK_SOURCE() == RCC_CFGR_SWS_HSI) ||\
 8001a16:	4b4a      	ldr	r3, [pc, #296]	; (8001b40 <HAL_RCC_OscConfig+0x240>)
 8001a18:	689b      	ldr	r3, [r3, #8]
 8001a1a:	f003 030c 	and.w	r3, r3, #12
 8001a1e:	2b00      	cmp	r3, #0
 8001a20:	d00b      	beq.n	8001a3a <HAL_RCC_OscConfig+0x13a>
      ((__HAL_RCC_GET_SYSCLK_SOURCE() == RCC_CFGR_SWS_PLL) && ((RCC->PLLCFGR & RCC_PLLCFGR_PLLSRC) == RCC_PLLCFGR_PLLSRC_HSI)))
 8001a22:	4b47      	ldr	r3, [pc, #284]	; (8001b40 <HAL_RCC_OscConfig+0x240>)
 8001a24:	689b      	ldr	r3, [r3, #8]
 8001a26:	f003 030c 	and.w	r3, r3, #12
    if((__HAL_RCC_GET_SYSCLK_SOURCE() == RCC_CFGR_SWS_HSI) ||\
 8001a2a:	2b08      	cmp	r3, #8
 8001a2c:	d11c      	bne.n	8001a68 <HAL_RCC_OscConfig+0x168>
      ((__HAL_RCC_GET_SYSCLK_SOURCE() == RCC_CFGR_SWS_PLL) && ((RCC->PLLCFGR & RCC_PLLCFGR_PLLSRC) == RCC_PLLCFGR_PLLSRC_HSI)))
 8001a2e:	4b44      	ldr	r3, [pc, #272]	; (8001b40 <HAL_RCC_OscConfig+0x240>)
 8001a30:	685b      	ldr	r3, [r3, #4]
 8001a32:	f403 0380 	and.w	r3, r3, #4194304	; 0x400000
 8001a36:	2b00      	cmp	r3, #0
 8001a38:	d116      	bne.n	8001a68 <HAL_RCC_OscConfig+0x168>
    {
      /* When HSI is used as system clock it will not disabled */
      if((__HAL_RCC_GET_FLAG(RCC_FLAG_HSIRDY) != RESET) && (RCC_OscInitStruct->HSIState != RCC_HSI_ON))
 8001a3a:	4b41      	ldr	r3, [pc, #260]	; (8001b40 <HAL_RCC_OscConfig+0x240>)
 8001a3c:	681b      	ldr	r3, [r3, #0]
 8001a3e:	f003 0302 	and.w	r3, r3, #2
 8001a42:	2b00      	cmp	r3, #0
 8001a44:	d005      	beq.n	8001a52 <HAL_RCC_OscConfig+0x152>
 8001a46:	687b      	ldr	r3, [r7, #4]
 8001a48:	68db      	ldr	r3, [r3, #12]
 8001a4a:	2b01      	cmp	r3, #1
 8001a4c:	d001      	beq.n	8001a52 <HAL_RCC_OscConfig+0x152>
      {
        return HAL_ERROR;
 8001a4e:	2301      	movs	r3, #1
 8001a50:	e1c7      	b.n	8001de2 <HAL_RCC_OscConfig+0x4e2>
      }
      /* Otherwise, just the calibration is allowed */
      else
      {
        /* Adjusts the Internal High Speed oscillator (HSI) calibration value.*/
        __HAL_RCC_HSI_CALIBRATIONVALUE_ADJUST(RCC_OscInitStruct->HSICalibrationValue);
 8001a52:	4b3b      	ldr	r3, [pc, #236]	; (8001b40 <HAL_RCC_OscConfig+0x240>)
 8001a54:	681b      	ldr	r3, [r3, #0]
 8001a56:	f023 02f8 	bic.w	r2, r3, #248	; 0xf8
 8001a5a:	687b      	ldr	r3, [r7, #4]
 8001a5c:	691b      	ldr	r3, [r3, #16]
 8001a5e:	00db      	lsls	r3, r3, #3
 8001a60:	4937      	ldr	r1, [pc, #220]	; (8001b40 <HAL_RCC_OscConfig+0x240>)
 8001a62:	4313      	orrs	r3, r2
 8001a64:	600b      	str	r3, [r1, #0]
      if((__HAL_RCC_GET_FLAG(RCC_FLAG_HSIRDY) != RESET) && (RCC_OscInitStruct->HSIState != RCC_HSI_ON))
 8001a66:	e03a      	b.n	8001ade <HAL_RCC_OscConfig+0x1de>
      }
    }
    else
    {
      /* Check the HSI State */
      if((RCC_OscInitStruct->HSIState)!= RCC_HSI_OFF)
 8001a68:	687b      	ldr	r3, [r7, #4]
 8001a6a:	68db      	ldr	r3, [r3, #12]
 8001a6c:	2b00      	cmp	r3, #0
 8001a6e:	d020      	beq.n	8001ab2 <HAL_RCC_OscConfig+0x1b2>
      {
        /* Enable the Internal High Speed oscillator (HSI). */
        __HAL_RCC_HSI_ENABLE();
 8001a70:	4b34      	ldr	r3, [pc, #208]	; (8001b44 <HAL_RCC_OscConfig+0x244>)
 8001a72:	2201      	movs	r2, #1
 8001a74:	601a      	str	r2, [r3, #0]

        /* Get Start Tick*/
        tickstart = HAL_GetTick();
 8001a76:	f7fe ffcf 	bl	8000a18 <HAL_GetTick>
 8001a7a:	6138      	str	r0, [r7, #16]

        /* Wait till HSI is ready */
        while(__HAL_RCC_GET_FLAG(RCC_FLAG_HSIRDY) == RESET)
 8001a7c:	e008      	b.n	8001a90 <HAL_RCC_OscConfig+0x190>
        {
          if((HAL_GetTick() - tickstart ) > HSI_TIMEOUT_VALUE)
 8001a7e:	f7fe ffcb 	bl	8000a18 <HAL_GetTick>
 8001a82:	4602      	mov	r2, r0
 8001a84:	693b      	ldr	r3, [r7, #16]
 8001a86:	1ad3      	subs	r3, r2, r3
 8001a88:	2b02      	cmp	r3, #2
 8001a8a:	d901      	bls.n	8001a90 <HAL_RCC_OscConfig+0x190>
          {
            return HAL_TIMEOUT;
 8001a8c:	2303      	movs	r3, #3
 8001a8e:	e1a8      	b.n	8001de2 <HAL_RCC_OscConfig+0x4e2>
        while(__HAL_RCC_GET_FLAG(RCC_FLAG_HSIRDY) == RESET)
 8001a90:	4b2b      	ldr	r3, [pc, #172]	; (8001b40 <HAL_RCC_OscConfig+0x240>)
 8001a92:	681b      	ldr	r3, [r3, #0]
 8001a94:	f003 0302 	and.w	r3, r3, #2
 8001a98:	2b00      	cmp	r3, #0
 8001a9a:	d0f0      	beq.n	8001a7e <HAL_RCC_OscConfig+0x17e>
          }
        }

        /* Adjusts the Internal High Speed oscillator (HSI) calibration value. */
        __HAL_RCC_HSI_CALIBRATIONVALUE_ADJUST(RCC_OscInitStruct->HSICalibrationValue);
 8001a9c:	4b28      	ldr	r3, [pc, #160]	; (8001b40 <HAL_RCC_OscConfig+0x240>)
 8001a9e:	681b      	ldr	r3, [r3, #0]
 8001aa0:	f023 02f8 	bic.w	r2, r3, #248	; 0xf8
 8001aa4:	687b      	ldr	r3, [r7, #4]
 8001aa6:	691b      	ldr	r3, [r3, #16]
 8001aa8:	00db      	lsls	r3, r3, #3
 8001aaa:	4925      	ldr	r1, [pc, #148]	; (8001b40 <HAL_RCC_OscConfig+0x240>)
 8001aac:	4313      	orrs	r3, r2
 8001aae:	600b      	str	r3, [r1, #0]
 8001ab0:	e015      	b.n	8001ade <HAL_RCC_OscConfig+0x1de>
      }
      else
      {
        /* Disable the Internal High Speed oscillator (HSI). */
        __HAL_RCC_HSI_DISABLE();
 8001ab2:	4b24      	ldr	r3, [pc, #144]	; (8001b44 <HAL_RCC_OscConfig+0x244>)
 8001ab4:	2200      	movs	r2, #0
 8001ab6:	601a      	str	r2, [r3, #0]

        /* Get Start Tick*/
        tickstart = HAL_GetTick();
 8001ab8:	f7fe ffae 	bl	8000a18 <HAL_GetTick>
 8001abc:	6138      	str	r0, [r7, #16]

        /* Wait till HSI is ready */
        while(__HAL_RCC_GET_FLAG(RCC_FLAG_HSIRDY) != RESET)
 8001abe:	e008      	b.n	8001ad2 <HAL_RCC_OscConfig+0x1d2>
        {
          if((HAL_GetTick() - tickstart ) > HSI_TIMEOUT_VALUE)
 8001ac0:	f7fe ffaa 	bl	8000a18 <HAL_GetTick>
 8001ac4:	4602      	mov	r2, r0
 8001ac6:	693b      	ldr	r3, [r7, #16]
 8001ac8:	1ad3      	subs	r3, r2, r3
 8001aca:	2b02      	cmp	r3, #2
 8001acc:	d901      	bls.n	8001ad2 <HAL_RCC_OscConfig+0x1d2>
          {
            return HAL_TIMEOUT;
 8001ace:	2303      	movs	r3, #3
 8001ad0:	e187      	b.n	8001de2 <HAL_RCC_OscConfig+0x4e2>
        while(__HAL_RCC_GET_FLAG(RCC_FLAG_HSIRDY) != RESET)
 8001ad2:	4b1b      	ldr	r3, [pc, #108]	; (8001b40 <HAL_RCC_OscConfig+0x240>)
 8001ad4:	681b      	ldr	r3, [r3, #0]
 8001ad6:	f003 0302 	and.w	r3, r3, #2
 8001ada:	2b00      	cmp	r3, #0
 8001adc:	d1f0      	bne.n	8001ac0 <HAL_RCC_OscConfig+0x1c0>
        }
      }
    }
  }
  /*------------------------------ LSI Configuration -------------------------*/
  if(((RCC_OscInitStruct->OscillatorType) & RCC_OSCILLATORTYPE_LSI) == RCC_OSCILLATORTYPE_LSI)
 8001ade:	687b      	ldr	r3, [r7, #4]
 8001ae0:	681b      	ldr	r3, [r3, #0]
 8001ae2:	f003 0308 	and.w	r3, r3, #8
 8001ae6:	2b00      	cmp	r3, #0
 8001ae8:	d036      	beq.n	8001b58 <HAL_RCC_OscConfig+0x258>
  {
    /* Check the parameters */
    assert_param(IS_RCC_LSI(RCC_OscInitStruct->LSIState));

    /* Check the LSI State */
    if((RCC_OscInitStruct->LSIState)!= RCC_LSI_OFF)
 8001aea:	687b      	ldr	r3, [r7, #4]
 8001aec:	695b      	ldr	r3, [r3, #20]
 8001aee:	2b00      	cmp	r3, #0
 8001af0:	d016      	beq.n	8001b20 <HAL_RCC_OscConfig+0x220>
    {
      /* Enable the Internal Low Speed oscillator (LSI). */
      __HAL_RCC_LSI_ENABLE();
 8001af2:	4b15      	ldr	r3, [pc, #84]	; (8001b48 <HAL_RCC_OscConfig+0x248>)
 8001af4:	2201      	movs	r2, #1
 8001af6:	601a      	str	r2, [r3, #0]

      /* Get Start Tick*/
      tickstart = HAL_GetTick();
 8001af8:	f7fe ff8e 	bl	8000a18 <HAL_GetTick>
 8001afc:	6138      	str	r0, [r7, #16]

      /* Wait till LSI is ready */
      while(__HAL_RCC_GET_FLAG(RCC_FLAG_LSIRDY) == RESET)
 8001afe:	e008      	b.n	8001b12 <HAL_RCC_OscConfig+0x212>
      {
        if((HAL_GetTick() - tickstart ) > LSI_TIMEOUT_VALUE)
 8001b00:	f7fe ff8a 	bl	8000a18 <HAL_GetTick>
 8001b04:	4602      	mov	r2, r0
 8001b06:	693b      	ldr	r3, [r7, #16]
 8001b08:	1ad3      	subs	r3, r2, r3
 8001b0a:	2b02      	cmp	r3, #2
 8001b0c:	d901      	bls.n	8001b12 <HAL_RCC_OscConfig+0x212>
        {
          return HAL_TIMEOUT;
 8001b0e:	2303      	movs	r3, #3
 8001b10:	e167      	b.n	8001de2 <HAL_RCC_OscConfig+0x4e2>
      while(__HAL_RCC_GET_FLAG(RCC_FLAG_LSIRDY) == RESET)
 8001b12:	4b0b      	ldr	r3, [pc, #44]	; (8001b40 <HAL_RCC_OscConfig+0x240>)
 8001b14:	6f5b      	ldr	r3, [r3, #116]	; 0x74
 8001b16:	f003 0302 	and.w	r3, r3, #2
 8001b1a:	2b00      	cmp	r3, #0
 8001b1c:	d0f0      	beq.n	8001b00 <HAL_RCC_OscConfig+0x200>
 8001b1e:	e01b      	b.n	8001b58 <HAL_RCC_OscConfig+0x258>
      }
    }
    else
    {
      /* Disable the Internal Low Speed oscillator (LSI). */
      __HAL_RCC_LSI_DISABLE();
 8001b20:	4b09      	ldr	r3, [pc, #36]	; (8001b48 <HAL_RCC_OscConfig+0x248>)
 8001b22:	2200      	movs	r2, #0
 8001b24:	601a      	str	r2, [r3, #0]

      /* Get Start Tick */
      tickstart = HAL_GetTick();
 8001b26:	f7fe ff77 	bl	8000a18 <HAL_GetTick>
 8001b2a:	6138      	str	r0, [r7, #16]

      /* Wait till LSI is ready */
      while(__HAL_RCC_GET_FLAG(RCC_FLAG_LSIRDY) != RESET)
 8001b2c:	e00e      	b.n	8001b4c <HAL_RCC_OscConfig+0x24c>
      {
        if((HAL_GetTick() - tickstart ) > LSI_TIMEOUT_VALUE)
 8001b2e:	f7fe ff73 	bl	8000a18 <HAL_GetTick>
 8001b32:	4602      	mov	r2, r0
 8001b34:	693b      	ldr	r3, [r7, #16]
 8001b36:	1ad3      	subs	r3, r2, r3
 8001b38:	2b02      	cmp	r3, #2
 8001b3a:	d907      	bls.n	8001b4c <HAL_RCC_OscConfig+0x24c>
        {
          return HAL_TIMEOUT;
 8001b3c:	2303      	movs	r3, #3
 8001b3e:	e150      	b.n	8001de2 <HAL_RCC_OscConfig+0x4e2>
 8001b40:	40023800 	.word	0x40023800
 8001b44:	42470000 	.word	0x42470000
 8001b48:	42470e80 	.word	0x42470e80
      while(__HAL_RCC_GET_FLAG(RCC_FLAG_LSIRDY) != RESET)
 8001b4c:	4b88      	ldr	r3, [pc, #544]	; (8001d70 <HAL_RCC_OscConfig+0x470>)
 8001b4e:	6f5b      	ldr	r3, [r3, #116]	; 0x74
 8001b50:	f003 0302 	and.w	r3, r3, #2
 8001b54:	2b00      	cmp	r3, #0
 8001b56:	d1ea      	bne.n	8001b2e <HAL_RCC_OscConfig+0x22e>
        }
      }
    }
  }
  /*------------------------------ LSE Configuration -------------------------*/
  if(((RCC_OscInitStruct->OscillatorType) & RCC_OSCILLATORTYPE_LSE) == RCC_OSCILLATORTYPE_LSE)
 8001b58:	687b      	ldr	r3, [r7, #4]
 8001b5a:	681b      	ldr	r3, [r3, #0]
 8001b5c:	f003 0304 	and.w	r3, r3, #4
 8001b60:	2b00      	cmp	r3, #0
 8001b62:	f000 8097 	beq.w	8001c94 <HAL_RCC_OscConfig+0x394>
  {
    FlagStatus       pwrclkchanged = RESET;
 8001b66:	2300      	movs	r3, #0
 8001b68:	75fb      	strb	r3, [r7, #23]
    /* Check the parameters */
    assert_param(IS_RCC_LSE(RCC_OscInitStruct->LSEState));

    /* Update LSE configuration in Backup Domain control register    */
    /* Requires to enable write access to Backup Domain of necessary */
    if(__HAL_RCC_PWR_IS_CLK_DISABLED())
 8001b6a:	4b81      	ldr	r3, [pc, #516]	; (8001d70 <HAL_RCC_OscConfig+0x470>)
 8001b6c:	6c1b      	ldr	r3, [r3, #64]	; 0x40
 8001b6e:	f003 5380 	and.w	r3, r3, #268435456	; 0x10000000
 8001b72:	2b00      	cmp	r3, #0
 8001b74:	d10f      	bne.n	8001b96 <HAL_RCC_OscConfig+0x296>
    {
      __HAL_RCC_PWR_CLK_ENABLE();
 8001b76:	2300      	movs	r3, #0
 8001b78:	60bb      	str	r3, [r7, #8]
 8001b7a:	4b7d      	ldr	r3, [pc, #500]	; (8001d70 <HAL_RCC_OscConfig+0x470>)
 8001b7c:	6c1b      	ldr	r3, [r3, #64]	; 0x40
 8001b7e:	4a7c      	ldr	r2, [pc, #496]	; (8001d70 <HAL_RCC_OscConfig+0x470>)
 8001b80:	f043 5380 	orr.w	r3, r3, #268435456	; 0x10000000
 8001b84:	6413      	str	r3, [r2, #64]	; 0x40
 8001b86:	4b7a      	ldr	r3, [pc, #488]	; (8001d70 <HAL_RCC_OscConfig+0x470>)
 8001b88:	6c1b      	ldr	r3, [r3, #64]	; 0x40
 8001b8a:	f003 5380 	and.w	r3, r3, #268435456	; 0x10000000
 8001b8e:	60bb      	str	r3, [r7, #8]
 8001b90:	68bb      	ldr	r3, [r7, #8]
      pwrclkchanged = SET;
 8001b92:	2301      	movs	r3, #1
 8001b94:	75fb      	strb	r3, [r7, #23]
    }

    if(HAL_IS_BIT_CLR(PWR->CR, PWR_CR_DBP))
 8001b96:	4b77      	ldr	r3, [pc, #476]	; (8001d74 <HAL_RCC_OscConfig+0x474>)
 8001b98:	681b      	ldr	r3, [r3, #0]
 8001b9a:	f403 7380 	and.w	r3, r3, #256	; 0x100
 8001b9e:	2b00      	cmp	r3, #0
 8001ba0:	d118      	bne.n	8001bd4 <HAL_RCC_OscConfig+0x2d4>
    {
      /* Enable write access to Backup domain */
      SET_BIT(PWR->CR, PWR_CR_DBP);
 8001ba2:	4b74      	ldr	r3, [pc, #464]	; (8001d74 <HAL_RCC_OscConfig+0x474>)
 8001ba4:	681b      	ldr	r3, [r3, #0]
 8001ba6:	4a73      	ldr	r2, [pc, #460]	; (8001d74 <HAL_RCC_OscConfig+0x474>)
 8001ba8:	f443 7380 	orr.w	r3, r3, #256	; 0x100
 8001bac:	6013      	str	r3, [r2, #0]

      /* Wait for Backup domain Write protection disable */
      tickstart = HAL_GetTick();
 8001bae:	f7fe ff33 	bl	8000a18 <HAL_GetTick>
 8001bb2:	6138      	str	r0, [r7, #16]

      while(HAL_IS_BIT_CLR(PWR->CR, PWR_CR_DBP))
 8001bb4:	e008      	b.n	8001bc8 <HAL_RCC_OscConfig+0x2c8>
      {
        if((HAL_GetTick() - tickstart) > RCC_DBP_TIMEOUT_VALUE)
 8001bb6:	f7fe ff2f 	bl	8000a18 <HAL_GetTick>
 8001bba:	4602      	mov	r2, r0
 8001bbc:	693b      	ldr	r3, [r7, #16]
 8001bbe:	1ad3      	subs	r3, r2, r3
 8001bc0:	2b02      	cmp	r3, #2
 8001bc2:	d901      	bls.n	8001bc8 <HAL_RCC_OscConfig+0x2c8>
        {
          return HAL_TIMEOUT;
 8001bc4:	2303      	movs	r3, #3
 8001bc6:	e10c      	b.n	8001de2 <HAL_RCC_OscConfig+0x4e2>
      while(HAL_IS_BIT_CLR(PWR->CR, PWR_CR_DBP))
 8001bc8:	4b6a      	ldr	r3, [pc, #424]	; (8001d74 <HAL_RCC_OscConfig+0x474>)
 8001bca:	681b      	ldr	r3, [r3, #0]
 8001bcc:	f403 7380 	and.w	r3, r3, #256	; 0x100
 8001bd0:	2b00      	cmp	r3, #0
 8001bd2:	d0f0      	beq.n	8001bb6 <HAL_RCC_OscConfig+0x2b6>
        }
      }
    }

    /* Set the new LSE configuration -----------------------------------------*/
    __HAL_RCC_LSE_CONFIG(RCC_OscInitStruct->LSEState);
 8001bd4:	687b      	ldr	r3, [r7, #4]
 8001bd6:	689b      	ldr	r3, [r3, #8]
 8001bd8:	2b01      	cmp	r3, #1
 8001bda:	d106      	bne.n	8001bea <HAL_RCC_OscConfig+0x2ea>
 8001bdc:	4b64      	ldr	r3, [pc, #400]	; (8001d70 <HAL_RCC_OscConfig+0x470>)
 8001bde:	6f1b      	ldr	r3, [r3, #112]	; 0x70
 8001be0:	4a63      	ldr	r2, [pc, #396]	; (8001d70 <HAL_RCC_OscConfig+0x470>)
 8001be2:	f043 0301 	orr.w	r3, r3, #1
 8001be6:	6713      	str	r3, [r2, #112]	; 0x70
 8001be8:	e01c      	b.n	8001c24 <HAL_RCC_OscConfig+0x324>
 8001bea:	687b      	ldr	r3, [r7, #4]
 8001bec:	689b      	ldr	r3, [r3, #8]
 8001bee:	2b05      	cmp	r3, #5
 8001bf0:	d10c      	bne.n	8001c0c <HAL_RCC_OscConfig+0x30c>
 8001bf2:	4b5f      	ldr	r3, [pc, #380]	; (8001d70 <HAL_RCC_OscConfig+0x470>)
 8001bf4:	6f1b      	ldr	r3, [r3, #112]	; 0x70
 8001bf6:	4a5e      	ldr	r2, [pc, #376]	; (8001d70 <HAL_RCC_OscConfig+0x470>)
 8001bf8:	f043 0304 	orr.w	r3, r3, #4
 8001bfc:	6713      	str	r3, [r2, #112]	; 0x70
 8001bfe:	4b5c      	ldr	r3, [pc, #368]	; (8001d70 <HAL_RCC_OscConfig+0x470>)
 8001c00:	6f1b      	ldr	r3, [r3, #112]	; 0x70
 8001c02:	4a5b      	ldr	r2, [pc, #364]	; (8001d70 <HAL_RCC_OscConfig+0x470>)
 8001c04:	f043 0301 	orr.w	r3, r3, #1
 8001c08:	6713      	str	r3, [r2, #112]	; 0x70
 8001c0a:	e00b      	b.n	8001c24 <HAL_RCC_OscConfig+0x324>
 8001c0c:	4b58      	ldr	r3, [pc, #352]	; (8001d70 <HAL_RCC_OscConfig+0x470>)
 8001c0e:	6f1b      	ldr	r3, [r3, #112]	; 0x70
 8001c10:	4a57      	ldr	r2, [pc, #348]	; (8001d70 <HAL_RCC_OscConfig+0x470>)
 8001c12:	f023 0301 	bic.w	r3, r3, #1
 8001c16:	6713      	str	r3, [r2, #112]	; 0x70
 8001c18:	4b55      	ldr	r3, [pc, #340]	; (8001d70 <HAL_RCC_OscConfig+0x470>)
 8001c1a:	6f1b      	ldr	r3, [r3, #112]	; 0x70
 8001c1c:	4a54      	ldr	r2, [pc, #336]	; (8001d70 <HAL_RCC_OscConfig+0x470>)
 8001c1e:	f023 0304 	bic.w	r3, r3, #4
 8001c22:	6713      	str	r3, [r2, #112]	; 0x70
    /* Check the LSE State */
    if((RCC_OscInitStruct->LSEState) != RCC_LSE_OFF)
 8001c24:	687b      	ldr	r3, [r7, #4]
 8001c26:	689b      	ldr	r3, [r3, #8]
 8001c28:	2b00      	cmp	r3, #0
 8001c2a:	d015      	beq.n	8001c58 <HAL_RCC_OscConfig+0x358>
    {
      /* Get Start Tick*/
      tickstart = HAL_GetTick();
 8001c2c:	f7fe fef4 	bl	8000a18 <HAL_GetTick>
 8001c30:	6138      	str	r0, [r7, #16]

      /* Wait till LSE is ready */
      while(__HAL_RCC_GET_FLAG(RCC_FLAG_LSERDY) == RESET)
 8001c32:	e00a      	b.n	8001c4a <HAL_RCC_OscConfig+0x34a>
      {
        if((HAL_GetTick() - tickstart ) > RCC_LSE_TIMEOUT_VALUE)
 8001c34:	f7fe fef0 	bl	8000a18 <HAL_GetTick>
 8001c38:	4602      	mov	r2, r0
 8001c3a:	693b      	ldr	r3, [r7, #16]
 8001c3c:	1ad3      	subs	r3, r2, r3
 8001c3e:	f241 3288 	movw	r2, #5000	; 0x1388
 8001c42:	4293      	cmp	r3, r2
 8001c44:	d901      	bls.n	8001c4a <HAL_RCC_OscConfig+0x34a>
        {
          return HAL_TIMEOUT;
 8001c46:	2303      	movs	r3, #3
 8001c48:	e0cb      	b.n	8001de2 <HAL_RCC_OscConfig+0x4e2>
      while(__HAL_RCC_GET_FLAG(RCC_FLAG_LSERDY) == RESET)
 8001c4a:	4b49      	ldr	r3, [pc, #292]	; (8001d70 <HAL_RCC_OscConfig+0x470>)
 8001c4c:	6f1b      	ldr	r3, [r3, #112]	; 0x70
 8001c4e:	f003 0302 	and.w	r3, r3, #2
 8001c52:	2b00      	cmp	r3, #0
 8001c54:	d0ee      	beq.n	8001c34 <HAL_RCC_OscConfig+0x334>
 8001c56:	e014      	b.n	8001c82 <HAL_RCC_OscConfig+0x382>
      }
    }
    else
    {
      /* Get Start Tick */
      tickstart = HAL_GetTick();
 8001c58:	f7fe fede 	bl	8000a18 <HAL_GetTick>
 8001c5c:	6138      	str	r0, [r7, #16]

      /* Wait till LSE is ready */
      while(__HAL_RCC_GET_FLAG(RCC_FLAG_LSERDY) != RESET)
 8001c5e:	e00a      	b.n	8001c76 <HAL_RCC_OscConfig+0x376>
      {
        if((HAL_GetTick() - tickstart ) > RCC_LSE_TIMEOUT_VALUE)
 8001c60:	f7fe feda 	bl	8000a18 <HAL_GetTick>
 8001c64:	4602      	mov	r2, r0
 8001c66:	693b      	ldr	r3, [r7, #16]
 8001c68:	1ad3      	subs	r3, r2, r3
 8001c6a:	f241 3288 	movw	r2, #5000	; 0x1388
 8001c6e:	4293      	cmp	r3, r2
 8001c70:	d901      	bls.n	8001c76 <HAL_RCC_OscConfig+0x376>
        {
          return HAL_TIMEOUT;
 8001c72:	2303      	movs	r3, #3
 8001c74:	e0b5      	b.n	8001de2 <HAL_RCC_OscConfig+0x4e2>
      while(__HAL_RCC_GET_FLAG(RCC_FLAG_LSERDY) != RESET)
 8001c76:	4b3e      	ldr	r3, [pc, #248]	; (8001d70 <HAL_RCC_OscConfig+0x470>)
 8001c78:	6f1b      	ldr	r3, [r3, #112]	; 0x70
 8001c7a:	f003 0302 	and.w	r3, r3, #2
 8001c7e:	2b00      	cmp	r3, #0
 8001c80:	d1ee      	bne.n	8001c60 <HAL_RCC_OscConfig+0x360>
        }
      }
    }

    /* Restore clock configuration if changed */
    if(pwrclkchanged == SET)
 8001c82:	7dfb      	ldrb	r3, [r7, #23]
 8001c84:	2b01      	cmp	r3, #1
 8001c86:	d105      	bne.n	8001c94 <HAL_RCC_OscConfig+0x394>
    {
      __HAL_RCC_PWR_CLK_DISABLE();
 8001c88:	4b39      	ldr	r3, [pc, #228]	; (8001d70 <HAL_RCC_OscConfig+0x470>)
 8001c8a:	6c1b      	ldr	r3, [r3, #64]	; 0x40
 8001c8c:	4a38      	ldr	r2, [pc, #224]	; (8001d70 <HAL_RCC_OscConfig+0x470>)
 8001c8e:	f023 5380 	bic.w	r3, r3, #268435456	; 0x10000000
 8001c92:	6413      	str	r3, [r2, #64]	; 0x40
    }
  }
  /*-------------------------------- PLL Configuration -----------------------*/
  /* Check the parameters */
  assert_param(IS_RCC_PLL(RCC_OscInitStruct->PLL.PLLState));
  if ((RCC_OscInitStruct->PLL.PLLState) != RCC_PLL_NONE)
 8001c94:	687b      	ldr	r3, [r7, #4]
 8001c96:	699b      	ldr	r3, [r3, #24]
 8001c98:	2b00      	cmp	r3, #0
 8001c9a:	f000 80a1 	beq.w	8001de0 <HAL_RCC_OscConfig+0x4e0>
  {
    /* Check if the PLL is used as system clock or not */
    if(__HAL_RCC_GET_SYSCLK_SOURCE() != RCC_CFGR_SWS_PLL)
 8001c9e:	4b34      	ldr	r3, [pc, #208]	; (8001d70 <HAL_RCC_OscConfig+0x470>)
 8001ca0:	689b      	ldr	r3, [r3, #8]
 8001ca2:	f003 030c 	and.w	r3, r3, #12
 8001ca6:	2b08      	cmp	r3, #8
 8001ca8:	d05c      	beq.n	8001d64 <HAL_RCC_OscConfig+0x464>
    {
      if((RCC_OscInitStruct->PLL.PLLState) == RCC_PLL_ON)
 8001caa:	687b      	ldr	r3, [r7, #4]
 8001cac:	699b      	ldr	r3, [r3, #24]
 8001cae:	2b02      	cmp	r3, #2
 8001cb0:	d141      	bne.n	8001d36 <HAL_RCC_OscConfig+0x436>
        assert_param(IS_RCC_PLLN_VALUE(RCC_OscInitStruct->PLL.PLLN));
        assert_param(IS_RCC_PLLP_VALUE(RCC_OscInitStruct->PLL.PLLP));
        assert_param(IS_RCC_PLLQ_VALUE(RCC_OscInitStruct->PLL.PLLQ));

        /* Disable the main PLL. */
        __HAL_RCC_PLL_DISABLE();
 8001cb2:	4b31      	ldr	r3, [pc, #196]	; (8001d78 <HAL_RCC_OscConfig+0x478>)
 8001cb4:	2200      	movs	r2, #0
 8001cb6:	601a      	str	r2, [r3, #0]

        /* Get Start Tick */
        tickstart = HAL_GetTick();
 8001cb8:	f7fe feae 	bl	8000a18 <HAL_GetTick>
 8001cbc:	6138      	str	r0, [r7, #16]

        /* Wait till PLL is ready */
        while(__HAL_RCC_GET_FLAG(RCC_FLAG_PLLRDY) != RESET)
 8001cbe:	e008      	b.n	8001cd2 <HAL_RCC_OscConfig+0x3d2>
        {
          if((HAL_GetTick() - tickstart ) > PLL_TIMEOUT_VALUE)
 8001cc0:	f7fe feaa 	bl	8000a18 <HAL_GetTick>
 8001cc4:	4602      	mov	r2, r0
 8001cc6:	693b      	ldr	r3, [r7, #16]
 8001cc8:	1ad3      	subs	r3, r2, r3
 8001cca:	2b02      	cmp	r3, #2
 8001ccc:	d901      	bls.n	8001cd2 <HAL_RCC_OscConfig+0x3d2>
          {
            return HAL_TIMEOUT;
 8001cce:	2303      	movs	r3, #3
 8001cd0:	e087      	b.n	8001de2 <HAL_RCC_OscConfig+0x4e2>
        while(__HAL_RCC_GET_FLAG(RCC_FLAG_PLLRDY) != RESET)
 8001cd2:	4b27      	ldr	r3, [pc, #156]	; (8001d70 <HAL_RCC_OscConfig+0x470>)
 8001cd4:	681b      	ldr	r3, [r3, #0]
 8001cd6:	f003 7300 	and.w	r3, r3, #33554432	; 0x2000000
 8001cda:	2b00      	cmp	r3, #0
 8001cdc:	d1f0      	bne.n	8001cc0 <HAL_RCC_OscConfig+0x3c0>
          }
        }

        /* Configure the main PLL clock source, multiplication and division factors. */
        WRITE_REG(RCC->PLLCFGR, (RCC_OscInitStruct->PLL.PLLSource                                            | \
 8001cde:	687b      	ldr	r3, [r7, #4]
 8001ce0:	69da      	ldr	r2, [r3, #28]
 8001ce2:	687b      	ldr	r3, [r7, #4]
 8001ce4:	6a1b      	ldr	r3, [r3, #32]
 8001ce6:	431a      	orrs	r2, r3
 8001ce8:	687b      	ldr	r3, [r7, #4]
 8001cea:	6a5b      	ldr	r3, [r3, #36]	; 0x24
 8001cec:	019b      	lsls	r3, r3, #6
 8001cee:	431a      	orrs	r2, r3
 8001cf0:	687b      	ldr	r3, [r7, #4]
 8001cf2:	6a9b      	ldr	r3, [r3, #40]	; 0x28
 8001cf4:	085b      	lsrs	r3, r3, #1
 8001cf6:	3b01      	subs	r3, #1
 8001cf8:	041b      	lsls	r3, r3, #16
 8001cfa:	431a      	orrs	r2, r3
 8001cfc:	687b      	ldr	r3, [r7, #4]
 8001cfe:	6adb      	ldr	r3, [r3, #44]	; 0x2c
 8001d00:	061b      	lsls	r3, r3, #24
 8001d02:	491b      	ldr	r1, [pc, #108]	; (8001d70 <HAL_RCC_OscConfig+0x470>)
 8001d04:	4313      	orrs	r3, r2
 8001d06:	604b      	str	r3, [r1, #4]
                                 RCC_OscInitStruct->PLL.PLLM                                                 | \
                                 (RCC_OscInitStruct->PLL.PLLN << RCC_PLLCFGR_PLLN_Pos)             | \
                                 (((RCC_OscInitStruct->PLL.PLLP >> 1U) - 1U) << RCC_PLLCFGR_PLLP_Pos) | \
                                 (RCC_OscInitStruct->PLL.PLLQ << RCC_PLLCFGR_PLLQ_Pos)));
        /* Enable the main PLL. */
        __HAL_RCC_PLL_ENABLE();
 8001d08:	4b1b      	ldr	r3, [pc, #108]	; (8001d78 <HAL_RCC_OscConfig+0x478>)
 8001d0a:	2201      	movs	r2, #1
 8001d0c:	601a      	str	r2, [r3, #0]

        /* Get Start Tick */
        tickstart = HAL_GetTick();
 8001d0e:	f7fe fe83 	bl	8000a18 <HAL_GetTick>
 8001d12:	6138      	str	r0, [r7, #16]

        /* Wait till PLL is ready */
        while(__HAL_RCC_GET_FLAG(RCC_FLAG_PLLRDY) == RESET)
 8001d14:	e008      	b.n	8001d28 <HAL_RCC_OscConfig+0x428>
        {
          if((HAL_GetTick() - tickstart ) > PLL_TIMEOUT_VALUE)
 8001d16:	f7fe fe7f 	bl	8000a18 <HAL_GetTick>
 8001d1a:	4602      	mov	r2, r0
 8001d1c:	693b      	ldr	r3, [r7, #16]
 8001d1e:	1ad3      	subs	r3, r2, r3
 8001d20:	2b02      	cmp	r3, #2
 8001d22:	d901      	bls.n	8001d28 <HAL_RCC_OscConfig+0x428>
          {
            return HAL_TIMEOUT;
 8001d24:	2303      	movs	r3, #3
 8001d26:	e05c      	b.n	8001de2 <HAL_RCC_OscConfig+0x4e2>
        while(__HAL_RCC_GET_FLAG(RCC_FLAG_PLLRDY) == RESET)
 8001d28:	4b11      	ldr	r3, [pc, #68]	; (8001d70 <HAL_RCC_OscConfig+0x470>)
 8001d2a:	681b      	ldr	r3, [r3, #0]
 8001d2c:	f003 7300 	and.w	r3, r3, #33554432	; 0x2000000
 8001d30:	2b00      	cmp	r3, #0
 8001d32:	d0f0      	beq.n	8001d16 <HAL_RCC_OscConfig+0x416>
 8001d34:	e054      	b.n	8001de0 <HAL_RCC_OscConfig+0x4e0>
        }
      }
      else
      {
        /* Disable the main PLL. */
        __HAL_RCC_PLL_DISABLE();
 8001d36:	4b10      	ldr	r3, [pc, #64]	; (8001d78 <HAL_RCC_OscConfig+0x478>)
 8001d38:	2200      	movs	r2, #0
 8001d3a:	601a      	str	r2, [r3, #0]

        /* Get Start Tick */
        tickstart = HAL_GetTick();
 8001d3c:	f7fe fe6c 	bl	8000a18 <HAL_GetTick>
 8001d40:	6138      	str	r0, [r7, #16]

        /* Wait till PLL is ready */
        while(__HAL_RCC_GET_FLAG(RCC_FLAG_PLLRDY) != RESET)
 8001d42:	e008      	b.n	8001d56 <HAL_RCC_OscConfig+0x456>
        {
          if((HAL_GetTick() - tickstart ) > PLL_TIMEOUT_VALUE)
 8001d44:	f7fe fe68 	bl	8000a18 <HAL_GetTick>
 8001d48:	4602      	mov	r2, r0
 8001d4a:	693b      	ldr	r3, [r7, #16]
 8001d4c:	1ad3      	subs	r3, r2, r3
 8001d4e:	2b02      	cmp	r3, #2
 8001d50:	d901      	bls.n	8001d56 <HAL_RCC_OscConfig+0x456>
          {
            return HAL_TIMEOUT;
 8001d52:	2303      	movs	r3, #3
 8001d54:	e045      	b.n	8001de2 <HAL_RCC_OscConfig+0x4e2>
        while(__HAL_RCC_GET_FLAG(RCC_FLAG_PLLRDY) != RESET)
 8001d56:	4b06      	ldr	r3, [pc, #24]	; (8001d70 <HAL_RCC_OscConfig+0x470>)
 8001d58:	681b      	ldr	r3, [r3, #0]
 8001d5a:	f003 7300 	and.w	r3, r3, #33554432	; 0x2000000
 8001d5e:	2b00      	cmp	r3, #0
 8001d60:	d1f0      	bne.n	8001d44 <HAL_RCC_OscConfig+0x444>
 8001d62:	e03d      	b.n	8001de0 <HAL_RCC_OscConfig+0x4e0>
      }
    }
    else
    {
      /* Check if there is a request to disable the PLL used as System clock source */
      if((RCC_OscInitStruct->PLL.PLLState) == RCC_PLL_OFF)
 8001d64:	687b      	ldr	r3, [r7, #4]
 8001d66:	699b      	ldr	r3, [r3, #24]
 8001d68:	2b01      	cmp	r3, #1
 8001d6a:	d107      	bne.n	8001d7c <HAL_RCC_OscConfig+0x47c>
      {
        return HAL_ERROR;
 8001d6c:	2301      	movs	r3, #1
 8001d6e:	e038      	b.n	8001de2 <HAL_RCC_OscConfig+0x4e2>
 8001d70:	40023800 	.word	0x40023800
 8001d74:	40007000 	.word	0x40007000
 8001d78:	42470060 	.word	0x42470060
      }
      else
      {
        /* Do not return HAL_ERROR if request repeats the current configuration */
        pll_config = RCC->PLLCFGR;
 8001d7c:	4b1b      	ldr	r3, [pc, #108]	; (8001dec <HAL_RCC_OscConfig+0x4ec>)
 8001d7e:	685b      	ldr	r3, [r3, #4]
 8001d80:	60fb      	str	r3, [r7, #12]
            (READ_BIT(pll_config, RCC_PLLCFGR_PLLN) != (RCC_OscInitStruct->PLL.PLLN) << RCC_PLLCFGR_PLLN_Pos) ||
            (READ_BIT(pll_config, RCC_PLLCFGR_PLLP) != (((RCC_OscInitStruct->PLL.PLLP >> 1U) - 1U)) << RCC_PLLCFGR_PLLP_Pos) ||
            (READ_BIT(pll_config, RCC_PLLCFGR_PLLQ) != (RCC_OscInitStruct->PLL.PLLQ << RCC_PLLCFGR_PLLQ_Pos)) ||
            (READ_BIT(pll_config, RCC_PLLCFGR_PLLR) != (RCC_OscInitStruct->PLL.PLLR << RCC_PLLCFGR_PLLR_Pos)))
#else
        if (((RCC_OscInitStruct->PLL.PLLState) == RCC_PLL_OFF) ||
 8001d82:	687b      	ldr	r3, [r7, #4]
 8001d84:	699b      	ldr	r3, [r3, #24]
 8001d86:	2b01      	cmp	r3, #1
 8001d88:	d028      	beq.n	8001ddc <HAL_RCC_OscConfig+0x4dc>
            (READ_BIT(pll_config, RCC_PLLCFGR_PLLSRC) != RCC_OscInitStruct->PLL.PLLSource) ||
 8001d8a:	68fb      	ldr	r3, [r7, #12]
 8001d8c:	f403 0280 	and.w	r2, r3, #4194304	; 0x400000
 8001d90:	687b      	ldr	r3, [r7, #4]
 8001d92:	69db      	ldr	r3, [r3, #28]
        if (((RCC_OscInitStruct->PLL.PLLState) == RCC_PLL_OFF) ||
 8001d94:	429a      	cmp	r2, r3
 8001d96:	d121      	bne.n	8001ddc <HAL_RCC_OscConfig+0x4dc>
            (READ_BIT(pll_config, RCC_PLLCFGR_PLLM) != (RCC_OscInitStruct->PLL.PLLM) << RCC_PLLCFGR_PLLM_Pos) ||
 8001d98:	68fb      	ldr	r3, [r7, #12]
 8001d9a:	f003 023f 	and.w	r2, r3, #63	; 0x3f
 8001d9e:	687b      	ldr	r3, [r7, #4]
 8001da0:	6a1b      	ldr	r3, [r3, #32]
            (READ_BIT(pll_config, RCC_PLLCFGR_PLLSRC) != RCC_OscInitStruct->PLL.PLLSource) ||
 8001da2:	429a      	cmp	r2, r3
 8001da4:	d11a      	bne.n	8001ddc <HAL_RCC_OscConfig+0x4dc>
            (READ_BIT(pll_config, RCC_PLLCFGR_PLLN) != (RCC_OscInitStruct->PLL.PLLN) << RCC_PLLCFGR_PLLN_Pos) ||
 8001da6:	68fa      	ldr	r2, [r7, #12]
 8001da8:	f647 73c0 	movw	r3, #32704	; 0x7fc0
 8001dac:	4013      	ands	r3, r2
 8001dae:	687a      	ldr	r2, [r7, #4]
 8001db0:	6a52      	ldr	r2, [r2, #36]	; 0x24
 8001db2:	0192      	lsls	r2, r2, #6
            (READ_BIT(pll_config, RCC_PLLCFGR_PLLM) != (RCC_OscInitStruct->PLL.PLLM) << RCC_PLLCFGR_PLLM_Pos) ||
 8001db4:	4293      	cmp	r3, r2
 8001db6:	d111      	bne.n	8001ddc <HAL_RCC_OscConfig+0x4dc>
            (READ_BIT(pll_config, RCC_PLLCFGR_PLLP) != (((RCC_OscInitStruct->PLL.PLLP >> 1U) - 1U)) << RCC_PLLCFGR_PLLP_Pos) ||
 8001db8:	68fb      	ldr	r3, [r7, #12]
 8001dba:	f403 3240 	and.w	r2, r3, #196608	; 0x30000
 8001dbe:	687b      	ldr	r3, [r7, #4]
 8001dc0:	6a9b      	ldr	r3, [r3, #40]	; 0x28
 8001dc2:	085b      	lsrs	r3, r3, #1
 8001dc4:	3b01      	subs	r3, #1
 8001dc6:	041b      	lsls	r3, r3, #16
            (READ_BIT(pll_config, RCC_PLLCFGR_PLLN) != (RCC_OscInitStruct->PLL.PLLN) << RCC_PLLCFGR_PLLN_Pos) ||
 8001dc8:	429a      	cmp	r2, r3
 8001dca:	d107      	bne.n	8001ddc <HAL_RCC_OscConfig+0x4dc>
            (READ_BIT(pll_config, RCC_PLLCFGR_PLLQ) != (RCC_OscInitStruct->PLL.PLLQ << RCC_PLLCFGR_PLLQ_Pos)))
 8001dcc:	68fb      	ldr	r3, [r7, #12]
 8001dce:	f003 6270 	and.w	r2, r3, #251658240	; 0xf000000
 8001dd2:	687b      	ldr	r3, [r7, #4]
 8001dd4:	6adb      	ldr	r3, [r3, #44]	; 0x2c
 8001dd6:	061b      	lsls	r3, r3, #24
            (READ_BIT(pll_config, RCC_PLLCFGR_PLLP) != (((RCC_OscInitStruct->PLL.PLLP >> 1U) - 1U)) << RCC_PLLCFGR_PLLP_Pos) ||
 8001dd8:	429a      	cmp	r2, r3
 8001dda:	d001      	beq.n	8001de0 <HAL_RCC_OscConfig+0x4e0>
#endif
        {
          return HAL_ERROR;
 8001ddc:	2301      	movs	r3, #1
 8001dde:	e000      	b.n	8001de2 <HAL_RCC_OscConfig+0x4e2>
        }
      }
    }
  }
  return HAL_OK;
 8001de0:	2300      	movs	r3, #0
}
 8001de2:	4618      	mov	r0, r3
 8001de4:	3718      	adds	r7, #24
 8001de6:	46bd      	mov	sp, r7
 8001de8:	bd80      	pop	{r7, pc}
 8001dea:	bf00      	nop
 8001dec:	40023800 	.word	0x40023800

08001df0 <HAL_RCC_ClockConfig>:
  *         HPRE[3:0] bits to ensure that HCLK not exceed the maximum allowed frequency
  *         (for more details refer to section above "Initialization/de-initialization functions")
  * @retval None
  */
HAL_StatusTypeDef HAL_RCC_ClockConfig(RCC_ClkInitTypeDef  *RCC_ClkInitStruct, uint32_t FLatency)
{
 8001df0:	b580      	push	{r7, lr}
 8001df2:	b084      	sub	sp, #16
 8001df4:	af00      	add	r7, sp, #0
 8001df6:	6078      	str	r0, [r7, #4]
 8001df8:	6039      	str	r1, [r7, #0]
  uint32_t tickstart;

  /* Check Null pointer */
  if(RCC_ClkInitStruct == NULL)
 8001dfa:	687b      	ldr	r3, [r7, #4]
 8001dfc:	2b00      	cmp	r3, #0
 8001dfe:	d101      	bne.n	8001e04 <HAL_RCC_ClockConfig+0x14>
  {
    return HAL_ERROR;
 8001e00:	2301      	movs	r3, #1
 8001e02:	e0cc      	b.n	8001f9e <HAL_RCC_ClockConfig+0x1ae>
  /* To correctly read data from FLASH memory, the number of wait states (LATENCY)
    must be correctly programmed according to the frequency of the CPU clock
    (HCLK) and the supply voltage of the device. */

  /* Increasing the number of wait states because of higher CPU frequency */
  if(FLatency > __HAL_FLASH_GET_LATENCY())
 8001e04:	4b68      	ldr	r3, [pc, #416]	; (8001fa8 <HAL_RCC_ClockConfig+0x1b8>)
 8001e06:	681b      	ldr	r3, [r3, #0]
 8001e08:	f003 0307 	and.w	r3, r3, #7
 8001e0c:	683a      	ldr	r2, [r7, #0]
 8001e0e:	429a      	cmp	r2, r3
 8001e10:	d90c      	bls.n	8001e2c <HAL_RCC_ClockConfig+0x3c>
  {
    /* Program the new number of wait states to the LATENCY bits in the FLASH_ACR register */
    __HAL_FLASH_SET_LATENCY(FLatency);
 8001e12:	4b65      	ldr	r3, [pc, #404]	; (8001fa8 <HAL_RCC_ClockConfig+0x1b8>)
 8001e14:	683a      	ldr	r2, [r7, #0]
 8001e16:	b2d2      	uxtb	r2, r2
 8001e18:	701a      	strb	r2, [r3, #0]

    /* Check that the new number of wait states is taken into account to access the Flash
    memory by reading the FLASH_ACR register */
    if(__HAL_FLASH_GET_LATENCY() != FLatency)
 8001e1a:	4b63      	ldr	r3, [pc, #396]	; (8001fa8 <HAL_RCC_ClockConfig+0x1b8>)
 8001e1c:	681b      	ldr	r3, [r3, #0]
 8001e1e:	f003 0307 	and.w	r3, r3, #7
 8001e22:	683a      	ldr	r2, [r7, #0]
 8001e24:	429a      	cmp	r2, r3
 8001e26:	d001      	beq.n	8001e2c <HAL_RCC_ClockConfig+0x3c>
    {
      return HAL_ERROR;
 8001e28:	2301      	movs	r3, #1
 8001e2a:	e0b8      	b.n	8001f9e <HAL_RCC_ClockConfig+0x1ae>
    }
  }

  /*-------------------------- HCLK Configuration --------------------------*/
  if(((RCC_ClkInitStruct->ClockType) & RCC_CLOCKTYPE_HCLK) == RCC_CLOCKTYPE_HCLK)
 8001e2c:	687b      	ldr	r3, [r7, #4]
 8001e2e:	681b      	ldr	r3, [r3, #0]
 8001e30:	f003 0302 	and.w	r3, r3, #2
 8001e34:	2b00      	cmp	r3, #0
 8001e36:	d020      	beq.n	8001e7a <HAL_RCC_ClockConfig+0x8a>
  {
    /* Set the highest APBx dividers in order to ensure that we do not go through
       a non-spec phase whatever we decrease or increase HCLK. */
    if(((RCC_ClkInitStruct->ClockType) & RCC_CLOCKTYPE_PCLK1) == RCC_CLOCKTYPE_PCLK1)
 8001e38:	687b      	ldr	r3, [r7, #4]
 8001e3a:	681b      	ldr	r3, [r3, #0]
 8001e3c:	f003 0304 	and.w	r3, r3, #4
 8001e40:	2b00      	cmp	r3, #0
 8001e42:	d005      	beq.n	8001e50 <HAL_RCC_ClockConfig+0x60>
    {
      MODIFY_REG(RCC->CFGR, RCC_CFGR_PPRE1, RCC_HCLK_DIV16);
 8001e44:	4b59      	ldr	r3, [pc, #356]	; (8001fac <HAL_RCC_ClockConfig+0x1bc>)
 8001e46:	689b      	ldr	r3, [r3, #8]
 8001e48:	4a58      	ldr	r2, [pc, #352]	; (8001fac <HAL_RCC_ClockConfig+0x1bc>)
 8001e4a:	f443 53e0 	orr.w	r3, r3, #7168	; 0x1c00
 8001e4e:	6093      	str	r3, [r2, #8]
    }

    if(((RCC_ClkInitStruct->ClockType) & RCC_CLOCKTYPE_PCLK2) == RCC_CLOCKTYPE_PCLK2)
 8001e50:	687b      	ldr	r3, [r7, #4]
 8001e52:	681b      	ldr	r3, [r3, #0]
 8001e54:	f003 0308 	and.w	r3, r3, #8
 8001e58:	2b00      	cmp	r3, #0
 8001e5a:	d005      	beq.n	8001e68 <HAL_RCC_ClockConfig+0x78>
    {
      MODIFY_REG(RCC->CFGR, RCC_CFGR_PPRE2, (RCC_HCLK_DIV16 << 3));
 8001e5c:	4b53      	ldr	r3, [pc, #332]	; (8001fac <HAL_RCC_ClockConfig+0x1bc>)
 8001e5e:	689b      	ldr	r3, [r3, #8]
 8001e60:	4a52      	ldr	r2, [pc, #328]	; (8001fac <HAL_RCC_ClockConfig+0x1bc>)
 8001e62:	f443 4360 	orr.w	r3, r3, #57344	; 0xe000
 8001e66:	6093      	str	r3, [r2, #8]
    }

    assert_param(IS_RCC_HCLK(RCC_ClkInitStruct->AHBCLKDivider));
    MODIFY_REG(RCC->CFGR, RCC_CFGR_HPRE, RCC_ClkInitStruct->AHBCLKDivider);
 8001e68:	4b50      	ldr	r3, [pc, #320]	; (8001fac <HAL_RCC_ClockConfig+0x1bc>)
 8001e6a:	689b      	ldr	r3, [r3, #8]
 8001e6c:	f023 02f0 	bic.w	r2, r3, #240	; 0xf0
 8001e70:	687b      	ldr	r3, [r7, #4]
 8001e72:	689b      	ldr	r3, [r3, #8]
 8001e74:	494d      	ldr	r1, [pc, #308]	; (8001fac <HAL_RCC_ClockConfig+0x1bc>)
 8001e76:	4313      	orrs	r3, r2
 8001e78:	608b      	str	r3, [r1, #8]
  }

  /*------------------------- SYSCLK Configuration ---------------------------*/
  if(((RCC_ClkInitStruct->ClockType) & RCC_CLOCKTYPE_SYSCLK) == RCC_CLOCKTYPE_SYSCLK)
 8001e7a:	687b      	ldr	r3, [r7, #4]
 8001e7c:	681b      	ldr	r3, [r3, #0]
 8001e7e:	f003 0301 	and.w	r3, r3, #1
 8001e82:	2b00      	cmp	r3, #0
 8001e84:	d044      	beq.n	8001f10 <HAL_RCC_ClockConfig+0x120>
  {
    assert_param(IS_RCC_SYSCLKSOURCE(RCC_ClkInitStruct->SYSCLKSource));

    /* HSE is selected as System Clock Source */
    if(RCC_ClkInitStruct->SYSCLKSource == RCC_SYSCLKSOURCE_HSE)
 8001e86:	687b      	ldr	r3, [r7, #4]
 8001e88:	685b      	ldr	r3, [r3, #4]
 8001e8a:	2b01      	cmp	r3, #1
 8001e8c:	d107      	bne.n	8001e9e <HAL_RCC_ClockConfig+0xae>
    {
      /* Check the HSE ready flag */
      if(__HAL_RCC_GET_FLAG(RCC_FLAG_HSERDY) == RESET)
 8001e8e:	4b47      	ldr	r3, [pc, #284]	; (8001fac <HAL_RCC_ClockConfig+0x1bc>)
 8001e90:	681b      	ldr	r3, [r3, #0]
 8001e92:	f403 3300 	and.w	r3, r3, #131072	; 0x20000
 8001e96:	2b00      	cmp	r3, #0
 8001e98:	d119      	bne.n	8001ece <HAL_RCC_ClockConfig+0xde>
      {
        return HAL_ERROR;
 8001e9a:	2301      	movs	r3, #1
 8001e9c:	e07f      	b.n	8001f9e <HAL_RCC_ClockConfig+0x1ae>
      }
    }
    /* PLL is selected as System Clock Source */
    else if((RCC_ClkInitStruct->SYSCLKSource == RCC_SYSCLKSOURCE_PLLCLK)   ||
 8001e9e:	687b      	ldr	r3, [r7, #4]
 8001ea0:	685b      	ldr	r3, [r3, #4]
 8001ea2:	2b02      	cmp	r3, #2
 8001ea4:	d003      	beq.n	8001eae <HAL_RCC_ClockConfig+0xbe>
            (RCC_ClkInitStruct->SYSCLKSource == RCC_SYSCLKSOURCE_PLLRCLK))
 8001ea6:	687b      	ldr	r3, [r7, #4]
 8001ea8:	685b      	ldr	r3, [r3, #4]
    else if((RCC_ClkInitStruct->SYSCLKSource == RCC_SYSCLKSOURCE_PLLCLK)   ||
 8001eaa:	2b03      	cmp	r3, #3
 8001eac:	d107      	bne.n	8001ebe <HAL_RCC_ClockConfig+0xce>
    {
      /* Check the PLL ready flag */
      if(__HAL_RCC_GET_FLAG(RCC_FLAG_PLLRDY) == RESET)
 8001eae:	4b3f      	ldr	r3, [pc, #252]	; (8001fac <HAL_RCC_ClockConfig+0x1bc>)
 8001eb0:	681b      	ldr	r3, [r3, #0]
 8001eb2:	f003 7300 	and.w	r3, r3, #33554432	; 0x2000000
 8001eb6:	2b00      	cmp	r3, #0
 8001eb8:	d109      	bne.n	8001ece <HAL_RCC_ClockConfig+0xde>
      {
        return HAL_ERROR;
 8001eba:	2301      	movs	r3, #1
 8001ebc:	e06f      	b.n	8001f9e <HAL_RCC_ClockConfig+0x1ae>
    }
    /* HSI is selected as System Clock Source */
    else
    {
      /* Check the HSI ready flag */
      if(__HAL_RCC_GET_FLAG(RCC_FLAG_HSIRDY) == RESET)
 8001ebe:	4b3b      	ldr	r3, [pc, #236]	; (8001fac <HAL_RCC_ClockConfig+0x1bc>)
 8001ec0:	681b      	ldr	r3, [r3, #0]
 8001ec2:	f003 0302 	and.w	r3, r3, #2
 8001ec6:	2b00      	cmp	r3, #0
 8001ec8:	d101      	bne.n	8001ece <HAL_RCC_ClockConfig+0xde>
      {
        return HAL_ERROR;
 8001eca:	2301      	movs	r3, #1
 8001ecc:	e067      	b.n	8001f9e <HAL_RCC_ClockConfig+0x1ae>
      }
    }

    __HAL_RCC_SYSCLK_CONFIG(RCC_ClkInitStruct->SYSCLKSource);
 8001ece:	4b37      	ldr	r3, [pc, #220]	; (8001fac <HAL_RCC_ClockConfig+0x1bc>)
 8001ed0:	689b      	ldr	r3, [r3, #8]
 8001ed2:	f023 0203 	bic.w	r2, r3, #3
 8001ed6:	687b      	ldr	r3, [r7, #4]
 8001ed8:	685b      	ldr	r3, [r3, #4]
 8001eda:	4934      	ldr	r1, [pc, #208]	; (8001fac <HAL_RCC_ClockConfig+0x1bc>)
 8001edc:	4313      	orrs	r3, r2
 8001ede:	608b      	str	r3, [r1, #8]

    /* Get Start Tick */
    tickstart = HAL_GetTick();
 8001ee0:	f7fe fd9a 	bl	8000a18 <HAL_GetTick>
 8001ee4:	60f8      	str	r0, [r7, #12]

    while (__HAL_RCC_GET_SYSCLK_SOURCE() != (RCC_ClkInitStruct->SYSCLKSource << RCC_CFGR_SWS_Pos))
 8001ee6:	e00a      	b.n	8001efe <HAL_RCC_ClockConfig+0x10e>
    {
